{
	"day5/p1_home.sol": {
		"MatrixOperations": {
			"abi": [
				{
					"inputs": [
						{
							"internalType": "int256[][]",
							"name": "matrix1",
							"type": "int256[][]"
						},
						{
							"internalType": "int256[][]",
							"name": "matrix2",
							"type": "int256[][]"
						}
					],
					"name": "addMatrices",
					"outputs": [
						{
							"internalType": "int256[][]",
							"name": "",
							"type": "int256[][]"
						}
					],
					"stateMutability": "pure",
					"type": "function"
				},
				{
					"inputs": [
						{
							"internalType": "int256[][]",
							"name": "matrix1",
							"type": "int256[][]"
						},
						{
							"internalType": "int256[][]",
							"name": "matrix2",
							"type": "int256[][]"
						}
					],
					"name": "multiplyMatrices",
					"outputs": [
						{
							"internalType": "int256[][]",
							"name": "",
							"type": "int256[][]"
						}
					],
					"stateMutability": "pure",
					"type": "function"
				},
				{
					"inputs": [
						{
							"internalType": "int256[][]",
							"name": "matrix1",
							"type": "int256[][]"
						},
						{
							"internalType": "int256[][]",
							"name": "matrix2",
							"type": "int256[][]"
						}
					],
					"name": "subtractMatrices",
					"outputs": [
						{
							"internalType": "int256[][]",
							"name": "",
							"type": "int256[][]"
						}
					],
					"stateMutability": "pure",
					"type": "function"
				}
			],
			"devdoc": {
				"kind": "dev",
				"methods": {},
				"version": 1
			},
			"evm": {
				"assembly": "    /* \"day5/p1_home.sol\":60:2607  contract MatrixOperations {... */\n  mstore(0x40, 0x80)\n  callvalue\n  dup1\n  iszero\n  tag_1\n  jumpi\n  0x00\n  dup1\n  revert\ntag_1:\n  pop\n  dataSize(sub_0)\n  dup1\n  dataOffset(sub_0)\n  0x00\n  codecopy\n  0x00\n  return\nstop\n\nsub_0: assembly {\n        /* \"day5/p1_home.sol\":60:2607  contract MatrixOperations {... */\n      mstore(0x40, 0x80)\n      callvalue\n      dup1\n      iszero\n      tag_1\n      jumpi\n      0x00\n      dup1\n      revert\n    tag_1:\n      pop\n      jumpi(tag_2, lt(calldatasize, 0x04))\n      shr(0xe0, calldataload(0x00))\n      dup1\n      0x21a8f355\n      eq\n      tag_3\n      jumpi\n      dup1\n      0x71852ab2\n      eq\n      tag_4\n      jumpi\n      dup1\n      0x8ea9e16c\n      eq\n      tag_5\n      jumpi\n    tag_2:\n      0x00\n      dup1\n      revert\n        /* \"day5/p1_home.sol\":1745:2604  function multiplyMatrices(int[][] memory matrix1, int[][] memory matrix2) public pure returns (int[][] memory) {... */\n    tag_3:\n      tag_6\n      0x04\n      dup1\n      calldatasize\n      sub\n      dup2\n      add\n      swap1\n      tag_7\n      swap2\n      swap1\n      tag_8\n      jump\t// in\n    tag_7:\n      tag_9\n      jump\t// in\n    tag_6:\n      mload(0x40)\n      tag_10\n      swap2\n      swap1\n      tag_11\n      jump\t// in\n    tag_10:\n      mload(0x40)\n      dup1\n      swap2\n      sub\n      swap1\n      return\n        /* \"day5/p1_home.sol\":936:1695  function subtractMatrices(int[][] memory matrix1, int[][] memory matrix2) public pure returns (int[][] memory) {... */\n    tag_4:\n      tag_12\n      0x04\n      dup1\n      calldatasize\n      sub\n      dup2\n      add\n      swap1\n      tag_13\n      swap2\n      swap1\n      tag_8\n      jump\t// in\n    tag_13:\n      tag_14\n      jump\t// in\n    tag_12:\n      mload(0x40)\n      tag_15\n      swap2\n      swap1\n      tag_11\n      jump\t// in\n    tag_15:\n      mload(0x40)\n      dup1\n      swap2\n      sub\n      swap1\n      return\n        /* \"day5/p1_home.sol\":132:886  function addMatrices(int[][] memory matrix1, int[][] memory matrix2) public pure returns (int[][] memory) {... */\n    tag_5:\n      tag_16\n      0x04\n      dup1\n      calldatasize\n      sub\n      dup2\n      add\n      swap1\n      tag_17\n      swap2\n      swap1\n      tag_8\n      jump\t// in\n    tag_17:\n      tag_18\n      jump\t// in\n    tag_16:\n      mload(0x40)\n      tag_19\n      swap2\n      swap1\n      tag_11\n      jump\t// in\n    tag_19:\n      mload(0x40)\n      dup1\n      swap2\n      sub\n      swap1\n      return\n        /* \"day5/p1_home.sol\":1745:2604  function multiplyMatrices(int[][] memory matrix1, int[][] memory matrix2) public pure returns (int[][] memory) {... */\n    tag_9:\n        /* \"day5/p1_home.sol\":1840:1854  int[][] memory */\n      0x60\n        /* \"day5/p1_home.sol\":1976:1983  matrix2 */\n      dup2\n        /* \"day5/p1_home.sol\":1976:1990  matrix2.length */\n      mload\n        /* \"day5/p1_home.sol\":1955:1962  matrix1 */\n      dup4\n        /* \"day5/p1_home.sol\":1963:1964  0 */\n      0x00\n        /* \"day5/p1_home.sol\":1955:1965  matrix1[0] */\n      dup2\n      mload\n      dup2\n      lt\n      tag_21\n      jumpi\n      tag_22\n      tag_23\n      jump\t// in\n    tag_22:\n    tag_21:\n      0x20\n      mul\n      0x20\n      add\n      add\n      mload\n        /* \"day5/p1_home.sol\":1955:1972  matrix1[0].length */\n      mload\n        /* \"day5/p1_home.sol\":1955:1990  matrix1[0].length == matrix2.length */\n      eq\n        /* \"day5/p1_home.sol\":1947:2039  require(matrix1[0].length == matrix2.length, \"Matrix1's columns must equal Matrix2's rows.\") */\n      tag_24\n      jumpi\n      mload(0x40)\n      0x08c379a000000000000000000000000000000000000000000000000000000000\n      dup2\n      mstore\n      0x04\n      add\n      tag_25\n      swap1\n      tag_26\n      jump\t// in\n    tag_25:\n      mload(0x40)\n      dup1\n      swap2\n      sub\n      swap1\n      revert\n    tag_24:\n        /* \"day5/p1_home.sol\":2052:2061  uint rows */\n      0x00\n        /* \"day5/p1_home.sol\":2064:2071  matrix1 */\n      dup4\n        /* \"day5/p1_home.sol\":2064:2078  matrix1.length */\n      mload\n        /* \"day5/p1_home.sol\":2052:2078  uint rows = matrix1.length */\n      swap1\n      pop\n        /* \"day5/p1_home.sol\":2089:2098  uint cols */\n      0x00\n        /* \"day5/p1_home.sol\":2101:2108  matrix2 */\n      dup4\n        /* \"day5/p1_home.sol\":2109:2110  0 */\n      0x00\n        /* \"day5/p1_home.sol\":2101:2111  matrix2[0] */\n      dup2\n      mload\n      dup2\n      lt\n      tag_27\n      jumpi\n      tag_28\n      tag_23\n      jump\t// in\n    tag_28:\n    tag_27:\n      0x20\n      mul\n      0x20\n      add\n      add\n      mload\n        /* \"day5/p1_home.sol\":2101:2118  matrix2[0].length */\n      mload\n        /* \"day5/p1_home.sol\":2089:2118  uint cols = matrix2[0].length */\n      swap1\n      pop\n        /* \"day5/p1_home.sol\":2129:2140  uint common */\n      0x00\n        /* \"day5/p1_home.sol\":2143:2150  matrix1 */\n      dup6\n        /* \"day5/p1_home.sol\":2151:2152  0 */\n      0x00\n        /* \"day5/p1_home.sol\":2143:2153  matrix1[0] */\n      dup2\n      mload\n      dup2\n      lt\n      tag_29\n      jumpi\n      tag_30\n      tag_23\n      jump\t// in\n    tag_30:\n    tag_29:\n      0x20\n      mul\n      0x20\n      add\n      add\n      mload\n        /* \"day5/p1_home.sol\":2143:2160  matrix1[0].length */\n      mload\n        /* \"day5/p1_home.sol\":2129:2160  uint common = matrix1[0].length */\n      swap1\n      pop\n        /* \"day5/p1_home.sol\":2173:2194  int[][] memory result */\n      0x00\n        /* \"day5/p1_home.sol\":2209:2213  rows */\n      dup4\n        /* \"day5/p1_home.sol\":2197:2214  new int[][](rows) */\n      0xffffffffffffffff\n      dup2\n      gt\n      iszero\n      tag_31\n      jumpi\n      tag_32\n      tag_33\n      jump\t// in\n    tag_32:\n    tag_31:\n      mload(0x40)\n      swap1\n      dup1\n      dup3\n      mstore\n      dup1\n      0x20\n      mul\n      0x20\n      add\n      dup3\n      add\n      0x40\n      mstore\n      dup1\n      iszero\n      tag_34\n      jumpi\n      dup2\n      0x20\n      add\n    tag_35:\n      0x60\n      dup2\n      mstore\n      0x20\n      add\n      swap1\n      0x01\n      swap1\n      sub\n      swap1\n      dup2\n      tag_35\n      jumpi\n      swap1\n      pop\n    tag_34:\n      pop\n        /* \"day5/p1_home.sol\":2173:2214  int[][] memory result = new int[][](rows) */\n      swap1\n      pop\n        /* \"day5/p1_home.sol\":2232:2238  uint i */\n      0x00\n        /* \"day5/p1_home.sol\":2227:2573  for (uint i = 0; i < rows; i++) {... */\n    tag_36:\n        /* \"day5/p1_home.sol\":2248:2252  rows */\n      dup5\n        /* \"day5/p1_home.sol\":2244:2245  i */\n      dup2\n        /* \"day5/p1_home.sol\":2244:2252  i < rows */\n      lt\n        /* \"day5/p1_home.sol\":2227:2573  for (uint i = 0; i < rows; i++) {... */\n      iszero\n      tag_37\n      jumpi\n        /* \"day5/p1_home.sol\":2296:2300  cols */\n      dup4\n        /* \"day5/p1_home.sol\":2286:2301  new int[](cols) */\n      0xffffffffffffffff\n      dup2\n      gt\n      iszero\n      tag_39\n      jumpi\n      tag_40\n      tag_33\n      jump\t// in\n    tag_40:\n    tag_39:\n      mload(0x40)\n      swap1\n      dup1\n      dup3\n      mstore\n      dup1\n      0x20\n      mul\n      0x20\n      add\n      dup3\n      add\n      0x40\n      mstore\n      dup1\n      iszero\n      tag_41\n      jumpi\n      dup2\n      0x20\n      add\n      0x20\n      dup3\n      mul\n      dup1\n      calldatasize\n      dup4\n      calldatacopy\n      dup1\n      dup3\n      add\n      swap2\n      pop\n      pop\n      swap1\n      pop\n    tag_41:\n      pop\n        /* \"day5/p1_home.sol\":2274:2280  result */\n      dup3\n        /* \"day5/p1_home.sol\":2281:2282  i */\n      dup3\n        /* \"day5/p1_home.sol\":2274:2283  result[i] */\n      dup2\n      mload\n      dup2\n      lt\n      tag_42\n      jumpi\n      tag_43\n      tag_23\n      jump\t// in\n    tag_43:\n    tag_42:\n      0x20\n      mul\n      0x20\n      add\n      add\n        /* \"day5/p1_home.sol\":2274:2301  result[i] = new int[](cols) */\n      dup2\n      swap1\n      mstore\n      pop\n        /* \"day5/p1_home.sol\":2321:2327  uint j */\n      0x00\n        /* \"day5/p1_home.sol\":2316:2562  for (uint j = 0; j < cols; j++) {... */\n    tag_44:\n        /* \"day5/p1_home.sol\":2337:2341  cols */\n      dup5\n        /* \"day5/p1_home.sol\":2333:2334  j */\n      dup2\n        /* \"day5/p1_home.sol\":2333:2341  j < cols */\n      lt\n        /* \"day5/p1_home.sol\":2316:2562  for (uint j = 0; j < cols; j++) {... */\n      iszero\n      tag_45\n      jumpi\n        /* \"day5/p1_home.sol\":2367:2374  int sum */\n      0x00\n        /* \"day5/p1_home.sol\":2402:2408  uint k */\n      dup1\n        /* \"day5/p1_home.sol\":2397:2510  for (uint k = 0; k < common; k++) {... */\n    tag_47:\n        /* \"day5/p1_home.sol\":2418:2424  common */\n      dup6\n        /* \"day5/p1_home.sol\":2414:2415  k */\n      dup2\n        /* \"day5/p1_home.sol\":2414:2424  k < common */\n      lt\n        /* \"day5/p1_home.sol\":2397:2510  for (uint k = 0; k < common; k++) {... */\n      iszero\n      tag_48\n      jumpi\n        /* \"day5/p1_home.sol\":2477:2484  matrix2 */\n      dup10\n        /* \"day5/p1_home.sol\":2485:2486  k */\n      dup2\n        /* \"day5/p1_home.sol\":2477:2487  matrix2[k] */\n      dup2\n      mload\n      dup2\n      lt\n      tag_50\n      jumpi\n      tag_51\n      tag_23\n      jump\t// in\n    tag_51:\n    tag_50:\n      0x20\n      mul\n      0x20\n      add\n      add\n      mload\n        /* \"day5/p1_home.sol\":2488:2489  j */\n      dup4\n        /* \"day5/p1_home.sol\":2477:2490  matrix2[k][j] */\n      dup2\n      mload\n      dup2\n      lt\n      tag_52\n      jumpi\n      tag_53\n      tag_23\n      jump\t// in\n    tag_53:\n    tag_52:\n      0x20\n      mul\n      0x20\n      add\n      add\n      mload\n        /* \"day5/p1_home.sol\":2461:2468  matrix1 */\n      dup12\n        /* \"day5/p1_home.sol\":2469:2470  i */\n      dup6\n        /* \"day5/p1_home.sol\":2461:2471  matrix1[i] */\n      dup2\n      mload\n      dup2\n      lt\n      tag_54\n      jumpi\n      tag_55\n      tag_23\n      jump\t// in\n    tag_55:\n    tag_54:\n      0x20\n      mul\n      0x20\n      add\n      add\n      mload\n        /* \"day5/p1_home.sol\":2472:2473  k */\n      dup3\n        /* \"day5/p1_home.sol\":2461:2474  matrix1[i][k] */\n      dup2\n      mload\n      dup2\n      lt\n      tag_56\n      jumpi\n      tag_57\n      tag_23\n      jump\t// in\n    tag_57:\n    tag_56:\n      0x20\n      mul\n      0x20\n      add\n      add\n      mload\n        /* \"day5/p1_home.sol\":2461:2490  matrix1[i][k] * matrix2[k][j] */\n      tag_58\n      swap2\n      swap1\n      tag_59\n      jump\t// in\n    tag_58:\n        /* \"day5/p1_home.sol\":2454:2490  sum += matrix1[i][k] * matrix2[k][j] */\n      dup3\n      tag_60\n      swap2\n      swap1\n      tag_61\n      jump\t// in\n    tag_60:\n      swap2\n      pop\n        /* \"day5/p1_home.sol\":2426:2429  k++ */\n      dup1\n      dup1\n      0x01\n      add\n      swap2\n      pop\n      pop\n        /* \"day5/p1_home.sol\":2397:2510  for (uint k = 0; k < common; k++) {... */\n      jump(tag_47)\n    tag_48:\n      pop\n        /* \"day5/p1_home.sol\":2543:2546  sum */\n      dup1\n        /* \"day5/p1_home.sol\":2528:2534  result */\n      dup5\n        /* \"day5/p1_home.sol\":2535:2536  i */\n      dup5\n        /* \"day5/p1_home.sol\":2528:2537  result[i] */\n      dup2\n      mload\n      dup2\n      lt\n      tag_62\n      jumpi\n      tag_63\n      tag_23\n      jump\t// in\n    tag_63:\n    tag_62:\n      0x20\n      mul\n      0x20\n      add\n      add\n      mload\n        /* \"day5/p1_home.sol\":2538:2539  j */\n      dup4\n        /* \"day5/p1_home.sol\":2528:2540  result[i][j] */\n      dup2\n      mload\n      dup2\n      lt\n      tag_64\n      jumpi\n      tag_65\n      tag_23\n      jump\t// in\n    tag_65:\n    tag_64:\n      0x20\n      mul\n      0x20\n      add\n      add\n        /* \"day5/p1_home.sol\":2528:2546  result[i][j] = sum */\n      dup2\n      dup2\n      mstore\n      pop\n      pop\n        /* \"day5/p1_home.sol\":2348:2562  {... */\n      pop\n        /* \"day5/p1_home.sol\":2343:2346  j++ */\n      dup1\n      dup1\n      0x01\n      add\n      swap2\n      pop\n      pop\n        /* \"day5/p1_home.sol\":2316:2562  for (uint j = 0; j < cols; j++) {... */\n      jump(tag_44)\n    tag_45:\n      pop\n        /* \"day5/p1_home.sol\":2254:2257  i++ */\n      dup1\n      dup1\n      0x01\n      add\n      swap2\n      pop\n      pop\n        /* \"day5/p1_home.sol\":2227:2573  for (uint i = 0; i < rows; i++) {... */\n      jump(tag_36)\n    tag_37:\n      pop\n        /* \"day5/p1_home.sol\":2590:2596  result */\n      dup1\n        /* \"day5/p1_home.sol\":2583:2596  return result */\n      swap5\n      pop\n      pop\n      pop\n      pop\n      pop\n        /* \"day5/p1_home.sol\":1745:2604  function multiplyMatrices(int[][] memory matrix1, int[][] memory matrix2) public pure returns (int[][] memory) {... */\n      swap3\n      swap2\n      pop\n      pop\n      jump\t// out\n        /* \"day5/p1_home.sol\":936:1695  function subtractMatrices(int[][] memory matrix1, int[][] memory matrix2) public pure returns (int[][] memory) {... */\n    tag_14:\n        /* \"day5/p1_home.sol\":1031:1045  int[][] memory */\n      0x60\n        /* \"day5/p1_home.sol\":1137:1144  matrix2 */\n      dup2\n        /* \"day5/p1_home.sol\":1137:1151  matrix2.length */\n      mload\n        /* \"day5/p1_home.sol\":1119:1126  matrix1 */\n      dup4\n        /* \"day5/p1_home.sol\":1119:1133  matrix1.length */\n      mload\n        /* \"day5/p1_home.sol\":1119:1151  matrix1.length == matrix2.length */\n      eq\n        /* \"day5/p1_home.sol\":1111:1199  require(matrix1.length == matrix2.length, \"Matrices must have the same number of rows.\") */\n      tag_67\n      jumpi\n      mload(0x40)\n      0x08c379a000000000000000000000000000000000000000000000000000000000\n      dup2\n      mstore\n      0x04\n      add\n      tag_68\n      swap1\n      tag_69\n      jump\t// in\n    tag_68:\n      mload(0x40)\n      dup1\n      swap2\n      sub\n      swap1\n      revert\n    tag_67:\n        /* \"day5/p1_home.sol\":1239:1246  matrix2 */\n      dup2\n        /* \"day5/p1_home.sol\":1247:1248  0 */\n      0x00\n        /* \"day5/p1_home.sol\":1239:1249  matrix2[0] */\n      dup2\n      mload\n      dup2\n      lt\n      tag_70\n      jumpi\n      tag_71\n      tag_23\n      jump\t// in\n    tag_71:\n    tag_70:\n      0x20\n      mul\n      0x20\n      add\n      add\n      mload\n        /* \"day5/p1_home.sol\":1239:1256  matrix2[0].length */\n      mload\n        /* \"day5/p1_home.sol\":1218:1225  matrix1 */\n      dup4\n        /* \"day5/p1_home.sol\":1226:1227  0 */\n      0x00\n        /* \"day5/p1_home.sol\":1218:1228  matrix1[0] */\n      dup2\n      mload\n      dup2\n      lt\n      tag_72\n      jumpi\n      tag_73\n      tag_23\n      jump\t// in\n    tag_73:\n    tag_72:\n      0x20\n      mul\n      0x20\n      add\n      add\n      mload\n        /* \"day5/p1_home.sol\":1218:1235  matrix1[0].length */\n      mload\n        /* \"day5/p1_home.sol\":1218:1256  matrix1[0].length == matrix2[0].length */\n      eq\n        /* \"day5/p1_home.sol\":1210:1307  require(matrix1[0].length == matrix2[0].length, \"Matrices must have the same number of columns.\") */\n      tag_74\n      jumpi\n      mload(0x40)\n      0x08c379a000000000000000000000000000000000000000000000000000000000\n      dup2\n      mstore\n      0x04\n      add\n      tag_75\n      swap1\n      tag_76\n      jump\t// in\n    tag_75:\n      mload(0x40)\n      dup1\n      swap2\n      sub\n      swap1\n      revert\n    tag_74:\n        /* \"day5/p1_home.sol\":1320:1329  uint rows */\n      0x00\n        /* \"day5/p1_home.sol\":1332:1339  matrix1 */\n      dup4\n        /* \"day5/p1_home.sol\":1332:1346  matrix1.length */\n      mload\n        /* \"day5/p1_home.sol\":1320:1346  uint rows = matrix1.length */\n      swap1\n      pop\n        /* \"day5/p1_home.sol\":1357:1366  uint cols */\n      0x00\n        /* \"day5/p1_home.sol\":1369:1376  matrix1 */\n      dup5\n        /* \"day5/p1_home.sol\":1377:1378  0 */\n      0x00\n        /* \"day5/p1_home.sol\":1369:1379  matrix1[0] */\n      dup2\n      mload\n      dup2\n      lt\n      tag_77\n      jumpi\n      tag_78\n      tag_23\n      jump\t// in\n    tag_78:\n    tag_77:\n      0x20\n      mul\n      0x20\n      add\n      add\n      mload\n        /* \"day5/p1_home.sol\":1369:1386  matrix1[0].length */\n      mload\n        /* \"day5/p1_home.sol\":1357:1386  uint cols = matrix1[0].length */\n      swap1\n      pop\n        /* \"day5/p1_home.sol\":1399:1420  int[][] memory result */\n      0x00\n        /* \"day5/p1_home.sol\":1435:1439  rows */\n      dup3\n        /* \"day5/p1_home.sol\":1423:1440  new int[][](rows) */\n      0xffffffffffffffff\n      dup2\n      gt\n      iszero\n      tag_79\n      jumpi\n      tag_80\n      tag_33\n      jump\t// in\n    tag_80:\n    tag_79:\n      mload(0x40)\n      swap1\n      dup1\n      dup3\n      mstore\n      dup1\n      0x20\n      mul\n      0x20\n      add\n      dup3\n      add\n      0x40\n      mstore\n      dup1\n      iszero\n      tag_81\n      jumpi\n      dup2\n      0x20\n      add\n    tag_82:\n      0x60\n      dup2\n      mstore\n      0x20\n      add\n      swap1\n      0x01\n      swap1\n      sub\n      swap1\n      dup2\n      tag_82\n      jumpi\n      swap1\n      pop\n    tag_81:\n      pop\n        /* \"day5/p1_home.sol\":1399:1440  int[][] memory result = new int[][](rows) */\n      swap1\n      pop\n        /* \"day5/p1_home.sol\":1458:1464  uint i */\n      0x00\n        /* \"day5/p1_home.sol\":1453:1664  for (uint i = 0; i < rows; i++) {... */\n    tag_83:\n        /* \"day5/p1_home.sol\":1474:1478  rows */\n      dup4\n        /* \"day5/p1_home.sol\":1470:1471  i */\n      dup2\n        /* \"day5/p1_home.sol\":1470:1478  i < rows */\n      lt\n        /* \"day5/p1_home.sol\":1453:1664  for (uint i = 0; i < rows; i++) {... */\n      iszero\n      tag_84\n      jumpi\n        /* \"day5/p1_home.sol\":1522:1526  cols */\n      dup3\n        /* \"day5/p1_home.sol\":1512:1527  new int[](cols) */\n      0xffffffffffffffff\n      dup2\n      gt\n      iszero\n      tag_86\n      jumpi\n      tag_87\n      tag_33\n      jump\t// in\n    tag_87:\n    tag_86:\n      mload(0x40)\n      swap1\n      dup1\n      dup3\n      mstore\n      dup1\n      0x20\n      mul\n      0x20\n      add\n      dup3\n      add\n      0x40\n      mstore\n      dup1\n      iszero\n      tag_88\n      jumpi\n      dup2\n      0x20\n      add\n      0x20\n      dup3\n      mul\n      dup1\n      calldatasize\n      dup4\n      calldatacopy\n      dup1\n      dup3\n      add\n      swap2\n      pop\n      pop\n      swap1\n      pop\n    tag_88:\n      pop\n        /* \"day5/p1_home.sol\":1500:1506  result */\n      dup3\n        /* \"day5/p1_home.sol\":1507:1508  i */\n      dup3\n        /* \"day5/p1_home.sol\":1500:1509  result[i] */\n      dup2\n      mload\n      dup2\n      lt\n      tag_89\n      jumpi\n      tag_90\n      tag_23\n      jump\t// in\n    tag_90:\n    tag_89:\n      0x20\n      mul\n      0x20\n      add\n      add\n        /* \"day5/p1_home.sol\":1500:1527  result[i] = new int[](cols) */\n      dup2\n      swap1\n      mstore\n      pop\n        /* \"day5/p1_home.sol\":1547:1553  uint j */\n      0x00\n        /* \"day5/p1_home.sol\":1542:1653  for (uint j = 0; j < cols; j++) {... */\n    tag_91:\n        /* \"day5/p1_home.sol\":1563:1567  cols */\n      dup4\n        /* \"day5/p1_home.sol\":1559:1560  j */\n      dup2\n        /* \"day5/p1_home.sol\":1559:1567  j < cols */\n      lt\n        /* \"day5/p1_home.sol\":1542:1653  for (uint j = 0; j < cols; j++) {... */\n      iszero\n      tag_92\n      jumpi\n        /* \"day5/p1_home.sol\":1624:1631  matrix2 */\n      dup7\n        /* \"day5/p1_home.sol\":1632:1633  i */\n      dup3\n        /* \"day5/p1_home.sol\":1624:1634  matrix2[i] */\n      dup2\n      mload\n      dup2\n      lt\n      tag_94\n      jumpi\n      tag_95\n      tag_23\n      jump\t// in\n    tag_95:\n    tag_94:\n      0x20\n      mul\n      0x20\n      add\n      add\n      mload\n        /* \"day5/p1_home.sol\":1635:1636  j */\n      dup2\n        /* \"day5/p1_home.sol\":1624:1637  matrix2[i][j] */\n      dup2\n      mload\n      dup2\n      lt\n      tag_96\n      jumpi\n      tag_97\n      tag_23\n      jump\t// in\n    tag_97:\n    tag_96:\n      0x20\n      mul\n      0x20\n      add\n      add\n      mload\n        /* \"day5/p1_home.sol\":1608:1615  matrix1 */\n      dup9\n        /* \"day5/p1_home.sol\":1616:1617  i */\n      dup4\n        /* \"day5/p1_home.sol\":1608:1618  matrix1[i] */\n      dup2\n      mload\n      dup2\n      lt\n      tag_98\n      jumpi\n      tag_99\n      tag_23\n      jump\t// in\n    tag_99:\n    tag_98:\n      0x20\n      mul\n      0x20\n      add\n      add\n      mload\n        /* \"day5/p1_home.sol\":1619:1620  j */\n      dup3\n        /* \"day5/p1_home.sol\":1608:1621  matrix1[i][j] */\n      dup2\n      mload\n      dup2\n      lt\n      tag_100\n      jumpi\n      tag_101\n      tag_23\n      jump\t// in\n    tag_101:\n    tag_100:\n      0x20\n      mul\n      0x20\n      add\n      add\n      mload\n        /* \"day5/p1_home.sol\":1608:1637  matrix1[i][j] - matrix2[i][j] */\n      tag_102\n      swap2\n      swap1\n      tag_103\n      jump\t// in\n    tag_102:\n        /* \"day5/p1_home.sol\":1593:1599  result */\n      dup4\n        /* \"day5/p1_home.sol\":1600:1601  i */\n      dup4\n        /* \"day5/p1_home.sol\":1593:1602  result[i] */\n      dup2\n      mload\n      dup2\n      lt\n      tag_104\n      jumpi\n      tag_105\n      tag_23\n      jump\t// in\n    tag_105:\n    tag_104:\n      0x20\n      mul\n      0x20\n      add\n      add\n      mload\n        /* \"day5/p1_home.sol\":1603:1604  j */\n      dup3\n        /* \"day5/p1_home.sol\":1593:1605  result[i][j] */\n      dup2\n      mload\n      dup2\n      lt\n      tag_106\n      jumpi\n      tag_107\n      tag_23\n      jump\t// in\n    tag_107:\n    tag_106:\n      0x20\n      mul\n      0x20\n      add\n      add\n        /* \"day5/p1_home.sol\":1593:1637  result[i][j] = matrix1[i][j] - matrix2[i][j] */\n      dup2\n      dup2\n      mstore\n      pop\n      pop\n        /* \"day5/p1_home.sol\":1569:1572  j++ */\n      dup1\n      dup1\n      0x01\n      add\n      swap2\n      pop\n      pop\n        /* \"day5/p1_home.sol\":1542:1653  for (uint j = 0; j < cols; j++) {... */\n      jump(tag_91)\n    tag_92:\n      pop\n        /* \"day5/p1_home.sol\":1480:1483  i++ */\n      dup1\n      dup1\n      0x01\n      add\n      swap2\n      pop\n      pop\n        /* \"day5/p1_home.sol\":1453:1664  for (uint i = 0; i < rows; i++) {... */\n      jump(tag_83)\n    tag_84:\n      pop\n        /* \"day5/p1_home.sol\":1681:1687  result */\n      dup1\n        /* \"day5/p1_home.sol\":1674:1687  return result */\n      swap4\n      pop\n      pop\n      pop\n      pop\n        /* \"day5/p1_home.sol\":936:1695  function subtractMatrices(int[][] memory matrix1, int[][] memory matrix2) public pure returns (int[][] memory) {... */\n      swap3\n      swap2\n      pop\n      pop\n      jump\t// out\n        /* \"day5/p1_home.sol\":132:886  function addMatrices(int[][] memory matrix1, int[][] memory matrix2) public pure returns (int[][] memory) {... */\n    tag_18:\n        /* \"day5/p1_home.sol\":222:236  int[][] memory */\n      0x60\n        /* \"day5/p1_home.sol\":328:335  matrix2 */\n      dup2\n        /* \"day5/p1_home.sol\":328:342  matrix2.length */\n      mload\n        /* \"day5/p1_home.sol\":310:317  matrix1 */\n      dup4\n        /* \"day5/p1_home.sol\":310:324  matrix1.length */\n      mload\n        /* \"day5/p1_home.sol\":310:342  matrix1.length == matrix2.length */\n      eq\n        /* \"day5/p1_home.sol\":302:390  require(matrix1.length == matrix2.length, \"Matrices must have the same number of rows.\") */\n      tag_109\n      jumpi\n      mload(0x40)\n      0x08c379a000000000000000000000000000000000000000000000000000000000\n      dup2\n      mstore\n      0x04\n      add\n      tag_110\n      swap1\n      tag_69\n      jump\t// in\n    tag_110:\n      mload(0x40)\n      dup1\n      swap2\n      sub\n      swap1\n      revert\n    tag_109:\n        /* \"day5/p1_home.sol\":430:437  matrix2 */\n      dup2\n        /* \"day5/p1_home.sol\":438:439  0 */\n      0x00\n        /* \"day5/p1_home.sol\":430:440  matrix2[0] */\n      dup2\n      mload\n      dup2\n      lt\n      tag_111\n      jumpi\n      tag_112\n      tag_23\n      jump\t// in\n    tag_112:\n    tag_111:\n      0x20\n      mul\n      0x20\n      add\n      add\n      mload\n        /* \"day5/p1_home.sol\":430:447  matrix2[0].length */\n      mload\n        /* \"day5/p1_home.sol\":409:416  matrix1 */\n      dup4\n        /* \"day5/p1_home.sol\":417:418  0 */\n      0x00\n        /* \"day5/p1_home.sol\":409:419  matrix1[0] */\n      dup2\n      mload\n      dup2\n      lt\n      tag_113\n      jumpi\n      tag_114\n      tag_23\n      jump\t// in\n    tag_114:\n    tag_113:\n      0x20\n      mul\n      0x20\n      add\n      add\n      mload\n        /* \"day5/p1_home.sol\":409:426  matrix1[0].length */\n      mload\n        /* \"day5/p1_home.sol\":409:447  matrix1[0].length == matrix2[0].length */\n      eq\n        /* \"day5/p1_home.sol\":401:498  require(matrix1[0].length == matrix2[0].length, \"Matrices must have the same number of columns.\") */\n      tag_115\n      jumpi\n      mload(0x40)\n      0x08c379a000000000000000000000000000000000000000000000000000000000\n      dup2\n      mstore\n      0x04\n      add\n      tag_116\n      swap1\n      tag_76\n      jump\t// in\n    tag_116:\n      mload(0x40)\n      dup1\n      swap2\n      sub\n      swap1\n      revert\n    tag_115:\n        /* \"day5/p1_home.sol\":511:520  uint rows */\n      0x00\n        /* \"day5/p1_home.sol\":523:530  matrix1 */\n      dup4\n        /* \"day5/p1_home.sol\":523:537  matrix1.length */\n      mload\n        /* \"day5/p1_home.sol\":511:537  uint rows = matrix1.length */\n      swap1\n      pop\n        /* \"day5/p1_home.sol\":548:557  uint cols */\n      0x00\n        /* \"day5/p1_home.sol\":560:567  matrix1 */\n      dup5\n        /* \"day5/p1_home.sol\":568:569  0 */\n      0x00\n        /* \"day5/p1_home.sol\":560:570  matrix1[0] */\n      dup2\n      mload\n      dup2\n      lt\n      tag_117\n      jumpi\n      tag_118\n      tag_23\n      jump\t// in\n    tag_118:\n    tag_117:\n      0x20\n      mul\n      0x20\n      add\n      add\n      mload\n        /* \"day5/p1_home.sol\":560:577  matrix1[0].length */\n      mload\n        /* \"day5/p1_home.sol\":548:577  uint cols = matrix1[0].length */\n      swap1\n      pop\n        /* \"day5/p1_home.sol\":590:611  int[][] memory result */\n      0x00\n        /* \"day5/p1_home.sol\":626:630  rows */\n      dup3\n        /* \"day5/p1_home.sol\":614:631  new int[][](rows) */\n      0xffffffffffffffff\n      dup2\n      gt\n      iszero\n      tag_119\n      jumpi\n      tag_120\n      tag_33\n      jump\t// in\n    tag_120:\n    tag_119:\n      mload(0x40)\n      swap1\n      dup1\n      dup3\n      mstore\n      dup1\n      0x20\n      mul\n      0x20\n      add\n      dup3\n      add\n      0x40\n      mstore\n      dup1\n      iszero\n      tag_121\n      jumpi\n      dup2\n      0x20\n      add\n    tag_122:\n      0x60\n      dup2\n      mstore\n      0x20\n      add\n      swap1\n      0x01\n      swap1\n      sub\n      swap1\n      dup2\n      tag_122\n      jumpi\n      swap1\n      pop\n    tag_121:\n      pop\n        /* \"day5/p1_home.sol\":590:631  int[][] memory result = new int[][](rows) */\n      swap1\n      pop\n        /* \"day5/p1_home.sol\":649:655  uint i */\n      0x00\n        /* \"day5/p1_home.sol\":644:855  for (uint i = 0; i < rows; i++) {... */\n    tag_123:\n        /* \"day5/p1_home.sol\":665:669  rows */\n      dup4\n        /* \"day5/p1_home.sol\":661:662  i */\n      dup2\n        /* \"day5/p1_home.sol\":661:669  i < rows */\n      lt\n        /* \"day5/p1_home.sol\":644:855  for (uint i = 0; i < rows; i++) {... */\n      iszero\n      tag_124\n      jumpi\n        /* \"day5/p1_home.sol\":713:717  cols */\n      dup3\n        /* \"day5/p1_home.sol\":703:718  new int[](cols) */\n      0xffffffffffffffff\n      dup2\n      gt\n      iszero\n      tag_126\n      jumpi\n      tag_127\n      tag_33\n      jump\t// in\n    tag_127:\n    tag_126:\n      mload(0x40)\n      swap1\n      dup1\n      dup3\n      mstore\n      dup1\n      0x20\n      mul\n      0x20\n      add\n      dup3\n      add\n      0x40\n      mstore\n      dup1\n      iszero\n      tag_128\n      jumpi\n      dup2\n      0x20\n      add\n      0x20\n      dup3\n      mul\n      dup1\n      calldatasize\n      dup4\n      calldatacopy\n      dup1\n      dup3\n      add\n      swap2\n      pop\n      pop\n      swap1\n      pop\n    tag_128:\n      pop\n        /* \"day5/p1_home.sol\":691:697  result */\n      dup3\n        /* \"day5/p1_home.sol\":698:699  i */\n      dup3\n        /* \"day5/p1_home.sol\":691:700  result[i] */\n      dup2\n      mload\n      dup2\n      lt\n      tag_129\n      jumpi\n      tag_130\n      tag_23\n      jump\t// in\n    tag_130:\n    tag_129:\n      0x20\n      mul\n      0x20\n      add\n      add\n        /* \"day5/p1_home.sol\":691:718  result[i] = new int[](cols) */\n      dup2\n      swap1\n      mstore\n      pop\n        /* \"day5/p1_home.sol\":738:744  uint j */\n      0x00\n        /* \"day5/p1_home.sol\":733:844  for (uint j = 0; j < cols; j++) {... */\n    tag_131:\n        /* \"day5/p1_home.sol\":754:758  cols */\n      dup4\n        /* \"day5/p1_home.sol\":750:751  j */\n      dup2\n        /* \"day5/p1_home.sol\":750:758  j < cols */\n      lt\n        /* \"day5/p1_home.sol\":733:844  for (uint j = 0; j < cols; j++) {... */\n      iszero\n      tag_132\n      jumpi\n        /* \"day5/p1_home.sol\":815:822  matrix2 */\n      dup7\n        /* \"day5/p1_home.sol\":823:824  i */\n      dup3\n        /* \"day5/p1_home.sol\":815:825  matrix2[i] */\n      dup2\n      mload\n      dup2\n      lt\n      tag_134\n      jumpi\n      tag_135\n      tag_23\n      jump\t// in\n    tag_135:\n    tag_134:\n      0x20\n      mul\n      0x20\n      add\n      add\n      mload\n        /* \"day5/p1_home.sol\":826:827  j */\n      dup2\n        /* \"day5/p1_home.sol\":815:828  matrix2[i][j] */\n      dup2\n      mload\n      dup2\n      lt\n      tag_136\n      jumpi\n      tag_137\n      tag_23\n      jump\t// in\n    tag_137:\n    tag_136:\n      0x20\n      mul\n      0x20\n      add\n      add\n      mload\n        /* \"day5/p1_home.sol\":799:806  matrix1 */\n      dup9\n        /* \"day5/p1_home.sol\":807:808  i */\n      dup4\n        /* \"day5/p1_home.sol\":799:809  matrix1[i] */\n      dup2\n      mload\n      dup2\n      lt\n      tag_138\n      jumpi\n      tag_139\n      tag_23\n      jump\t// in\n    tag_139:\n    tag_138:\n      0x20\n      mul\n      0x20\n      add\n      add\n      mload\n        /* \"day5/p1_home.sol\":810:811  j */\n      dup3\n        /* \"day5/p1_home.sol\":799:812  matrix1[i][j] */\n      dup2\n      mload\n      dup2\n      lt\n      tag_140\n      jumpi\n      tag_141\n      tag_23\n      jump\t// in\n    tag_141:\n    tag_140:\n      0x20\n      mul\n      0x20\n      add\n      add\n      mload\n        /* \"day5/p1_home.sol\":799:828  matrix1[i][j] + matrix2[i][j] */\n      tag_142\n      swap2\n      swap1\n      tag_61\n      jump\t// in\n    tag_142:\n        /* \"day5/p1_home.sol\":784:790  result */\n      dup4\n        /* \"day5/p1_home.sol\":791:792  i */\n      dup4\n        /* \"day5/p1_home.sol\":784:793  result[i] */\n      dup2\n      mload\n      dup2\n      lt\n      tag_143\n      jumpi\n      tag_144\n      tag_23\n      jump\t// in\n    tag_144:\n    tag_143:\n      0x20\n      mul\n      0x20\n      add\n      add\n      mload\n        /* \"day5/p1_home.sol\":794:795  j */\n      dup3\n        /* \"day5/p1_home.sol\":784:796  result[i][j] */\n      dup2\n      mload\n      dup2\n      lt\n      tag_145\n      jumpi\n      tag_146\n      tag_23\n      jump\t// in\n    tag_146:\n    tag_145:\n      0x20\n      mul\n      0x20\n      add\n      add\n        /* \"day5/p1_home.sol\":784:828  result[i][j] = matrix1[i][j] + matrix2[i][j] */\n      dup2\n      dup2\n      mstore\n      pop\n      pop\n        /* \"day5/p1_home.sol\":760:763  j++ */\n      dup1\n      dup1\n      0x01\n      add\n      swap2\n      pop\n      pop\n        /* \"day5/p1_home.sol\":733:844  for (uint j = 0; j < cols; j++) {... */\n      jump(tag_131)\n    tag_132:\n      pop\n        /* \"day5/p1_home.sol\":671:674  i++ */\n      dup1\n      dup1\n      0x01\n      add\n      swap2\n      pop\n      pop\n        /* \"day5/p1_home.sol\":644:855  for (uint i = 0; i < rows; i++) {... */\n      jump(tag_123)\n    tag_124:\n      pop\n        /* \"day5/p1_home.sol\":872:878  result */\n      dup1\n        /* \"day5/p1_home.sol\":865:878  return result */\n      swap4\n      pop\n      pop\n      pop\n      pop\n        /* \"day5/p1_home.sol\":132:886  function addMatrices(int[][] memory matrix1, int[][] memory matrix2) public pure returns (int[][] memory) {... */\n      swap3\n      swap2\n      pop\n      pop\n      jump\t// out\n        /* \"#utility.yul\":7:82   */\n    tag_147:\n        /* \"#utility.yul\":40:46   */\n      0x00\n        /* \"#utility.yul\":73:75   */\n      0x40\n        /* \"#utility.yul\":67:76   */\n      mload\n        /* \"#utility.yul\":57:76   */\n      swap1\n      pop\n        /* \"#utility.yul\":7:82   */\n      swap1\n      jump\t// out\n        /* \"#utility.yul\":88:205   */\n    tag_148:\n        /* \"#utility.yul\":197:198   */\n      0x00\n        /* \"#utility.yul\":194:195   */\n      dup1\n        /* \"#utility.yul\":187:199   */\n      revert\n        /* \"#utility.yul\":211:328   */\n    tag_149:\n        /* \"#utility.yul\":320:321   */\n      0x00\n        /* \"#utility.yul\":317:318   */\n      dup1\n        /* \"#utility.yul\":310:322   */\n      revert\n        /* \"#utility.yul\":334:451   */\n    tag_150:\n        /* \"#utility.yul\":443:444   */\n      0x00\n        /* \"#utility.yul\":440:441   */\n      dup1\n        /* \"#utility.yul\":433:445   */\n      revert\n        /* \"#utility.yul\":457:559   */\n    tag_151:\n        /* \"#utility.yul\":498:504   */\n      0x00\n        /* \"#utility.yul\":549:551   */\n      0x1f\n        /* \"#utility.yul\":545:552   */\n      not\n        /* \"#utility.yul\":540:542   */\n      0x1f\n        /* \"#utility.yul\":533:538   */\n      dup4\n        /* \"#utility.yul\":529:543   */\n      add\n        /* \"#utility.yul\":525:553   */\n      and\n        /* \"#utility.yul\":515:553   */\n      swap1\n      pop\n        /* \"#utility.yul\":457:559   */\n      swap2\n      swap1\n      pop\n      jump\t// out\n        /* \"#utility.yul\":565:745   */\n    tag_33:\n        /* \"#utility.yul\":613:690   */\n      0x4e487b7100000000000000000000000000000000000000000000000000000000\n        /* \"#utility.yul\":610:611   */\n      0x00\n        /* \"#utility.yul\":603:691   */\n      mstore\n        /* \"#utility.yul\":710:714   */\n      0x41\n        /* \"#utility.yul\":707:708   */\n      0x04\n        /* \"#utility.yul\":700:715   */\n      mstore\n        /* \"#utility.yul\":734:738   */\n      0x24\n        /* \"#utility.yul\":731:732   */\n      0x00\n        /* \"#utility.yul\":724:739   */\n      revert\n        /* \"#utility.yul\":751:1032   */\n    tag_152:\n        /* \"#utility.yul\":834:861   */\n      tag_193\n        /* \"#utility.yul\":856:860   */\n      dup3\n        /* \"#utility.yul\":834:861   */\n      tag_151\n      jump\t// in\n    tag_193:\n        /* \"#utility.yul\":826:832   */\n      dup2\n        /* \"#utility.yul\":822:862   */\n      add\n        /* \"#utility.yul\":964:970   */\n      dup2\n        /* \"#utility.yul\":952:962   */\n      dup2\n        /* \"#utility.yul\":949:971   */\n      lt\n        /* \"#utility.yul\":928:946   */\n      0xffffffffffffffff\n        /* \"#utility.yul\":916:926   */\n      dup3\n        /* \"#utility.yul\":913:947   */\n      gt\n        /* \"#utility.yul\":910:972   */\n      or\n        /* \"#utility.yul\":907:995   */\n      iszero\n      tag_194\n      jumpi\n        /* \"#utility.yul\":975:993   */\n      tag_195\n      tag_33\n      jump\t// in\n    tag_195:\n        /* \"#utility.yul\":907:995   */\n    tag_194:\n        /* \"#utility.yul\":1015:1025   */\n      dup1\n        /* \"#utility.yul\":1011:1013   */\n      0x40\n        /* \"#utility.yul\":1004:1026   */\n      mstore\n        /* \"#utility.yul\":794:1032   */\n      pop\n        /* \"#utility.yul\":751:1032   */\n      pop\n      pop\n      jump\t// out\n        /* \"#utility.yul\":1038:1167   */\n    tag_153:\n        /* \"#utility.yul\":1072:1078   */\n      0x00\n        /* \"#utility.yul\":1099:1119   */\n      tag_197\n      tag_147\n      jump\t// in\n    tag_197:\n        /* \"#utility.yul\":1089:1119   */\n      swap1\n      pop\n        /* \"#utility.yul\":1128:1161   */\n      tag_198\n        /* \"#utility.yul\":1156:1160   */\n      dup3\n        /* \"#utility.yul\":1148:1154   */\n      dup3\n        /* \"#utility.yul\":1128:1161   */\n      tag_152\n      jump\t// in\n    tag_198:\n        /* \"#utility.yul\":1038:1167   */\n      swap2\n      swap1\n      pop\n      jump\t// out\n        /* \"#utility.yul\":1173:1508   */\n    tag_154:\n        /* \"#utility.yul\":1274:1278   */\n      0x00\n        /* \"#utility.yul\":1364:1382   */\n      0xffffffffffffffff\n        /* \"#utility.yul\":1356:1362   */\n      dup3\n        /* \"#utility.yul\":1353:1383   */\n      gt\n        /* \"#utility.yul\":1350:1406   */\n      iszero\n      tag_200\n      jumpi\n        /* \"#utility.yul\":1386:1404   */\n      tag_201\n      tag_33\n      jump\t// in\n    tag_201:\n        /* \"#utility.yul\":1350:1406   */\n    tag_200:\n        /* \"#utility.yul\":1436:1440   */\n      0x20\n        /* \"#utility.yul\":1428:1434   */\n      dup3\n        /* \"#utility.yul\":1424:1441   */\n      mul\n        /* \"#utility.yul\":1416:1441   */\n      swap1\n      pop\n        /* \"#utility.yul\":1496:1500   */\n      0x20\n        /* \"#utility.yul\":1490:1494   */\n      dup2\n        /* \"#utility.yul\":1486:1501   */\n      add\n        /* \"#utility.yul\":1478:1501   */\n      swap1\n      pop\n        /* \"#utility.yul\":1173:1508   */\n      swap2\n      swap1\n      pop\n      jump\t// out\n        /* \"#utility.yul\":1514:1631   */\n    tag_155:\n        /* \"#utility.yul\":1623:1624   */\n      0x00\n        /* \"#utility.yul\":1620:1621   */\n      dup1\n        /* \"#utility.yul\":1613:1625   */\n      revert\n        /* \"#utility.yul\":1637:1947   */\n    tag_156:\n        /* \"#utility.yul\":1713:1717   */\n      0x00\n        /* \"#utility.yul\":1803:1821   */\n      0xffffffffffffffff\n        /* \"#utility.yul\":1795:1801   */\n      dup3\n        /* \"#utility.yul\":1792:1822   */\n      gt\n        /* \"#utility.yul\":1789:1845   */\n      iszero\n      tag_204\n      jumpi\n        /* \"#utility.yul\":1825:1843   */\n      tag_205\n      tag_33\n      jump\t// in\n    tag_205:\n        /* \"#utility.yul\":1789:1845   */\n    tag_204:\n        /* \"#utility.yul\":1875:1879   */\n      0x20\n        /* \"#utility.yul\":1867:1873   */\n      dup3\n        /* \"#utility.yul\":1863:1880   */\n      mul\n        /* \"#utility.yul\":1855:1880   */\n      swap1\n      pop\n        /* \"#utility.yul\":1935:1939   */\n      0x20\n        /* \"#utility.yul\":1929:1933   */\n      dup2\n        /* \"#utility.yul\":1925:1940   */\n      add\n        /* \"#utility.yul\":1917:1940   */\n      swap1\n      pop\n        /* \"#utility.yul\":1637:1947   */\n      swap2\n      swap1\n      pop\n      jump\t// out\n        /* \"#utility.yul\":1953:2029   */\n    tag_157:\n        /* \"#utility.yul\":1989:1996   */\n      0x00\n        /* \"#utility.yul\":2018:2023   */\n      dup2\n        /* \"#utility.yul\":2007:2023   */\n      swap1\n      pop\n        /* \"#utility.yul\":1953:2029   */\n      swap2\n      swap1\n      pop\n      jump\t// out\n        /* \"#utility.yul\":2035:2155   */\n    tag_158:\n        /* \"#utility.yul\":2107:2130   */\n      tag_208\n        /* \"#utility.yul\":2124:2129   */\n      dup2\n        /* \"#utility.yul\":2107:2130   */\n      tag_157\n      jump\t// in\n    tag_208:\n        /* \"#utility.yul\":2100:2105   */\n      dup2\n        /* \"#utility.yul\":2097:2131   */\n      eq\n        /* \"#utility.yul\":2087:2149   */\n      tag_209\n      jumpi\n        /* \"#utility.yul\":2145:2146   */\n      0x00\n        /* \"#utility.yul\":2142:2143   */\n      dup1\n        /* \"#utility.yul\":2135:2147   */\n      revert\n        /* \"#utility.yul\":2087:2149   */\n    tag_209:\n        /* \"#utility.yul\":2035:2155   */\n      pop\n      jump\t// out\n        /* \"#utility.yul\":2161:2298   */\n    tag_159:\n        /* \"#utility.yul\":2206:2211   */\n      0x00\n        /* \"#utility.yul\":2244:2250   */\n      dup2\n        /* \"#utility.yul\":2231:2251   */\n      calldataload\n        /* \"#utility.yul\":2222:2251   */\n      swap1\n      pop\n        /* \"#utility.yul\":2260:2292   */\n      tag_211\n        /* \"#utility.yul\":2286:2291   */\n      dup2\n        /* \"#utility.yul\":2260:2292   */\n      tag_158\n      jump\t// in\n    tag_211:\n        /* \"#utility.yul\":2161:2298   */\n      swap3\n      swap2\n      pop\n      pop\n      jump\t// out\n        /* \"#utility.yul\":2320:3027   */\n    tag_160:\n        /* \"#utility.yul\":2415:2420   */\n      0x00\n        /* \"#utility.yul\":2440:2520   */\n      tag_213\n        /* \"#utility.yul\":2456:2519   */\n      tag_214\n        /* \"#utility.yul\":2512:2518   */\n      dup5\n        /* \"#utility.yul\":2456:2519   */\n      tag_156\n      jump\t// in\n    tag_214:\n        /* \"#utility.yul\":2440:2520   */\n      tag_153\n      jump\t// in\n    tag_213:\n        /* \"#utility.yul\":2431:2520   */\n      swap1\n      pop\n        /* \"#utility.yul\":2540:2545   */\n      dup1\n        /* \"#utility.yul\":2569:2575   */\n      dup4\n        /* \"#utility.yul\":2562:2567   */\n      dup3\n        /* \"#utility.yul\":2555:2576   */\n      mstore\n        /* \"#utility.yul\":2603:2607   */\n      0x20\n        /* \"#utility.yul\":2596:2601   */\n      dup3\n        /* \"#utility.yul\":2592:2608   */\n      add\n        /* \"#utility.yul\":2585:2608   */\n      swap1\n      pop\n        /* \"#utility.yul\":2656:2660   */\n      0x20\n        /* \"#utility.yul\":2648:2654   */\n      dup5\n        /* \"#utility.yul\":2644:2661   */\n      mul\n        /* \"#utility.yul\":2636:2642   */\n      dup4\n        /* \"#utility.yul\":2632:2662   */\n      add\n        /* \"#utility.yul\":2685:2688   */\n      dup6\n        /* \"#utility.yul\":2677:2683   */\n      dup2\n        /* \"#utility.yul\":2674:2689   */\n      gt\n        /* \"#utility.yul\":2671:2793   */\n      iszero\n      tag_215\n      jumpi\n        /* \"#utility.yul\":2704:2783   */\n      tag_216\n      tag_155\n      jump\t// in\n    tag_216:\n        /* \"#utility.yul\":2671:2793   */\n    tag_215:\n        /* \"#utility.yul\":2819:2825   */\n      dup4\n        /* \"#utility.yul\":2802:3021   */\n    tag_217:\n        /* \"#utility.yul\":2836:2842   */\n      dup2\n        /* \"#utility.yul\":2831:2834   */\n      dup2\n        /* \"#utility.yul\":2828:2843   */\n      lt\n        /* \"#utility.yul\":2802:3021   */\n      iszero\n      tag_219\n      jumpi\n        /* \"#utility.yul\":2911:2914   */\n      dup1\n        /* \"#utility.yul\":2940:2976   */\n      tag_220\n        /* \"#utility.yul\":2972:2975   */\n      dup9\n        /* \"#utility.yul\":2960:2970   */\n      dup3\n        /* \"#utility.yul\":2940:2976   */\n      tag_159\n      jump\t// in\n    tag_220:\n        /* \"#utility.yul\":2935:2938   */\n      dup5\n        /* \"#utility.yul\":2928:2977   */\n      mstore\n        /* \"#utility.yul\":3006:3010   */\n      0x20\n        /* \"#utility.yul\":3001:3004   */\n      dup5\n        /* \"#utility.yul\":2997:3011   */\n      add\n        /* \"#utility.yul\":2990:3011   */\n      swap4\n      pop\n        /* \"#utility.yul\":2878:3021   */\n      pop\n        /* \"#utility.yul\":2862:2866   */\n      0x20\n        /* \"#utility.yul\":2857:2860   */\n      dup2\n        /* \"#utility.yul\":2853:2867   */\n      add\n        /* \"#utility.yul\":2846:2867   */\n      swap1\n      pop\n        /* \"#utility.yul\":2802:3021   */\n      jump(tag_217)\n    tag_219:\n        /* \"#utility.yul\":2806:2827   */\n      pop\n        /* \"#utility.yul\":2421:3027   */\n      pop\n      pop\n        /* \"#utility.yul\":2320:3027   */\n      swap4\n      swap3\n      pop\n      pop\n      pop\n      jump\t// out\n        /* \"#utility.yul\":3049:3417   */\n    tag_161:\n        /* \"#utility.yul\":3119:3124   */\n      0x00\n        /* \"#utility.yul\":3168:3171   */\n      dup3\n        /* \"#utility.yul\":3161:3165   */\n      0x1f\n        /* \"#utility.yul\":3153:3159   */\n      dup4\n        /* \"#utility.yul\":3149:3166   */\n      add\n        /* \"#utility.yul\":3145:3172   */\n      slt\n        /* \"#utility.yul\":3135:3257   */\n      tag_222\n      jumpi\n        /* \"#utility.yul\":3176:3255   */\n      tag_223\n      tag_150\n      jump\t// in\n    tag_223:\n        /* \"#utility.yul\":3135:3257   */\n    tag_222:\n        /* \"#utility.yul\":3293:3299   */\n      dup2\n        /* \"#utility.yul\":3280:3300   */\n      calldataload\n        /* \"#utility.yul\":3318:3411   */\n      tag_224\n        /* \"#utility.yul\":3407:3410   */\n      dup5\n        /* \"#utility.yul\":3399:3405   */\n      dup3\n        /* \"#utility.yul\":3392:3396   */\n      0x20\n        /* \"#utility.yul\":3384:3390   */\n      dup7\n        /* \"#utility.yul\":3380:3397   */\n      add\n        /* \"#utility.yul\":3318:3411   */\n      tag_160\n      jump\t// in\n    tag_224:\n        /* \"#utility.yul\":3309:3411   */\n      swap2\n      pop\n        /* \"#utility.yul\":3125:3417   */\n      pop\n        /* \"#utility.yul\":3049:3417   */\n      swap3\n      swap2\n      pop\n      pop\n      jump\t// out\n        /* \"#utility.yul\":3441:4428   */\n    tag_162:\n        /* \"#utility.yul\":3561:3566   */\n      0x00\n        /* \"#utility.yul\":3586:3691   */\n      tag_226\n        /* \"#utility.yul\":3602:3690   */\n      tag_227\n        /* \"#utility.yul\":3683:3689   */\n      dup5\n        /* \"#utility.yul\":3602:3690   */\n      tag_154\n      jump\t// in\n    tag_227:\n        /* \"#utility.yul\":3586:3691   */\n      tag_153\n      jump\t// in\n    tag_226:\n        /* \"#utility.yul\":3577:3691   */\n      swap1\n      pop\n        /* \"#utility.yul\":3711:3716   */\n      dup1\n        /* \"#utility.yul\":3740:3746   */\n      dup4\n        /* \"#utility.yul\":3733:3738   */\n      dup3\n        /* \"#utility.yul\":3726:3747   */\n      mstore\n        /* \"#utility.yul\":3774:3778   */\n      0x20\n        /* \"#utility.yul\":3767:3772   */\n      dup3\n        /* \"#utility.yul\":3763:3779   */\n      add\n        /* \"#utility.yul\":3756:3779   */\n      swap1\n      pop\n        /* \"#utility.yul\":3827:3831   */\n      0x20\n        /* \"#utility.yul\":3819:3825   */\n      dup5\n        /* \"#utility.yul\":3815:3832   */\n      mul\n        /* \"#utility.yul\":3807:3813   */\n      dup4\n        /* \"#utility.yul\":3803:3833   */\n      add\n        /* \"#utility.yul\":3856:3859   */\n      dup6\n        /* \"#utility.yul\":3848:3854   */\n      dup2\n        /* \"#utility.yul\":3845:3860   */\n      gt\n        /* \"#utility.yul\":3842:3964   */\n      iszero\n      tag_228\n      jumpi\n        /* \"#utility.yul\":3875:3954   */\n      tag_229\n      tag_155\n      jump\t// in\n    tag_229:\n        /* \"#utility.yul\":3842:3964   */\n    tag_228:\n        /* \"#utility.yul\":3990:3996   */\n      dup4\n        /* \"#utility.yul\":3973:4422   */\n    tag_230:\n        /* \"#utility.yul\":4007:4013   */\n      dup2\n        /* \"#utility.yul\":4002:4005   */\n      dup2\n        /* \"#utility.yul\":3999:4014   */\n      lt\n        /* \"#utility.yul\":3973:4422   */\n      iszero\n      tag_232\n      jumpi\n        /* \"#utility.yul\":4096:4099   */\n      dup1\n        /* \"#utility.yul\":4083:4100   */\n      calldataload\n        /* \"#utility.yul\":4132:4150   */\n      0xffffffffffffffff\n        /* \"#utility.yul\":4119:4130   */\n      dup2\n        /* \"#utility.yul\":4116:4151   */\n      gt\n        /* \"#utility.yul\":4113:4235   */\n      iszero\n      tag_233\n      jumpi\n        /* \"#utility.yul\":4154:4233   */\n      tag_234\n      tag_150\n      jump\t// in\n    tag_234:\n        /* \"#utility.yul\":4113:4235   */\n    tag_233:\n        /* \"#utility.yul\":4278:4289   */\n      dup1\n        /* \"#utility.yul\":4270:4276   */\n      dup7\n        /* \"#utility.yul\":4266:4290   */\n      add\n        /* \"#utility.yul\":4316:4377   */\n      tag_235\n        /* \"#utility.yul\":4373:4376   */\n      dup10\n        /* \"#utility.yul\":4361:4371   */\n      dup3\n        /* \"#utility.yul\":4316:4377   */\n      tag_161\n      jump\t// in\n    tag_235:\n        /* \"#utility.yul\":4311:4314   */\n      dup6\n        /* \"#utility.yul\":4304:4378   */\n      mstore\n        /* \"#utility.yul\":4407:4411   */\n      0x20\n        /* \"#utility.yul\":4402:4405   */\n      dup6\n        /* \"#utility.yul\":4398:4412   */\n      add\n        /* \"#utility.yul\":4391:4412   */\n      swap5\n      pop\n        /* \"#utility.yul\":4049:4422   */\n      pop\n      pop\n        /* \"#utility.yul\":4033:4037   */\n      0x20\n        /* \"#utility.yul\":4028:4031   */\n      dup2\n        /* \"#utility.yul\":4024:4038   */\n      add\n        /* \"#utility.yul\":4017:4038   */\n      swap1\n      pop\n        /* \"#utility.yul\":3973:4422   */\n      jump(tag_230)\n    tag_232:\n        /* \"#utility.yul\":3977:3998   */\n      pop\n        /* \"#utility.yul\":3567:4428   */\n      pop\n      pop\n        /* \"#utility.yul\":3441:4428   */\n      swap4\n      swap3\n      pop\n      pop\n      pop\n      jump\t// out\n        /* \"#utility.yul\":4452:4870   */\n    tag_163:\n        /* \"#utility.yul\":4547:4552   */\n      0x00\n        /* \"#utility.yul\":4596:4599   */\n      dup3\n        /* \"#utility.yul\":4589:4593   */\n      0x1f\n        /* \"#utility.yul\":4581:4587   */\n      dup4\n        /* \"#utility.yul\":4577:4594   */\n      add\n        /* \"#utility.yul\":4573:4600   */\n      slt\n        /* \"#utility.yul\":4563:4685   */\n      tag_237\n      jumpi\n        /* \"#utility.yul\":4604:4683   */\n      tag_238\n      tag_150\n      jump\t// in\n    tag_238:\n        /* \"#utility.yul\":4563:4685   */\n    tag_237:\n        /* \"#utility.yul\":4721:4727   */\n      dup2\n        /* \"#utility.yul\":4708:4728   */\n      calldataload\n        /* \"#utility.yul\":4746:4864   */\n      tag_239\n        /* \"#utility.yul\":4860:4863   */\n      dup5\n        /* \"#utility.yul\":4852:4858   */\n      dup3\n        /* \"#utility.yul\":4845:4849   */\n      0x20\n        /* \"#utility.yul\":4837:4843   */\n      dup7\n        /* \"#utility.yul\":4833:4850   */\n      add\n        /* \"#utility.yul\":4746:4864   */\n      tag_162\n      jump\t// in\n    tag_239:\n        /* \"#utility.yul\":4737:4864   */\n      swap2\n      pop\n        /* \"#utility.yul\":4553:4870   */\n      pop\n        /* \"#utility.yul\":4452:4870   */\n      swap3\n      swap2\n      pop\n      pop\n      jump\t// out\n        /* \"#utility.yul\":4876:5866   */\n    tag_8:\n        /* \"#utility.yul\":5042:5048   */\n      0x00\n        /* \"#utility.yul\":5050:5056   */\n      dup1\n        /* \"#utility.yul\":5099:5101   */\n      0x40\n        /* \"#utility.yul\":5087:5096   */\n      dup4\n        /* \"#utility.yul\":5078:5085   */\n      dup6\n        /* \"#utility.yul\":5074:5097   */\n      sub\n        /* \"#utility.yul\":5070:5102   */\n      slt\n        /* \"#utility.yul\":5067:5186   */\n      iszero\n      tag_241\n      jumpi\n        /* \"#utility.yul\":5105:5184   */\n      tag_242\n      tag_148\n      jump\t// in\n    tag_242:\n        /* \"#utility.yul\":5067:5186   */\n    tag_241:\n        /* \"#utility.yul\":5253:5254   */\n      0x00\n        /* \"#utility.yul\":5242:5251   */\n      dup4\n        /* \"#utility.yul\":5238:5255   */\n      add\n        /* \"#utility.yul\":5225:5256   */\n      calldataload\n        /* \"#utility.yul\":5283:5301   */\n      0xffffffffffffffff\n        /* \"#utility.yul\":5275:5281   */\n      dup2\n        /* \"#utility.yul\":5272:5302   */\n      gt\n        /* \"#utility.yul\":5269:5386   */\n      iszero\n      tag_243\n      jumpi\n        /* \"#utility.yul\":5305:5384   */\n      tag_244\n      tag_149\n      jump\t// in\n    tag_244:\n        /* \"#utility.yul\":5269:5386   */\n    tag_243:\n        /* \"#utility.yul\":5410:5512   */\n      tag_245\n        /* \"#utility.yul\":5504:5511   */\n      dup6\n        /* \"#utility.yul\":5495:5501   */\n      dup3\n        /* \"#utility.yul\":5484:5493   */\n      dup7\n        /* \"#utility.yul\":5480:5502   */\n      add\n        /* \"#utility.yul\":5410:5512   */\n      tag_163\n      jump\t// in\n    tag_245:\n        /* \"#utility.yul\":5400:5512   */\n      swap3\n      pop\n        /* \"#utility.yul\":5196:5522   */\n      pop\n        /* \"#utility.yul\":5589:5591   */\n      0x20\n        /* \"#utility.yul\":5578:5587   */\n      dup4\n        /* \"#utility.yul\":5574:5592   */\n      add\n        /* \"#utility.yul\":5561:5593   */\n      calldataload\n        /* \"#utility.yul\":5620:5638   */\n      0xffffffffffffffff\n        /* \"#utility.yul\":5612:5618   */\n      dup2\n        /* \"#utility.yul\":5609:5639   */\n      gt\n        /* \"#utility.yul\":5606:5723   */\n      iszero\n      tag_246\n      jumpi\n        /* \"#utility.yul\":5642:5721   */\n      tag_247\n      tag_149\n      jump\t// in\n    tag_247:\n        /* \"#utility.yul\":5606:5723   */\n    tag_246:\n        /* \"#utility.yul\":5747:5849   */\n      tag_248\n        /* \"#utility.yul\":5841:5848   */\n      dup6\n        /* \"#utility.yul\":5832:5838   */\n      dup3\n        /* \"#utility.yul\":5821:5830   */\n      dup7\n        /* \"#utility.yul\":5817:5839   */\n      add\n        /* \"#utility.yul\":5747:5849   */\n      tag_163\n      jump\t// in\n    tag_248:\n        /* \"#utility.yul\":5737:5849   */\n      swap2\n      pop\n        /* \"#utility.yul\":5532:5859   */\n      pop\n        /* \"#utility.yul\":4876:5866   */\n      swap3\n      pop\n      swap3\n      swap1\n      pop\n      jump\t// out\n        /* \"#utility.yul\":5872:6010   */\n    tag_164:\n        /* \"#utility.yul\":5963:5969   */\n      0x00\n        /* \"#utility.yul\":5997:6002   */\n      dup2\n        /* \"#utility.yul\":5991:6003   */\n      mload\n        /* \"#utility.yul\":5981:6003   */\n      swap1\n      pop\n        /* \"#utility.yul\":5872:6010   */\n      swap2\n      swap1\n      pop\n      jump\t// out\n        /* \"#utility.yul\":6016:6224   */\n    tag_165:\n        /* \"#utility.yul\":6139:6150   */\n      0x00\n        /* \"#utility.yul\":6173:6179   */\n      dup3\n        /* \"#utility.yul\":6168:6171   */\n      dup3\n        /* \"#utility.yul\":6161:6180   */\n      mstore\n        /* \"#utility.yul\":6213:6217   */\n      0x20\n        /* \"#utility.yul\":6208:6211   */\n      dup3\n        /* \"#utility.yul\":6204:6218   */\n      add\n        /* \"#utility.yul\":6189:6218   */\n      swap1\n      pop\n        /* \"#utility.yul\":6016:6224   */\n      swap3\n      swap2\n      pop\n      pop\n      jump\t// out\n        /* \"#utility.yul\":6230:6386   */\n    tag_166:\n        /* \"#utility.yul\":6321:6325   */\n      0x00\n        /* \"#utility.yul\":6344:6347   */\n      dup2\n        /* \"#utility.yul\":6336:6347   */\n      swap1\n      pop\n        /* \"#utility.yul\":6374:6378   */\n      0x20\n        /* \"#utility.yul\":6369:6372   */\n      dup3\n        /* \"#utility.yul\":6365:6379   */\n      add\n        /* \"#utility.yul\":6357:6379   */\n      swap1\n      pop\n        /* \"#utility.yul\":6230:6386   */\n      swap2\n      swap1\n      pop\n      jump\t// out\n        /* \"#utility.yul\":6392:6505   */\n    tag_167:\n        /* \"#utility.yul\":6458:6464   */\n      0x00\n        /* \"#utility.yul\":6492:6497   */\n      dup2\n        /* \"#utility.yul\":6486:6498   */\n      mload\n        /* \"#utility.yul\":6476:6498   */\n      swap1\n      pop\n        /* \"#utility.yul\":6392:6505   */\n      swap2\n      swap1\n      pop\n      jump\t// out\n        /* \"#utility.yul\":6511:6684   */\n    tag_168:\n        /* \"#utility.yul\":6599:6610   */\n      0x00\n        /* \"#utility.yul\":6633:6639   */\n      dup3\n        /* \"#utility.yul\":6628:6631   */\n      dup3\n        /* \"#utility.yul\":6621:6640   */\n      mstore\n        /* \"#utility.yul\":6673:6677   */\n      0x20\n        /* \"#utility.yul\":6668:6671   */\n      dup3\n        /* \"#utility.yul\":6664:6678   */\n      add\n        /* \"#utility.yul\":6649:6678   */\n      swap1\n      pop\n        /* \"#utility.yul\":6511:6684   */\n      swap3\n      swap2\n      pop\n      pop\n      jump\t// out\n        /* \"#utility.yul\":6690:6821   */\n    tag_169:\n        /* \"#utility.yul\":6756:6760   */\n      0x00\n        /* \"#utility.yul\":6779:6782   */\n      dup2\n        /* \"#utility.yul\":6771:6782   */\n      swap1\n      pop\n        /* \"#utility.yul\":6809:6813   */\n      0x20\n        /* \"#utility.yul\":6804:6807   */\n      dup3\n        /* \"#utility.yul\":6800:6814   */\n      add\n        /* \"#utility.yul\":6792:6814   */\n      swap1\n      pop\n        /* \"#utility.yul\":6690:6821   */\n      swap2\n      swap1\n      pop\n      jump\t// out\n        /* \"#utility.yul\":6827:6932   */\n    tag_170:\n        /* \"#utility.yul\":6902:6925   */\n      tag_256\n        /* \"#utility.yul\":6919:6924   */\n      dup2\n        /* \"#utility.yul\":6902:6925   */\n      tag_157\n      jump\t// in\n    tag_256:\n        /* \"#utility.yul\":6897:6900   */\n      dup3\n        /* \"#utility.yul\":6890:6926   */\n      mstore\n        /* \"#utility.yul\":6827:6932   */\n      pop\n      pop\n      jump\t// out\n        /* \"#utility.yul\":6938:7113   */\n    tag_171:\n        /* \"#utility.yul\":7005:7015   */\n      0x00\n        /* \"#utility.yul\":7026:7070   */\n      tag_258\n        /* \"#utility.yul\":7066:7069   */\n      dup4\n        /* \"#utility.yul\":7058:7064   */\n      dup4\n        /* \"#utility.yul\":7026:7070   */\n      tag_170\n      jump\t// in\n    tag_258:\n        /* \"#utility.yul\":7102:7106   */\n      0x20\n        /* \"#utility.yul\":7097:7100   */\n      dup4\n        /* \"#utility.yul\":7093:7107   */\n      add\n        /* \"#utility.yul\":7079:7107   */\n      swap1\n      pop\n        /* \"#utility.yul\":6938:7113   */\n      swap3\n      swap2\n      pop\n      pop\n      jump\t// out\n        /* \"#utility.yul\":7119:7231   */\n    tag_172:\n        /* \"#utility.yul\":7188:7192   */\n      0x00\n        /* \"#utility.yul\":7220:7224   */\n      0x20\n        /* \"#utility.yul\":7215:7218   */\n      dup3\n        /* \"#utility.yul\":7211:7225   */\n      add\n        /* \"#utility.yul\":7203:7225   */\n      swap1\n      pop\n        /* \"#utility.yul\":7119:7231   */\n      swap2\n      swap1\n      pop\n      jump\t// out\n        /* \"#utility.yul\":7265:7969   */\n    tag_173:\n        /* \"#utility.yul\":7372:7375   */\n      0x00\n        /* \"#utility.yul\":7401:7454   */\n      tag_261\n        /* \"#utility.yul\":7448:7453   */\n      dup3\n        /* \"#utility.yul\":7401:7454   */\n      tag_167\n      jump\t// in\n    tag_261:\n        /* \"#utility.yul\":7470:7545   */\n      tag_262\n        /* \"#utility.yul\":7538:7544   */\n      dup2\n        /* \"#utility.yul\":7533:7536   */\n      dup6\n        /* \"#utility.yul\":7470:7545   */\n      tag_168\n      jump\t// in\n    tag_262:\n        /* \"#utility.yul\":7463:7545   */\n      swap4\n      pop\n        /* \"#utility.yul\":7569:7624   */\n      tag_263\n        /* \"#utility.yul\":7618:7623   */\n      dup4\n        /* \"#utility.yul\":7569:7624   */\n      tag_169\n      jump\t// in\n    tag_263:\n        /* \"#utility.yul\":7647:7654   */\n      dup1\n        /* \"#utility.yul\":7678:7679   */\n      0x00\n        /* \"#utility.yul\":7663:7944   */\n    tag_264:\n        /* \"#utility.yul\":7688:7694   */\n      dup4\n        /* \"#utility.yul\":7685:7686   */\n      dup2\n        /* \"#utility.yul\":7682:7695   */\n      lt\n        /* \"#utility.yul\":7663:7944   */\n      iszero\n      tag_266\n      jumpi\n        /* \"#utility.yul\":7764:7770   */\n      dup2\n        /* \"#utility.yul\":7758:7771   */\n      mload\n        /* \"#utility.yul\":7791:7852   */\n      tag_267\n        /* \"#utility.yul\":7848:7851   */\n      dup9\n        /* \"#utility.yul\":7833:7846   */\n      dup3\n        /* \"#utility.yul\":7791:7852   */\n      tag_171\n      jump\t// in\n    tag_267:\n        /* \"#utility.yul\":7784:7852   */\n      swap8\n      pop\n        /* \"#utility.yul\":7875:7934   */\n      tag_268\n        /* \"#utility.yul\":7927:7933   */\n      dup4\n        /* \"#utility.yul\":7875:7934   */\n      tag_172\n      jump\t// in\n    tag_268:\n        /* \"#utility.yul\":7865:7934   */\n      swap3\n      pop\n        /* \"#utility.yul\":7723:7944   */\n      pop\n        /* \"#utility.yul\":7710:7711   */\n      0x01\n        /* \"#utility.yul\":7707:7708   */\n      dup2\n        /* \"#utility.yul\":7703:7712   */\n      add\n        /* \"#utility.yul\":7698:7712   */\n      swap1\n      pop\n        /* \"#utility.yul\":7663:7944   */\n      jump(tag_264)\n    tag_266:\n        /* \"#utility.yul\":7667:7681   */\n      pop\n        /* \"#utility.yul\":7960:7963   */\n      dup6\n        /* \"#utility.yul\":7953:7963   */\n      swap4\n      pop\n        /* \"#utility.yul\":7377:7969   */\n      pop\n      pop\n      pop\n        /* \"#utility.yul\":7265:7969   */\n      swap3\n      swap2\n      pop\n      pop\n      jump\t// out\n        /* \"#utility.yul\":7975:8227   */\n    tag_174:\n        /* \"#utility.yul\":8092:8102   */\n      0x00\n        /* \"#utility.yul\":8127:8221   */\n      tag_270\n        /* \"#utility.yul\":8217:8220   */\n      dup4\n        /* \"#utility.yul\":8209:8215   */\n      dup4\n        /* \"#utility.yul\":8127:8221   */\n      tag_173\n      jump\t// in\n    tag_270:\n        /* \"#utility.yul\":8113:8221   */\n      swap1\n      pop\n        /* \"#utility.yul\":7975:8227   */\n      swap3\n      swap2\n      pop\n      pop\n      jump\t// out\n        /* \"#utility.yul\":8233:8370   */\n    tag_175:\n        /* \"#utility.yul\":8327:8331   */\n      0x00\n        /* \"#utility.yul\":8359:8363   */\n      0x20\n        /* \"#utility.yul\":8354:8357   */\n      dup3\n        /* \"#utility.yul\":8350:8364   */\n      add\n        /* \"#utility.yul\":8342:8364   */\n      swap1\n      pop\n        /* \"#utility.yul\":8233:8370   */\n      swap2\n      swap1\n      pop\n      jump\t// out\n        /* \"#utility.yul\":8408:9511   */\n    tag_176:\n        /* \"#utility.yul\":8575:8578   */\n      0x00\n        /* \"#utility.yul\":8604:8682   */\n      tag_273\n        /* \"#utility.yul\":8676:8681   */\n      dup3\n        /* \"#utility.yul\":8604:8682   */\n      tag_164\n      jump\t// in\n    tag_273:\n        /* \"#utility.yul\":8698:8808   */\n      tag_274\n        /* \"#utility.yul\":8801:8807   */\n      dup2\n        /* \"#utility.yul\":8796:8799   */\n      dup6\n        /* \"#utility.yul\":8698:8808   */\n      tag_165\n      jump\t// in\n    tag_274:\n        /* \"#utility.yul\":8691:8808   */\n      swap4\n      pop\n        /* \"#utility.yul\":8834:8837   */\n      dup4\n        /* \"#utility.yul\":8879:8883   */\n      0x20\n        /* \"#utility.yul\":8871:8877   */\n      dup3\n        /* \"#utility.yul\":8867:8884   */\n      mul\n        /* \"#utility.yul\":8862:8865   */\n      dup6\n        /* \"#utility.yul\":8858:8885   */\n      add\n        /* \"#utility.yul\":8909:8989   */\n      tag_275\n        /* \"#utility.yul\":8983:8988   */\n      dup6\n        /* \"#utility.yul\":8909:8989   */\n      tag_166\n      jump\t// in\n    tag_275:\n        /* \"#utility.yul\":9012:9019   */\n      dup1\n        /* \"#utility.yul\":9043:9044   */\n      0x00\n        /* \"#utility.yul\":9028:9466   */\n    tag_276:\n        /* \"#utility.yul\":9053:9059   */\n      dup6\n        /* \"#utility.yul\":9050:9051   */\n      dup2\n        /* \"#utility.yul\":9047:9060   */\n      lt\n        /* \"#utility.yul\":9028:9466   */\n      iszero\n      tag_278\n      jumpi\n        /* \"#utility.yul\":9124:9133   */\n      dup5\n        /* \"#utility.yul\":9118:9122   */\n      dup5\n        /* \"#utility.yul\":9114:9134   */\n      sub\n        /* \"#utility.yul\":9109:9112   */\n      dup10\n        /* \"#utility.yul\":9102:9135   */\n      mstore\n        /* \"#utility.yul\":9175:9181   */\n      dup2\n        /* \"#utility.yul\":9169:9182   */\n      mload\n        /* \"#utility.yul\":9203:9315   */\n      tag_279\n        /* \"#utility.yul\":9310:9314   */\n      dup6\n        /* \"#utility.yul\":9295:9308   */\n      dup3\n        /* \"#utility.yul\":9203:9315   */\n      tag_174\n      jump\t// in\n    tag_279:\n        /* \"#utility.yul\":9195:9315   */\n      swap5\n      pop\n        /* \"#utility.yul\":9338:9422   */\n      tag_280\n        /* \"#utility.yul\":9415:9421   */\n      dup4\n        /* \"#utility.yul\":9338:9422   */\n      tag_175\n      jump\t// in\n    tag_280:\n        /* \"#utility.yul\":9328:9422   */\n      swap3\n      pop\n        /* \"#utility.yul\":9451:9455   */\n      0x20\n        /* \"#utility.yul\":9446:9449   */\n      dup11\n        /* \"#utility.yul\":9442:9456   */\n      add\n        /* \"#utility.yul\":9435:9456   */\n      swap10\n      pop\n        /* \"#utility.yul\":9088:9466   */\n      pop\n        /* \"#utility.yul\":9075:9076   */\n      0x01\n        /* \"#utility.yul\":9072:9073   */\n      dup2\n        /* \"#utility.yul\":9068:9077   */\n      add\n        /* \"#utility.yul\":9063:9077   */\n      swap1\n      pop\n        /* \"#utility.yul\":9028:9466   */\n      jump(tag_276)\n    tag_278:\n        /* \"#utility.yul\":9032:9046   */\n      pop\n        /* \"#utility.yul\":9482:9486   */\n      dup3\n        /* \"#utility.yul\":9475:9486   */\n      swap8\n      pop\n        /* \"#utility.yul\":9502:9505   */\n      dup8\n        /* \"#utility.yul\":9495:9505   */\n      swap6\n      pop\n        /* \"#utility.yul\":8580:9511   */\n      pop\n      pop\n      pop\n      pop\n      pop\n        /* \"#utility.yul\":8408:9511   */\n      swap3\n      swap2\n      pop\n      pop\n      jump\t// out\n        /* \"#utility.yul\":9517:9986   */\n    tag_11:\n        /* \"#utility.yul\":9708:9712   */\n      0x00\n        /* \"#utility.yul\":9746:9748   */\n      0x20\n        /* \"#utility.yul\":9735:9744   */\n      dup3\n        /* \"#utility.yul\":9731:9749   */\n      add\n        /* \"#utility.yul\":9723:9749   */\n      swap1\n      pop\n        /* \"#utility.yul\":9795:9804   */\n      dup2\n        /* \"#utility.yul\":9789:9793   */\n      dup2\n        /* \"#utility.yul\":9785:9805   */\n      sub\n        /* \"#utility.yul\":9781:9782   */\n      0x00\n        /* \"#utility.yul\":9770:9779   */\n      dup4\n        /* \"#utility.yul\":9766:9783   */\n      add\n        /* \"#utility.yul\":9759:9806   */\n      mstore\n        /* \"#utility.yul\":9823:9979   */\n      tag_282\n        /* \"#utility.yul\":9974:9978   */\n      dup2\n        /* \"#utility.yul\":9965:9971   */\n      dup5\n        /* \"#utility.yul\":9823:9979   */\n      tag_176\n      jump\t// in\n    tag_282:\n        /* \"#utility.yul\":9815:9979   */\n      swap1\n      pop\n        /* \"#utility.yul\":9517:9986   */\n      swap3\n      swap2\n      pop\n      pop\n      jump\t// out\n        /* \"#utility.yul\":9992:10172   */\n    tag_23:\n        /* \"#utility.yul\":10040:10117   */\n      0x4e487b7100000000000000000000000000000000000000000000000000000000\n        /* \"#utility.yul\":10037:10038   */\n      0x00\n        /* \"#utility.yul\":10030:10118   */\n      mstore\n        /* \"#utility.yul\":10137:10141   */\n      0x32\n        /* \"#utility.yul\":10134:10135   */\n      0x04\n        /* \"#utility.yul\":10127:10142   */\n      mstore\n        /* \"#utility.yul\":10161:10165   */\n      0x24\n        /* \"#utility.yul\":10158:10159   */\n      0x00\n        /* \"#utility.yul\":10151:10166   */\n      revert\n        /* \"#utility.yul\":10178:10347   */\n    tag_177:\n        /* \"#utility.yul\":10262:10273   */\n      0x00\n        /* \"#utility.yul\":10296:10302   */\n      dup3\n        /* \"#utility.yul\":10291:10294   */\n      dup3\n        /* \"#utility.yul\":10284:10303   */\n      mstore\n        /* \"#utility.yul\":10336:10340   */\n      0x20\n        /* \"#utility.yul\":10331:10334   */\n      dup3\n        /* \"#utility.yul\":10327:10341   */\n      add\n        /* \"#utility.yul\":10312:10341   */\n      swap1\n      pop\n        /* \"#utility.yul\":10178:10347   */\n      swap3\n      swap2\n      pop\n      pop\n      jump\t// out\n        /* \"#utility.yul\":10353:10584   */\n    tag_178:\n        /* \"#utility.yul\":10493:10527   */\n      0x4d617472697831277320636f6c756d6e73206d75737420657175616c204d6174\n        /* \"#utility.yul\":10489:10490   */\n      0x00\n        /* \"#utility.yul\":10481:10487   */\n      dup3\n        /* \"#utility.yul\":10477:10491   */\n      add\n        /* \"#utility.yul\":10470:10528   */\n      mstore\n        /* \"#utility.yul\":10562:10576   */\n      0x72697832277320726f77732e0000000000000000000000000000000000000000\n        /* \"#utility.yul\":10557:10559   */\n      0x20\n        /* \"#utility.yul\":10549:10555   */\n      dup3\n        /* \"#utility.yul\":10545:10560   */\n      add\n        /* \"#utility.yul\":10538:10577   */\n      mstore\n        /* \"#utility.yul\":10353:10584   */\n      pop\n      jump\t// out\n        /* \"#utility.yul\":10590:10956   */\n    tag_179:\n        /* \"#utility.yul\":10732:10735   */\n      0x00\n        /* \"#utility.yul\":10753:10820   */\n      tag_287\n        /* \"#utility.yul\":10817:10819   */\n      0x2c\n        /* \"#utility.yul\":10812:10815   */\n      dup4\n        /* \"#utility.yul\":10753:10820   */\n      tag_177\n      jump\t// in\n    tag_287:\n        /* \"#utility.yul\":10746:10820   */\n      swap2\n      pop\n        /* \"#utility.yul\":10829:10922   */\n      tag_288\n        /* \"#utility.yul\":10918:10921   */\n      dup3\n        /* \"#utility.yul\":10829:10922   */\n      tag_178\n      jump\t// in\n    tag_288:\n        /* \"#utility.yul\":10947:10949   */\n      0x40\n        /* \"#utility.yul\":10942:10945   */\n      dup3\n        /* \"#utility.yul\":10938:10950   */\n      add\n        /* \"#utility.yul\":10931:10950   */\n      swap1\n      pop\n        /* \"#utility.yul\":10590:10956   */\n      swap2\n      swap1\n      pop\n      jump\t// out\n        /* \"#utility.yul\":10962:11381   */\n    tag_26:\n        /* \"#utility.yul\":11128:11132   */\n      0x00\n        /* \"#utility.yul\":11166:11168   */\n      0x20\n        /* \"#utility.yul\":11155:11164   */\n      dup3\n        /* \"#utility.yul\":11151:11169   */\n      add\n        /* \"#utility.yul\":11143:11169   */\n      swap1\n      pop\n        /* \"#utility.yul\":11215:11224   */\n      dup2\n        /* \"#utility.yul\":11209:11213   */\n      dup2\n        /* \"#utility.yul\":11205:11225   */\n      sub\n        /* \"#utility.yul\":11201:11202   */\n      0x00\n        /* \"#utility.yul\":11190:11199   */\n      dup4\n        /* \"#utility.yul\":11186:11203   */\n      add\n        /* \"#utility.yul\":11179:11226   */\n      mstore\n        /* \"#utility.yul\":11243:11374   */\n      tag_290\n        /* \"#utility.yul\":11369:11373   */\n      dup2\n        /* \"#utility.yul\":11243:11374   */\n      tag_179\n      jump\t// in\n    tag_290:\n        /* \"#utility.yul\":11235:11374   */\n      swap1\n      pop\n        /* \"#utility.yul\":10962:11381   */\n      swap2\n      swap1\n      pop\n      jump\t// out\n        /* \"#utility.yul\":11387:11567   */\n    tag_180:\n        /* \"#utility.yul\":11435:11512   */\n      0x4e487b7100000000000000000000000000000000000000000000000000000000\n        /* \"#utility.yul\":11432:11433   */\n      0x00\n        /* \"#utility.yul\":11425:11513   */\n      mstore\n        /* \"#utility.yul\":11532:11536   */\n      0x11\n        /* \"#utility.yul\":11529:11530   */\n      0x04\n        /* \"#utility.yul\":11522:11537   */\n      mstore\n        /* \"#utility.yul\":11556:11560   */\n      0x24\n        /* \"#utility.yul\":11553:11554   */\n      0x00\n        /* \"#utility.yul\":11546:11561   */\n      revert\n        /* \"#utility.yul\":11573:12129   */\n    tag_59:\n        /* \"#utility.yul\":11612:11619   */\n      0x00\n        /* \"#utility.yul\":11635:11654   */\n      tag_293\n        /* \"#utility.yul\":11652:11653   */\n      dup3\n        /* \"#utility.yul\":11635:11654   */\n      tag_157\n      jump\t// in\n    tag_293:\n        /* \"#utility.yul\":11630:11654   */\n      swap2\n      pop\n        /* \"#utility.yul\":11668:11687   */\n      tag_294\n        /* \"#utility.yul\":11685:11686   */\n      dup4\n        /* \"#utility.yul\":11668:11687   */\n      tag_157\n      jump\t// in\n    tag_294:\n        /* \"#utility.yul\":11663:11687   */\n      swap3\n      pop\n        /* \"#utility.yul\":11722:11723   */\n      dup3\n        /* \"#utility.yul\":11719:11720   */\n      dup3\n        /* \"#utility.yul\":11715:11724   */\n      mul\n        /* \"#utility.yul\":11744:11773   */\n      tag_295\n        /* \"#utility.yul\":11761:11772   */\n      dup2\n        /* \"#utility.yul\":11744:11773   */\n      tag_157\n      jump\t// in\n    tag_295:\n        /* \"#utility.yul\":11733:11773   */\n      swap2\n      pop\n        /* \"#utility.yul\":11831:11897   */\n      0x8000000000000000000000000000000000000000000000000000000000000000\n        /* \"#utility.yul\":11828:11829   */\n      dup5\n        /* \"#utility.yul\":11825:11898   */\n      eq\n        /* \"#utility.yul\":11821:11822   */\n      0x00\n        /* \"#utility.yul\":11818:11819   */\n      dup5\n        /* \"#utility.yul\":11814:11823   */\n      slt\n        /* \"#utility.yul\":11810:11899   */\n      and\n        /* \"#utility.yul\":11807:11922   */\n      iszero\n      tag_296\n      jumpi\n        /* \"#utility.yul\":11902:11920   */\n      tag_297\n      tag_180\n      jump\t// in\n    tag_297:\n        /* \"#utility.yul\":11807:11922   */\n    tag_296:\n        /* \"#utility.yul\":12072:12073   */\n      dup3\n        /* \"#utility.yul\":12063:12070   */\n      dup3\n        /* \"#utility.yul\":12058:12074   */\n      sdiv\n        /* \"#utility.yul\":12055:12056   */\n      dup5\n        /* \"#utility.yul\":12052:12075   */\n      eq\n        /* \"#utility.yul\":12032:12033   */\n      dup4\n        /* \"#utility.yul\":12025:12034   */\n      iszero\n        /* \"#utility.yul\":12005:12089   */\n      or\n        /* \"#utility.yul\":11982:12122   */\n      tag_298\n      jumpi\n        /* \"#utility.yul\":12102:12120   */\n      tag_299\n      tag_180\n      jump\t// in\n    tag_299:\n        /* \"#utility.yul\":11982:12122   */\n    tag_298:\n        /* \"#utility.yul\":11620:12129   */\n      pop\n        /* \"#utility.yul\":11573:12129   */\n      swap3\n      swap2\n      pop\n      pop\n      jump\t// out\n        /* \"#utility.yul\":12135:12510   */\n    tag_61:\n        /* \"#utility.yul\":12174:12177   */\n      0x00\n        /* \"#utility.yul\":12193:12212   */\n      tag_301\n        /* \"#utility.yul\":12210:12211   */\n      dup3\n        /* \"#utility.yul\":12193:12212   */\n      tag_157\n      jump\t// in\n    tag_301:\n        /* \"#utility.yul\":12188:12212   */\n      swap2\n      pop\n        /* \"#utility.yul\":12226:12245   */\n      tag_302\n        /* \"#utility.yul\":12243:12244   */\n      dup4\n        /* \"#utility.yul\":12226:12245   */\n      tag_157\n      jump\t// in\n    tag_302:\n        /* \"#utility.yul\":12221:12245   */\n      swap3\n      pop\n        /* \"#utility.yul\":12268:12269   */\n      dup3\n        /* \"#utility.yul\":12265:12266   */\n      dup3\n        /* \"#utility.yul\":12261:12270   */\n      add\n        /* \"#utility.yul\":12254:12270   */\n      swap1\n      pop\n        /* \"#utility.yul\":12466:12467   */\n      dup3\n        /* \"#utility.yul\":12461:12464   */\n      dup2\n        /* \"#utility.yul\":12457:12468   */\n      slt\n        /* \"#utility.yul\":12450:12469   */\n      iszero\n        /* \"#utility.yul\":12446:12447   */\n      0x00\n        /* \"#utility.yul\":12443:12444   */\n      dup4\n        /* \"#utility.yul\":12439:12448   */\n      slt\n        /* \"#utility.yul\":12435:12470   */\n      and\n        /* \"#utility.yul\":12418:12419   */\n      dup4\n        /* \"#utility.yul\":12413:12416   */\n      dup3\n        /* \"#utility.yul\":12409:12420   */\n      slt\n        /* \"#utility.yul\":12404:12405   */\n      0x00\n        /* \"#utility.yul\":12401:12402   */\n      dup5\n        /* \"#utility.yul\":12397:12406   */\n      slt\n        /* \"#utility.yul\":12390:12407   */\n      iszero\n        /* \"#utility.yul\":12386:12421   */\n      and\n        /* \"#utility.yul\":12370:12480   */\n      or\n        /* \"#utility.yul\":12367:12503   */\n      iszero\n      tag_303\n      jumpi\n        /* \"#utility.yul\":12483:12501   */\n      tag_304\n      tag_180\n      jump\t// in\n    tag_304:\n        /* \"#utility.yul\":12367:12503   */\n    tag_303:\n        /* \"#utility.yul\":12135:12510   */\n      swap3\n      swap2\n      pop\n      pop\n      jump\t// out\n        /* \"#utility.yul\":12516:12746   */\n    tag_181:\n        /* \"#utility.yul\":12656:12690   */\n      0x4d61747269636573206d7573742068617665207468652073616d65206e756d62\n        /* \"#utility.yul\":12652:12653   */\n      0x00\n        /* \"#utility.yul\":12644:12650   */\n      dup3\n        /* \"#utility.yul\":12640:12654   */\n      add\n        /* \"#utility.yul\":12633:12691   */\n      mstore\n        /* \"#utility.yul\":12725:12738   */\n      0x6572206f6620726f77732e000000000000000000000000000000000000000000\n        /* \"#utility.yul\":12720:12722   */\n      0x20\n        /* \"#utility.yul\":12712:12718   */\n      dup3\n        /* \"#utility.yul\":12708:12723   */\n      add\n        /* \"#utility.yul\":12701:12739   */\n      mstore\n        /* \"#utility.yul\":12516:12746   */\n      pop\n      jump\t// out\n        /* \"#utility.yul\":12752:13118   */\n    tag_182:\n        /* \"#utility.yul\":12894:12897   */\n      0x00\n        /* \"#utility.yul\":12915:12982   */\n      tag_307\n        /* \"#utility.yul\":12979:12981   */\n      0x2b\n        /* \"#utility.yul\":12974:12977   */\n      dup4\n        /* \"#utility.yul\":12915:12982   */\n      tag_177\n      jump\t// in\n    tag_307:\n        /* \"#utility.yul\":12908:12982   */\n      swap2\n      pop\n        /* \"#utility.yul\":12991:13084   */\n      tag_308\n        /* \"#utility.yul\":13080:13083   */\n      dup3\n        /* \"#utility.yul\":12991:13084   */\n      tag_181\n      jump\t// in\n    tag_308:\n        /* \"#utility.yul\":13109:13111   */\n      0x40\n        /* \"#utility.yul\":13104:13107   */\n      dup3\n        /* \"#utility.yul\":13100:13112   */\n      add\n        /* \"#utility.yul\":13093:13112   */\n      swap1\n      pop\n        /* \"#utility.yul\":12752:13118   */\n      swap2\n      swap1\n      pop\n      jump\t// out\n        /* \"#utility.yul\":13124:13543   */\n    tag_69:\n        /* \"#utility.yul\":13290:13294   */\n      0x00\n        /* \"#utility.yul\":13328:13330   */\n      0x20\n        /* \"#utility.yul\":13317:13326   */\n      dup3\n        /* \"#utility.yul\":13313:13331   */\n      add\n        /* \"#utility.yul\":13305:13331   */\n      swap1\n      pop\n        /* \"#utility.yul\":13377:13386   */\n      dup2\n        /* \"#utility.yul\":13371:13375   */\n      dup2\n        /* \"#utility.yul\":13367:13387   */\n      sub\n        /* \"#utility.yul\":13363:13364   */\n      0x00\n        /* \"#utility.yul\":13352:13361   */\n      dup4\n        /* \"#utility.yul\":13348:13365   */\n      add\n        /* \"#utility.yul\":13341:13388   */\n      mstore\n        /* \"#utility.yul\":13405:13536   */\n      tag_310\n        /* \"#utility.yul\":13531:13535   */\n      dup2\n        /* \"#utility.yul\":13405:13536   */\n      tag_182\n      jump\t// in\n    tag_310:\n        /* \"#utility.yul\":13397:13536   */\n      swap1\n      pop\n        /* \"#utility.yul\":13124:13543   */\n      swap2\n      swap1\n      pop\n      jump\t// out\n        /* \"#utility.yul\":13549:13782   */\n    tag_183:\n        /* \"#utility.yul\":13689:13723   */\n      0x4d61747269636573206d7573742068617665207468652073616d65206e756d62\n        /* \"#utility.yul\":13685:13686   */\n      0x00\n        /* \"#utility.yul\":13677:13683   */\n      dup3\n        /* \"#utility.yul\":13673:13687   */\n      add\n        /* \"#utility.yul\":13666:13724   */\n      mstore\n        /* \"#utility.yul\":13758:13774   */\n      0x6572206f6620636f6c756d6e732e000000000000000000000000000000000000\n        /* \"#utility.yul\":13753:13755   */\n      0x20\n        /* \"#utility.yul\":13745:13751   */\n      dup3\n        /* \"#utility.yul\":13741:13756   */\n      add\n        /* \"#utility.yul\":13734:13775   */\n      mstore\n        /* \"#utility.yul\":13549:13782   */\n      pop\n      jump\t// out\n        /* \"#utility.yul\":13788:14154   */\n    tag_184:\n        /* \"#utility.yul\":13930:13933   */\n      0x00\n        /* \"#utility.yul\":13951:14018   */\n      tag_313\n        /* \"#utility.yul\":14015:14017   */\n      0x2e\n        /* \"#utility.yul\":14010:14013   */\n      dup4\n        /* \"#utility.yul\":13951:14018   */\n      tag_177\n      jump\t// in\n    tag_313:\n        /* \"#utility.yul\":13944:14018   */\n      swap2\n      pop\n        /* \"#utility.yul\":14027:14120   */\n      tag_314\n        /* \"#utility.yul\":14116:14119   */\n      dup3\n        /* \"#utility.yul\":14027:14120   */\n      tag_183\n      jump\t// in\n    tag_314:\n        /* \"#utility.yul\":14145:14147   */\n      0x40\n        /* \"#utility.yul\":14140:14143   */\n      dup3\n        /* \"#utility.yul\":14136:14148   */\n      add\n        /* \"#utility.yul\":14129:14148   */\n      swap1\n      pop\n        /* \"#utility.yul\":13788:14154   */\n      swap2\n      swap1\n      pop\n      jump\t// out\n        /* \"#utility.yul\":14160:14579   */\n    tag_76:\n        /* \"#utility.yul\":14326:14330   */\n      0x00\n        /* \"#utility.yul\":14364:14366   */\n      0x20\n        /* \"#utility.yul\":14353:14362   */\n      dup3\n        /* \"#utility.yul\":14349:14367   */\n      add\n        /* \"#utility.yul\":14341:14367   */\n      swap1\n      pop\n        /* \"#utility.yul\":14413:14422   */\n      dup2\n        /* \"#utility.yul\":14407:14411   */\n      dup2\n        /* \"#utility.yul\":14403:14423   */\n      sub\n        /* \"#utility.yul\":14399:14400   */\n      0x00\n        /* \"#utility.yul\":14388:14397   */\n      dup4\n        /* \"#utility.yul\":14384:14401   */\n      add\n        /* \"#utility.yul\":14377:14424   */\n      mstore\n        /* \"#utility.yul\":14441:14572   */\n      tag_316\n        /* \"#utility.yul\":14567:14571   */\n      dup2\n        /* \"#utility.yul\":14441:14572   */\n      tag_184\n      jump\t// in\n    tag_316:\n        /* \"#utility.yul\":14433:14572   */\n      swap1\n      pop\n        /* \"#utility.yul\":14160:14579   */\n      swap2\n      swap1\n      pop\n      jump\t// out\n        /* \"#utility.yul\":14585:14957   */\n    tag_103:\n        /* \"#utility.yul\":14624:14628   */\n      0x00\n        /* \"#utility.yul\":14644:14663   */\n      tag_318\n        /* \"#utility.yul\":14661:14662   */\n      dup3\n        /* \"#utility.yul\":14644:14663   */\n      tag_157\n      jump\t// in\n    tag_318:\n        /* \"#utility.yul\":14639:14663   */\n      swap2\n      pop\n        /* \"#utility.yul\":14677:14696   */\n      tag_319\n        /* \"#utility.yul\":14694:14695   */\n      dup4\n        /* \"#utility.yul\":14677:14696   */\n      tag_157\n      jump\t// in\n    tag_319:\n        /* \"#utility.yul\":14672:14696   */\n      swap3\n      pop\n        /* \"#utility.yul\":14720:14721   */\n      dup3\n        /* \"#utility.yul\":14717:14718   */\n      dup3\n        /* \"#utility.yul\":14713:14722   */\n      sub\n        /* \"#utility.yul\":14705:14722   */\n      swap1\n      pop\n        /* \"#utility.yul\":14914:14915   */\n      dup2\n        /* \"#utility.yul\":14908:14912   */\n      dup2\n        /* \"#utility.yul\":14904:14916   */\n      slt\n        /* \"#utility.yul\":14900:14901   */\n      0x00\n        /* \"#utility.yul\":14897:14898   */\n      dup5\n        /* \"#utility.yul\":14893:14902   */\n      slt\n        /* \"#utility.yul\":14889:14917   */\n      and\n        /* \"#utility.yul\":14872:14873   */\n      dup3\n        /* \"#utility.yul\":14866:14870   */\n      dup3\n        /* \"#utility.yul\":14862:14874   */\n      sgt\n        /* \"#utility.yul\":14857:14858   */\n      0x00\n        /* \"#utility.yul\":14854:14855   */\n      dup6\n        /* \"#utility.yul\":14850:14859   */\n      slt\n        /* \"#utility.yul\":14843:14860   */\n      iszero\n        /* \"#utility.yul\":14839:14875   */\n      and\n        /* \"#utility.yul\":14823:14927   */\n      or\n        /* \"#utility.yul\":14820:14950   */\n      iszero\n      tag_320\n      jumpi\n        /* \"#utility.yul\":14930:14948   */\n      tag_321\n      tag_180\n      jump\t// in\n    tag_321:\n        /* \"#utility.yul\":14820:14950   */\n    tag_320:\n        /* \"#utility.yul\":14585:14957   */\n      swap3\n      swap2\n      pop\n      pop\n      jump\t// out\n\n    auxdata: 0xa26469706673582212203df03783ba0ef8e1ba345e8574a543693eb6c34f778ab2397c3f79f1ea5e618b64736f6c634300081a0033\n}\n",
				"bytecode": {
					"linkReferences": {},
					"object": "6080604052348015600e575f80fd5b506110018061001c5f395ff3fe608060405234801561000f575f80fd5b506004361061003f575f3560e01c806321a8f3551461004357806371852ab2146100735780638ea9e16c146100a3575b5f80fd5b61005d60048036038101906100589190610ab8565b6100d3565b60405161006a9190610ca0565b60405180910390f35b61008d60048036038101906100889190610ab8565b610340565b60405161009a9190610ca0565b60405180910390f35b6100bd60048036038101906100b89190610ab8565b6105c3565b6040516100ca9190610ca0565b60405180910390f35b60608151835f815181106100ea576100e9610cc0565b5b60200260200101515114610133576040517f08c379a000000000000000000000000000000000000000000000000000000000815260040161012a90610d6d565b60405180910390fd5b5f835190505f835f8151811061014c5761014b610cc0565b5b60200260200101515190505f855f8151811061016b5761016a610cc0565b5b60200260200101515190505f8367ffffffffffffffff8111156101915761019061086b565b5b6040519080825280602002602001820160405280156101c457816020015b60608152602001906001900390816101af5790505b5090505f5b84811015610332578367ffffffffffffffff8111156101eb576101ea61086b565b5b6040519080825280602002602001820160405280156102195781602001602082028036833780820191505090505b5082828151811061022d5761022c610cc0565b5b60200260200101819052505f5b84811015610324575f805b858110156102db578981815181106102605761025f610cc0565b5b6020026020010151838151811061027a57610279610cc0565b5b60200260200101518b858151811061029557610294610cc0565b5b602002602001015182815181106102af576102ae610cc0565b5b60200260200101516102c19190610db8565b826102cc9190610e2e565b91508080600101915050610245565b50808484815181106102f0576102ef610cc0565b5b6020026020010151838151811061030a57610309610cc0565b5b60200260200101818152505050808060010191505061023a565b5080806001019150506101c9565b508094505050505092915050565b60608151835114610386576040517f08c379a000000000000000000000000000000000000000000000000000000000815260040161037d90610edf565b60405180910390fd5b815f8151811061039957610398610cc0565b5b602002602001015151835f815181106103b5576103b4610cc0565b5b602002602001015151146103fe576040517f08c379a00000000000000000000000000000000000000000000000000000000081526004016103f590610f6d565b60405180910390fd5b5f835190505f845f8151811061041757610416610cc0565b5b60200260200101515190505f8267ffffffffffffffff81111561043d5761043c61086b565b5b60405190808252806020026020018201604052801561047057816020015b606081526020019060019003908161045b5790505b5090505f5b838110156105b6578267ffffffffffffffff8111156104975761049661086b565b5b6040519080825280602002602001820160405280156104c55781602001602082028036833780820191505090505b508282815181106104d9576104d8610cc0565b5b60200260200101819052505f5b838110156105a85786828151811061050157610500610cc0565b5b6020026020010151818151811061051b5761051a610cc0565b5b602002602001015188838151811061053657610535610cc0565b5b602002602001015182815181106105505761054f610cc0565b5b60200260200101516105629190610f8b565b83838151811061057557610574610cc0565b5b6020026020010151828151811061058f5761058e610cc0565b5b60200260200101818152505080806001019150506104e6565b508080600101915050610475565b5080935050505092915050565b60608151835114610609576040517f08c379a000000000000000000000000000000000000000000000000000000000815260040161060090610edf565b60405180910390fd5b815f8151811061061c5761061b610cc0565b5b602002602001015151835f8151811061063857610637610cc0565b5b60200260200101515114610681576040517f08c379a000000000000000000000000000000000000000000000000000000000815260040161067890610f6d565b60405180910390fd5b5f835190505f845f8151811061069a57610699610cc0565b5b60200260200101515190505f8267ffffffffffffffff8111156106c0576106bf61086b565b5b6040519080825280602002602001820160405280156106f357816020015b60608152602001906001900390816106de5790505b5090505f5b83811015610839578267ffffffffffffffff81111561071a5761071961086b565b5b6040519080825280602002602001820160405280156107485781602001602082028036833780820191505090505b5082828151811061075c5761075b610cc0565b5b60200260200101819052505f5b8381101561082b5786828151811061078457610783610cc0565b5b6020026020010151818151811061079e5761079d610cc0565b5b60200260200101518883815181106107b9576107b8610cc0565b5b602002602001015182815181106107d3576107d2610cc0565b5b60200260200101516107e59190610e2e565b8383815181106107f8576107f7610cc0565b5b6020026020010151828151811061081257610811610cc0565b5b6020026020010181815250508080600101915050610769565b5080806001019150506106f8565b5080935050505092915050565b5f604051905090565b5f80fd5b5f80fd5b5f80fd5b5f601f19601f8301169050919050565b7f4e487b71000000000000000000000000000000000000000000000000000000005f52604160045260245ffd5b6108a18261085b565b810181811067ffffffffffffffff821117156108c0576108bf61086b565b5b80604052505050565b5f6108d2610846565b90506108de8282610898565b919050565b5f67ffffffffffffffff8211156108fd576108fc61086b565b5b602082029050602081019050919050565b5f80fd5b5f67ffffffffffffffff82111561092c5761092b61086b565b5b602082029050602081019050919050565b5f819050919050565b61094f8161093d565b8114610959575f80fd5b50565b5f8135905061096a81610946565b92915050565b5f61098261097d84610912565b6108c9565b905080838252602082019050602084028301858111156109a5576109a461090e565b5b835b818110156109ce57806109ba888261095c565b8452602084019350506020810190506109a7565b5050509392505050565b5f82601f8301126109ec576109eb610857565b5b81356109fc848260208601610970565b91505092915050565b5f610a17610a12846108e3565b6108c9565b90508083825260208201905060208402830185811115610a3a57610a3961090e565b5b835b81811015610a8157803567ffffffffffffffff811115610a5f57610a5e610857565b5b808601610a6c89826109d8565b85526020850194505050602081019050610a3c565b5050509392505050565b5f82601f830112610a9f57610a9e610857565b5b8135610aaf848260208601610a05565b91505092915050565b5f8060408385031215610ace57610acd61084f565b5b5f83013567ffffffffffffffff811115610aeb57610aea610853565b5b610af785828601610a8b565b925050602083013567ffffffffffffffff811115610b1857610b17610853565b5b610b2485828601610a8b565b9150509250929050565b5f81519050919050565b5f82825260208201905092915050565b5f819050602082019050919050565b5f81519050919050565b5f82825260208201905092915050565b5f819050602082019050919050565b610b898161093d565b82525050565b5f610b9a8383610b80565b60208301905092915050565b5f602082019050919050565b5f610bbc82610b57565b610bc68185610b61565b9350610bd183610b71565b805f5b83811015610c01578151610be88882610b8f565b9750610bf383610ba6565b925050600181019050610bd4565b5085935050505092915050565b5f610c198383610bb2565b905092915050565b5f602082019050919050565b5f610c3782610b2e565b610c418185610b38565b935083602082028501610c5385610b48565b805f5b85811015610c8e5784840389528151610c6f8582610c0e565b9450610c7a83610c21565b925060208a01995050600181019050610c56565b50829750879550505050505092915050565b5f6020820190508181035f830152610cb88184610c2d565b905092915050565b7f4e487b71000000000000000000000000000000000000000000000000000000005f52603260045260245ffd5b5f82825260208201905092915050565b7f4d617472697831277320636f6c756d6e73206d75737420657175616c204d61745f8201527f72697832277320726f77732e0000000000000000000000000000000000000000602082015250565b5f610d57602c83610ced565b9150610d6282610cfd565b604082019050919050565b5f6020820190508181035f830152610d8481610d4b565b9050919050565b7f4e487b71000000000000000000000000000000000000000000000000000000005f52601160045260245ffd5b5f610dc28261093d565b9150610dcd8361093d565b9250828202610ddb8161093d565b91507f800000000000000000000000000000000000000000000000000000000000000084145f84121615610e1257610e11610d8b565b5b8282058414831517610e2757610e26610d8b565b5b5092915050565b5f610e388261093d565b9150610e438361093d565b92508282019050828112155f8312168382125f841215161715610e6957610e68610d8b565b5b92915050565b7f4d61747269636573206d7573742068617665207468652073616d65206e756d625f8201527f6572206f6620726f77732e000000000000000000000000000000000000000000602082015250565b5f610ec9602b83610ced565b9150610ed482610e6f565b604082019050919050565b5f6020820190508181035f830152610ef681610ebd565b9050919050565b7f4d61747269636573206d7573742068617665207468652073616d65206e756d625f8201527f6572206f6620636f6c756d6e732e000000000000000000000000000000000000602082015250565b5f610f57602e83610ced565b9150610f6282610efd565b604082019050919050565b5f6020820190508181035f830152610f8481610f4b565b9050919050565b5f610f958261093d565b9150610fa08361093d565b925082820390508181125f8412168282135f851215161715610fc557610fc4610d8b565b5b9291505056fea26469706673582212203df03783ba0ef8e1ba345e8574a543693eb6c34f778ab2397c3f79f1ea5e618b64736f6c634300081a0033",
					"opcodes": "PUSH1 0x80 PUSH1 0x40 MSTORE CALLVALUE DUP1 ISZERO PUSH1 0xE JUMPI PUSH0 DUP1 REVERT JUMPDEST POP PUSH2 0x1001 DUP1 PUSH2 0x1C PUSH0 CODECOPY PUSH0 RETURN INVALID PUSH1 0x80 PUSH1 0x40 MSTORE CALLVALUE DUP1 ISZERO PUSH2 0xF JUMPI PUSH0 DUP1 REVERT JUMPDEST POP PUSH1 0x4 CALLDATASIZE LT PUSH2 0x3F JUMPI PUSH0 CALLDATALOAD PUSH1 0xE0 SHR DUP1 PUSH4 0x21A8F355 EQ PUSH2 0x43 JUMPI DUP1 PUSH4 0x71852AB2 EQ PUSH2 0x73 JUMPI DUP1 PUSH4 0x8EA9E16C EQ PUSH2 0xA3 JUMPI JUMPDEST PUSH0 DUP1 REVERT JUMPDEST PUSH2 0x5D PUSH1 0x4 DUP1 CALLDATASIZE SUB DUP2 ADD SWAP1 PUSH2 0x58 SWAP2 SWAP1 PUSH2 0xAB8 JUMP JUMPDEST PUSH2 0xD3 JUMP JUMPDEST PUSH1 0x40 MLOAD PUSH2 0x6A SWAP2 SWAP1 PUSH2 0xCA0 JUMP JUMPDEST PUSH1 0x40 MLOAD DUP1 SWAP2 SUB SWAP1 RETURN JUMPDEST PUSH2 0x8D PUSH1 0x4 DUP1 CALLDATASIZE SUB DUP2 ADD SWAP1 PUSH2 0x88 SWAP2 SWAP1 PUSH2 0xAB8 JUMP JUMPDEST PUSH2 0x340 JUMP JUMPDEST PUSH1 0x40 MLOAD PUSH2 0x9A SWAP2 SWAP1 PUSH2 0xCA0 JUMP JUMPDEST PUSH1 0x40 MLOAD DUP1 SWAP2 SUB SWAP1 RETURN JUMPDEST PUSH2 0xBD PUSH1 0x4 DUP1 CALLDATASIZE SUB DUP2 ADD SWAP1 PUSH2 0xB8 SWAP2 SWAP1 PUSH2 0xAB8 JUMP JUMPDEST PUSH2 0x5C3 JUMP JUMPDEST PUSH1 0x40 MLOAD PUSH2 0xCA SWAP2 SWAP1 PUSH2 0xCA0 JUMP JUMPDEST PUSH1 0x40 MLOAD DUP1 SWAP2 SUB SWAP1 RETURN JUMPDEST PUSH1 0x60 DUP2 MLOAD DUP4 PUSH0 DUP2 MLOAD DUP2 LT PUSH2 0xEA JUMPI PUSH2 0xE9 PUSH2 0xCC0 JUMP JUMPDEST JUMPDEST PUSH1 0x20 MUL PUSH1 0x20 ADD ADD MLOAD MLOAD EQ PUSH2 0x133 JUMPI PUSH1 0x40 MLOAD PUSH32 0x8C379A000000000000000000000000000000000000000000000000000000000 DUP2 MSTORE PUSH1 0x4 ADD PUSH2 0x12A SWAP1 PUSH2 0xD6D JUMP JUMPDEST PUSH1 0x40 MLOAD DUP1 SWAP2 SUB SWAP1 REVERT JUMPDEST PUSH0 DUP4 MLOAD SWAP1 POP PUSH0 DUP4 PUSH0 DUP2 MLOAD DUP2 LT PUSH2 0x14C JUMPI PUSH2 0x14B PUSH2 0xCC0 JUMP JUMPDEST JUMPDEST PUSH1 0x20 MUL PUSH1 0x20 ADD ADD MLOAD MLOAD SWAP1 POP PUSH0 DUP6 PUSH0 DUP2 MLOAD DUP2 LT PUSH2 0x16B JUMPI PUSH2 0x16A PUSH2 0xCC0 JUMP JUMPDEST JUMPDEST PUSH1 0x20 MUL PUSH1 0x20 ADD ADD MLOAD MLOAD SWAP1 POP PUSH0 DUP4 PUSH8 0xFFFFFFFFFFFFFFFF DUP2 GT ISZERO PUSH2 0x191 JUMPI PUSH2 0x190 PUSH2 0x86B JUMP JUMPDEST JUMPDEST PUSH1 0x40 MLOAD SWAP1 DUP1 DUP3 MSTORE DUP1 PUSH1 0x20 MUL PUSH1 0x20 ADD DUP3 ADD PUSH1 0x40 MSTORE DUP1 ISZERO PUSH2 0x1C4 JUMPI DUP2 PUSH1 0x20 ADD JUMPDEST PUSH1 0x60 DUP2 MSTORE PUSH1 0x20 ADD SWAP1 PUSH1 0x1 SWAP1 SUB SWAP1 DUP2 PUSH2 0x1AF JUMPI SWAP1 POP JUMPDEST POP SWAP1 POP PUSH0 JUMPDEST DUP5 DUP2 LT ISZERO PUSH2 0x332 JUMPI DUP4 PUSH8 0xFFFFFFFFFFFFFFFF DUP2 GT ISZERO PUSH2 0x1EB JUMPI PUSH2 0x1EA PUSH2 0x86B JUMP JUMPDEST JUMPDEST PUSH1 0x40 MLOAD SWAP1 DUP1 DUP3 MSTORE DUP1 PUSH1 0x20 MUL PUSH1 0x20 ADD DUP3 ADD PUSH1 0x40 MSTORE DUP1 ISZERO PUSH2 0x219 JUMPI DUP2 PUSH1 0x20 ADD PUSH1 0x20 DUP3 MUL DUP1 CALLDATASIZE DUP4 CALLDATACOPY DUP1 DUP3 ADD SWAP2 POP POP SWAP1 POP JUMPDEST POP DUP3 DUP3 DUP2 MLOAD DUP2 LT PUSH2 0x22D JUMPI PUSH2 0x22C PUSH2 0xCC0 JUMP JUMPDEST JUMPDEST PUSH1 0x20 MUL PUSH1 0x20 ADD ADD DUP2 SWAP1 MSTORE POP PUSH0 JUMPDEST DUP5 DUP2 LT ISZERO PUSH2 0x324 JUMPI PUSH0 DUP1 JUMPDEST DUP6 DUP2 LT ISZERO PUSH2 0x2DB JUMPI DUP10 DUP2 DUP2 MLOAD DUP2 LT PUSH2 0x260 JUMPI PUSH2 0x25F PUSH2 0xCC0 JUMP JUMPDEST JUMPDEST PUSH1 0x20 MUL PUSH1 0x20 ADD ADD MLOAD DUP4 DUP2 MLOAD DUP2 LT PUSH2 0x27A JUMPI PUSH2 0x279 PUSH2 0xCC0 JUMP JUMPDEST JUMPDEST PUSH1 0x20 MUL PUSH1 0x20 ADD ADD MLOAD DUP12 DUP6 DUP2 MLOAD DUP2 LT PUSH2 0x295 JUMPI PUSH2 0x294 PUSH2 0xCC0 JUMP JUMPDEST JUMPDEST PUSH1 0x20 MUL PUSH1 0x20 ADD ADD MLOAD DUP3 DUP2 MLOAD DUP2 LT PUSH2 0x2AF JUMPI PUSH2 0x2AE PUSH2 0xCC0 JUMP JUMPDEST JUMPDEST PUSH1 0x20 MUL PUSH1 0x20 ADD ADD MLOAD PUSH2 0x2C1 SWAP2 SWAP1 PUSH2 0xDB8 JUMP JUMPDEST DUP3 PUSH2 0x2CC SWAP2 SWAP1 PUSH2 0xE2E JUMP JUMPDEST SWAP2 POP DUP1 DUP1 PUSH1 0x1 ADD SWAP2 POP POP PUSH2 0x245 JUMP JUMPDEST POP DUP1 DUP5 DUP5 DUP2 MLOAD DUP2 LT PUSH2 0x2F0 JUMPI PUSH2 0x2EF PUSH2 0xCC0 JUMP JUMPDEST JUMPDEST PUSH1 0x20 MUL PUSH1 0x20 ADD ADD MLOAD DUP4 DUP2 MLOAD DUP2 LT PUSH2 0x30A JUMPI PUSH2 0x309 PUSH2 0xCC0 JUMP JUMPDEST JUMPDEST PUSH1 0x20 MUL PUSH1 0x20 ADD ADD DUP2 DUP2 MSTORE POP POP POP DUP1 DUP1 PUSH1 0x1 ADD SWAP2 POP POP PUSH2 0x23A JUMP JUMPDEST POP DUP1 DUP1 PUSH1 0x1 ADD SWAP2 POP POP PUSH2 0x1C9 JUMP JUMPDEST POP DUP1 SWAP5 POP POP POP POP POP SWAP3 SWAP2 POP POP JUMP JUMPDEST PUSH1 0x60 DUP2 MLOAD DUP4 MLOAD EQ PUSH2 0x386 JUMPI PUSH1 0x40 MLOAD PUSH32 0x8C379A000000000000000000000000000000000000000000000000000000000 DUP2 MSTORE PUSH1 0x4 ADD PUSH2 0x37D SWAP1 PUSH2 0xEDF JUMP JUMPDEST PUSH1 0x40 MLOAD DUP1 SWAP2 SUB SWAP1 REVERT JUMPDEST DUP2 PUSH0 DUP2 MLOAD DUP2 LT PUSH2 0x399 JUMPI PUSH2 0x398 PUSH2 0xCC0 JUMP JUMPDEST JUMPDEST PUSH1 0x20 MUL PUSH1 0x20 ADD ADD MLOAD MLOAD DUP4 PUSH0 DUP2 MLOAD DUP2 LT PUSH2 0x3B5 JUMPI PUSH2 0x3B4 PUSH2 0xCC0 JUMP JUMPDEST JUMPDEST PUSH1 0x20 MUL PUSH1 0x20 ADD ADD MLOAD MLOAD EQ PUSH2 0x3FE JUMPI PUSH1 0x40 MLOAD PUSH32 0x8C379A000000000000000000000000000000000000000000000000000000000 DUP2 MSTORE PUSH1 0x4 ADD PUSH2 0x3F5 SWAP1 PUSH2 0xF6D JUMP JUMPDEST PUSH1 0x40 MLOAD DUP1 SWAP2 SUB SWAP1 REVERT JUMPDEST PUSH0 DUP4 MLOAD SWAP1 POP PUSH0 DUP5 PUSH0 DUP2 MLOAD DUP2 LT PUSH2 0x417 JUMPI PUSH2 0x416 PUSH2 0xCC0 JUMP JUMPDEST JUMPDEST PUSH1 0x20 MUL PUSH1 0x20 ADD ADD MLOAD MLOAD SWAP1 POP PUSH0 DUP3 PUSH8 0xFFFFFFFFFFFFFFFF DUP2 GT ISZERO PUSH2 0x43D JUMPI PUSH2 0x43C PUSH2 0x86B JUMP JUMPDEST JUMPDEST PUSH1 0x40 MLOAD SWAP1 DUP1 DUP3 MSTORE DUP1 PUSH1 0x20 MUL PUSH1 0x20 ADD DUP3 ADD PUSH1 0x40 MSTORE DUP1 ISZERO PUSH2 0x470 JUMPI DUP2 PUSH1 0x20 ADD JUMPDEST PUSH1 0x60 DUP2 MSTORE PUSH1 0x20 ADD SWAP1 PUSH1 0x1 SWAP1 SUB SWAP1 DUP2 PUSH2 0x45B JUMPI SWAP1 POP JUMPDEST POP SWAP1 POP PUSH0 JUMPDEST DUP4 DUP2 LT ISZERO PUSH2 0x5B6 JUMPI DUP3 PUSH8 0xFFFFFFFFFFFFFFFF DUP2 GT ISZERO PUSH2 0x497 JUMPI PUSH2 0x496 PUSH2 0x86B JUMP JUMPDEST JUMPDEST PUSH1 0x40 MLOAD SWAP1 DUP1 DUP3 MSTORE DUP1 PUSH1 0x20 MUL PUSH1 0x20 ADD DUP3 ADD PUSH1 0x40 MSTORE DUP1 ISZERO PUSH2 0x4C5 JUMPI DUP2 PUSH1 0x20 ADD PUSH1 0x20 DUP3 MUL DUP1 CALLDATASIZE DUP4 CALLDATACOPY DUP1 DUP3 ADD SWAP2 POP POP SWAP1 POP JUMPDEST POP DUP3 DUP3 DUP2 MLOAD DUP2 LT PUSH2 0x4D9 JUMPI PUSH2 0x4D8 PUSH2 0xCC0 JUMP JUMPDEST JUMPDEST PUSH1 0x20 MUL PUSH1 0x20 ADD ADD DUP2 SWAP1 MSTORE POP PUSH0 JUMPDEST DUP4 DUP2 LT ISZERO PUSH2 0x5A8 JUMPI DUP7 DUP3 DUP2 MLOAD DUP2 LT PUSH2 0x501 JUMPI PUSH2 0x500 PUSH2 0xCC0 JUMP JUMPDEST JUMPDEST PUSH1 0x20 MUL PUSH1 0x20 ADD ADD MLOAD DUP2 DUP2 MLOAD DUP2 LT PUSH2 0x51B JUMPI PUSH2 0x51A PUSH2 0xCC0 JUMP JUMPDEST JUMPDEST PUSH1 0x20 MUL PUSH1 0x20 ADD ADD MLOAD DUP9 DUP4 DUP2 MLOAD DUP2 LT PUSH2 0x536 JUMPI PUSH2 0x535 PUSH2 0xCC0 JUMP JUMPDEST JUMPDEST PUSH1 0x20 MUL PUSH1 0x20 ADD ADD MLOAD DUP3 DUP2 MLOAD DUP2 LT PUSH2 0x550 JUMPI PUSH2 0x54F PUSH2 0xCC0 JUMP JUMPDEST JUMPDEST PUSH1 0x20 MUL PUSH1 0x20 ADD ADD MLOAD PUSH2 0x562 SWAP2 SWAP1 PUSH2 0xF8B JUMP JUMPDEST DUP4 DUP4 DUP2 MLOAD DUP2 LT PUSH2 0x575 JUMPI PUSH2 0x574 PUSH2 0xCC0 JUMP JUMPDEST JUMPDEST PUSH1 0x20 MUL PUSH1 0x20 ADD ADD MLOAD DUP3 DUP2 MLOAD DUP2 LT PUSH2 0x58F JUMPI PUSH2 0x58E PUSH2 0xCC0 JUMP JUMPDEST JUMPDEST PUSH1 0x20 MUL PUSH1 0x20 ADD ADD DUP2 DUP2 MSTORE POP POP DUP1 DUP1 PUSH1 0x1 ADD SWAP2 POP POP PUSH2 0x4E6 JUMP JUMPDEST POP DUP1 DUP1 PUSH1 0x1 ADD SWAP2 POP POP PUSH2 0x475 JUMP JUMPDEST POP DUP1 SWAP4 POP POP POP POP SWAP3 SWAP2 POP POP JUMP JUMPDEST PUSH1 0x60 DUP2 MLOAD DUP4 MLOAD EQ PUSH2 0x609 JUMPI PUSH1 0x40 MLOAD PUSH32 0x8C379A000000000000000000000000000000000000000000000000000000000 DUP2 MSTORE PUSH1 0x4 ADD PUSH2 0x600 SWAP1 PUSH2 0xEDF JUMP JUMPDEST PUSH1 0x40 MLOAD DUP1 SWAP2 SUB SWAP1 REVERT JUMPDEST DUP2 PUSH0 DUP2 MLOAD DUP2 LT PUSH2 0x61C JUMPI PUSH2 0x61B PUSH2 0xCC0 JUMP JUMPDEST JUMPDEST PUSH1 0x20 MUL PUSH1 0x20 ADD ADD MLOAD MLOAD DUP4 PUSH0 DUP2 MLOAD DUP2 LT PUSH2 0x638 JUMPI PUSH2 0x637 PUSH2 0xCC0 JUMP JUMPDEST JUMPDEST PUSH1 0x20 MUL PUSH1 0x20 ADD ADD MLOAD MLOAD EQ PUSH2 0x681 JUMPI PUSH1 0x40 MLOAD PUSH32 0x8C379A000000000000000000000000000000000000000000000000000000000 DUP2 MSTORE PUSH1 0x4 ADD PUSH2 0x678 SWAP1 PUSH2 0xF6D JUMP JUMPDEST PUSH1 0x40 MLOAD DUP1 SWAP2 SUB SWAP1 REVERT JUMPDEST PUSH0 DUP4 MLOAD SWAP1 POP PUSH0 DUP5 PUSH0 DUP2 MLOAD DUP2 LT PUSH2 0x69A JUMPI PUSH2 0x699 PUSH2 0xCC0 JUMP JUMPDEST JUMPDEST PUSH1 0x20 MUL PUSH1 0x20 ADD ADD MLOAD MLOAD SWAP1 POP PUSH0 DUP3 PUSH8 0xFFFFFFFFFFFFFFFF DUP2 GT ISZERO PUSH2 0x6C0 JUMPI PUSH2 0x6BF PUSH2 0x86B JUMP JUMPDEST JUMPDEST PUSH1 0x40 MLOAD SWAP1 DUP1 DUP3 MSTORE DUP1 PUSH1 0x20 MUL PUSH1 0x20 ADD DUP3 ADD PUSH1 0x40 MSTORE DUP1 ISZERO PUSH2 0x6F3 JUMPI DUP2 PUSH1 0x20 ADD JUMPDEST PUSH1 0x60 DUP2 MSTORE PUSH1 0x20 ADD SWAP1 PUSH1 0x1 SWAP1 SUB SWAP1 DUP2 PUSH2 0x6DE JUMPI SWAP1 POP JUMPDEST POP SWAP1 POP PUSH0 JUMPDEST DUP4 DUP2 LT ISZERO PUSH2 0x839 JUMPI DUP3 PUSH8 0xFFFFFFFFFFFFFFFF DUP2 GT ISZERO PUSH2 0x71A JUMPI PUSH2 0x719 PUSH2 0x86B JUMP JUMPDEST JUMPDEST PUSH1 0x40 MLOAD SWAP1 DUP1 DUP3 MSTORE DUP1 PUSH1 0x20 MUL PUSH1 0x20 ADD DUP3 ADD PUSH1 0x40 MSTORE DUP1 ISZERO PUSH2 0x748 JUMPI DUP2 PUSH1 0x20 ADD PUSH1 0x20 DUP3 MUL DUP1 CALLDATASIZE DUP4 CALLDATACOPY DUP1 DUP3 ADD SWAP2 POP POP SWAP1 POP JUMPDEST POP DUP3 DUP3 DUP2 MLOAD DUP2 LT PUSH2 0x75C JUMPI PUSH2 0x75B PUSH2 0xCC0 JUMP JUMPDEST JUMPDEST PUSH1 0x20 MUL PUSH1 0x20 ADD ADD DUP2 SWAP1 MSTORE POP PUSH0 JUMPDEST DUP4 DUP2 LT ISZERO PUSH2 0x82B JUMPI DUP7 DUP3 DUP2 MLOAD DUP2 LT PUSH2 0x784 JUMPI PUSH2 0x783 PUSH2 0xCC0 JUMP JUMPDEST JUMPDEST PUSH1 0x20 MUL PUSH1 0x20 ADD ADD MLOAD DUP2 DUP2 MLOAD DUP2 LT PUSH2 0x79E JUMPI PUSH2 0x79D PUSH2 0xCC0 JUMP JUMPDEST JUMPDEST PUSH1 0x20 MUL PUSH1 0x20 ADD ADD MLOAD DUP9 DUP4 DUP2 MLOAD DUP2 LT PUSH2 0x7B9 JUMPI PUSH2 0x7B8 PUSH2 0xCC0 JUMP JUMPDEST JUMPDEST PUSH1 0x20 MUL PUSH1 0x20 ADD ADD MLOAD DUP3 DUP2 MLOAD DUP2 LT PUSH2 0x7D3 JUMPI PUSH2 0x7D2 PUSH2 0xCC0 JUMP JUMPDEST JUMPDEST PUSH1 0x20 MUL PUSH1 0x20 ADD ADD MLOAD PUSH2 0x7E5 SWAP2 SWAP1 PUSH2 0xE2E JUMP JUMPDEST DUP4 DUP4 DUP2 MLOAD DUP2 LT PUSH2 0x7F8 JUMPI PUSH2 0x7F7 PUSH2 0xCC0 JUMP JUMPDEST JUMPDEST PUSH1 0x20 MUL PUSH1 0x20 ADD ADD MLOAD DUP3 DUP2 MLOAD DUP2 LT PUSH2 0x812 JUMPI PUSH2 0x811 PUSH2 0xCC0 JUMP JUMPDEST JUMPDEST PUSH1 0x20 MUL PUSH1 0x20 ADD ADD DUP2 DUP2 MSTORE POP POP DUP1 DUP1 PUSH1 0x1 ADD SWAP2 POP POP PUSH2 0x769 JUMP JUMPDEST POP DUP1 DUP1 PUSH1 0x1 ADD SWAP2 POP POP PUSH2 0x6F8 JUMP JUMPDEST POP DUP1 SWAP4 POP POP POP POP SWAP3 SWAP2 POP POP JUMP JUMPDEST PUSH0 PUSH1 0x40 MLOAD SWAP1 POP SWAP1 JUMP JUMPDEST PUSH0 DUP1 REVERT JUMPDEST PUSH0 DUP1 REVERT JUMPDEST PUSH0 DUP1 REVERT JUMPDEST PUSH0 PUSH1 0x1F NOT PUSH1 0x1F DUP4 ADD AND SWAP1 POP SWAP2 SWAP1 POP JUMP JUMPDEST PUSH32 0x4E487B7100000000000000000000000000000000000000000000000000000000 PUSH0 MSTORE PUSH1 0x41 PUSH1 0x4 MSTORE PUSH1 0x24 PUSH0 REVERT JUMPDEST PUSH2 0x8A1 DUP3 PUSH2 0x85B JUMP JUMPDEST DUP2 ADD DUP2 DUP2 LT PUSH8 0xFFFFFFFFFFFFFFFF DUP3 GT OR ISZERO PUSH2 0x8C0 JUMPI PUSH2 0x8BF PUSH2 0x86B JUMP JUMPDEST JUMPDEST DUP1 PUSH1 0x40 MSTORE POP POP POP JUMP JUMPDEST PUSH0 PUSH2 0x8D2 PUSH2 0x846 JUMP JUMPDEST SWAP1 POP PUSH2 0x8DE DUP3 DUP3 PUSH2 0x898 JUMP JUMPDEST SWAP2 SWAP1 POP JUMP JUMPDEST PUSH0 PUSH8 0xFFFFFFFFFFFFFFFF DUP3 GT ISZERO PUSH2 0x8FD JUMPI PUSH2 0x8FC PUSH2 0x86B JUMP JUMPDEST JUMPDEST PUSH1 0x20 DUP3 MUL SWAP1 POP PUSH1 0x20 DUP2 ADD SWAP1 POP SWAP2 SWAP1 POP JUMP JUMPDEST PUSH0 DUP1 REVERT JUMPDEST PUSH0 PUSH8 0xFFFFFFFFFFFFFFFF DUP3 GT ISZERO PUSH2 0x92C JUMPI PUSH2 0x92B PUSH2 0x86B JUMP JUMPDEST JUMPDEST PUSH1 0x20 DUP3 MUL SWAP1 POP PUSH1 0x20 DUP2 ADD SWAP1 POP SWAP2 SWAP1 POP JUMP JUMPDEST PUSH0 DUP2 SWAP1 POP SWAP2 SWAP1 POP JUMP JUMPDEST PUSH2 0x94F DUP2 PUSH2 0x93D JUMP JUMPDEST DUP2 EQ PUSH2 0x959 JUMPI PUSH0 DUP1 REVERT JUMPDEST POP JUMP JUMPDEST PUSH0 DUP2 CALLDATALOAD SWAP1 POP PUSH2 0x96A DUP2 PUSH2 0x946 JUMP JUMPDEST SWAP3 SWAP2 POP POP JUMP JUMPDEST PUSH0 PUSH2 0x982 PUSH2 0x97D DUP5 PUSH2 0x912 JUMP JUMPDEST PUSH2 0x8C9 JUMP JUMPDEST SWAP1 POP DUP1 DUP4 DUP3 MSTORE PUSH1 0x20 DUP3 ADD SWAP1 POP PUSH1 0x20 DUP5 MUL DUP4 ADD DUP6 DUP2 GT ISZERO PUSH2 0x9A5 JUMPI PUSH2 0x9A4 PUSH2 0x90E JUMP JUMPDEST JUMPDEST DUP4 JUMPDEST DUP2 DUP2 LT ISZERO PUSH2 0x9CE JUMPI DUP1 PUSH2 0x9BA DUP9 DUP3 PUSH2 0x95C JUMP JUMPDEST DUP5 MSTORE PUSH1 0x20 DUP5 ADD SWAP4 POP POP PUSH1 0x20 DUP2 ADD SWAP1 POP PUSH2 0x9A7 JUMP JUMPDEST POP POP POP SWAP4 SWAP3 POP POP POP JUMP JUMPDEST PUSH0 DUP3 PUSH1 0x1F DUP4 ADD SLT PUSH2 0x9EC JUMPI PUSH2 0x9EB PUSH2 0x857 JUMP JUMPDEST JUMPDEST DUP2 CALLDATALOAD PUSH2 0x9FC DUP5 DUP3 PUSH1 0x20 DUP7 ADD PUSH2 0x970 JUMP JUMPDEST SWAP2 POP POP SWAP3 SWAP2 POP POP JUMP JUMPDEST PUSH0 PUSH2 0xA17 PUSH2 0xA12 DUP5 PUSH2 0x8E3 JUMP JUMPDEST PUSH2 0x8C9 JUMP JUMPDEST SWAP1 POP DUP1 DUP4 DUP3 MSTORE PUSH1 0x20 DUP3 ADD SWAP1 POP PUSH1 0x20 DUP5 MUL DUP4 ADD DUP6 DUP2 GT ISZERO PUSH2 0xA3A JUMPI PUSH2 0xA39 PUSH2 0x90E JUMP JUMPDEST JUMPDEST DUP4 JUMPDEST DUP2 DUP2 LT ISZERO PUSH2 0xA81 JUMPI DUP1 CALLDATALOAD PUSH8 0xFFFFFFFFFFFFFFFF DUP2 GT ISZERO PUSH2 0xA5F JUMPI PUSH2 0xA5E PUSH2 0x857 JUMP JUMPDEST JUMPDEST DUP1 DUP7 ADD PUSH2 0xA6C DUP10 DUP3 PUSH2 0x9D8 JUMP JUMPDEST DUP6 MSTORE PUSH1 0x20 DUP6 ADD SWAP5 POP POP POP PUSH1 0x20 DUP2 ADD SWAP1 POP PUSH2 0xA3C JUMP JUMPDEST POP POP POP SWAP4 SWAP3 POP POP POP JUMP JUMPDEST PUSH0 DUP3 PUSH1 0x1F DUP4 ADD SLT PUSH2 0xA9F JUMPI PUSH2 0xA9E PUSH2 0x857 JUMP JUMPDEST JUMPDEST DUP2 CALLDATALOAD PUSH2 0xAAF DUP5 DUP3 PUSH1 0x20 DUP7 ADD PUSH2 0xA05 JUMP JUMPDEST SWAP2 POP POP SWAP3 SWAP2 POP POP JUMP JUMPDEST PUSH0 DUP1 PUSH1 0x40 DUP4 DUP6 SUB SLT ISZERO PUSH2 0xACE JUMPI PUSH2 0xACD PUSH2 0x84F JUMP JUMPDEST JUMPDEST PUSH0 DUP4 ADD CALLDATALOAD PUSH8 0xFFFFFFFFFFFFFFFF DUP2 GT ISZERO PUSH2 0xAEB JUMPI PUSH2 0xAEA PUSH2 0x853 JUMP JUMPDEST JUMPDEST PUSH2 0xAF7 DUP6 DUP3 DUP7 ADD PUSH2 0xA8B JUMP JUMPDEST SWAP3 POP POP PUSH1 0x20 DUP4 ADD CALLDATALOAD PUSH8 0xFFFFFFFFFFFFFFFF DUP2 GT ISZERO PUSH2 0xB18 JUMPI PUSH2 0xB17 PUSH2 0x853 JUMP JUMPDEST JUMPDEST PUSH2 0xB24 DUP6 DUP3 DUP7 ADD PUSH2 0xA8B JUMP JUMPDEST SWAP2 POP POP SWAP3 POP SWAP3 SWAP1 POP JUMP JUMPDEST PUSH0 DUP2 MLOAD SWAP1 POP SWAP2 SWAP1 POP JUMP JUMPDEST PUSH0 DUP3 DUP3 MSTORE PUSH1 0x20 DUP3 ADD SWAP1 POP SWAP3 SWAP2 POP POP JUMP JUMPDEST PUSH0 DUP2 SWAP1 POP PUSH1 0x20 DUP3 ADD SWAP1 POP SWAP2 SWAP1 POP JUMP JUMPDEST PUSH0 DUP2 MLOAD SWAP1 POP SWAP2 SWAP1 POP JUMP JUMPDEST PUSH0 DUP3 DUP3 MSTORE PUSH1 0x20 DUP3 ADD SWAP1 POP SWAP3 SWAP2 POP POP JUMP JUMPDEST PUSH0 DUP2 SWAP1 POP PUSH1 0x20 DUP3 ADD SWAP1 POP SWAP2 SWAP1 POP JUMP JUMPDEST PUSH2 0xB89 DUP2 PUSH2 0x93D JUMP JUMPDEST DUP3 MSTORE POP POP JUMP JUMPDEST PUSH0 PUSH2 0xB9A DUP4 DUP4 PUSH2 0xB80 JUMP JUMPDEST PUSH1 0x20 DUP4 ADD SWAP1 POP SWAP3 SWAP2 POP POP JUMP JUMPDEST PUSH0 PUSH1 0x20 DUP3 ADD SWAP1 POP SWAP2 SWAP1 POP JUMP JUMPDEST PUSH0 PUSH2 0xBBC DUP3 PUSH2 0xB57 JUMP JUMPDEST PUSH2 0xBC6 DUP2 DUP6 PUSH2 0xB61 JUMP JUMPDEST SWAP4 POP PUSH2 0xBD1 DUP4 PUSH2 0xB71 JUMP JUMPDEST DUP1 PUSH0 JUMPDEST DUP4 DUP2 LT ISZERO PUSH2 0xC01 JUMPI DUP2 MLOAD PUSH2 0xBE8 DUP9 DUP3 PUSH2 0xB8F JUMP JUMPDEST SWAP8 POP PUSH2 0xBF3 DUP4 PUSH2 0xBA6 JUMP JUMPDEST SWAP3 POP POP PUSH1 0x1 DUP2 ADD SWAP1 POP PUSH2 0xBD4 JUMP JUMPDEST POP DUP6 SWAP4 POP POP POP POP SWAP3 SWAP2 POP POP JUMP JUMPDEST PUSH0 PUSH2 0xC19 DUP4 DUP4 PUSH2 0xBB2 JUMP JUMPDEST SWAP1 POP SWAP3 SWAP2 POP POP JUMP JUMPDEST PUSH0 PUSH1 0x20 DUP3 ADD SWAP1 POP SWAP2 SWAP1 POP JUMP JUMPDEST PUSH0 PUSH2 0xC37 DUP3 PUSH2 0xB2E JUMP JUMPDEST PUSH2 0xC41 DUP2 DUP6 PUSH2 0xB38 JUMP JUMPDEST SWAP4 POP DUP4 PUSH1 0x20 DUP3 MUL DUP6 ADD PUSH2 0xC53 DUP6 PUSH2 0xB48 JUMP JUMPDEST DUP1 PUSH0 JUMPDEST DUP6 DUP2 LT ISZERO PUSH2 0xC8E JUMPI DUP5 DUP5 SUB DUP10 MSTORE DUP2 MLOAD PUSH2 0xC6F DUP6 DUP3 PUSH2 0xC0E JUMP JUMPDEST SWAP5 POP PUSH2 0xC7A DUP4 PUSH2 0xC21 JUMP JUMPDEST SWAP3 POP PUSH1 0x20 DUP11 ADD SWAP10 POP POP PUSH1 0x1 DUP2 ADD SWAP1 POP PUSH2 0xC56 JUMP JUMPDEST POP DUP3 SWAP8 POP DUP8 SWAP6 POP POP POP POP POP POP SWAP3 SWAP2 POP POP JUMP JUMPDEST PUSH0 PUSH1 0x20 DUP3 ADD SWAP1 POP DUP2 DUP2 SUB PUSH0 DUP4 ADD MSTORE PUSH2 0xCB8 DUP2 DUP5 PUSH2 0xC2D JUMP JUMPDEST SWAP1 POP SWAP3 SWAP2 POP POP JUMP JUMPDEST PUSH32 0x4E487B7100000000000000000000000000000000000000000000000000000000 PUSH0 MSTORE PUSH1 0x32 PUSH1 0x4 MSTORE PUSH1 0x24 PUSH0 REVERT JUMPDEST PUSH0 DUP3 DUP3 MSTORE PUSH1 0x20 DUP3 ADD SWAP1 POP SWAP3 SWAP2 POP POP JUMP JUMPDEST PUSH32 0x4D617472697831277320636F6C756D6E73206D75737420657175616C204D6174 PUSH0 DUP3 ADD MSTORE PUSH32 0x72697832277320726F77732E0000000000000000000000000000000000000000 PUSH1 0x20 DUP3 ADD MSTORE POP JUMP JUMPDEST PUSH0 PUSH2 0xD57 PUSH1 0x2C DUP4 PUSH2 0xCED JUMP JUMPDEST SWAP2 POP PUSH2 0xD62 DUP3 PUSH2 0xCFD JUMP JUMPDEST PUSH1 0x40 DUP3 ADD SWAP1 POP SWAP2 SWAP1 POP JUMP JUMPDEST PUSH0 PUSH1 0x20 DUP3 ADD SWAP1 POP DUP2 DUP2 SUB PUSH0 DUP4 ADD MSTORE PUSH2 0xD84 DUP2 PUSH2 0xD4B JUMP JUMPDEST SWAP1 POP SWAP2 SWAP1 POP JUMP JUMPDEST PUSH32 0x4E487B7100000000000000000000000000000000000000000000000000000000 PUSH0 MSTORE PUSH1 0x11 PUSH1 0x4 MSTORE PUSH1 0x24 PUSH0 REVERT JUMPDEST PUSH0 PUSH2 0xDC2 DUP3 PUSH2 0x93D JUMP JUMPDEST SWAP2 POP PUSH2 0xDCD DUP4 PUSH2 0x93D JUMP JUMPDEST SWAP3 POP DUP3 DUP3 MUL PUSH2 0xDDB DUP2 PUSH2 0x93D JUMP JUMPDEST SWAP2 POP PUSH32 0x8000000000000000000000000000000000000000000000000000000000000000 DUP5 EQ PUSH0 DUP5 SLT AND ISZERO PUSH2 0xE12 JUMPI PUSH2 0xE11 PUSH2 0xD8B JUMP JUMPDEST JUMPDEST DUP3 DUP3 SDIV DUP5 EQ DUP4 ISZERO OR PUSH2 0xE27 JUMPI PUSH2 0xE26 PUSH2 0xD8B JUMP JUMPDEST JUMPDEST POP SWAP3 SWAP2 POP POP JUMP JUMPDEST PUSH0 PUSH2 0xE38 DUP3 PUSH2 0x93D JUMP JUMPDEST SWAP2 POP PUSH2 0xE43 DUP4 PUSH2 0x93D JUMP JUMPDEST SWAP3 POP DUP3 DUP3 ADD SWAP1 POP DUP3 DUP2 SLT ISZERO PUSH0 DUP4 SLT AND DUP4 DUP3 SLT PUSH0 DUP5 SLT ISZERO AND OR ISZERO PUSH2 0xE69 JUMPI PUSH2 0xE68 PUSH2 0xD8B JUMP JUMPDEST JUMPDEST SWAP3 SWAP2 POP POP JUMP JUMPDEST PUSH32 0x4D61747269636573206D7573742068617665207468652073616D65206E756D62 PUSH0 DUP3 ADD MSTORE PUSH32 0x6572206F6620726F77732E000000000000000000000000000000000000000000 PUSH1 0x20 DUP3 ADD MSTORE POP JUMP JUMPDEST PUSH0 PUSH2 0xEC9 PUSH1 0x2B DUP4 PUSH2 0xCED JUMP JUMPDEST SWAP2 POP PUSH2 0xED4 DUP3 PUSH2 0xE6F JUMP JUMPDEST PUSH1 0x40 DUP3 ADD SWAP1 POP SWAP2 SWAP1 POP JUMP JUMPDEST PUSH0 PUSH1 0x20 DUP3 ADD SWAP1 POP DUP2 DUP2 SUB PUSH0 DUP4 ADD MSTORE PUSH2 0xEF6 DUP2 PUSH2 0xEBD JUMP JUMPDEST SWAP1 POP SWAP2 SWAP1 POP JUMP JUMPDEST PUSH32 0x4D61747269636573206D7573742068617665207468652073616D65206E756D62 PUSH0 DUP3 ADD MSTORE PUSH32 0x6572206F6620636F6C756D6E732E000000000000000000000000000000000000 PUSH1 0x20 DUP3 ADD MSTORE POP JUMP JUMPDEST PUSH0 PUSH2 0xF57 PUSH1 0x2E DUP4 PUSH2 0xCED JUMP JUMPDEST SWAP2 POP PUSH2 0xF62 DUP3 PUSH2 0xEFD JUMP JUMPDEST PUSH1 0x40 DUP3 ADD SWAP1 POP SWAP2 SWAP1 POP JUMP JUMPDEST PUSH0 PUSH1 0x20 DUP3 ADD SWAP1 POP DUP2 DUP2 SUB PUSH0 DUP4 ADD MSTORE PUSH2 0xF84 DUP2 PUSH2 0xF4B JUMP JUMPDEST SWAP1 POP SWAP2 SWAP1 POP JUMP JUMPDEST PUSH0 PUSH2 0xF95 DUP3 PUSH2 0x93D JUMP JUMPDEST SWAP2 POP PUSH2 0xFA0 DUP4 PUSH2 0x93D JUMP JUMPDEST SWAP3 POP DUP3 DUP3 SUB SWAP1 POP DUP2 DUP2 SLT PUSH0 DUP5 SLT AND DUP3 DUP3 SGT PUSH0 DUP6 SLT ISZERO AND OR ISZERO PUSH2 0xFC5 JUMPI PUSH2 0xFC4 PUSH2 0xD8B JUMP JUMPDEST JUMPDEST SWAP3 SWAP2 POP POP JUMP INVALID LOG2 PUSH5 0x6970667358 0x22 SLT KECCAK256 RETURNDATASIZE CREATE CALLDATACOPY DUP4 0xBA 0xE 0xF8 0xE1 0xBA CALLVALUE MCOPY DUP6 PUSH21 0xA543693EB6C34F778AB2397C3F79F1EA5E618B6473 PUSH16 0x6C634300081A00330000000000000000 "
				},
				"gasEstimates": {
					"creation": {
						"codeDepositCost": "819400",
						"executionCost": "855",
						"totalCost": "820255"
					},
					"external": {
						"addMatrices(int256[][],int256[][])": "infinite",
						"multiplyMatrices(int256[][],int256[][])": "infinite",
						"subtractMatrices(int256[][],int256[][])": "infinite"
					}
				},
				"methodIdentifiers": {
					"addMatrices(int256[][],int256[][])": "8ea9e16c",
					"multiplyMatrices(int256[][],int256[][])": "21a8f355",
					"subtractMatrices(int256[][],int256[][])": "71852ab2"
				}
			},
			"storageLayout": {
				"storage": [],
				"types": null
			},
			"userdoc": {
				"kind": "user",
				"methods": {},
				"version": 1
			}
		}
	}
}