{
	"Day7/TestMathLib.sol": {
		"TestMathLib": {
			"abi": [
				{
					"inputs": [
						{
							"internalType": "uint256",
							"name": "n",
							"type": "uint256"
						}
					],
					"name": "testFactorial",
					"outputs": [
						{
							"internalType": "uint256",
							"name": "",
							"type": "uint256"
						}
					],
					"stateMutability": "pure",
					"type": "function"
				},
				{
					"inputs": [
						{
							"internalType": "uint256",
							"name": "n",
							"type": "uint256"
						}
					],
					"name": "testFibonacci",
					"outputs": [
						{
							"internalType": "uint256",
							"name": "",
							"type": "uint256"
						}
					],
					"stateMutability": "pure",
					"type": "function"
				},
				{
					"inputs": [
						{
							"internalType": "uint256",
							"name": "num",
							"type": "uint256"
						}
					],
					"name": "testIsArmstrong",
					"outputs": [
						{
							"internalType": "bool",
							"name": "",
							"type": "bool"
						}
					],
					"stateMutability": "pure",
					"type": "function"
				},
				{
					"inputs": [
						{
							"internalType": "uint256",
							"name": "a",
							"type": "uint256"
						},
						{
							"internalType": "uint256",
							"name": "b",
							"type": "uint256"
						}
					],
					"name": "testMax",
					"outputs": [
						{
							"internalType": "uint256",
							"name": "",
							"type": "uint256"
						}
					],
					"stateMutability": "pure",
					"type": "function"
				},
				{
					"inputs": [
						{
							"internalType": "uint256",
							"name": "a",
							"type": "uint256"
						},
						{
							"internalType": "uint256",
							"name": "b",
							"type": "uint256"
						}
					],
					"name": "testMin",
					"outputs": [
						{
							"internalType": "uint256",
							"name": "",
							"type": "uint256"
						}
					],
					"stateMutability": "pure",
					"type": "function"
				}
			],
			"devdoc": {
				"kind": "dev",
				"methods": {},
				"version": 1
			},
			"evm": {
				"assembly": "    /* \"Day7/TestMathLib.sol\":143:1036  contract TestMathLib {... */\n  mstore(0x40, 0x80)\n  callvalue\n  dup1\n  iszero\n  tag_1\n  jumpi\n  0x00\n  dup1\n  revert\ntag_1:\n  pop\n  dataSize(sub_0)\n  dup1\n  dataOffset(sub_0)\n  0x00\n  codecopy\n  0x00\n  return\nstop\n\nsub_0: assembly {\n        /* \"Day7/TestMathLib.sol\":143:1036  contract TestMathLib {... */\n      mstore(0x40, 0x80)\n      callvalue\n      dup1\n      iszero\n      tag_1\n      jumpi\n      0x00\n      dup1\n      revert\n    tag_1:\n      pop\n      jumpi(tag_2, lt(calldatasize, 0x04))\n      shr(0xe0, calldataload(0x00))\n      dup1\n      0x05d09ad7\n      eq\n      tag_3\n      jumpi\n      dup1\n      0x163b0e51\n      eq\n      tag_4\n      jumpi\n      dup1\n      0x1abe5974\n      eq\n      tag_5\n      jumpi\n      dup1\n      0x834db421\n      eq\n      tag_6\n      jumpi\n      dup1\n      0x8c87bb0a\n      eq\n      tag_7\n      jumpi\n    tag_2:\n      0x00\n      dup1\n      revert\n        /* \"Day7/TestMathLib.sol\":918:1033  function testIsArmstrong(uint256 num) public pure returns (bool) {... */\n    tag_3:\n      tag_8\n      0x04\n      dup1\n      calldatasize\n      sub\n      dup2\n      add\n      swap1\n      tag_9\n      swap2\n      swap1\n      tag_10\n      jump\t// in\n    tag_9:\n      tag_11\n      jump\t// in\n    tag_8:\n      mload(0x40)\n      tag_12\n      swap2\n      swap1\n      tag_13\n      jump\t// in\n    tag_12:\n      mload(0x40)\n      dup1\n      swap2\n      sub\n      swap1\n      return\n        /* \"Day7/TestMathLib.sol\":571:681  function testFactorial(uint256 n) public pure returns (uint256) {... */\n    tag_4:\n      tag_14\n      0x04\n      dup1\n      calldatasize\n      sub\n      dup2\n      add\n      swap1\n      tag_15\n      swap2\n      swap1\n      tag_10\n      jump\t// in\n    tag_15:\n      tag_16\n      jump\t// in\n    tag_14:\n      mload(0x40)\n      tag_17\n      swap2\n      swap1\n      tag_18\n      jump\t// in\n    tag_17:\n      mload(0x40)\n      dup1\n      swap2\n      sub\n      swap1\n      return\n        /* \"Day7/TestMathLib.sol\":397:509  function testMin(uint256 a, uint256 b) public pure returns (uint256) {... */\n    tag_5:\n      tag_19\n      0x04\n      dup1\n      calldatasize\n      sub\n      dup2\n      add\n      swap1\n      tag_20\n      swap2\n      swap1\n      tag_21\n      jump\t// in\n    tag_20:\n      tag_22\n      jump\t// in\n    tag_19:\n      mload(0x40)\n      tag_23\n      swap2\n      swap1\n      tag_18\n      jump\t// in\n    tag_23:\n      mload(0x40)\n      dup1\n      swap2\n      sub\n      swap1\n      return\n        /* \"Day7/TestMathLib.sol\":227:339  function testMax(uint256 a, uint256 b) public pure returns (uint256) {... */\n    tag_6:\n      tag_24\n      0x04\n      dup1\n      calldatasize\n      sub\n      dup2\n      add\n      swap1\n      tag_25\n      swap2\n      swap1\n      tag_21\n      jump\t// in\n    tag_25:\n      tag_26\n      jump\t// in\n    tag_24:\n      mload(0x40)\n      tag_27\n      swap2\n      swap1\n      tag_18\n      jump\t// in\n    tag_27:\n      mload(0x40)\n      dup1\n      swap2\n      sub\n      swap1\n      return\n        /* \"Day7/TestMathLib.sol\":741:851  function testFibonacci(uint256 n) public pure returns (uint256) {... */\n    tag_7:\n      tag_28\n      0x04\n      dup1\n      calldatasize\n      sub\n      dup2\n      add\n      swap1\n      tag_29\n      swap2\n      swap1\n      tag_10\n      jump\t// in\n    tag_29:\n      tag_30\n      jump\t// in\n    tag_28:\n      mload(0x40)\n      tag_31\n      swap2\n      swap1\n      tag_18\n      jump\t// in\n    tag_31:\n      mload(0x40)\n      dup1\n      swap2\n      sub\n      swap1\n      return\n        /* \"Day7/TestMathLib.sol\":918:1033  function testIsArmstrong(uint256 num) public pure returns (bool) {... */\n    tag_11:\n        /* \"Day7/TestMathLib.sol\":977:981  bool */\n      0x00\n        /* \"Day7/TestMathLib.sol\":1001:1025  MathLib.isArmstrong(num) */\n      tag_33\n        /* \"Day7/TestMathLib.sol\":1021:1024  num */\n      dup3\n        /* \"Day7/TestMathLib.sol\":1001:1020  MathLib.isArmstrong */\n      tag_34\n        /* \"Day7/TestMathLib.sol\":1001:1025  MathLib.isArmstrong(num) */\n      jump\t// in\n    tag_33:\n        /* \"Day7/TestMathLib.sol\":994:1025  return MathLib.isArmstrong(num) */\n      swap1\n      pop\n        /* \"Day7/TestMathLib.sol\":918:1033  function testIsArmstrong(uint256 num) public pure returns (bool) {... */\n      swap2\n      swap1\n      pop\n      jump\t// out\n        /* \"Day7/TestMathLib.sol\":571:681  function testFactorial(uint256 n) public pure returns (uint256) {... */\n    tag_16:\n        /* \"Day7/TestMathLib.sol\":626:633  uint256 */\n      0x00\n        /* \"Day7/TestMathLib.sol\":653:673  MathLib.factorial(n) */\n      tag_36\n        /* \"Day7/TestMathLib.sol\":671:672  n */\n      dup3\n        /* \"Day7/TestMathLib.sol\":653:670  MathLib.factorial */\n      tag_37\n        /* \"Day7/TestMathLib.sol\":653:673  MathLib.factorial(n) */\n      jump\t// in\n    tag_36:\n        /* \"Day7/TestMathLib.sol\":646:673  return MathLib.factorial(n) */\n      swap1\n      pop\n        /* \"Day7/TestMathLib.sol\":571:681  function testFactorial(uint256 n) public pure returns (uint256) {... */\n      swap2\n      swap1\n      pop\n      jump\t// out\n        /* \"Day7/TestMathLib.sol\":397:509  function testMin(uint256 a, uint256 b) public pure returns (uint256) {... */\n    tag_22:\n        /* \"Day7/TestMathLib.sol\":457:464  uint256 */\n      0x00\n        /* \"Day7/TestMathLib.sol\":484:501  MathLib.min(a, b) */\n      tag_39\n        /* \"Day7/TestMathLib.sol\":496:497  a */\n      dup4\n        /* \"Day7/TestMathLib.sol\":499:500  b */\n      dup4\n        /* \"Day7/TestMathLib.sol\":484:495  MathLib.min */\n      tag_40\n        /* \"Day7/TestMathLib.sol\":484:501  MathLib.min(a, b) */\n      jump\t// in\n    tag_39:\n        /* \"Day7/TestMathLib.sol\":477:501  return MathLib.min(a, b) */\n      swap1\n      pop\n        /* \"Day7/TestMathLib.sol\":397:509  function testMin(uint256 a, uint256 b) public pure returns (uint256) {... */\n      swap3\n      swap2\n      pop\n      pop\n      jump\t// out\n        /* \"Day7/TestMathLib.sol\":227:339  function testMax(uint256 a, uint256 b) public pure returns (uint256) {... */\n    tag_26:\n        /* \"Day7/TestMathLib.sol\":287:294  uint256 */\n      0x00\n        /* \"Day7/TestMathLib.sol\":314:331  MathLib.max(a, b) */\n      tag_42\n        /* \"Day7/TestMathLib.sol\":326:327  a */\n      dup4\n        /* \"Day7/TestMathLib.sol\":329:330  b */\n      dup4\n        /* \"Day7/TestMathLib.sol\":314:325  MathLib.max */\n      tag_43\n        /* \"Day7/TestMathLib.sol\":314:331  MathLib.max(a, b) */\n      jump\t// in\n    tag_42:\n        /* \"Day7/TestMathLib.sol\":307:331  return MathLib.max(a, b) */\n      swap1\n      pop\n        /* \"Day7/TestMathLib.sol\":227:339  function testMax(uint256 a, uint256 b) public pure returns (uint256) {... */\n      swap3\n      swap2\n      pop\n      pop\n      jump\t// out\n        /* \"Day7/TestMathLib.sol\":741:851  function testFibonacci(uint256 n) public pure returns (uint256) {... */\n    tag_30:\n        /* \"Day7/TestMathLib.sol\":796:803  uint256 */\n      0x00\n        /* \"Day7/TestMathLib.sol\":823:843  MathLib.fibonacci(n) */\n      tag_45\n        /* \"Day7/TestMathLib.sol\":841:842  n */\n      dup3\n        /* \"Day7/TestMathLib.sol\":823:840  MathLib.fibonacci */\n      tag_46\n        /* \"Day7/TestMathLib.sol\":823:843  MathLib.fibonacci(n) */\n      jump\t// in\n    tag_45:\n        /* \"Day7/TestMathLib.sol\":816:843  return MathLib.fibonacci(n) */\n      swap1\n      pop\n        /* \"Day7/TestMathLib.sol\":741:851  function testFibonacci(uint256 n) public pure returns (uint256) {... */\n      swap2\n      swap1\n      pop\n      jump\t// out\n        /* \"Day7/Mathp1.sol\":1540:2323  function isArmstrong(uint256 num) internal pure returns (bool) {... */\n    tag_34:\n        /* \"Day7/Mathp1.sol\":1597:1601  bool */\n      0x00\n        /* \"Day7/Mathp1.sol\":1614:1633  uint256 originalNum */\n      dup1\n        /* \"Day7/Mathp1.sol\":1636:1639  num */\n      dup3\n        /* \"Day7/Mathp1.sol\":1614:1639  uint256 originalNum = num */\n      swap1\n      pop\n        /* \"Day7/Mathp1.sol\":1650:1661  uint256 sum */\n      0x00\n        /* \"Day7/Mathp1.sol\":1676:1688  uint256 temp */\n      dup1\n        /* \"Day7/Mathp1.sol\":1691:1694  num */\n      dup5\n        /* \"Day7/Mathp1.sol\":1676:1694  uint256 temp = num */\n      swap1\n      pop\n        /* \"Day7/Mathp1.sol\":1705:1719  uint256 digits */\n      0x00\n        /* \"Day7/Mathp1.sol\":1775:1852  while (temp > 0) {... */\n    tag_48:\n        /* \"Day7/Mathp1.sol\":1789:1790  0 */\n      0x00\n        /* \"Day7/Mathp1.sol\":1782:1786  temp */\n      dup3\n        /* \"Day7/Mathp1.sol\":1782:1790  temp > 0 */\n      gt\n        /* \"Day7/Mathp1.sol\":1775:1852  while (temp > 0) {... */\n      iszero\n      tag_49\n      jumpi\n        /* \"Day7/Mathp1.sol\":1807:1815  digits++ */\n      dup1\n      dup1\n      tag_50\n      swap1\n      tag_51\n      jump\t// in\n    tag_50:\n      swap2\n      pop\n      pop\n        /* \"Day7/Mathp1.sol\":1838:1840  10 */\n      0x0a\n        /* \"Day7/Mathp1.sol\":1830:1840  temp /= 10 */\n      dup3\n      tag_52\n      swap2\n      swap1\n      tag_53\n      jump\t// in\n    tag_52:\n      swap2\n      pop\n        /* \"Day7/Mathp1.sol\":1775:1852  while (temp > 0) {... */\n      jump(tag_48)\n    tag_49:\n        /* \"Day7/Mathp1.sol\":1871:1874  num */\n      dup6\n        /* \"Day7/Mathp1.sol\":1864:1874  temp = num */\n      swap2\n      pop\n        /* \"Day7/Mathp1.sol\":1964:2278  while (temp > 0) {... */\n    tag_54:\n        /* \"Day7/Mathp1.sol\":1978:1979  0 */\n      0x00\n        /* \"Day7/Mathp1.sol\":1971:1975  temp */\n      dup3\n        /* \"Day7/Mathp1.sol\":1971:1979  temp > 0 */\n      gt\n        /* \"Day7/Mathp1.sol\":1964:2278  while (temp > 0) {... */\n      iszero\n      tag_55\n      jumpi\n        /* \"Day7/Mathp1.sol\":1996:2009  uint256 digit */\n      0x00\n        /* \"Day7/Mathp1.sol\":2019:2021  10 */\n      0x0a\n        /* \"Day7/Mathp1.sol\":2012:2016  temp */\n      dup4\n        /* \"Day7/Mathp1.sol\":2012:2021  temp % 10 */\n      tag_56\n      swap2\n      swap1\n      tag_57\n      jump\t// in\n    tag_56:\n        /* \"Day7/Mathp1.sol\":1996:2021  uint256 digit = temp % 10 */\n      swap1\n      pop\n        /* \"Day7/Mathp1.sol\":2036:2049  uint256 power */\n      0x00\n        /* \"Day7/Mathp1.sol\":2052:2053  1 */\n      0x01\n        /* \"Day7/Mathp1.sol\":2036:2053  uint256 power = 1 */\n      swap1\n      pop\n        /* \"Day7/Mathp1.sol\":2132:2141  uint256 i */\n      0x00\n        /* \"Day7/Mathp1.sol\":2127:2213  for (uint256 i = 0; i < digits; i++) {... */\n    tag_58:\n        /* \"Day7/Mathp1.sol\":2151:2157  digits */\n      dup4\n        /* \"Day7/Mathp1.sol\":2147:2148  i */\n      dup2\n        /* \"Day7/Mathp1.sol\":2147:2157  i < digits */\n      lt\n        /* \"Day7/Mathp1.sol\":2127:2213  for (uint256 i = 0; i < digits; i++) {... */\n      iszero\n      tag_59\n      jumpi\n        /* \"Day7/Mathp1.sol\":2192:2197  digit */\n      dup3\n        /* \"Day7/Mathp1.sol\":2183:2197  power *= digit */\n      dup3\n      tag_61\n      swap2\n      swap1\n      tag_62\n      jump\t// in\n    tag_61:\n      swap2\n      pop\n        /* \"Day7/Mathp1.sol\":2159:2162  i++ */\n      dup1\n      dup1\n      0x01\n      add\n      swap2\n      pop\n      pop\n        /* \"Day7/Mathp1.sol\":2127:2213  for (uint256 i = 0; i < digits; i++) {... */\n      jump(tag_58)\n    tag_59:\n      pop\n        /* \"Day7/Mathp1.sol\":2236:2241  power */\n      dup1\n        /* \"Day7/Mathp1.sol\":2229:2241  sum += power */\n      dup6\n      tag_63\n      swap2\n      swap1\n      tag_64\n      jump\t// in\n    tag_63:\n      swap5\n      pop\n        /* \"Day7/Mathp1.sol\":2264:2266  10 */\n      0x0a\n        /* \"Day7/Mathp1.sol\":2256:2266  temp /= 10 */\n      dup5\n      tag_65\n      swap2\n      swap1\n      tag_53\n      jump\t// in\n    tag_65:\n      swap4\n      pop\n        /* \"Day7/Mathp1.sol\":1981:2278  {... */\n      pop\n      pop\n        /* \"Day7/Mathp1.sol\":1964:2278  while (temp > 0) {... */\n      jump(tag_54)\n    tag_55:\n        /* \"Day7/Mathp1.sol\":2304:2315  originalNum */\n      dup4\n        /* \"Day7/Mathp1.sol\":2297:2300  sum */\n      dup4\n        /* \"Day7/Mathp1.sol\":2297:2315  sum == originalNum */\n      eq\n        /* \"Day7/Mathp1.sol\":2290:2315  return sum == originalNum */\n      swap5\n      pop\n      pop\n      pop\n      pop\n      pop\n        /* \"Day7/Mathp1.sol\":1540:2323  function isArmstrong(uint256 num) internal pure returns (bool) {... */\n      swap2\n      swap1\n      pop\n      jump\t// out\n        /* \"Day7/Mathp1.sol\":684:933  function factorial(uint256 n) internal pure returns (uint256) {... */\n    tag_37:\n        /* \"Day7/Mathp1.sol\":737:744  uint256 */\n      0x00\n        /* \"Day7/Mathp1.sol\":757:771  uint256 result */\n      dup1\n        /* \"Day7/Mathp1.sol\":774:775  1 */\n      0x01\n        /* \"Day7/Mathp1.sol\":757:775  uint256 result = 1 */\n      swap1\n      pop\n        /* \"Day7/Mathp1.sol\":834:843  uint256 i */\n      0x00\n        /* \"Day7/Mathp1.sol\":846:847  1 */\n      0x01\n        /* \"Day7/Mathp1.sol\":834:847  uint256 i = 1 */\n      swap1\n      pop\n        /* \"Day7/Mathp1.sol\":829:900  for (uint256 i = 1; i <= n; i++) {... */\n    tag_67:\n        /* \"Day7/Mathp1.sol\":854:855  n */\n      dup4\n        /* \"Day7/Mathp1.sol\":849:850  i */\n      dup2\n        /* \"Day7/Mathp1.sol\":849:855  i <= n */\n      gt\n        /* \"Day7/Mathp1.sol\":829:900  for (uint256 i = 1; i <= n; i++) {... */\n      tag_68\n      jumpi\n        /* \"Day7/Mathp1.sol\":887:888  i */\n      dup1\n        /* \"Day7/Mathp1.sol\":877:888  result *= i */\n      dup3\n      tag_70\n      swap2\n      swap1\n      tag_62\n      jump\t// in\n    tag_70:\n      swap2\n      pop\n        /* \"Day7/Mathp1.sol\":857:860  i++ */\n      dup1\n      dup1\n      tag_71\n      swap1\n      tag_51\n      jump\t// in\n    tag_71:\n      swap2\n      pop\n      pop\n        /* \"Day7/Mathp1.sol\":829:900  for (uint256 i = 1; i <= n; i++) {... */\n      jump(tag_67)\n    tag_68:\n      pop\n        /* \"Day7/Mathp1.sol\":919:925  result */\n      dup1\n        /* \"Day7/Mathp1.sol\":912:925  return result */\n      swap2\n      pop\n      pop\n        /* \"Day7/Mathp1.sol\":684:933  function factorial(uint256 n) internal pure returns (uint256) {... */\n      swap2\n      swap1\n      pop\n      jump\t// out\n        /* \"Day7/Mathp1.sol\":454:626  function min(uint256 a, uint256 b) internal pure returns (uint256) {... */\n    tag_40:\n        /* \"Day7/Mathp1.sol\":512:519  uint256 */\n      0x00\n        /* \"Day7/Mathp1.sol\":540:541  b */\n      dup2\n        /* \"Day7/Mathp1.sol\":536:537  a */\n      dup4\n        /* \"Day7/Mathp1.sol\":536:541  a < b */\n      lt\n        /* \"Day7/Mathp1.sol\":532:619  if (a < b) {... */\n      iszero\n      tag_73\n      jumpi\n        /* \"Day7/Mathp1.sol\":565:566  a */\n      dup3\n        /* \"Day7/Mathp1.sol\":558:566  return a */\n      swap1\n      pop\n      jump(tag_72)\n        /* \"Day7/Mathp1.sol\":532:619  if (a < b) {... */\n    tag_73:\n        /* \"Day7/Mathp1.sol\":606:607  b */\n      dup2\n        /* \"Day7/Mathp1.sol\":599:607  return b */\n      swap1\n      pop\n        /* \"Day7/Mathp1.sol\":454:626  function min(uint256 a, uint256 b) internal pure returns (uint256) {... */\n    tag_72:\n      swap3\n      swap2\n      pop\n      pop\n      jump\t// out\n        /* \"Day7/Mathp1.sol\":234:406  function max(uint256 a, uint256 b) internal pure returns (uint256) {... */\n    tag_43:\n        /* \"Day7/Mathp1.sol\":292:299  uint256 */\n      0x00\n        /* \"Day7/Mathp1.sol\":320:321  b */\n      dup2\n        /* \"Day7/Mathp1.sol\":316:317  a */\n      dup4\n        /* \"Day7/Mathp1.sol\":316:321  a > b */\n      gt\n        /* \"Day7/Mathp1.sol\":312:399  if (a > b) {... */\n      iszero\n      tag_76\n      jumpi\n        /* \"Day7/Mathp1.sol\":345:346  a */\n      dup3\n        /* \"Day7/Mathp1.sol\":338:346  return a */\n      swap1\n      pop\n      jump(tag_75)\n        /* \"Day7/Mathp1.sol\":312:399  if (a > b) {... */\n    tag_76:\n        /* \"Day7/Mathp1.sol\":386:387  b */\n      dup2\n        /* \"Day7/Mathp1.sol\":379:387  return b */\n      swap1\n      pop\n        /* \"Day7/Mathp1.sol\":234:406  function max(uint256 a, uint256 b) internal pure returns (uint256) {... */\n    tag_75:\n      swap3\n      swap2\n      pop\n      pop\n      jump\t// out\n        /* \"Day7/Mathp1.sol\":984:1482  function fibonacci(uint256 n) internal pure returns (uint256) {... */\n    tag_46:\n        /* \"Day7/Mathp1.sol\":1037:1044  uint256 */\n      0x00\n        /* \"Day7/Mathp1.sol\":1066:1067  0 */\n      dup1\n        /* \"Day7/Mathp1.sol\":1061:1062  n */\n      dup3\n        /* \"Day7/Mathp1.sol\":1061:1067  n == 0 */\n      sub\n        /* \"Day7/Mathp1.sol\":1057:1104  if (n == 0) {... */\n      tag_79\n      jumpi\n        /* \"Day7/Mathp1.sol\":1091:1092  0 */\n      0x00\n        /* \"Day7/Mathp1.sol\":1084:1092  return 0 */\n      swap1\n      pop\n      jump(tag_78)\n        /* \"Day7/Mathp1.sol\":1057:1104  if (n == 0) {... */\n    tag_79:\n        /* \"Day7/Mathp1.sol\":1123:1124  1 */\n      0x01\n        /* \"Day7/Mathp1.sol\":1118:1119  n */\n      dup3\n        /* \"Day7/Mathp1.sol\":1118:1124  n == 1 */\n      sub\n        /* \"Day7/Mathp1.sol\":1114:1161  if (n == 1) {... */\n      tag_80\n      jumpi\n        /* \"Day7/Mathp1.sol\":1148:1149  1 */\n      0x01\n        /* \"Day7/Mathp1.sol\":1141:1149  return 1 */\n      swap1\n      pop\n      jump(tag_78)\n        /* \"Day7/Mathp1.sol\":1114:1161  if (n == 1) {... */\n    tag_80:\n        /* \"Day7/Mathp1.sol\":1173:1186  uint256 first */\n      0x00\n        /* \"Day7/Mathp1.sol\":1201:1215  uint256 second */\n      dup1\n        /* \"Day7/Mathp1.sol\":1218:1219  1 */\n      0x01\n        /* \"Day7/Mathp1.sol\":1201:1219  uint256 second = 1 */\n      swap1\n      pop\n        /* \"Day7/Mathp1.sol\":1230:1242  uint256 next */\n      0x00\n        /* \"Day7/Mathp1.sol\":1316:1325  uint256 i */\n      dup1\n        /* \"Day7/Mathp1.sol\":1328:1329  2 */\n      0x02\n        /* \"Day7/Mathp1.sol\":1316:1329  uint256 i = 2 */\n      swap1\n      pop\n        /* \"Day7/Mathp1.sol\":1311:1449  for (uint256 i = 2; i <= n; i++) {... */\n    tag_81:\n        /* \"Day7/Mathp1.sol\":1336:1337  n */\n      dup6\n        /* \"Day7/Mathp1.sol\":1331:1332  i */\n      dup2\n        /* \"Day7/Mathp1.sol\":1331:1337  i <= n */\n      gt\n        /* \"Day7/Mathp1.sol\":1311:1449  for (uint256 i = 2; i <= n; i++) {... */\n      tag_82\n      jumpi\n        /* \"Day7/Mathp1.sol\":1374:1380  second */\n      dup3\n        /* \"Day7/Mathp1.sol\":1366:1371  first */\n      dup5\n        /* \"Day7/Mathp1.sol\":1366:1380  first + second */\n      tag_84\n      swap2\n      swap1\n      tag_64\n      jump\t// in\n    tag_84:\n        /* \"Day7/Mathp1.sol\":1359:1380  next = first + second */\n      swap2\n      pop\n        /* \"Day7/Mathp1.sol\":1403:1409  second */\n      dup3\n        /* \"Day7/Mathp1.sol\":1395:1409  first = second */\n      swap4\n      pop\n        /* \"Day7/Mathp1.sol\":1433:1437  next */\n      dup2\n        /* \"Day7/Mathp1.sol\":1424:1437  second = next */\n      swap3\n      pop\n        /* \"Day7/Mathp1.sol\":1339:1342  i++ */\n      dup1\n      dup1\n      tag_85\n      swap1\n      tag_51\n      jump\t// in\n    tag_85:\n      swap2\n      pop\n      pop\n        /* \"Day7/Mathp1.sol\":1311:1449  for (uint256 i = 2; i <= n; i++) {... */\n      jump(tag_81)\n    tag_82:\n      pop\n        /* \"Day7/Mathp1.sol\":1468:1474  second */\n      dup2\n        /* \"Day7/Mathp1.sol\":1461:1474  return second */\n      swap4\n      pop\n      pop\n      pop\n      pop\n        /* \"Day7/Mathp1.sol\":984:1482  function fibonacci(uint256 n) internal pure returns (uint256) {... */\n    tag_78:\n      swap2\n      swap1\n      pop\n      jump\t// out\n        /* \"#utility.yul\":88:205   */\n    tag_87:\n        /* \"#utility.yul\":197:198   */\n      0x00\n        /* \"#utility.yul\":194:195   */\n      dup1\n        /* \"#utility.yul\":187:199   */\n      revert\n        /* \"#utility.yul\":334:411   */\n    tag_89:\n        /* \"#utility.yul\":371:378   */\n      0x00\n        /* \"#utility.yul\":400:405   */\n      dup2\n        /* \"#utility.yul\":389:405   */\n      swap1\n      pop\n        /* \"#utility.yul\":334:411   */\n      swap2\n      swap1\n      pop\n      jump\t// out\n        /* \"#utility.yul\":417:539   */\n    tag_90:\n        /* \"#utility.yul\":490:514   */\n      tag_103\n        /* \"#utility.yul\":508:513   */\n      dup2\n        /* \"#utility.yul\":490:514   */\n      tag_89\n      jump\t// in\n    tag_103:\n        /* \"#utility.yul\":483:488   */\n      dup2\n        /* \"#utility.yul\":480:515   */\n      eq\n        /* \"#utility.yul\":470:533   */\n      tag_104\n      jumpi\n        /* \"#utility.yul\":529:530   */\n      0x00\n        /* \"#utility.yul\":526:527   */\n      dup1\n        /* \"#utility.yul\":519:531   */\n      revert\n        /* \"#utility.yul\":470:533   */\n    tag_104:\n        /* \"#utility.yul\":417:539   */\n      pop\n      jump\t// out\n        /* \"#utility.yul\":545:684   */\n    tag_91:\n        /* \"#utility.yul\":591:596   */\n      0x00\n        /* \"#utility.yul\":629:635   */\n      dup2\n        /* \"#utility.yul\":616:636   */\n      calldataload\n        /* \"#utility.yul\":607:636   */\n      swap1\n      pop\n        /* \"#utility.yul\":645:678   */\n      tag_106\n        /* \"#utility.yul\":672:677   */\n      dup2\n        /* \"#utility.yul\":645:678   */\n      tag_90\n      jump\t// in\n    tag_106:\n        /* \"#utility.yul\":545:684   */\n      swap3\n      swap2\n      pop\n      pop\n      jump\t// out\n        /* \"#utility.yul\":690:1019   */\n    tag_10:\n        /* \"#utility.yul\":749:755   */\n      0x00\n        /* \"#utility.yul\":798:800   */\n      0x20\n        /* \"#utility.yul\":786:795   */\n      dup3\n        /* \"#utility.yul\":777:784   */\n      dup5\n        /* \"#utility.yul\":773:796   */\n      sub\n        /* \"#utility.yul\":769:801   */\n      slt\n        /* \"#utility.yul\":766:885   */\n      iszero\n      tag_108\n      jumpi\n        /* \"#utility.yul\":804:883   */\n      tag_109\n      tag_87\n      jump\t// in\n    tag_109:\n        /* \"#utility.yul\":766:885   */\n    tag_108:\n        /* \"#utility.yul\":924:925   */\n      0x00\n        /* \"#utility.yul\":949:1002   */\n      tag_110\n        /* \"#utility.yul\":994:1001   */\n      dup5\n        /* \"#utility.yul\":985:991   */\n      dup3\n        /* \"#utility.yul\":974:983   */\n      dup6\n        /* \"#utility.yul\":970:992   */\n      add\n        /* \"#utility.yul\":949:1002   */\n      tag_91\n      jump\t// in\n    tag_110:\n        /* \"#utility.yul\":939:1002   */\n      swap2\n      pop\n        /* \"#utility.yul\":895:1012   */\n      pop\n        /* \"#utility.yul\":690:1019   */\n      swap3\n      swap2\n      pop\n      pop\n      jump\t// out\n        /* \"#utility.yul\":1025:1115   */\n    tag_92:\n        /* \"#utility.yul\":1059:1066   */\n      0x00\n        /* \"#utility.yul\":1102:1107   */\n      dup2\n        /* \"#utility.yul\":1095:1108   */\n      iszero\n        /* \"#utility.yul\":1088:1109   */\n      iszero\n        /* \"#utility.yul\":1077:1109   */\n      swap1\n      pop\n        /* \"#utility.yul\":1025:1115   */\n      swap2\n      swap1\n      pop\n      jump\t// out\n        /* \"#utility.yul\":1121:1230   */\n    tag_93:\n        /* \"#utility.yul\":1202:1223   */\n      tag_113\n        /* \"#utility.yul\":1217:1222   */\n      dup2\n        /* \"#utility.yul\":1202:1223   */\n      tag_92\n      jump\t// in\n    tag_113:\n        /* \"#utility.yul\":1197:1200   */\n      dup3\n        /* \"#utility.yul\":1190:1224   */\n      mstore\n        /* \"#utility.yul\":1121:1230   */\n      pop\n      pop\n      jump\t// out\n        /* \"#utility.yul\":1236:1446   */\n    tag_13:\n        /* \"#utility.yul\":1323:1327   */\n      0x00\n        /* \"#utility.yul\":1361:1363   */\n      0x20\n        /* \"#utility.yul\":1350:1359   */\n      dup3\n        /* \"#utility.yul\":1346:1364   */\n      add\n        /* \"#utility.yul\":1338:1364   */\n      swap1\n      pop\n        /* \"#utility.yul\":1374:1439   */\n      tag_115\n        /* \"#utility.yul\":1436:1437   */\n      0x00\n        /* \"#utility.yul\":1425:1434   */\n      dup4\n        /* \"#utility.yul\":1421:1438   */\n      add\n        /* \"#utility.yul\":1412:1418   */\n      dup5\n        /* \"#utility.yul\":1374:1439   */\n      tag_93\n      jump\t// in\n    tag_115:\n        /* \"#utility.yul\":1236:1446   */\n      swap3\n      swap2\n      pop\n      pop\n      jump\t// out\n        /* \"#utility.yul\":1452:1570   */\n    tag_94:\n        /* \"#utility.yul\":1539:1563   */\n      tag_117\n        /* \"#utility.yul\":1557:1562   */\n      dup2\n        /* \"#utility.yul\":1539:1563   */\n      tag_89\n      jump\t// in\n    tag_117:\n        /* \"#utility.yul\":1534:1537   */\n      dup3\n        /* \"#utility.yul\":1527:1564   */\n      mstore\n        /* \"#utility.yul\":1452:1570   */\n      pop\n      pop\n      jump\t// out\n        /* \"#utility.yul\":1576:1798   */\n    tag_18:\n        /* \"#utility.yul\":1669:1673   */\n      0x00\n        /* \"#utility.yul\":1707:1709   */\n      0x20\n        /* \"#utility.yul\":1696:1705   */\n      dup3\n        /* \"#utility.yul\":1692:1710   */\n      add\n        /* \"#utility.yul\":1684:1710   */\n      swap1\n      pop\n        /* \"#utility.yul\":1720:1791   */\n      tag_119\n        /* \"#utility.yul\":1788:1789   */\n      0x00\n        /* \"#utility.yul\":1777:1786   */\n      dup4\n        /* \"#utility.yul\":1773:1790   */\n      add\n        /* \"#utility.yul\":1764:1770   */\n      dup5\n        /* \"#utility.yul\":1720:1791   */\n      tag_94\n      jump\t// in\n    tag_119:\n        /* \"#utility.yul\":1576:1798   */\n      swap3\n      swap2\n      pop\n      pop\n      jump\t// out\n        /* \"#utility.yul\":1804:2278   */\n    tag_21:\n        /* \"#utility.yul\":1872:1878   */\n      0x00\n        /* \"#utility.yul\":1880:1886   */\n      dup1\n        /* \"#utility.yul\":1929:1931   */\n      0x40\n        /* \"#utility.yul\":1917:1926   */\n      dup4\n        /* \"#utility.yul\":1908:1915   */\n      dup6\n        /* \"#utility.yul\":1904:1927   */\n      sub\n        /* \"#utility.yul\":1900:1932   */\n      slt\n        /* \"#utility.yul\":1897:2016   */\n      iszero\n      tag_121\n      jumpi\n        /* \"#utility.yul\":1935:2014   */\n      tag_122\n      tag_87\n      jump\t// in\n    tag_122:\n        /* \"#utility.yul\":1897:2016   */\n    tag_121:\n        /* \"#utility.yul\":2055:2056   */\n      0x00\n        /* \"#utility.yul\":2080:2133   */\n      tag_123\n        /* \"#utility.yul\":2125:2132   */\n      dup6\n        /* \"#utility.yul\":2116:2122   */\n      dup3\n        /* \"#utility.yul\":2105:2114   */\n      dup7\n        /* \"#utility.yul\":2101:2123   */\n      add\n        /* \"#utility.yul\":2080:2133   */\n      tag_91\n      jump\t// in\n    tag_123:\n        /* \"#utility.yul\":2070:2133   */\n      swap3\n      pop\n        /* \"#utility.yul\":2026:2143   */\n      pop\n        /* \"#utility.yul\":2182:2184   */\n      0x20\n        /* \"#utility.yul\":2208:2261   */\n      tag_124\n        /* \"#utility.yul\":2253:2260   */\n      dup6\n        /* \"#utility.yul\":2244:2250   */\n      dup3\n        /* \"#utility.yul\":2233:2242   */\n      dup7\n        /* \"#utility.yul\":2229:2251   */\n      add\n        /* \"#utility.yul\":2208:2261   */\n      tag_91\n      jump\t// in\n    tag_124:\n        /* \"#utility.yul\":2198:2261   */\n      swap2\n      pop\n        /* \"#utility.yul\":2153:2271   */\n      pop\n        /* \"#utility.yul\":1804:2278   */\n      swap3\n      pop\n      swap3\n      swap1\n      pop\n      jump\t// out\n        /* \"#utility.yul\":2284:2464   */\n    tag_95:\n        /* \"#utility.yul\":2332:2409   */\n      0x4e487b7100000000000000000000000000000000000000000000000000000000\n        /* \"#utility.yul\":2329:2330   */\n      0x00\n        /* \"#utility.yul\":2322:2410   */\n      mstore\n        /* \"#utility.yul\":2429:2433   */\n      0x11\n        /* \"#utility.yul\":2426:2427   */\n      0x04\n        /* \"#utility.yul\":2419:2434   */\n      mstore\n        /* \"#utility.yul\":2453:2457   */\n      0x24\n        /* \"#utility.yul\":2450:2451   */\n      0x00\n        /* \"#utility.yul\":2443:2458   */\n      revert\n        /* \"#utility.yul\":2470:2703   */\n    tag_51:\n        /* \"#utility.yul\":2509:2512   */\n      0x00\n        /* \"#utility.yul\":2532:2556   */\n      tag_127\n        /* \"#utility.yul\":2550:2555   */\n      dup3\n        /* \"#utility.yul\":2532:2556   */\n      tag_89\n      jump\t// in\n    tag_127:\n        /* \"#utility.yul\":2523:2556   */\n      swap2\n      pop\n        /* \"#utility.yul\":2578:2644   */\n      0xffffffffffffffffffffffffffffffffffffffffffffffffffffffffffffffff\n        /* \"#utility.yul\":2571:2576   */\n      dup3\n        /* \"#utility.yul\":2568:2645   */\n      sub\n        /* \"#utility.yul\":2565:2668   */\n      tag_128\n      jumpi\n        /* \"#utility.yul\":2648:2666   */\n      tag_129\n      tag_95\n      jump\t// in\n    tag_129:\n        /* \"#utility.yul\":2565:2668   */\n    tag_128:\n        /* \"#utility.yul\":2695:2696   */\n      0x01\n        /* \"#utility.yul\":2688:2693   */\n      dup3\n        /* \"#utility.yul\":2684:2697   */\n      add\n        /* \"#utility.yul\":2677:2697   */\n      swap1\n      pop\n        /* \"#utility.yul\":2470:2703   */\n      swap2\n      swap1\n      pop\n      jump\t// out\n        /* \"#utility.yul\":2709:2889   */\n    tag_96:\n        /* \"#utility.yul\":2757:2834   */\n      0x4e487b7100000000000000000000000000000000000000000000000000000000\n        /* \"#utility.yul\":2754:2755   */\n      0x00\n        /* \"#utility.yul\":2747:2835   */\n      mstore\n        /* \"#utility.yul\":2854:2858   */\n      0x12\n        /* \"#utility.yul\":2851:2852   */\n      0x04\n        /* \"#utility.yul\":2844:2859   */\n      mstore\n        /* \"#utility.yul\":2878:2882   */\n      0x24\n        /* \"#utility.yul\":2875:2876   */\n      0x00\n        /* \"#utility.yul\":2868:2883   */\n      revert\n        /* \"#utility.yul\":2895:3080   */\n    tag_53:\n        /* \"#utility.yul\":2935:2936   */\n      0x00\n        /* \"#utility.yul\":2952:2972   */\n      tag_132\n        /* \"#utility.yul\":2970:2971   */\n      dup3\n        /* \"#utility.yul\":2952:2972   */\n      tag_89\n      jump\t// in\n    tag_132:\n        /* \"#utility.yul\":2947:2972   */\n      swap2\n      pop\n        /* \"#utility.yul\":2986:3006   */\n      tag_133\n        /* \"#utility.yul\":3004:3005   */\n      dup4\n        /* \"#utility.yul\":2986:3006   */\n      tag_89\n      jump\t// in\n    tag_133:\n        /* \"#utility.yul\":2981:3006   */\n      swap3\n      pop\n        /* \"#utility.yul\":3025:3026   */\n      dup3\n        /* \"#utility.yul\":3015:3050   */\n      tag_134\n      jumpi\n        /* \"#utility.yul\":3030:3048   */\n      tag_135\n      tag_96\n      jump\t// in\n    tag_135:\n        /* \"#utility.yul\":3015:3050   */\n    tag_134:\n        /* \"#utility.yul\":3072:3073   */\n      dup3\n        /* \"#utility.yul\":3069:3070   */\n      dup3\n        /* \"#utility.yul\":3065:3074   */\n      div\n        /* \"#utility.yul\":3060:3074   */\n      swap1\n      pop\n        /* \"#utility.yul\":2895:3080   */\n      swap3\n      swap2\n      pop\n      pop\n      jump\t// out\n        /* \"#utility.yul\":3086:3262   */\n    tag_57:\n        /* \"#utility.yul\":3118:3119   */\n      0x00\n        /* \"#utility.yul\":3135:3155   */\n      tag_137\n        /* \"#utility.yul\":3153:3154   */\n      dup3\n        /* \"#utility.yul\":3135:3155   */\n      tag_89\n      jump\t// in\n    tag_137:\n        /* \"#utility.yul\":3130:3155   */\n      swap2\n      pop\n        /* \"#utility.yul\":3169:3189   */\n      tag_138\n        /* \"#utility.yul\":3187:3188   */\n      dup4\n        /* \"#utility.yul\":3169:3189   */\n      tag_89\n      jump\t// in\n    tag_138:\n        /* \"#utility.yul\":3164:3189   */\n      swap3\n      pop\n        /* \"#utility.yul\":3208:3209   */\n      dup3\n        /* \"#utility.yul\":3198:3233   */\n      tag_139\n      jumpi\n        /* \"#utility.yul\":3213:3231   */\n      tag_140\n      tag_96\n      jump\t// in\n    tag_140:\n        /* \"#utility.yul\":3198:3233   */\n    tag_139:\n        /* \"#utility.yul\":3254:3255   */\n      dup3\n        /* \"#utility.yul\":3251:3252   */\n      dup3\n        /* \"#utility.yul\":3247:3256   */\n      mod\n        /* \"#utility.yul\":3242:3256   */\n      swap1\n      pop\n        /* \"#utility.yul\":3086:3262   */\n      swap3\n      swap2\n      pop\n      pop\n      jump\t// out\n        /* \"#utility.yul\":3268:3678   */\n    tag_62:\n        /* \"#utility.yul\":3308:3315   */\n      0x00\n        /* \"#utility.yul\":3331:3351   */\n      tag_142\n        /* \"#utility.yul\":3349:3350   */\n      dup3\n        /* \"#utility.yul\":3331:3351   */\n      tag_89\n      jump\t// in\n    tag_142:\n        /* \"#utility.yul\":3326:3351   */\n      swap2\n      pop\n        /* \"#utility.yul\":3365:3385   */\n      tag_143\n        /* \"#utility.yul\":3383:3384   */\n      dup4\n        /* \"#utility.yul\":3365:3385   */\n      tag_89\n      jump\t// in\n    tag_143:\n        /* \"#utility.yul\":3360:3385   */\n      swap3\n      pop\n        /* \"#utility.yul\":3420:3421   */\n      dup3\n        /* \"#utility.yul\":3417:3418   */\n      dup3\n        /* \"#utility.yul\":3413:3422   */\n      mul\n        /* \"#utility.yul\":3442:3472   */\n      tag_144\n        /* \"#utility.yul\":3460:3471   */\n      dup2\n        /* \"#utility.yul\":3442:3472   */\n      tag_89\n      jump\t// in\n    tag_144:\n        /* \"#utility.yul\":3431:3472   */\n      swap2\n      pop\n        /* \"#utility.yul\":3621:3622   */\n      dup3\n        /* \"#utility.yul\":3612:3619   */\n      dup3\n        /* \"#utility.yul\":3608:3623   */\n      div\n        /* \"#utility.yul\":3605:3606   */\n      dup5\n        /* \"#utility.yul\":3602:3624   */\n      eq\n        /* \"#utility.yul\":3582:3583   */\n      dup4\n        /* \"#utility.yul\":3575:3584   */\n      iszero\n        /* \"#utility.yul\":3555:3638   */\n      or\n        /* \"#utility.yul\":3532:3671   */\n      tag_145\n      jumpi\n        /* \"#utility.yul\":3651:3669   */\n      tag_146\n      tag_95\n      jump\t// in\n    tag_146:\n        /* \"#utility.yul\":3532:3671   */\n    tag_145:\n        /* \"#utility.yul\":3316:3678   */\n      pop\n        /* \"#utility.yul\":3268:3678   */\n      swap3\n      swap2\n      pop\n      pop\n      jump\t// out\n        /* \"#utility.yul\":3684:3875   */\n    tag_64:\n        /* \"#utility.yul\":3724:3727   */\n      0x00\n        /* \"#utility.yul\":3743:3763   */\n      tag_148\n        /* \"#utility.yul\":3761:3762   */\n      dup3\n        /* \"#utility.yul\":3743:3763   */\n      tag_89\n      jump\t// in\n    tag_148:\n        /* \"#utility.yul\":3738:3763   */\n      swap2\n      pop\n        /* \"#utility.yul\":3777:3797   */\n      tag_149\n        /* \"#utility.yul\":3795:3796   */\n      dup4\n        /* \"#utility.yul\":3777:3797   */\n      tag_89\n      jump\t// in\n    tag_149:\n        /* \"#utility.yul\":3772:3797   */\n      swap3\n      pop\n        /* \"#utility.yul\":3820:3821   */\n      dup3\n        /* \"#utility.yul\":3817:3818   */\n      dup3\n        /* \"#utility.yul\":3813:3822   */\n      add\n        /* \"#utility.yul\":3806:3822   */\n      swap1\n      pop\n        /* \"#utility.yul\":3841:3844   */\n      dup1\n        /* \"#utility.yul\":3838:3839   */\n      dup3\n        /* \"#utility.yul\":3835:3845   */\n      gt\n        /* \"#utility.yul\":3832:3868   */\n      iszero\n      tag_150\n      jumpi\n        /* \"#utility.yul\":3848:3866   */\n      tag_151\n      tag_95\n      jump\t// in\n    tag_151:\n        /* \"#utility.yul\":3832:3868   */\n    tag_150:\n        /* \"#utility.yul\":3684:3875   */\n      swap3\n      swap2\n      pop\n      pop\n      jump\t// out\n\n    auxdata: 0xa2646970667358221220a9b86f3b1d67ffc56a834a1bf39a8db38d85418aeab86ee250bf44312bad855064736f6c634300081a0033\n}\n",
				"bytecode": {
					"linkReferences": {},
					"object": "6080604052348015600e575f80fd5b506105d48061001c5f395ff3fe608060405234801561000f575f80fd5b5060043610610055575f3560e01c806305d09ad714610059578063163b0e51146100895780631abe5974146100b9578063834db421146100e95780638c87bb0a14610119575b5f80fd5b610073600480360381019061006e9190610365565b610149565b60405161008091906103aa565b60405180910390f35b6100a3600480360381019061009e9190610365565b61015a565b6040516100b091906103d2565b60405180910390f35b6100d360048036038101906100ce91906103eb565b61016b565b6040516100e091906103d2565b60405180910390f35b61010360048036038101906100fe91906103eb565b61017e565b60405161011091906103d2565b60405180910390f35b610133600480360381019061012e9190610365565b610191565b60405161014091906103d2565b60405180910390f35b5f610153826101a2565b9050919050565b5f61016482610251565b9050919050565b5f610176838361028f565b905092915050565b5f61018983836102aa565b905092915050565b5f61019b826102c5565b9050919050565b5f808290505f808490505f5b5f8211156101d85780806101c190610456565b915050600a826101d191906104ca565b91506101ae565b8591505b5f821115610243575f600a836101f291906104fa565b90505f600190505f5b8381101561021e57828261020f919061052a565b915080806001019150506101fb565b50808561022b919061056b565b9450600a8461023a91906104ca565b935050506101dc565b838314945050505050919050565b5f80600190505f600190505b838111610285578082610270919061052a565b9150808061027d90610456565b91505061025d565b5080915050919050565b5f818310156102a0578290506102a4565b8190505b92915050565b5f818311156102bb578290506102bf565b8190505b92915050565b5f8082036102d5575f9050610329565b600182036102e65760019050610329565b5f80600190505f80600290505b858111610321578284610306919061056b565b9150829350819250808061031990610456565b9150506102f3565b508193505050505b919050565b5f80fd5b5f819050919050565b61034481610332565b811461034e575f80fd5b50565b5f8135905061035f8161033b565b92915050565b5f6020828403121561037a5761037961032e565b5b5f61038784828501610351565b91505092915050565b5f8115159050919050565b6103a481610390565b82525050565b5f6020820190506103bd5f83018461039b565b92915050565b6103cc81610332565b82525050565b5f6020820190506103e55f8301846103c3565b92915050565b5f80604083850312156104015761040061032e565b5b5f61040e85828601610351565b925050602061041f85828601610351565b9150509250929050565b7f4e487b71000000000000000000000000000000000000000000000000000000005f52601160045260245ffd5b5f61046082610332565b91507fffffffffffffffffffffffffffffffffffffffffffffffffffffffffffffffff820361049257610491610429565b5b600182019050919050565b7f4e487b71000000000000000000000000000000000000000000000000000000005f52601260045260245ffd5b5f6104d482610332565b91506104df83610332565b9250826104ef576104ee61049d565b5b828204905092915050565b5f61050482610332565b915061050f83610332565b92508261051f5761051e61049d565b5b828206905092915050565b5f61053482610332565b915061053f83610332565b925082820261054d81610332565b9150828204841483151761056457610563610429565b5b5092915050565b5f61057582610332565b915061058083610332565b925082820190508082111561059857610597610429565b5b9291505056fea2646970667358221220a9b86f3b1d67ffc56a834a1bf39a8db38d85418aeab86ee250bf44312bad855064736f6c634300081a0033",
					"opcodes": "PUSH1 0x80 PUSH1 0x40 MSTORE CALLVALUE DUP1 ISZERO PUSH1 0xE JUMPI PUSH0 DUP1 REVERT JUMPDEST POP PUSH2 0x5D4 DUP1 PUSH2 0x1C PUSH0 CODECOPY PUSH0 RETURN INVALID PUSH1 0x80 PUSH1 0x40 MSTORE CALLVALUE DUP1 ISZERO PUSH2 0xF JUMPI PUSH0 DUP1 REVERT JUMPDEST POP PUSH1 0x4 CALLDATASIZE LT PUSH2 0x55 JUMPI PUSH0 CALLDATALOAD PUSH1 0xE0 SHR DUP1 PUSH4 0x5D09AD7 EQ PUSH2 0x59 JUMPI DUP1 PUSH4 0x163B0E51 EQ PUSH2 0x89 JUMPI DUP1 PUSH4 0x1ABE5974 EQ PUSH2 0xB9 JUMPI DUP1 PUSH4 0x834DB421 EQ PUSH2 0xE9 JUMPI DUP1 PUSH4 0x8C87BB0A EQ PUSH2 0x119 JUMPI JUMPDEST PUSH0 DUP1 REVERT JUMPDEST PUSH2 0x73 PUSH1 0x4 DUP1 CALLDATASIZE SUB DUP2 ADD SWAP1 PUSH2 0x6E SWAP2 SWAP1 PUSH2 0x365 JUMP JUMPDEST PUSH2 0x149 JUMP JUMPDEST PUSH1 0x40 MLOAD PUSH2 0x80 SWAP2 SWAP1 PUSH2 0x3AA JUMP JUMPDEST PUSH1 0x40 MLOAD DUP1 SWAP2 SUB SWAP1 RETURN JUMPDEST PUSH2 0xA3 PUSH1 0x4 DUP1 CALLDATASIZE SUB DUP2 ADD SWAP1 PUSH2 0x9E SWAP2 SWAP1 PUSH2 0x365 JUMP JUMPDEST PUSH2 0x15A JUMP JUMPDEST PUSH1 0x40 MLOAD PUSH2 0xB0 SWAP2 SWAP1 PUSH2 0x3D2 JUMP JUMPDEST PUSH1 0x40 MLOAD DUP1 SWAP2 SUB SWAP1 RETURN JUMPDEST PUSH2 0xD3 PUSH1 0x4 DUP1 CALLDATASIZE SUB DUP2 ADD SWAP1 PUSH2 0xCE SWAP2 SWAP1 PUSH2 0x3EB JUMP JUMPDEST PUSH2 0x16B JUMP JUMPDEST PUSH1 0x40 MLOAD PUSH2 0xE0 SWAP2 SWAP1 PUSH2 0x3D2 JUMP JUMPDEST PUSH1 0x40 MLOAD DUP1 SWAP2 SUB SWAP1 RETURN JUMPDEST PUSH2 0x103 PUSH1 0x4 DUP1 CALLDATASIZE SUB DUP2 ADD SWAP1 PUSH2 0xFE SWAP2 SWAP1 PUSH2 0x3EB JUMP JUMPDEST PUSH2 0x17E JUMP JUMPDEST PUSH1 0x40 MLOAD PUSH2 0x110 SWAP2 SWAP1 PUSH2 0x3D2 JUMP JUMPDEST PUSH1 0x40 MLOAD DUP1 SWAP2 SUB SWAP1 RETURN JUMPDEST PUSH2 0x133 PUSH1 0x4 DUP1 CALLDATASIZE SUB DUP2 ADD SWAP1 PUSH2 0x12E SWAP2 SWAP1 PUSH2 0x365 JUMP JUMPDEST PUSH2 0x191 JUMP JUMPDEST PUSH1 0x40 MLOAD PUSH2 0x140 SWAP2 SWAP1 PUSH2 0x3D2 JUMP JUMPDEST PUSH1 0x40 MLOAD DUP1 SWAP2 SUB SWAP1 RETURN JUMPDEST PUSH0 PUSH2 0x153 DUP3 PUSH2 0x1A2 JUMP JUMPDEST SWAP1 POP SWAP2 SWAP1 POP JUMP JUMPDEST PUSH0 PUSH2 0x164 DUP3 PUSH2 0x251 JUMP JUMPDEST SWAP1 POP SWAP2 SWAP1 POP JUMP JUMPDEST PUSH0 PUSH2 0x176 DUP4 DUP4 PUSH2 0x28F JUMP JUMPDEST SWAP1 POP SWAP3 SWAP2 POP POP JUMP JUMPDEST PUSH0 PUSH2 0x189 DUP4 DUP4 PUSH2 0x2AA JUMP JUMPDEST SWAP1 POP SWAP3 SWAP2 POP POP JUMP JUMPDEST PUSH0 PUSH2 0x19B DUP3 PUSH2 0x2C5 JUMP JUMPDEST SWAP1 POP SWAP2 SWAP1 POP JUMP JUMPDEST PUSH0 DUP1 DUP3 SWAP1 POP PUSH0 DUP1 DUP5 SWAP1 POP PUSH0 JUMPDEST PUSH0 DUP3 GT ISZERO PUSH2 0x1D8 JUMPI DUP1 DUP1 PUSH2 0x1C1 SWAP1 PUSH2 0x456 JUMP JUMPDEST SWAP2 POP POP PUSH1 0xA DUP3 PUSH2 0x1D1 SWAP2 SWAP1 PUSH2 0x4CA JUMP JUMPDEST SWAP2 POP PUSH2 0x1AE JUMP JUMPDEST DUP6 SWAP2 POP JUMPDEST PUSH0 DUP3 GT ISZERO PUSH2 0x243 JUMPI PUSH0 PUSH1 0xA DUP4 PUSH2 0x1F2 SWAP2 SWAP1 PUSH2 0x4FA JUMP JUMPDEST SWAP1 POP PUSH0 PUSH1 0x1 SWAP1 POP PUSH0 JUMPDEST DUP4 DUP2 LT ISZERO PUSH2 0x21E JUMPI DUP3 DUP3 PUSH2 0x20F SWAP2 SWAP1 PUSH2 0x52A JUMP JUMPDEST SWAP2 POP DUP1 DUP1 PUSH1 0x1 ADD SWAP2 POP POP PUSH2 0x1FB JUMP JUMPDEST POP DUP1 DUP6 PUSH2 0x22B SWAP2 SWAP1 PUSH2 0x56B JUMP JUMPDEST SWAP5 POP PUSH1 0xA DUP5 PUSH2 0x23A SWAP2 SWAP1 PUSH2 0x4CA JUMP JUMPDEST SWAP4 POP POP POP PUSH2 0x1DC JUMP JUMPDEST DUP4 DUP4 EQ SWAP5 POP POP POP POP POP SWAP2 SWAP1 POP JUMP JUMPDEST PUSH0 DUP1 PUSH1 0x1 SWAP1 POP PUSH0 PUSH1 0x1 SWAP1 POP JUMPDEST DUP4 DUP2 GT PUSH2 0x285 JUMPI DUP1 DUP3 PUSH2 0x270 SWAP2 SWAP1 PUSH2 0x52A JUMP JUMPDEST SWAP2 POP DUP1 DUP1 PUSH2 0x27D SWAP1 PUSH2 0x456 JUMP JUMPDEST SWAP2 POP POP PUSH2 0x25D JUMP JUMPDEST POP DUP1 SWAP2 POP POP SWAP2 SWAP1 POP JUMP JUMPDEST PUSH0 DUP2 DUP4 LT ISZERO PUSH2 0x2A0 JUMPI DUP3 SWAP1 POP PUSH2 0x2A4 JUMP JUMPDEST DUP2 SWAP1 POP JUMPDEST SWAP3 SWAP2 POP POP JUMP JUMPDEST PUSH0 DUP2 DUP4 GT ISZERO PUSH2 0x2BB JUMPI DUP3 SWAP1 POP PUSH2 0x2BF JUMP JUMPDEST DUP2 SWAP1 POP JUMPDEST SWAP3 SWAP2 POP POP JUMP JUMPDEST PUSH0 DUP1 DUP3 SUB PUSH2 0x2D5 JUMPI PUSH0 SWAP1 POP PUSH2 0x329 JUMP JUMPDEST PUSH1 0x1 DUP3 SUB PUSH2 0x2E6 JUMPI PUSH1 0x1 SWAP1 POP PUSH2 0x329 JUMP JUMPDEST PUSH0 DUP1 PUSH1 0x1 SWAP1 POP PUSH0 DUP1 PUSH1 0x2 SWAP1 POP JUMPDEST DUP6 DUP2 GT PUSH2 0x321 JUMPI DUP3 DUP5 PUSH2 0x306 SWAP2 SWAP1 PUSH2 0x56B JUMP JUMPDEST SWAP2 POP DUP3 SWAP4 POP DUP2 SWAP3 POP DUP1 DUP1 PUSH2 0x319 SWAP1 PUSH2 0x456 JUMP JUMPDEST SWAP2 POP POP PUSH2 0x2F3 JUMP JUMPDEST POP DUP2 SWAP4 POP POP POP POP JUMPDEST SWAP2 SWAP1 POP JUMP JUMPDEST PUSH0 DUP1 REVERT JUMPDEST PUSH0 DUP2 SWAP1 POP SWAP2 SWAP1 POP JUMP JUMPDEST PUSH2 0x344 DUP2 PUSH2 0x332 JUMP JUMPDEST DUP2 EQ PUSH2 0x34E JUMPI PUSH0 DUP1 REVERT JUMPDEST POP JUMP JUMPDEST PUSH0 DUP2 CALLDATALOAD SWAP1 POP PUSH2 0x35F DUP2 PUSH2 0x33B JUMP JUMPDEST SWAP3 SWAP2 POP POP JUMP JUMPDEST PUSH0 PUSH1 0x20 DUP3 DUP5 SUB SLT ISZERO PUSH2 0x37A JUMPI PUSH2 0x379 PUSH2 0x32E JUMP JUMPDEST JUMPDEST PUSH0 PUSH2 0x387 DUP5 DUP3 DUP6 ADD PUSH2 0x351 JUMP JUMPDEST SWAP2 POP POP SWAP3 SWAP2 POP POP JUMP JUMPDEST PUSH0 DUP2 ISZERO ISZERO SWAP1 POP SWAP2 SWAP1 POP JUMP JUMPDEST PUSH2 0x3A4 DUP2 PUSH2 0x390 JUMP JUMPDEST DUP3 MSTORE POP POP JUMP JUMPDEST PUSH0 PUSH1 0x20 DUP3 ADD SWAP1 POP PUSH2 0x3BD PUSH0 DUP4 ADD DUP5 PUSH2 0x39B JUMP JUMPDEST SWAP3 SWAP2 POP POP JUMP JUMPDEST PUSH2 0x3CC DUP2 PUSH2 0x332 JUMP JUMPDEST DUP3 MSTORE POP POP JUMP JUMPDEST PUSH0 PUSH1 0x20 DUP3 ADD SWAP1 POP PUSH2 0x3E5 PUSH0 DUP4 ADD DUP5 PUSH2 0x3C3 JUMP JUMPDEST SWAP3 SWAP2 POP POP JUMP JUMPDEST PUSH0 DUP1 PUSH1 0x40 DUP4 DUP6 SUB SLT ISZERO PUSH2 0x401 JUMPI PUSH2 0x400 PUSH2 0x32E JUMP JUMPDEST JUMPDEST PUSH0 PUSH2 0x40E DUP6 DUP3 DUP7 ADD PUSH2 0x351 JUMP JUMPDEST SWAP3 POP POP PUSH1 0x20 PUSH2 0x41F DUP6 DUP3 DUP7 ADD PUSH2 0x351 JUMP JUMPDEST SWAP2 POP POP SWAP3 POP SWAP3 SWAP1 POP JUMP JUMPDEST PUSH32 0x4E487B7100000000000000000000000000000000000000000000000000000000 PUSH0 MSTORE PUSH1 0x11 PUSH1 0x4 MSTORE PUSH1 0x24 PUSH0 REVERT JUMPDEST PUSH0 PUSH2 0x460 DUP3 PUSH2 0x332 JUMP JUMPDEST SWAP2 POP PUSH32 0xFFFFFFFFFFFFFFFFFFFFFFFFFFFFFFFFFFFFFFFFFFFFFFFFFFFFFFFFFFFFFFFF DUP3 SUB PUSH2 0x492 JUMPI PUSH2 0x491 PUSH2 0x429 JUMP JUMPDEST JUMPDEST PUSH1 0x1 DUP3 ADD SWAP1 POP SWAP2 SWAP1 POP JUMP JUMPDEST PUSH32 0x4E487B7100000000000000000000000000000000000000000000000000000000 PUSH0 MSTORE PUSH1 0x12 PUSH1 0x4 MSTORE PUSH1 0x24 PUSH0 REVERT JUMPDEST PUSH0 PUSH2 0x4D4 DUP3 PUSH2 0x332 JUMP JUMPDEST SWAP2 POP PUSH2 0x4DF DUP4 PUSH2 0x332 JUMP JUMPDEST SWAP3 POP DUP3 PUSH2 0x4EF JUMPI PUSH2 0x4EE PUSH2 0x49D JUMP JUMPDEST JUMPDEST DUP3 DUP3 DIV SWAP1 POP SWAP3 SWAP2 POP POP JUMP JUMPDEST PUSH0 PUSH2 0x504 DUP3 PUSH2 0x332 JUMP JUMPDEST SWAP2 POP PUSH2 0x50F DUP4 PUSH2 0x332 JUMP JUMPDEST SWAP3 POP DUP3 PUSH2 0x51F JUMPI PUSH2 0x51E PUSH2 0x49D JUMP JUMPDEST JUMPDEST DUP3 DUP3 MOD SWAP1 POP SWAP3 SWAP2 POP POP JUMP JUMPDEST PUSH0 PUSH2 0x534 DUP3 PUSH2 0x332 JUMP JUMPDEST SWAP2 POP PUSH2 0x53F DUP4 PUSH2 0x332 JUMP JUMPDEST SWAP3 POP DUP3 DUP3 MUL PUSH2 0x54D DUP2 PUSH2 0x332 JUMP JUMPDEST SWAP2 POP DUP3 DUP3 DIV DUP5 EQ DUP4 ISZERO OR PUSH2 0x564 JUMPI PUSH2 0x563 PUSH2 0x429 JUMP JUMPDEST JUMPDEST POP SWAP3 SWAP2 POP POP JUMP JUMPDEST PUSH0 PUSH2 0x575 DUP3 PUSH2 0x332 JUMP JUMPDEST SWAP2 POP PUSH2 0x580 DUP4 PUSH2 0x332 JUMP JUMPDEST SWAP3 POP DUP3 DUP3 ADD SWAP1 POP DUP1 DUP3 GT ISZERO PUSH2 0x598 JUMPI PUSH2 0x597 PUSH2 0x429 JUMP JUMPDEST JUMPDEST SWAP3 SWAP2 POP POP JUMP INVALID LOG2 PUSH5 0x6970667358 0x22 SLT KECCAK256 0xA9 0xB8 PUSH16 0x3B1D67FFC56A834A1BF39A8DB38D8541 DUP11 0xEA 0xB8 PUSH15 0xE250BF44312BAD855064736F6C6343 STOP ADDMOD BYTE STOP CALLER "
				},
				"gasEstimates": {
					"creation": {
						"codeDepositCost": "298400",
						"executionCost": "335",
						"totalCost": "298735"
					},
					"external": {
						"testFactorial(uint256)": "infinite",
						"testFibonacci(uint256)": "infinite",
						"testIsArmstrong(uint256)": "infinite",
						"testMax(uint256,uint256)": "infinite",
						"testMin(uint256,uint256)": "infinite"
					}
				},
				"methodIdentifiers": {
					"testFactorial(uint256)": "163b0e51",
					"testFibonacci(uint256)": "8c87bb0a",
					"testIsArmstrong(uint256)": "05d09ad7",
					"testMax(uint256,uint256)": "834db421",
					"testMin(uint256,uint256)": "1abe5974"
				}
			},
			"storageLayout": {
				"storage": [],
				"types": null
			},
			"userdoc": {
				"kind": "user",
				"methods": {
					"testFactorial(uint256)": {
						"notice": "Calculates the factorial of a number"
					},
					"testFibonacci(uint256)": {
						"notice": "Generates the nth Fibonacci number"
					},
					"testIsArmstrong(uint256)": {
						"notice": "Checks if a number is an Armstrong number"
					},
					"testMax(uint256,uint256)": {
						"notice": "Finds the maximum of two numbers"
					},
					"testMin(uint256,uint256)": {
						"notice": "Finds the minimum of two numbers"
					}
				},
				"version": 1
			}
		}
	}
}