{
	"data": {
		"bytecode": {
			"linkReferences": {},
			"object": "6080604052348015600e575f80fd5b506109308061001c5f395ff3fe608060405234801561000f575f80fd5b506004361061007b575f3560e01c80636c9f32e7116100595780636c9f32e71461010f57806388400b561461013f578063dddd847f1461016f578063f7f231131461019f5761007b565b8063088897901461007f5780630de4eb16146100af57806347037c90146100df575b5f80fd5b61009960048036038101906100949190610432565b6101cf565b6040516100a6919061047f565b60405180910390f35b6100c960048036038101906100c491906104cb565b6101e2565b6040516100d69190610505565b60405180910390f35b6100f960048036038101906100f49190610432565b6101f3565b604051610106919061047f565b60405180910390f35b61012960048036038101906101249190610432565b610206565b604051610136919061047f565b60405180910390f35b61015960048036038101906101549190610432565b610219565b604051610166919061047f565b60405180910390f35b6101896004803603810190610184919061051e565b61022c565b6040516101969190610505565b60405180910390f35b6101b960048036038101906101b4919061055c565b61023f565b6040516101c6919061047f565b60405180910390f35b5f6101da8383610250565b905092915050565b5f6101ec82610265565b9050919050565b5f6101fe83836102e2565b905092915050565b5f61021183836102f7565b905092915050565b5f610224838361034e565b905092915050565b5f61023783836103a5565b905092915050565b5f610249826103db565b9050919050565b5f818361025d91906105b4565b905092915050565b5f808214806102745750600182145b15610281578190506102dd565b5f6002600184610291919061062a565b61029b919061068a565b90505f8390505b808210156102d75781905060028283866102bc919061068a565b6102c6919061062a565b6102d0919061068a565b91506102a2565b80925050505b919050565b5f81836102ef91906106ba565b905092915050565b5f80820361033a576040517f08c379a000000000000000000000000000000000000000000000000000000000815260040161033190610755565b60405180910390fd5b81836103469190610773565b905092915050565b5f808203610391576040517f08c379a0000000000000000000000000000000000000000000000000000000008152600401610388906107ed565b60405180910390fd5b818361039d919061080b565b905092915050565b5f80600190505f5b838110156103d05784826103c19190610873565b915080806001019150506103ad565b508091505092915050565b5f8082126103e957816103f4565b816103f3906108b4565b5b9050919050565b5f80fd5b5f819050919050565b610411816103ff565b811461041b575f80fd5b50565b5f8135905061042c81610408565b92915050565b5f8060408385031215610448576104476103fb565b5b5f6104558582860161041e565b92505060206104668582860161041e565b9150509250929050565b610479816103ff565b82525050565b5f6020820190506104925f830184610470565b92915050565b5f819050919050565b6104aa81610498565b81146104b4575f80fd5b50565b5f813590506104c5816104a1565b92915050565b5f602082840312156104e0576104df6103fb565b5b5f6104ed848285016104b7565b91505092915050565b6104ff81610498565b82525050565b5f6020820190506105185f8301846104f6565b92915050565b5f8060408385031215610534576105336103fb565b5b5f610541858286016104b7565b9250506020610552858286016104b7565b9150509250929050565b5f60208284031215610571576105706103fb565b5b5f61057e8482850161041e565b91505092915050565b7f4e487b71000000000000000000000000000000000000000000000000000000005f52601160045260245ffd5b5f6105be826103ff565b91506105c9836103ff565b92508282026105d7816103ff565b91507f800000000000000000000000000000000000000000000000000000000000000084145f8412161561060e5761060d610587565b5b828205841483151761062357610622610587565b5b5092915050565b5f61063482610498565b915061063f83610498565b925082820190508082111561065757610656610587565b5b92915050565b7f4e487b71000000000000000000000000000000000000000000000000000000005f52601260045260245ffd5b5f61069482610498565b915061069f83610498565b9250826106af576106ae61065d565b5b828204905092915050565b5f6106c4826103ff565b91506106cf836103ff565b92508282019050828112155f8312168382125f8412151617156106f5576106f4610587565b5b92915050565b5f82825260208201905092915050565b7f43616e6e6f742066696e64206d6f64756c6f2077697468207a65726f000000005f82015250565b5f61073f601c836106fb565b915061074a8261070b565b602082019050919050565b5f6020820190508181035f83015261076c81610733565b9050919050565b5f61077d826103ff565b9150610788836103ff565b9250826107985761079761065d565b5b828207905092915050565b7f43616e6e6f7420646976696465206279207a65726f00000000000000000000005f82015250565b5f6107d76015836106fb565b91506107e2826107a3565b602082019050919050565b5f6020820190508181035f830152610804816107cb565b9050919050565b5f610815826103ff565b9150610820836103ff565b9250826108305761082f61065d565b5b60015f0383147f80000000000000000000000000000000000000000000000000000000000000008314161561086857610867610587565b5b828205905092915050565b5f61087d82610498565b915061088883610498565b925082820261089681610498565b915082820484148315176108ad576108ac610587565b5b5092915050565b5f6108be826103ff565b91507f800000000000000000000000000000000000000000000000000000000000000082036108f0576108ef610587565b5b815f03905091905056fea2646970667358221220429f34bb2e7943eb4e4e9cce32396e21364566fc664520dbe14fb37ffabbddb764736f6c634300081a0033",
			"opcodes": "PUSH1 0x80 PUSH1 0x40 MSTORE CALLVALUE DUP1 ISZERO PUSH1 0xE JUMPI PUSH0 DUP1 REVERT JUMPDEST POP PUSH2 0x930 DUP1 PUSH2 0x1C PUSH0 CODECOPY PUSH0 RETURN INVALID PUSH1 0x80 PUSH1 0x40 MSTORE CALLVALUE DUP1 ISZERO PUSH2 0xF JUMPI PUSH0 DUP1 REVERT JUMPDEST POP PUSH1 0x4 CALLDATASIZE LT PUSH2 0x7B JUMPI PUSH0 CALLDATALOAD PUSH1 0xE0 SHR DUP1 PUSH4 0x6C9F32E7 GT PUSH2 0x59 JUMPI DUP1 PUSH4 0x6C9F32E7 EQ PUSH2 0x10F JUMPI DUP1 PUSH4 0x88400B56 EQ PUSH2 0x13F JUMPI DUP1 PUSH4 0xDDDD847F EQ PUSH2 0x16F JUMPI DUP1 PUSH4 0xF7F23113 EQ PUSH2 0x19F JUMPI PUSH2 0x7B JUMP JUMPDEST DUP1 PUSH4 0x8889790 EQ PUSH2 0x7F JUMPI DUP1 PUSH4 0xDE4EB16 EQ PUSH2 0xAF JUMPI DUP1 PUSH4 0x47037C90 EQ PUSH2 0xDF JUMPI JUMPDEST PUSH0 DUP1 REVERT JUMPDEST PUSH2 0x99 PUSH1 0x4 DUP1 CALLDATASIZE SUB DUP2 ADD SWAP1 PUSH2 0x94 SWAP2 SWAP1 PUSH2 0x432 JUMP JUMPDEST PUSH2 0x1CF JUMP JUMPDEST PUSH1 0x40 MLOAD PUSH2 0xA6 SWAP2 SWAP1 PUSH2 0x47F JUMP JUMPDEST PUSH1 0x40 MLOAD DUP1 SWAP2 SUB SWAP1 RETURN JUMPDEST PUSH2 0xC9 PUSH1 0x4 DUP1 CALLDATASIZE SUB DUP2 ADD SWAP1 PUSH2 0xC4 SWAP2 SWAP1 PUSH2 0x4CB JUMP JUMPDEST PUSH2 0x1E2 JUMP JUMPDEST PUSH1 0x40 MLOAD PUSH2 0xD6 SWAP2 SWAP1 PUSH2 0x505 JUMP JUMPDEST PUSH1 0x40 MLOAD DUP1 SWAP2 SUB SWAP1 RETURN JUMPDEST PUSH2 0xF9 PUSH1 0x4 DUP1 CALLDATASIZE SUB DUP2 ADD SWAP1 PUSH2 0xF4 SWAP2 SWAP1 PUSH2 0x432 JUMP JUMPDEST PUSH2 0x1F3 JUMP JUMPDEST PUSH1 0x40 MLOAD PUSH2 0x106 SWAP2 SWAP1 PUSH2 0x47F JUMP JUMPDEST PUSH1 0x40 MLOAD DUP1 SWAP2 SUB SWAP1 RETURN JUMPDEST PUSH2 0x129 PUSH1 0x4 DUP1 CALLDATASIZE SUB DUP2 ADD SWAP1 PUSH2 0x124 SWAP2 SWAP1 PUSH2 0x432 JUMP JUMPDEST PUSH2 0x206 JUMP JUMPDEST PUSH1 0x40 MLOAD PUSH2 0x136 SWAP2 SWAP1 PUSH2 0x47F JUMP JUMPDEST PUSH1 0x40 MLOAD DUP1 SWAP2 SUB SWAP1 RETURN JUMPDEST PUSH2 0x159 PUSH1 0x4 DUP1 CALLDATASIZE SUB DUP2 ADD SWAP1 PUSH2 0x154 SWAP2 SWAP1 PUSH2 0x432 JUMP JUMPDEST PUSH2 0x219 JUMP JUMPDEST PUSH1 0x40 MLOAD PUSH2 0x166 SWAP2 SWAP1 PUSH2 0x47F JUMP JUMPDEST PUSH1 0x40 MLOAD DUP1 SWAP2 SUB SWAP1 RETURN JUMPDEST PUSH2 0x189 PUSH1 0x4 DUP1 CALLDATASIZE SUB DUP2 ADD SWAP1 PUSH2 0x184 SWAP2 SWAP1 PUSH2 0x51E JUMP JUMPDEST PUSH2 0x22C JUMP JUMPDEST PUSH1 0x40 MLOAD PUSH2 0x196 SWAP2 SWAP1 PUSH2 0x505 JUMP JUMPDEST PUSH1 0x40 MLOAD DUP1 SWAP2 SUB SWAP1 RETURN JUMPDEST PUSH2 0x1B9 PUSH1 0x4 DUP1 CALLDATASIZE SUB DUP2 ADD SWAP1 PUSH2 0x1B4 SWAP2 SWAP1 PUSH2 0x55C JUMP JUMPDEST PUSH2 0x23F JUMP JUMPDEST PUSH1 0x40 MLOAD PUSH2 0x1C6 SWAP2 SWAP1 PUSH2 0x47F JUMP JUMPDEST PUSH1 0x40 MLOAD DUP1 SWAP2 SUB SWAP1 RETURN JUMPDEST PUSH0 PUSH2 0x1DA DUP4 DUP4 PUSH2 0x250 JUMP JUMPDEST SWAP1 POP SWAP3 SWAP2 POP POP JUMP JUMPDEST PUSH0 PUSH2 0x1EC DUP3 PUSH2 0x265 JUMP JUMPDEST SWAP1 POP SWAP2 SWAP1 POP JUMP JUMPDEST PUSH0 PUSH2 0x1FE DUP4 DUP4 PUSH2 0x2E2 JUMP JUMPDEST SWAP1 POP SWAP3 SWAP2 POP POP JUMP JUMPDEST PUSH0 PUSH2 0x211 DUP4 DUP4 PUSH2 0x2F7 JUMP JUMPDEST SWAP1 POP SWAP3 SWAP2 POP POP JUMP JUMPDEST PUSH0 PUSH2 0x224 DUP4 DUP4 PUSH2 0x34E JUMP JUMPDEST SWAP1 POP SWAP3 SWAP2 POP POP JUMP JUMPDEST PUSH0 PUSH2 0x237 DUP4 DUP4 PUSH2 0x3A5 JUMP JUMPDEST SWAP1 POP SWAP3 SWAP2 POP POP JUMP JUMPDEST PUSH0 PUSH2 0x249 DUP3 PUSH2 0x3DB JUMP JUMPDEST SWAP1 POP SWAP2 SWAP1 POP JUMP JUMPDEST PUSH0 DUP2 DUP4 PUSH2 0x25D SWAP2 SWAP1 PUSH2 0x5B4 JUMP JUMPDEST SWAP1 POP SWAP3 SWAP2 POP POP JUMP JUMPDEST PUSH0 DUP1 DUP3 EQ DUP1 PUSH2 0x274 JUMPI POP PUSH1 0x1 DUP3 EQ JUMPDEST ISZERO PUSH2 0x281 JUMPI DUP2 SWAP1 POP PUSH2 0x2DD JUMP JUMPDEST PUSH0 PUSH1 0x2 PUSH1 0x1 DUP5 PUSH2 0x291 SWAP2 SWAP1 PUSH2 0x62A JUMP JUMPDEST PUSH2 0x29B SWAP2 SWAP1 PUSH2 0x68A JUMP JUMPDEST SWAP1 POP PUSH0 DUP4 SWAP1 POP JUMPDEST DUP1 DUP3 LT ISZERO PUSH2 0x2D7 JUMPI DUP2 SWAP1 POP PUSH1 0x2 DUP3 DUP4 DUP7 PUSH2 0x2BC SWAP2 SWAP1 PUSH2 0x68A JUMP JUMPDEST PUSH2 0x2C6 SWAP2 SWAP1 PUSH2 0x62A JUMP JUMPDEST PUSH2 0x2D0 SWAP2 SWAP1 PUSH2 0x68A JUMP JUMPDEST SWAP2 POP PUSH2 0x2A2 JUMP JUMPDEST DUP1 SWAP3 POP POP POP JUMPDEST SWAP2 SWAP1 POP JUMP JUMPDEST PUSH0 DUP2 DUP4 PUSH2 0x2EF SWAP2 SWAP1 PUSH2 0x6BA JUMP JUMPDEST SWAP1 POP SWAP3 SWAP2 POP POP JUMP JUMPDEST PUSH0 DUP1 DUP3 SUB PUSH2 0x33A JUMPI PUSH1 0x40 MLOAD PUSH32 0x8C379A000000000000000000000000000000000000000000000000000000000 DUP2 MSTORE PUSH1 0x4 ADD PUSH2 0x331 SWAP1 PUSH2 0x755 JUMP JUMPDEST PUSH1 0x40 MLOAD DUP1 SWAP2 SUB SWAP1 REVERT JUMPDEST DUP2 DUP4 PUSH2 0x346 SWAP2 SWAP1 PUSH2 0x773 JUMP JUMPDEST SWAP1 POP SWAP3 SWAP2 POP POP JUMP JUMPDEST PUSH0 DUP1 DUP3 SUB PUSH2 0x391 JUMPI PUSH1 0x40 MLOAD PUSH32 0x8C379A000000000000000000000000000000000000000000000000000000000 DUP2 MSTORE PUSH1 0x4 ADD PUSH2 0x388 SWAP1 PUSH2 0x7ED JUMP JUMPDEST PUSH1 0x40 MLOAD DUP1 SWAP2 SUB SWAP1 REVERT JUMPDEST DUP2 DUP4 PUSH2 0x39D SWAP2 SWAP1 PUSH2 0x80B JUMP JUMPDEST SWAP1 POP SWAP3 SWAP2 POP POP JUMP JUMPDEST PUSH0 DUP1 PUSH1 0x1 SWAP1 POP PUSH0 JUMPDEST DUP4 DUP2 LT ISZERO PUSH2 0x3D0 JUMPI DUP5 DUP3 PUSH2 0x3C1 SWAP2 SWAP1 PUSH2 0x873 JUMP JUMPDEST SWAP2 POP DUP1 DUP1 PUSH1 0x1 ADD SWAP2 POP POP PUSH2 0x3AD JUMP JUMPDEST POP DUP1 SWAP2 POP POP SWAP3 SWAP2 POP POP JUMP JUMPDEST PUSH0 DUP1 DUP3 SLT PUSH2 0x3E9 JUMPI DUP2 PUSH2 0x3F4 JUMP JUMPDEST DUP2 PUSH2 0x3F3 SWAP1 PUSH2 0x8B4 JUMP JUMPDEST JUMPDEST SWAP1 POP SWAP2 SWAP1 POP JUMP JUMPDEST PUSH0 DUP1 REVERT JUMPDEST PUSH0 DUP2 SWAP1 POP SWAP2 SWAP1 POP JUMP JUMPDEST PUSH2 0x411 DUP2 PUSH2 0x3FF JUMP JUMPDEST DUP2 EQ PUSH2 0x41B JUMPI PUSH0 DUP1 REVERT JUMPDEST POP JUMP JUMPDEST PUSH0 DUP2 CALLDATALOAD SWAP1 POP PUSH2 0x42C DUP2 PUSH2 0x408 JUMP JUMPDEST SWAP3 SWAP2 POP POP JUMP JUMPDEST PUSH0 DUP1 PUSH1 0x40 DUP4 DUP6 SUB SLT ISZERO PUSH2 0x448 JUMPI PUSH2 0x447 PUSH2 0x3FB JUMP JUMPDEST JUMPDEST PUSH0 PUSH2 0x455 DUP6 DUP3 DUP7 ADD PUSH2 0x41E JUMP JUMPDEST SWAP3 POP POP PUSH1 0x20 PUSH2 0x466 DUP6 DUP3 DUP7 ADD PUSH2 0x41E JUMP JUMPDEST SWAP2 POP POP SWAP3 POP SWAP3 SWAP1 POP JUMP JUMPDEST PUSH2 0x479 DUP2 PUSH2 0x3FF JUMP JUMPDEST DUP3 MSTORE POP POP JUMP JUMPDEST PUSH0 PUSH1 0x20 DUP3 ADD SWAP1 POP PUSH2 0x492 PUSH0 DUP4 ADD DUP5 PUSH2 0x470 JUMP JUMPDEST SWAP3 SWAP2 POP POP JUMP JUMPDEST PUSH0 DUP2 SWAP1 POP SWAP2 SWAP1 POP JUMP JUMPDEST PUSH2 0x4AA DUP2 PUSH2 0x498 JUMP JUMPDEST DUP2 EQ PUSH2 0x4B4 JUMPI PUSH0 DUP1 REVERT JUMPDEST POP JUMP JUMPDEST PUSH0 DUP2 CALLDATALOAD SWAP1 POP PUSH2 0x4C5 DUP2 PUSH2 0x4A1 JUMP JUMPDEST SWAP3 SWAP2 POP POP JUMP JUMPDEST PUSH0 PUSH1 0x20 DUP3 DUP5 SUB SLT ISZERO PUSH2 0x4E0 JUMPI PUSH2 0x4DF PUSH2 0x3FB JUMP JUMPDEST JUMPDEST PUSH0 PUSH2 0x4ED DUP5 DUP3 DUP6 ADD PUSH2 0x4B7 JUMP JUMPDEST SWAP2 POP POP SWAP3 SWAP2 POP POP JUMP JUMPDEST PUSH2 0x4FF DUP2 PUSH2 0x498 JUMP JUMPDEST DUP3 MSTORE POP POP JUMP JUMPDEST PUSH0 PUSH1 0x20 DUP3 ADD SWAP1 POP PUSH2 0x518 PUSH0 DUP4 ADD DUP5 PUSH2 0x4F6 JUMP JUMPDEST SWAP3 SWAP2 POP POP JUMP JUMPDEST PUSH0 DUP1 PUSH1 0x40 DUP4 DUP6 SUB SLT ISZERO PUSH2 0x534 JUMPI PUSH2 0x533 PUSH2 0x3FB JUMP JUMPDEST JUMPDEST PUSH0 PUSH2 0x541 DUP6 DUP3 DUP7 ADD PUSH2 0x4B7 JUMP JUMPDEST SWAP3 POP POP PUSH1 0x20 PUSH2 0x552 DUP6 DUP3 DUP7 ADD PUSH2 0x4B7 JUMP JUMPDEST SWAP2 POP POP SWAP3 POP SWAP3 SWAP1 POP JUMP JUMPDEST PUSH0 PUSH1 0x20 DUP3 DUP5 SUB SLT ISZERO PUSH2 0x571 JUMPI PUSH2 0x570 PUSH2 0x3FB JUMP JUMPDEST JUMPDEST PUSH0 PUSH2 0x57E DUP5 DUP3 DUP6 ADD PUSH2 0x41E JUMP JUMPDEST SWAP2 POP POP SWAP3 SWAP2 POP POP JUMP JUMPDEST PUSH32 0x4E487B7100000000000000000000000000000000000000000000000000000000 PUSH0 MSTORE PUSH1 0x11 PUSH1 0x4 MSTORE PUSH1 0x24 PUSH0 REVERT JUMPDEST PUSH0 PUSH2 0x5BE DUP3 PUSH2 0x3FF JUMP JUMPDEST SWAP2 POP PUSH2 0x5C9 DUP4 PUSH2 0x3FF JUMP JUMPDEST SWAP3 POP DUP3 DUP3 MUL PUSH2 0x5D7 DUP2 PUSH2 0x3FF JUMP JUMPDEST SWAP2 POP PUSH32 0x8000000000000000000000000000000000000000000000000000000000000000 DUP5 EQ PUSH0 DUP5 SLT AND ISZERO PUSH2 0x60E JUMPI PUSH2 0x60D PUSH2 0x587 JUMP JUMPDEST JUMPDEST DUP3 DUP3 SDIV DUP5 EQ DUP4 ISZERO OR PUSH2 0x623 JUMPI PUSH2 0x622 PUSH2 0x587 JUMP JUMPDEST JUMPDEST POP SWAP3 SWAP2 POP POP JUMP JUMPDEST PUSH0 PUSH2 0x634 DUP3 PUSH2 0x498 JUMP JUMPDEST SWAP2 POP PUSH2 0x63F DUP4 PUSH2 0x498 JUMP JUMPDEST SWAP3 POP DUP3 DUP3 ADD SWAP1 POP DUP1 DUP3 GT ISZERO PUSH2 0x657 JUMPI PUSH2 0x656 PUSH2 0x587 JUMP JUMPDEST JUMPDEST SWAP3 SWAP2 POP POP JUMP JUMPDEST PUSH32 0x4E487B7100000000000000000000000000000000000000000000000000000000 PUSH0 MSTORE PUSH1 0x12 PUSH1 0x4 MSTORE PUSH1 0x24 PUSH0 REVERT JUMPDEST PUSH0 PUSH2 0x694 DUP3 PUSH2 0x498 JUMP JUMPDEST SWAP2 POP PUSH2 0x69F DUP4 PUSH2 0x498 JUMP JUMPDEST SWAP3 POP DUP3 PUSH2 0x6AF JUMPI PUSH2 0x6AE PUSH2 0x65D JUMP JUMPDEST JUMPDEST DUP3 DUP3 DIV SWAP1 POP SWAP3 SWAP2 POP POP JUMP JUMPDEST PUSH0 PUSH2 0x6C4 DUP3 PUSH2 0x3FF JUMP JUMPDEST SWAP2 POP PUSH2 0x6CF DUP4 PUSH2 0x3FF JUMP JUMPDEST SWAP3 POP DUP3 DUP3 ADD SWAP1 POP DUP3 DUP2 SLT ISZERO PUSH0 DUP4 SLT AND DUP4 DUP3 SLT PUSH0 DUP5 SLT ISZERO AND OR ISZERO PUSH2 0x6F5 JUMPI PUSH2 0x6F4 PUSH2 0x587 JUMP JUMPDEST JUMPDEST SWAP3 SWAP2 POP POP JUMP JUMPDEST PUSH0 DUP3 DUP3 MSTORE PUSH1 0x20 DUP3 ADD SWAP1 POP SWAP3 SWAP2 POP POP JUMP JUMPDEST PUSH32 0x43616E6E6F742066696E64206D6F64756C6F2077697468207A65726F00000000 PUSH0 DUP3 ADD MSTORE POP JUMP JUMPDEST PUSH0 PUSH2 0x73F PUSH1 0x1C DUP4 PUSH2 0x6FB JUMP JUMPDEST SWAP2 POP PUSH2 0x74A DUP3 PUSH2 0x70B JUMP JUMPDEST PUSH1 0x20 DUP3 ADD SWAP1 POP SWAP2 SWAP1 POP JUMP JUMPDEST PUSH0 PUSH1 0x20 DUP3 ADD SWAP1 POP DUP2 DUP2 SUB PUSH0 DUP4 ADD MSTORE PUSH2 0x76C DUP2 PUSH2 0x733 JUMP JUMPDEST SWAP1 POP SWAP2 SWAP1 POP JUMP JUMPDEST PUSH0 PUSH2 0x77D DUP3 PUSH2 0x3FF JUMP JUMPDEST SWAP2 POP PUSH2 0x788 DUP4 PUSH2 0x3FF JUMP JUMPDEST SWAP3 POP DUP3 PUSH2 0x798 JUMPI PUSH2 0x797 PUSH2 0x65D JUMP JUMPDEST JUMPDEST DUP3 DUP3 SMOD SWAP1 POP SWAP3 SWAP2 POP POP JUMP JUMPDEST PUSH32 0x43616E6E6F7420646976696465206279207A65726F0000000000000000000000 PUSH0 DUP3 ADD MSTORE POP JUMP JUMPDEST PUSH0 PUSH2 0x7D7 PUSH1 0x15 DUP4 PUSH2 0x6FB JUMP JUMPDEST SWAP2 POP PUSH2 0x7E2 DUP3 PUSH2 0x7A3 JUMP JUMPDEST PUSH1 0x20 DUP3 ADD SWAP1 POP SWAP2 SWAP1 POP JUMP JUMPDEST PUSH0 PUSH1 0x20 DUP3 ADD SWAP1 POP DUP2 DUP2 SUB PUSH0 DUP4 ADD MSTORE PUSH2 0x804 DUP2 PUSH2 0x7CB JUMP JUMPDEST SWAP1 POP SWAP2 SWAP1 POP JUMP JUMPDEST PUSH0 PUSH2 0x815 DUP3 PUSH2 0x3FF JUMP JUMPDEST SWAP2 POP PUSH2 0x820 DUP4 PUSH2 0x3FF JUMP JUMPDEST SWAP3 POP DUP3 PUSH2 0x830 JUMPI PUSH2 0x82F PUSH2 0x65D JUMP JUMPDEST JUMPDEST PUSH1 0x1 PUSH0 SUB DUP4 EQ PUSH32 0x8000000000000000000000000000000000000000000000000000000000000000 DUP4 EQ AND ISZERO PUSH2 0x868 JUMPI PUSH2 0x867 PUSH2 0x587 JUMP JUMPDEST JUMPDEST DUP3 DUP3 SDIV SWAP1 POP SWAP3 SWAP2 POP POP JUMP JUMPDEST PUSH0 PUSH2 0x87D DUP3 PUSH2 0x498 JUMP JUMPDEST SWAP2 POP PUSH2 0x888 DUP4 PUSH2 0x498 JUMP JUMPDEST SWAP3 POP DUP3 DUP3 MUL PUSH2 0x896 DUP2 PUSH2 0x498 JUMP JUMPDEST SWAP2 POP DUP3 DUP3 DIV DUP5 EQ DUP4 ISZERO OR PUSH2 0x8AD JUMPI PUSH2 0x8AC PUSH2 0x587 JUMP JUMPDEST JUMPDEST POP SWAP3 SWAP2 POP POP JUMP JUMPDEST PUSH0 PUSH2 0x8BE DUP3 PUSH2 0x3FF JUMP JUMPDEST SWAP2 POP PUSH32 0x8000000000000000000000000000000000000000000000000000000000000000 DUP3 SUB PUSH2 0x8F0 JUMPI PUSH2 0x8EF PUSH2 0x587 JUMP JUMPDEST JUMPDEST DUP2 PUSH0 SUB SWAP1 POP SWAP2 SWAP1 POP JUMP INVALID LOG2 PUSH5 0x6970667358 0x22 SLT KECCAK256 TIMESTAMP SWAP16 CALLVALUE 0xBB 0x2E PUSH26 0x43EB4E4E9CCE32396E21364566FC664520DBE14FB37FFABBDDB7 PUSH5 0x736F6C6343 STOP ADDMOD BYTE STOP CALLER "
		},
		"gasEstimates": {
			"creation": {
				"codeDepositCost": "470400",
				"executionCost": "503",
				"totalCost": "470903"
			},
			"external": {
				"testAbsolute(int256)": "infinite",
				"testAdd(int256,int256)": "infinite",
				"testDivide(int256,int256)": "infinite",
				"testModulo(int256,int256)": "infinite",
				"testMultiply(int256,int256)": "infinite",
				"testPower(uint256,uint256)": "infinite",
				"testSqrt(uint256)": "infinite"
			}
		},
		"methodIdentifiers": {
			"testAbsolute(int256)": "f7f23113",
			"testAdd(int256,int256)": "47037c90",
			"testDivide(int256,int256)": "88400b56",
			"testModulo(int256,int256)": "6c9f32e7",
			"testMultiply(int256,int256)": "08889790",
			"testPower(uint256,uint256)": "dddd847f",
			"testSqrt(uint256)": "0de4eb16"
		}
	},
	"abi": [
		{
			"inputs": [
				{
					"internalType": "int256",
					"name": "x",
					"type": "int256"
				}
			],
			"name": "testAbsolute",
			"outputs": [
				{
					"internalType": "int256",
					"name": "",
					"type": "int256"
				}
			],
			"stateMutability": "pure",
			"type": "function"
		},
		{
			"inputs": [
				{
					"internalType": "int256",
					"name": "a",
					"type": "int256"
				},
				{
					"internalType": "int256",
					"name": "b",
					"type": "int256"
				}
			],
			"name": "testAdd",
			"outputs": [
				{
					"internalType": "int256",
					"name": "",
					"type": "int256"
				}
			],
			"stateMutability": "pure",
			"type": "function"
		},
		{
			"inputs": [
				{
					"internalType": "int256",
					"name": "a",
					"type": "int256"
				},
				{
					"internalType": "int256",
					"name": "b",
					"type": "int256"
				}
			],
			"name": "testDivide",
			"outputs": [
				{
					"internalType": "int256",
					"name": "",
					"type": "int256"
				}
			],
			"stateMutability": "pure",
			"type": "function"
		},
		{
			"inputs": [
				{
					"internalType": "int256",
					"name": "a",
					"type": "int256"
				},
				{
					"internalType": "int256",
					"name": "b",
					"type": "int256"
				}
			],
			"name": "testModulo",
			"outputs": [
				{
					"internalType": "int256",
					"name": "",
					"type": "int256"
				}
			],
			"stateMutability": "pure",
			"type": "function"
		},
		{
			"inputs": [
				{
					"internalType": "int256",
					"name": "a",
					"type": "int256"
				},
				{
					"internalType": "int256",
					"name": "b",
					"type": "int256"
				}
			],
			"name": "testMultiply",
			"outputs": [
				{
					"internalType": "int256",
					"name": "",
					"type": "int256"
				}
			],
			"stateMutability": "pure",
			"type": "function"
		},
		{
			"inputs": [
				{
					"internalType": "uint256",
					"name": "base",
					"type": "uint256"
				},
				{
					"internalType": "uint256",
					"name": "exp",
					"type": "uint256"
				}
			],
			"name": "testPower",
			"outputs": [
				{
					"internalType": "uint256",
					"name": "",
					"type": "uint256"
				}
			],
			"stateMutability": "pure",
			"type": "function"
		},
		{
			"inputs": [
				{
					"internalType": "uint256",
					"name": "x",
					"type": "uint256"
				}
			],
			"name": "testSqrt",
			"outputs": [
				{
					"internalType": "uint256",
					"name": "",
					"type": "uint256"
				}
			],
			"stateMutability": "pure",
			"type": "function"
		}
	]
}