{
	"data": {
		"bytecode": {
			"linkReferences": {},
			"object": "6080604052348015600e575f80fd5b506105d48061001c5f395ff3fe608060405234801561000f575f80fd5b5060043610610055575f3560e01c806305d09ad714610059578063163b0e51146100895780631abe5974146100b9578063834db421146100e95780638c87bb0a14610119575b5f80fd5b610073600480360381019061006e9190610365565b610149565b60405161008091906103aa565b60405180910390f35b6100a3600480360381019061009e9190610365565b61015a565b6040516100b091906103d2565b60405180910390f35b6100d360048036038101906100ce91906103eb565b61016b565b6040516100e091906103d2565b60405180910390f35b61010360048036038101906100fe91906103eb565b61017e565b60405161011091906103d2565b60405180910390f35b610133600480360381019061012e9190610365565b610191565b60405161014091906103d2565b60405180910390f35b5f610153826101a2565b9050919050565b5f61016482610251565b9050919050565b5f610176838361028f565b905092915050565b5f61018983836102aa565b905092915050565b5f61019b826102c5565b9050919050565b5f808290505f808490505f5b5f8211156101d85780806101c190610456565b915050600a826101d191906104ca565b91506101ae565b8591505b5f821115610243575f600a836101f291906104fa565b90505f600190505f5b8381101561021e57828261020f919061052a565b915080806001019150506101fb565b50808561022b919061056b565b9450600a8461023a91906104ca565b935050506101dc565b838314945050505050919050565b5f80600190505f600190505b838111610285578082610270919061052a565b9150808061027d90610456565b91505061025d565b5080915050919050565b5f818310156102a0578290506102a4565b8190505b92915050565b5f818311156102bb578290506102bf565b8190505b92915050565b5f8082036102d5575f9050610329565b600182036102e65760019050610329565b5f80600190505f80600290505b858111610321578284610306919061056b565b9150829350819250808061031990610456565b9150506102f3565b508193505050505b919050565b5f80fd5b5f819050919050565b61034481610332565b811461034e575f80fd5b50565b5f8135905061035f8161033b565b92915050565b5f6020828403121561037a5761037961032e565b5b5f61038784828501610351565b91505092915050565b5f8115159050919050565b6103a481610390565b82525050565b5f6020820190506103bd5f83018461039b565b92915050565b6103cc81610332565b82525050565b5f6020820190506103e55f8301846103c3565b92915050565b5f80604083850312156104015761040061032e565b5b5f61040e85828601610351565b925050602061041f85828601610351565b9150509250929050565b7f4e487b71000000000000000000000000000000000000000000000000000000005f52601160045260245ffd5b5f61046082610332565b91507fffffffffffffffffffffffffffffffffffffffffffffffffffffffffffffffff820361049257610491610429565b5b600182019050919050565b7f4e487b71000000000000000000000000000000000000000000000000000000005f52601260045260245ffd5b5f6104d482610332565b91506104df83610332565b9250826104ef576104ee61049d565b5b828204905092915050565b5f61050482610332565b915061050f83610332565b92508261051f5761051e61049d565b5b828206905092915050565b5f61053482610332565b915061053f83610332565b925082820261054d81610332565b9150828204841483151761056457610563610429565b5b5092915050565b5f61057582610332565b915061058083610332565b925082820190508082111561059857610597610429565b5b9291505056fea2646970667358221220a9b86f3b1d67ffc56a834a1bf39a8db38d85418aeab86ee250bf44312bad855064736f6c634300081a0033",
			"opcodes": "PUSH1 0x80 PUSH1 0x40 MSTORE CALLVALUE DUP1 ISZERO PUSH1 0xE JUMPI PUSH0 DUP1 REVERT JUMPDEST POP PUSH2 0x5D4 DUP1 PUSH2 0x1C PUSH0 CODECOPY PUSH0 RETURN INVALID PUSH1 0x80 PUSH1 0x40 MSTORE CALLVALUE DUP1 ISZERO PUSH2 0xF JUMPI PUSH0 DUP1 REVERT JUMPDEST POP PUSH1 0x4 CALLDATASIZE LT PUSH2 0x55 JUMPI PUSH0 CALLDATALOAD PUSH1 0xE0 SHR DUP1 PUSH4 0x5D09AD7 EQ PUSH2 0x59 JUMPI DUP1 PUSH4 0x163B0E51 EQ PUSH2 0x89 JUMPI DUP1 PUSH4 0x1ABE5974 EQ PUSH2 0xB9 JUMPI DUP1 PUSH4 0x834DB421 EQ PUSH2 0xE9 JUMPI DUP1 PUSH4 0x8C87BB0A EQ PUSH2 0x119 JUMPI JUMPDEST PUSH0 DUP1 REVERT JUMPDEST PUSH2 0x73 PUSH1 0x4 DUP1 CALLDATASIZE SUB DUP2 ADD SWAP1 PUSH2 0x6E SWAP2 SWAP1 PUSH2 0x365 JUMP JUMPDEST PUSH2 0x149 JUMP JUMPDEST PUSH1 0x40 MLOAD PUSH2 0x80 SWAP2 SWAP1 PUSH2 0x3AA JUMP JUMPDEST PUSH1 0x40 MLOAD DUP1 SWAP2 SUB SWAP1 RETURN JUMPDEST PUSH2 0xA3 PUSH1 0x4 DUP1 CALLDATASIZE SUB DUP2 ADD SWAP1 PUSH2 0x9E SWAP2 SWAP1 PUSH2 0x365 JUMP JUMPDEST PUSH2 0x15A JUMP JUMPDEST PUSH1 0x40 MLOAD PUSH2 0xB0 SWAP2 SWAP1 PUSH2 0x3D2 JUMP JUMPDEST PUSH1 0x40 MLOAD DUP1 SWAP2 SUB SWAP1 RETURN JUMPDEST PUSH2 0xD3 PUSH1 0x4 DUP1 CALLDATASIZE SUB DUP2 ADD SWAP1 PUSH2 0xCE SWAP2 SWAP1 PUSH2 0x3EB JUMP JUMPDEST PUSH2 0x16B JUMP JUMPDEST PUSH1 0x40 MLOAD PUSH2 0xE0 SWAP2 SWAP1 PUSH2 0x3D2 JUMP JUMPDEST PUSH1 0x40 MLOAD DUP1 SWAP2 SUB SWAP1 RETURN JUMPDEST PUSH2 0x103 PUSH1 0x4 DUP1 CALLDATASIZE SUB DUP2 ADD SWAP1 PUSH2 0xFE SWAP2 SWAP1 PUSH2 0x3EB JUMP JUMPDEST PUSH2 0x17E JUMP JUMPDEST PUSH1 0x40 MLOAD PUSH2 0x110 SWAP2 SWAP1 PUSH2 0x3D2 JUMP JUMPDEST PUSH1 0x40 MLOAD DUP1 SWAP2 SUB SWAP1 RETURN JUMPDEST PUSH2 0x133 PUSH1 0x4 DUP1 CALLDATASIZE SUB DUP2 ADD SWAP1 PUSH2 0x12E SWAP2 SWAP1 PUSH2 0x365 JUMP JUMPDEST PUSH2 0x191 JUMP JUMPDEST PUSH1 0x40 MLOAD PUSH2 0x140 SWAP2 SWAP1 PUSH2 0x3D2 JUMP JUMPDEST PUSH1 0x40 MLOAD DUP1 SWAP2 SUB SWAP1 RETURN JUMPDEST PUSH0 PUSH2 0x153 DUP3 PUSH2 0x1A2 JUMP JUMPDEST SWAP1 POP SWAP2 SWAP1 POP JUMP JUMPDEST PUSH0 PUSH2 0x164 DUP3 PUSH2 0x251 JUMP JUMPDEST SWAP1 POP SWAP2 SWAP1 POP JUMP JUMPDEST PUSH0 PUSH2 0x176 DUP4 DUP4 PUSH2 0x28F JUMP JUMPDEST SWAP1 POP SWAP3 SWAP2 POP POP JUMP JUMPDEST PUSH0 PUSH2 0x189 DUP4 DUP4 PUSH2 0x2AA JUMP JUMPDEST SWAP1 POP SWAP3 SWAP2 POP POP JUMP JUMPDEST PUSH0 PUSH2 0x19B DUP3 PUSH2 0x2C5 JUMP JUMPDEST SWAP1 POP SWAP2 SWAP1 POP JUMP JUMPDEST PUSH0 DUP1 DUP3 SWAP1 POP PUSH0 DUP1 DUP5 SWAP1 POP PUSH0 JUMPDEST PUSH0 DUP3 GT ISZERO PUSH2 0x1D8 JUMPI DUP1 DUP1 PUSH2 0x1C1 SWAP1 PUSH2 0x456 JUMP JUMPDEST SWAP2 POP POP PUSH1 0xA DUP3 PUSH2 0x1D1 SWAP2 SWAP1 PUSH2 0x4CA JUMP JUMPDEST SWAP2 POP PUSH2 0x1AE JUMP JUMPDEST DUP6 SWAP2 POP JUMPDEST PUSH0 DUP3 GT ISZERO PUSH2 0x243 JUMPI PUSH0 PUSH1 0xA DUP4 PUSH2 0x1F2 SWAP2 SWAP1 PUSH2 0x4FA JUMP JUMPDEST SWAP1 POP PUSH0 PUSH1 0x1 SWAP1 POP PUSH0 JUMPDEST DUP4 DUP2 LT ISZERO PUSH2 0x21E JUMPI DUP3 DUP3 PUSH2 0x20F SWAP2 SWAP1 PUSH2 0x52A JUMP JUMPDEST SWAP2 POP DUP1 DUP1 PUSH1 0x1 ADD SWAP2 POP POP PUSH2 0x1FB JUMP JUMPDEST POP DUP1 DUP6 PUSH2 0x22B SWAP2 SWAP1 PUSH2 0x56B JUMP JUMPDEST SWAP5 POP PUSH1 0xA DUP5 PUSH2 0x23A SWAP2 SWAP1 PUSH2 0x4CA JUMP JUMPDEST SWAP4 POP POP POP PUSH2 0x1DC JUMP JUMPDEST DUP4 DUP4 EQ SWAP5 POP POP POP POP POP SWAP2 SWAP1 POP JUMP JUMPDEST PUSH0 DUP1 PUSH1 0x1 SWAP1 POP PUSH0 PUSH1 0x1 SWAP1 POP JUMPDEST DUP4 DUP2 GT PUSH2 0x285 JUMPI DUP1 DUP3 PUSH2 0x270 SWAP2 SWAP1 PUSH2 0x52A JUMP JUMPDEST SWAP2 POP DUP1 DUP1 PUSH2 0x27D SWAP1 PUSH2 0x456 JUMP JUMPDEST SWAP2 POP POP PUSH2 0x25D JUMP JUMPDEST POP DUP1 SWAP2 POP POP SWAP2 SWAP1 POP JUMP JUMPDEST PUSH0 DUP2 DUP4 LT ISZERO PUSH2 0x2A0 JUMPI DUP3 SWAP1 POP PUSH2 0x2A4 JUMP JUMPDEST DUP2 SWAP1 POP JUMPDEST SWAP3 SWAP2 POP POP JUMP JUMPDEST PUSH0 DUP2 DUP4 GT ISZERO PUSH2 0x2BB JUMPI DUP3 SWAP1 POP PUSH2 0x2BF JUMP JUMPDEST DUP2 SWAP1 POP JUMPDEST SWAP3 SWAP2 POP POP JUMP JUMPDEST PUSH0 DUP1 DUP3 SUB PUSH2 0x2D5 JUMPI PUSH0 SWAP1 POP PUSH2 0x329 JUMP JUMPDEST PUSH1 0x1 DUP3 SUB PUSH2 0x2E6 JUMPI PUSH1 0x1 SWAP1 POP PUSH2 0x329 JUMP JUMPDEST PUSH0 DUP1 PUSH1 0x1 SWAP1 POP PUSH0 DUP1 PUSH1 0x2 SWAP1 POP JUMPDEST DUP6 DUP2 GT PUSH2 0x321 JUMPI DUP3 DUP5 PUSH2 0x306 SWAP2 SWAP1 PUSH2 0x56B JUMP JUMPDEST SWAP2 POP DUP3 SWAP4 POP DUP2 SWAP3 POP DUP1 DUP1 PUSH2 0x319 SWAP1 PUSH2 0x456 JUMP JUMPDEST SWAP2 POP POP PUSH2 0x2F3 JUMP JUMPDEST POP DUP2 SWAP4 POP POP POP POP JUMPDEST SWAP2 SWAP1 POP JUMP JUMPDEST PUSH0 DUP1 REVERT JUMPDEST PUSH0 DUP2 SWAP1 POP SWAP2 SWAP1 POP JUMP JUMPDEST PUSH2 0x344 DUP2 PUSH2 0x332 JUMP JUMPDEST DUP2 EQ PUSH2 0x34E JUMPI PUSH0 DUP1 REVERT JUMPDEST POP JUMP JUMPDEST PUSH0 DUP2 CALLDATALOAD SWAP1 POP PUSH2 0x35F DUP2 PUSH2 0x33B JUMP JUMPDEST SWAP3 SWAP2 POP POP JUMP JUMPDEST PUSH0 PUSH1 0x20 DUP3 DUP5 SUB SLT ISZERO PUSH2 0x37A JUMPI PUSH2 0x379 PUSH2 0x32E JUMP JUMPDEST JUMPDEST PUSH0 PUSH2 0x387 DUP5 DUP3 DUP6 ADD PUSH2 0x351 JUMP JUMPDEST SWAP2 POP POP SWAP3 SWAP2 POP POP JUMP JUMPDEST PUSH0 DUP2 ISZERO ISZERO SWAP1 POP SWAP2 SWAP1 POP JUMP JUMPDEST PUSH2 0x3A4 DUP2 PUSH2 0x390 JUMP JUMPDEST DUP3 MSTORE POP POP JUMP JUMPDEST PUSH0 PUSH1 0x20 DUP3 ADD SWAP1 POP PUSH2 0x3BD PUSH0 DUP4 ADD DUP5 PUSH2 0x39B JUMP JUMPDEST SWAP3 SWAP2 POP POP JUMP JUMPDEST PUSH2 0x3CC DUP2 PUSH2 0x332 JUMP JUMPDEST DUP3 MSTORE POP POP JUMP JUMPDEST PUSH0 PUSH1 0x20 DUP3 ADD SWAP1 POP PUSH2 0x3E5 PUSH0 DUP4 ADD DUP5 PUSH2 0x3C3 JUMP JUMPDEST SWAP3 SWAP2 POP POP JUMP JUMPDEST PUSH0 DUP1 PUSH1 0x40 DUP4 DUP6 SUB SLT ISZERO PUSH2 0x401 JUMPI PUSH2 0x400 PUSH2 0x32E JUMP JUMPDEST JUMPDEST PUSH0 PUSH2 0x40E DUP6 DUP3 DUP7 ADD PUSH2 0x351 JUMP JUMPDEST SWAP3 POP POP PUSH1 0x20 PUSH2 0x41F DUP6 DUP3 DUP7 ADD PUSH2 0x351 JUMP JUMPDEST SWAP2 POP POP SWAP3 POP SWAP3 SWAP1 POP JUMP JUMPDEST PUSH32 0x4E487B7100000000000000000000000000000000000000000000000000000000 PUSH0 MSTORE PUSH1 0x11 PUSH1 0x4 MSTORE PUSH1 0x24 PUSH0 REVERT JUMPDEST PUSH0 PUSH2 0x460 DUP3 PUSH2 0x332 JUMP JUMPDEST SWAP2 POP PUSH32 0xFFFFFFFFFFFFFFFFFFFFFFFFFFFFFFFFFFFFFFFFFFFFFFFFFFFFFFFFFFFFFFFF DUP3 SUB PUSH2 0x492 JUMPI PUSH2 0x491 PUSH2 0x429 JUMP JUMPDEST JUMPDEST PUSH1 0x1 DUP3 ADD SWAP1 POP SWAP2 SWAP1 POP JUMP JUMPDEST PUSH32 0x4E487B7100000000000000000000000000000000000000000000000000000000 PUSH0 MSTORE PUSH1 0x12 PUSH1 0x4 MSTORE PUSH1 0x24 PUSH0 REVERT JUMPDEST PUSH0 PUSH2 0x4D4 DUP3 PUSH2 0x332 JUMP JUMPDEST SWAP2 POP PUSH2 0x4DF DUP4 PUSH2 0x332 JUMP JUMPDEST SWAP3 POP DUP3 PUSH2 0x4EF JUMPI PUSH2 0x4EE PUSH2 0x49D JUMP JUMPDEST JUMPDEST DUP3 DUP3 DIV SWAP1 POP SWAP3 SWAP2 POP POP JUMP JUMPDEST PUSH0 PUSH2 0x504 DUP3 PUSH2 0x332 JUMP JUMPDEST SWAP2 POP PUSH2 0x50F DUP4 PUSH2 0x332 JUMP JUMPDEST SWAP3 POP DUP3 PUSH2 0x51F JUMPI PUSH2 0x51E PUSH2 0x49D JUMP JUMPDEST JUMPDEST DUP3 DUP3 MOD SWAP1 POP SWAP3 SWAP2 POP POP JUMP JUMPDEST PUSH0 PUSH2 0x534 DUP3 PUSH2 0x332 JUMP JUMPDEST SWAP2 POP PUSH2 0x53F DUP4 PUSH2 0x332 JUMP JUMPDEST SWAP3 POP DUP3 DUP3 MUL PUSH2 0x54D DUP2 PUSH2 0x332 JUMP JUMPDEST SWAP2 POP DUP3 DUP3 DIV DUP5 EQ DUP4 ISZERO OR PUSH2 0x564 JUMPI PUSH2 0x563 PUSH2 0x429 JUMP JUMPDEST JUMPDEST POP SWAP3 SWAP2 POP POP JUMP JUMPDEST PUSH0 PUSH2 0x575 DUP3 PUSH2 0x332 JUMP JUMPDEST SWAP2 POP PUSH2 0x580 DUP4 PUSH2 0x332 JUMP JUMPDEST SWAP3 POP DUP3 DUP3 ADD SWAP1 POP DUP1 DUP3 GT ISZERO PUSH2 0x598 JUMPI PUSH2 0x597 PUSH2 0x429 JUMP JUMPDEST JUMPDEST SWAP3 SWAP2 POP POP JUMP INVALID LOG2 PUSH5 0x6970667358 0x22 SLT KECCAK256 0xA9 0xB8 PUSH16 0x3B1D67FFC56A834A1BF39A8DB38D8541 DUP11 0xEA 0xB8 PUSH15 0xE250BF44312BAD855064736F6C6343 STOP ADDMOD BYTE STOP CALLER "
		},
		"gasEstimates": {
			"creation": {
				"codeDepositCost": "298400",
				"executionCost": "335",
				"totalCost": "298735"
			},
			"external": {
				"testFactorial(uint256)": "infinite",
				"testFibonacci(uint256)": "infinite",
				"testIsArmstrong(uint256)": "infinite",
				"testMax(uint256,uint256)": "infinite",
				"testMin(uint256,uint256)": "infinite"
			}
		},
		"methodIdentifiers": {
			"testFactorial(uint256)": "163b0e51",
			"testFibonacci(uint256)": "8c87bb0a",
			"testIsArmstrong(uint256)": "05d09ad7",
			"testMax(uint256,uint256)": "834db421",
			"testMin(uint256,uint256)": "1abe5974"
		}
	},
	"abi": [
		{
			"inputs": [
				{
					"internalType": "uint256",
					"name": "n",
					"type": "uint256"
				}
			],
			"name": "testFactorial",
			"outputs": [
				{
					"internalType": "uint256",
					"name": "",
					"type": "uint256"
				}
			],
			"stateMutability": "pure",
			"type": "function"
		},
		{
			"inputs": [
				{
					"internalType": "uint256",
					"name": "n",
					"type": "uint256"
				}
			],
			"name": "testFibonacci",
			"outputs": [
				{
					"internalType": "uint256",
					"name": "",
					"type": "uint256"
				}
			],
			"stateMutability": "pure",
			"type": "function"
		},
		{
			"inputs": [
				{
					"internalType": "uint256",
					"name": "num",
					"type": "uint256"
				}
			],
			"name": "testIsArmstrong",
			"outputs": [
				{
					"internalType": "bool",
					"name": "",
					"type": "bool"
				}
			],
			"stateMutability": "pure",
			"type": "function"
		},
		{
			"inputs": [
				{
					"internalType": "uint256",
					"name": "a",
					"type": "uint256"
				},
				{
					"internalType": "uint256",
					"name": "b",
					"type": "uint256"
				}
			],
			"name": "testMax",
			"outputs": [
				{
					"internalType": "uint256",
					"name": "",
					"type": "uint256"
				}
			],
			"stateMutability": "pure",
			"type": "function"
		},
		{
			"inputs": [
				{
					"internalType": "uint256",
					"name": "a",
					"type": "uint256"
				},
				{
					"internalType": "uint256",
					"name": "b",
					"type": "uint256"
				}
			],
			"name": "testMin",
			"outputs": [
				{
					"internalType": "uint256",
					"name": "",
					"type": "uint256"
				}
			],
			"stateMutability": "pure",
			"type": "function"
		}
	]
}