{
	"day4/p3.sol": {
		"Lottery": {
			"abi": [
				{
					"anonymous": false,
					"inputs": [
						{
							"indexed": false,
							"internalType": "uint256",
							"name": "number",
							"type": "uint256"
						},
						{
							"indexed": false,
							"internalType": "string",
							"name": "prize",
							"type": "string"
						}
					],
					"name": "Winner",
					"type": "event"
				},
				{
					"inputs": [],
					"name": "declarePrize",
					"outputs": [],
					"stateMutability": "nonpayable",
					"type": "function"
				},
				{
					"inputs": [],
					"name": "generateRandomNumber",
					"outputs": [
						{
							"internalType": "uint256",
							"name": "",
							"type": "uint256"
						}
					],
					"stateMutability": "view",
					"type": "function"
				}
			],
			"devdoc": {
				"kind": "dev",
				"methods": {},
				"version": 1
			},
			"evm": {
				"assembly": "    /* \"day4/p3.sol\":67:1326  contract Lottery {... */\n  mstore(0x40, 0x80)\n  callvalue\n  dup1\n  iszero\n  tag_1\n  jumpi\n  0x00\n  dup1\n  revert\ntag_1:\n  pop\n  dataSize(sub_0)\n  dup1\n  dataOffset(sub_0)\n  0x00\n  codecopy\n  0x00\n  return\nstop\n\nsub_0: assembly {\n        /* \"day4/p3.sol\":67:1326  contract Lottery {... */\n      mstore(0x40, 0x80)\n      callvalue\n      dup1\n      iszero\n      tag_1\n      jumpi\n      0x00\n      dup1\n      revert\n    tag_1:\n      pop\n      jumpi(tag_2, lt(calldatasize, 0x04))\n      shr(0xe0, calldataload(0x00))\n      dup1\n      0x308ab966\n      eq\n      tag_3\n      jumpi\n      dup1\n      0x773a1154\n      eq\n      tag_4\n      jumpi\n    tag_2:\n      0x00\n      dup1\n      revert\n        /* \"day4/p3.sol\":500:1323  function declarePrize() public {... */\n    tag_3:\n      tag_5\n      tag_6\n      jump\t// in\n    tag_5:\n      stop\n        /* \"day4/p3.sol\":277:425  function generateRandomNumber() public view returns (uint256) {... */\n    tag_4:\n      tag_7\n      tag_8\n      jump\t// in\n    tag_7:\n      mload(0x40)\n      tag_9\n      swap2\n      swap1\n      tag_10\n      jump\t// in\n    tag_9:\n      mload(0x40)\n      dup1\n      swap2\n      sub\n      swap1\n      return\n        /* \"day4/p3.sol\":500:1323  function declarePrize() public {... */\n    tag_6:\n        /* \"day4/p3.sol\":542:562  uint256 randomNumber */\n      0x00\n        /* \"day4/p3.sol\":565:587  generateRandomNumber() */\n      tag_12\n        /* \"day4/p3.sol\":565:585  generateRandomNumber */\n      tag_8\n        /* \"day4/p3.sol\":565:587  generateRandomNumber() */\n      jump\t// in\n    tag_12:\n        /* \"day4/p3.sol\":542:587  uint256 randomNumber = generateRandomNumber() */\n      swap1\n      pop\n        /* \"day4/p3.sol\":598:617  string memory prize */\n      0x60\n        /* \"day4/p3.sol\":715:716  0 */\n      0x00\n        /* \"day4/p3.sol\":710:711  3 */\n      0x03\n        /* \"day4/p3.sol\":695:707  randomNumber */\n      dup4\n        /* \"day4/p3.sol\":695:711  randomNumber % 3 */\n      tag_13\n      swap2\n      swap1\n      tag_14\n      jump\t// in\n    tag_13:\n        /* \"day4/p3.sol\":695:716  randomNumber % 3 == 0 */\n      eq\n        /* \"day4/p3.sol\":695:741  randomNumber % 3 == 0 && randomNumber % 5 == 0 */\n      dup1\n      iszero\n      tag_15\n      jumpi\n      pop\n        /* \"day4/p3.sol\":740:741  0 */\n      0x00\n        /* \"day4/p3.sol\":735:736  5 */\n      0x05\n        /* \"day4/p3.sol\":720:732  randomNumber */\n      dup4\n        /* \"day4/p3.sol\":720:736  randomNumber % 5 */\n      tag_16\n      swap2\n      swap1\n      tag_14\n      jump\t// in\n    tag_16:\n        /* \"day4/p3.sol\":720:741  randomNumber % 5 == 0 */\n      eq\n        /* \"day4/p3.sol\":695:741  randomNumber % 3 == 0 && randomNumber % 5 == 0 */\n    tag_15:\n        /* \"day4/p3.sol\":691:1245  if (randomNumber % 3 == 0 && randomNumber % 5 == 0) {... */\n      iszero\n      tag_17\n      jumpi\n        /* \"day4/p3.sol\":758:779  prize = \"First Prize\" */\n      mload(0x40)\n      dup1\n      0x40\n      add\n      0x40\n      mstore\n      dup1\n      0x0b\n      dup2\n      mstore\n      0x20\n      add\n      0x4669727374205072697a65000000000000000000000000000000000000000000\n      dup2\n      mstore\n      pop\n      swap1\n      pop\n        /* \"day4/p3.sol\":691:1245  if (randomNumber % 3 == 0 && randomNumber % 5 == 0) {... */\n      jump(tag_18)\n    tag_17:\n        /* \"day4/p3.sol\":894:895  0 */\n      0x00\n        /* \"day4/p3.sol\":889:890  7 */\n      0x07\n        /* \"day4/p3.sol\":874:886  randomNumber */\n      dup4\n        /* \"day4/p3.sol\":874:890  randomNumber % 7 */\n      tag_19\n      swap2\n      swap1\n      tag_14\n      jump\t// in\n    tag_19:\n        /* \"day4/p3.sol\":874:895  randomNumber % 7 == 0 */\n      eq\n        /* \"day4/p3.sol\":874:921  randomNumber % 7 == 0 || randomNumber % 11 == 0 */\n      dup1\n      tag_20\n      jumpi\n      pop\n        /* \"day4/p3.sol\":920:921  0 */\n      0x00\n        /* \"day4/p3.sol\":914:916  11 */\n      0x0b\n        /* \"day4/p3.sol\":899:911  randomNumber */\n      dup4\n        /* \"day4/p3.sol\":899:916  randomNumber % 11 */\n      tag_21\n      swap2\n      swap1\n      tag_14\n      jump\t// in\n    tag_21:\n        /* \"day4/p3.sol\":899:921  randomNumber % 11 == 0 */\n      eq\n        /* \"day4/p3.sol\":874:921  randomNumber % 7 == 0 || randomNumber % 11 == 0 */\n    tag_20:\n        /* \"day4/p3.sol\":870:1245  if (randomNumber % 7 == 0 || randomNumber % 11 == 0) {... */\n      iszero\n      tag_22\n      jumpi\n        /* \"day4/p3.sol\":938:960  prize = \"Second Prize\" */\n      mload(0x40)\n      dup1\n      0x40\n      add\n      0x40\n      mstore\n      dup1\n      0x0c\n      dup2\n      mstore\n      0x20\n      add\n      0x5365636f6e64205072697a650000000000000000000000000000000000000000\n      dup2\n      mstore\n      pop\n      swap1\n      pop\n        /* \"day4/p3.sol\":870:1245  if (randomNumber % 7 == 0 || randomNumber % 11 == 0) {... */\n      jump(tag_23)\n    tag_22:\n        /* \"day4/p3.sol\":1072:1073  0 */\n      0x00\n        /* \"day4/p3.sol\":1067:1068  5 */\n      0x05\n        /* \"day4/p3.sol\":1052:1064  randomNumber */\n      dup4\n        /* \"day4/p3.sol\":1052:1068  randomNumber % 5 */\n      tag_24\n      swap2\n      swap1\n      tag_14\n      jump\t// in\n    tag_24:\n        /* \"day4/p3.sol\":1052:1073  randomNumber % 5 == 0 */\n      eq\n        /* \"day4/p3.sol\":1052:1099  randomNumber % 5 == 0 && randomNumber % 10 != 0 */\n      dup1\n      iszero\n      tag_25\n      jumpi\n      pop\n        /* \"day4/p3.sol\":1098:1099  0 */\n      0x00\n        /* \"day4/p3.sol\":1092:1094  10 */\n      0x0a\n        /* \"day4/p3.sol\":1077:1089  randomNumber */\n      dup4\n        /* \"day4/p3.sol\":1077:1094  randomNumber % 10 */\n      tag_26\n      swap2\n      swap1\n      tag_14\n      jump\t// in\n    tag_26:\n        /* \"day4/p3.sol\":1077:1099  randomNumber % 10 != 0 */\n      eq\n      iszero\n        /* \"day4/p3.sol\":1052:1099  randomNumber % 5 == 0 && randomNumber % 10 != 0 */\n    tag_25:\n        /* \"day4/p3.sol\":1048:1245  if (randomNumber % 5 == 0 && randomNumber % 10 != 0) {... */\n      iszero\n      tag_27\n      jumpi\n        /* \"day4/p3.sol\":1116:1137  prize = \"Third Prize\" */\n      mload(0x40)\n      dup1\n      0x40\n      add\n      0x40\n      mstore\n      dup1\n      0x0b\n      dup2\n      mstore\n      0x20\n      add\n      0x5468697264205072697a65000000000000000000000000000000000000000000\n      dup2\n      mstore\n      pop\n      swap1\n      pop\n        /* \"day4/p3.sol\":1048:1245  if (randomNumber % 5 == 0 && randomNumber % 10 != 0) {... */\n      jump(tag_28)\n    tag_27:\n        /* \"day4/p3.sol\":1170:1188  prize = \"No Prize\" */\n      mload(0x40)\n      dup1\n      0x40\n      add\n      0x40\n      mstore\n      dup1\n      0x08\n      dup2\n      mstore\n      0x20\n      add\n      0x4e6f205072697a65000000000000000000000000000000000000000000000000\n      dup2\n      mstore\n      pop\n      swap1\n      pop\n        /* \"day4/p3.sol\":1048:1245  if (randomNumber % 5 == 0 && randomNumber % 10 != 0) {... */\n    tag_28:\n        /* \"day4/p3.sol\":870:1245  if (randomNumber % 7 == 0 || randomNumber % 11 == 0) {... */\n    tag_23:\n        /* \"day4/p3.sol\":691:1245  if (randomNumber % 3 == 0 && randomNumber % 5 == 0) {... */\n    tag_18:\n        /* \"day4/p3.sol\":1262:1289  Winner(randomNumber, prize) */\n      0xb4c3c88ee9a2327546143b8e3988a69ebfadf6f5ff9c6eb7bd9bfc6f56e19500\n        /* \"day4/p3.sol\":1269:1281  randomNumber */\n      dup3\n        /* \"day4/p3.sol\":1283:1288  prize */\n      dup3\n        /* \"day4/p3.sol\":1262:1289  Winner(randomNumber, prize) */\n      mload(0x40)\n      tag_29\n      swap3\n      swap2\n      swap1\n      tag_30\n      jump\t// in\n    tag_29:\n      mload(0x40)\n      dup1\n      swap2\n      sub\n      swap1\n      log1\n        /* \"day4/p3.sol\":531:1323  {... */\n      pop\n      pop\n        /* \"day4/p3.sol\":500:1323  function declarePrize() public {... */\n      jump\t// out\n        /* \"day4/p3.sol\":277:425  function generateRandomNumber() public view returns (uint256) {... */\n    tag_8:\n        /* \"day4/p3.sol\":330:337  uint256 */\n      0x00\n        /* \"day4/p3.sol\":413:417  1000 */\n      0x03e8\n        /* \"day4/p3.sol\":392:407  block.timestamp */\n      timestamp\n        /* \"day4/p3.sol\":375:408  abi.encodePacked(block.timestamp) */\n      add(0x20, mload(0x40))\n      tag_32\n      swap2\n      swap1\n      tag_33\n      jump\t// in\n    tag_32:\n      mload(0x40)\n      0x20\n      dup2\n      dup4\n      sub\n      sub\n      dup2\n      mstore\n      swap1\n      0x40\n      mstore\n        /* \"day4/p3.sol\":365:409  keccak256(abi.encodePacked(block.timestamp)) */\n      dup1\n      mload\n      swap1\n      0x20\n      add\n      keccak256\n        /* \"day4/p3.sol\":357:410  uint256(keccak256(abi.encodePacked(block.timestamp))) */\n      0x00\n      shr\n        /* \"day4/p3.sol\":357:417  uint256(keccak256(abi.encodePacked(block.timestamp))) % 1000 */\n      tag_34\n      swap2\n      swap1\n      tag_14\n      jump\t// in\n    tag_34:\n        /* \"day4/p3.sol\":350:417  return uint256(keccak256(abi.encodePacked(block.timestamp))) % 1000 */\n      swap1\n      pop\n        /* \"day4/p3.sol\":277:425  function generateRandomNumber() public view returns (uint256) {... */\n      swap1\n      jump\t// out\n        /* \"#utility.yul\":7:84   */\n    tag_35:\n        /* \"#utility.yul\":44:51   */\n      0x00\n        /* \"#utility.yul\":73:78   */\n      dup2\n        /* \"#utility.yul\":62:78   */\n      swap1\n      pop\n        /* \"#utility.yul\":7:84   */\n      swap2\n      swap1\n      pop\n      jump\t// out\n        /* \"#utility.yul\":90:208   */\n    tag_36:\n        /* \"#utility.yul\":177:201   */\n      tag_48\n        /* \"#utility.yul\":195:200   */\n      dup2\n        /* \"#utility.yul\":177:201   */\n      tag_35\n      jump\t// in\n    tag_48:\n        /* \"#utility.yul\":172:175   */\n      dup3\n        /* \"#utility.yul\":165:202   */\n      mstore\n        /* \"#utility.yul\":90:208   */\n      pop\n      pop\n      jump\t// out\n        /* \"#utility.yul\":214:436   */\n    tag_10:\n        /* \"#utility.yul\":307:311   */\n      0x00\n        /* \"#utility.yul\":345:347   */\n      0x20\n        /* \"#utility.yul\":334:343   */\n      dup3\n        /* \"#utility.yul\":330:348   */\n      add\n        /* \"#utility.yul\":322:348   */\n      swap1\n      pop\n        /* \"#utility.yul\":358:429   */\n      tag_50\n        /* \"#utility.yul\":426:427   */\n      0x00\n        /* \"#utility.yul\":415:424   */\n      dup4\n        /* \"#utility.yul\":411:428   */\n      add\n        /* \"#utility.yul\":402:408   */\n      dup5\n        /* \"#utility.yul\":358:429   */\n      tag_36\n      jump\t// in\n    tag_50:\n        /* \"#utility.yul\":214:436   */\n      swap3\n      swap2\n      pop\n      pop\n      jump\t// out\n        /* \"#utility.yul\":442:622   */\n    tag_37:\n        /* \"#utility.yul\":490:567   */\n      0x4e487b7100000000000000000000000000000000000000000000000000000000\n        /* \"#utility.yul\":487:488   */\n      0x00\n        /* \"#utility.yul\":480:568   */\n      mstore\n        /* \"#utility.yul\":587:591   */\n      0x12\n        /* \"#utility.yul\":584:585   */\n      0x04\n        /* \"#utility.yul\":577:592   */\n      mstore\n        /* \"#utility.yul\":611:615   */\n      0x24\n        /* \"#utility.yul\":608:609   */\n      0x00\n        /* \"#utility.yul\":601:616   */\n      revert\n        /* \"#utility.yul\":628:804   */\n    tag_14:\n        /* \"#utility.yul\":660:661   */\n      0x00\n        /* \"#utility.yul\":677:697   */\n      tag_53\n        /* \"#utility.yul\":695:696   */\n      dup3\n        /* \"#utility.yul\":677:697   */\n      tag_35\n      jump\t// in\n    tag_53:\n        /* \"#utility.yul\":672:697   */\n      swap2\n      pop\n        /* \"#utility.yul\":711:731   */\n      tag_54\n        /* \"#utility.yul\":729:730   */\n      dup4\n        /* \"#utility.yul\":711:731   */\n      tag_35\n      jump\t// in\n    tag_54:\n        /* \"#utility.yul\":706:731   */\n      swap3\n      pop\n        /* \"#utility.yul\":750:751   */\n      dup3\n        /* \"#utility.yul\":740:775   */\n      tag_55\n      jumpi\n        /* \"#utility.yul\":755:773   */\n      tag_56\n      tag_37\n      jump\t// in\n    tag_56:\n        /* \"#utility.yul\":740:775   */\n    tag_55:\n        /* \"#utility.yul\":796:797   */\n      dup3\n        /* \"#utility.yul\":793:794   */\n      dup3\n        /* \"#utility.yul\":789:798   */\n      mod\n        /* \"#utility.yul\":784:798   */\n      swap1\n      pop\n        /* \"#utility.yul\":628:804   */\n      swap3\n      swap2\n      pop\n      pop\n      jump\t// out\n        /* \"#utility.yul\":810:909   */\n    tag_38:\n        /* \"#utility.yul\":862:868   */\n      0x00\n        /* \"#utility.yul\":896:901   */\n      dup2\n        /* \"#utility.yul\":890:902   */\n      mload\n        /* \"#utility.yul\":880:902   */\n      swap1\n      pop\n        /* \"#utility.yul\":810:909   */\n      swap2\n      swap1\n      pop\n      jump\t// out\n        /* \"#utility.yul\":915:1084   */\n    tag_39:\n        /* \"#utility.yul\":999:1010   */\n      0x00\n        /* \"#utility.yul\":1033:1039   */\n      dup3\n        /* \"#utility.yul\":1028:1031   */\n      dup3\n        /* \"#utility.yul\":1021:1040   */\n      mstore\n        /* \"#utility.yul\":1073:1077   */\n      0x20\n        /* \"#utility.yul\":1068:1071   */\n      dup3\n        /* \"#utility.yul\":1064:1078   */\n      add\n        /* \"#utility.yul\":1049:1078   */\n      swap1\n      pop\n        /* \"#utility.yul\":915:1084   */\n      swap3\n      swap2\n      pop\n      pop\n      jump\t// out\n        /* \"#utility.yul\":1090:1229   */\n    tag_40:\n        /* \"#utility.yul\":1179:1185   */\n      dup3\n        /* \"#utility.yul\":1174:1177   */\n      dup2\n        /* \"#utility.yul\":1169:1172   */\n      dup4\n        /* \"#utility.yul\":1163:1186   */\n      mcopy\n        /* \"#utility.yul\":1220:1221   */\n      0x00\n        /* \"#utility.yul\":1211:1217   */\n      dup4\n        /* \"#utility.yul\":1206:1209   */\n      dup4\n        /* \"#utility.yul\":1202:1218   */\n      add\n        /* \"#utility.yul\":1195:1222   */\n      mstore\n        /* \"#utility.yul\":1090:1229   */\n      pop\n      pop\n      pop\n      jump\t// out\n        /* \"#utility.yul\":1235:1337   */\n    tag_41:\n        /* \"#utility.yul\":1276:1282   */\n      0x00\n        /* \"#utility.yul\":1327:1329   */\n      0x1f\n        /* \"#utility.yul\":1323:1330   */\n      not\n        /* \"#utility.yul\":1318:1320   */\n      0x1f\n        /* \"#utility.yul\":1311:1316   */\n      dup4\n        /* \"#utility.yul\":1307:1321   */\n      add\n        /* \"#utility.yul\":1303:1331   */\n      and\n        /* \"#utility.yul\":1293:1331   */\n      swap1\n      pop\n        /* \"#utility.yul\":1235:1337   */\n      swap2\n      swap1\n      pop\n      jump\t// out\n        /* \"#utility.yul\":1343:1720   */\n    tag_42:\n        /* \"#utility.yul\":1431:1434   */\n      0x00\n        /* \"#utility.yul\":1459:1498   */\n      tag_62\n        /* \"#utility.yul\":1492:1497   */\n      dup3\n        /* \"#utility.yul\":1459:1498   */\n      tag_38\n      jump\t// in\n    tag_62:\n        /* \"#utility.yul\":1514:1585   */\n      tag_63\n        /* \"#utility.yul\":1578:1584   */\n      dup2\n        /* \"#utility.yul\":1573:1576   */\n      dup6\n        /* \"#utility.yul\":1514:1585   */\n      tag_39\n      jump\t// in\n    tag_63:\n        /* \"#utility.yul\":1507:1585   */\n      swap4\n      pop\n        /* \"#utility.yul\":1594:1659   */\n      tag_64\n        /* \"#utility.yul\":1652:1658   */\n      dup2\n        /* \"#utility.yul\":1647:1650   */\n      dup6\n        /* \"#utility.yul\":1640:1644   */\n      0x20\n        /* \"#utility.yul\":1633:1638   */\n      dup7\n        /* \"#utility.yul\":1629:1645   */\n      add\n        /* \"#utility.yul\":1594:1659   */\n      tag_40\n      jump\t// in\n    tag_64:\n        /* \"#utility.yul\":1684:1713   */\n      tag_65\n        /* \"#utility.yul\":1706:1712   */\n      dup2\n        /* \"#utility.yul\":1684:1713   */\n      tag_41\n      jump\t// in\n    tag_65:\n        /* \"#utility.yul\":1679:1682   */\n      dup5\n        /* \"#utility.yul\":1675:1714   */\n      add\n        /* \"#utility.yul\":1668:1714   */\n      swap2\n      pop\n        /* \"#utility.yul\":1435:1720   */\n      pop\n        /* \"#utility.yul\":1343:1720   */\n      swap3\n      swap2\n      pop\n      pop\n      jump\t// out\n        /* \"#utility.yul\":1726:2149   */\n    tag_30:\n        /* \"#utility.yul\":1867:1871   */\n      0x00\n        /* \"#utility.yul\":1905:1907   */\n      0x40\n        /* \"#utility.yul\":1894:1903   */\n      dup3\n        /* \"#utility.yul\":1890:1908   */\n      add\n        /* \"#utility.yul\":1882:1908   */\n      swap1\n      pop\n        /* \"#utility.yul\":1918:1989   */\n      tag_67\n        /* \"#utility.yul\":1986:1987   */\n      0x00\n        /* \"#utility.yul\":1975:1984   */\n      dup4\n        /* \"#utility.yul\":1971:1988   */\n      add\n        /* \"#utility.yul\":1962:1968   */\n      dup6\n        /* \"#utility.yul\":1918:1989   */\n      tag_36\n      jump\t// in\n    tag_67:\n        /* \"#utility.yul\":2036:2045   */\n      dup2\n        /* \"#utility.yul\":2030:2034   */\n      dup2\n        /* \"#utility.yul\":2026:2046   */\n      sub\n        /* \"#utility.yul\":2021:2023   */\n      0x20\n        /* \"#utility.yul\":2010:2019   */\n      dup4\n        /* \"#utility.yul\":2006:2024   */\n      add\n        /* \"#utility.yul\":1999:2047   */\n      mstore\n        /* \"#utility.yul\":2064:2142   */\n      tag_68\n        /* \"#utility.yul\":2137:2141   */\n      dup2\n        /* \"#utility.yul\":2128:2134   */\n      dup5\n        /* \"#utility.yul\":2064:2142   */\n      tag_42\n      jump\t// in\n    tag_68:\n        /* \"#utility.yul\":2056:2142   */\n      swap1\n      pop\n        /* \"#utility.yul\":1726:2149   */\n      swap4\n      swap3\n      pop\n      pop\n      pop\n      jump\t// out\n        /* \"#utility.yul\":2155:2234   */\n    tag_43:\n        /* \"#utility.yul\":2194:2201   */\n      0x00\n        /* \"#utility.yul\":2223:2228   */\n      dup2\n        /* \"#utility.yul\":2212:2228   */\n      swap1\n      pop\n        /* \"#utility.yul\":2155:2234   */\n      swap2\n      swap1\n      pop\n      jump\t// out\n        /* \"#utility.yul\":2240:2397   */\n    tag_44:\n        /* \"#utility.yul\":2345:2390   */\n      tag_71\n        /* \"#utility.yul\":2365:2389   */\n      tag_72\n        /* \"#utility.yul\":2383:2388   */\n      dup3\n        /* \"#utility.yul\":2365:2389   */\n      tag_35\n      jump\t// in\n    tag_72:\n        /* \"#utility.yul\":2345:2390   */\n      tag_43\n      jump\t// in\n    tag_71:\n        /* \"#utility.yul\":2340:2343   */\n      dup3\n        /* \"#utility.yul\":2333:2391   */\n      mstore\n        /* \"#utility.yul\":2240:2397   */\n      pop\n      pop\n      jump\t// out\n        /* \"#utility.yul\":2403:2659   */\n    tag_33:\n        /* \"#utility.yul\":2515:2518   */\n      0x00\n        /* \"#utility.yul\":2530:2605   */\n      tag_74\n        /* \"#utility.yul\":2601:2604   */\n      dup3\n        /* \"#utility.yul\":2592:2598   */\n      dup5\n        /* \"#utility.yul\":2530:2605   */\n      tag_44\n      jump\t// in\n    tag_74:\n        /* \"#utility.yul\":2630:2632   */\n      0x20\n        /* \"#utility.yul\":2625:2628   */\n      dup3\n        /* \"#utility.yul\":2621:2633   */\n      add\n        /* \"#utility.yul\":2614:2633   */\n      swap2\n      pop\n        /* \"#utility.yul\":2650:2653   */\n      dup2\n        /* \"#utility.yul\":2643:2653   */\n      swap1\n      pop\n        /* \"#utility.yul\":2403:2659   */\n      swap3\n      swap2\n      pop\n      pop\n      jump\t// out\n\n    auxdata: 0xa2646970667358221220c3a3e8ba3f1932d2eedb1ce40555e7f21b7783ecb1ba9a82f05ccef41776625f64736f6c634300081a0033\n}\n",
				"bytecode": {
					"linkReferences": {},
					"object": "6080604052348015600e575f80fd5b506103f58061001c5f395ff3fe608060405234801561000f575f80fd5b5060043610610034575f3560e01c8063308ab96614610038578063773a115414610042575b5f80fd5b610040610060565b005b61004a61021d565b6040516100579190610271565b60405180910390f35b5f61006961021d565b905060605f60038361007b91906102b7565b14801561009357505f60058361009191906102b7565b145b156100d5576040518060400160405280600b81526020017f4669727374205072697a6500000000000000000000000000000000000000000081525090506101e0565b5f6007836100e391906102b7565b14806100fa57505f600b836100f891906102b7565b145b1561013c576040518060400160405280600c81526020017f5365636f6e64205072697a65000000000000000000000000000000000000000081525090506101df565b5f60058361014a91906102b7565b14801561016357505f600a8361016091906102b7565b14155b156101a5576040518060400160405280600b81526020017f5468697264205072697a6500000000000000000000000000000000000000000081525090506101de565b6040518060400160405280600881526020017f4e6f205072697a6500000000000000000000000000000000000000000000000081525090505b5b5b7fb4c3c88ee9a2327546143b8e3988a69ebfadf6f5ff9c6eb7bd9bfc6f56e195008282604051610211929190610357565b60405180910390a15050565b5f6103e84260405160200161023291906103a5565b604051602081830303815290604052805190602001205f1c61025491906102b7565b905090565b5f819050919050565b61026b81610259565b82525050565b5f6020820190506102845f830184610262565b92915050565b7f4e487b71000000000000000000000000000000000000000000000000000000005f52601260045260245ffd5b5f6102c182610259565b91506102cc83610259565b9250826102dc576102db61028a565b5b828206905092915050565b5f81519050919050565b5f82825260208201905092915050565b8281835e5f83830152505050565b5f601f19601f8301169050919050565b5f610329826102e7565b61033381856102f1565b9350610343818560208601610301565b61034c8161030f565b840191505092915050565b5f60408201905061036a5f830185610262565b818103602083015261037c818461031f565b90509392505050565b5f819050919050565b61039f61039a82610259565b610385565b82525050565b5f6103b0828461038e565b6020820191508190509291505056fea2646970667358221220c3a3e8ba3f1932d2eedb1ce40555e7f21b7783ecb1ba9a82f05ccef41776625f64736f6c634300081a0033",
					"opcodes": "PUSH1 0x80 PUSH1 0x40 MSTORE CALLVALUE DUP1 ISZERO PUSH1 0xE JUMPI PUSH0 DUP1 REVERT JUMPDEST POP PUSH2 0x3F5 DUP1 PUSH2 0x1C PUSH0 CODECOPY PUSH0 RETURN INVALID PUSH1 0x80 PUSH1 0x40 MSTORE CALLVALUE DUP1 ISZERO PUSH2 0xF JUMPI PUSH0 DUP1 REVERT JUMPDEST POP PUSH1 0x4 CALLDATASIZE LT PUSH2 0x34 JUMPI PUSH0 CALLDATALOAD PUSH1 0xE0 SHR DUP1 PUSH4 0x308AB966 EQ PUSH2 0x38 JUMPI DUP1 PUSH4 0x773A1154 EQ PUSH2 0x42 JUMPI JUMPDEST PUSH0 DUP1 REVERT JUMPDEST PUSH2 0x40 PUSH2 0x60 JUMP JUMPDEST STOP JUMPDEST PUSH2 0x4A PUSH2 0x21D JUMP JUMPDEST PUSH1 0x40 MLOAD PUSH2 0x57 SWAP2 SWAP1 PUSH2 0x271 JUMP JUMPDEST PUSH1 0x40 MLOAD DUP1 SWAP2 SUB SWAP1 RETURN JUMPDEST PUSH0 PUSH2 0x69 PUSH2 0x21D JUMP JUMPDEST SWAP1 POP PUSH1 0x60 PUSH0 PUSH1 0x3 DUP4 PUSH2 0x7B SWAP2 SWAP1 PUSH2 0x2B7 JUMP JUMPDEST EQ DUP1 ISZERO PUSH2 0x93 JUMPI POP PUSH0 PUSH1 0x5 DUP4 PUSH2 0x91 SWAP2 SWAP1 PUSH2 0x2B7 JUMP JUMPDEST EQ JUMPDEST ISZERO PUSH2 0xD5 JUMPI PUSH1 0x40 MLOAD DUP1 PUSH1 0x40 ADD PUSH1 0x40 MSTORE DUP1 PUSH1 0xB DUP2 MSTORE PUSH1 0x20 ADD PUSH32 0x4669727374205072697A65000000000000000000000000000000000000000000 DUP2 MSTORE POP SWAP1 POP PUSH2 0x1E0 JUMP JUMPDEST PUSH0 PUSH1 0x7 DUP4 PUSH2 0xE3 SWAP2 SWAP1 PUSH2 0x2B7 JUMP JUMPDEST EQ DUP1 PUSH2 0xFA JUMPI POP PUSH0 PUSH1 0xB DUP4 PUSH2 0xF8 SWAP2 SWAP1 PUSH2 0x2B7 JUMP JUMPDEST EQ JUMPDEST ISZERO PUSH2 0x13C JUMPI PUSH1 0x40 MLOAD DUP1 PUSH1 0x40 ADD PUSH1 0x40 MSTORE DUP1 PUSH1 0xC DUP2 MSTORE PUSH1 0x20 ADD PUSH32 0x5365636F6E64205072697A650000000000000000000000000000000000000000 DUP2 MSTORE POP SWAP1 POP PUSH2 0x1DF JUMP JUMPDEST PUSH0 PUSH1 0x5 DUP4 PUSH2 0x14A SWAP2 SWAP1 PUSH2 0x2B7 JUMP JUMPDEST EQ DUP1 ISZERO PUSH2 0x163 JUMPI POP PUSH0 PUSH1 0xA DUP4 PUSH2 0x160 SWAP2 SWAP1 PUSH2 0x2B7 JUMP JUMPDEST EQ ISZERO JUMPDEST ISZERO PUSH2 0x1A5 JUMPI PUSH1 0x40 MLOAD DUP1 PUSH1 0x40 ADD PUSH1 0x40 MSTORE DUP1 PUSH1 0xB DUP2 MSTORE PUSH1 0x20 ADD PUSH32 0x5468697264205072697A65000000000000000000000000000000000000000000 DUP2 MSTORE POP SWAP1 POP PUSH2 0x1DE JUMP JUMPDEST PUSH1 0x40 MLOAD DUP1 PUSH1 0x40 ADD PUSH1 0x40 MSTORE DUP1 PUSH1 0x8 DUP2 MSTORE PUSH1 0x20 ADD PUSH32 0x4E6F205072697A65000000000000000000000000000000000000000000000000 DUP2 MSTORE POP SWAP1 POP JUMPDEST JUMPDEST JUMPDEST PUSH32 0xB4C3C88EE9A2327546143B8E3988A69EBFADF6F5FF9C6EB7BD9BFC6F56E19500 DUP3 DUP3 PUSH1 0x40 MLOAD PUSH2 0x211 SWAP3 SWAP2 SWAP1 PUSH2 0x357 JUMP JUMPDEST PUSH1 0x40 MLOAD DUP1 SWAP2 SUB SWAP1 LOG1 POP POP JUMP JUMPDEST PUSH0 PUSH2 0x3E8 TIMESTAMP PUSH1 0x40 MLOAD PUSH1 0x20 ADD PUSH2 0x232 SWAP2 SWAP1 PUSH2 0x3A5 JUMP JUMPDEST PUSH1 0x40 MLOAD PUSH1 0x20 DUP2 DUP4 SUB SUB DUP2 MSTORE SWAP1 PUSH1 0x40 MSTORE DUP1 MLOAD SWAP1 PUSH1 0x20 ADD KECCAK256 PUSH0 SHR PUSH2 0x254 SWAP2 SWAP1 PUSH2 0x2B7 JUMP JUMPDEST SWAP1 POP SWAP1 JUMP JUMPDEST PUSH0 DUP2 SWAP1 POP SWAP2 SWAP1 POP JUMP JUMPDEST PUSH2 0x26B DUP2 PUSH2 0x259 JUMP JUMPDEST DUP3 MSTORE POP POP JUMP JUMPDEST PUSH0 PUSH1 0x20 DUP3 ADD SWAP1 POP PUSH2 0x284 PUSH0 DUP4 ADD DUP5 PUSH2 0x262 JUMP JUMPDEST SWAP3 SWAP2 POP POP JUMP JUMPDEST PUSH32 0x4E487B7100000000000000000000000000000000000000000000000000000000 PUSH0 MSTORE PUSH1 0x12 PUSH1 0x4 MSTORE PUSH1 0x24 PUSH0 REVERT JUMPDEST PUSH0 PUSH2 0x2C1 DUP3 PUSH2 0x259 JUMP JUMPDEST SWAP2 POP PUSH2 0x2CC DUP4 PUSH2 0x259 JUMP JUMPDEST SWAP3 POP DUP3 PUSH2 0x2DC JUMPI PUSH2 0x2DB PUSH2 0x28A JUMP JUMPDEST JUMPDEST DUP3 DUP3 MOD SWAP1 POP SWAP3 SWAP2 POP POP JUMP JUMPDEST PUSH0 DUP2 MLOAD SWAP1 POP SWAP2 SWAP1 POP JUMP JUMPDEST PUSH0 DUP3 DUP3 MSTORE PUSH1 0x20 DUP3 ADD SWAP1 POP SWAP3 SWAP2 POP POP JUMP JUMPDEST DUP3 DUP2 DUP4 MCOPY PUSH0 DUP4 DUP4 ADD MSTORE POP POP POP JUMP JUMPDEST PUSH0 PUSH1 0x1F NOT PUSH1 0x1F DUP4 ADD AND SWAP1 POP SWAP2 SWAP1 POP JUMP JUMPDEST PUSH0 PUSH2 0x329 DUP3 PUSH2 0x2E7 JUMP JUMPDEST PUSH2 0x333 DUP2 DUP6 PUSH2 0x2F1 JUMP JUMPDEST SWAP4 POP PUSH2 0x343 DUP2 DUP6 PUSH1 0x20 DUP7 ADD PUSH2 0x301 JUMP JUMPDEST PUSH2 0x34C DUP2 PUSH2 0x30F JUMP JUMPDEST DUP5 ADD SWAP2 POP POP SWAP3 SWAP2 POP POP JUMP JUMPDEST PUSH0 PUSH1 0x40 DUP3 ADD SWAP1 POP PUSH2 0x36A PUSH0 DUP4 ADD DUP6 PUSH2 0x262 JUMP JUMPDEST DUP2 DUP2 SUB PUSH1 0x20 DUP4 ADD MSTORE PUSH2 0x37C DUP2 DUP5 PUSH2 0x31F JUMP JUMPDEST SWAP1 POP SWAP4 SWAP3 POP POP POP JUMP JUMPDEST PUSH0 DUP2 SWAP1 POP SWAP2 SWAP1 POP JUMP JUMPDEST PUSH2 0x39F PUSH2 0x39A DUP3 PUSH2 0x259 JUMP JUMPDEST PUSH2 0x385 JUMP JUMPDEST DUP3 MSTORE POP POP JUMP JUMPDEST PUSH0 PUSH2 0x3B0 DUP3 DUP5 PUSH2 0x38E JUMP JUMPDEST PUSH1 0x20 DUP3 ADD SWAP2 POP DUP2 SWAP1 POP SWAP3 SWAP2 POP POP JUMP INVALID LOG2 PUSH5 0x6970667358 0x22 SLT KECCAK256 0xC3 LOG3 0xE8 0xBA EXTCODEHASH NOT ORIGIN 0xD2 0xEE 0xDB SHR 0xE4 SDIV SSTORE 0xE7 CALLCODE SHL PUSH24 0x83ECB1BA9A82F05CCEF41776625F64736F6C634300081A00 CALLER "
				},
				"gasEstimates": {
					"creation": {
						"codeDepositCost": "202600",
						"executionCost": "243",
						"totalCost": "202843"
					},
					"external": {
						"declarePrize()": "infinite",
						"generateRandomNumber()": "infinite"
					}
				},
				"methodIdentifiers": {
					"declarePrize()": "308ab966",
					"generateRandomNumber()": "773a1154"
				}
			},
			"storageLayout": {
				"storage": [],
				"types": null
			},
			"userdoc": {
				"kind": "user",
				"methods": {},
				"version": 1
			}
		}
	}
}