{
	"data": {
		"bytecode": {
			"linkReferences": {},
			"object": "608060405234801561000f575f80fd5b5060405161107238038061107283398181016040528101906100319190610209565b84848484835f908161004391906104f4565b50826001908161005391906104f4565b5081600281905550806003908161006a91906104f4565b5050505050806004908161007e91906104f4565b5050505050506105c3565b5f604051905090565b5f80fd5b5f80fd5b5f80fd5b5f80fd5b5f601f19601f8301169050919050565b7f4e487b71000000000000000000000000000000000000000000000000000000005f52604160045260245ffd5b6100e8826100a2565b810181811067ffffffffffffffff82111715610107576101066100b2565b5b80604052505050565b5f610119610089565b905061012582826100df565b919050565b5f67ffffffffffffffff821115610144576101436100b2565b5b61014d826100a2565b9050602081019050919050565b8281835e5f83830152505050565b5f61017a6101758461012a565b610110565b9050828152602081018484840111156101965761019561009e565b5b6101a184828561015a565b509392505050565b5f82601f8301126101bd576101bc61009a565b5b81516101cd848260208601610168565b91505092915050565b5f819050919050565b6101e8816101d6565b81146101f2575f80fd5b50565b5f81519050610203816101df565b92915050565b5f805f805f60a0868803121561022257610221610092565b5b5f86015167ffffffffffffffff81111561023f5761023e610096565b5b61024b888289016101a9565b955050602086015167ffffffffffffffff81111561026c5761026b610096565b5b610278888289016101a9565b9450506040610289888289016101f5565b935050606086015167ffffffffffffffff8111156102aa576102a9610096565b5b6102b6888289016101a9565b925050608086015167ffffffffffffffff8111156102d7576102d6610096565b5b6102e3888289016101a9565b9150509295509295909350565b5f81519050919050565b7f4e487b71000000000000000000000000000000000000000000000000000000005f52602260045260245ffd5b5f600282049050600182168061033e57607f821691505b602082108103610351576103506102fa565b5b50919050565b5f819050815f5260205f209050919050565b5f6020601f8301049050919050565b5f82821b905092915050565b5f600883026103b37fffffffffffffffffffffffffffffffffffffffffffffffffffffffffffffffff82610378565b6103bd8683610378565b95508019841693508086168417925050509392505050565b5f819050919050565b5f6103f86103f36103ee846101d6565b6103d5565b6101d6565b9050919050565b5f819050919050565b610411836103de565b61042561041d826103ff565b848454610384565b825550505050565b5f90565b61043961042d565b610444818484610408565b505050565b5b818110156104675761045c5f82610431565b60018101905061044a565b5050565b601f8211156104ac5761047d81610357565b61048684610369565b81016020851015610495578190505b6104a96104a185610369565b830182610449565b50505b505050565b5f82821c905092915050565b5f6104cc5f19846008026104b1565b1980831691505092915050565b5f6104e483836104bd565b9150826002028217905092915050565b6104fd826102f0565b67ffffffffffffffff811115610516576105156100b2565b5b6105208254610327565b61052b82828561046b565b5f60209050601f83116001811461055c575f841561054a578287015190505b61055485826104d9565b8655506105bb565b601f19841661056a86610357565b5f5b828110156105915784890151825560018201915060208501945060208101905061056c565b868310156105ae57848901516105aa601f8916826104bd565b8355505b6001600288020188555050505b505050505050565b610aa2806105d05f395ff3fe608060405234801561000f575f80fd5b5060043610610086575f3560e01c8063912462b611610059578063912462b6146101025780639a33e3001461011e578063a4e7d4371461013c578063d46d71511461015a57610086565b80630397b6521461008a57806306fdde03146100a857806326c5c154146100c65780633ff4b938146100e4575b5f80fd5b610092610178565b60405161009f9190610417565b60405180910390f35b6100b061017e565b6040516100bd91906104a0565b60405180910390f35b6100ce610209565b6040516100db91906104a0565b60405180910390f35b6100ec610295565b6040516100f991906104a0565b60405180910390f35b61011c600480360381019061011791906105fd565b610321565b005b610126610334565b60405161013391906104a0565b60405180910390f35b6101446103c0565b6040516101519190610417565b60405180910390f35b6101626103d5565b60405161016f91906104a0565b60405180910390f35b60025481565b5f805461018a90610671565b80601f01602080910402602001604051908101604052809291908181526020018280546101b690610671565b80156102015780601f106101d857610100808354040283529160200191610201565b820191905f5260205f20905b8154815290600101906020018083116101e457829003601f168201915b505050505081565b6001805461021690610671565b80601f016020809104026020016040519081016040528092919081815260200182805461024290610671565b801561028d5780601f106102645761010080835404028352916020019161028d565b820191905f5260205f20905b81548152906001019060200180831161027057829003601f168201915b505050505081565b600380546102a290610671565b80601f01602080910402602001604051908101604052809291908181526020018280546102ce90610671565b80156103195780601f106102f057610100808354040283529160200191610319565b820191905f5260205f20905b8154815290600101906020018083116102fc57829003601f168201915b505050505081565b8060049081610330919061083e565b5050565b6004805461034190610671565b80601f016020809104026020016040519081016040528092919081815260200182805461036d90610671565b80156103b85780601f1061038f576101008083540402835291602001916103b8565b820191905f5260205f20905b81548152906001019060200180831161039b57829003601f168201915b505050505081565b5f600a6002546103d0919061093a565b905090565b60605f60036040516020016103eb929190610a3e565b604051602081830303815290604052905090565b5f819050919050565b610411816103ff565b82525050565b5f60208201905061042a5f830184610408565b92915050565b5f81519050919050565b5f82825260208201905092915050565b8281835e5f83830152505050565b5f601f19601f8301169050919050565b5f61047282610430565b61047c818561043a565b935061048c81856020860161044a565b61049581610458565b840191505092915050565b5f6020820190508181035f8301526104b88184610468565b905092915050565b5f604051905090565b5f80fd5b5f80fd5b5f80fd5b5f80fd5b7f4e487b71000000000000000000000000000000000000000000000000000000005f52604160045260245ffd5b61050f82610458565b810181811067ffffffffffffffff8211171561052e5761052d6104d9565b5b80604052505050565b5f6105406104c0565b905061054c8282610506565b919050565b5f67ffffffffffffffff82111561056b5761056a6104d9565b5b61057482610458565b9050602081019050919050565b828183375f83830152505050565b5f6105a161059c84610551565b610537565b9050828152602081018484840111156105bd576105bc6104d5565b5b6105c8848285610581565b509392505050565b5f82601f8301126105e4576105e36104d1565b5b81356105f484826020860161058f565b91505092915050565b5f60208284031215610612576106116104c9565b5b5f82013567ffffffffffffffff81111561062f5761062e6104cd565b5b61063b848285016105d0565b91505092915050565b7f4e487b71000000000000000000000000000000000000000000000000000000005f52602260045260245ffd5b5f600282049050600182168061068857607f821691505b60208210810361069b5761069a610644565b5b50919050565b5f819050815f5260205f209050919050565b5f6020601f8301049050919050565b5f82821b905092915050565b5f600883026106fd7fffffffffffffffffffffffffffffffffffffffffffffffffffffffffffffffff826106c2565b61070786836106c2565b95508019841693508086168417925050509392505050565b5f819050919050565b5f61074261073d610738846103ff565b61071f565b6103ff565b9050919050565b5f819050919050565b61075b83610728565b61076f61076782610749565b8484546106ce565b825550505050565b5f90565b610783610777565b61078e818484610752565b505050565b5b818110156107b1576107a65f8261077b565b600181019050610794565b5050565b601f8211156107f6576107c7816106a1565b6107d0846106b3565b810160208510156107df578190505b6107f36107eb856106b3565b830182610793565b50505b505050565b5f82821c905092915050565b5f6108165f19846008026107fb565b1980831691505092915050565b5f61082e8383610807565b9150826002028217905092915050565b61084782610430565b67ffffffffffffffff8111156108605761085f6104d9565b5b61086a8254610671565b6108758282856107b5565b5f60209050601f8311600181146108a6575f8415610894578287015190505b61089e8582610823565b865550610905565b601f1984166108b4866106a1565b5f5b828110156108db578489015182556001820191506020850194506020810190506108b6565b868310156108f857848901516108f4601f891682610807565b8355505b6001600288020188555050505b505050505050565b7f4e487b71000000000000000000000000000000000000000000000000000000005f52601260045260245ffd5b5f610944826103ff565b915061094f836103ff565b92508261095f5761095e61090d565b5b828204905092915050565b5f81905092915050565b5f815461098081610671565b61098a818661096a565b9450600182165f81146109a457600181146109b9576109eb565b60ff19831686528115158202860193506109eb565b6109c2856106a1565b5f5b838110156109e3578154818901526001820191506020810190506109c4565b838801955050505b50505092915050565b7f20697320706572666f726d696e672077656c6c206173206120000000000000005f82015250565b5f610a2860198361096a565b9150610a33826109f4565b601982019050919050565b5f610a498285610974565b9150610a5482610a1c565b9150610a608284610974565b9150819050939250505056fea264697066735822122049c622e4cc5526f32dbb7bfd2992df458c826beabd249752f29af4b35bc887dd64736f6c634300081a0033",
			"opcodes": "PUSH1 0x80 PUSH1 0x40 MSTORE CALLVALUE DUP1 ISZERO PUSH2 0xF JUMPI PUSH0 DUP1 REVERT JUMPDEST POP PUSH1 0x40 MLOAD PUSH2 0x1072 CODESIZE SUB DUP1 PUSH2 0x1072 DUP4 CODECOPY DUP2 DUP2 ADD PUSH1 0x40 MSTORE DUP2 ADD SWAP1 PUSH2 0x31 SWAP2 SWAP1 PUSH2 0x209 JUMP JUMPDEST DUP5 DUP5 DUP5 DUP5 DUP4 PUSH0 SWAP1 DUP2 PUSH2 0x43 SWAP2 SWAP1 PUSH2 0x4F4 JUMP JUMPDEST POP DUP3 PUSH1 0x1 SWAP1 DUP2 PUSH2 0x53 SWAP2 SWAP1 PUSH2 0x4F4 JUMP JUMPDEST POP DUP2 PUSH1 0x2 DUP2 SWAP1 SSTORE POP DUP1 PUSH1 0x3 SWAP1 DUP2 PUSH2 0x6A SWAP2 SWAP1 PUSH2 0x4F4 JUMP JUMPDEST POP POP POP POP POP DUP1 PUSH1 0x4 SWAP1 DUP2 PUSH2 0x7E SWAP2 SWAP1 PUSH2 0x4F4 JUMP JUMPDEST POP POP POP POP POP POP PUSH2 0x5C3 JUMP JUMPDEST PUSH0 PUSH1 0x40 MLOAD SWAP1 POP SWAP1 JUMP JUMPDEST PUSH0 DUP1 REVERT JUMPDEST PUSH0 DUP1 REVERT JUMPDEST PUSH0 DUP1 REVERT JUMPDEST PUSH0 DUP1 REVERT JUMPDEST PUSH0 PUSH1 0x1F NOT PUSH1 0x1F DUP4 ADD AND SWAP1 POP SWAP2 SWAP1 POP JUMP JUMPDEST PUSH32 0x4E487B7100000000000000000000000000000000000000000000000000000000 PUSH0 MSTORE PUSH1 0x41 PUSH1 0x4 MSTORE PUSH1 0x24 PUSH0 REVERT JUMPDEST PUSH2 0xE8 DUP3 PUSH2 0xA2 JUMP JUMPDEST DUP2 ADD DUP2 DUP2 LT PUSH8 0xFFFFFFFFFFFFFFFF DUP3 GT OR ISZERO PUSH2 0x107 JUMPI PUSH2 0x106 PUSH2 0xB2 JUMP JUMPDEST JUMPDEST DUP1 PUSH1 0x40 MSTORE POP POP POP JUMP JUMPDEST PUSH0 PUSH2 0x119 PUSH2 0x89 JUMP JUMPDEST SWAP1 POP PUSH2 0x125 DUP3 DUP3 PUSH2 0xDF JUMP JUMPDEST SWAP2 SWAP1 POP JUMP JUMPDEST PUSH0 PUSH8 0xFFFFFFFFFFFFFFFF DUP3 GT ISZERO PUSH2 0x144 JUMPI PUSH2 0x143 PUSH2 0xB2 JUMP JUMPDEST JUMPDEST PUSH2 0x14D DUP3 PUSH2 0xA2 JUMP JUMPDEST SWAP1 POP PUSH1 0x20 DUP2 ADD SWAP1 POP SWAP2 SWAP1 POP JUMP JUMPDEST DUP3 DUP2 DUP4 MCOPY PUSH0 DUP4 DUP4 ADD MSTORE POP POP POP JUMP JUMPDEST PUSH0 PUSH2 0x17A PUSH2 0x175 DUP5 PUSH2 0x12A JUMP JUMPDEST PUSH2 0x110 JUMP JUMPDEST SWAP1 POP DUP3 DUP2 MSTORE PUSH1 0x20 DUP2 ADD DUP5 DUP5 DUP5 ADD GT ISZERO PUSH2 0x196 JUMPI PUSH2 0x195 PUSH2 0x9E JUMP JUMPDEST JUMPDEST PUSH2 0x1A1 DUP5 DUP3 DUP6 PUSH2 0x15A JUMP JUMPDEST POP SWAP4 SWAP3 POP POP POP JUMP JUMPDEST PUSH0 DUP3 PUSH1 0x1F DUP4 ADD SLT PUSH2 0x1BD JUMPI PUSH2 0x1BC PUSH2 0x9A JUMP JUMPDEST JUMPDEST DUP2 MLOAD PUSH2 0x1CD DUP5 DUP3 PUSH1 0x20 DUP7 ADD PUSH2 0x168 JUMP JUMPDEST SWAP2 POP POP SWAP3 SWAP2 POP POP JUMP JUMPDEST PUSH0 DUP2 SWAP1 POP SWAP2 SWAP1 POP JUMP JUMPDEST PUSH2 0x1E8 DUP2 PUSH2 0x1D6 JUMP JUMPDEST DUP2 EQ PUSH2 0x1F2 JUMPI PUSH0 DUP1 REVERT JUMPDEST POP JUMP JUMPDEST PUSH0 DUP2 MLOAD SWAP1 POP PUSH2 0x203 DUP2 PUSH2 0x1DF JUMP JUMPDEST SWAP3 SWAP2 POP POP JUMP JUMPDEST PUSH0 DUP1 PUSH0 DUP1 PUSH0 PUSH1 0xA0 DUP7 DUP9 SUB SLT ISZERO PUSH2 0x222 JUMPI PUSH2 0x221 PUSH2 0x92 JUMP JUMPDEST JUMPDEST PUSH0 DUP7 ADD MLOAD PUSH8 0xFFFFFFFFFFFFFFFF DUP2 GT ISZERO PUSH2 0x23F JUMPI PUSH2 0x23E PUSH2 0x96 JUMP JUMPDEST JUMPDEST PUSH2 0x24B DUP9 DUP3 DUP10 ADD PUSH2 0x1A9 JUMP JUMPDEST SWAP6 POP POP PUSH1 0x20 DUP7 ADD MLOAD PUSH8 0xFFFFFFFFFFFFFFFF DUP2 GT ISZERO PUSH2 0x26C JUMPI PUSH2 0x26B PUSH2 0x96 JUMP JUMPDEST JUMPDEST PUSH2 0x278 DUP9 DUP3 DUP10 ADD PUSH2 0x1A9 JUMP JUMPDEST SWAP5 POP POP PUSH1 0x40 PUSH2 0x289 DUP9 DUP3 DUP10 ADD PUSH2 0x1F5 JUMP JUMPDEST SWAP4 POP POP PUSH1 0x60 DUP7 ADD MLOAD PUSH8 0xFFFFFFFFFFFFFFFF DUP2 GT ISZERO PUSH2 0x2AA JUMPI PUSH2 0x2A9 PUSH2 0x96 JUMP JUMPDEST JUMPDEST PUSH2 0x2B6 DUP9 DUP3 DUP10 ADD PUSH2 0x1A9 JUMP JUMPDEST SWAP3 POP POP PUSH1 0x80 DUP7 ADD MLOAD PUSH8 0xFFFFFFFFFFFFFFFF DUP2 GT ISZERO PUSH2 0x2D7 JUMPI PUSH2 0x2D6 PUSH2 0x96 JUMP JUMPDEST JUMPDEST PUSH2 0x2E3 DUP9 DUP3 DUP10 ADD PUSH2 0x1A9 JUMP JUMPDEST SWAP2 POP POP SWAP3 SWAP6 POP SWAP3 SWAP6 SWAP1 SWAP4 POP JUMP JUMPDEST PUSH0 DUP2 MLOAD SWAP1 POP SWAP2 SWAP1 POP JUMP JUMPDEST PUSH32 0x4E487B7100000000000000000000000000000000000000000000000000000000 PUSH0 MSTORE PUSH1 0x22 PUSH1 0x4 MSTORE PUSH1 0x24 PUSH0 REVERT JUMPDEST PUSH0 PUSH1 0x2 DUP3 DIV SWAP1 POP PUSH1 0x1 DUP3 AND DUP1 PUSH2 0x33E JUMPI PUSH1 0x7F DUP3 AND SWAP2 POP JUMPDEST PUSH1 0x20 DUP3 LT DUP2 SUB PUSH2 0x351 JUMPI PUSH2 0x350 PUSH2 0x2FA JUMP JUMPDEST JUMPDEST POP SWAP2 SWAP1 POP JUMP JUMPDEST PUSH0 DUP2 SWAP1 POP DUP2 PUSH0 MSTORE PUSH1 0x20 PUSH0 KECCAK256 SWAP1 POP SWAP2 SWAP1 POP JUMP JUMPDEST PUSH0 PUSH1 0x20 PUSH1 0x1F DUP4 ADD DIV SWAP1 POP SWAP2 SWAP1 POP JUMP JUMPDEST PUSH0 DUP3 DUP3 SHL SWAP1 POP SWAP3 SWAP2 POP POP JUMP JUMPDEST PUSH0 PUSH1 0x8 DUP4 MUL PUSH2 0x3B3 PUSH32 0xFFFFFFFFFFFFFFFFFFFFFFFFFFFFFFFFFFFFFFFFFFFFFFFFFFFFFFFFFFFFFFFF DUP3 PUSH2 0x378 JUMP JUMPDEST PUSH2 0x3BD DUP7 DUP4 PUSH2 0x378 JUMP JUMPDEST SWAP6 POP DUP1 NOT DUP5 AND SWAP4 POP DUP1 DUP7 AND DUP5 OR SWAP3 POP POP POP SWAP4 SWAP3 POP POP POP JUMP JUMPDEST PUSH0 DUP2 SWAP1 POP SWAP2 SWAP1 POP JUMP JUMPDEST PUSH0 PUSH2 0x3F8 PUSH2 0x3F3 PUSH2 0x3EE DUP5 PUSH2 0x1D6 JUMP JUMPDEST PUSH2 0x3D5 JUMP JUMPDEST PUSH2 0x1D6 JUMP JUMPDEST SWAP1 POP SWAP2 SWAP1 POP JUMP JUMPDEST PUSH0 DUP2 SWAP1 POP SWAP2 SWAP1 POP JUMP JUMPDEST PUSH2 0x411 DUP4 PUSH2 0x3DE JUMP JUMPDEST PUSH2 0x425 PUSH2 0x41D DUP3 PUSH2 0x3FF JUMP JUMPDEST DUP5 DUP5 SLOAD PUSH2 0x384 JUMP JUMPDEST DUP3 SSTORE POP POP POP POP JUMP JUMPDEST PUSH0 SWAP1 JUMP JUMPDEST PUSH2 0x439 PUSH2 0x42D JUMP JUMPDEST PUSH2 0x444 DUP2 DUP5 DUP5 PUSH2 0x408 JUMP JUMPDEST POP POP POP JUMP JUMPDEST JUMPDEST DUP2 DUP2 LT ISZERO PUSH2 0x467 JUMPI PUSH2 0x45C PUSH0 DUP3 PUSH2 0x431 JUMP JUMPDEST PUSH1 0x1 DUP2 ADD SWAP1 POP PUSH2 0x44A JUMP JUMPDEST POP POP JUMP JUMPDEST PUSH1 0x1F DUP3 GT ISZERO PUSH2 0x4AC JUMPI PUSH2 0x47D DUP2 PUSH2 0x357 JUMP JUMPDEST PUSH2 0x486 DUP5 PUSH2 0x369 JUMP JUMPDEST DUP2 ADD PUSH1 0x20 DUP6 LT ISZERO PUSH2 0x495 JUMPI DUP2 SWAP1 POP JUMPDEST PUSH2 0x4A9 PUSH2 0x4A1 DUP6 PUSH2 0x369 JUMP JUMPDEST DUP4 ADD DUP3 PUSH2 0x449 JUMP JUMPDEST POP POP JUMPDEST POP POP POP JUMP JUMPDEST PUSH0 DUP3 DUP3 SHR SWAP1 POP SWAP3 SWAP2 POP POP JUMP JUMPDEST PUSH0 PUSH2 0x4CC PUSH0 NOT DUP5 PUSH1 0x8 MUL PUSH2 0x4B1 JUMP JUMPDEST NOT DUP1 DUP4 AND SWAP2 POP POP SWAP3 SWAP2 POP POP JUMP JUMPDEST PUSH0 PUSH2 0x4E4 DUP4 DUP4 PUSH2 0x4BD JUMP JUMPDEST SWAP2 POP DUP3 PUSH1 0x2 MUL DUP3 OR SWAP1 POP SWAP3 SWAP2 POP POP JUMP JUMPDEST PUSH2 0x4FD DUP3 PUSH2 0x2F0 JUMP JUMPDEST PUSH8 0xFFFFFFFFFFFFFFFF DUP2 GT ISZERO PUSH2 0x516 JUMPI PUSH2 0x515 PUSH2 0xB2 JUMP JUMPDEST JUMPDEST PUSH2 0x520 DUP3 SLOAD PUSH2 0x327 JUMP JUMPDEST PUSH2 0x52B DUP3 DUP3 DUP6 PUSH2 0x46B JUMP JUMPDEST PUSH0 PUSH1 0x20 SWAP1 POP PUSH1 0x1F DUP4 GT PUSH1 0x1 DUP2 EQ PUSH2 0x55C JUMPI PUSH0 DUP5 ISZERO PUSH2 0x54A JUMPI DUP3 DUP8 ADD MLOAD SWAP1 POP JUMPDEST PUSH2 0x554 DUP6 DUP3 PUSH2 0x4D9 JUMP JUMPDEST DUP7 SSTORE POP PUSH2 0x5BB JUMP JUMPDEST PUSH1 0x1F NOT DUP5 AND PUSH2 0x56A DUP7 PUSH2 0x357 JUMP JUMPDEST PUSH0 JUMPDEST DUP3 DUP2 LT ISZERO PUSH2 0x591 JUMPI DUP5 DUP10 ADD MLOAD DUP3 SSTORE PUSH1 0x1 DUP3 ADD SWAP2 POP PUSH1 0x20 DUP6 ADD SWAP5 POP PUSH1 0x20 DUP2 ADD SWAP1 POP PUSH2 0x56C JUMP JUMPDEST DUP7 DUP4 LT ISZERO PUSH2 0x5AE JUMPI DUP5 DUP10 ADD MLOAD PUSH2 0x5AA PUSH1 0x1F DUP10 AND DUP3 PUSH2 0x4BD JUMP JUMPDEST DUP4 SSTORE POP JUMPDEST PUSH1 0x1 PUSH1 0x2 DUP9 MUL ADD DUP9 SSTORE POP POP POP JUMPDEST POP POP POP POP POP POP JUMP JUMPDEST PUSH2 0xAA2 DUP1 PUSH2 0x5D0 PUSH0 CODECOPY PUSH0 RETURN INVALID PUSH1 0x80 PUSH1 0x40 MSTORE CALLVALUE DUP1 ISZERO PUSH2 0xF JUMPI PUSH0 DUP1 REVERT JUMPDEST POP PUSH1 0x4 CALLDATASIZE LT PUSH2 0x86 JUMPI PUSH0 CALLDATALOAD PUSH1 0xE0 SHR DUP1 PUSH4 0x912462B6 GT PUSH2 0x59 JUMPI DUP1 PUSH4 0x912462B6 EQ PUSH2 0x102 JUMPI DUP1 PUSH4 0x9A33E300 EQ PUSH2 0x11E JUMPI DUP1 PUSH4 0xA4E7D437 EQ PUSH2 0x13C JUMPI DUP1 PUSH4 0xD46D7151 EQ PUSH2 0x15A JUMPI PUSH2 0x86 JUMP JUMPDEST DUP1 PUSH4 0x397B652 EQ PUSH2 0x8A JUMPI DUP1 PUSH4 0x6FDDE03 EQ PUSH2 0xA8 JUMPI DUP1 PUSH4 0x26C5C154 EQ PUSH2 0xC6 JUMPI DUP1 PUSH4 0x3FF4B938 EQ PUSH2 0xE4 JUMPI JUMPDEST PUSH0 DUP1 REVERT JUMPDEST PUSH2 0x92 PUSH2 0x178 JUMP JUMPDEST PUSH1 0x40 MLOAD PUSH2 0x9F SWAP2 SWAP1 PUSH2 0x417 JUMP JUMPDEST PUSH1 0x40 MLOAD DUP1 SWAP2 SUB SWAP1 RETURN JUMPDEST PUSH2 0xB0 PUSH2 0x17E JUMP JUMPDEST PUSH1 0x40 MLOAD PUSH2 0xBD SWAP2 SWAP1 PUSH2 0x4A0 JUMP JUMPDEST PUSH1 0x40 MLOAD DUP1 SWAP2 SUB SWAP1 RETURN JUMPDEST PUSH2 0xCE PUSH2 0x209 JUMP JUMPDEST PUSH1 0x40 MLOAD PUSH2 0xDB SWAP2 SWAP1 PUSH2 0x4A0 JUMP JUMPDEST PUSH1 0x40 MLOAD DUP1 SWAP2 SUB SWAP1 RETURN JUMPDEST PUSH2 0xEC PUSH2 0x295 JUMP JUMPDEST PUSH1 0x40 MLOAD PUSH2 0xF9 SWAP2 SWAP1 PUSH2 0x4A0 JUMP JUMPDEST PUSH1 0x40 MLOAD DUP1 SWAP2 SUB SWAP1 RETURN JUMPDEST PUSH2 0x11C PUSH1 0x4 DUP1 CALLDATASIZE SUB DUP2 ADD SWAP1 PUSH2 0x117 SWAP2 SWAP1 PUSH2 0x5FD JUMP JUMPDEST PUSH2 0x321 JUMP JUMPDEST STOP JUMPDEST PUSH2 0x126 PUSH2 0x334 JUMP JUMPDEST PUSH1 0x40 MLOAD PUSH2 0x133 SWAP2 SWAP1 PUSH2 0x4A0 JUMP JUMPDEST PUSH1 0x40 MLOAD DUP1 SWAP2 SUB SWAP1 RETURN JUMPDEST PUSH2 0x144 PUSH2 0x3C0 JUMP JUMPDEST PUSH1 0x40 MLOAD PUSH2 0x151 SWAP2 SWAP1 PUSH2 0x417 JUMP JUMPDEST PUSH1 0x40 MLOAD DUP1 SWAP2 SUB SWAP1 RETURN JUMPDEST PUSH2 0x162 PUSH2 0x3D5 JUMP JUMPDEST PUSH1 0x40 MLOAD PUSH2 0x16F SWAP2 SWAP1 PUSH2 0x4A0 JUMP JUMPDEST PUSH1 0x40 MLOAD DUP1 SWAP2 SUB SWAP1 RETURN JUMPDEST PUSH1 0x2 SLOAD DUP2 JUMP JUMPDEST PUSH0 DUP1 SLOAD PUSH2 0x18A SWAP1 PUSH2 0x671 JUMP JUMPDEST DUP1 PUSH1 0x1F ADD PUSH1 0x20 DUP1 SWAP2 DIV MUL PUSH1 0x20 ADD PUSH1 0x40 MLOAD SWAP1 DUP2 ADD PUSH1 0x40 MSTORE DUP1 SWAP3 SWAP2 SWAP1 DUP2 DUP2 MSTORE PUSH1 0x20 ADD DUP3 DUP1 SLOAD PUSH2 0x1B6 SWAP1 PUSH2 0x671 JUMP JUMPDEST DUP1 ISZERO PUSH2 0x201 JUMPI DUP1 PUSH1 0x1F LT PUSH2 0x1D8 JUMPI PUSH2 0x100 DUP1 DUP4 SLOAD DIV MUL DUP4 MSTORE SWAP2 PUSH1 0x20 ADD SWAP2 PUSH2 0x201 JUMP JUMPDEST DUP3 ADD SWAP2 SWAP1 PUSH0 MSTORE PUSH1 0x20 PUSH0 KECCAK256 SWAP1 JUMPDEST DUP2 SLOAD DUP2 MSTORE SWAP1 PUSH1 0x1 ADD SWAP1 PUSH1 0x20 ADD DUP1 DUP4 GT PUSH2 0x1E4 JUMPI DUP3 SWAP1 SUB PUSH1 0x1F AND DUP3 ADD SWAP2 JUMPDEST POP POP POP POP POP DUP2 JUMP JUMPDEST PUSH1 0x1 DUP1 SLOAD PUSH2 0x216 SWAP1 PUSH2 0x671 JUMP JUMPDEST DUP1 PUSH1 0x1F ADD PUSH1 0x20 DUP1 SWAP2 DIV MUL PUSH1 0x20 ADD PUSH1 0x40 MLOAD SWAP1 DUP2 ADD PUSH1 0x40 MSTORE DUP1 SWAP3 SWAP2 SWAP1 DUP2 DUP2 MSTORE PUSH1 0x20 ADD DUP3 DUP1 SLOAD PUSH2 0x242 SWAP1 PUSH2 0x671 JUMP JUMPDEST DUP1 ISZERO PUSH2 0x28D JUMPI DUP1 PUSH1 0x1F LT PUSH2 0x264 JUMPI PUSH2 0x100 DUP1 DUP4 SLOAD DIV MUL DUP4 MSTORE SWAP2 PUSH1 0x20 ADD SWAP2 PUSH2 0x28D JUMP JUMPDEST DUP3 ADD SWAP2 SWAP1 PUSH0 MSTORE PUSH1 0x20 PUSH0 KECCAK256 SWAP1 JUMPDEST DUP2 SLOAD DUP2 MSTORE SWAP1 PUSH1 0x1 ADD SWAP1 PUSH1 0x20 ADD DUP1 DUP4 GT PUSH2 0x270 JUMPI DUP3 SWAP1 SUB PUSH1 0x1F AND DUP3 ADD SWAP2 JUMPDEST POP POP POP POP POP DUP2 JUMP JUMPDEST PUSH1 0x3 DUP1 SLOAD PUSH2 0x2A2 SWAP1 PUSH2 0x671 JUMP JUMPDEST DUP1 PUSH1 0x1F ADD PUSH1 0x20 DUP1 SWAP2 DIV MUL PUSH1 0x20 ADD PUSH1 0x40 MLOAD SWAP1 DUP2 ADD PUSH1 0x40 MSTORE DUP1 SWAP3 SWAP2 SWAP1 DUP2 DUP2 MSTORE PUSH1 0x20 ADD DUP3 DUP1 SLOAD PUSH2 0x2CE SWAP1 PUSH2 0x671 JUMP JUMPDEST DUP1 ISZERO PUSH2 0x319 JUMPI DUP1 PUSH1 0x1F LT PUSH2 0x2F0 JUMPI PUSH2 0x100 DUP1 DUP4 SLOAD DIV MUL DUP4 MSTORE SWAP2 PUSH1 0x20 ADD SWAP2 PUSH2 0x319 JUMP JUMPDEST DUP3 ADD SWAP2 SWAP1 PUSH0 MSTORE PUSH1 0x20 PUSH0 KECCAK256 SWAP1 JUMPDEST DUP2 SLOAD DUP2 MSTORE SWAP1 PUSH1 0x1 ADD SWAP1 PUSH1 0x20 ADD DUP1 DUP4 GT PUSH2 0x2FC JUMPI DUP3 SWAP1 SUB PUSH1 0x1F AND DUP3 ADD SWAP2 JUMPDEST POP POP POP POP POP DUP2 JUMP JUMPDEST DUP1 PUSH1 0x4 SWAP1 DUP2 PUSH2 0x330 SWAP2 SWAP1 PUSH2 0x83E JUMP JUMPDEST POP POP JUMP JUMPDEST PUSH1 0x4 DUP1 SLOAD PUSH2 0x341 SWAP1 PUSH2 0x671 JUMP JUMPDEST DUP1 PUSH1 0x1F ADD PUSH1 0x20 DUP1 SWAP2 DIV MUL PUSH1 0x20 ADD PUSH1 0x40 MLOAD SWAP1 DUP2 ADD PUSH1 0x40 MSTORE DUP1 SWAP3 SWAP2 SWAP1 DUP2 DUP2 MSTORE PUSH1 0x20 ADD DUP3 DUP1 SLOAD PUSH2 0x36D SWAP1 PUSH2 0x671 JUMP JUMPDEST DUP1 ISZERO PUSH2 0x3B8 JUMPI DUP1 PUSH1 0x1F LT PUSH2 0x38F JUMPI PUSH2 0x100 DUP1 DUP4 SLOAD DIV MUL DUP4 MSTORE SWAP2 PUSH1 0x20 ADD SWAP2 PUSH2 0x3B8 JUMP JUMPDEST DUP3 ADD SWAP2 SWAP1 PUSH0 MSTORE PUSH1 0x20 PUSH0 KECCAK256 SWAP1 JUMPDEST DUP2 SLOAD DUP2 MSTORE SWAP1 PUSH1 0x1 ADD SWAP1 PUSH1 0x20 ADD DUP1 DUP4 GT PUSH2 0x39B JUMPI DUP3 SWAP1 SUB PUSH1 0x1F AND DUP3 ADD SWAP2 JUMPDEST POP POP POP POP POP DUP2 JUMP JUMPDEST PUSH0 PUSH1 0xA PUSH1 0x2 SLOAD PUSH2 0x3D0 SWAP2 SWAP1 PUSH2 0x93A JUMP JUMPDEST SWAP1 POP SWAP1 JUMP JUMPDEST PUSH1 0x60 PUSH0 PUSH1 0x3 PUSH1 0x40 MLOAD PUSH1 0x20 ADD PUSH2 0x3EB SWAP3 SWAP2 SWAP1 PUSH2 0xA3E JUMP JUMPDEST PUSH1 0x40 MLOAD PUSH1 0x20 DUP2 DUP4 SUB SUB DUP2 MSTORE SWAP1 PUSH1 0x40 MSTORE SWAP1 POP SWAP1 JUMP JUMPDEST PUSH0 DUP2 SWAP1 POP SWAP2 SWAP1 POP JUMP JUMPDEST PUSH2 0x411 DUP2 PUSH2 0x3FF JUMP JUMPDEST DUP3 MSTORE POP POP JUMP JUMPDEST PUSH0 PUSH1 0x20 DUP3 ADD SWAP1 POP PUSH2 0x42A PUSH0 DUP4 ADD DUP5 PUSH2 0x408 JUMP JUMPDEST SWAP3 SWAP2 POP POP JUMP JUMPDEST PUSH0 DUP2 MLOAD SWAP1 POP SWAP2 SWAP1 POP JUMP JUMPDEST PUSH0 DUP3 DUP3 MSTORE PUSH1 0x20 DUP3 ADD SWAP1 POP SWAP3 SWAP2 POP POP JUMP JUMPDEST DUP3 DUP2 DUP4 MCOPY PUSH0 DUP4 DUP4 ADD MSTORE POP POP POP JUMP JUMPDEST PUSH0 PUSH1 0x1F NOT PUSH1 0x1F DUP4 ADD AND SWAP1 POP SWAP2 SWAP1 POP JUMP JUMPDEST PUSH0 PUSH2 0x472 DUP3 PUSH2 0x430 JUMP JUMPDEST PUSH2 0x47C DUP2 DUP6 PUSH2 0x43A JUMP JUMPDEST SWAP4 POP PUSH2 0x48C DUP2 DUP6 PUSH1 0x20 DUP7 ADD PUSH2 0x44A JUMP JUMPDEST PUSH2 0x495 DUP2 PUSH2 0x458 JUMP JUMPDEST DUP5 ADD SWAP2 POP POP SWAP3 SWAP2 POP POP JUMP JUMPDEST PUSH0 PUSH1 0x20 DUP3 ADD SWAP1 POP DUP2 DUP2 SUB PUSH0 DUP4 ADD MSTORE PUSH2 0x4B8 DUP2 DUP5 PUSH2 0x468 JUMP JUMPDEST SWAP1 POP SWAP3 SWAP2 POP POP JUMP JUMPDEST PUSH0 PUSH1 0x40 MLOAD SWAP1 POP SWAP1 JUMP JUMPDEST PUSH0 DUP1 REVERT JUMPDEST PUSH0 DUP1 REVERT JUMPDEST PUSH0 DUP1 REVERT JUMPDEST PUSH0 DUP1 REVERT JUMPDEST PUSH32 0x4E487B7100000000000000000000000000000000000000000000000000000000 PUSH0 MSTORE PUSH1 0x41 PUSH1 0x4 MSTORE PUSH1 0x24 PUSH0 REVERT JUMPDEST PUSH2 0x50F DUP3 PUSH2 0x458 JUMP JUMPDEST DUP2 ADD DUP2 DUP2 LT PUSH8 0xFFFFFFFFFFFFFFFF DUP3 GT OR ISZERO PUSH2 0x52E JUMPI PUSH2 0x52D PUSH2 0x4D9 JUMP JUMPDEST JUMPDEST DUP1 PUSH1 0x40 MSTORE POP POP POP JUMP JUMPDEST PUSH0 PUSH2 0x540 PUSH2 0x4C0 JUMP JUMPDEST SWAP1 POP PUSH2 0x54C DUP3 DUP3 PUSH2 0x506 JUMP JUMPDEST SWAP2 SWAP1 POP JUMP JUMPDEST PUSH0 PUSH8 0xFFFFFFFFFFFFFFFF DUP3 GT ISZERO PUSH2 0x56B JUMPI PUSH2 0x56A PUSH2 0x4D9 JUMP JUMPDEST JUMPDEST PUSH2 0x574 DUP3 PUSH2 0x458 JUMP JUMPDEST SWAP1 POP PUSH1 0x20 DUP2 ADD SWAP1 POP SWAP2 SWAP1 POP JUMP JUMPDEST DUP3 DUP2 DUP4 CALLDATACOPY PUSH0 DUP4 DUP4 ADD MSTORE POP POP POP JUMP JUMPDEST PUSH0 PUSH2 0x5A1 PUSH2 0x59C DUP5 PUSH2 0x551 JUMP JUMPDEST PUSH2 0x537 JUMP JUMPDEST SWAP1 POP DUP3 DUP2 MSTORE PUSH1 0x20 DUP2 ADD DUP5 DUP5 DUP5 ADD GT ISZERO PUSH2 0x5BD JUMPI PUSH2 0x5BC PUSH2 0x4D5 JUMP JUMPDEST JUMPDEST PUSH2 0x5C8 DUP5 DUP3 DUP6 PUSH2 0x581 JUMP JUMPDEST POP SWAP4 SWAP3 POP POP POP JUMP JUMPDEST PUSH0 DUP3 PUSH1 0x1F DUP4 ADD SLT PUSH2 0x5E4 JUMPI PUSH2 0x5E3 PUSH2 0x4D1 JUMP JUMPDEST JUMPDEST DUP2 CALLDATALOAD PUSH2 0x5F4 DUP5 DUP3 PUSH1 0x20 DUP7 ADD PUSH2 0x58F JUMP JUMPDEST SWAP2 POP POP SWAP3 SWAP2 POP POP JUMP JUMPDEST PUSH0 PUSH1 0x20 DUP3 DUP5 SUB SLT ISZERO PUSH2 0x612 JUMPI PUSH2 0x611 PUSH2 0x4C9 JUMP JUMPDEST JUMPDEST PUSH0 DUP3 ADD CALLDATALOAD PUSH8 0xFFFFFFFFFFFFFFFF DUP2 GT ISZERO PUSH2 0x62F JUMPI PUSH2 0x62E PUSH2 0x4CD JUMP JUMPDEST JUMPDEST PUSH2 0x63B DUP5 DUP3 DUP6 ADD PUSH2 0x5D0 JUMP JUMPDEST SWAP2 POP POP SWAP3 SWAP2 POP POP JUMP JUMPDEST PUSH32 0x4E487B7100000000000000000000000000000000000000000000000000000000 PUSH0 MSTORE PUSH1 0x22 PUSH1 0x4 MSTORE PUSH1 0x24 PUSH0 REVERT JUMPDEST PUSH0 PUSH1 0x2 DUP3 DIV SWAP1 POP PUSH1 0x1 DUP3 AND DUP1 PUSH2 0x688 JUMPI PUSH1 0x7F DUP3 AND SWAP2 POP JUMPDEST PUSH1 0x20 DUP3 LT DUP2 SUB PUSH2 0x69B JUMPI PUSH2 0x69A PUSH2 0x644 JUMP JUMPDEST JUMPDEST POP SWAP2 SWAP1 POP JUMP JUMPDEST PUSH0 DUP2 SWAP1 POP DUP2 PUSH0 MSTORE PUSH1 0x20 PUSH0 KECCAK256 SWAP1 POP SWAP2 SWAP1 POP JUMP JUMPDEST PUSH0 PUSH1 0x20 PUSH1 0x1F DUP4 ADD DIV SWAP1 POP SWAP2 SWAP1 POP JUMP JUMPDEST PUSH0 DUP3 DUP3 SHL SWAP1 POP SWAP3 SWAP2 POP POP JUMP JUMPDEST PUSH0 PUSH1 0x8 DUP4 MUL PUSH2 0x6FD PUSH32 0xFFFFFFFFFFFFFFFFFFFFFFFFFFFFFFFFFFFFFFFFFFFFFFFFFFFFFFFFFFFFFFFF DUP3 PUSH2 0x6C2 JUMP JUMPDEST PUSH2 0x707 DUP7 DUP4 PUSH2 0x6C2 JUMP JUMPDEST SWAP6 POP DUP1 NOT DUP5 AND SWAP4 POP DUP1 DUP7 AND DUP5 OR SWAP3 POP POP POP SWAP4 SWAP3 POP POP POP JUMP JUMPDEST PUSH0 DUP2 SWAP1 POP SWAP2 SWAP1 POP JUMP JUMPDEST PUSH0 PUSH2 0x742 PUSH2 0x73D PUSH2 0x738 DUP5 PUSH2 0x3FF JUMP JUMPDEST PUSH2 0x71F JUMP JUMPDEST PUSH2 0x3FF JUMP JUMPDEST SWAP1 POP SWAP2 SWAP1 POP JUMP JUMPDEST PUSH0 DUP2 SWAP1 POP SWAP2 SWAP1 POP JUMP JUMPDEST PUSH2 0x75B DUP4 PUSH2 0x728 JUMP JUMPDEST PUSH2 0x76F PUSH2 0x767 DUP3 PUSH2 0x749 JUMP JUMPDEST DUP5 DUP5 SLOAD PUSH2 0x6CE JUMP JUMPDEST DUP3 SSTORE POP POP POP POP JUMP JUMPDEST PUSH0 SWAP1 JUMP JUMPDEST PUSH2 0x783 PUSH2 0x777 JUMP JUMPDEST PUSH2 0x78E DUP2 DUP5 DUP5 PUSH2 0x752 JUMP JUMPDEST POP POP POP JUMP JUMPDEST JUMPDEST DUP2 DUP2 LT ISZERO PUSH2 0x7B1 JUMPI PUSH2 0x7A6 PUSH0 DUP3 PUSH2 0x77B JUMP JUMPDEST PUSH1 0x1 DUP2 ADD SWAP1 POP PUSH2 0x794 JUMP JUMPDEST POP POP JUMP JUMPDEST PUSH1 0x1F DUP3 GT ISZERO PUSH2 0x7F6 JUMPI PUSH2 0x7C7 DUP2 PUSH2 0x6A1 JUMP JUMPDEST PUSH2 0x7D0 DUP5 PUSH2 0x6B3 JUMP JUMPDEST DUP2 ADD PUSH1 0x20 DUP6 LT ISZERO PUSH2 0x7DF JUMPI DUP2 SWAP1 POP JUMPDEST PUSH2 0x7F3 PUSH2 0x7EB DUP6 PUSH2 0x6B3 JUMP JUMPDEST DUP4 ADD DUP3 PUSH2 0x793 JUMP JUMPDEST POP POP JUMPDEST POP POP POP JUMP JUMPDEST PUSH0 DUP3 DUP3 SHR SWAP1 POP SWAP3 SWAP2 POP POP JUMP JUMPDEST PUSH0 PUSH2 0x816 PUSH0 NOT DUP5 PUSH1 0x8 MUL PUSH2 0x7FB JUMP JUMPDEST NOT DUP1 DUP4 AND SWAP2 POP POP SWAP3 SWAP2 POP POP JUMP JUMPDEST PUSH0 PUSH2 0x82E DUP4 DUP4 PUSH2 0x807 JUMP JUMPDEST SWAP2 POP DUP3 PUSH1 0x2 MUL DUP3 OR SWAP1 POP SWAP3 SWAP2 POP POP JUMP JUMPDEST PUSH2 0x847 DUP3 PUSH2 0x430 JUMP JUMPDEST PUSH8 0xFFFFFFFFFFFFFFFF DUP2 GT ISZERO PUSH2 0x860 JUMPI PUSH2 0x85F PUSH2 0x4D9 JUMP JUMPDEST JUMPDEST PUSH2 0x86A DUP3 SLOAD PUSH2 0x671 JUMP JUMPDEST PUSH2 0x875 DUP3 DUP3 DUP6 PUSH2 0x7B5 JUMP JUMPDEST PUSH0 PUSH1 0x20 SWAP1 POP PUSH1 0x1F DUP4 GT PUSH1 0x1 DUP2 EQ PUSH2 0x8A6 JUMPI PUSH0 DUP5 ISZERO PUSH2 0x894 JUMPI DUP3 DUP8 ADD MLOAD SWAP1 POP JUMPDEST PUSH2 0x89E DUP6 DUP3 PUSH2 0x823 JUMP JUMPDEST DUP7 SSTORE POP PUSH2 0x905 JUMP JUMPDEST PUSH1 0x1F NOT DUP5 AND PUSH2 0x8B4 DUP7 PUSH2 0x6A1 JUMP JUMPDEST PUSH0 JUMPDEST DUP3 DUP2 LT ISZERO PUSH2 0x8DB JUMPI DUP5 DUP10 ADD MLOAD DUP3 SSTORE PUSH1 0x1 DUP3 ADD SWAP2 POP PUSH1 0x20 DUP6 ADD SWAP5 POP PUSH1 0x20 DUP2 ADD SWAP1 POP PUSH2 0x8B6 JUMP JUMPDEST DUP7 DUP4 LT ISZERO PUSH2 0x8F8 JUMPI DUP5 DUP10 ADD MLOAD PUSH2 0x8F4 PUSH1 0x1F DUP10 AND DUP3 PUSH2 0x807 JUMP JUMPDEST DUP4 SSTORE POP JUMPDEST PUSH1 0x1 PUSH1 0x2 DUP9 MUL ADD DUP9 SSTORE POP POP POP JUMPDEST POP POP POP POP POP POP JUMP JUMPDEST PUSH32 0x4E487B7100000000000000000000000000000000000000000000000000000000 PUSH0 MSTORE PUSH1 0x12 PUSH1 0x4 MSTORE PUSH1 0x24 PUSH0 REVERT JUMPDEST PUSH0 PUSH2 0x944 DUP3 PUSH2 0x3FF JUMP JUMPDEST SWAP2 POP PUSH2 0x94F DUP4 PUSH2 0x3FF JUMP JUMPDEST SWAP3 POP DUP3 PUSH2 0x95F JUMPI PUSH2 0x95E PUSH2 0x90D JUMP JUMPDEST JUMPDEST DUP3 DUP3 DIV SWAP1 POP SWAP3 SWAP2 POP POP JUMP JUMPDEST PUSH0 DUP2 SWAP1 POP SWAP3 SWAP2 POP POP JUMP JUMPDEST PUSH0 DUP2 SLOAD PUSH2 0x980 DUP2 PUSH2 0x671 JUMP JUMPDEST PUSH2 0x98A DUP2 DUP7 PUSH2 0x96A JUMP JUMPDEST SWAP5 POP PUSH1 0x1 DUP3 AND PUSH0 DUP2 EQ PUSH2 0x9A4 JUMPI PUSH1 0x1 DUP2 EQ PUSH2 0x9B9 JUMPI PUSH2 0x9EB JUMP JUMPDEST PUSH1 0xFF NOT DUP4 AND DUP7 MSTORE DUP2 ISZERO ISZERO DUP3 MUL DUP7 ADD SWAP4 POP PUSH2 0x9EB JUMP JUMPDEST PUSH2 0x9C2 DUP6 PUSH2 0x6A1 JUMP JUMPDEST PUSH0 JUMPDEST DUP4 DUP2 LT ISZERO PUSH2 0x9E3 JUMPI DUP2 SLOAD DUP2 DUP10 ADD MSTORE PUSH1 0x1 DUP3 ADD SWAP2 POP PUSH1 0x20 DUP2 ADD SWAP1 POP PUSH2 0x9C4 JUMP JUMPDEST DUP4 DUP9 ADD SWAP6 POP POP POP JUMPDEST POP POP POP SWAP3 SWAP2 POP POP JUMP JUMPDEST PUSH32 0x20697320706572666F726D696E672077656C6C20617320612000000000000000 PUSH0 DUP3 ADD MSTORE POP JUMP JUMPDEST PUSH0 PUSH2 0xA28 PUSH1 0x19 DUP4 PUSH2 0x96A JUMP JUMPDEST SWAP2 POP PUSH2 0xA33 DUP3 PUSH2 0x9F4 JUMP JUMPDEST PUSH1 0x19 DUP3 ADD SWAP1 POP SWAP2 SWAP1 POP JUMP JUMPDEST PUSH0 PUSH2 0xA49 DUP3 DUP6 PUSH2 0x974 JUMP JUMPDEST SWAP2 POP PUSH2 0xA54 DUP3 PUSH2 0xA1C JUMP JUMPDEST SWAP2 POP PUSH2 0xA60 DUP3 DUP5 PUSH2 0x974 JUMP JUMPDEST SWAP2 POP DUP2 SWAP1 POP SWAP4 SWAP3 POP POP POP JUMP INVALID LOG2 PUSH5 0x6970667358 0x22 SLT KECCAK256 BLOBHASH 0xC6 0x22 0xE4 0xCC SSTORE 0x26 RETURN 0x2D 0xBB PUSH28 0xFD2992DF458C826BEABD249752F29AF4B35BC887DD64736F6C634300 ADDMOD BYTE STOP CALLER "
		},
		"gasEstimates": {
			"creation": {
				"codeDepositCost": "544400",
				"executionCost": "infinite",
				"totalCost": "infinite"
			},
			"external": {
				"calculateBonus()": "infinite",
				"employeeAddress()": "infinite",
				"generatePerformanceReport()": "infinite",
				"jobTitle()": "infinite",
				"manageProject(string)": "infinite",
				"name()": "infinite",
				"projectName()": "infinite",
				"salary()": "2426"
			}
		},
		"methodIdentifiers": {
			"calculateBonus()": "a4e7d437",
			"employeeAddress()": "26c5c154",
			"generatePerformanceReport()": "d46d7151",
			"jobTitle()": "3ff4b938",
			"manageProject(string)": "912462b6",
			"name()": "06fdde03",
			"projectName()": "9a33e300",
			"salary()": "0397b652"
		}
	},
	"abi": [
		{
			"inputs": [
				{
					"internalType": "string",
					"name": "_name",
					"type": "string"
				},
				{
					"internalType": "string",
					"name": "_employeeAddress",
					"type": "string"
				},
				{
					"internalType": "uint256",
					"name": "_salary",
					"type": "uint256"
				},
				{
					"internalType": "string",
					"name": "_jobTitle",
					"type": "string"
				},
				{
					"internalType": "string",
					"name": "_projectName",
					"type": "string"
				}
			],
			"stateMutability": "nonpayable",
			"type": "constructor"
		},
		{
			"inputs": [],
			"name": "calculateBonus",
			"outputs": [
				{
					"internalType": "uint256",
					"name": "",
					"type": "uint256"
				}
			],
			"stateMutability": "view",
			"type": "function"
		},
		{
			"inputs": [],
			"name": "employeeAddress",
			"outputs": [
				{
					"internalType": "string",
					"name": "",
					"type": "string"
				}
			],
			"stateMutability": "view",
			"type": "function"
		},
		{
			"inputs": [],
			"name": "generatePerformanceReport",
			"outputs": [
				{
					"internalType": "string",
					"name": "",
					"type": "string"
				}
			],
			"stateMutability": "view",
			"type": "function"
		},
		{
			"inputs": [],
			"name": "jobTitle",
			"outputs": [
				{
					"internalType": "string",
					"name": "",
					"type": "string"
				}
			],
			"stateMutability": "view",
			"type": "function"
		},
		{
			"inputs": [
				{
					"internalType": "string",
					"name": "newProjectName",
					"type": "string"
				}
			],
			"name": "manageProject",
			"outputs": [],
			"stateMutability": "nonpayable",
			"type": "function"
		},
		{
			"inputs": [],
			"name": "name",
			"outputs": [
				{
					"internalType": "string",
					"name": "",
					"type": "string"
				}
			],
			"stateMutability": "view",
			"type": "function"
		},
		{
			"inputs": [],
			"name": "projectName",
			"outputs": [
				{
					"internalType": "string",
					"name": "",
					"type": "string"
				}
			],
			"stateMutability": "view",
			"type": "function"
		},
		{
			"inputs": [],
			"name": "salary",
			"outputs": [
				{
					"internalType": "uint256",
					"name": "",
					"type": "uint256"
				}
			],
			"stateMutability": "view",
			"type": "function"
		}
	]
}