{
	"data": {
		"bytecode": {
			"linkReferences": {},
			"object": "608060405234801561000f575f80fd5b506040516103d43803806103d48339818101604052810190610031919061008c565b835f81905550826001819055508160028190555080600381905550505050506100f0565b5f80fd5b5f819050919050565b61006b81610059565b8114610075575f80fd5b50565b5f8151905061008681610062565b92915050565b5f805f80608085870312156100a4576100a3610055565b5b5f6100b187828801610078565b94505060206100c287828801610078565b93505060406100d387828801610078565b92505060606100e487828801610078565b91505092959194509250565b6102d7806100fd5f395ff3fe608060405234801561000f575f80fd5b5060043610610060575f3560e01c80630dbe671f146100645780630ef26743146100825780634df7e3d0146100a05780637ebeb19c146100be57806385be3e62146100dc578063c3da42b8146100fa575b5f80fd5b61006c610118565b604051610079919061018a565b60405180910390f35b61008a61011d565b604051610097919061018a565b60405180910390f35b6100a8610123565b6040516100b5919061018a565b60405180910390f35b6100c6610129565b6040516100d3919061018a565b60405180910390f35b6100e461014b565b6040516100f1919061018a565b60405180910390f35b61010261016c565b60405161010f919061018a565b60405180910390f35b5f5481565b60035481565b60015481565b5f6002546001545f5461013c91906101d0565b61014691906101d0565b905090565b5f60026003545f5461015d9190610203565b6101679190610271565b905090565b60025481565b5f819050919050565b61018481610172565b82525050565b5f60208201905061019d5f83018461017b565b92915050565b7f4e487b71000000000000000000000000000000000000000000000000000000005f52601160045260245ffd5b5f6101da82610172565b91506101e583610172565b92508282019050808211156101fd576101fc6101a3565b5b92915050565b5f61020d82610172565b915061021883610172565b925082820261022681610172565b9150828204841483151761023d5761023c6101a3565b5b5092915050565b7f4e487b71000000000000000000000000000000000000000000000000000000005f52601260045260245ffd5b5f61027b82610172565b915061028683610172565b92508261029657610295610244565b5b82820490509291505056fea2646970667358221220b08335ff40ebfd5a2e245392be6815eca59d535951063bae6f63644d6838af9964736f6c634300081a0033",
			"opcodes": "PUSH1 0x80 PUSH1 0x40 MSTORE CALLVALUE DUP1 ISZERO PUSH2 0xF JUMPI PUSH0 DUP1 REVERT JUMPDEST POP PUSH1 0x40 MLOAD PUSH2 0x3D4 CODESIZE SUB DUP1 PUSH2 0x3D4 DUP4 CODECOPY DUP2 DUP2 ADD PUSH1 0x40 MSTORE DUP2 ADD SWAP1 PUSH2 0x31 SWAP2 SWAP1 PUSH2 0x8C JUMP JUMPDEST DUP4 PUSH0 DUP2 SWAP1 SSTORE POP DUP3 PUSH1 0x1 DUP2 SWAP1 SSTORE POP DUP2 PUSH1 0x2 DUP2 SWAP1 SSTORE POP DUP1 PUSH1 0x3 DUP2 SWAP1 SSTORE POP POP POP POP POP PUSH2 0xF0 JUMP JUMPDEST PUSH0 DUP1 REVERT JUMPDEST PUSH0 DUP2 SWAP1 POP SWAP2 SWAP1 POP JUMP JUMPDEST PUSH2 0x6B DUP2 PUSH2 0x59 JUMP JUMPDEST DUP2 EQ PUSH2 0x75 JUMPI PUSH0 DUP1 REVERT JUMPDEST POP JUMP JUMPDEST PUSH0 DUP2 MLOAD SWAP1 POP PUSH2 0x86 DUP2 PUSH2 0x62 JUMP JUMPDEST SWAP3 SWAP2 POP POP JUMP JUMPDEST PUSH0 DUP1 PUSH0 DUP1 PUSH1 0x80 DUP6 DUP8 SUB SLT ISZERO PUSH2 0xA4 JUMPI PUSH2 0xA3 PUSH2 0x55 JUMP JUMPDEST JUMPDEST PUSH0 PUSH2 0xB1 DUP8 DUP3 DUP9 ADD PUSH2 0x78 JUMP JUMPDEST SWAP5 POP POP PUSH1 0x20 PUSH2 0xC2 DUP8 DUP3 DUP9 ADD PUSH2 0x78 JUMP JUMPDEST SWAP4 POP POP PUSH1 0x40 PUSH2 0xD3 DUP8 DUP3 DUP9 ADD PUSH2 0x78 JUMP JUMPDEST SWAP3 POP POP PUSH1 0x60 PUSH2 0xE4 DUP8 DUP3 DUP9 ADD PUSH2 0x78 JUMP JUMPDEST SWAP2 POP POP SWAP3 SWAP6 SWAP2 SWAP5 POP SWAP3 POP JUMP JUMPDEST PUSH2 0x2D7 DUP1 PUSH2 0xFD PUSH0 CODECOPY PUSH0 RETURN INVALID PUSH1 0x80 PUSH1 0x40 MSTORE CALLVALUE DUP1 ISZERO PUSH2 0xF JUMPI PUSH0 DUP1 REVERT JUMPDEST POP PUSH1 0x4 CALLDATASIZE LT PUSH2 0x60 JUMPI PUSH0 CALLDATALOAD PUSH1 0xE0 SHR DUP1 PUSH4 0xDBE671F EQ PUSH2 0x64 JUMPI DUP1 PUSH4 0xEF26743 EQ PUSH2 0x82 JUMPI DUP1 PUSH4 0x4DF7E3D0 EQ PUSH2 0xA0 JUMPI DUP1 PUSH4 0x7EBEB19C EQ PUSH2 0xBE JUMPI DUP1 PUSH4 0x85BE3E62 EQ PUSH2 0xDC JUMPI DUP1 PUSH4 0xC3DA42B8 EQ PUSH2 0xFA JUMPI JUMPDEST PUSH0 DUP1 REVERT JUMPDEST PUSH2 0x6C PUSH2 0x118 JUMP JUMPDEST PUSH1 0x40 MLOAD PUSH2 0x79 SWAP2 SWAP1 PUSH2 0x18A JUMP JUMPDEST PUSH1 0x40 MLOAD DUP1 SWAP2 SUB SWAP1 RETURN JUMPDEST PUSH2 0x8A PUSH2 0x11D JUMP JUMPDEST PUSH1 0x40 MLOAD PUSH2 0x97 SWAP2 SWAP1 PUSH2 0x18A JUMP JUMPDEST PUSH1 0x40 MLOAD DUP1 SWAP2 SUB SWAP1 RETURN JUMPDEST PUSH2 0xA8 PUSH2 0x123 JUMP JUMPDEST PUSH1 0x40 MLOAD PUSH2 0xB5 SWAP2 SWAP1 PUSH2 0x18A JUMP JUMPDEST PUSH1 0x40 MLOAD DUP1 SWAP2 SUB SWAP1 RETURN JUMPDEST PUSH2 0xC6 PUSH2 0x129 JUMP JUMPDEST PUSH1 0x40 MLOAD PUSH2 0xD3 SWAP2 SWAP1 PUSH2 0x18A JUMP JUMPDEST PUSH1 0x40 MLOAD DUP1 SWAP2 SUB SWAP1 RETURN JUMPDEST PUSH2 0xE4 PUSH2 0x14B JUMP JUMPDEST PUSH1 0x40 MLOAD PUSH2 0xF1 SWAP2 SWAP1 PUSH2 0x18A JUMP JUMPDEST PUSH1 0x40 MLOAD DUP1 SWAP2 SUB SWAP1 RETURN JUMPDEST PUSH2 0x102 PUSH2 0x16C JUMP JUMPDEST PUSH1 0x40 MLOAD PUSH2 0x10F SWAP2 SWAP1 PUSH2 0x18A JUMP JUMPDEST PUSH1 0x40 MLOAD DUP1 SWAP2 SUB SWAP1 RETURN JUMPDEST PUSH0 SLOAD DUP2 JUMP JUMPDEST PUSH1 0x3 SLOAD DUP2 JUMP JUMPDEST PUSH1 0x1 SLOAD DUP2 JUMP JUMPDEST PUSH0 PUSH1 0x2 SLOAD PUSH1 0x1 SLOAD PUSH0 SLOAD PUSH2 0x13C SWAP2 SWAP1 PUSH2 0x1D0 JUMP JUMPDEST PUSH2 0x146 SWAP2 SWAP1 PUSH2 0x1D0 JUMP JUMPDEST SWAP1 POP SWAP1 JUMP JUMPDEST PUSH0 PUSH1 0x2 PUSH1 0x3 SLOAD PUSH0 SLOAD PUSH2 0x15D SWAP2 SWAP1 PUSH2 0x203 JUMP JUMPDEST PUSH2 0x167 SWAP2 SWAP1 PUSH2 0x271 JUMP JUMPDEST SWAP1 POP SWAP1 JUMP JUMPDEST PUSH1 0x2 SLOAD DUP2 JUMP JUMPDEST PUSH0 DUP2 SWAP1 POP SWAP2 SWAP1 POP JUMP JUMPDEST PUSH2 0x184 DUP2 PUSH2 0x172 JUMP JUMPDEST DUP3 MSTORE POP POP JUMP JUMPDEST PUSH0 PUSH1 0x20 DUP3 ADD SWAP1 POP PUSH2 0x19D PUSH0 DUP4 ADD DUP5 PUSH2 0x17B JUMP JUMPDEST SWAP3 SWAP2 POP POP JUMP JUMPDEST PUSH32 0x4E487B7100000000000000000000000000000000000000000000000000000000 PUSH0 MSTORE PUSH1 0x11 PUSH1 0x4 MSTORE PUSH1 0x24 PUSH0 REVERT JUMPDEST PUSH0 PUSH2 0x1DA DUP3 PUSH2 0x172 JUMP JUMPDEST SWAP2 POP PUSH2 0x1E5 DUP4 PUSH2 0x172 JUMP JUMPDEST SWAP3 POP DUP3 DUP3 ADD SWAP1 POP DUP1 DUP3 GT ISZERO PUSH2 0x1FD JUMPI PUSH2 0x1FC PUSH2 0x1A3 JUMP JUMPDEST JUMPDEST SWAP3 SWAP2 POP POP JUMP JUMPDEST PUSH0 PUSH2 0x20D DUP3 PUSH2 0x172 JUMP JUMPDEST SWAP2 POP PUSH2 0x218 DUP4 PUSH2 0x172 JUMP JUMPDEST SWAP3 POP DUP3 DUP3 MUL PUSH2 0x226 DUP2 PUSH2 0x172 JUMP JUMPDEST SWAP2 POP DUP3 DUP3 DIV DUP5 EQ DUP4 ISZERO OR PUSH2 0x23D JUMPI PUSH2 0x23C PUSH2 0x1A3 JUMP JUMPDEST JUMPDEST POP SWAP3 SWAP2 POP POP JUMP JUMPDEST PUSH32 0x4E487B7100000000000000000000000000000000000000000000000000000000 PUSH0 MSTORE PUSH1 0x12 PUSH1 0x4 MSTORE PUSH1 0x24 PUSH0 REVERT JUMPDEST PUSH0 PUSH2 0x27B DUP3 PUSH2 0x172 JUMP JUMPDEST SWAP2 POP PUSH2 0x286 DUP4 PUSH2 0x172 JUMP JUMPDEST SWAP3 POP DUP3 PUSH2 0x296 JUMPI PUSH2 0x295 PUSH2 0x244 JUMP JUMPDEST JUMPDEST DUP3 DUP3 DIV SWAP1 POP SWAP3 SWAP2 POP POP JUMP INVALID LOG2 PUSH5 0x6970667358 0x22 SLT KECCAK256 0xB0 DUP4 CALLDATALOAD SELFDESTRUCT BLOCKHASH 0xEB REVERT GAS 0x2E 0x24 MSTORE8 SWAP3 0xBE PUSH9 0x15ECA59D535951063B 0xAE PUSH16 0x63644D6838AF9964736F6C634300081A STOP CALLER "
		},
		"gasEstimates": {
			"creation": {
				"codeDepositCost": "145400",
				"executionCost": "infinite",
				"totalCost": "infinite"
			},
			"external": {
				"a()": "2402",
				"b()": "2447",
				"c()": "2513",
				"getArea()": "infinite",
				"getPerimeter()": "infinite",
				"height()": "2425"
			}
		},
		"methodIdentifiers": {
			"a()": "0dbe671f",
			"b()": "4df7e3d0",
			"c()": "c3da42b8",
			"getArea()": "85be3e62",
			"getPerimeter()": "7ebeb19c",
			"height()": "0ef26743"
		}
	},
	"abi": [
		{
			"inputs": [
				{
					"internalType": "uint256",
					"name": "_a",
					"type": "uint256"
				},
				{
					"internalType": "uint256",
					"name": "_b",
					"type": "uint256"
				},
				{
					"internalType": "uint256",
					"name": "_c",
					"type": "uint256"
				},
				{
					"internalType": "uint256",
					"name": "_height",
					"type": "uint256"
				}
			],
			"stateMutability": "nonpayable",
			"type": "constructor"
		},
		{
			"inputs": [],
			"name": "a",
			"outputs": [
				{
					"internalType": "uint256",
					"name": "",
					"type": "uint256"
				}
			],
			"stateMutability": "view",
			"type": "function"
		},
		{
			"inputs": [],
			"name": "b",
			"outputs": [
				{
					"internalType": "uint256",
					"name": "",
					"type": "uint256"
				}
			],
			"stateMutability": "view",
			"type": "function"
		},
		{
			"inputs": [],
			"name": "c",
			"outputs": [
				{
					"internalType": "uint256",
					"name": "",
					"type": "uint256"
				}
			],
			"stateMutability": "view",
			"type": "function"
		},
		{
			"inputs": [],
			"name": "getArea",
			"outputs": [
				{
					"internalType": "uint256",
					"name": "",
					"type": "uint256"
				}
			],
			"stateMutability": "view",
			"type": "function"
		},
		{
			"inputs": [],
			"name": "getPerimeter",
			"outputs": [
				{
					"internalType": "uint256",
					"name": "",
					"type": "uint256"
				}
			],
			"stateMutability": "view",
			"type": "function"
		},
		{
			"inputs": [],
			"name": "height",
			"outputs": [
				{
					"internalType": "uint256",
					"name": "",
					"type": "uint256"
				}
			],
			"stateMutability": "view",
			"type": "function"
		}
	]
}