{
	"data": {
		"bytecode": {
			"linkReferences": {},
			"object": "608060405234801561000f575f80fd5b50604051610ada380380610ada833981810160405281019061003191906101f0565b835f908161003f91906104ac565b50826001908161004f91906104ac565b5081600281905550806003908161006691906104ac565b505050505061057b565b5f604051905090565b5f80fd5b5f80fd5b5f80fd5b5f80fd5b5f601f19601f8301169050919050565b7f4e487b71000000000000000000000000000000000000000000000000000000005f52604160045260245ffd5b6100cf82610089565b810181811067ffffffffffffffff821117156100ee576100ed610099565b5b80604052505050565b5f610100610070565b905061010c82826100c6565b919050565b5f67ffffffffffffffff82111561012b5761012a610099565b5b61013482610089565b9050602081019050919050565b8281835e5f83830152505050565b5f61016161015c84610111565b6100f7565b90508281526020810184848401111561017d5761017c610085565b5b610188848285610141565b509392505050565b5f82601f8301126101a4576101a3610081565b5b81516101b484826020860161014f565b91505092915050565b5f819050919050565b6101cf816101bd565b81146101d9575f80fd5b50565b5f815190506101ea816101c6565b92915050565b5f805f806080858703121561020857610207610079565b5b5f85015167ffffffffffffffff8111156102255761022461007d565b5b61023187828801610190565b945050602085015167ffffffffffffffff8111156102525761025161007d565b5b61025e87828801610190565b935050604061026f878288016101dc565b925050606085015167ffffffffffffffff8111156102905761028f61007d565b5b61029c87828801610190565b91505092959194509250565b5f81519050919050565b7f4e487b71000000000000000000000000000000000000000000000000000000005f52602260045260245ffd5b5f60028204905060018216806102f657607f821691505b602082108103610309576103086102b2565b5b50919050565b5f819050815f5260205f209050919050565b5f6020601f8301049050919050565b5f82821b905092915050565b5f6008830261036b7fffffffffffffffffffffffffffffffffffffffffffffffffffffffffffffffff82610330565b6103758683610330565b95508019841693508086168417925050509392505050565b5f819050919050565b5f6103b06103ab6103a6846101bd565b61038d565b6101bd565b9050919050565b5f819050919050565b6103c983610396565b6103dd6103d5826103b7565b84845461033c565b825550505050565b5f90565b6103f16103e5565b6103fc8184846103c0565b505050565b5b8181101561041f576104145f826103e9565b600181019050610402565b5050565b601f821115610464576104358161030f565b61043e84610321565b8101602085101561044d578190505b61046161045985610321565b830182610401565b50505b505050565b5f82821c905092915050565b5f6104845f1984600802610469565b1980831691505092915050565b5f61049c8383610475565b9150826002028217905092915050565b6104b5826102a8565b67ffffffffffffffff8111156104ce576104cd610099565b5b6104d882546102df565b6104e3828285610423565b5f60209050601f831160018114610514575f8415610502578287015190505b61050c8582610491565b865550610573565b601f1984166105228661030f565b5f5b8281101561054957848901518255600182019150602085019450602081019050610524565b868310156105665784890151610562601f891682610475565b8355505b6001600288020188555050505b505050505050565b610552806105885f395ff3fe608060405234801561000f575f80fd5b506004361061007b575f3560e01c8063d21e199311610059578063d21e1993146100eb578063e8311f8414610109578063f326971614610127578063f64eeab6146101455761007b565b80630ad9d0521461007f5780631e0069291461009d578063c6dad082146100cd575b5f80fd5b610087610163565b60405161009491906103a7565b60405180910390f35b6100b760048036038101906100b291906103fe565b6101ef565b6040516100c49190610438565b60405180910390f35b6100d561020a565b6040516100e291906103a7565b60405180910390f35b6100f3610295565b6040516101009190610438565b60405180910390f35b61011161029d565b60405161011e91906103a7565b60405180910390f35b61012f610329565b60405161013c9190610438565b60405180910390f35b61014d61032f565b60405161015a9190610438565b60405180910390f35b600180546101709061047e565b80601f016020809104026020016040519081016040528092919081815260200182805461019c9061047e565b80156101e75780601f106101be576101008083540402835291602001916101e7565b820191905f5260205f20905b8154815290600101906020018083116101ca57829003601f168201915b505050505081565b5f6101f861032f565b8261020391906104db565b9050919050565b5f80546102169061047e565b80601f01602080910402602001604051908101604052809291908181526020018280546102429061047e565b801561028d5780601f106102645761010080835404028352916020019161028d565b820191905f5260205f20905b81548152906001019060200180831161027057829003601f168201915b505050505081565b5f6078905090565b600380546102aa9061047e565b80601f01602080910402602001604051908101604052809291908181526020018280546102d69061047e565b80156103215780601f106102f857610100808354040283529160200191610321565b820191905f5260205f20905b81548152906001019060200180831161030457829003601f168201915b505050505081565b60025481565b5f600f905090565b5f81519050919050565b5f82825260208201905092915050565b8281835e5f83830152505050565b5f601f19601f8301169050919050565b5f61037982610337565b6103838185610341565b9350610393818560208601610351565b61039c8161035f565b840191505092915050565b5f6020820190508181035f8301526103bf818461036f565b905092915050565b5f80fd5b5f819050919050565b6103dd816103cb565b81146103e7575f80fd5b50565b5f813590506103f8816103d4565b92915050565b5f60208284031215610413576104126103c7565b5b5f610420848285016103ea565b91505092915050565b610432816103cb565b82525050565b5f60208201905061044b5f830184610429565b92915050565b7f4e487b71000000000000000000000000000000000000000000000000000000005f52602260045260245ffd5b5f600282049050600182168061049557607f821691505b6020821081036104a8576104a7610451565b5b50919050565b7f4e487b71000000000000000000000000000000000000000000000000000000005f52601160045260245ffd5b5f6104e5826103cb565b91506104f0836103cb565b92508282026104fe816103cb565b91508282048414831517610515576105146104ae565b5b509291505056fea264697066735822122035f2704363b13a9bb30924398036f672ffbb2769cbfd13f8c7265709abe6e31864736f6c634300081a0033",
			"opcodes": "PUSH1 0x80 PUSH1 0x40 MSTORE CALLVALUE DUP1 ISZERO PUSH2 0xF JUMPI PUSH0 DUP1 REVERT JUMPDEST POP PUSH1 0x40 MLOAD PUSH2 0xADA CODESIZE SUB DUP1 PUSH2 0xADA DUP4 CODECOPY DUP2 DUP2 ADD PUSH1 0x40 MSTORE DUP2 ADD SWAP1 PUSH2 0x31 SWAP2 SWAP1 PUSH2 0x1F0 JUMP JUMPDEST DUP4 PUSH0 SWAP1 DUP2 PUSH2 0x3F SWAP2 SWAP1 PUSH2 0x4AC JUMP JUMPDEST POP DUP3 PUSH1 0x1 SWAP1 DUP2 PUSH2 0x4F SWAP2 SWAP1 PUSH2 0x4AC JUMP JUMPDEST POP DUP2 PUSH1 0x2 DUP2 SWAP1 SSTORE POP DUP1 PUSH1 0x3 SWAP1 DUP2 PUSH2 0x66 SWAP2 SWAP1 PUSH2 0x4AC JUMP JUMPDEST POP POP POP POP POP PUSH2 0x57B JUMP JUMPDEST PUSH0 PUSH1 0x40 MLOAD SWAP1 POP SWAP1 JUMP JUMPDEST PUSH0 DUP1 REVERT JUMPDEST PUSH0 DUP1 REVERT JUMPDEST PUSH0 DUP1 REVERT JUMPDEST PUSH0 DUP1 REVERT JUMPDEST PUSH0 PUSH1 0x1F NOT PUSH1 0x1F DUP4 ADD AND SWAP1 POP SWAP2 SWAP1 POP JUMP JUMPDEST PUSH32 0x4E487B7100000000000000000000000000000000000000000000000000000000 PUSH0 MSTORE PUSH1 0x41 PUSH1 0x4 MSTORE PUSH1 0x24 PUSH0 REVERT JUMPDEST PUSH2 0xCF DUP3 PUSH2 0x89 JUMP JUMPDEST DUP2 ADD DUP2 DUP2 LT PUSH8 0xFFFFFFFFFFFFFFFF DUP3 GT OR ISZERO PUSH2 0xEE JUMPI PUSH2 0xED PUSH2 0x99 JUMP JUMPDEST JUMPDEST DUP1 PUSH1 0x40 MSTORE POP POP POP JUMP JUMPDEST PUSH0 PUSH2 0x100 PUSH2 0x70 JUMP JUMPDEST SWAP1 POP PUSH2 0x10C DUP3 DUP3 PUSH2 0xC6 JUMP JUMPDEST SWAP2 SWAP1 POP JUMP JUMPDEST PUSH0 PUSH8 0xFFFFFFFFFFFFFFFF DUP3 GT ISZERO PUSH2 0x12B JUMPI PUSH2 0x12A PUSH2 0x99 JUMP JUMPDEST JUMPDEST PUSH2 0x134 DUP3 PUSH2 0x89 JUMP JUMPDEST SWAP1 POP PUSH1 0x20 DUP2 ADD SWAP1 POP SWAP2 SWAP1 POP JUMP JUMPDEST DUP3 DUP2 DUP4 MCOPY PUSH0 DUP4 DUP4 ADD MSTORE POP POP POP JUMP JUMPDEST PUSH0 PUSH2 0x161 PUSH2 0x15C DUP5 PUSH2 0x111 JUMP JUMPDEST PUSH2 0xF7 JUMP JUMPDEST SWAP1 POP DUP3 DUP2 MSTORE PUSH1 0x20 DUP2 ADD DUP5 DUP5 DUP5 ADD GT ISZERO PUSH2 0x17D JUMPI PUSH2 0x17C PUSH2 0x85 JUMP JUMPDEST JUMPDEST PUSH2 0x188 DUP5 DUP3 DUP6 PUSH2 0x141 JUMP JUMPDEST POP SWAP4 SWAP3 POP POP POP JUMP JUMPDEST PUSH0 DUP3 PUSH1 0x1F DUP4 ADD SLT PUSH2 0x1A4 JUMPI PUSH2 0x1A3 PUSH2 0x81 JUMP JUMPDEST JUMPDEST DUP2 MLOAD PUSH2 0x1B4 DUP5 DUP3 PUSH1 0x20 DUP7 ADD PUSH2 0x14F JUMP JUMPDEST SWAP2 POP POP SWAP3 SWAP2 POP POP JUMP JUMPDEST PUSH0 DUP2 SWAP1 POP SWAP2 SWAP1 POP JUMP JUMPDEST PUSH2 0x1CF DUP2 PUSH2 0x1BD JUMP JUMPDEST DUP2 EQ PUSH2 0x1D9 JUMPI PUSH0 DUP1 REVERT JUMPDEST POP JUMP JUMPDEST PUSH0 DUP2 MLOAD SWAP1 POP PUSH2 0x1EA DUP2 PUSH2 0x1C6 JUMP JUMPDEST SWAP3 SWAP2 POP POP JUMP JUMPDEST PUSH0 DUP1 PUSH0 DUP1 PUSH1 0x80 DUP6 DUP8 SUB SLT ISZERO PUSH2 0x208 JUMPI PUSH2 0x207 PUSH2 0x79 JUMP JUMPDEST JUMPDEST PUSH0 DUP6 ADD MLOAD PUSH8 0xFFFFFFFFFFFFFFFF DUP2 GT ISZERO PUSH2 0x225 JUMPI PUSH2 0x224 PUSH2 0x7D JUMP JUMPDEST JUMPDEST PUSH2 0x231 DUP8 DUP3 DUP9 ADD PUSH2 0x190 JUMP JUMPDEST SWAP5 POP POP PUSH1 0x20 DUP6 ADD MLOAD PUSH8 0xFFFFFFFFFFFFFFFF DUP2 GT ISZERO PUSH2 0x252 JUMPI PUSH2 0x251 PUSH2 0x7D JUMP JUMPDEST JUMPDEST PUSH2 0x25E DUP8 DUP3 DUP9 ADD PUSH2 0x190 JUMP JUMPDEST SWAP4 POP POP PUSH1 0x40 PUSH2 0x26F DUP8 DUP3 DUP9 ADD PUSH2 0x1DC JUMP JUMPDEST SWAP3 POP POP PUSH1 0x60 DUP6 ADD MLOAD PUSH8 0xFFFFFFFFFFFFFFFF DUP2 GT ISZERO PUSH2 0x290 JUMPI PUSH2 0x28F PUSH2 0x7D JUMP JUMPDEST JUMPDEST PUSH2 0x29C DUP8 DUP3 DUP9 ADD PUSH2 0x190 JUMP JUMPDEST SWAP2 POP POP SWAP3 SWAP6 SWAP2 SWAP5 POP SWAP3 POP JUMP JUMPDEST PUSH0 DUP2 MLOAD SWAP1 POP SWAP2 SWAP1 POP JUMP JUMPDEST PUSH32 0x4E487B7100000000000000000000000000000000000000000000000000000000 PUSH0 MSTORE PUSH1 0x22 PUSH1 0x4 MSTORE PUSH1 0x24 PUSH0 REVERT JUMPDEST PUSH0 PUSH1 0x2 DUP3 DIV SWAP1 POP PUSH1 0x1 DUP3 AND DUP1 PUSH2 0x2F6 JUMPI PUSH1 0x7F DUP3 AND SWAP2 POP JUMPDEST PUSH1 0x20 DUP3 LT DUP2 SUB PUSH2 0x309 JUMPI PUSH2 0x308 PUSH2 0x2B2 JUMP JUMPDEST JUMPDEST POP SWAP2 SWAP1 POP JUMP JUMPDEST PUSH0 DUP2 SWAP1 POP DUP2 PUSH0 MSTORE PUSH1 0x20 PUSH0 KECCAK256 SWAP1 POP SWAP2 SWAP1 POP JUMP JUMPDEST PUSH0 PUSH1 0x20 PUSH1 0x1F DUP4 ADD DIV SWAP1 POP SWAP2 SWAP1 POP JUMP JUMPDEST PUSH0 DUP3 DUP3 SHL SWAP1 POP SWAP3 SWAP2 POP POP JUMP JUMPDEST PUSH0 PUSH1 0x8 DUP4 MUL PUSH2 0x36B PUSH32 0xFFFFFFFFFFFFFFFFFFFFFFFFFFFFFFFFFFFFFFFFFFFFFFFFFFFFFFFFFFFFFFFF DUP3 PUSH2 0x330 JUMP JUMPDEST PUSH2 0x375 DUP7 DUP4 PUSH2 0x330 JUMP JUMPDEST SWAP6 POP DUP1 NOT DUP5 AND SWAP4 POP DUP1 DUP7 AND DUP5 OR SWAP3 POP POP POP SWAP4 SWAP3 POP POP POP JUMP JUMPDEST PUSH0 DUP2 SWAP1 POP SWAP2 SWAP1 POP JUMP JUMPDEST PUSH0 PUSH2 0x3B0 PUSH2 0x3AB PUSH2 0x3A6 DUP5 PUSH2 0x1BD JUMP JUMPDEST PUSH2 0x38D JUMP JUMPDEST PUSH2 0x1BD JUMP JUMPDEST SWAP1 POP SWAP2 SWAP1 POP JUMP JUMPDEST PUSH0 DUP2 SWAP1 POP SWAP2 SWAP1 POP JUMP JUMPDEST PUSH2 0x3C9 DUP4 PUSH2 0x396 JUMP JUMPDEST PUSH2 0x3DD PUSH2 0x3D5 DUP3 PUSH2 0x3B7 JUMP JUMPDEST DUP5 DUP5 SLOAD PUSH2 0x33C JUMP JUMPDEST DUP3 SSTORE POP POP POP POP JUMP JUMPDEST PUSH0 SWAP1 JUMP JUMPDEST PUSH2 0x3F1 PUSH2 0x3E5 JUMP JUMPDEST PUSH2 0x3FC DUP2 DUP5 DUP5 PUSH2 0x3C0 JUMP JUMPDEST POP POP POP JUMP JUMPDEST JUMPDEST DUP2 DUP2 LT ISZERO PUSH2 0x41F JUMPI PUSH2 0x414 PUSH0 DUP3 PUSH2 0x3E9 JUMP JUMPDEST PUSH1 0x1 DUP2 ADD SWAP1 POP PUSH2 0x402 JUMP JUMPDEST POP POP JUMP JUMPDEST PUSH1 0x1F DUP3 GT ISZERO PUSH2 0x464 JUMPI PUSH2 0x435 DUP2 PUSH2 0x30F JUMP JUMPDEST PUSH2 0x43E DUP5 PUSH2 0x321 JUMP JUMPDEST DUP2 ADD PUSH1 0x20 DUP6 LT ISZERO PUSH2 0x44D JUMPI DUP2 SWAP1 POP JUMPDEST PUSH2 0x461 PUSH2 0x459 DUP6 PUSH2 0x321 JUMP JUMPDEST DUP4 ADD DUP3 PUSH2 0x401 JUMP JUMPDEST POP POP JUMPDEST POP POP POP JUMP JUMPDEST PUSH0 DUP3 DUP3 SHR SWAP1 POP SWAP3 SWAP2 POP POP JUMP JUMPDEST PUSH0 PUSH2 0x484 PUSH0 NOT DUP5 PUSH1 0x8 MUL PUSH2 0x469 JUMP JUMPDEST NOT DUP1 DUP4 AND SWAP2 POP POP SWAP3 SWAP2 POP POP JUMP JUMPDEST PUSH0 PUSH2 0x49C DUP4 DUP4 PUSH2 0x475 JUMP JUMPDEST SWAP2 POP DUP3 PUSH1 0x2 MUL DUP3 OR SWAP1 POP SWAP3 SWAP2 POP POP JUMP JUMPDEST PUSH2 0x4B5 DUP3 PUSH2 0x2A8 JUMP JUMPDEST PUSH8 0xFFFFFFFFFFFFFFFF DUP2 GT ISZERO PUSH2 0x4CE JUMPI PUSH2 0x4CD PUSH2 0x99 JUMP JUMPDEST JUMPDEST PUSH2 0x4D8 DUP3 SLOAD PUSH2 0x2DF JUMP JUMPDEST PUSH2 0x4E3 DUP3 DUP3 DUP6 PUSH2 0x423 JUMP JUMPDEST PUSH0 PUSH1 0x20 SWAP1 POP PUSH1 0x1F DUP4 GT PUSH1 0x1 DUP2 EQ PUSH2 0x514 JUMPI PUSH0 DUP5 ISZERO PUSH2 0x502 JUMPI DUP3 DUP8 ADD MLOAD SWAP1 POP JUMPDEST PUSH2 0x50C DUP6 DUP3 PUSH2 0x491 JUMP JUMPDEST DUP7 SSTORE POP PUSH2 0x573 JUMP JUMPDEST PUSH1 0x1F NOT DUP5 AND PUSH2 0x522 DUP7 PUSH2 0x30F JUMP JUMPDEST PUSH0 JUMPDEST DUP3 DUP2 LT ISZERO PUSH2 0x549 JUMPI DUP5 DUP10 ADD MLOAD DUP3 SSTORE PUSH1 0x1 DUP3 ADD SWAP2 POP PUSH1 0x20 DUP6 ADD SWAP5 POP PUSH1 0x20 DUP2 ADD SWAP1 POP PUSH2 0x524 JUMP JUMPDEST DUP7 DUP4 LT ISZERO PUSH2 0x566 JUMPI DUP5 DUP10 ADD MLOAD PUSH2 0x562 PUSH1 0x1F DUP10 AND DUP3 PUSH2 0x475 JUMP JUMPDEST DUP4 SSTORE POP JUMPDEST PUSH1 0x1 PUSH1 0x2 DUP9 MUL ADD DUP9 SSTORE POP POP POP JUMPDEST POP POP POP POP POP POP JUMP JUMPDEST PUSH2 0x552 DUP1 PUSH2 0x588 PUSH0 CODECOPY PUSH0 RETURN INVALID PUSH1 0x80 PUSH1 0x40 MSTORE CALLVALUE DUP1 ISZERO PUSH2 0xF JUMPI PUSH0 DUP1 REVERT JUMPDEST POP PUSH1 0x4 CALLDATASIZE LT PUSH2 0x7B JUMPI PUSH0 CALLDATALOAD PUSH1 0xE0 SHR DUP1 PUSH4 0xD21E1993 GT PUSH2 0x59 JUMPI DUP1 PUSH4 0xD21E1993 EQ PUSH2 0xEB JUMPI DUP1 PUSH4 0xE8311F84 EQ PUSH2 0x109 JUMPI DUP1 PUSH4 0xF3269716 EQ PUSH2 0x127 JUMPI DUP1 PUSH4 0xF64EEAB6 EQ PUSH2 0x145 JUMPI PUSH2 0x7B JUMP JUMPDEST DUP1 PUSH4 0xAD9D052 EQ PUSH2 0x7F JUMPI DUP1 PUSH4 0x1E006929 EQ PUSH2 0x9D JUMPI DUP1 PUSH4 0xC6DAD082 EQ PUSH2 0xCD JUMPI JUMPDEST PUSH0 DUP1 REVERT JUMPDEST PUSH2 0x87 PUSH2 0x163 JUMP JUMPDEST PUSH1 0x40 MLOAD PUSH2 0x94 SWAP2 SWAP1 PUSH2 0x3A7 JUMP JUMPDEST PUSH1 0x40 MLOAD DUP1 SWAP2 SUB SWAP1 RETURN JUMPDEST PUSH2 0xB7 PUSH1 0x4 DUP1 CALLDATASIZE SUB DUP2 ADD SWAP1 PUSH2 0xB2 SWAP2 SWAP1 PUSH2 0x3FE JUMP JUMPDEST PUSH2 0x1EF JUMP JUMPDEST PUSH1 0x40 MLOAD PUSH2 0xC4 SWAP2 SWAP1 PUSH2 0x438 JUMP JUMPDEST PUSH1 0x40 MLOAD DUP1 SWAP2 SUB SWAP1 RETURN JUMPDEST PUSH2 0xD5 PUSH2 0x20A JUMP JUMPDEST PUSH1 0x40 MLOAD PUSH2 0xE2 SWAP2 SWAP1 PUSH2 0x3A7 JUMP JUMPDEST PUSH1 0x40 MLOAD DUP1 SWAP2 SUB SWAP1 RETURN JUMPDEST PUSH2 0xF3 PUSH2 0x295 JUMP JUMPDEST PUSH1 0x40 MLOAD PUSH2 0x100 SWAP2 SWAP1 PUSH2 0x438 JUMP JUMPDEST PUSH1 0x40 MLOAD DUP1 SWAP2 SUB SWAP1 RETURN JUMPDEST PUSH2 0x111 PUSH2 0x29D JUMP JUMPDEST PUSH1 0x40 MLOAD PUSH2 0x11E SWAP2 SWAP1 PUSH2 0x3A7 JUMP JUMPDEST PUSH1 0x40 MLOAD DUP1 SWAP2 SUB SWAP1 RETURN JUMPDEST PUSH2 0x12F PUSH2 0x329 JUMP JUMPDEST PUSH1 0x40 MLOAD PUSH2 0x13C SWAP2 SWAP1 PUSH2 0x438 JUMP JUMPDEST PUSH1 0x40 MLOAD DUP1 SWAP2 SUB SWAP1 RETURN JUMPDEST PUSH2 0x14D PUSH2 0x32F JUMP JUMPDEST PUSH1 0x40 MLOAD PUSH2 0x15A SWAP2 SWAP1 PUSH2 0x438 JUMP JUMPDEST PUSH1 0x40 MLOAD DUP1 SWAP2 SUB SWAP1 RETURN JUMPDEST PUSH1 0x1 DUP1 SLOAD PUSH2 0x170 SWAP1 PUSH2 0x47E JUMP JUMPDEST DUP1 PUSH1 0x1F ADD PUSH1 0x20 DUP1 SWAP2 DIV MUL PUSH1 0x20 ADD PUSH1 0x40 MLOAD SWAP1 DUP2 ADD PUSH1 0x40 MSTORE DUP1 SWAP3 SWAP2 SWAP1 DUP2 DUP2 MSTORE PUSH1 0x20 ADD DUP3 DUP1 SLOAD PUSH2 0x19C SWAP1 PUSH2 0x47E JUMP JUMPDEST DUP1 ISZERO PUSH2 0x1E7 JUMPI DUP1 PUSH1 0x1F LT PUSH2 0x1BE JUMPI PUSH2 0x100 DUP1 DUP4 SLOAD DIV MUL DUP4 MSTORE SWAP2 PUSH1 0x20 ADD SWAP2 PUSH2 0x1E7 JUMP JUMPDEST DUP3 ADD SWAP2 SWAP1 PUSH0 MSTORE PUSH1 0x20 PUSH0 KECCAK256 SWAP1 JUMPDEST DUP2 SLOAD DUP2 MSTORE SWAP1 PUSH1 0x1 ADD SWAP1 PUSH1 0x20 ADD DUP1 DUP4 GT PUSH2 0x1CA JUMPI DUP3 SWAP1 SUB PUSH1 0x1F AND DUP3 ADD SWAP2 JUMPDEST POP POP POP POP POP DUP2 JUMP JUMPDEST PUSH0 PUSH2 0x1F8 PUSH2 0x32F JUMP JUMPDEST DUP3 PUSH2 0x203 SWAP2 SWAP1 PUSH2 0x4DB JUMP JUMPDEST SWAP1 POP SWAP2 SWAP1 POP JUMP JUMPDEST PUSH0 DUP1 SLOAD PUSH2 0x216 SWAP1 PUSH2 0x47E JUMP JUMPDEST DUP1 PUSH1 0x1F ADD PUSH1 0x20 DUP1 SWAP2 DIV MUL PUSH1 0x20 ADD PUSH1 0x40 MLOAD SWAP1 DUP2 ADD PUSH1 0x40 MSTORE DUP1 SWAP3 SWAP2 SWAP1 DUP2 DUP2 MSTORE PUSH1 0x20 ADD DUP3 DUP1 SLOAD PUSH2 0x242 SWAP1 PUSH2 0x47E JUMP JUMPDEST DUP1 ISZERO PUSH2 0x28D JUMPI DUP1 PUSH1 0x1F LT PUSH2 0x264 JUMPI PUSH2 0x100 DUP1 DUP4 SLOAD DIV MUL DUP4 MSTORE SWAP2 PUSH1 0x20 ADD SWAP2 PUSH2 0x28D JUMP JUMPDEST DUP3 ADD SWAP2 SWAP1 PUSH0 MSTORE PUSH1 0x20 PUSH0 KECCAK256 SWAP1 JUMPDEST DUP2 SLOAD DUP2 MSTORE SWAP1 PUSH1 0x1 ADD SWAP1 PUSH1 0x20 ADD DUP1 DUP4 GT PUSH2 0x270 JUMPI DUP3 SWAP1 SUB PUSH1 0x1F AND DUP3 ADD SWAP2 JUMPDEST POP POP POP POP POP DUP2 JUMP JUMPDEST PUSH0 PUSH1 0x78 SWAP1 POP SWAP1 JUMP JUMPDEST PUSH1 0x3 DUP1 SLOAD PUSH2 0x2AA SWAP1 PUSH2 0x47E JUMP JUMPDEST DUP1 PUSH1 0x1F ADD PUSH1 0x20 DUP1 SWAP2 DIV MUL PUSH1 0x20 ADD PUSH1 0x40 MLOAD SWAP1 DUP2 ADD PUSH1 0x40 MSTORE DUP1 SWAP3 SWAP2 SWAP1 DUP2 DUP2 MSTORE PUSH1 0x20 ADD DUP3 DUP1 SLOAD PUSH2 0x2D6 SWAP1 PUSH2 0x47E JUMP JUMPDEST DUP1 ISZERO PUSH2 0x321 JUMPI DUP1 PUSH1 0x1F LT PUSH2 0x2F8 JUMPI PUSH2 0x100 DUP1 DUP4 SLOAD DIV MUL DUP4 MSTORE SWAP2 PUSH1 0x20 ADD SWAP2 PUSH2 0x321 JUMP JUMPDEST DUP3 ADD SWAP2 SWAP1 PUSH0 MSTORE PUSH1 0x20 PUSH0 KECCAK256 SWAP1 JUMPDEST DUP2 SLOAD DUP2 MSTORE SWAP1 PUSH1 0x1 ADD SWAP1 PUSH1 0x20 ADD DUP1 DUP4 GT PUSH2 0x304 JUMPI DUP3 SWAP1 SUB PUSH1 0x1F AND DUP3 ADD SWAP2 JUMPDEST POP POP POP POP POP DUP2 JUMP JUMPDEST PUSH1 0x2 SLOAD DUP2 JUMP JUMPDEST PUSH0 PUSH1 0xF SWAP1 POP SWAP1 JUMP JUMPDEST PUSH0 DUP2 MLOAD SWAP1 POP SWAP2 SWAP1 POP JUMP JUMPDEST PUSH0 DUP3 DUP3 MSTORE PUSH1 0x20 DUP3 ADD SWAP1 POP SWAP3 SWAP2 POP POP JUMP JUMPDEST DUP3 DUP2 DUP4 MCOPY PUSH0 DUP4 DUP4 ADD MSTORE POP POP POP JUMP JUMPDEST PUSH0 PUSH1 0x1F NOT PUSH1 0x1F DUP4 ADD AND SWAP1 POP SWAP2 SWAP1 POP JUMP JUMPDEST PUSH0 PUSH2 0x379 DUP3 PUSH2 0x337 JUMP JUMPDEST PUSH2 0x383 DUP2 DUP6 PUSH2 0x341 JUMP JUMPDEST SWAP4 POP PUSH2 0x393 DUP2 DUP6 PUSH1 0x20 DUP7 ADD PUSH2 0x351 JUMP JUMPDEST PUSH2 0x39C DUP2 PUSH2 0x35F JUMP JUMPDEST DUP5 ADD SWAP2 POP POP SWAP3 SWAP2 POP POP JUMP JUMPDEST PUSH0 PUSH1 0x20 DUP3 ADD SWAP1 POP DUP2 DUP2 SUB PUSH0 DUP4 ADD MSTORE PUSH2 0x3BF DUP2 DUP5 PUSH2 0x36F JUMP JUMPDEST SWAP1 POP SWAP3 SWAP2 POP POP JUMP JUMPDEST PUSH0 DUP1 REVERT JUMPDEST PUSH0 DUP2 SWAP1 POP SWAP2 SWAP1 POP JUMP JUMPDEST PUSH2 0x3DD DUP2 PUSH2 0x3CB JUMP JUMPDEST DUP2 EQ PUSH2 0x3E7 JUMPI PUSH0 DUP1 REVERT JUMPDEST POP JUMP JUMPDEST PUSH0 DUP2 CALLDATALOAD SWAP1 POP PUSH2 0x3F8 DUP2 PUSH2 0x3D4 JUMP JUMPDEST SWAP3 SWAP2 POP POP JUMP JUMPDEST PUSH0 PUSH1 0x20 DUP3 DUP5 SUB SLT ISZERO PUSH2 0x413 JUMPI PUSH2 0x412 PUSH2 0x3C7 JUMP JUMPDEST JUMPDEST PUSH0 PUSH2 0x420 DUP5 DUP3 DUP6 ADD PUSH2 0x3EA JUMP JUMPDEST SWAP2 POP POP SWAP3 SWAP2 POP POP JUMP JUMPDEST PUSH2 0x432 DUP2 PUSH2 0x3CB JUMP JUMPDEST DUP3 MSTORE POP POP JUMP JUMPDEST PUSH0 PUSH1 0x20 DUP3 ADD SWAP1 POP PUSH2 0x44B PUSH0 DUP4 ADD DUP5 PUSH2 0x429 JUMP JUMPDEST SWAP3 SWAP2 POP POP JUMP JUMPDEST PUSH32 0x4E487B7100000000000000000000000000000000000000000000000000000000 PUSH0 MSTORE PUSH1 0x22 PUSH1 0x4 MSTORE PUSH1 0x24 PUSH0 REVERT JUMPDEST PUSH0 PUSH1 0x2 DUP3 DIV SWAP1 POP PUSH1 0x1 DUP3 AND DUP1 PUSH2 0x495 JUMPI PUSH1 0x7F DUP3 AND SWAP2 POP JUMPDEST PUSH1 0x20 DUP3 LT DUP2 SUB PUSH2 0x4A8 JUMPI PUSH2 0x4A7 PUSH2 0x451 JUMP JUMPDEST JUMPDEST POP SWAP2 SWAP1 POP JUMP JUMPDEST PUSH32 0x4E487B7100000000000000000000000000000000000000000000000000000000 PUSH0 MSTORE PUSH1 0x11 PUSH1 0x4 MSTORE PUSH1 0x24 PUSH0 REVERT JUMPDEST PUSH0 PUSH2 0x4E5 DUP3 PUSH2 0x3CB JUMP JUMPDEST SWAP2 POP PUSH2 0x4F0 DUP4 PUSH2 0x3CB JUMP JUMPDEST SWAP3 POP DUP3 DUP3 MUL PUSH2 0x4FE DUP2 PUSH2 0x3CB JUMP JUMPDEST SWAP2 POP DUP3 DUP3 DIV DUP5 EQ DUP4 ISZERO OR PUSH2 0x515 JUMPI PUSH2 0x514 PUSH2 0x4AE JUMP JUMPDEST JUMPDEST POP SWAP3 SWAP2 POP POP JUMP INVALID LOG2 PUSH5 0x6970667358 0x22 SLT KECCAK256 CALLDATALOAD CALLCODE PUSH17 0x4363B13A9BB30924398036F672FFBB2769 0xCB REVERT SGT 0xF8 0xC7 0x26 JUMPI MULMOD 0xAB 0xE6 0xE3 XOR PUSH5 0x736F6C6343 STOP ADDMOD BYTE STOP CALLER "
		},
		"gasEstimates": {
			"creation": {
				"codeDepositCost": "272400",
				"executionCost": "infinite",
				"totalCost": "infinite"
			},
			"external": {
				"distanceTraveled(uint256)": "infinite",
				"fuelEfficiency()": "398",
				"fuelType()": "infinite",
				"make()": "infinite",
				"maxSpeed()": "332",
				"model()": "infinite",
				"year()": "2469"
			}
		},
		"methodIdentifiers": {
			"distanceTraveled(uint256)": "1e006929",
			"fuelEfficiency()": "f64eeab6",
			"fuelType()": "e8311f84",
			"make()": "c6dad082",
			"maxSpeed()": "d21e1993",
			"model()": "0ad9d052",
			"year()": "f3269716"
		}
	},
	"abi": [
		{
			"inputs": [
				{
					"internalType": "string",
					"name": "_make",
					"type": "string"
				},
				{
					"internalType": "string",
					"name": "_model",
					"type": "string"
				},
				{
					"internalType": "uint256",
					"name": "_year",
					"type": "uint256"
				},
				{
					"internalType": "string",
					"name": "_fuelType",
					"type": "string"
				}
			],
			"stateMutability": "nonpayable",
			"type": "constructor"
		},
		{
			"inputs": [
				{
					"internalType": "uint256",
					"name": "fuelAmount",
					"type": "uint256"
				}
			],
			"name": "distanceTraveled",
			"outputs": [
				{
					"internalType": "uint256",
					"name": "",
					"type": "uint256"
				}
			],
			"stateMutability": "pure",
			"type": "function"
		},
		{
			"inputs": [],
			"name": "fuelEfficiency",
			"outputs": [
				{
					"internalType": "uint256",
					"name": "",
					"type": "uint256"
				}
			],
			"stateMutability": "pure",
			"type": "function"
		},
		{
			"inputs": [],
			"name": "fuelType",
			"outputs": [
				{
					"internalType": "string",
					"name": "",
					"type": "string"
				}
			],
			"stateMutability": "view",
			"type": "function"
		},
		{
			"inputs": [],
			"name": "make",
			"outputs": [
				{
					"internalType": "string",
					"name": "",
					"type": "string"
				}
			],
			"stateMutability": "view",
			"type": "function"
		},
		{
			"inputs": [],
			"name": "maxSpeed",
			"outputs": [
				{
					"internalType": "uint256",
					"name": "",
					"type": "uint256"
				}
			],
			"stateMutability": "pure",
			"type": "function"
		},
		{
			"inputs": [],
			"name": "model",
			"outputs": [
				{
					"internalType": "string",
					"name": "",
					"type": "string"
				}
			],
			"stateMutability": "view",
			"type": "function"
		},
		{
			"inputs": [],
			"name": "year",
			"outputs": [
				{
					"internalType": "uint256",
					"name": "",
					"type": "uint256"
				}
			],
			"stateMutability": "view",
			"type": "function"
		}
	]
}