{
	"day3/p3.sol": {
		"TriangleProperties": {
			"abi": [
				{
					"inputs": [
						{
							"internalType": "int256",
							"name": "a",
							"type": "int256"
						},
						{
							"internalType": "int256",
							"name": "b",
							"type": "int256"
						},
						{
							"internalType": "int256",
							"name": "c",
							"type": "int256"
						}
					],
					"name": "getTriangleTypeAndArea",
					"outputs": [
						{
							"internalType": "string",
							"name": "",
							"type": "string"
						},
						{
							"internalType": "string",
							"name": "",
							"type": "string"
						},
						{
							"internalType": "int256",
							"name": "",
							"type": "int256"
						}
					],
					"stateMutability": "pure",
					"type": "function"
				},
				{
					"inputs": [
						{
							"internalType": "int256",
							"name": "a",
							"type": "int256"
						},
						{
							"internalType": "int256",
							"name": "b",
							"type": "int256"
						},
						{
							"internalType": "int256",
							"name": "c",
							"type": "int256"
						}
					],
					"name": "isValidTriangle",
					"outputs": [
						{
							"internalType": "bool",
							"name": "",
							"type": "bool"
						}
					],
					"stateMutability": "pure",
					"type": "function"
				},
				{
					"inputs": [
						{
							"internalType": "uint256",
							"name": "y",
							"type": "uint256"
						}
					],
					"name": "sqrt",
					"outputs": [
						{
							"internalType": "uint256",
							"name": "z",
							"type": "uint256"
						}
					],
					"stateMutability": "pure",
					"type": "function"
				}
			],
			"devdoc": {
				"kind": "dev",
				"methods": {},
				"version": 1
			},
			"evm": {
				"assembly": "    /* \"day3/p3.sol\":60:1705  contract TriangleProperties {... */\n  mstore(0x40, 0x80)\n  callvalue\n  dup1\n  iszero\n  tag_1\n  jumpi\n  0x00\n  dup1\n  revert\ntag_1:\n  pop\n  dataSize(sub_0)\n  dup1\n  dataOffset(sub_0)\n  0x00\n  codecopy\n  0x00\n  return\nstop\n\nsub_0: assembly {\n        /* \"day3/p3.sol\":60:1705  contract TriangleProperties {... */\n      mstore(0x40, 0x80)\n      callvalue\n      dup1\n      iszero\n      tag_1\n      jumpi\n      0x00\n      dup1\n      revert\n    tag_1:\n      pop\n      jumpi(tag_2, lt(calldatasize, 0x04))\n      shr(0xe0, calldataload(0x00))\n      dup1\n      0x31df7cc8\n      eq\n      tag_3\n      jumpi\n      dup1\n      0x677342ce\n      eq\n      tag_4\n      jumpi\n      dup1\n      0xaf2e6168\n      eq\n      tag_5\n      jumpi\n    tag_2:\n      0x00\n      dup1\n      revert\n        /* \"day3/p3.sol\":160:296  function isValidTriangle(int a, int b, int c) public pure returns (bool) {... */\n    tag_3:\n      tag_6\n      0x04\n      dup1\n      calldatasize\n      sub\n      dup2\n      add\n      swap1\n      tag_7\n      swap2\n      swap1\n      tag_8\n      jump\t// in\n    tag_7:\n      tag_9\n      jump\t// in\n    tag_6:\n      mload(0x40)\n      tag_10\n      swap2\n      swap1\n      tag_11\n      jump\t// in\n    tag_10:\n      mload(0x40)\n      dup1\n      swap2\n      sub\n      swap1\n      return\n        /* \"day3/p3.sol\":1401:1702  function sqrt(uint y) public pure returns (uint z) {... */\n    tag_4:\n      tag_12\n      0x04\n      dup1\n      calldatasize\n      sub\n      dup2\n      add\n      swap1\n      tag_13\n      swap2\n      swap1\n      tag_14\n      jump\t// in\n    tag_13:\n      tag_15\n      jump\t// in\n    tag_12:\n      mload(0x40)\n      tag_16\n      swap2\n      swap1\n      tag_17\n      jump\t// in\n    tag_16:\n      mload(0x40)\n      dup1\n      swap2\n      sub\n      swap1\n      return\n        /* \"day3/p3.sol\":367:1328  function getTriangleTypeAndArea(int a, int b, int c) public pure returns (string memory, string memory, int) {... */\n    tag_5:\n      tag_18\n      0x04\n      dup1\n      calldatasize\n      sub\n      dup2\n      add\n      swap1\n      tag_19\n      swap2\n      swap1\n      tag_8\n      jump\t// in\n    tag_19:\n      tag_20\n      jump\t// in\n    tag_18:\n      mload(0x40)\n      tag_21\n      swap4\n      swap3\n      swap2\n      swap1\n      tag_22\n      jump\t// in\n    tag_21:\n      mload(0x40)\n      dup1\n      swap2\n      sub\n      swap1\n      return\n        /* \"day3/p3.sol\":160:296  function isValidTriangle(int a, int b, int c) public pure returns (bool) {... */\n    tag_9:\n        /* \"day3/p3.sol\":227:231  bool */\n      0x00\n        /* \"day3/p3.sol\":260:261  c */\n      dup2\n        /* \"day3/p3.sol\":256:257  b */\n      dup4\n        /* \"day3/p3.sol\":252:253  a */\n      dup6\n        /* \"day3/p3.sol\":252:257  a + b */\n      tag_24\n      swap2\n      swap1\n      tag_25\n      jump\t// in\n    tag_24:\n        /* \"day3/p3.sol\":252:261  a + b > c */\n      sgt\n        /* \"day3/p3.sol\":252:274  a + b > c && a + c > b */\n      dup1\n      iszero\n      tag_26\n      jumpi\n      pop\n        /* \"day3/p3.sol\":273:274  b */\n      dup3\n        /* \"day3/p3.sol\":269:270  c */\n      dup3\n        /* \"day3/p3.sol\":265:266  a */\n      dup6\n        /* \"day3/p3.sol\":265:270  a + c */\n      tag_27\n      swap2\n      swap1\n      tag_25\n      jump\t// in\n    tag_27:\n        /* \"day3/p3.sol\":265:274  a + c > b */\n      sgt\n        /* \"day3/p3.sol\":252:274  a + b > c && a + c > b */\n    tag_26:\n        /* \"day3/p3.sol\":252:287  a + b > c && a + c > b && b + c > a */\n      dup1\n      iszero\n      tag_28\n      jumpi\n      pop\n        /* \"day3/p3.sol\":286:287  a */\n      dup4\n        /* \"day3/p3.sol\":282:283  c */\n      dup3\n        /* \"day3/p3.sol\":278:279  b */\n      dup5\n        /* \"day3/p3.sol\":278:283  b + c */\n      tag_29\n      swap2\n      swap1\n      tag_25\n      jump\t// in\n    tag_29:\n        /* \"day3/p3.sol\":278:287  b + c > a */\n      sgt\n        /* \"day3/p3.sol\":252:287  a + b > c && a + c > b && b + c > a */\n    tag_28:\n        /* \"day3/p3.sol\":244:288  return (a + b > c && a + c > b && b + c > a) */\n      swap1\n      pop\n        /* \"day3/p3.sol\":160:296  function isValidTriangle(int a, int b, int c) public pure returns (bool) {... */\n      swap4\n      swap3\n      pop\n      pop\n      pop\n      jump\t// out\n        /* \"day3/p3.sol\":1401:1702  function sqrt(uint y) public pure returns (uint z) {... */\n    tag_15:\n        /* \"day3/p3.sol\":1444:1450  uint z */\n      0x00\n        /* \"day3/p3.sol\":1471:1472  3 */\n      0x03\n        /* \"day3/p3.sol\":1467:1468  y */\n      dup3\n        /* \"day3/p3.sol\":1467:1472  y > 3 */\n      gt\n        /* \"day3/p3.sol\":1463:1695  if (y > 3) {... */\n      iszero\n      tag_31\n      jumpi\n        /* \"day3/p3.sol\":1493:1494  y */\n      dup2\n        /* \"day3/p3.sol\":1489:1494  z = y */\n      swap1\n      pop\n        /* \"day3/p3.sol\":1509:1515  uint x */\n      0x00\n        /* \"day3/p3.sol\":1526:1527  1 */\n      0x01\n        /* \"day3/p3.sol\":1522:1523  2 */\n      0x02\n        /* \"day3/p3.sol\":1518:1519  y */\n      dup5\n        /* \"day3/p3.sol\":1518:1523  y / 2 */\n      tag_32\n      swap2\n      swap1\n      tag_33\n      jump\t// in\n    tag_32:\n        /* \"day3/p3.sol\":1518:1527  y / 2 + 1 */\n      tag_34\n      swap2\n      swap1\n      tag_35\n      jump\t// in\n    tag_34:\n        /* \"day3/p3.sol\":1509:1527  uint x = y / 2 + 1 */\n      swap1\n      pop\n        /* \"day3/p3.sol\":1542:1634  while (x < z) {... */\n    tag_36:\n        /* \"day3/p3.sol\":1553:1554  z */\n      dup2\n        /* \"day3/p3.sol\":1549:1550  x */\n      dup2\n        /* \"day3/p3.sol\":1549:1554  x < z */\n      lt\n        /* \"day3/p3.sol\":1542:1634  while (x < z) {... */\n      iszero\n      tag_37\n      jumpi\n        /* \"day3/p3.sol\":1579:1580  x */\n      dup1\n        /* \"day3/p3.sol\":1575:1580  z = x */\n      swap2\n      pop\n        /* \"day3/p3.sol\":1617:1618  2 */\n      0x02\n        /* \"day3/p3.sol\":1612:1613  x */\n      dup2\n        /* \"day3/p3.sol\":1608:1609  x */\n      dup3\n        /* \"day3/p3.sol\":1604:1605  y */\n      dup6\n        /* \"day3/p3.sol\":1604:1609  y / x */\n      tag_38\n      swap2\n      swap1\n      tag_33\n      jump\t// in\n    tag_38:\n        /* \"day3/p3.sol\":1604:1613  y / x + x */\n      tag_39\n      swap2\n      swap1\n      tag_35\n      jump\t// in\n    tag_39:\n        /* \"day3/p3.sol\":1603:1618  (y / x + x) / 2 */\n      tag_40\n      swap2\n      swap1\n      tag_33\n      jump\t// in\n    tag_40:\n        /* \"day3/p3.sol\":1599:1618  x = (y / x + x) / 2 */\n      swap1\n      pop\n        /* \"day3/p3.sol\":1542:1634  while (x < z) {... */\n      jump(tag_36)\n    tag_37:\n        /* \"day3/p3.sol\":1474:1645  {... */\n      pop\n        /* \"day3/p3.sol\":1463:1695  if (y > 3) {... */\n      jump(tag_41)\n    tag_31:\n        /* \"day3/p3.sol\":1660:1661  0 */\n      0x00\n        /* \"day3/p3.sol\":1655:1656  y */\n      dup3\n        /* \"day3/p3.sol\":1655:1661  y != 0 */\n      eq\n        /* \"day3/p3.sol\":1651:1695  if (y != 0) {... */\n      tag_42\n      jumpi\n        /* \"day3/p3.sol\":1682:1683  1 */\n      0x01\n        /* \"day3/p3.sol\":1678:1683  z = 1 */\n      swap1\n      pop\n        /* \"day3/p3.sol\":1651:1695  if (y != 0) {... */\n    tag_42:\n        /* \"day3/p3.sol\":1463:1695  if (y > 3) {... */\n    tag_41:\n        /* \"day3/p3.sol\":1401:1702  function sqrt(uint y) public pure returns (uint z) {... */\n      swap2\n      swap1\n      pop\n      jump\t// out\n        /* \"day3/p3.sol\":367:1328  function getTriangleTypeAndArea(int a, int b, int c) public pure returns (string memory, string memory, int) {... */\n    tag_20:\n        /* \"day3/p3.sol\":441:454  string memory */\n      0x60\n        /* \"day3/p3.sol\":456:469  string memory */\n      dup1\n        /* \"day3/p3.sol\":471:474  int */\n      0x00\n        /* \"day3/p3.sol\":545:569  isValidTriangle(a, b, c) */\n      tag_44\n        /* \"day3/p3.sol\":561:562  a */\n      dup7\n        /* \"day3/p3.sol\":564:565  b */\n      dup7\n        /* \"day3/p3.sol\":567:568  c */\n      dup7\n        /* \"day3/p3.sol\":545:560  isValidTriangle */\n      tag_9\n        /* \"day3/p3.sol\":545:569  isValidTriangle(a, b, c) */\n      jump\t// in\n    tag_44:\n        /* \"day3/p3.sol\":537:622  require(isValidTriangle(a, b, c), \"The provided sides do not form a valid triangle.\") */\n      tag_45\n      jumpi\n      mload(0x40)\n      0x08c379a000000000000000000000000000000000000000000000000000000000\n      dup2\n      mstore\n      0x04\n      add\n      tag_46\n      swap1\n      tag_47\n      jump\t// in\n    tag_46:\n      mload(0x40)\n      dup1\n      swap2\n      sub\n      swap1\n      revert\n    tag_45:\n        /* \"day3/p3.sol\":690:716  string memory triangleType */\n      0x60\n        /* \"day3/p3.sol\":746:747  b */\n      dup6\n        /* \"day3/p3.sol\":741:742  a */\n      dup8\n        /* \"day3/p3.sol\":741:747  a == b */\n      eq\n        /* \"day3/p3.sol\":741:757  a == b && b == c */\n      dup1\n      iszero\n      tag_48\n      jumpi\n      pop\n        /* \"day3/p3.sol\":756:757  c */\n      dup5\n        /* \"day3/p3.sol\":751:752  b */\n      dup7\n        /* \"day3/p3.sol\":751:757  b == c */\n      eq\n        /* \"day3/p3.sol\":741:757  a == b && b == c */\n    tag_48:\n        /* \"day3/p3.sol\":737:1104  if (a == b && b == c) {... */\n      iszero\n      tag_49\n      jumpi\n        /* \"day3/p3.sol\":774:802  triangleType = \"Equilateral\" */\n      mload(0x40)\n      dup1\n      0x40\n      add\n      0x40\n      mstore\n      dup1\n      0x0b\n      dup2\n      mstore\n      0x20\n      add\n      0x457175696c61746572616c000000000000000000000000000000000000000000\n      dup2\n      mstore\n      pop\n      swap1\n      pop\n        /* \"day3/p3.sol\":737:1104  if (a == b && b == c) {... */\n      jump(tag_50)\n    tag_49:\n        /* \"day3/p3.sol\":829:830  b */\n      dup6\n        /* \"day3/p3.sol\":824:825  a */\n      dup8\n        /* \"day3/p3.sol\":824:830  a == b */\n      eq\n        /* \"day3/p3.sol\":824:840  a == b || b == c */\n      dup1\n      tag_51\n      jumpi\n      pop\n        /* \"day3/p3.sol\":839:840  c */\n      dup5\n        /* \"day3/p3.sol\":834:835  b */\n      dup7\n        /* \"day3/p3.sol\":834:840  b == c */\n      eq\n        /* \"day3/p3.sol\":824:840  a == b || b == c */\n    tag_51:\n        /* \"day3/p3.sol\":824:850  a == b || b == c || a == c */\n      dup1\n      tag_52\n      jumpi\n      pop\n        /* \"day3/p3.sol\":849:850  c */\n      dup5\n        /* \"day3/p3.sol\":844:845  a */\n      dup8\n        /* \"day3/p3.sol\":844:850  a == c */\n      eq\n        /* \"day3/p3.sol\":824:850  a == b || b == c || a == c */\n    tag_52:\n        /* \"day3/p3.sol\":820:1104  if (a == b || b == c || a == c) {... */\n      iszero\n      tag_53\n      jumpi\n        /* \"day3/p3.sol\":867:893  triangleType = \"Isosceles\" */\n      mload(0x40)\n      dup1\n      0x40\n      add\n      0x40\n      mstore\n      dup1\n      0x09\n      dup2\n      mstore\n      0x20\n      add\n      0x49736f7363656c65730000000000000000000000000000000000000000000000\n      dup2\n      mstore\n      pop\n      swap1\n      pop\n        /* \"day3/p3.sol\":820:1104  if (a == b || b == c || a == c) {... */\n      jump(tag_54)\n    tag_53:\n        /* \"day3/p3.sol\":936:937  c */\n      dup5\n        /* \"day3/p3.sol\":932:933  c */\n      dup6\n        /* \"day3/p3.sol\":932:937  c * c */\n      tag_55\n      swap2\n      swap1\n      tag_56\n      jump\t// in\n    tag_55:\n        /* \"day3/p3.sol\":927:928  b */\n      dup7\n        /* \"day3/p3.sol\":923:924  b */\n      dup8\n        /* \"day3/p3.sol\":923:928  b * b */\n      tag_57\n      swap2\n      swap1\n      tag_56\n      jump\t// in\n    tag_57:\n        /* \"day3/p3.sol\":919:920  a */\n      dup9\n        /* \"day3/p3.sol\":915:916  a */\n      dup10\n        /* \"day3/p3.sol\":915:920  a * a */\n      tag_58\n      swap2\n      swap1\n      tag_56\n      jump\t// in\n    tag_58:\n        /* \"day3/p3.sol\":915:928  a * a + b * b */\n      tag_59\n      swap2\n      swap1\n      tag_25\n      jump\t// in\n    tag_59:\n        /* \"day3/p3.sol\":915:937  a * a + b * b == c * c */\n      eq\n        /* \"day3/p3.sol\":915:963  a * a + b * b == c * c || b * b + c * c == a * a */\n      dup1\n      tag_60\n      jumpi\n      pop\n        /* \"day3/p3.sol\":962:963  a */\n      dup7\n        /* \"day3/p3.sol\":958:959  a */\n      dup8\n        /* \"day3/p3.sol\":958:963  a * a */\n      tag_61\n      swap2\n      swap1\n      tag_56\n      jump\t// in\n    tag_61:\n        /* \"day3/p3.sol\":953:954  c */\n      dup6\n        /* \"day3/p3.sol\":949:950  c */\n      dup7\n        /* \"day3/p3.sol\":949:954  c * c */\n      tag_62\n      swap2\n      swap1\n      tag_56\n      jump\t// in\n    tag_62:\n        /* \"day3/p3.sol\":945:946  b */\n      dup8\n        /* \"day3/p3.sol\":941:942  b */\n      dup9\n        /* \"day3/p3.sol\":941:946  b * b */\n      tag_63\n      swap2\n      swap1\n      tag_56\n      jump\t// in\n    tag_63:\n        /* \"day3/p3.sol\":941:954  b * b + c * c */\n      tag_64\n      swap2\n      swap1\n      tag_25\n      jump\t// in\n    tag_64:\n        /* \"day3/p3.sol\":941:963  b * b + c * c == a * a */\n      eq\n        /* \"day3/p3.sol\":915:963  a * a + b * b == c * c || b * b + c * c == a * a */\n    tag_60:\n        /* \"day3/p3.sol\":915:989  a * a + b * b == c * c || b * b + c * c == a * a || c * c + a * a == b * b */\n      dup1\n      tag_65\n      jumpi\n      pop\n        /* \"day3/p3.sol\":988:989  b */\n      dup6\n        /* \"day3/p3.sol\":984:985  b */\n      dup7\n        /* \"day3/p3.sol\":984:989  b * b */\n      tag_66\n      swap2\n      swap1\n      tag_56\n      jump\t// in\n    tag_66:\n        /* \"day3/p3.sol\":979:980  a */\n      dup8\n        /* \"day3/p3.sol\":975:976  a */\n      dup9\n        /* \"day3/p3.sol\":975:980  a * a */\n      tag_67\n      swap2\n      swap1\n      tag_56\n      jump\t// in\n    tag_67:\n        /* \"day3/p3.sol\":971:972  c */\n      dup7\n        /* \"day3/p3.sol\":967:968  c */\n      dup8\n        /* \"day3/p3.sol\":967:972  c * c */\n      tag_68\n      swap2\n      swap1\n      tag_56\n      jump\t// in\n    tag_68:\n        /* \"day3/p3.sol\":967:980  c * c + a * a */\n      tag_69\n      swap2\n      swap1\n      tag_25\n      jump\t// in\n    tag_69:\n        /* \"day3/p3.sol\":967:989  c * c + a * a == b * b */\n      eq\n        /* \"day3/p3.sol\":915:989  a * a + b * b == c * c || b * b + c * c == a * a || c * c + a * a == b * b */\n    tag_65:\n        /* \"day3/p3.sol\":911:1104  if (a * a + b * b == c * c || b * b + c * c == a * a || c * c + a * a == b * b) {... */\n      iszero\n      tag_70\n      jumpi\n        /* \"day3/p3.sol\":1006:1035  triangleType = \"Right-angled\" */\n      mload(0x40)\n      dup1\n      0x40\n      add\n      0x40\n      mstore\n      dup1\n      0x0c\n      dup2\n      mstore\n      0x20\n      add\n      0x52696768742d616e676c65640000000000000000000000000000000000000000\n      dup2\n      mstore\n      pop\n      swap1\n      pop\n        /* \"day3/p3.sol\":911:1104  if (a * a + b * b == c * c || b * b + c * c == a * a || c * c + a * a == b * b) {... */\n      jump(tag_71)\n    tag_70:\n        /* \"day3/p3.sol\":1068:1092  triangleType = \"Scalene\" */\n      mload(0x40)\n      dup1\n      0x40\n      add\n      0x40\n      mstore\n      dup1\n      0x07\n      dup2\n      mstore\n      0x20\n      add\n      0x5363616c656e6500000000000000000000000000000000000000000000000000\n      dup2\n      mstore\n      pop\n      swap1\n      pop\n        /* \"day3/p3.sol\":911:1104  if (a * a + b * b == c * c || b * b + c * c == a * a || c * c + a * a == b * b) {... */\n    tag_71:\n        /* \"day3/p3.sol\":820:1104  if (a == b || b == c || a == c) {... */\n    tag_54:\n        /* \"day3/p3.sol\":737:1104  if (a == b && b == c) {... */\n    tag_50:\n        /* \"day3/p3.sol\":1169:1174  int s */\n      0x00\n        /* \"day3/p3.sol\":1191:1192  2 */\n      0x02\n        /* \"day3/p3.sol\":1186:1187  c */\n      dup7\n        /* \"day3/p3.sol\":1182:1183  b */\n      dup9\n        /* \"day3/p3.sol\":1178:1179  a */\n      dup11\n        /* \"day3/p3.sol\":1178:1183  a + b */\n      tag_72\n      swap2\n      swap1\n      tag_25\n      jump\t// in\n    tag_72:\n        /* \"day3/p3.sol\":1178:1187  a + b + c */\n      tag_73\n      swap2\n      swap1\n      tag_25\n      jump\t// in\n    tag_73:\n        /* \"day3/p3.sol\":1177:1192  (a + b + c) / 2 */\n      tag_74\n      swap2\n      swap1\n      tag_75\n      jump\t// in\n    tag_74:\n        /* \"day3/p3.sol\":1169:1192  int s = (a + b + c) / 2 */\n      swap1\n      pop\n        /* \"day3/p3.sol\":1203:1211  int area */\n      0x00\n        /* \"day3/p3.sol\":1218:1261  sqrt(uint(s * (s - a) * (s - b) * (s - c))) */\n      tag_76\n        /* \"day3/p3.sol\":1257:1258  c */\n      dup8\n        /* \"day3/p3.sol\":1253:1254  s */\n      dup4\n        /* \"day3/p3.sol\":1253:1258  s - c */\n      tag_77\n      swap2\n      swap1\n      tag_78\n      jump\t// in\n    tag_77:\n        /* \"day3/p3.sol\":1247:1248  b */\n      dup10\n        /* \"day3/p3.sol\":1243:1244  s */\n      dup5\n        /* \"day3/p3.sol\":1243:1248  s - b */\n      tag_79\n      swap2\n      swap1\n      tag_78\n      jump\t// in\n    tag_79:\n        /* \"day3/p3.sol\":1237:1238  a */\n      dup12\n        /* \"day3/p3.sol\":1233:1234  s */\n      dup6\n        /* \"day3/p3.sol\":1233:1238  s - a */\n      tag_80\n      swap2\n      swap1\n      tag_78\n      jump\t// in\n    tag_80:\n        /* \"day3/p3.sol\":1228:1229  s */\n      dup6\n        /* \"day3/p3.sol\":1228:1239  s * (s - a) */\n      tag_81\n      swap2\n      swap1\n      tag_56\n      jump\t// in\n    tag_81:\n        /* \"day3/p3.sol\":1228:1249  s * (s - a) * (s - b) */\n      tag_82\n      swap2\n      swap1\n      tag_56\n      jump\t// in\n    tag_82:\n        /* \"day3/p3.sol\":1228:1259  s * (s - a) * (s - b) * (s - c) */\n      tag_83\n      swap2\n      swap1\n      tag_56\n      jump\t// in\n    tag_83:\n        /* \"day3/p3.sol\":1218:1222  sqrt */\n      tag_15\n        /* \"day3/p3.sol\":1218:1261  sqrt(uint(s * (s - a) * (s - b) * (s - c))) */\n      jump\t// in\n    tag_76:\n        /* \"day3/p3.sol\":1203:1262  int area = int(sqrt(uint(s * (s - a) * (s - b) * (s - c)))) */\n      swap1\n      pop\n        /* \"day3/p3.sol\":1283:1295  triangleType */\n      dup3\n        /* \"day3/p3.sol\":1315:1319  area */\n      dup2\n        /* \"day3/p3.sol\":1275:1320  return (triangleType, \"Valid Triangle\", area) */\n      mload(0x40)\n      dup1\n      0x40\n      add\n      0x40\n      mstore\n      dup1\n      0x0e\n      dup2\n      mstore\n      0x20\n      add\n      0x56616c696420547269616e676c65000000000000000000000000000000000000\n      dup2\n      mstore\n      pop\n      swap1\n      swap6\n      pop\n      swap6\n      pop\n      swap6\n      pop\n      pop\n      pop\n      pop\n        /* \"day3/p3.sol\":367:1328  function getTriangleTypeAndArea(int a, int b, int c) public pure returns (string memory, string memory, int) {... */\n      swap4\n      pop\n      swap4\n      pop\n      swap4\n      swap1\n      pop\n      jump\t// out\n        /* \"#utility.yul\":88:205   */\n    tag_85:\n        /* \"#utility.yul\":197:198   */\n      0x00\n        /* \"#utility.yul\":194:195   */\n      dup1\n        /* \"#utility.yul\":187:199   */\n      revert\n        /* \"#utility.yul\":334:410   */\n    tag_87:\n        /* \"#utility.yul\":370:377   */\n      0x00\n        /* \"#utility.yul\":399:404   */\n      dup2\n        /* \"#utility.yul\":388:404   */\n      swap1\n      pop\n        /* \"#utility.yul\":334:410   */\n      swap2\n      swap1\n      pop\n      jump\t// out\n        /* \"#utility.yul\":416:536   */\n    tag_88:\n        /* \"#utility.yul\":488:511   */\n      tag_112\n        /* \"#utility.yul\":505:510   */\n      dup2\n        /* \"#utility.yul\":488:511   */\n      tag_87\n      jump\t// in\n    tag_112:\n        /* \"#utility.yul\":481:486   */\n      dup2\n        /* \"#utility.yul\":478:512   */\n      eq\n        /* \"#utility.yul\":468:530   */\n      tag_113\n      jumpi\n        /* \"#utility.yul\":526:527   */\n      0x00\n        /* \"#utility.yul\":523:524   */\n      dup1\n        /* \"#utility.yul\":516:528   */\n      revert\n        /* \"#utility.yul\":468:530   */\n    tag_113:\n        /* \"#utility.yul\":416:536   */\n      pop\n      jump\t// out\n        /* \"#utility.yul\":542:679   */\n    tag_89:\n        /* \"#utility.yul\":587:592   */\n      0x00\n        /* \"#utility.yul\":625:631   */\n      dup2\n        /* \"#utility.yul\":612:632   */\n      calldataload\n        /* \"#utility.yul\":603:632   */\n      swap1\n      pop\n        /* \"#utility.yul\":641:673   */\n      tag_115\n        /* \"#utility.yul\":667:672   */\n      dup2\n        /* \"#utility.yul\":641:673   */\n      tag_88\n      jump\t// in\n    tag_115:\n        /* \"#utility.yul\":542:679   */\n      swap3\n      swap2\n      pop\n      pop\n      jump\t// out\n        /* \"#utility.yul\":685:1298   */\n    tag_8:\n        /* \"#utility.yul\":759:765   */\n      0x00\n        /* \"#utility.yul\":767:773   */\n      dup1\n        /* \"#utility.yul\":775:781   */\n      0x00\n        /* \"#utility.yul\":824:826   */\n      0x60\n        /* \"#utility.yul\":812:821   */\n      dup5\n        /* \"#utility.yul\":803:810   */\n      dup7\n        /* \"#utility.yul\":799:822   */\n      sub\n        /* \"#utility.yul\":795:827   */\n      slt\n        /* \"#utility.yul\":792:911   */\n      iszero\n      tag_117\n      jumpi\n        /* \"#utility.yul\":830:909   */\n      tag_118\n      tag_85\n      jump\t// in\n    tag_118:\n        /* \"#utility.yul\":792:911   */\n    tag_117:\n        /* \"#utility.yul\":950:951   */\n      0x00\n        /* \"#utility.yul\":975:1027   */\n      tag_119\n        /* \"#utility.yul\":1019:1026   */\n      dup7\n        /* \"#utility.yul\":1010:1016   */\n      dup3\n        /* \"#utility.yul\":999:1008   */\n      dup8\n        /* \"#utility.yul\":995:1017   */\n      add\n        /* \"#utility.yul\":975:1027   */\n      tag_89\n      jump\t// in\n    tag_119:\n        /* \"#utility.yul\":965:1027   */\n      swap4\n      pop\n        /* \"#utility.yul\":921:1037   */\n      pop\n        /* \"#utility.yul\":1076:1078   */\n      0x20\n        /* \"#utility.yul\":1102:1154   */\n      tag_120\n        /* \"#utility.yul\":1146:1153   */\n      dup7\n        /* \"#utility.yul\":1137:1143   */\n      dup3\n        /* \"#utility.yul\":1126:1135   */\n      dup8\n        /* \"#utility.yul\":1122:1144   */\n      add\n        /* \"#utility.yul\":1102:1154   */\n      tag_89\n      jump\t// in\n    tag_120:\n        /* \"#utility.yul\":1092:1154   */\n      swap3\n      pop\n        /* \"#utility.yul\":1047:1164   */\n      pop\n        /* \"#utility.yul\":1203:1205   */\n      0x40\n        /* \"#utility.yul\":1229:1281   */\n      tag_121\n        /* \"#utility.yul\":1273:1280   */\n      dup7\n        /* \"#utility.yul\":1264:1270   */\n      dup3\n        /* \"#utility.yul\":1253:1262   */\n      dup8\n        /* \"#utility.yul\":1249:1271   */\n      add\n        /* \"#utility.yul\":1229:1281   */\n      tag_89\n      jump\t// in\n    tag_121:\n        /* \"#utility.yul\":1219:1281   */\n      swap2\n      pop\n        /* \"#utility.yul\":1174:1291   */\n      pop\n        /* \"#utility.yul\":685:1298   */\n      swap3\n      pop\n      swap3\n      pop\n      swap3\n      jump\t// out\n        /* \"#utility.yul\":1304:1394   */\n    tag_90:\n        /* \"#utility.yul\":1338:1345   */\n      0x00\n        /* \"#utility.yul\":1381:1386   */\n      dup2\n        /* \"#utility.yul\":1374:1387   */\n      iszero\n        /* \"#utility.yul\":1367:1388   */\n      iszero\n        /* \"#utility.yul\":1356:1388   */\n      swap1\n      pop\n        /* \"#utility.yul\":1304:1394   */\n      swap2\n      swap1\n      pop\n      jump\t// out\n        /* \"#utility.yul\":1400:1509   */\n    tag_91:\n        /* \"#utility.yul\":1481:1502   */\n      tag_124\n        /* \"#utility.yul\":1496:1501   */\n      dup2\n        /* \"#utility.yul\":1481:1502   */\n      tag_90\n      jump\t// in\n    tag_124:\n        /* \"#utility.yul\":1476:1479   */\n      dup3\n        /* \"#utility.yul\":1469:1503   */\n      mstore\n        /* \"#utility.yul\":1400:1509   */\n      pop\n      pop\n      jump\t// out\n        /* \"#utility.yul\":1515:1725   */\n    tag_11:\n        /* \"#utility.yul\":1602:1606   */\n      0x00\n        /* \"#utility.yul\":1640:1642   */\n      0x20\n        /* \"#utility.yul\":1629:1638   */\n      dup3\n        /* \"#utility.yul\":1625:1643   */\n      add\n        /* \"#utility.yul\":1617:1643   */\n      swap1\n      pop\n        /* \"#utility.yul\":1653:1718   */\n      tag_126\n        /* \"#utility.yul\":1715:1716   */\n      0x00\n        /* \"#utility.yul\":1704:1713   */\n      dup4\n        /* \"#utility.yul\":1700:1717   */\n      add\n        /* \"#utility.yul\":1691:1697   */\n      dup5\n        /* \"#utility.yul\":1653:1718   */\n      tag_91\n      jump\t// in\n    tag_126:\n        /* \"#utility.yul\":1515:1725   */\n      swap3\n      swap2\n      pop\n      pop\n      jump\t// out\n        /* \"#utility.yul\":1731:1808   */\n    tag_92:\n        /* \"#utility.yul\":1768:1775   */\n      0x00\n        /* \"#utility.yul\":1797:1802   */\n      dup2\n        /* \"#utility.yul\":1786:1802   */\n      swap1\n      pop\n        /* \"#utility.yul\":1731:1808   */\n      swap2\n      swap1\n      pop\n      jump\t// out\n        /* \"#utility.yul\":1814:1936   */\n    tag_93:\n        /* \"#utility.yul\":1887:1911   */\n      tag_129\n        /* \"#utility.yul\":1905:1910   */\n      dup2\n        /* \"#utility.yul\":1887:1911   */\n      tag_92\n      jump\t// in\n    tag_129:\n        /* \"#utility.yul\":1880:1885   */\n      dup2\n        /* \"#utility.yul\":1877:1912   */\n      eq\n        /* \"#utility.yul\":1867:1930   */\n      tag_130\n      jumpi\n        /* \"#utility.yul\":1926:1927   */\n      0x00\n        /* \"#utility.yul\":1923:1924   */\n      dup1\n        /* \"#utility.yul\":1916:1928   */\n      revert\n        /* \"#utility.yul\":1867:1930   */\n    tag_130:\n        /* \"#utility.yul\":1814:1936   */\n      pop\n      jump\t// out\n        /* \"#utility.yul\":1942:2081   */\n    tag_94:\n        /* \"#utility.yul\":1988:1993   */\n      0x00\n        /* \"#utility.yul\":2026:2032   */\n      dup2\n        /* \"#utility.yul\":2013:2033   */\n      calldataload\n        /* \"#utility.yul\":2004:2033   */\n      swap1\n      pop\n        /* \"#utility.yul\":2042:2075   */\n      tag_132\n        /* \"#utility.yul\":2069:2074   */\n      dup2\n        /* \"#utility.yul\":2042:2075   */\n      tag_93\n      jump\t// in\n    tag_132:\n        /* \"#utility.yul\":1942:2081   */\n      swap3\n      swap2\n      pop\n      pop\n      jump\t// out\n        /* \"#utility.yul\":2087:2416   */\n    tag_14:\n        /* \"#utility.yul\":2146:2152   */\n      0x00\n        /* \"#utility.yul\":2195:2197   */\n      0x20\n        /* \"#utility.yul\":2183:2192   */\n      dup3\n        /* \"#utility.yul\":2174:2181   */\n      dup5\n        /* \"#utility.yul\":2170:2193   */\n      sub\n        /* \"#utility.yul\":2166:2198   */\n      slt\n        /* \"#utility.yul\":2163:2282   */\n      iszero\n      tag_134\n      jumpi\n        /* \"#utility.yul\":2201:2280   */\n      tag_135\n      tag_85\n      jump\t// in\n    tag_135:\n        /* \"#utility.yul\":2163:2282   */\n    tag_134:\n        /* \"#utility.yul\":2321:2322   */\n      0x00\n        /* \"#utility.yul\":2346:2399   */\n      tag_136\n        /* \"#utility.yul\":2391:2398   */\n      dup5\n        /* \"#utility.yul\":2382:2388   */\n      dup3\n        /* \"#utility.yul\":2371:2380   */\n      dup6\n        /* \"#utility.yul\":2367:2389   */\n      add\n        /* \"#utility.yul\":2346:2399   */\n      tag_94\n      jump\t// in\n    tag_136:\n        /* \"#utility.yul\":2336:2399   */\n      swap2\n      pop\n        /* \"#utility.yul\":2292:2409   */\n      pop\n        /* \"#utility.yul\":2087:2416   */\n      swap3\n      swap2\n      pop\n      pop\n      jump\t// out\n        /* \"#utility.yul\":2422:2540   */\n    tag_95:\n        /* \"#utility.yul\":2509:2533   */\n      tag_138\n        /* \"#utility.yul\":2527:2532   */\n      dup2\n        /* \"#utility.yul\":2509:2533   */\n      tag_92\n      jump\t// in\n    tag_138:\n        /* \"#utility.yul\":2504:2507   */\n      dup3\n        /* \"#utility.yul\":2497:2534   */\n      mstore\n        /* \"#utility.yul\":2422:2540   */\n      pop\n      pop\n      jump\t// out\n        /* \"#utility.yul\":2546:2768   */\n    tag_17:\n        /* \"#utility.yul\":2639:2643   */\n      0x00\n        /* \"#utility.yul\":2677:2679   */\n      0x20\n        /* \"#utility.yul\":2666:2675   */\n      dup3\n        /* \"#utility.yul\":2662:2680   */\n      add\n        /* \"#utility.yul\":2654:2680   */\n      swap1\n      pop\n        /* \"#utility.yul\":2690:2761   */\n      tag_140\n        /* \"#utility.yul\":2758:2759   */\n      0x00\n        /* \"#utility.yul\":2747:2756   */\n      dup4\n        /* \"#utility.yul\":2743:2760   */\n      add\n        /* \"#utility.yul\":2734:2740   */\n      dup5\n        /* \"#utility.yul\":2690:2761   */\n      tag_95\n      jump\t// in\n    tag_140:\n        /* \"#utility.yul\":2546:2768   */\n      swap3\n      swap2\n      pop\n      pop\n      jump\t// out\n        /* \"#utility.yul\":2774:2873   */\n    tag_96:\n        /* \"#utility.yul\":2826:2832   */\n      0x00\n        /* \"#utility.yul\":2860:2865   */\n      dup2\n        /* \"#utility.yul\":2854:2866   */\n      mload\n        /* \"#utility.yul\":2844:2866   */\n      swap1\n      pop\n        /* \"#utility.yul\":2774:2873   */\n      swap2\n      swap1\n      pop\n      jump\t// out\n        /* \"#utility.yul\":2879:3048   */\n    tag_97:\n        /* \"#utility.yul\":2963:2974   */\n      0x00\n        /* \"#utility.yul\":2997:3003   */\n      dup3\n        /* \"#utility.yul\":2992:2995   */\n      dup3\n        /* \"#utility.yul\":2985:3004   */\n      mstore\n        /* \"#utility.yul\":3037:3041   */\n      0x20\n        /* \"#utility.yul\":3032:3035   */\n      dup3\n        /* \"#utility.yul\":3028:3042   */\n      add\n        /* \"#utility.yul\":3013:3042   */\n      swap1\n      pop\n        /* \"#utility.yul\":2879:3048   */\n      swap3\n      swap2\n      pop\n      pop\n      jump\t// out\n        /* \"#utility.yul\":3054:3193   */\n    tag_98:\n        /* \"#utility.yul\":3143:3149   */\n      dup3\n        /* \"#utility.yul\":3138:3141   */\n      dup2\n        /* \"#utility.yul\":3133:3136   */\n      dup4\n        /* \"#utility.yul\":3127:3150   */\n      mcopy\n        /* \"#utility.yul\":3184:3185   */\n      0x00\n        /* \"#utility.yul\":3175:3181   */\n      dup4\n        /* \"#utility.yul\":3170:3173   */\n      dup4\n        /* \"#utility.yul\":3166:3182   */\n      add\n        /* \"#utility.yul\":3159:3186   */\n      mstore\n        /* \"#utility.yul\":3054:3193   */\n      pop\n      pop\n      pop\n      jump\t// out\n        /* \"#utility.yul\":3199:3301   */\n    tag_99:\n        /* \"#utility.yul\":3240:3246   */\n      0x00\n        /* \"#utility.yul\":3291:3293   */\n      0x1f\n        /* \"#utility.yul\":3287:3294   */\n      not\n        /* \"#utility.yul\":3282:3284   */\n      0x1f\n        /* \"#utility.yul\":3275:3280   */\n      dup4\n        /* \"#utility.yul\":3271:3285   */\n      add\n        /* \"#utility.yul\":3267:3295   */\n      and\n        /* \"#utility.yul\":3257:3295   */\n      swap1\n      pop\n        /* \"#utility.yul\":3199:3301   */\n      swap2\n      swap1\n      pop\n      jump\t// out\n        /* \"#utility.yul\":3307:3684   */\n    tag_100:\n        /* \"#utility.yul\":3395:3398   */\n      0x00\n        /* \"#utility.yul\":3423:3462   */\n      tag_146\n        /* \"#utility.yul\":3456:3461   */\n      dup3\n        /* \"#utility.yul\":3423:3462   */\n      tag_96\n      jump\t// in\n    tag_146:\n        /* \"#utility.yul\":3478:3549   */\n      tag_147\n        /* \"#utility.yul\":3542:3548   */\n      dup2\n        /* \"#utility.yul\":3537:3540   */\n      dup6\n        /* \"#utility.yul\":3478:3549   */\n      tag_97\n      jump\t// in\n    tag_147:\n        /* \"#utility.yul\":3471:3549   */\n      swap4\n      pop\n        /* \"#utility.yul\":3558:3623   */\n      tag_148\n        /* \"#utility.yul\":3616:3622   */\n      dup2\n        /* \"#utility.yul\":3611:3614   */\n      dup6\n        /* \"#utility.yul\":3604:3608   */\n      0x20\n        /* \"#utility.yul\":3597:3602   */\n      dup7\n        /* \"#utility.yul\":3593:3609   */\n      add\n        /* \"#utility.yul\":3558:3623   */\n      tag_98\n      jump\t// in\n    tag_148:\n        /* \"#utility.yul\":3648:3677   */\n      tag_149\n        /* \"#utility.yul\":3670:3676   */\n      dup2\n        /* \"#utility.yul\":3648:3677   */\n      tag_99\n      jump\t// in\n    tag_149:\n        /* \"#utility.yul\":3643:3646   */\n      dup5\n        /* \"#utility.yul\":3639:3678   */\n      add\n        /* \"#utility.yul\":3632:3678   */\n      swap2\n      pop\n        /* \"#utility.yul\":3399:3684   */\n      pop\n        /* \"#utility.yul\":3307:3684   */\n      swap3\n      swap2\n      pop\n      pop\n      jump\t// out\n        /* \"#utility.yul\":3690:3805   */\n    tag_101:\n        /* \"#utility.yul\":3775:3798   */\n      tag_151\n        /* \"#utility.yul\":3792:3797   */\n      dup2\n        /* \"#utility.yul\":3775:3798   */\n      tag_87\n      jump\t// in\n    tag_151:\n        /* \"#utility.yul\":3770:3773   */\n      dup3\n        /* \"#utility.yul\":3763:3799   */\n      mstore\n        /* \"#utility.yul\":3690:3805   */\n      pop\n      pop\n      jump\t// out\n        /* \"#utility.yul\":3811:4431   */\n    tag_22:\n        /* \"#utility.yul\":3998:4002   */\n      0x00\n        /* \"#utility.yul\":4036:4038   */\n      0x60\n        /* \"#utility.yul\":4025:4034   */\n      dup3\n        /* \"#utility.yul\":4021:4039   */\n      add\n        /* \"#utility.yul\":4013:4039   */\n      swap1\n      pop\n        /* \"#utility.yul\":4085:4094   */\n      dup2\n        /* \"#utility.yul\":4079:4083   */\n      dup2\n        /* \"#utility.yul\":4075:4095   */\n      sub\n        /* \"#utility.yul\":4071:4072   */\n      0x00\n        /* \"#utility.yul\":4060:4069   */\n      dup4\n        /* \"#utility.yul\":4056:4073   */\n      add\n        /* \"#utility.yul\":4049:4096   */\n      mstore\n        /* \"#utility.yul\":4113:4191   */\n      tag_153\n        /* \"#utility.yul\":4186:4190   */\n      dup2\n        /* \"#utility.yul\":4177:4183   */\n      dup7\n        /* \"#utility.yul\":4113:4191   */\n      tag_100\n      jump\t// in\n    tag_153:\n        /* \"#utility.yul\":4105:4191   */\n      swap1\n      pop\n        /* \"#utility.yul\":4238:4247   */\n      dup2\n        /* \"#utility.yul\":4232:4236   */\n      dup2\n        /* \"#utility.yul\":4228:4248   */\n      sub\n        /* \"#utility.yul\":4223:4225   */\n      0x20\n        /* \"#utility.yul\":4212:4221   */\n      dup4\n        /* \"#utility.yul\":4208:4226   */\n      add\n        /* \"#utility.yul\":4201:4249   */\n      mstore\n        /* \"#utility.yul\":4266:4344   */\n      tag_154\n        /* \"#utility.yul\":4339:4343   */\n      dup2\n        /* \"#utility.yul\":4330:4336   */\n      dup6\n        /* \"#utility.yul\":4266:4344   */\n      tag_100\n      jump\t// in\n    tag_154:\n        /* \"#utility.yul\":4258:4344   */\n      swap1\n      pop\n        /* \"#utility.yul\":4354:4424   */\n      tag_155\n        /* \"#utility.yul\":4420:4422   */\n      0x40\n        /* \"#utility.yul\":4409:4418   */\n      dup4\n        /* \"#utility.yul\":4405:4423   */\n      add\n        /* \"#utility.yul\":4396:4402   */\n      dup5\n        /* \"#utility.yul\":4354:4424   */\n      tag_101\n      jump\t// in\n    tag_155:\n        /* \"#utility.yul\":3811:4431   */\n      swap5\n      swap4\n      pop\n      pop\n      pop\n      pop\n      jump\t// out\n        /* \"#utility.yul\":4437:4617   */\n    tag_102:\n        /* \"#utility.yul\":4485:4562   */\n      0x4e487b7100000000000000000000000000000000000000000000000000000000\n        /* \"#utility.yul\":4482:4483   */\n      0x00\n        /* \"#utility.yul\":4475:4563   */\n      mstore\n        /* \"#utility.yul\":4582:4586   */\n      0x11\n        /* \"#utility.yul\":4579:4580   */\n      0x04\n        /* \"#utility.yul\":4572:4587   */\n      mstore\n        /* \"#utility.yul\":4606:4610   */\n      0x24\n        /* \"#utility.yul\":4603:4604   */\n      0x00\n        /* \"#utility.yul\":4596:4611   */\n      revert\n        /* \"#utility.yul\":4623:4998   */\n    tag_25:\n        /* \"#utility.yul\":4662:4665   */\n      0x00\n        /* \"#utility.yul\":4681:4700   */\n      tag_158\n        /* \"#utility.yul\":4698:4699   */\n      dup3\n        /* \"#utility.yul\":4681:4700   */\n      tag_87\n      jump\t// in\n    tag_158:\n        /* \"#utility.yul\":4676:4700   */\n      swap2\n      pop\n        /* \"#utility.yul\":4714:4733   */\n      tag_159\n        /* \"#utility.yul\":4731:4732   */\n      dup4\n        /* \"#utility.yul\":4714:4733   */\n      tag_87\n      jump\t// in\n    tag_159:\n        /* \"#utility.yul\":4709:4733   */\n      swap3\n      pop\n        /* \"#utility.yul\":4756:4757   */\n      dup3\n        /* \"#utility.yul\":4753:4754   */\n      dup3\n        /* \"#utility.yul\":4749:4758   */\n      add\n        /* \"#utility.yul\":4742:4758   */\n      swap1\n      pop\n        /* \"#utility.yul\":4954:4955   */\n      dup3\n        /* \"#utility.yul\":4949:4952   */\n      dup2\n        /* \"#utility.yul\":4945:4956   */\n      slt\n        /* \"#utility.yul\":4938:4957   */\n      iszero\n        /* \"#utility.yul\":4934:4935   */\n      0x00\n        /* \"#utility.yul\":4931:4932   */\n      dup4\n        /* \"#utility.yul\":4927:4936   */\n      slt\n        /* \"#utility.yul\":4923:4958   */\n      and\n        /* \"#utility.yul\":4906:4907   */\n      dup4\n        /* \"#utility.yul\":4901:4904   */\n      dup3\n        /* \"#utility.yul\":4897:4908   */\n      slt\n        /* \"#utility.yul\":4892:4893   */\n      0x00\n        /* \"#utility.yul\":4889:4890   */\n      dup5\n        /* \"#utility.yul\":4885:4894   */\n      slt\n        /* \"#utility.yul\":4878:4895   */\n      iszero\n        /* \"#utility.yul\":4874:4909   */\n      and\n        /* \"#utility.yul\":4858:4968   */\n      or\n        /* \"#utility.yul\":4855:4991   */\n      iszero\n      tag_160\n      jumpi\n        /* \"#utility.yul\":4971:4989   */\n      tag_161\n      tag_102\n      jump\t// in\n    tag_161:\n        /* \"#utility.yul\":4855:4991   */\n    tag_160:\n        /* \"#utility.yul\":4623:4998   */\n      swap3\n      swap2\n      pop\n      pop\n      jump\t// out\n        /* \"#utility.yul\":5004:5184   */\n    tag_103:\n        /* \"#utility.yul\":5052:5129   */\n      0x4e487b7100000000000000000000000000000000000000000000000000000000\n        /* \"#utility.yul\":5049:5050   */\n      0x00\n        /* \"#utility.yul\":5042:5130   */\n      mstore\n        /* \"#utility.yul\":5149:5153   */\n      0x12\n        /* \"#utility.yul\":5146:5147   */\n      0x04\n        /* \"#utility.yul\":5139:5154   */\n      mstore\n        /* \"#utility.yul\":5173:5177   */\n      0x24\n        /* \"#utility.yul\":5170:5171   */\n      0x00\n        /* \"#utility.yul\":5163:5178   */\n      revert\n        /* \"#utility.yul\":5190:5375   */\n    tag_33:\n        /* \"#utility.yul\":5230:5231   */\n      0x00\n        /* \"#utility.yul\":5247:5267   */\n      tag_164\n        /* \"#utility.yul\":5265:5266   */\n      dup3\n        /* \"#utility.yul\":5247:5267   */\n      tag_92\n      jump\t// in\n    tag_164:\n        /* \"#utility.yul\":5242:5267   */\n      swap2\n      pop\n        /* \"#utility.yul\":5281:5301   */\n      tag_165\n        /* \"#utility.yul\":5299:5300   */\n      dup4\n        /* \"#utility.yul\":5281:5301   */\n      tag_92\n      jump\t// in\n    tag_165:\n        /* \"#utility.yul\":5276:5301   */\n      swap3\n      pop\n        /* \"#utility.yul\":5320:5321   */\n      dup3\n        /* \"#utility.yul\":5310:5345   */\n      tag_166\n      jumpi\n        /* \"#utility.yul\":5325:5343   */\n      tag_167\n      tag_103\n      jump\t// in\n    tag_167:\n        /* \"#utility.yul\":5310:5345   */\n    tag_166:\n        /* \"#utility.yul\":5367:5368   */\n      dup3\n        /* \"#utility.yul\":5364:5365   */\n      dup3\n        /* \"#utility.yul\":5360:5369   */\n      div\n        /* \"#utility.yul\":5355:5369   */\n      swap1\n      pop\n        /* \"#utility.yul\":5190:5375   */\n      swap3\n      swap2\n      pop\n      pop\n      jump\t// out\n        /* \"#utility.yul\":5381:5572   */\n    tag_35:\n        /* \"#utility.yul\":5421:5424   */\n      0x00\n        /* \"#utility.yul\":5440:5460   */\n      tag_169\n        /* \"#utility.yul\":5458:5459   */\n      dup3\n        /* \"#utility.yul\":5440:5460   */\n      tag_92\n      jump\t// in\n    tag_169:\n        /* \"#utility.yul\":5435:5460   */\n      swap2\n      pop\n        /* \"#utility.yul\":5474:5494   */\n      tag_170\n        /* \"#utility.yul\":5492:5493   */\n      dup4\n        /* \"#utility.yul\":5474:5494   */\n      tag_92\n      jump\t// in\n    tag_170:\n        /* \"#utility.yul\":5469:5494   */\n      swap3\n      pop\n        /* \"#utility.yul\":5517:5518   */\n      dup3\n        /* \"#utility.yul\":5514:5515   */\n      dup3\n        /* \"#utility.yul\":5510:5519   */\n      add\n        /* \"#utility.yul\":5503:5519   */\n      swap1\n      pop\n        /* \"#utility.yul\":5538:5541   */\n      dup1\n        /* \"#utility.yul\":5535:5536   */\n      dup3\n        /* \"#utility.yul\":5532:5542   */\n      gt\n        /* \"#utility.yul\":5529:5565   */\n      iszero\n      tag_171\n      jumpi\n        /* \"#utility.yul\":5545:5563   */\n      tag_172\n      tag_102\n      jump\t// in\n    tag_172:\n        /* \"#utility.yul\":5529:5565   */\n    tag_171:\n        /* \"#utility.yul\":5381:5572   */\n      swap3\n      swap2\n      pop\n      pop\n      jump\t// out\n        /* \"#utility.yul\":5578:5813   */\n    tag_104:\n        /* \"#utility.yul\":5718:5752   */\n      0x5468652070726f766964656420736964657320646f206e6f7420666f726d2061\n        /* \"#utility.yul\":5714:5715   */\n      0x00\n        /* \"#utility.yul\":5706:5712   */\n      dup3\n        /* \"#utility.yul\":5702:5716   */\n      add\n        /* \"#utility.yul\":5695:5753   */\n      mstore\n        /* \"#utility.yul\":5787:5805   */\n      0x2076616c696420747269616e676c652e00000000000000000000000000000000\n        /* \"#utility.yul\":5782:5784   */\n      0x20\n        /* \"#utility.yul\":5774:5780   */\n      dup3\n        /* \"#utility.yul\":5770:5785   */\n      add\n        /* \"#utility.yul\":5763:5806   */\n      mstore\n        /* \"#utility.yul\":5578:5813   */\n      pop\n      jump\t// out\n        /* \"#utility.yul\":5819:6185   */\n    tag_105:\n        /* \"#utility.yul\":5961:5964   */\n      0x00\n        /* \"#utility.yul\":5982:6049   */\n      tag_175\n        /* \"#utility.yul\":6046:6048   */\n      0x30\n        /* \"#utility.yul\":6041:6044   */\n      dup4\n        /* \"#utility.yul\":5982:6049   */\n      tag_97\n      jump\t// in\n    tag_175:\n        /* \"#utility.yul\":5975:6049   */\n      swap2\n      pop\n        /* \"#utility.yul\":6058:6151   */\n      tag_176\n        /* \"#utility.yul\":6147:6150   */\n      dup3\n        /* \"#utility.yul\":6058:6151   */\n      tag_104\n      jump\t// in\n    tag_176:\n        /* \"#utility.yul\":6176:6178   */\n      0x40\n        /* \"#utility.yul\":6171:6174   */\n      dup3\n        /* \"#utility.yul\":6167:6179   */\n      add\n        /* \"#utility.yul\":6160:6179   */\n      swap1\n      pop\n        /* \"#utility.yul\":5819:6185   */\n      swap2\n      swap1\n      pop\n      jump\t// out\n        /* \"#utility.yul\":6191:6610   */\n    tag_47:\n        /* \"#utility.yul\":6357:6361   */\n      0x00\n        /* \"#utility.yul\":6395:6397   */\n      0x20\n        /* \"#utility.yul\":6384:6393   */\n      dup3\n        /* \"#utility.yul\":6380:6398   */\n      add\n        /* \"#utility.yul\":6372:6398   */\n      swap1\n      pop\n        /* \"#utility.yul\":6444:6453   */\n      dup2\n        /* \"#utility.yul\":6438:6442   */\n      dup2\n        /* \"#utility.yul\":6434:6454   */\n      sub\n        /* \"#utility.yul\":6430:6431   */\n      0x00\n        /* \"#utility.yul\":6419:6428   */\n      dup4\n        /* \"#utility.yul\":6415:6432   */\n      add\n        /* \"#utility.yul\":6408:6455   */\n      mstore\n        /* \"#utility.yul\":6472:6603   */\n      tag_178\n        /* \"#utility.yul\":6598:6602   */\n      dup2\n        /* \"#utility.yul\":6472:6603   */\n      tag_105\n      jump\t// in\n    tag_178:\n        /* \"#utility.yul\":6464:6603   */\n      swap1\n      pop\n        /* \"#utility.yul\":6191:6610   */\n      swap2\n      swap1\n      pop\n      jump\t// out\n        /* \"#utility.yul\":6616:7172   */\n    tag_56:\n        /* \"#utility.yul\":6655:6662   */\n      0x00\n        /* \"#utility.yul\":6678:6697   */\n      tag_180\n        /* \"#utility.yul\":6695:6696   */\n      dup3\n        /* \"#utility.yul\":6678:6697   */\n      tag_87\n      jump\t// in\n    tag_180:\n        /* \"#utility.yul\":6673:6697   */\n      swap2\n      pop\n        /* \"#utility.yul\":6711:6730   */\n      tag_181\n        /* \"#utility.yul\":6728:6729   */\n      dup4\n        /* \"#utility.yul\":6711:6730   */\n      tag_87\n      jump\t// in\n    tag_181:\n        /* \"#utility.yul\":6706:6730   */\n      swap3\n      pop\n        /* \"#utility.yul\":6765:6766   */\n      dup3\n        /* \"#utility.yul\":6762:6763   */\n      dup3\n        /* \"#utility.yul\":6758:6767   */\n      mul\n        /* \"#utility.yul\":6787:6816   */\n      tag_182\n        /* \"#utility.yul\":6804:6815   */\n      dup2\n        /* \"#utility.yul\":6787:6816   */\n      tag_87\n      jump\t// in\n    tag_182:\n        /* \"#utility.yul\":6776:6816   */\n      swap2\n      pop\n        /* \"#utility.yul\":6874:6940   */\n      0x8000000000000000000000000000000000000000000000000000000000000000\n        /* \"#utility.yul\":6871:6872   */\n      dup5\n        /* \"#utility.yul\":6868:6941   */\n      eq\n        /* \"#utility.yul\":6864:6865   */\n      0x00\n        /* \"#utility.yul\":6861:6862   */\n      dup5\n        /* \"#utility.yul\":6857:6866   */\n      slt\n        /* \"#utility.yul\":6853:6942   */\n      and\n        /* \"#utility.yul\":6850:6965   */\n      iszero\n      tag_183\n      jumpi\n        /* \"#utility.yul\":6945:6963   */\n      tag_184\n      tag_102\n      jump\t// in\n    tag_184:\n        /* \"#utility.yul\":6850:6965   */\n    tag_183:\n        /* \"#utility.yul\":7115:7116   */\n      dup3\n        /* \"#utility.yul\":7106:7113   */\n      dup3\n        /* \"#utility.yul\":7101:7117   */\n      sdiv\n        /* \"#utility.yul\":7098:7099   */\n      dup5\n        /* \"#utility.yul\":7095:7118   */\n      eq\n        /* \"#utility.yul\":7075:7076   */\n      dup4\n        /* \"#utility.yul\":7068:7077   */\n      iszero\n        /* \"#utility.yul\":7048:7132   */\n      or\n        /* \"#utility.yul\":7025:7165   */\n      tag_185\n      jumpi\n        /* \"#utility.yul\":7145:7163   */\n      tag_186\n      tag_102\n      jump\t// in\n    tag_186:\n        /* \"#utility.yul\":7025:7165   */\n    tag_185:\n        /* \"#utility.yul\":6663:7172   */\n      pop\n        /* \"#utility.yul\":6616:7172   */\n      swap3\n      swap2\n      pop\n      pop\n      jump\t// out\n        /* \"#utility.yul\":7178:7563   */\n    tag_75:\n        /* \"#utility.yul\":7217:7218   */\n      0x00\n        /* \"#utility.yul\":7234:7253   */\n      tag_188\n        /* \"#utility.yul\":7251:7252   */\n      dup3\n        /* \"#utility.yul\":7234:7253   */\n      tag_87\n      jump\t// in\n    tag_188:\n        /* \"#utility.yul\":7229:7253   */\n      swap2\n      pop\n        /* \"#utility.yul\":7267:7286   */\n      tag_189\n        /* \"#utility.yul\":7284:7285   */\n      dup4\n        /* \"#utility.yul\":7267:7286   */\n      tag_87\n      jump\t// in\n    tag_189:\n        /* \"#utility.yul\":7262:7286   */\n      swap3\n      pop\n        /* \"#utility.yul\":7305:7306   */\n      dup3\n        /* \"#utility.yul\":7295:7330   */\n      tag_190\n      jumpi\n        /* \"#utility.yul\":7310:7328   */\n      tag_191\n      tag_103\n      jump\t// in\n    tag_191:\n        /* \"#utility.yul\":7295:7330   */\n    tag_190:\n        /* \"#utility.yul\":7496:7497   */\n      0x01\n        /* \"#utility.yul\":7493:7494   */\n      0x00\n        /* \"#utility.yul\":7489:7498   */\n      sub\n        /* \"#utility.yul\":7486:7487   */\n      dup4\n        /* \"#utility.yul\":7483:7499   */\n      eq\n        /* \"#utility.yul\":7402:7468   */\n      0x8000000000000000000000000000000000000000000000000000000000000000\n        /* \"#utility.yul\":7399:7400   */\n      dup4\n        /* \"#utility.yul\":7396:7469   */\n      eq\n        /* \"#utility.yul\":7379:7509   */\n      and\n        /* \"#utility.yul\":7376:7532   */\n      iszero\n      tag_192\n      jumpi\n        /* \"#utility.yul\":7512:7530   */\n      tag_193\n      tag_102\n      jump\t// in\n    tag_193:\n        /* \"#utility.yul\":7376:7532   */\n    tag_192:\n        /* \"#utility.yul\":7555:7556   */\n      dup3\n        /* \"#utility.yul\":7552:7553   */\n      dup3\n        /* \"#utility.yul\":7547:7557   */\n      sdiv\n        /* \"#utility.yul\":7542:7557   */\n      swap1\n      pop\n        /* \"#utility.yul\":7178:7563   */\n      swap3\n      swap2\n      pop\n      pop\n      jump\t// out\n        /* \"#utility.yul\":7569:7941   */\n    tag_78:\n        /* \"#utility.yul\":7608:7612   */\n      0x00\n        /* \"#utility.yul\":7628:7647   */\n      tag_195\n        /* \"#utility.yul\":7645:7646   */\n      dup3\n        /* \"#utility.yul\":7628:7647   */\n      tag_87\n      jump\t// in\n    tag_195:\n        /* \"#utility.yul\":7623:7647   */\n      swap2\n      pop\n        /* \"#utility.yul\":7661:7680   */\n      tag_196\n        /* \"#utility.yul\":7678:7679   */\n      dup4\n        /* \"#utility.yul\":7661:7680   */\n      tag_87\n      jump\t// in\n    tag_196:\n        /* \"#utility.yul\":7656:7680   */\n      swap3\n      pop\n        /* \"#utility.yul\":7704:7705   */\n      dup3\n        /* \"#utility.yul\":7701:7702   */\n      dup3\n        /* \"#utility.yul\":7697:7706   */\n      sub\n        /* \"#utility.yul\":7689:7706   */\n      swap1\n      pop\n        /* \"#utility.yul\":7898:7899   */\n      dup2\n        /* \"#utility.yul\":7892:7896   */\n      dup2\n        /* \"#utility.yul\":7888:7900   */\n      slt\n        /* \"#utility.yul\":7884:7885   */\n      0x00\n        /* \"#utility.yul\":7881:7882   */\n      dup5\n        /* \"#utility.yul\":7877:7886   */\n      slt\n        /* \"#utility.yul\":7873:7901   */\n      and\n        /* \"#utility.yul\":7856:7857   */\n      dup3\n        /* \"#utility.yul\":7850:7854   */\n      dup3\n        /* \"#utility.yul\":7846:7858   */\n      sgt\n        /* \"#utility.yul\":7841:7842   */\n      0x00\n        /* \"#utility.yul\":7838:7839   */\n      dup6\n        /* \"#utility.yul\":7834:7843   */\n      slt\n        /* \"#utility.yul\":7827:7844   */\n      iszero\n        /* \"#utility.yul\":7823:7859   */\n      and\n        /* \"#utility.yul\":7807:7911   */\n      or\n        /* \"#utility.yul\":7804:7934   */\n      iszero\n      tag_197\n      jumpi\n        /* \"#utility.yul\":7914:7932   */\n      tag_198\n      tag_102\n      jump\t// in\n    tag_198:\n        /* \"#utility.yul\":7804:7934   */\n    tag_197:\n        /* \"#utility.yul\":7569:7941   */\n      swap3\n      swap2\n      pop\n      pop\n      jump\t// out\n\n    auxdata: 0xa2646970667358221220f7d2745cddf317ba7027931466943f0c4d0f5dd221f0f170fc118d59757642c164736f6c634300081a0033\n}\n",
				"bytecode": {
					"linkReferences": {},
					"object": "6080604052348015600e575f80fd5b506109428061001c5f395ff3fe608060405234801561000f575f80fd5b506004361061003f575f3560e01c806331df7cc814610043578063677342ce14610073578063af2e6168146100a3575b5f80fd5b61005d60048036038101906100589190610497565b6100d5565b60405161006a9190610501565b60405180910390f35b61008d6004803603810190610088919061054d565b610119565b60405161009a9190610587565b60405180910390f35b6100bd60048036038101906100b89190610497565b610190565b6040516100cc9392919061061f565b60405180910390f35b5f8183856100e3919061068f565b1380156100fa57508282856100f8919061068f565b135b8015610110575083828461010e919061068f565b135b90509392505050565b5f600382111561017e578190505f600160028461013691906106fd565b610140919061072d565b90505b8181101561017857809150600281828561015d91906106fd565b610167919061072d565b61017191906106fd565b9050610143565b5061018b565b5f821461018a57600190505b5b919050565b6060805f61019f8686866100d5565b6101de576040517f08c379a00000000000000000000000000000000000000000000000000000000081526004016101d5906107d0565b60405180910390fd5b606085871480156101ee57508486145b15610230576040518060400160405280600b81526020017f457175696c61746572616c00000000000000000000000000000000000000000081525090506103a1565b8587148061023d57508486145b8061024757508487145b15610289576040518060400160405280600981526020017f49736f7363656c6573000000000000000000000000000000000000000000000081525090506103a0565b848561029591906107ee565b86876102a191906107ee565b88896102ad91906107ee565b6102b7919061068f565b14806102ee575086876102ca91906107ee565b85866102d691906107ee565b87886102e291906107ee565b6102ec919061068f565b145b806103245750858661030091906107ee565b878861030c91906107ee565b868761031891906107ee565b610322919061068f565b145b15610366576040518060400160405280600c81526020017f52696768742d616e676c65640000000000000000000000000000000000000000815250905061039f565b6040518060400160405280600781526020017f5363616c656e650000000000000000000000000000000000000000000000000081525090505b5b5b5f600286888a6103b1919061068f565b6103bb919061068f565b6103c59190610864565b90505f61041387836103d791906108cc565b89846103e391906108cc565b8b856103ef91906108cc565b856103fa91906107ee565b61040491906107ee565b61040e91906107ee565b610119565b905082816040518060400160405280600e81526020017f56616c696420547269616e676c650000000000000000000000000000000000008152509095509550955050505093509350939050565b5f80fd5b5f819050919050565b61047681610464565b8114610480575f80fd5b50565b5f813590506104918161046d565b92915050565b5f805f606084860312156104ae576104ad610460565b5b5f6104bb86828701610483565b93505060206104cc86828701610483565b92505060406104dd86828701610483565b9150509250925092565b5f8115159050919050565b6104fb816104e7565b82525050565b5f6020820190506105145f8301846104f2565b92915050565b5f819050919050565b61052c8161051a565b8114610536575f80fd5b50565b5f8135905061054781610523565b92915050565b5f6020828403121561056257610561610460565b5b5f61056f84828501610539565b91505092915050565b6105818161051a565b82525050565b5f60208201905061059a5f830184610578565b92915050565b5f81519050919050565b5f82825260208201905092915050565b8281835e5f83830152505050565b5f601f19601f8301169050919050565b5f6105e2826105a0565b6105ec81856105aa565b93506105fc8185602086016105ba565b610605816105c8565b840191505092915050565b61061981610464565b82525050565b5f6060820190508181035f83015261063781866105d8565b9050818103602083015261064b81856105d8565b905061065a6040830184610610565b949350505050565b7f4e487b71000000000000000000000000000000000000000000000000000000005f52601160045260245ffd5b5f61069982610464565b91506106a483610464565b92508282019050828112155f8312168382125f8412151617156106ca576106c9610662565b5b92915050565b7f4e487b71000000000000000000000000000000000000000000000000000000005f52601260045260245ffd5b5f6107078261051a565b91506107128361051a565b925082610722576107216106d0565b5b828204905092915050565b5f6107378261051a565b91506107428361051a565b925082820190508082111561075a57610759610662565b5b92915050565b7f5468652070726f766964656420736964657320646f206e6f7420666f726d20615f8201527f2076616c696420747269616e676c652e00000000000000000000000000000000602082015250565b5f6107ba6030836105aa565b91506107c582610760565b604082019050919050565b5f6020820190508181035f8301526107e7816107ae565b9050919050565b5f6107f882610464565b915061080383610464565b925082820261081181610464565b91507f800000000000000000000000000000000000000000000000000000000000000084145f8412161561084857610847610662565b5b828205841483151761085d5761085c610662565b5b5092915050565b5f61086e82610464565b915061087983610464565b925082610889576108886106d0565b5b60015f0383147f8000000000000000000000000000000000000000000000000000000000000000831416156108c1576108c0610662565b5b828205905092915050565b5f6108d682610464565b91506108e183610464565b925082820390508181125f8412168282135f85121516171561090657610905610662565b5b9291505056fea2646970667358221220f7d2745cddf317ba7027931466943f0c4d0f5dd221f0f170fc118d59757642c164736f6c634300081a0033",
					"opcodes": "PUSH1 0x80 PUSH1 0x40 MSTORE CALLVALUE DUP1 ISZERO PUSH1 0xE JUMPI PUSH0 DUP1 REVERT JUMPDEST POP PUSH2 0x942 DUP1 PUSH2 0x1C PUSH0 CODECOPY PUSH0 RETURN INVALID PUSH1 0x80 PUSH1 0x40 MSTORE CALLVALUE DUP1 ISZERO PUSH2 0xF JUMPI PUSH0 DUP1 REVERT JUMPDEST POP PUSH1 0x4 CALLDATASIZE LT PUSH2 0x3F JUMPI PUSH0 CALLDATALOAD PUSH1 0xE0 SHR DUP1 PUSH4 0x31DF7CC8 EQ PUSH2 0x43 JUMPI DUP1 PUSH4 0x677342CE EQ PUSH2 0x73 JUMPI DUP1 PUSH4 0xAF2E6168 EQ PUSH2 0xA3 JUMPI JUMPDEST PUSH0 DUP1 REVERT JUMPDEST PUSH2 0x5D PUSH1 0x4 DUP1 CALLDATASIZE SUB DUP2 ADD SWAP1 PUSH2 0x58 SWAP2 SWAP1 PUSH2 0x497 JUMP JUMPDEST PUSH2 0xD5 JUMP JUMPDEST PUSH1 0x40 MLOAD PUSH2 0x6A SWAP2 SWAP1 PUSH2 0x501 JUMP JUMPDEST PUSH1 0x40 MLOAD DUP1 SWAP2 SUB SWAP1 RETURN JUMPDEST PUSH2 0x8D PUSH1 0x4 DUP1 CALLDATASIZE SUB DUP2 ADD SWAP1 PUSH2 0x88 SWAP2 SWAP1 PUSH2 0x54D JUMP JUMPDEST PUSH2 0x119 JUMP JUMPDEST PUSH1 0x40 MLOAD PUSH2 0x9A SWAP2 SWAP1 PUSH2 0x587 JUMP JUMPDEST PUSH1 0x40 MLOAD DUP1 SWAP2 SUB SWAP1 RETURN JUMPDEST PUSH2 0xBD PUSH1 0x4 DUP1 CALLDATASIZE SUB DUP2 ADD SWAP1 PUSH2 0xB8 SWAP2 SWAP1 PUSH2 0x497 JUMP JUMPDEST PUSH2 0x190 JUMP JUMPDEST PUSH1 0x40 MLOAD PUSH2 0xCC SWAP4 SWAP3 SWAP2 SWAP1 PUSH2 0x61F JUMP JUMPDEST PUSH1 0x40 MLOAD DUP1 SWAP2 SUB SWAP1 RETURN JUMPDEST PUSH0 DUP2 DUP4 DUP6 PUSH2 0xE3 SWAP2 SWAP1 PUSH2 0x68F JUMP JUMPDEST SGT DUP1 ISZERO PUSH2 0xFA JUMPI POP DUP3 DUP3 DUP6 PUSH2 0xF8 SWAP2 SWAP1 PUSH2 0x68F JUMP JUMPDEST SGT JUMPDEST DUP1 ISZERO PUSH2 0x110 JUMPI POP DUP4 DUP3 DUP5 PUSH2 0x10E SWAP2 SWAP1 PUSH2 0x68F JUMP JUMPDEST SGT JUMPDEST SWAP1 POP SWAP4 SWAP3 POP POP POP JUMP JUMPDEST PUSH0 PUSH1 0x3 DUP3 GT ISZERO PUSH2 0x17E JUMPI DUP2 SWAP1 POP PUSH0 PUSH1 0x1 PUSH1 0x2 DUP5 PUSH2 0x136 SWAP2 SWAP1 PUSH2 0x6FD JUMP JUMPDEST PUSH2 0x140 SWAP2 SWAP1 PUSH2 0x72D JUMP JUMPDEST SWAP1 POP JUMPDEST DUP2 DUP2 LT ISZERO PUSH2 0x178 JUMPI DUP1 SWAP2 POP PUSH1 0x2 DUP2 DUP3 DUP6 PUSH2 0x15D SWAP2 SWAP1 PUSH2 0x6FD JUMP JUMPDEST PUSH2 0x167 SWAP2 SWAP1 PUSH2 0x72D JUMP JUMPDEST PUSH2 0x171 SWAP2 SWAP1 PUSH2 0x6FD JUMP JUMPDEST SWAP1 POP PUSH2 0x143 JUMP JUMPDEST POP PUSH2 0x18B JUMP JUMPDEST PUSH0 DUP3 EQ PUSH2 0x18A JUMPI PUSH1 0x1 SWAP1 POP JUMPDEST JUMPDEST SWAP2 SWAP1 POP JUMP JUMPDEST PUSH1 0x60 DUP1 PUSH0 PUSH2 0x19F DUP7 DUP7 DUP7 PUSH2 0xD5 JUMP JUMPDEST PUSH2 0x1DE JUMPI PUSH1 0x40 MLOAD PUSH32 0x8C379A000000000000000000000000000000000000000000000000000000000 DUP2 MSTORE PUSH1 0x4 ADD PUSH2 0x1D5 SWAP1 PUSH2 0x7D0 JUMP JUMPDEST PUSH1 0x40 MLOAD DUP1 SWAP2 SUB SWAP1 REVERT JUMPDEST PUSH1 0x60 DUP6 DUP8 EQ DUP1 ISZERO PUSH2 0x1EE JUMPI POP DUP5 DUP7 EQ JUMPDEST ISZERO PUSH2 0x230 JUMPI PUSH1 0x40 MLOAD DUP1 PUSH1 0x40 ADD PUSH1 0x40 MSTORE DUP1 PUSH1 0xB DUP2 MSTORE PUSH1 0x20 ADD PUSH32 0x457175696C61746572616C000000000000000000000000000000000000000000 DUP2 MSTORE POP SWAP1 POP PUSH2 0x3A1 JUMP JUMPDEST DUP6 DUP8 EQ DUP1 PUSH2 0x23D JUMPI POP DUP5 DUP7 EQ JUMPDEST DUP1 PUSH2 0x247 JUMPI POP DUP5 DUP8 EQ JUMPDEST ISZERO PUSH2 0x289 JUMPI PUSH1 0x40 MLOAD DUP1 PUSH1 0x40 ADD PUSH1 0x40 MSTORE DUP1 PUSH1 0x9 DUP2 MSTORE PUSH1 0x20 ADD PUSH32 0x49736F7363656C65730000000000000000000000000000000000000000000000 DUP2 MSTORE POP SWAP1 POP PUSH2 0x3A0 JUMP JUMPDEST DUP5 DUP6 PUSH2 0x295 SWAP2 SWAP1 PUSH2 0x7EE JUMP JUMPDEST DUP7 DUP8 PUSH2 0x2A1 SWAP2 SWAP1 PUSH2 0x7EE JUMP JUMPDEST DUP9 DUP10 PUSH2 0x2AD SWAP2 SWAP1 PUSH2 0x7EE JUMP JUMPDEST PUSH2 0x2B7 SWAP2 SWAP1 PUSH2 0x68F JUMP JUMPDEST EQ DUP1 PUSH2 0x2EE JUMPI POP DUP7 DUP8 PUSH2 0x2CA SWAP2 SWAP1 PUSH2 0x7EE JUMP JUMPDEST DUP6 DUP7 PUSH2 0x2D6 SWAP2 SWAP1 PUSH2 0x7EE JUMP JUMPDEST DUP8 DUP9 PUSH2 0x2E2 SWAP2 SWAP1 PUSH2 0x7EE JUMP JUMPDEST PUSH2 0x2EC SWAP2 SWAP1 PUSH2 0x68F JUMP JUMPDEST EQ JUMPDEST DUP1 PUSH2 0x324 JUMPI POP DUP6 DUP7 PUSH2 0x300 SWAP2 SWAP1 PUSH2 0x7EE JUMP JUMPDEST DUP8 DUP9 PUSH2 0x30C SWAP2 SWAP1 PUSH2 0x7EE JUMP JUMPDEST DUP7 DUP8 PUSH2 0x318 SWAP2 SWAP1 PUSH2 0x7EE JUMP JUMPDEST PUSH2 0x322 SWAP2 SWAP1 PUSH2 0x68F JUMP JUMPDEST EQ JUMPDEST ISZERO PUSH2 0x366 JUMPI PUSH1 0x40 MLOAD DUP1 PUSH1 0x40 ADD PUSH1 0x40 MSTORE DUP1 PUSH1 0xC DUP2 MSTORE PUSH1 0x20 ADD PUSH32 0x52696768742D616E676C65640000000000000000000000000000000000000000 DUP2 MSTORE POP SWAP1 POP PUSH2 0x39F JUMP JUMPDEST PUSH1 0x40 MLOAD DUP1 PUSH1 0x40 ADD PUSH1 0x40 MSTORE DUP1 PUSH1 0x7 DUP2 MSTORE PUSH1 0x20 ADD PUSH32 0x5363616C656E6500000000000000000000000000000000000000000000000000 DUP2 MSTORE POP SWAP1 POP JUMPDEST JUMPDEST JUMPDEST PUSH0 PUSH1 0x2 DUP7 DUP9 DUP11 PUSH2 0x3B1 SWAP2 SWAP1 PUSH2 0x68F JUMP JUMPDEST PUSH2 0x3BB SWAP2 SWAP1 PUSH2 0x68F JUMP JUMPDEST PUSH2 0x3C5 SWAP2 SWAP1 PUSH2 0x864 JUMP JUMPDEST SWAP1 POP PUSH0 PUSH2 0x413 DUP8 DUP4 PUSH2 0x3D7 SWAP2 SWAP1 PUSH2 0x8CC JUMP JUMPDEST DUP10 DUP5 PUSH2 0x3E3 SWAP2 SWAP1 PUSH2 0x8CC JUMP JUMPDEST DUP12 DUP6 PUSH2 0x3EF SWAP2 SWAP1 PUSH2 0x8CC JUMP JUMPDEST DUP6 PUSH2 0x3FA SWAP2 SWAP1 PUSH2 0x7EE JUMP JUMPDEST PUSH2 0x404 SWAP2 SWAP1 PUSH2 0x7EE JUMP JUMPDEST PUSH2 0x40E SWAP2 SWAP1 PUSH2 0x7EE JUMP JUMPDEST PUSH2 0x119 JUMP JUMPDEST SWAP1 POP DUP3 DUP2 PUSH1 0x40 MLOAD DUP1 PUSH1 0x40 ADD PUSH1 0x40 MSTORE DUP1 PUSH1 0xE DUP2 MSTORE PUSH1 0x20 ADD PUSH32 0x56616C696420547269616E676C65000000000000000000000000000000000000 DUP2 MSTORE POP SWAP1 SWAP6 POP SWAP6 POP SWAP6 POP POP POP POP SWAP4 POP SWAP4 POP SWAP4 SWAP1 POP JUMP JUMPDEST PUSH0 DUP1 REVERT JUMPDEST PUSH0 DUP2 SWAP1 POP SWAP2 SWAP1 POP JUMP JUMPDEST PUSH2 0x476 DUP2 PUSH2 0x464 JUMP JUMPDEST DUP2 EQ PUSH2 0x480 JUMPI PUSH0 DUP1 REVERT JUMPDEST POP JUMP JUMPDEST PUSH0 DUP2 CALLDATALOAD SWAP1 POP PUSH2 0x491 DUP2 PUSH2 0x46D JUMP JUMPDEST SWAP3 SWAP2 POP POP JUMP JUMPDEST PUSH0 DUP1 PUSH0 PUSH1 0x60 DUP5 DUP7 SUB SLT ISZERO PUSH2 0x4AE JUMPI PUSH2 0x4AD PUSH2 0x460 JUMP JUMPDEST JUMPDEST PUSH0 PUSH2 0x4BB DUP7 DUP3 DUP8 ADD PUSH2 0x483 JUMP JUMPDEST SWAP4 POP POP PUSH1 0x20 PUSH2 0x4CC DUP7 DUP3 DUP8 ADD PUSH2 0x483 JUMP JUMPDEST SWAP3 POP POP PUSH1 0x40 PUSH2 0x4DD DUP7 DUP3 DUP8 ADD PUSH2 0x483 JUMP JUMPDEST SWAP2 POP POP SWAP3 POP SWAP3 POP SWAP3 JUMP JUMPDEST PUSH0 DUP2 ISZERO ISZERO SWAP1 POP SWAP2 SWAP1 POP JUMP JUMPDEST PUSH2 0x4FB DUP2 PUSH2 0x4E7 JUMP JUMPDEST DUP3 MSTORE POP POP JUMP JUMPDEST PUSH0 PUSH1 0x20 DUP3 ADD SWAP1 POP PUSH2 0x514 PUSH0 DUP4 ADD DUP5 PUSH2 0x4F2 JUMP JUMPDEST SWAP3 SWAP2 POP POP JUMP JUMPDEST PUSH0 DUP2 SWAP1 POP SWAP2 SWAP1 POP JUMP JUMPDEST PUSH2 0x52C DUP2 PUSH2 0x51A JUMP JUMPDEST DUP2 EQ PUSH2 0x536 JUMPI PUSH0 DUP1 REVERT JUMPDEST POP JUMP JUMPDEST PUSH0 DUP2 CALLDATALOAD SWAP1 POP PUSH2 0x547 DUP2 PUSH2 0x523 JUMP JUMPDEST SWAP3 SWAP2 POP POP JUMP JUMPDEST PUSH0 PUSH1 0x20 DUP3 DUP5 SUB SLT ISZERO PUSH2 0x562 JUMPI PUSH2 0x561 PUSH2 0x460 JUMP JUMPDEST JUMPDEST PUSH0 PUSH2 0x56F DUP5 DUP3 DUP6 ADD PUSH2 0x539 JUMP JUMPDEST SWAP2 POP POP SWAP3 SWAP2 POP POP JUMP JUMPDEST PUSH2 0x581 DUP2 PUSH2 0x51A JUMP JUMPDEST DUP3 MSTORE POP POP JUMP JUMPDEST PUSH0 PUSH1 0x20 DUP3 ADD SWAP1 POP PUSH2 0x59A PUSH0 DUP4 ADD DUP5 PUSH2 0x578 JUMP JUMPDEST SWAP3 SWAP2 POP POP JUMP JUMPDEST PUSH0 DUP2 MLOAD SWAP1 POP SWAP2 SWAP1 POP JUMP JUMPDEST PUSH0 DUP3 DUP3 MSTORE PUSH1 0x20 DUP3 ADD SWAP1 POP SWAP3 SWAP2 POP POP JUMP JUMPDEST DUP3 DUP2 DUP4 MCOPY PUSH0 DUP4 DUP4 ADD MSTORE POP POP POP JUMP JUMPDEST PUSH0 PUSH1 0x1F NOT PUSH1 0x1F DUP4 ADD AND SWAP1 POP SWAP2 SWAP1 POP JUMP JUMPDEST PUSH0 PUSH2 0x5E2 DUP3 PUSH2 0x5A0 JUMP JUMPDEST PUSH2 0x5EC DUP2 DUP6 PUSH2 0x5AA JUMP JUMPDEST SWAP4 POP PUSH2 0x5FC DUP2 DUP6 PUSH1 0x20 DUP7 ADD PUSH2 0x5BA JUMP JUMPDEST PUSH2 0x605 DUP2 PUSH2 0x5C8 JUMP JUMPDEST DUP5 ADD SWAP2 POP POP SWAP3 SWAP2 POP POP JUMP JUMPDEST PUSH2 0x619 DUP2 PUSH2 0x464 JUMP JUMPDEST DUP3 MSTORE POP POP JUMP JUMPDEST PUSH0 PUSH1 0x60 DUP3 ADD SWAP1 POP DUP2 DUP2 SUB PUSH0 DUP4 ADD MSTORE PUSH2 0x637 DUP2 DUP7 PUSH2 0x5D8 JUMP JUMPDEST SWAP1 POP DUP2 DUP2 SUB PUSH1 0x20 DUP4 ADD MSTORE PUSH2 0x64B DUP2 DUP6 PUSH2 0x5D8 JUMP JUMPDEST SWAP1 POP PUSH2 0x65A PUSH1 0x40 DUP4 ADD DUP5 PUSH2 0x610 JUMP JUMPDEST SWAP5 SWAP4 POP POP POP POP JUMP JUMPDEST PUSH32 0x4E487B7100000000000000000000000000000000000000000000000000000000 PUSH0 MSTORE PUSH1 0x11 PUSH1 0x4 MSTORE PUSH1 0x24 PUSH0 REVERT JUMPDEST PUSH0 PUSH2 0x699 DUP3 PUSH2 0x464 JUMP JUMPDEST SWAP2 POP PUSH2 0x6A4 DUP4 PUSH2 0x464 JUMP JUMPDEST SWAP3 POP DUP3 DUP3 ADD SWAP1 POP DUP3 DUP2 SLT ISZERO PUSH0 DUP4 SLT AND DUP4 DUP3 SLT PUSH0 DUP5 SLT ISZERO AND OR ISZERO PUSH2 0x6CA JUMPI PUSH2 0x6C9 PUSH2 0x662 JUMP JUMPDEST JUMPDEST SWAP3 SWAP2 POP POP JUMP JUMPDEST PUSH32 0x4E487B7100000000000000000000000000000000000000000000000000000000 PUSH0 MSTORE PUSH1 0x12 PUSH1 0x4 MSTORE PUSH1 0x24 PUSH0 REVERT JUMPDEST PUSH0 PUSH2 0x707 DUP3 PUSH2 0x51A JUMP JUMPDEST SWAP2 POP PUSH2 0x712 DUP4 PUSH2 0x51A JUMP JUMPDEST SWAP3 POP DUP3 PUSH2 0x722 JUMPI PUSH2 0x721 PUSH2 0x6D0 JUMP JUMPDEST JUMPDEST DUP3 DUP3 DIV SWAP1 POP SWAP3 SWAP2 POP POP JUMP JUMPDEST PUSH0 PUSH2 0x737 DUP3 PUSH2 0x51A JUMP JUMPDEST SWAP2 POP PUSH2 0x742 DUP4 PUSH2 0x51A JUMP JUMPDEST SWAP3 POP DUP3 DUP3 ADD SWAP1 POP DUP1 DUP3 GT ISZERO PUSH2 0x75A JUMPI PUSH2 0x759 PUSH2 0x662 JUMP JUMPDEST JUMPDEST SWAP3 SWAP2 POP POP JUMP JUMPDEST PUSH32 0x5468652070726F766964656420736964657320646F206E6F7420666F726D2061 PUSH0 DUP3 ADD MSTORE PUSH32 0x2076616C696420747269616E676C652E00000000000000000000000000000000 PUSH1 0x20 DUP3 ADD MSTORE POP JUMP JUMPDEST PUSH0 PUSH2 0x7BA PUSH1 0x30 DUP4 PUSH2 0x5AA JUMP JUMPDEST SWAP2 POP PUSH2 0x7C5 DUP3 PUSH2 0x760 JUMP JUMPDEST PUSH1 0x40 DUP3 ADD SWAP1 POP SWAP2 SWAP1 POP JUMP JUMPDEST PUSH0 PUSH1 0x20 DUP3 ADD SWAP1 POP DUP2 DUP2 SUB PUSH0 DUP4 ADD MSTORE PUSH2 0x7E7 DUP2 PUSH2 0x7AE JUMP JUMPDEST SWAP1 POP SWAP2 SWAP1 POP JUMP JUMPDEST PUSH0 PUSH2 0x7F8 DUP3 PUSH2 0x464 JUMP JUMPDEST SWAP2 POP PUSH2 0x803 DUP4 PUSH2 0x464 JUMP JUMPDEST SWAP3 POP DUP3 DUP3 MUL PUSH2 0x811 DUP2 PUSH2 0x464 JUMP JUMPDEST SWAP2 POP PUSH32 0x8000000000000000000000000000000000000000000000000000000000000000 DUP5 EQ PUSH0 DUP5 SLT AND ISZERO PUSH2 0x848 JUMPI PUSH2 0x847 PUSH2 0x662 JUMP JUMPDEST JUMPDEST DUP3 DUP3 SDIV DUP5 EQ DUP4 ISZERO OR PUSH2 0x85D JUMPI PUSH2 0x85C PUSH2 0x662 JUMP JUMPDEST JUMPDEST POP SWAP3 SWAP2 POP POP JUMP JUMPDEST PUSH0 PUSH2 0x86E DUP3 PUSH2 0x464 JUMP JUMPDEST SWAP2 POP PUSH2 0x879 DUP4 PUSH2 0x464 JUMP JUMPDEST SWAP3 POP DUP3 PUSH2 0x889 JUMPI PUSH2 0x888 PUSH2 0x6D0 JUMP JUMPDEST JUMPDEST PUSH1 0x1 PUSH0 SUB DUP4 EQ PUSH32 0x8000000000000000000000000000000000000000000000000000000000000000 DUP4 EQ AND ISZERO PUSH2 0x8C1 JUMPI PUSH2 0x8C0 PUSH2 0x662 JUMP JUMPDEST JUMPDEST DUP3 DUP3 SDIV SWAP1 POP SWAP3 SWAP2 POP POP JUMP JUMPDEST PUSH0 PUSH2 0x8D6 DUP3 PUSH2 0x464 JUMP JUMPDEST SWAP2 POP PUSH2 0x8E1 DUP4 PUSH2 0x464 JUMP JUMPDEST SWAP3 POP DUP3 DUP3 SUB SWAP1 POP DUP2 DUP2 SLT PUSH0 DUP5 SLT AND DUP3 DUP3 SGT PUSH0 DUP6 SLT ISZERO AND OR ISZERO PUSH2 0x906 JUMPI PUSH2 0x905 PUSH2 0x662 JUMP JUMPDEST JUMPDEST SWAP3 SWAP2 POP POP JUMP INVALID LOG2 PUSH5 0x6970667358 0x22 SLT KECCAK256 0xF7 0xD2 PUSH21 0x5CDDF317BA7027931466943F0C4D0F5DD221F0F170 0xFC GT DUP14 MSIZE PUSH22 0x7642C164736F6C634300081A00330000000000000000 "
				},
				"gasEstimates": {
					"creation": {
						"codeDepositCost": "474000",
						"executionCost": "509",
						"totalCost": "474509"
					},
					"external": {
						"getTriangleTypeAndArea(int256,int256,int256)": "infinite",
						"isValidTriangle(int256,int256,int256)": "infinite",
						"sqrt(uint256)": "infinite"
					}
				},
				"methodIdentifiers": {
					"getTriangleTypeAndArea(int256,int256,int256)": "af2e6168",
					"isValidTriangle(int256,int256,int256)": "31df7cc8",
					"sqrt(uint256)": "677342ce"
				}
			},
			"storageLayout": {
				"storage": [],
				"types": null
			},
			"userdoc": {
				"kind": "user",
				"methods": {},
				"version": 1
			}
		}
	}
}