{
	"day3/p1.sol": {
		"IfElse": {
			"abi": [
				{
					"inputs": [
						{
							"internalType": "uint256",
							"name": "marks",
							"type": "uint256"
						}
					],
					"name": "foo",
					"outputs": [
						{
							"internalType": "string",
							"name": "",
							"type": "string"
						}
					],
					"stateMutability": "pure",
					"type": "function"
				}
			],
			"devdoc": {
				"kind": "dev",
				"methods": {},
				"version": 1
			},
			"evm": {
				"assembly": "    /* \"day3/p1.sol\":64:622  contract IfElse{... */\n  mstore(0x40, 0x80)\n  callvalue\n  dup1\n  iszero\n  tag_1\n  jumpi\n  0x00\n  dup1\n  revert\ntag_1:\n  pop\n  dataSize(sub_0)\n  dup1\n  dataOffset(sub_0)\n  0x00\n  codecopy\n  0x00\n  return\nstop\n\nsub_0: assembly {\n        /* \"day3/p1.sol\":64:622  contract IfElse{... */\n      mstore(0x40, 0x80)\n      callvalue\n      dup1\n      iszero\n      tag_1\n      jumpi\n      0x00\n      dup1\n      revert\n    tag_1:\n      pop\n      jumpi(tag_2, lt(calldatasize, 0x04))\n      shr(0xe0, calldataload(0x00))\n      dup1\n      0x2fbebd38\n      eq\n      tag_3\n      jumpi\n    tag_2:\n      0x00\n      dup1\n      revert\n        /* \"day3/p1.sol\":86:619  function foo(uint256 marks) public pure returns (string  memory){... */\n    tag_3:\n      tag_4\n      0x04\n      dup1\n      calldatasize\n      sub\n      dup2\n      add\n      swap1\n      tag_5\n      swap2\n      swap1\n      tag_6\n      jump\t// in\n    tag_5:\n      tag_7\n      jump\t// in\n    tag_4:\n      mload(0x40)\n      tag_8\n      swap2\n      swap1\n      tag_9\n      jump\t// in\n    tag_8:\n      mload(0x40)\n      dup1\n      swap2\n      sub\n      swap1\n      return\n    tag_7:\n        /* \"day3/p1.sol\":135:149  string  memory */\n      0x60\n        /* \"day3/p1.sol\":172:174  90 */\n      0x5a\n        /* \"day3/p1.sol\":165:170  marks */\n      dup3\n        /* \"day3/p1.sol\":165:174  marks>=90 */\n      lt\n        /* \"day3/p1.sol\":161:612  if (marks>=90){... */\n      tag_11\n      jumpi\n        /* \"day3/p1.sol\":190:200  return \"0\" */\n      mload(0x40)\n      dup1\n      0x40\n      add\n      0x40\n      mstore\n      dup1\n      0x01\n      dup2\n      mstore\n      0x20\n      add\n      0x3000000000000000000000000000000000000000000000000000000000000000\n      dup2\n      mstore\n      pop\n      swap1\n      pop\n      jump(tag_10)\n        /* \"day3/p1.sol\":161:612  if (marks>=90){... */\n    tag_11:\n        /* \"day3/p1.sol\":231:233  89 */\n      0x59\n        /* \"day3/p1.sol\":222:227  marks */\n      dup3\n        /* \"day3/p1.sol\":222:233  marks <= 89 */\n      gt\n      iszero\n        /* \"day3/p1.sol\":222:246  marks <= 89 && marks>=89 */\n      dup1\n      iszero\n      tag_13\n      jumpi\n      pop\n        /* \"day3/p1.sol\":244:246  89 */\n      0x59\n        /* \"day3/p1.sol\":237:242  marks */\n      dup3\n        /* \"day3/p1.sol\":237:246  marks>=89 */\n      lt\n      iszero\n        /* \"day3/p1.sol\":222:246  marks <= 89 && marks>=89 */\n    tag_13:\n        /* \"day3/p1.sol\":218:612  if (marks <= 89 && marks>=89){... */\n      iszero\n      tag_14\n      jumpi\n        /* \"day3/p1.sol\":262:272  return \"E\" */\n      mload(0x40)\n      dup1\n      0x40\n      add\n      0x40\n      mstore\n      dup1\n      0x01\n      dup2\n      mstore\n      0x20\n      add\n      0x4500000000000000000000000000000000000000000000000000000000000000\n      dup2\n      mstore\n      pop\n      swap1\n      pop\n      jump(tag_10)\n        /* \"day3/p1.sol\":218:612  if (marks <= 89 && marks>=89){... */\n    tag_14:\n        /* \"day3/p1.sol\":303:305  79 */\n      0x4f\n        /* \"day3/p1.sol\":294:299  marks */\n      dup3\n        /* \"day3/p1.sol\":294:305  marks <= 79 */\n      gt\n      iszero\n        /* \"day3/p1.sol\":294:318  marks <= 79 && marks>=70 */\n      dup1\n      iszero\n      tag_16\n      jumpi\n      pop\n        /* \"day3/p1.sol\":316:318  70 */\n      0x46\n        /* \"day3/p1.sol\":309:314  marks */\n      dup3\n        /* \"day3/p1.sol\":309:318  marks>=70 */\n      lt\n      iszero\n        /* \"day3/p1.sol\":294:318  marks <= 79 && marks>=70 */\n    tag_16:\n        /* \"day3/p1.sol\":290:612  if (marks <= 79 && marks>=70){... */\n      iszero\n      tag_17\n      jumpi\n        /* \"day3/p1.sol\":334:344  return \"A\" */\n      mload(0x40)\n      dup1\n      0x40\n      add\n      0x40\n      mstore\n      dup1\n      0x01\n      dup2\n      mstore\n      0x20\n      add\n      0x4100000000000000000000000000000000000000000000000000000000000000\n      dup2\n      mstore\n      pop\n      swap1\n      pop\n      jump(tag_10)\n        /* \"day3/p1.sol\":290:612  if (marks <= 79 && marks>=70){... */\n    tag_17:\n        /* \"day3/p1.sol\":375:377  69 */\n      0x45\n        /* \"day3/p1.sol\":366:371  marks */\n      dup3\n        /* \"day3/p1.sol\":366:377  marks <= 69 */\n      gt\n      iszero\n        /* \"day3/p1.sol\":366:390  marks <= 69 && marks>=60 */\n      dup1\n      iszero\n      tag_19\n      jumpi\n      pop\n        /* \"day3/p1.sol\":388:390  60 */\n      0x3c\n        /* \"day3/p1.sol\":381:386  marks */\n      dup3\n        /* \"day3/p1.sol\":381:390  marks>=60 */\n      lt\n      iszero\n        /* \"day3/p1.sol\":366:390  marks <= 69 && marks>=60 */\n    tag_19:\n        /* \"day3/p1.sol\":362:612  if (marks <= 69 && marks>=60){... */\n      iszero\n      tag_20\n      jumpi\n        /* \"day3/p1.sol\":406:416  return \"B\" */\n      mload(0x40)\n      dup1\n      0x40\n      add\n      0x40\n      mstore\n      dup1\n      0x01\n      dup2\n      mstore\n      0x20\n      add\n      0x4200000000000000000000000000000000000000000000000000000000000000\n      dup2\n      mstore\n      pop\n      swap1\n      pop\n      jump(tag_10)\n        /* \"day3/p1.sol\":362:612  if (marks <= 69 && marks>=60){... */\n    tag_20:\n        /* \"day3/p1.sol\":446:448  59 */\n      0x3b\n        /* \"day3/p1.sol\":437:442  marks */\n      dup3\n        /* \"day3/p1.sol\":437:448  marks <= 59 */\n      gt\n      iszero\n        /* \"day3/p1.sol\":437:461  marks <= 59 && marks>=50 */\n      dup1\n      iszero\n      tag_22\n      jumpi\n      pop\n        /* \"day3/p1.sol\":459:461  50 */\n      0x32\n        /* \"day3/p1.sol\":452:457  marks */\n      dup3\n        /* \"day3/p1.sol\":452:461  marks>=50 */\n      lt\n      iszero\n        /* \"day3/p1.sol\":437:461  marks <= 59 && marks>=50 */\n    tag_22:\n        /* \"day3/p1.sol\":433:612  if (marks <= 59 && marks>=50){... */\n      iszero\n      tag_23\n      jumpi\n        /* \"day3/p1.sol\":477:487  return \"C\" */\n      mload(0x40)\n      dup1\n      0x40\n      add\n      0x40\n      mstore\n      dup1\n      0x01\n      dup2\n      mstore\n      0x20\n      add\n      0x4300000000000000000000000000000000000000000000000000000000000000\n      dup2\n      mstore\n      pop\n      swap1\n      pop\n      jump(tag_10)\n        /* \"day3/p1.sol\":433:612  if (marks <= 59 && marks>=50){... */\n    tag_23:\n        /* \"day3/p1.sol\":517:519  49 */\n      0x31\n        /* \"day3/p1.sol\":508:513  marks */\n      dup3\n        /* \"day3/p1.sol\":508:519  marks <= 49 */\n      gt\n      iszero\n        /* \"day3/p1.sol\":508:532  marks <= 49 && marks>=40 */\n      dup1\n      iszero\n      tag_25\n      jumpi\n      pop\n        /* \"day3/p1.sol\":530:532  40 */\n      0x28\n        /* \"day3/p1.sol\":523:528  marks */\n      dup3\n        /* \"day3/p1.sol\":523:532  marks>=40 */\n      lt\n      iszero\n        /* \"day3/p1.sol\":508:532  marks <= 49 && marks>=40 */\n    tag_25:\n        /* \"day3/p1.sol\":504:612  if (marks <= 49 && marks>=40){... */\n      iszero\n      tag_26\n      jumpi\n        /* \"day3/p1.sol\":548:558  return \"D\" */\n      mload(0x40)\n      dup1\n      0x40\n      add\n      0x40\n      mstore\n      dup1\n      0x01\n      dup2\n      mstore\n      0x20\n      add\n      0x4400000000000000000000000000000000000000000000000000000000000000\n      dup2\n      mstore\n      pop\n      swap1\n      pop\n      jump(tag_10)\n        /* \"day3/p1.sol\":504:612  if (marks <= 49 && marks>=40){... */\n    tag_26:\n        /* \"day3/p1.sol\":590:600  return \"F\" */\n      mload(0x40)\n      dup1\n      0x40\n      add\n      0x40\n      mstore\n      dup1\n      0x01\n      dup2\n      mstore\n      0x20\n      add\n      0x4600000000000000000000000000000000000000000000000000000000000000\n      dup2\n      mstore\n      pop\n      swap1\n      pop\n        /* \"day3/p1.sol\":86:619  function foo(uint256 marks) public pure returns (string  memory){... */\n    tag_10:\n      swap2\n      swap1\n      pop\n      jump\t// out\n        /* \"#utility.yul\":88:205   */\n    tag_29:\n        /* \"#utility.yul\":197:198   */\n      0x00\n        /* \"#utility.yul\":194:195   */\n      dup1\n        /* \"#utility.yul\":187:199   */\n      revert\n        /* \"#utility.yul\":334:411   */\n    tag_31:\n        /* \"#utility.yul\":371:378   */\n      0x00\n        /* \"#utility.yul\":400:405   */\n      dup2\n        /* \"#utility.yul\":389:405   */\n      swap1\n      pop\n        /* \"#utility.yul\":334:411   */\n      swap2\n      swap1\n      pop\n      jump\t// out\n        /* \"#utility.yul\":417:539   */\n    tag_32:\n        /* \"#utility.yul\":490:514   */\n      tag_45\n        /* \"#utility.yul\":508:513   */\n      dup2\n        /* \"#utility.yul\":490:514   */\n      tag_31\n      jump\t// in\n    tag_45:\n        /* \"#utility.yul\":483:488   */\n      dup2\n        /* \"#utility.yul\":480:515   */\n      eq\n        /* \"#utility.yul\":470:533   */\n      tag_46\n      jumpi\n        /* \"#utility.yul\":529:530   */\n      0x00\n        /* \"#utility.yul\":526:527   */\n      dup1\n        /* \"#utility.yul\":519:531   */\n      revert\n        /* \"#utility.yul\":470:533   */\n    tag_46:\n        /* \"#utility.yul\":417:539   */\n      pop\n      jump\t// out\n        /* \"#utility.yul\":545:684   */\n    tag_33:\n        /* \"#utility.yul\":591:596   */\n      0x00\n        /* \"#utility.yul\":629:635   */\n      dup2\n        /* \"#utility.yul\":616:636   */\n      calldataload\n        /* \"#utility.yul\":607:636   */\n      swap1\n      pop\n        /* \"#utility.yul\":645:678   */\n      tag_48\n        /* \"#utility.yul\":672:677   */\n      dup2\n        /* \"#utility.yul\":645:678   */\n      tag_32\n      jump\t// in\n    tag_48:\n        /* \"#utility.yul\":545:684   */\n      swap3\n      swap2\n      pop\n      pop\n      jump\t// out\n        /* \"#utility.yul\":690:1019   */\n    tag_6:\n        /* \"#utility.yul\":749:755   */\n      0x00\n        /* \"#utility.yul\":798:800   */\n      0x20\n        /* \"#utility.yul\":786:795   */\n      dup3\n        /* \"#utility.yul\":777:784   */\n      dup5\n        /* \"#utility.yul\":773:796   */\n      sub\n        /* \"#utility.yul\":769:801   */\n      slt\n        /* \"#utility.yul\":766:885   */\n      iszero\n      tag_50\n      jumpi\n        /* \"#utility.yul\":804:883   */\n      tag_51\n      tag_29\n      jump\t// in\n    tag_51:\n        /* \"#utility.yul\":766:885   */\n    tag_50:\n        /* \"#utility.yul\":924:925   */\n      0x00\n        /* \"#utility.yul\":949:1002   */\n      tag_52\n        /* \"#utility.yul\":994:1001   */\n      dup5\n        /* \"#utility.yul\":985:991   */\n      dup3\n        /* \"#utility.yul\":974:983   */\n      dup6\n        /* \"#utility.yul\":970:992   */\n      add\n        /* \"#utility.yul\":949:1002   */\n      tag_33\n      jump\t// in\n    tag_52:\n        /* \"#utility.yul\":939:1002   */\n      swap2\n      pop\n        /* \"#utility.yul\":895:1012   */\n      pop\n        /* \"#utility.yul\":690:1019   */\n      swap3\n      swap2\n      pop\n      pop\n      jump\t// out\n        /* \"#utility.yul\":1025:1124   */\n    tag_34:\n        /* \"#utility.yul\":1077:1083   */\n      0x00\n        /* \"#utility.yul\":1111:1116   */\n      dup2\n        /* \"#utility.yul\":1105:1117   */\n      mload\n        /* \"#utility.yul\":1095:1117   */\n      swap1\n      pop\n        /* \"#utility.yul\":1025:1124   */\n      swap2\n      swap1\n      pop\n      jump\t// out\n        /* \"#utility.yul\":1130:1299   */\n    tag_35:\n        /* \"#utility.yul\":1214:1225   */\n      0x00\n        /* \"#utility.yul\":1248:1254   */\n      dup3\n        /* \"#utility.yul\":1243:1246   */\n      dup3\n        /* \"#utility.yul\":1236:1255   */\n      mstore\n        /* \"#utility.yul\":1288:1292   */\n      0x20\n        /* \"#utility.yul\":1283:1286   */\n      dup3\n        /* \"#utility.yul\":1279:1293   */\n      add\n        /* \"#utility.yul\":1264:1293   */\n      swap1\n      pop\n        /* \"#utility.yul\":1130:1299   */\n      swap3\n      swap2\n      pop\n      pop\n      jump\t// out\n        /* \"#utility.yul\":1305:1444   */\n    tag_36:\n        /* \"#utility.yul\":1394:1400   */\n      dup3\n        /* \"#utility.yul\":1389:1392   */\n      dup2\n        /* \"#utility.yul\":1384:1387   */\n      dup4\n        /* \"#utility.yul\":1378:1401   */\n      mcopy\n        /* \"#utility.yul\":1435:1436   */\n      0x00\n        /* \"#utility.yul\":1426:1432   */\n      dup4\n        /* \"#utility.yul\":1421:1424   */\n      dup4\n        /* \"#utility.yul\":1417:1433   */\n      add\n        /* \"#utility.yul\":1410:1437   */\n      mstore\n        /* \"#utility.yul\":1305:1444   */\n      pop\n      pop\n      pop\n      jump\t// out\n        /* \"#utility.yul\":1450:1552   */\n    tag_37:\n        /* \"#utility.yul\":1491:1497   */\n      0x00\n        /* \"#utility.yul\":1542:1544   */\n      0x1f\n        /* \"#utility.yul\":1538:1545   */\n      not\n        /* \"#utility.yul\":1533:1535   */\n      0x1f\n        /* \"#utility.yul\":1526:1531   */\n      dup4\n        /* \"#utility.yul\":1522:1536   */\n      add\n        /* \"#utility.yul\":1518:1546   */\n      and\n        /* \"#utility.yul\":1508:1546   */\n      swap1\n      pop\n        /* \"#utility.yul\":1450:1552   */\n      swap2\n      swap1\n      pop\n      jump\t// out\n        /* \"#utility.yul\":1558:1935   */\n    tag_38:\n        /* \"#utility.yul\":1646:1649   */\n      0x00\n        /* \"#utility.yul\":1674:1713   */\n      tag_58\n        /* \"#utility.yul\":1707:1712   */\n      dup3\n        /* \"#utility.yul\":1674:1713   */\n      tag_34\n      jump\t// in\n    tag_58:\n        /* \"#utility.yul\":1729:1800   */\n      tag_59\n        /* \"#utility.yul\":1793:1799   */\n      dup2\n        /* \"#utility.yul\":1788:1791   */\n      dup6\n        /* \"#utility.yul\":1729:1800   */\n      tag_35\n      jump\t// in\n    tag_59:\n        /* \"#utility.yul\":1722:1800   */\n      swap4\n      pop\n        /* \"#utility.yul\":1809:1874   */\n      tag_60\n        /* \"#utility.yul\":1867:1873   */\n      dup2\n        /* \"#utility.yul\":1862:1865   */\n      dup6\n        /* \"#utility.yul\":1855:1859   */\n      0x20\n        /* \"#utility.yul\":1848:1853   */\n      dup7\n        /* \"#utility.yul\":1844:1860   */\n      add\n        /* \"#utility.yul\":1809:1874   */\n      tag_36\n      jump\t// in\n    tag_60:\n        /* \"#utility.yul\":1899:1928   */\n      tag_61\n        /* \"#utility.yul\":1921:1927   */\n      dup2\n        /* \"#utility.yul\":1899:1928   */\n      tag_37\n      jump\t// in\n    tag_61:\n        /* \"#utility.yul\":1894:1897   */\n      dup5\n        /* \"#utility.yul\":1890:1929   */\n      add\n        /* \"#utility.yul\":1883:1929   */\n      swap2\n      pop\n        /* \"#utility.yul\":1650:1935   */\n      pop\n        /* \"#utility.yul\":1558:1935   */\n      swap3\n      swap2\n      pop\n      pop\n      jump\t// out\n        /* \"#utility.yul\":1941:2254   */\n    tag_9:\n        /* \"#utility.yul\":2054:2058   */\n      0x00\n        /* \"#utility.yul\":2092:2094   */\n      0x20\n        /* \"#utility.yul\":2081:2090   */\n      dup3\n        /* \"#utility.yul\":2077:2095   */\n      add\n        /* \"#utility.yul\":2069:2095   */\n      swap1\n      pop\n        /* \"#utility.yul\":2141:2150   */\n      dup2\n        /* \"#utility.yul\":2135:2139   */\n      dup2\n        /* \"#utility.yul\":2131:2151   */\n      sub\n        /* \"#utility.yul\":2127:2128   */\n      0x00\n        /* \"#utility.yul\":2116:2125   */\n      dup4\n        /* \"#utility.yul\":2112:2129   */\n      add\n        /* \"#utility.yul\":2105:2152   */\n      mstore\n        /* \"#utility.yul\":2169:2247   */\n      tag_63\n        /* \"#utility.yul\":2242:2246   */\n      dup2\n        /* \"#utility.yul\":2233:2239   */\n      dup5\n        /* \"#utility.yul\":2169:2247   */\n      tag_38\n      jump\t// in\n    tag_63:\n        /* \"#utility.yul\":2161:2247   */\n      swap1\n      pop\n        /* \"#utility.yul\":1941:2254   */\n      swap3\n      swap2\n      pop\n      pop\n      jump\t// out\n\n    auxdata: 0xa264697066735822122082d383dd97cb81a4bbceb80cb4dc0ee4a5392b7732599006dada431685deecd064736f6c634300081a0033\n}\n",
				"bytecode": {
					"linkReferences": {},
					"object": "6080604052348015600e575f80fd5b506103ae8061001c5f395ff3fe608060405234801561000f575f80fd5b5060043610610029575f3560e01c80632fbebd381461002d575b5f80fd5b610047600480360381019061004291906102bd565b61005d565b6040516100549190610358565b60405180910390f35b6060605a82106100a4576040518060400160405280600181526020017f30000000000000000000000000000000000000000000000000000000000000008152509050610281565b605982111580156100b6575060598210155b156100f8576040518060400160405280600181526020017f45000000000000000000000000000000000000000000000000000000000000008152509050610281565b604f821115801561010a575060468210155b1561014c576040518060400160405280600181526020017f41000000000000000000000000000000000000000000000000000000000000008152509050610281565b6045821115801561015e5750603c8210155b156101a0576040518060400160405280600181526020017f42000000000000000000000000000000000000000000000000000000000000008152509050610281565b603b82111580156101b2575060328210155b156101f4576040518060400160405280600181526020017f43000000000000000000000000000000000000000000000000000000000000008152509050610281565b60318211158015610206575060288210155b15610248576040518060400160405280600181526020017f44000000000000000000000000000000000000000000000000000000000000008152509050610281565b6040518060400160405280600181526020017f460000000000000000000000000000000000000000000000000000000000000081525090505b919050565b5f80fd5b5f819050919050565b61029c8161028a565b81146102a6575f80fd5b50565b5f813590506102b781610293565b92915050565b5f602082840312156102d2576102d1610286565b5b5f6102df848285016102a9565b91505092915050565b5f81519050919050565b5f82825260208201905092915050565b8281835e5f83830152505050565b5f601f19601f8301169050919050565b5f61032a826102e8565b61033481856102f2565b9350610344818560208601610302565b61034d81610310565b840191505092915050565b5f6020820190508181035f8301526103708184610320565b90509291505056fea264697066735822122082d383dd97cb81a4bbceb80cb4dc0ee4a5392b7732599006dada431685deecd064736f6c634300081a0033",
					"opcodes": "PUSH1 0x80 PUSH1 0x40 MSTORE CALLVALUE DUP1 ISZERO PUSH1 0xE JUMPI PUSH0 DUP1 REVERT JUMPDEST POP PUSH2 0x3AE DUP1 PUSH2 0x1C PUSH0 CODECOPY PUSH0 RETURN INVALID PUSH1 0x80 PUSH1 0x40 MSTORE CALLVALUE DUP1 ISZERO PUSH2 0xF JUMPI PUSH0 DUP1 REVERT JUMPDEST POP PUSH1 0x4 CALLDATASIZE LT PUSH2 0x29 JUMPI PUSH0 CALLDATALOAD PUSH1 0xE0 SHR DUP1 PUSH4 0x2FBEBD38 EQ PUSH2 0x2D JUMPI JUMPDEST PUSH0 DUP1 REVERT JUMPDEST PUSH2 0x47 PUSH1 0x4 DUP1 CALLDATASIZE SUB DUP2 ADD SWAP1 PUSH2 0x42 SWAP2 SWAP1 PUSH2 0x2BD JUMP JUMPDEST PUSH2 0x5D JUMP JUMPDEST PUSH1 0x40 MLOAD PUSH2 0x54 SWAP2 SWAP1 PUSH2 0x358 JUMP JUMPDEST PUSH1 0x40 MLOAD DUP1 SWAP2 SUB SWAP1 RETURN JUMPDEST PUSH1 0x60 PUSH1 0x5A DUP3 LT PUSH2 0xA4 JUMPI PUSH1 0x40 MLOAD DUP1 PUSH1 0x40 ADD PUSH1 0x40 MSTORE DUP1 PUSH1 0x1 DUP2 MSTORE PUSH1 0x20 ADD PUSH32 0x3000000000000000000000000000000000000000000000000000000000000000 DUP2 MSTORE POP SWAP1 POP PUSH2 0x281 JUMP JUMPDEST PUSH1 0x59 DUP3 GT ISZERO DUP1 ISZERO PUSH2 0xB6 JUMPI POP PUSH1 0x59 DUP3 LT ISZERO JUMPDEST ISZERO PUSH2 0xF8 JUMPI PUSH1 0x40 MLOAD DUP1 PUSH1 0x40 ADD PUSH1 0x40 MSTORE DUP1 PUSH1 0x1 DUP2 MSTORE PUSH1 0x20 ADD PUSH32 0x4500000000000000000000000000000000000000000000000000000000000000 DUP2 MSTORE POP SWAP1 POP PUSH2 0x281 JUMP JUMPDEST PUSH1 0x4F DUP3 GT ISZERO DUP1 ISZERO PUSH2 0x10A JUMPI POP PUSH1 0x46 DUP3 LT ISZERO JUMPDEST ISZERO PUSH2 0x14C JUMPI PUSH1 0x40 MLOAD DUP1 PUSH1 0x40 ADD PUSH1 0x40 MSTORE DUP1 PUSH1 0x1 DUP2 MSTORE PUSH1 0x20 ADD PUSH32 0x4100000000000000000000000000000000000000000000000000000000000000 DUP2 MSTORE POP SWAP1 POP PUSH2 0x281 JUMP JUMPDEST PUSH1 0x45 DUP3 GT ISZERO DUP1 ISZERO PUSH2 0x15E JUMPI POP PUSH1 0x3C DUP3 LT ISZERO JUMPDEST ISZERO PUSH2 0x1A0 JUMPI PUSH1 0x40 MLOAD DUP1 PUSH1 0x40 ADD PUSH1 0x40 MSTORE DUP1 PUSH1 0x1 DUP2 MSTORE PUSH1 0x20 ADD PUSH32 0x4200000000000000000000000000000000000000000000000000000000000000 DUP2 MSTORE POP SWAP1 POP PUSH2 0x281 JUMP JUMPDEST PUSH1 0x3B DUP3 GT ISZERO DUP1 ISZERO PUSH2 0x1B2 JUMPI POP PUSH1 0x32 DUP3 LT ISZERO JUMPDEST ISZERO PUSH2 0x1F4 JUMPI PUSH1 0x40 MLOAD DUP1 PUSH1 0x40 ADD PUSH1 0x40 MSTORE DUP1 PUSH1 0x1 DUP2 MSTORE PUSH1 0x20 ADD PUSH32 0x4300000000000000000000000000000000000000000000000000000000000000 DUP2 MSTORE POP SWAP1 POP PUSH2 0x281 JUMP JUMPDEST PUSH1 0x31 DUP3 GT ISZERO DUP1 ISZERO PUSH2 0x206 JUMPI POP PUSH1 0x28 DUP3 LT ISZERO JUMPDEST ISZERO PUSH2 0x248 JUMPI PUSH1 0x40 MLOAD DUP1 PUSH1 0x40 ADD PUSH1 0x40 MSTORE DUP1 PUSH1 0x1 DUP2 MSTORE PUSH1 0x20 ADD PUSH32 0x4400000000000000000000000000000000000000000000000000000000000000 DUP2 MSTORE POP SWAP1 POP PUSH2 0x281 JUMP JUMPDEST PUSH1 0x40 MLOAD DUP1 PUSH1 0x40 ADD PUSH1 0x40 MSTORE DUP1 PUSH1 0x1 DUP2 MSTORE PUSH1 0x20 ADD PUSH32 0x4600000000000000000000000000000000000000000000000000000000000000 DUP2 MSTORE POP SWAP1 POP JUMPDEST SWAP2 SWAP1 POP JUMP JUMPDEST PUSH0 DUP1 REVERT JUMPDEST PUSH0 DUP2 SWAP1 POP SWAP2 SWAP1 POP JUMP JUMPDEST PUSH2 0x29C DUP2 PUSH2 0x28A JUMP JUMPDEST DUP2 EQ PUSH2 0x2A6 JUMPI PUSH0 DUP1 REVERT JUMPDEST POP JUMP JUMPDEST PUSH0 DUP2 CALLDATALOAD SWAP1 POP PUSH2 0x2B7 DUP2 PUSH2 0x293 JUMP JUMPDEST SWAP3 SWAP2 POP POP JUMP JUMPDEST PUSH0 PUSH1 0x20 DUP3 DUP5 SUB SLT ISZERO PUSH2 0x2D2 JUMPI PUSH2 0x2D1 PUSH2 0x286 JUMP JUMPDEST JUMPDEST PUSH0 PUSH2 0x2DF DUP5 DUP3 DUP6 ADD PUSH2 0x2A9 JUMP JUMPDEST SWAP2 POP POP SWAP3 SWAP2 POP POP JUMP JUMPDEST PUSH0 DUP2 MLOAD SWAP1 POP SWAP2 SWAP1 POP JUMP JUMPDEST PUSH0 DUP3 DUP3 MSTORE PUSH1 0x20 DUP3 ADD SWAP1 POP SWAP3 SWAP2 POP POP JUMP JUMPDEST DUP3 DUP2 DUP4 MCOPY PUSH0 DUP4 DUP4 ADD MSTORE POP POP POP JUMP JUMPDEST PUSH0 PUSH1 0x1F NOT PUSH1 0x1F DUP4 ADD AND SWAP1 POP SWAP2 SWAP1 POP JUMP JUMPDEST PUSH0 PUSH2 0x32A DUP3 PUSH2 0x2E8 JUMP JUMPDEST PUSH2 0x334 DUP2 DUP6 PUSH2 0x2F2 JUMP JUMPDEST SWAP4 POP PUSH2 0x344 DUP2 DUP6 PUSH1 0x20 DUP7 ADD PUSH2 0x302 JUMP JUMPDEST PUSH2 0x34D DUP2 PUSH2 0x310 JUMP JUMPDEST DUP5 ADD SWAP2 POP POP SWAP3 SWAP2 POP POP JUMP JUMPDEST PUSH0 PUSH1 0x20 DUP3 ADD SWAP1 POP DUP2 DUP2 SUB PUSH0 DUP4 ADD MSTORE PUSH2 0x370 DUP2 DUP5 PUSH2 0x320 JUMP JUMPDEST SWAP1 POP SWAP3 SWAP2 POP POP JUMP INVALID LOG2 PUSH5 0x6970667358 0x22 SLT KECCAK256 DUP3 0xD3 DUP4 0xDD SWAP8 0xCB DUP2 LOG4 0xBB 0xCE 0xB8 0xC 0xB4 0xDC 0xE 0xE4 0xA5 CODECOPY 0x2B PUSH24 0x32599006DADA431685DEECD064736F6C634300081A003300 "
				},
				"gasEstimates": {
					"creation": {
						"codeDepositCost": "188400",
						"executionCost": "230",
						"totalCost": "188630"
					},
					"external": {
						"foo(uint256)": "infinite"
					}
				},
				"methodIdentifiers": {
					"foo(uint256)": "2fbebd38"
				}
			},
			"storageLayout": {
				"storage": [],
				"types": null
			},
			"userdoc": {
				"kind": "user",
				"methods": {},
				"version": 1
			}
		}
	}
}