{
	"data": {
		"bytecode": {
			"linkReferences": {},
			"object": "6080604052348015600e575f80fd5b5061019b8061001c5f395ff3fe608060405234801561000f575f80fd5b5060043610610029575f3560e01c80631a21b9671461002d575b5f80fd5b610047600480360381019061004291906100df565b61005e565b60405161005592919061013e565b60405180910390f35b5f805f8590505f86905081861315610074578591505b81851315610080578491505b8086121561008c578590505b80851215610098578490505b8181935093505050935093915050565b5f80fd5b5f819050919050565b6100be816100ac565b81146100c8575f80fd5b50565b5f813590506100d9816100b5565b92915050565b5f805f606084860312156100f6576100f56100a8565b5b5f610103868287016100cb565b9350506020610114868287016100cb565b9250506040610125868287016100cb565b9150509250925092565b610138816100ac565b82525050565b5f6040820190506101515f83018561012f565b61015e602083018461012f565b939250505056fea26469706673582212202a1a2c9171b58d2798049f37fb688c1d27cd4e0aba8ecd8dead0ba542aab181c64736f6c634300081a0033",
			"opcodes": "PUSH1 0x80 PUSH1 0x40 MSTORE CALLVALUE DUP1 ISZERO PUSH1 0xE JUMPI PUSH0 DUP1 REVERT JUMPDEST POP PUSH2 0x19B DUP1 PUSH2 0x1C PUSH0 CODECOPY PUSH0 RETURN INVALID PUSH1 0x80 PUSH1 0x40 MSTORE CALLVALUE DUP1 ISZERO PUSH2 0xF JUMPI PUSH0 DUP1 REVERT JUMPDEST POP PUSH1 0x4 CALLDATASIZE LT PUSH2 0x29 JUMPI PUSH0 CALLDATALOAD PUSH1 0xE0 SHR DUP1 PUSH4 0x1A21B967 EQ PUSH2 0x2D JUMPI JUMPDEST PUSH0 DUP1 REVERT JUMPDEST PUSH2 0x47 PUSH1 0x4 DUP1 CALLDATASIZE SUB DUP2 ADD SWAP1 PUSH2 0x42 SWAP2 SWAP1 PUSH2 0xDF JUMP JUMPDEST PUSH2 0x5E JUMP JUMPDEST PUSH1 0x40 MLOAD PUSH2 0x55 SWAP3 SWAP2 SWAP1 PUSH2 0x13E JUMP JUMPDEST PUSH1 0x40 MLOAD DUP1 SWAP2 SUB SWAP1 RETURN JUMPDEST PUSH0 DUP1 PUSH0 DUP6 SWAP1 POP PUSH0 DUP7 SWAP1 POP DUP2 DUP7 SGT ISZERO PUSH2 0x74 JUMPI DUP6 SWAP2 POP JUMPDEST DUP2 DUP6 SGT ISZERO PUSH2 0x80 JUMPI DUP5 SWAP2 POP JUMPDEST DUP1 DUP7 SLT ISZERO PUSH2 0x8C JUMPI DUP6 SWAP1 POP JUMPDEST DUP1 DUP6 SLT ISZERO PUSH2 0x98 JUMPI DUP5 SWAP1 POP JUMPDEST DUP2 DUP2 SWAP4 POP SWAP4 POP POP POP SWAP4 POP SWAP4 SWAP2 POP POP JUMP JUMPDEST PUSH0 DUP1 REVERT JUMPDEST PUSH0 DUP2 SWAP1 POP SWAP2 SWAP1 POP JUMP JUMPDEST PUSH2 0xBE DUP2 PUSH2 0xAC JUMP JUMPDEST DUP2 EQ PUSH2 0xC8 JUMPI PUSH0 DUP1 REVERT JUMPDEST POP JUMP JUMPDEST PUSH0 DUP2 CALLDATALOAD SWAP1 POP PUSH2 0xD9 DUP2 PUSH2 0xB5 JUMP JUMPDEST SWAP3 SWAP2 POP POP JUMP JUMPDEST PUSH0 DUP1 PUSH0 PUSH1 0x60 DUP5 DUP7 SUB SLT ISZERO PUSH2 0xF6 JUMPI PUSH2 0xF5 PUSH2 0xA8 JUMP JUMPDEST JUMPDEST PUSH0 PUSH2 0x103 DUP7 DUP3 DUP8 ADD PUSH2 0xCB JUMP JUMPDEST SWAP4 POP POP PUSH1 0x20 PUSH2 0x114 DUP7 DUP3 DUP8 ADD PUSH2 0xCB JUMP JUMPDEST SWAP3 POP POP PUSH1 0x40 PUSH2 0x125 DUP7 DUP3 DUP8 ADD PUSH2 0xCB JUMP JUMPDEST SWAP2 POP POP SWAP3 POP SWAP3 POP SWAP3 JUMP JUMPDEST PUSH2 0x138 DUP2 PUSH2 0xAC JUMP JUMPDEST DUP3 MSTORE POP POP JUMP JUMPDEST PUSH0 PUSH1 0x40 DUP3 ADD SWAP1 POP PUSH2 0x151 PUSH0 DUP4 ADD DUP6 PUSH2 0x12F JUMP JUMPDEST PUSH2 0x15E PUSH1 0x20 DUP4 ADD DUP5 PUSH2 0x12F JUMP JUMPDEST SWAP4 SWAP3 POP POP POP JUMP INVALID LOG2 PUSH5 0x6970667358 0x22 SLT KECCAK256 0x2A BYTE 0x2C SWAP2 PUSH18 0xB58D2798049F37FB688C1D27CD4E0ABA8ECD DUP14 0xEA 0xD0 0xBA SLOAD 0x2A 0xAB XOR SHR PUSH5 0x736F6C6343 STOP ADDMOD BYTE STOP CALLER "
		},
		"gasEstimates": {
			"creation": {
				"codeDepositCost": "82200",
				"executionCost": "127",
				"totalCost": "82327"
			},
			"external": {
				"findMinMax(int256,int256,int256)": "infinite"
			}
		},
		"methodIdentifiers": {
			"findMinMax(int256,int256,int256)": "1a21b967"
		}
	},
	"abi": [
		{
			"inputs": [
				{
					"internalType": "int256",
					"name": "num1",
					"type": "int256"
				},
				{
					"internalType": "int256",
					"name": "num2",
					"type": "int256"
				},
				{
					"internalType": "int256",
					"name": "num3",
					"type": "int256"
				}
			],
			"name": "findMinMax",
			"outputs": [
				{
					"internalType": "int256",
					"name": "",
					"type": "int256"
				},
				{
					"internalType": "int256",
					"name": "",
					"type": "int256"
				}
			],
			"stateMutability": "pure",
			"type": "function"
		}
	]
}