{
	"data": {
		"bytecode": {
			"linkReferences": {},
			"object": "6080604052348015600e575f80fd5b50610edc8061001c5f395ff3fe608060405234801561000f575f80fd5b5060043610610034575f3560e01c8063677342ce146100385780637f7e693214610068575b5f80fd5b610052600480360381019061004d91906105b8565b610099565b60405161005f91906105f2565b60405180910390f35b610082600480360381019061007d919061063e565b610110565b6040516100909291906106fe565b60405180910390f35b5f60038211156100fe578190505f60016002846100b6919061078d565b6100c091906107bd565b90505b818110156100f85780915060028182856100dd919061078d565b6100e791906107bd565b6100f1919061078d565b90506100c3565b5061010b565b5f821461010a57600190505b5b919050565b6060805f8503610155576040517f08c379a000000000000000000000000000000000000000000000000000000000815260040161014c90610860565b60405180910390fd5b5f83866004610164919061087e565b61016e919061087e565b858661017a919061087e565b61018491906108f4565b90505f811315610246575f61019882610099565b90505f8760026101a8919061087e565b82886101b390610934565b6101bd919061097a565b6101c791906109bb565b90505f8860026101d7919061087e565b83896101e290610934565b6101ec91906108f4565b6101f691906109bb565b905061020182610368565b61020a82610368565b60405160200161021b929190610af1565b60405160208183030381529060405260405180602001604052805f8152509550955050505050610360565b5f81036102b3575f86600261025b919061087e565b8661026590610934565b61026f91906109bb565b905061027a81610368565b60405160200161028a9190610b74565b60405160208183030381529060405260405180602001604052805f815250935093505050610360565b5f8660026102c1919061087e565b866102cb90610934565b6102d591906109bb565b90505f8760026102e5919061087e565b6102f7846102f290610934565b610099565b61030191906109bb565b905061030c82610368565b61031582610368565b61031e84610368565b61032784610368565b60405160200161033a9493929190610d07565b60405160208183030381529060405260405180602001604052805f815250945094505050505b935093915050565b60605f82036103ae576040518060400160405280600181526020017f3000000000000000000000000000000000000000000000000000000000000000815250905061057c565b5f80831290505f816103c057836103cb565b836103ca90610934565b5b90505f5b5f82146103f85780806103e190610d7b565b915050600a826103f1919061078d565b91506103cf565b821561040d57808061040990610d7b565b9150505b5f8167ffffffffffffffff81111561042857610427610dc2565b5b6040519080825280601f01601f19166020018201604052801561045a5781602001600182028036833780820191505090505b5090505f60018361046b9190610def565b9050846104785786610483565b8661048290610934565b5b93505b5f841461050a57600a8461049a9190610e22565b60306104a691906107bd565b60f81b8282806104b590610e52565b9350815181106104c8576104c7610e79565b5b60200101907effffffffffffffffffffffffffffffffffffffffffffffffffffffffffffff191690815f1a905350600a84610503919061078d565b9350610486565b8415610573577f2d00000000000000000000000000000000000000000000000000000000000000825f8151811061054457610543610e79565b5b60200101907effffffffffffffffffffffffffffffffffffffffffffffffffffffffffffff191690815f1a9053505b81955050505050505b919050565b5f80fd5b5f819050919050565b61059781610585565b81146105a1575f80fd5b50565b5f813590506105b28161058e565b92915050565b5f602082840312156105cd576105cc610581565b5b5f6105da848285016105a4565b91505092915050565b6105ec81610585565b82525050565b5f6020820190506106055f8301846105e3565b92915050565b5f819050919050565b61061d8161060b565b8114610627575f80fd5b50565b5f8135905061063881610614565b92915050565b5f805f6060848603121561065557610654610581565b5b5f6106628682870161062a565b93505060206106738682870161062a565b92505060406106848682870161062a565b9150509250925092565b5f81519050919050565b5f82825260208201905092915050565b8281835e5f83830152505050565b5f601f19601f8301169050919050565b5f6106d08261068e565b6106da8185610698565b93506106ea8185602086016106a8565b6106f3816106b6565b840191505092915050565b5f6040820190508181035f83015261071681856106c6565b9050818103602083015261072a81846106c6565b90509392505050565b7f4e487b71000000000000000000000000000000000000000000000000000000005f52601260045260245ffd5b7f4e487b71000000000000000000000000000000000000000000000000000000005f52601160045260245ffd5b5f61079782610585565b91506107a283610585565b9250826107b2576107b1610733565b5b828204905092915050565b5f6107c782610585565b91506107d283610585565b92508282019050808211156107ea576107e9610760565b5b92915050565b7f612063616e6e6f74206265207a65726f20666f722061207175616472617469635f8201527f206571756174696f6e2e00000000000000000000000000000000000000000000602082015250565b5f61084a602a83610698565b9150610855826107f0565b604082019050919050565b5f6020820190508181035f8301526108778161083e565b9050919050565b5f6108888261060b565b91506108938361060b565b92508282026108a18161060b565b91507f800000000000000000000000000000000000000000000000000000000000000084145f841216156108d8576108d7610760565b5b82820584148315176108ed576108ec610760565b5b5092915050565b5f6108fe8261060b565b91506109098361060b565b925082820390508181125f8412168282135f85121516171561092e5761092d610760565b5b92915050565b5f61093e8261060b565b91507f800000000000000000000000000000000000000000000000000000000000000082036109705761096f610760565b5b815f039050919050565b5f6109848261060b565b915061098f8361060b565b92508282019050828112155f8312168382125f8412151617156109b5576109b4610760565b5b92915050565b5f6109c58261060b565b91506109d08361060b565b9250826109e0576109df610733565b5b60015f0383147f800000000000000000000000000000000000000000000000000000000000000083141615610a1857610a17610760565b5b828205905092915050565b5f81905092915050565b7f5265616c20616e642064697374696e637420726f6f74733a20000000000000005f82015250565b5f610a61601983610a23565b9150610a6c82610a2d565b601982019050919050565b5f610a818261068e565b610a8b8185610a23565b9350610a9b8185602086016106a8565b80840191505092915050565b7f20616e64200000000000000000000000000000000000000000000000000000005f82015250565b5f610adb600583610a23565b9150610ae682610aa7565b600582019050919050565b5f610afb82610a55565b9150610b078285610a77565b9150610b1282610acf565b9150610b1e8284610a77565b91508190509392505050565b7f4f6e65207265616c20726f6f743a2000000000000000000000000000000000005f82015250565b5f610b5e600f83610a23565b9150610b6982610b2a565b600f82019050919050565b5f610b7e82610b52565b9150610b8a8284610a77565b915081905092915050565b7f436f6d706c657820726f6f74733a2000000000000000000000000000000000005f82015250565b5f610bc9600f83610a23565b9150610bd482610b95565b600f82019050919050565b7f202b2000000000000000000000000000000000000000000000000000000000005f82015250565b5f610c13600383610a23565b9150610c1e82610bdf565b600382019050919050565b7f6920616e642000000000000000000000000000000000000000000000000000005f82015250565b5f610c5d600683610a23565b9150610c6882610c29565b600682019050919050565b7f202d2000000000000000000000000000000000000000000000000000000000005f82015250565b5f610ca7600383610a23565b9150610cb282610c73565b600382019050919050565b7f69000000000000000000000000000000000000000000000000000000000000005f82015250565b5f610cf1600183610a23565b9150610cfc82610cbd565b600182019050919050565b5f610d1182610bbd565b9150610d1d8287610a77565b9150610d2882610c07565b9150610d348286610a77565b9150610d3f82610c51565b9150610d4b8285610a77565b9150610d5682610c9b565b9150610d628284610a77565b9150610d6d82610ce5565b915081905095945050505050565b5f610d8582610585565b91507fffffffffffffffffffffffffffffffffffffffffffffffffffffffffffffffff8203610db757610db6610760565b5b600182019050919050565b7f4e487b71000000000000000000000000000000000000000000000000000000005f52604160045260245ffd5b5f610df982610585565b9150610e0483610585565b9250828203905081811115610e1c57610e1b610760565b5b92915050565b5f610e2c82610585565b9150610e3783610585565b925082610e4757610e46610733565b5b828206905092915050565b5f610e5c82610585565b91505f8203610e6e57610e6d610760565b5b600182039050919050565b7f4e487b71000000000000000000000000000000000000000000000000000000005f52603260045260245ffdfea26469706673582212203c7ed52695757cbb462275880c914a20a868e4f2ca035f6c9027f2205066dfb864736f6c634300081a0033",
			"opcodes": "PUSH1 0x80 PUSH1 0x40 MSTORE CALLVALUE DUP1 ISZERO PUSH1 0xE JUMPI PUSH0 DUP1 REVERT JUMPDEST POP PUSH2 0xEDC DUP1 PUSH2 0x1C PUSH0 CODECOPY PUSH0 RETURN INVALID PUSH1 0x80 PUSH1 0x40 MSTORE CALLVALUE DUP1 ISZERO PUSH2 0xF JUMPI PUSH0 DUP1 REVERT JUMPDEST POP PUSH1 0x4 CALLDATASIZE LT PUSH2 0x34 JUMPI PUSH0 CALLDATALOAD PUSH1 0xE0 SHR DUP1 PUSH4 0x677342CE EQ PUSH2 0x38 JUMPI DUP1 PUSH4 0x7F7E6932 EQ PUSH2 0x68 JUMPI JUMPDEST PUSH0 DUP1 REVERT JUMPDEST PUSH2 0x52 PUSH1 0x4 DUP1 CALLDATASIZE SUB DUP2 ADD SWAP1 PUSH2 0x4D SWAP2 SWAP1 PUSH2 0x5B8 JUMP JUMPDEST PUSH2 0x99 JUMP JUMPDEST PUSH1 0x40 MLOAD PUSH2 0x5F SWAP2 SWAP1 PUSH2 0x5F2 JUMP JUMPDEST PUSH1 0x40 MLOAD DUP1 SWAP2 SUB SWAP1 RETURN JUMPDEST PUSH2 0x82 PUSH1 0x4 DUP1 CALLDATASIZE SUB DUP2 ADD SWAP1 PUSH2 0x7D SWAP2 SWAP1 PUSH2 0x63E JUMP JUMPDEST PUSH2 0x110 JUMP JUMPDEST PUSH1 0x40 MLOAD PUSH2 0x90 SWAP3 SWAP2 SWAP1 PUSH2 0x6FE JUMP JUMPDEST PUSH1 0x40 MLOAD DUP1 SWAP2 SUB SWAP1 RETURN JUMPDEST PUSH0 PUSH1 0x3 DUP3 GT ISZERO PUSH2 0xFE JUMPI DUP2 SWAP1 POP PUSH0 PUSH1 0x1 PUSH1 0x2 DUP5 PUSH2 0xB6 SWAP2 SWAP1 PUSH2 0x78D JUMP JUMPDEST PUSH2 0xC0 SWAP2 SWAP1 PUSH2 0x7BD JUMP JUMPDEST SWAP1 POP JUMPDEST DUP2 DUP2 LT ISZERO PUSH2 0xF8 JUMPI DUP1 SWAP2 POP PUSH1 0x2 DUP2 DUP3 DUP6 PUSH2 0xDD SWAP2 SWAP1 PUSH2 0x78D JUMP JUMPDEST PUSH2 0xE7 SWAP2 SWAP1 PUSH2 0x7BD JUMP JUMPDEST PUSH2 0xF1 SWAP2 SWAP1 PUSH2 0x78D JUMP JUMPDEST SWAP1 POP PUSH2 0xC3 JUMP JUMPDEST POP PUSH2 0x10B JUMP JUMPDEST PUSH0 DUP3 EQ PUSH2 0x10A JUMPI PUSH1 0x1 SWAP1 POP JUMPDEST JUMPDEST SWAP2 SWAP1 POP JUMP JUMPDEST PUSH1 0x60 DUP1 PUSH0 DUP6 SUB PUSH2 0x155 JUMPI PUSH1 0x40 MLOAD PUSH32 0x8C379A000000000000000000000000000000000000000000000000000000000 DUP2 MSTORE PUSH1 0x4 ADD PUSH2 0x14C SWAP1 PUSH2 0x860 JUMP JUMPDEST PUSH1 0x40 MLOAD DUP1 SWAP2 SUB SWAP1 REVERT JUMPDEST PUSH0 DUP4 DUP7 PUSH1 0x4 PUSH2 0x164 SWAP2 SWAP1 PUSH2 0x87E JUMP JUMPDEST PUSH2 0x16E SWAP2 SWAP1 PUSH2 0x87E JUMP JUMPDEST DUP6 DUP7 PUSH2 0x17A SWAP2 SWAP1 PUSH2 0x87E JUMP JUMPDEST PUSH2 0x184 SWAP2 SWAP1 PUSH2 0x8F4 JUMP JUMPDEST SWAP1 POP PUSH0 DUP2 SGT ISZERO PUSH2 0x246 JUMPI PUSH0 PUSH2 0x198 DUP3 PUSH2 0x99 JUMP JUMPDEST SWAP1 POP PUSH0 DUP8 PUSH1 0x2 PUSH2 0x1A8 SWAP2 SWAP1 PUSH2 0x87E JUMP JUMPDEST DUP3 DUP9 PUSH2 0x1B3 SWAP1 PUSH2 0x934 JUMP JUMPDEST PUSH2 0x1BD SWAP2 SWAP1 PUSH2 0x97A JUMP JUMPDEST PUSH2 0x1C7 SWAP2 SWAP1 PUSH2 0x9BB JUMP JUMPDEST SWAP1 POP PUSH0 DUP9 PUSH1 0x2 PUSH2 0x1D7 SWAP2 SWAP1 PUSH2 0x87E JUMP JUMPDEST DUP4 DUP10 PUSH2 0x1E2 SWAP1 PUSH2 0x934 JUMP JUMPDEST PUSH2 0x1EC SWAP2 SWAP1 PUSH2 0x8F4 JUMP JUMPDEST PUSH2 0x1F6 SWAP2 SWAP1 PUSH2 0x9BB JUMP JUMPDEST SWAP1 POP PUSH2 0x201 DUP3 PUSH2 0x368 JUMP JUMPDEST PUSH2 0x20A DUP3 PUSH2 0x368 JUMP JUMPDEST PUSH1 0x40 MLOAD PUSH1 0x20 ADD PUSH2 0x21B SWAP3 SWAP2 SWAP1 PUSH2 0xAF1 JUMP JUMPDEST PUSH1 0x40 MLOAD PUSH1 0x20 DUP2 DUP4 SUB SUB DUP2 MSTORE SWAP1 PUSH1 0x40 MSTORE PUSH1 0x40 MLOAD DUP1 PUSH1 0x20 ADD PUSH1 0x40 MSTORE DUP1 PUSH0 DUP2 MSTORE POP SWAP6 POP SWAP6 POP POP POP POP POP PUSH2 0x360 JUMP JUMPDEST PUSH0 DUP2 SUB PUSH2 0x2B3 JUMPI PUSH0 DUP7 PUSH1 0x2 PUSH2 0x25B SWAP2 SWAP1 PUSH2 0x87E JUMP JUMPDEST DUP7 PUSH2 0x265 SWAP1 PUSH2 0x934 JUMP JUMPDEST PUSH2 0x26F SWAP2 SWAP1 PUSH2 0x9BB JUMP JUMPDEST SWAP1 POP PUSH2 0x27A DUP2 PUSH2 0x368 JUMP JUMPDEST PUSH1 0x40 MLOAD PUSH1 0x20 ADD PUSH2 0x28A SWAP2 SWAP1 PUSH2 0xB74 JUMP JUMPDEST PUSH1 0x40 MLOAD PUSH1 0x20 DUP2 DUP4 SUB SUB DUP2 MSTORE SWAP1 PUSH1 0x40 MSTORE PUSH1 0x40 MLOAD DUP1 PUSH1 0x20 ADD PUSH1 0x40 MSTORE DUP1 PUSH0 DUP2 MSTORE POP SWAP4 POP SWAP4 POP POP POP PUSH2 0x360 JUMP JUMPDEST PUSH0 DUP7 PUSH1 0x2 PUSH2 0x2C1 SWAP2 SWAP1 PUSH2 0x87E JUMP JUMPDEST DUP7 PUSH2 0x2CB SWAP1 PUSH2 0x934 JUMP JUMPDEST PUSH2 0x2D5 SWAP2 SWAP1 PUSH2 0x9BB JUMP JUMPDEST SWAP1 POP PUSH0 DUP8 PUSH1 0x2 PUSH2 0x2E5 SWAP2 SWAP1 PUSH2 0x87E JUMP JUMPDEST PUSH2 0x2F7 DUP5 PUSH2 0x2F2 SWAP1 PUSH2 0x934 JUMP JUMPDEST PUSH2 0x99 JUMP JUMPDEST PUSH2 0x301 SWAP2 SWAP1 PUSH2 0x9BB JUMP JUMPDEST SWAP1 POP PUSH2 0x30C DUP3 PUSH2 0x368 JUMP JUMPDEST PUSH2 0x315 DUP3 PUSH2 0x368 JUMP JUMPDEST PUSH2 0x31E DUP5 PUSH2 0x368 JUMP JUMPDEST PUSH2 0x327 DUP5 PUSH2 0x368 JUMP JUMPDEST PUSH1 0x40 MLOAD PUSH1 0x20 ADD PUSH2 0x33A SWAP5 SWAP4 SWAP3 SWAP2 SWAP1 PUSH2 0xD07 JUMP JUMPDEST PUSH1 0x40 MLOAD PUSH1 0x20 DUP2 DUP4 SUB SUB DUP2 MSTORE SWAP1 PUSH1 0x40 MSTORE PUSH1 0x40 MLOAD DUP1 PUSH1 0x20 ADD PUSH1 0x40 MSTORE DUP1 PUSH0 DUP2 MSTORE POP SWAP5 POP SWAP5 POP POP POP POP JUMPDEST SWAP4 POP SWAP4 SWAP2 POP POP JUMP JUMPDEST PUSH1 0x60 PUSH0 DUP3 SUB PUSH2 0x3AE JUMPI PUSH1 0x40 MLOAD DUP1 PUSH1 0x40 ADD PUSH1 0x40 MSTORE DUP1 PUSH1 0x1 DUP2 MSTORE PUSH1 0x20 ADD PUSH32 0x3000000000000000000000000000000000000000000000000000000000000000 DUP2 MSTORE POP SWAP1 POP PUSH2 0x57C JUMP JUMPDEST PUSH0 DUP1 DUP4 SLT SWAP1 POP PUSH0 DUP2 PUSH2 0x3C0 JUMPI DUP4 PUSH2 0x3CB JUMP JUMPDEST DUP4 PUSH2 0x3CA SWAP1 PUSH2 0x934 JUMP JUMPDEST JUMPDEST SWAP1 POP PUSH0 JUMPDEST PUSH0 DUP3 EQ PUSH2 0x3F8 JUMPI DUP1 DUP1 PUSH2 0x3E1 SWAP1 PUSH2 0xD7B JUMP JUMPDEST SWAP2 POP POP PUSH1 0xA DUP3 PUSH2 0x3F1 SWAP2 SWAP1 PUSH2 0x78D JUMP JUMPDEST SWAP2 POP PUSH2 0x3CF JUMP JUMPDEST DUP3 ISZERO PUSH2 0x40D JUMPI DUP1 DUP1 PUSH2 0x409 SWAP1 PUSH2 0xD7B JUMP JUMPDEST SWAP2 POP POP JUMPDEST PUSH0 DUP2 PUSH8 0xFFFFFFFFFFFFFFFF DUP2 GT ISZERO PUSH2 0x428 JUMPI PUSH2 0x427 PUSH2 0xDC2 JUMP JUMPDEST JUMPDEST PUSH1 0x40 MLOAD SWAP1 DUP1 DUP3 MSTORE DUP1 PUSH1 0x1F ADD PUSH1 0x1F NOT AND PUSH1 0x20 ADD DUP3 ADD PUSH1 0x40 MSTORE DUP1 ISZERO PUSH2 0x45A JUMPI DUP2 PUSH1 0x20 ADD PUSH1 0x1 DUP3 MUL DUP1 CALLDATASIZE DUP4 CALLDATACOPY DUP1 DUP3 ADD SWAP2 POP POP SWAP1 POP JUMPDEST POP SWAP1 POP PUSH0 PUSH1 0x1 DUP4 PUSH2 0x46B SWAP2 SWAP1 PUSH2 0xDEF JUMP JUMPDEST SWAP1 POP DUP5 PUSH2 0x478 JUMPI DUP7 PUSH2 0x483 JUMP JUMPDEST DUP7 PUSH2 0x482 SWAP1 PUSH2 0x934 JUMP JUMPDEST JUMPDEST SWAP4 POP JUMPDEST PUSH0 DUP5 EQ PUSH2 0x50A JUMPI PUSH1 0xA DUP5 PUSH2 0x49A SWAP2 SWAP1 PUSH2 0xE22 JUMP JUMPDEST PUSH1 0x30 PUSH2 0x4A6 SWAP2 SWAP1 PUSH2 0x7BD JUMP JUMPDEST PUSH1 0xF8 SHL DUP3 DUP3 DUP1 PUSH2 0x4B5 SWAP1 PUSH2 0xE52 JUMP JUMPDEST SWAP4 POP DUP2 MLOAD DUP2 LT PUSH2 0x4C8 JUMPI PUSH2 0x4C7 PUSH2 0xE79 JUMP JUMPDEST JUMPDEST PUSH1 0x20 ADD ADD SWAP1 PUSH31 0xFFFFFFFFFFFFFFFFFFFFFFFFFFFFFFFFFFFFFFFFFFFFFFFFFFFFFFFFFFFFFF NOT AND SWAP1 DUP2 PUSH0 BYTE SWAP1 MSTORE8 POP PUSH1 0xA DUP5 PUSH2 0x503 SWAP2 SWAP1 PUSH2 0x78D JUMP JUMPDEST SWAP4 POP PUSH2 0x486 JUMP JUMPDEST DUP5 ISZERO PUSH2 0x573 JUMPI PUSH32 0x2D00000000000000000000000000000000000000000000000000000000000000 DUP3 PUSH0 DUP2 MLOAD DUP2 LT PUSH2 0x544 JUMPI PUSH2 0x543 PUSH2 0xE79 JUMP JUMPDEST JUMPDEST PUSH1 0x20 ADD ADD SWAP1 PUSH31 0xFFFFFFFFFFFFFFFFFFFFFFFFFFFFFFFFFFFFFFFFFFFFFFFFFFFFFFFFFFFFFF NOT AND SWAP1 DUP2 PUSH0 BYTE SWAP1 MSTORE8 POP JUMPDEST DUP2 SWAP6 POP POP POP POP POP POP JUMPDEST SWAP2 SWAP1 POP JUMP JUMPDEST PUSH0 DUP1 REVERT JUMPDEST PUSH0 DUP2 SWAP1 POP SWAP2 SWAP1 POP JUMP JUMPDEST PUSH2 0x597 DUP2 PUSH2 0x585 JUMP JUMPDEST DUP2 EQ PUSH2 0x5A1 JUMPI PUSH0 DUP1 REVERT JUMPDEST POP JUMP JUMPDEST PUSH0 DUP2 CALLDATALOAD SWAP1 POP PUSH2 0x5B2 DUP2 PUSH2 0x58E JUMP JUMPDEST SWAP3 SWAP2 POP POP JUMP JUMPDEST PUSH0 PUSH1 0x20 DUP3 DUP5 SUB SLT ISZERO PUSH2 0x5CD JUMPI PUSH2 0x5CC PUSH2 0x581 JUMP JUMPDEST JUMPDEST PUSH0 PUSH2 0x5DA DUP5 DUP3 DUP6 ADD PUSH2 0x5A4 JUMP JUMPDEST SWAP2 POP POP SWAP3 SWAP2 POP POP JUMP JUMPDEST PUSH2 0x5EC DUP2 PUSH2 0x585 JUMP JUMPDEST DUP3 MSTORE POP POP JUMP JUMPDEST PUSH0 PUSH1 0x20 DUP3 ADD SWAP1 POP PUSH2 0x605 PUSH0 DUP4 ADD DUP5 PUSH2 0x5E3 JUMP JUMPDEST SWAP3 SWAP2 POP POP JUMP JUMPDEST PUSH0 DUP2 SWAP1 POP SWAP2 SWAP1 POP JUMP JUMPDEST PUSH2 0x61D DUP2 PUSH2 0x60B JUMP JUMPDEST DUP2 EQ PUSH2 0x627 JUMPI PUSH0 DUP1 REVERT JUMPDEST POP JUMP JUMPDEST PUSH0 DUP2 CALLDATALOAD SWAP1 POP PUSH2 0x638 DUP2 PUSH2 0x614 JUMP JUMPDEST SWAP3 SWAP2 POP POP JUMP JUMPDEST PUSH0 DUP1 PUSH0 PUSH1 0x60 DUP5 DUP7 SUB SLT ISZERO PUSH2 0x655 JUMPI PUSH2 0x654 PUSH2 0x581 JUMP JUMPDEST JUMPDEST PUSH0 PUSH2 0x662 DUP7 DUP3 DUP8 ADD PUSH2 0x62A JUMP JUMPDEST SWAP4 POP POP PUSH1 0x20 PUSH2 0x673 DUP7 DUP3 DUP8 ADD PUSH2 0x62A JUMP JUMPDEST SWAP3 POP POP PUSH1 0x40 PUSH2 0x684 DUP7 DUP3 DUP8 ADD PUSH2 0x62A JUMP JUMPDEST SWAP2 POP POP SWAP3 POP SWAP3 POP SWAP3 JUMP JUMPDEST PUSH0 DUP2 MLOAD SWAP1 POP SWAP2 SWAP1 POP JUMP JUMPDEST PUSH0 DUP3 DUP3 MSTORE PUSH1 0x20 DUP3 ADD SWAP1 POP SWAP3 SWAP2 POP POP JUMP JUMPDEST DUP3 DUP2 DUP4 MCOPY PUSH0 DUP4 DUP4 ADD MSTORE POP POP POP JUMP JUMPDEST PUSH0 PUSH1 0x1F NOT PUSH1 0x1F DUP4 ADD AND SWAP1 POP SWAP2 SWAP1 POP JUMP JUMPDEST PUSH0 PUSH2 0x6D0 DUP3 PUSH2 0x68E JUMP JUMPDEST PUSH2 0x6DA DUP2 DUP6 PUSH2 0x698 JUMP JUMPDEST SWAP4 POP PUSH2 0x6EA DUP2 DUP6 PUSH1 0x20 DUP7 ADD PUSH2 0x6A8 JUMP JUMPDEST PUSH2 0x6F3 DUP2 PUSH2 0x6B6 JUMP JUMPDEST DUP5 ADD SWAP2 POP POP SWAP3 SWAP2 POP POP JUMP JUMPDEST PUSH0 PUSH1 0x40 DUP3 ADD SWAP1 POP DUP2 DUP2 SUB PUSH0 DUP4 ADD MSTORE PUSH2 0x716 DUP2 DUP6 PUSH2 0x6C6 JUMP JUMPDEST SWAP1 POP DUP2 DUP2 SUB PUSH1 0x20 DUP4 ADD MSTORE PUSH2 0x72A DUP2 DUP5 PUSH2 0x6C6 JUMP JUMPDEST SWAP1 POP SWAP4 SWAP3 POP POP POP JUMP JUMPDEST PUSH32 0x4E487B7100000000000000000000000000000000000000000000000000000000 PUSH0 MSTORE PUSH1 0x12 PUSH1 0x4 MSTORE PUSH1 0x24 PUSH0 REVERT JUMPDEST PUSH32 0x4E487B7100000000000000000000000000000000000000000000000000000000 PUSH0 MSTORE PUSH1 0x11 PUSH1 0x4 MSTORE PUSH1 0x24 PUSH0 REVERT JUMPDEST PUSH0 PUSH2 0x797 DUP3 PUSH2 0x585 JUMP JUMPDEST SWAP2 POP PUSH2 0x7A2 DUP4 PUSH2 0x585 JUMP JUMPDEST SWAP3 POP DUP3 PUSH2 0x7B2 JUMPI PUSH2 0x7B1 PUSH2 0x733 JUMP JUMPDEST JUMPDEST DUP3 DUP3 DIV SWAP1 POP SWAP3 SWAP2 POP POP JUMP JUMPDEST PUSH0 PUSH2 0x7C7 DUP3 PUSH2 0x585 JUMP JUMPDEST SWAP2 POP PUSH2 0x7D2 DUP4 PUSH2 0x585 JUMP JUMPDEST SWAP3 POP DUP3 DUP3 ADD SWAP1 POP DUP1 DUP3 GT ISZERO PUSH2 0x7EA JUMPI PUSH2 0x7E9 PUSH2 0x760 JUMP JUMPDEST JUMPDEST SWAP3 SWAP2 POP POP JUMP JUMPDEST PUSH32 0x612063616E6E6F74206265207A65726F20666F72206120717561647261746963 PUSH0 DUP3 ADD MSTORE PUSH32 0x206571756174696F6E2E00000000000000000000000000000000000000000000 PUSH1 0x20 DUP3 ADD MSTORE POP JUMP JUMPDEST PUSH0 PUSH2 0x84A PUSH1 0x2A DUP4 PUSH2 0x698 JUMP JUMPDEST SWAP2 POP PUSH2 0x855 DUP3 PUSH2 0x7F0 JUMP JUMPDEST PUSH1 0x40 DUP3 ADD SWAP1 POP SWAP2 SWAP1 POP JUMP JUMPDEST PUSH0 PUSH1 0x20 DUP3 ADD SWAP1 POP DUP2 DUP2 SUB PUSH0 DUP4 ADD MSTORE PUSH2 0x877 DUP2 PUSH2 0x83E JUMP JUMPDEST SWAP1 POP SWAP2 SWAP1 POP JUMP JUMPDEST PUSH0 PUSH2 0x888 DUP3 PUSH2 0x60B JUMP JUMPDEST SWAP2 POP PUSH2 0x893 DUP4 PUSH2 0x60B JUMP JUMPDEST SWAP3 POP DUP3 DUP3 MUL PUSH2 0x8A1 DUP2 PUSH2 0x60B JUMP JUMPDEST SWAP2 POP PUSH32 0x8000000000000000000000000000000000000000000000000000000000000000 DUP5 EQ PUSH0 DUP5 SLT AND ISZERO PUSH2 0x8D8 JUMPI PUSH2 0x8D7 PUSH2 0x760 JUMP JUMPDEST JUMPDEST DUP3 DUP3 SDIV DUP5 EQ DUP4 ISZERO OR PUSH2 0x8ED JUMPI PUSH2 0x8EC PUSH2 0x760 JUMP JUMPDEST JUMPDEST POP SWAP3 SWAP2 POP POP JUMP JUMPDEST PUSH0 PUSH2 0x8FE DUP3 PUSH2 0x60B JUMP JUMPDEST SWAP2 POP PUSH2 0x909 DUP4 PUSH2 0x60B JUMP JUMPDEST SWAP3 POP DUP3 DUP3 SUB SWAP1 POP DUP2 DUP2 SLT PUSH0 DUP5 SLT AND DUP3 DUP3 SGT PUSH0 DUP6 SLT ISZERO AND OR ISZERO PUSH2 0x92E JUMPI PUSH2 0x92D PUSH2 0x760 JUMP JUMPDEST JUMPDEST SWAP3 SWAP2 POP POP JUMP JUMPDEST PUSH0 PUSH2 0x93E DUP3 PUSH2 0x60B JUMP JUMPDEST SWAP2 POP PUSH32 0x8000000000000000000000000000000000000000000000000000000000000000 DUP3 SUB PUSH2 0x970 JUMPI PUSH2 0x96F PUSH2 0x760 JUMP JUMPDEST JUMPDEST DUP2 PUSH0 SUB SWAP1 POP SWAP2 SWAP1 POP JUMP JUMPDEST PUSH0 PUSH2 0x984 DUP3 PUSH2 0x60B JUMP JUMPDEST SWAP2 POP PUSH2 0x98F DUP4 PUSH2 0x60B JUMP JUMPDEST SWAP3 POP DUP3 DUP3 ADD SWAP1 POP DUP3 DUP2 SLT ISZERO PUSH0 DUP4 SLT AND DUP4 DUP3 SLT PUSH0 DUP5 SLT ISZERO AND OR ISZERO PUSH2 0x9B5 JUMPI PUSH2 0x9B4 PUSH2 0x760 JUMP JUMPDEST JUMPDEST SWAP3 SWAP2 POP POP JUMP JUMPDEST PUSH0 PUSH2 0x9C5 DUP3 PUSH2 0x60B JUMP JUMPDEST SWAP2 POP PUSH2 0x9D0 DUP4 PUSH2 0x60B JUMP JUMPDEST SWAP3 POP DUP3 PUSH2 0x9E0 JUMPI PUSH2 0x9DF PUSH2 0x733 JUMP JUMPDEST JUMPDEST PUSH1 0x1 PUSH0 SUB DUP4 EQ PUSH32 0x8000000000000000000000000000000000000000000000000000000000000000 DUP4 EQ AND ISZERO PUSH2 0xA18 JUMPI PUSH2 0xA17 PUSH2 0x760 JUMP JUMPDEST JUMPDEST DUP3 DUP3 SDIV SWAP1 POP SWAP3 SWAP2 POP POP JUMP JUMPDEST PUSH0 DUP2 SWAP1 POP SWAP3 SWAP2 POP POP JUMP JUMPDEST PUSH32 0x5265616C20616E642064697374696E637420726F6F74733A2000000000000000 PUSH0 DUP3 ADD MSTORE POP JUMP JUMPDEST PUSH0 PUSH2 0xA61 PUSH1 0x19 DUP4 PUSH2 0xA23 JUMP JUMPDEST SWAP2 POP PUSH2 0xA6C DUP3 PUSH2 0xA2D JUMP JUMPDEST PUSH1 0x19 DUP3 ADD SWAP1 POP SWAP2 SWAP1 POP JUMP JUMPDEST PUSH0 PUSH2 0xA81 DUP3 PUSH2 0x68E JUMP JUMPDEST PUSH2 0xA8B DUP2 DUP6 PUSH2 0xA23 JUMP JUMPDEST SWAP4 POP PUSH2 0xA9B DUP2 DUP6 PUSH1 0x20 DUP7 ADD PUSH2 0x6A8 JUMP JUMPDEST DUP1 DUP5 ADD SWAP2 POP POP SWAP3 SWAP2 POP POP JUMP JUMPDEST PUSH32 0x20616E6420000000000000000000000000000000000000000000000000000000 PUSH0 DUP3 ADD MSTORE POP JUMP JUMPDEST PUSH0 PUSH2 0xADB PUSH1 0x5 DUP4 PUSH2 0xA23 JUMP JUMPDEST SWAP2 POP PUSH2 0xAE6 DUP3 PUSH2 0xAA7 JUMP JUMPDEST PUSH1 0x5 DUP3 ADD SWAP1 POP SWAP2 SWAP1 POP JUMP JUMPDEST PUSH0 PUSH2 0xAFB DUP3 PUSH2 0xA55 JUMP JUMPDEST SWAP2 POP PUSH2 0xB07 DUP3 DUP6 PUSH2 0xA77 JUMP JUMPDEST SWAP2 POP PUSH2 0xB12 DUP3 PUSH2 0xACF JUMP JUMPDEST SWAP2 POP PUSH2 0xB1E DUP3 DUP5 PUSH2 0xA77 JUMP JUMPDEST SWAP2 POP DUP2 SWAP1 POP SWAP4 SWAP3 POP POP POP JUMP JUMPDEST PUSH32 0x4F6E65207265616C20726F6F743A200000000000000000000000000000000000 PUSH0 DUP3 ADD MSTORE POP JUMP JUMPDEST PUSH0 PUSH2 0xB5E PUSH1 0xF DUP4 PUSH2 0xA23 JUMP JUMPDEST SWAP2 POP PUSH2 0xB69 DUP3 PUSH2 0xB2A JUMP JUMPDEST PUSH1 0xF DUP3 ADD SWAP1 POP SWAP2 SWAP1 POP JUMP JUMPDEST PUSH0 PUSH2 0xB7E DUP3 PUSH2 0xB52 JUMP JUMPDEST SWAP2 POP PUSH2 0xB8A DUP3 DUP5 PUSH2 0xA77 JUMP JUMPDEST SWAP2 POP DUP2 SWAP1 POP SWAP3 SWAP2 POP POP JUMP JUMPDEST PUSH32 0x436F6D706C657820726F6F74733A200000000000000000000000000000000000 PUSH0 DUP3 ADD MSTORE POP JUMP JUMPDEST PUSH0 PUSH2 0xBC9 PUSH1 0xF DUP4 PUSH2 0xA23 JUMP JUMPDEST SWAP2 POP PUSH2 0xBD4 DUP3 PUSH2 0xB95 JUMP JUMPDEST PUSH1 0xF DUP3 ADD SWAP1 POP SWAP2 SWAP1 POP JUMP JUMPDEST PUSH32 0x202B200000000000000000000000000000000000000000000000000000000000 PUSH0 DUP3 ADD MSTORE POP JUMP JUMPDEST PUSH0 PUSH2 0xC13 PUSH1 0x3 DUP4 PUSH2 0xA23 JUMP JUMPDEST SWAP2 POP PUSH2 0xC1E DUP3 PUSH2 0xBDF JUMP JUMPDEST PUSH1 0x3 DUP3 ADD SWAP1 POP SWAP2 SWAP1 POP JUMP JUMPDEST PUSH32 0x6920616E64200000000000000000000000000000000000000000000000000000 PUSH0 DUP3 ADD MSTORE POP JUMP JUMPDEST PUSH0 PUSH2 0xC5D PUSH1 0x6 DUP4 PUSH2 0xA23 JUMP JUMPDEST SWAP2 POP PUSH2 0xC68 DUP3 PUSH2 0xC29 JUMP JUMPDEST PUSH1 0x6 DUP3 ADD SWAP1 POP SWAP2 SWAP1 POP JUMP JUMPDEST PUSH32 0x202D200000000000000000000000000000000000000000000000000000000000 PUSH0 DUP3 ADD MSTORE POP JUMP JUMPDEST PUSH0 PUSH2 0xCA7 PUSH1 0x3 DUP4 PUSH2 0xA23 JUMP JUMPDEST SWAP2 POP PUSH2 0xCB2 DUP3 PUSH2 0xC73 JUMP JUMPDEST PUSH1 0x3 DUP3 ADD SWAP1 POP SWAP2 SWAP1 POP JUMP JUMPDEST PUSH32 0x6900000000000000000000000000000000000000000000000000000000000000 PUSH0 DUP3 ADD MSTORE POP JUMP JUMPDEST PUSH0 PUSH2 0xCF1 PUSH1 0x1 DUP4 PUSH2 0xA23 JUMP JUMPDEST SWAP2 POP PUSH2 0xCFC DUP3 PUSH2 0xCBD JUMP JUMPDEST PUSH1 0x1 DUP3 ADD SWAP1 POP SWAP2 SWAP1 POP JUMP JUMPDEST PUSH0 PUSH2 0xD11 DUP3 PUSH2 0xBBD JUMP JUMPDEST SWAP2 POP PUSH2 0xD1D DUP3 DUP8 PUSH2 0xA77 JUMP JUMPDEST SWAP2 POP PUSH2 0xD28 DUP3 PUSH2 0xC07 JUMP JUMPDEST SWAP2 POP PUSH2 0xD34 DUP3 DUP7 PUSH2 0xA77 JUMP JUMPDEST SWAP2 POP PUSH2 0xD3F DUP3 PUSH2 0xC51 JUMP JUMPDEST SWAP2 POP PUSH2 0xD4B DUP3 DUP6 PUSH2 0xA77 JUMP JUMPDEST SWAP2 POP PUSH2 0xD56 DUP3 PUSH2 0xC9B JUMP JUMPDEST SWAP2 POP PUSH2 0xD62 DUP3 DUP5 PUSH2 0xA77 JUMP JUMPDEST SWAP2 POP PUSH2 0xD6D DUP3 PUSH2 0xCE5 JUMP JUMPDEST SWAP2 POP DUP2 SWAP1 POP SWAP6 SWAP5 POP POP POP POP POP JUMP JUMPDEST PUSH0 PUSH2 0xD85 DUP3 PUSH2 0x585 JUMP JUMPDEST SWAP2 POP PUSH32 0xFFFFFFFFFFFFFFFFFFFFFFFFFFFFFFFFFFFFFFFFFFFFFFFFFFFFFFFFFFFFFFFF DUP3 SUB PUSH2 0xDB7 JUMPI PUSH2 0xDB6 PUSH2 0x760 JUMP JUMPDEST JUMPDEST PUSH1 0x1 DUP3 ADD SWAP1 POP SWAP2 SWAP1 POP JUMP JUMPDEST PUSH32 0x4E487B7100000000000000000000000000000000000000000000000000000000 PUSH0 MSTORE PUSH1 0x41 PUSH1 0x4 MSTORE PUSH1 0x24 PUSH0 REVERT JUMPDEST PUSH0 PUSH2 0xDF9 DUP3 PUSH2 0x585 JUMP JUMPDEST SWAP2 POP PUSH2 0xE04 DUP4 PUSH2 0x585 JUMP JUMPDEST SWAP3 POP DUP3 DUP3 SUB SWAP1 POP DUP2 DUP2 GT ISZERO PUSH2 0xE1C JUMPI PUSH2 0xE1B PUSH2 0x760 JUMP JUMPDEST JUMPDEST SWAP3 SWAP2 POP POP JUMP JUMPDEST PUSH0 PUSH2 0xE2C DUP3 PUSH2 0x585 JUMP JUMPDEST SWAP2 POP PUSH2 0xE37 DUP4 PUSH2 0x585 JUMP JUMPDEST SWAP3 POP DUP3 PUSH2 0xE47 JUMPI PUSH2 0xE46 PUSH2 0x733 JUMP JUMPDEST JUMPDEST DUP3 DUP3 MOD SWAP1 POP SWAP3 SWAP2 POP POP JUMP JUMPDEST PUSH0 PUSH2 0xE5C DUP3 PUSH2 0x585 JUMP JUMPDEST SWAP2 POP PUSH0 DUP3 SUB PUSH2 0xE6E JUMPI PUSH2 0xE6D PUSH2 0x760 JUMP JUMPDEST JUMPDEST PUSH1 0x1 DUP3 SUB SWAP1 POP SWAP2 SWAP1 POP JUMP JUMPDEST PUSH32 0x4E487B7100000000000000000000000000000000000000000000000000000000 PUSH0 MSTORE PUSH1 0x32 PUSH1 0x4 MSTORE PUSH1 0x24 PUSH0 REVERT INVALID LOG2 PUSH5 0x6970667358 0x22 SLT KECCAK256 EXTCODECOPY PUSH31 0xD52695757CBB462275880C914A20A868E4F2CA035F6C9027F2205066DFB864 PUSH20 0x6F6C634300081A00330000000000000000000000 "
		},
		"gasEstimates": {
			"creation": {
				"codeDepositCost": "760800",
				"executionCost": "790",
				"totalCost": "761590"
			},
			"external": {
				"findRoots(int256,int256,int256)": "infinite",
				"sqrt(uint256)": "infinite"
			},
			"internal": {
				"intToString(int256)": "infinite"
			}
		},
		"methodIdentifiers": {
			"findRoots(int256,int256,int256)": "7f7e6932",
			"sqrt(uint256)": "677342ce"
		}
	},
	"abi": [
		{
			"inputs": [
				{
					"internalType": "int256",
					"name": "a",
					"type": "int256"
				},
				{
					"internalType": "int256",
					"name": "b",
					"type": "int256"
				},
				{
					"internalType": "int256",
					"name": "c",
					"type": "int256"
				}
			],
			"name": "findRoots",
			"outputs": [
				{
					"internalType": "string",
					"name": "",
					"type": "string"
				},
				{
					"internalType": "string",
					"name": "",
					"type": "string"
				}
			],
			"stateMutability": "pure",
			"type": "function"
		},
		{
			"inputs": [
				{
					"internalType": "uint256",
					"name": "y",
					"type": "uint256"
				}
			],
			"name": "sqrt",
			"outputs": [
				{
					"internalType": "uint256",
					"name": "z",
					"type": "uint256"
				}
			],
			"stateMutability": "pure",
			"type": "function"
		}
	]
}