{
	"data": {
		"bytecode": {
			"linkReferences": {},
			"object": "6080604052348015600e575f80fd5b506108af8061001c5f395ff3fe608060405234801561000f575f80fd5b5060043610610055575f3560e01c80633c4308a8146100595780638e1d58a314610089578063a5f3c23b146100b9578063b93ea812146100e9578063f598423614610119575b5f80fd5b610073600480360381019061006e91906103d2565b610149565b604051610080919061041f565b60405180910390f35b6100a3600480360381019061009e9190610574565b61015e565b6040516100b0919061041f565b60405180910390f35b6100d360048036038101906100ce91906103d2565b61030d565b6040516100e0919061041f565b60405180910390f35b61010360048036038101906100fe91906103d2565b610322565b604051610110919061041f565b60405180910390f35b610133600480360381019061012e91906103d2565b610337565b604051610140919061041f565b60405180910390f35b5f8183610156919061060d565b905092915050565b5f6040518060400160405280600181526020017f2b00000000000000000000000000000000000000000000000000000000000000815250805190602001208280519060200120036101ba576101b3848461030d565b9050610306565b6040518060400160405280600181526020017f2d00000000000000000000000000000000000000000000000000000000000000815250805190602001208280519060200120036102155761020e8484610322565b9050610306565b6040518060400160405280600181526020017f2a0000000000000000000000000000000000000000000000000000000000000081525080519060200120828051906020012003610270576102698484610149565b9050610306565b6040518060400160405280600181526020017f2f00000000000000000000000000000000000000000000000000000000000000815250805190602001208280519060200120036102cb576102c48484610337565b9050610306565b6040517f08c379a00000000000000000000000000000000000000000000000000000000081526004016102fd906106dd565b60405180910390fd5b9392505050565b5f818361031a91906106fb565b905092915050565b5f818361032f919061073c565b905092915050565b5f80820361037a576040517f08c379a0000000000000000000000000000000000000000000000000000000008152600401610371906107c6565b60405180910390fd5b81836103869190610811565b905092915050565b5f604051905090565b5f80fd5b5f80fd5b5f819050919050565b6103b18161039f565b81146103bb575f80fd5b50565b5f813590506103cc816103a8565b92915050565b5f80604083850312156103e8576103e7610397565b5b5f6103f5858286016103be565b9250506020610406858286016103be565b9150509250929050565b6104198161039f565b82525050565b5f6020820190506104325f830184610410565b92915050565b5f80fd5b5f80fd5b5f601f19601f8301169050919050565b7f4e487b71000000000000000000000000000000000000000000000000000000005f52604160045260245ffd5b61048682610440565b810181811067ffffffffffffffff821117156104a5576104a4610450565b5b80604052505050565b5f6104b761038e565b90506104c3828261047d565b919050565b5f67ffffffffffffffff8211156104e2576104e1610450565b5b6104eb82610440565b9050602081019050919050565b828183375f83830152505050565b5f610518610513846104c8565b6104ae565b9050828152602081018484840111156105345761053361043c565b5b61053f8482856104f8565b509392505050565b5f82601f83011261055b5761055a610438565b5b813561056b848260208601610506565b91505092915050565b5f805f6060848603121561058b5761058a610397565b5b5f610598868287016103be565b93505060206105a9868287016103be565b925050604084013567ffffffffffffffff8111156105ca576105c961039b565b5b6105d686828701610547565b9150509250925092565b7f4e487b71000000000000000000000000000000000000000000000000000000005f52601160045260245ffd5b5f6106178261039f565b91506106228361039f565b92508282026106308161039f565b91507f800000000000000000000000000000000000000000000000000000000000000084145f84121615610667576106666105e0565b5b828205841483151761067c5761067b6105e0565b5b5092915050565b5f82825260208201905092915050565b7f496e76616c6964206f70657261746f72000000000000000000000000000000005f82015250565b5f6106c7601083610683565b91506106d282610693565b602082019050919050565b5f6020820190508181035f8301526106f4816106bb565b9050919050565b5f6107058261039f565b91506107108361039f565b92508282019050828112155f8312168382125f841215161715610736576107356105e0565b5b92915050565b5f6107468261039f565b91506107518361039f565b925082820390508181125f8412168282135f851215161715610776576107756105e0565b5b92915050565b7f43616e6e6f7420646976696465206279207a65726f00000000000000000000005f82015250565b5f6107b0601583610683565b91506107bb8261077c565b602082019050919050565b5f6020820190508181035f8301526107dd816107a4565b9050919050565b7f4e487b71000000000000000000000000000000000000000000000000000000005f52601260045260245ffd5b5f61081b8261039f565b91506108268361039f565b925082610836576108356107e4565b5b60015f0383147f80000000000000000000000000000000000000000000000000000000000000008314161561086e5761086d6105e0565b5b82820590509291505056fea264697066735822122047fa9738d03d6fa98469f76ba6203ee26e9c29c4e9e842e39fcea546a2dcb17564736f6c634300081a0033",
			"opcodes": "PUSH1 0x80 PUSH1 0x40 MSTORE CALLVALUE DUP1 ISZERO PUSH1 0xE JUMPI PUSH0 DUP1 REVERT JUMPDEST POP PUSH2 0x8AF DUP1 PUSH2 0x1C PUSH0 CODECOPY PUSH0 RETURN INVALID PUSH1 0x80 PUSH1 0x40 MSTORE CALLVALUE DUP1 ISZERO PUSH2 0xF JUMPI PUSH0 DUP1 REVERT JUMPDEST POP PUSH1 0x4 CALLDATASIZE LT PUSH2 0x55 JUMPI PUSH0 CALLDATALOAD PUSH1 0xE0 SHR DUP1 PUSH4 0x3C4308A8 EQ PUSH2 0x59 JUMPI DUP1 PUSH4 0x8E1D58A3 EQ PUSH2 0x89 JUMPI DUP1 PUSH4 0xA5F3C23B EQ PUSH2 0xB9 JUMPI DUP1 PUSH4 0xB93EA812 EQ PUSH2 0xE9 JUMPI DUP1 PUSH4 0xF5984236 EQ PUSH2 0x119 JUMPI JUMPDEST PUSH0 DUP1 REVERT JUMPDEST PUSH2 0x73 PUSH1 0x4 DUP1 CALLDATASIZE SUB DUP2 ADD SWAP1 PUSH2 0x6E SWAP2 SWAP1 PUSH2 0x3D2 JUMP JUMPDEST PUSH2 0x149 JUMP JUMPDEST PUSH1 0x40 MLOAD PUSH2 0x80 SWAP2 SWAP1 PUSH2 0x41F JUMP JUMPDEST PUSH1 0x40 MLOAD DUP1 SWAP2 SUB SWAP1 RETURN JUMPDEST PUSH2 0xA3 PUSH1 0x4 DUP1 CALLDATASIZE SUB DUP2 ADD SWAP1 PUSH2 0x9E SWAP2 SWAP1 PUSH2 0x574 JUMP JUMPDEST PUSH2 0x15E JUMP JUMPDEST PUSH1 0x40 MLOAD PUSH2 0xB0 SWAP2 SWAP1 PUSH2 0x41F JUMP JUMPDEST PUSH1 0x40 MLOAD DUP1 SWAP2 SUB SWAP1 RETURN JUMPDEST PUSH2 0xD3 PUSH1 0x4 DUP1 CALLDATASIZE SUB DUP2 ADD SWAP1 PUSH2 0xCE SWAP2 SWAP1 PUSH2 0x3D2 JUMP JUMPDEST PUSH2 0x30D JUMP JUMPDEST PUSH1 0x40 MLOAD PUSH2 0xE0 SWAP2 SWAP1 PUSH2 0x41F JUMP JUMPDEST PUSH1 0x40 MLOAD DUP1 SWAP2 SUB SWAP1 RETURN JUMPDEST PUSH2 0x103 PUSH1 0x4 DUP1 CALLDATASIZE SUB DUP2 ADD SWAP1 PUSH2 0xFE SWAP2 SWAP1 PUSH2 0x3D2 JUMP JUMPDEST PUSH2 0x322 JUMP JUMPDEST PUSH1 0x40 MLOAD PUSH2 0x110 SWAP2 SWAP1 PUSH2 0x41F JUMP JUMPDEST PUSH1 0x40 MLOAD DUP1 SWAP2 SUB SWAP1 RETURN JUMPDEST PUSH2 0x133 PUSH1 0x4 DUP1 CALLDATASIZE SUB DUP2 ADD SWAP1 PUSH2 0x12E SWAP2 SWAP1 PUSH2 0x3D2 JUMP JUMPDEST PUSH2 0x337 JUMP JUMPDEST PUSH1 0x40 MLOAD PUSH2 0x140 SWAP2 SWAP1 PUSH2 0x41F JUMP JUMPDEST PUSH1 0x40 MLOAD DUP1 SWAP2 SUB SWAP1 RETURN JUMPDEST PUSH0 DUP2 DUP4 PUSH2 0x156 SWAP2 SWAP1 PUSH2 0x60D JUMP JUMPDEST SWAP1 POP SWAP3 SWAP2 POP POP JUMP JUMPDEST PUSH0 PUSH1 0x40 MLOAD DUP1 PUSH1 0x40 ADD PUSH1 0x40 MSTORE DUP1 PUSH1 0x1 DUP2 MSTORE PUSH1 0x20 ADD PUSH32 0x2B00000000000000000000000000000000000000000000000000000000000000 DUP2 MSTORE POP DUP1 MLOAD SWAP1 PUSH1 0x20 ADD KECCAK256 DUP3 DUP1 MLOAD SWAP1 PUSH1 0x20 ADD KECCAK256 SUB PUSH2 0x1BA JUMPI PUSH2 0x1B3 DUP5 DUP5 PUSH2 0x30D JUMP JUMPDEST SWAP1 POP PUSH2 0x306 JUMP JUMPDEST PUSH1 0x40 MLOAD DUP1 PUSH1 0x40 ADD PUSH1 0x40 MSTORE DUP1 PUSH1 0x1 DUP2 MSTORE PUSH1 0x20 ADD PUSH32 0x2D00000000000000000000000000000000000000000000000000000000000000 DUP2 MSTORE POP DUP1 MLOAD SWAP1 PUSH1 0x20 ADD KECCAK256 DUP3 DUP1 MLOAD SWAP1 PUSH1 0x20 ADD KECCAK256 SUB PUSH2 0x215 JUMPI PUSH2 0x20E DUP5 DUP5 PUSH2 0x322 JUMP JUMPDEST SWAP1 POP PUSH2 0x306 JUMP JUMPDEST PUSH1 0x40 MLOAD DUP1 PUSH1 0x40 ADD PUSH1 0x40 MSTORE DUP1 PUSH1 0x1 DUP2 MSTORE PUSH1 0x20 ADD PUSH32 0x2A00000000000000000000000000000000000000000000000000000000000000 DUP2 MSTORE POP DUP1 MLOAD SWAP1 PUSH1 0x20 ADD KECCAK256 DUP3 DUP1 MLOAD SWAP1 PUSH1 0x20 ADD KECCAK256 SUB PUSH2 0x270 JUMPI PUSH2 0x269 DUP5 DUP5 PUSH2 0x149 JUMP JUMPDEST SWAP1 POP PUSH2 0x306 JUMP JUMPDEST PUSH1 0x40 MLOAD DUP1 PUSH1 0x40 ADD PUSH1 0x40 MSTORE DUP1 PUSH1 0x1 DUP2 MSTORE PUSH1 0x20 ADD PUSH32 0x2F00000000000000000000000000000000000000000000000000000000000000 DUP2 MSTORE POP DUP1 MLOAD SWAP1 PUSH1 0x20 ADD KECCAK256 DUP3 DUP1 MLOAD SWAP1 PUSH1 0x20 ADD KECCAK256 SUB PUSH2 0x2CB JUMPI PUSH2 0x2C4 DUP5 DUP5 PUSH2 0x337 JUMP JUMPDEST SWAP1 POP PUSH2 0x306 JUMP JUMPDEST PUSH1 0x40 MLOAD PUSH32 0x8C379A000000000000000000000000000000000000000000000000000000000 DUP2 MSTORE PUSH1 0x4 ADD PUSH2 0x2FD SWAP1 PUSH2 0x6DD JUMP JUMPDEST PUSH1 0x40 MLOAD DUP1 SWAP2 SUB SWAP1 REVERT JUMPDEST SWAP4 SWAP3 POP POP POP JUMP JUMPDEST PUSH0 DUP2 DUP4 PUSH2 0x31A SWAP2 SWAP1 PUSH2 0x6FB JUMP JUMPDEST SWAP1 POP SWAP3 SWAP2 POP POP JUMP JUMPDEST PUSH0 DUP2 DUP4 PUSH2 0x32F SWAP2 SWAP1 PUSH2 0x73C JUMP JUMPDEST SWAP1 POP SWAP3 SWAP2 POP POP JUMP JUMPDEST PUSH0 DUP1 DUP3 SUB PUSH2 0x37A JUMPI PUSH1 0x40 MLOAD PUSH32 0x8C379A000000000000000000000000000000000000000000000000000000000 DUP2 MSTORE PUSH1 0x4 ADD PUSH2 0x371 SWAP1 PUSH2 0x7C6 JUMP JUMPDEST PUSH1 0x40 MLOAD DUP1 SWAP2 SUB SWAP1 REVERT JUMPDEST DUP2 DUP4 PUSH2 0x386 SWAP2 SWAP1 PUSH2 0x811 JUMP JUMPDEST SWAP1 POP SWAP3 SWAP2 POP POP JUMP JUMPDEST PUSH0 PUSH1 0x40 MLOAD SWAP1 POP SWAP1 JUMP JUMPDEST PUSH0 DUP1 REVERT JUMPDEST PUSH0 DUP1 REVERT JUMPDEST PUSH0 DUP2 SWAP1 POP SWAP2 SWAP1 POP JUMP JUMPDEST PUSH2 0x3B1 DUP2 PUSH2 0x39F JUMP JUMPDEST DUP2 EQ PUSH2 0x3BB JUMPI PUSH0 DUP1 REVERT JUMPDEST POP JUMP JUMPDEST PUSH0 DUP2 CALLDATALOAD SWAP1 POP PUSH2 0x3CC DUP2 PUSH2 0x3A8 JUMP JUMPDEST SWAP3 SWAP2 POP POP JUMP JUMPDEST PUSH0 DUP1 PUSH1 0x40 DUP4 DUP6 SUB SLT ISZERO PUSH2 0x3E8 JUMPI PUSH2 0x3E7 PUSH2 0x397 JUMP JUMPDEST JUMPDEST PUSH0 PUSH2 0x3F5 DUP6 DUP3 DUP7 ADD PUSH2 0x3BE JUMP JUMPDEST SWAP3 POP POP PUSH1 0x20 PUSH2 0x406 DUP6 DUP3 DUP7 ADD PUSH2 0x3BE JUMP JUMPDEST SWAP2 POP POP SWAP3 POP SWAP3 SWAP1 POP JUMP JUMPDEST PUSH2 0x419 DUP2 PUSH2 0x39F JUMP JUMPDEST DUP3 MSTORE POP POP JUMP JUMPDEST PUSH0 PUSH1 0x20 DUP3 ADD SWAP1 POP PUSH2 0x432 PUSH0 DUP4 ADD DUP5 PUSH2 0x410 JUMP JUMPDEST SWAP3 SWAP2 POP POP JUMP JUMPDEST PUSH0 DUP1 REVERT JUMPDEST PUSH0 DUP1 REVERT JUMPDEST PUSH0 PUSH1 0x1F NOT PUSH1 0x1F DUP4 ADD AND SWAP1 POP SWAP2 SWAP1 POP JUMP JUMPDEST PUSH32 0x4E487B7100000000000000000000000000000000000000000000000000000000 PUSH0 MSTORE PUSH1 0x41 PUSH1 0x4 MSTORE PUSH1 0x24 PUSH0 REVERT JUMPDEST PUSH2 0x486 DUP3 PUSH2 0x440 JUMP JUMPDEST DUP2 ADD DUP2 DUP2 LT PUSH8 0xFFFFFFFFFFFFFFFF DUP3 GT OR ISZERO PUSH2 0x4A5 JUMPI PUSH2 0x4A4 PUSH2 0x450 JUMP JUMPDEST JUMPDEST DUP1 PUSH1 0x40 MSTORE POP POP POP JUMP JUMPDEST PUSH0 PUSH2 0x4B7 PUSH2 0x38E JUMP JUMPDEST SWAP1 POP PUSH2 0x4C3 DUP3 DUP3 PUSH2 0x47D JUMP JUMPDEST SWAP2 SWAP1 POP JUMP JUMPDEST PUSH0 PUSH8 0xFFFFFFFFFFFFFFFF DUP3 GT ISZERO PUSH2 0x4E2 JUMPI PUSH2 0x4E1 PUSH2 0x450 JUMP JUMPDEST JUMPDEST PUSH2 0x4EB DUP3 PUSH2 0x440 JUMP JUMPDEST SWAP1 POP PUSH1 0x20 DUP2 ADD SWAP1 POP SWAP2 SWAP1 POP JUMP JUMPDEST DUP3 DUP2 DUP4 CALLDATACOPY PUSH0 DUP4 DUP4 ADD MSTORE POP POP POP JUMP JUMPDEST PUSH0 PUSH2 0x518 PUSH2 0x513 DUP5 PUSH2 0x4C8 JUMP JUMPDEST PUSH2 0x4AE JUMP JUMPDEST SWAP1 POP DUP3 DUP2 MSTORE PUSH1 0x20 DUP2 ADD DUP5 DUP5 DUP5 ADD GT ISZERO PUSH2 0x534 JUMPI PUSH2 0x533 PUSH2 0x43C JUMP JUMPDEST JUMPDEST PUSH2 0x53F DUP5 DUP3 DUP6 PUSH2 0x4F8 JUMP JUMPDEST POP SWAP4 SWAP3 POP POP POP JUMP JUMPDEST PUSH0 DUP3 PUSH1 0x1F DUP4 ADD SLT PUSH2 0x55B JUMPI PUSH2 0x55A PUSH2 0x438 JUMP JUMPDEST JUMPDEST DUP2 CALLDATALOAD PUSH2 0x56B DUP5 DUP3 PUSH1 0x20 DUP7 ADD PUSH2 0x506 JUMP JUMPDEST SWAP2 POP POP SWAP3 SWAP2 POP POP JUMP JUMPDEST PUSH0 DUP1 PUSH0 PUSH1 0x60 DUP5 DUP7 SUB SLT ISZERO PUSH2 0x58B JUMPI PUSH2 0x58A PUSH2 0x397 JUMP JUMPDEST JUMPDEST PUSH0 PUSH2 0x598 DUP7 DUP3 DUP8 ADD PUSH2 0x3BE JUMP JUMPDEST SWAP4 POP POP PUSH1 0x20 PUSH2 0x5A9 DUP7 DUP3 DUP8 ADD PUSH2 0x3BE JUMP JUMPDEST SWAP3 POP POP PUSH1 0x40 DUP5 ADD CALLDATALOAD PUSH8 0xFFFFFFFFFFFFFFFF DUP2 GT ISZERO PUSH2 0x5CA JUMPI PUSH2 0x5C9 PUSH2 0x39B JUMP JUMPDEST JUMPDEST PUSH2 0x5D6 DUP7 DUP3 DUP8 ADD PUSH2 0x547 JUMP JUMPDEST SWAP2 POP POP SWAP3 POP SWAP3 POP SWAP3 JUMP JUMPDEST PUSH32 0x4E487B7100000000000000000000000000000000000000000000000000000000 PUSH0 MSTORE PUSH1 0x11 PUSH1 0x4 MSTORE PUSH1 0x24 PUSH0 REVERT JUMPDEST PUSH0 PUSH2 0x617 DUP3 PUSH2 0x39F JUMP JUMPDEST SWAP2 POP PUSH2 0x622 DUP4 PUSH2 0x39F JUMP JUMPDEST SWAP3 POP DUP3 DUP3 MUL PUSH2 0x630 DUP2 PUSH2 0x39F JUMP JUMPDEST SWAP2 POP PUSH32 0x8000000000000000000000000000000000000000000000000000000000000000 DUP5 EQ PUSH0 DUP5 SLT AND ISZERO PUSH2 0x667 JUMPI PUSH2 0x666 PUSH2 0x5E0 JUMP JUMPDEST JUMPDEST DUP3 DUP3 SDIV DUP5 EQ DUP4 ISZERO OR PUSH2 0x67C JUMPI PUSH2 0x67B PUSH2 0x5E0 JUMP JUMPDEST JUMPDEST POP SWAP3 SWAP2 POP POP JUMP JUMPDEST PUSH0 DUP3 DUP3 MSTORE PUSH1 0x20 DUP3 ADD SWAP1 POP SWAP3 SWAP2 POP POP JUMP JUMPDEST PUSH32 0x496E76616C6964206F70657261746F7200000000000000000000000000000000 PUSH0 DUP3 ADD MSTORE POP JUMP JUMPDEST PUSH0 PUSH2 0x6C7 PUSH1 0x10 DUP4 PUSH2 0x683 JUMP JUMPDEST SWAP2 POP PUSH2 0x6D2 DUP3 PUSH2 0x693 JUMP JUMPDEST PUSH1 0x20 DUP3 ADD SWAP1 POP SWAP2 SWAP1 POP JUMP JUMPDEST PUSH0 PUSH1 0x20 DUP3 ADD SWAP1 POP DUP2 DUP2 SUB PUSH0 DUP4 ADD MSTORE PUSH2 0x6F4 DUP2 PUSH2 0x6BB JUMP JUMPDEST SWAP1 POP SWAP2 SWAP1 POP JUMP JUMPDEST PUSH0 PUSH2 0x705 DUP3 PUSH2 0x39F JUMP JUMPDEST SWAP2 POP PUSH2 0x710 DUP4 PUSH2 0x39F JUMP JUMPDEST SWAP3 POP DUP3 DUP3 ADD SWAP1 POP DUP3 DUP2 SLT ISZERO PUSH0 DUP4 SLT AND DUP4 DUP3 SLT PUSH0 DUP5 SLT ISZERO AND OR ISZERO PUSH2 0x736 JUMPI PUSH2 0x735 PUSH2 0x5E0 JUMP JUMPDEST JUMPDEST SWAP3 SWAP2 POP POP JUMP JUMPDEST PUSH0 PUSH2 0x746 DUP3 PUSH2 0x39F JUMP JUMPDEST SWAP2 POP PUSH2 0x751 DUP4 PUSH2 0x39F JUMP JUMPDEST SWAP3 POP DUP3 DUP3 SUB SWAP1 POP DUP2 DUP2 SLT PUSH0 DUP5 SLT AND DUP3 DUP3 SGT PUSH0 DUP6 SLT ISZERO AND OR ISZERO PUSH2 0x776 JUMPI PUSH2 0x775 PUSH2 0x5E0 JUMP JUMPDEST JUMPDEST SWAP3 SWAP2 POP POP JUMP JUMPDEST PUSH32 0x43616E6E6F7420646976696465206279207A65726F0000000000000000000000 PUSH0 DUP3 ADD MSTORE POP JUMP JUMPDEST PUSH0 PUSH2 0x7B0 PUSH1 0x15 DUP4 PUSH2 0x683 JUMP JUMPDEST SWAP2 POP PUSH2 0x7BB DUP3 PUSH2 0x77C JUMP JUMPDEST PUSH1 0x20 DUP3 ADD SWAP1 POP SWAP2 SWAP1 POP JUMP JUMPDEST PUSH0 PUSH1 0x20 DUP3 ADD SWAP1 POP DUP2 DUP2 SUB PUSH0 DUP4 ADD MSTORE PUSH2 0x7DD DUP2 PUSH2 0x7A4 JUMP JUMPDEST SWAP1 POP SWAP2 SWAP1 POP JUMP JUMPDEST PUSH32 0x4E487B7100000000000000000000000000000000000000000000000000000000 PUSH0 MSTORE PUSH1 0x12 PUSH1 0x4 MSTORE PUSH1 0x24 PUSH0 REVERT JUMPDEST PUSH0 PUSH2 0x81B DUP3 PUSH2 0x39F JUMP JUMPDEST SWAP2 POP PUSH2 0x826 DUP4 PUSH2 0x39F JUMP JUMPDEST SWAP3 POP DUP3 PUSH2 0x836 JUMPI PUSH2 0x835 PUSH2 0x7E4 JUMP JUMPDEST JUMPDEST PUSH1 0x1 PUSH0 SUB DUP4 EQ PUSH32 0x8000000000000000000000000000000000000000000000000000000000000000 DUP4 EQ AND ISZERO PUSH2 0x86E JUMPI PUSH2 0x86D PUSH2 0x5E0 JUMP JUMPDEST JUMPDEST DUP3 DUP3 SDIV SWAP1 POP SWAP3 SWAP2 POP POP JUMP INVALID LOG2 PUSH5 0x6970667358 0x22 SLT KECCAK256 SELFBALANCE STATICCALL SWAP8 CODESIZE 0xD0 RETURNDATASIZE PUSH16 0xA98469F76BA6203EE26E9C29C4E9E842 0xE3 SWAP16 0xCE 0xA5 CHAINID LOG2 0xDC 0xB1 PUSH22 0x64736F6C634300081A00330000000000000000000000 "
		},
		"gasEstimates": {
			"creation": {
				"codeDepositCost": "444600",
				"executionCost": "478",
				"totalCost": "445078"
			},
			"external": {
				"add(int256,int256)": "infinite",
				"calculate(int256,int256,string)": "infinite",
				"divide(int256,int256)": "infinite",
				"multiply(int256,int256)": "infinite",
				"subtract(int256,int256)": "infinite"
			}
		},
		"methodIdentifiers": {
			"add(int256,int256)": "a5f3c23b",
			"calculate(int256,int256,string)": "8e1d58a3",
			"divide(int256,int256)": "f5984236",
			"multiply(int256,int256)": "3c4308a8",
			"subtract(int256,int256)": "b93ea812"
		}
	},
	"abi": [
		{
			"inputs": [
				{
					"internalType": "int256",
					"name": "a",
					"type": "int256"
				},
				{
					"internalType": "int256",
					"name": "b",
					"type": "int256"
				}
			],
			"name": "add",
			"outputs": [
				{
					"internalType": "int256",
					"name": "",
					"type": "int256"
				}
			],
			"stateMutability": "pure",
			"type": "function"
		},
		{
			"inputs": [
				{
					"internalType": "int256",
					"name": "a",
					"type": "int256"
				},
				{
					"internalType": "int256",
					"name": "b",
					"type": "int256"
				},
				{
					"internalType": "string",
					"name": "operator",
					"type": "string"
				}
			],
			"name": "calculate",
			"outputs": [
				{
					"internalType": "int256",
					"name": "",
					"type": "int256"
				}
			],
			"stateMutability": "pure",
			"type": "function"
		},
		{
			"inputs": [
				{
					"internalType": "int256",
					"name": "a",
					"type": "int256"
				},
				{
					"internalType": "int256",
					"name": "b",
					"type": "int256"
				}
			],
			"name": "divide",
			"outputs": [
				{
					"internalType": "int256",
					"name": "",
					"type": "int256"
				}
			],
			"stateMutability": "pure",
			"type": "function"
		},
		{
			"inputs": [
				{
					"internalType": "int256",
					"name": "a",
					"type": "int256"
				},
				{
					"internalType": "int256",
					"name": "b",
					"type": "int256"
				}
			],
			"name": "multiply",
			"outputs": [
				{
					"internalType": "int256",
					"name": "",
					"type": "int256"
				}
			],
			"stateMutability": "pure",
			"type": "function"
		},
		{
			"inputs": [
				{
					"internalType": "int256",
					"name": "a",
					"type": "int256"
				},
				{
					"internalType": "int256",
					"name": "b",
					"type": "int256"
				}
			],
			"name": "subtract",
			"outputs": [
				{
					"internalType": "int256",
					"name": "",
					"type": "int256"
				}
			],
			"stateMutability": "pure",
			"type": "function"
		}
	]
}