{
	"data": {
		"bytecode": {
			"linkReferences": {},
			"object": "6080604052348015600e575f80fd5b50610e918061001c5f395ff3fe608060405234801561000f575f80fd5b506004361061003f575f3560e01c806321a8f3551461004357806371852ab2146100735780638ea9e16c146100a3575b5f80fd5b61005d600480360381019061005891906109fc565b6100d3565b60405161006a9190610be4565b60405180910390f35b61008d600480360381019061008891906109fc565b61032a565b60405161009a9190610be4565b60405180910390f35b6100bd60048036038101906100b891906109fc565b61055a565b6040516100ca9190610be4565b60405180910390f35b60605f835190505f845f815181106100ee576100ed610c04565b5b60200260200101515190505f845190505f855f8151811061011257610111610c04565b5b602002602001015151905081831461015f576040517f08c379a000000000000000000000000000000000000000000000000000000000815260040161015690610cb1565b60405180910390fd5b5f8467ffffffffffffffff81111561017a576101796107af565b5b6040519080825280602002602001820160405280156101ad57816020015b60608152602001906001900390816101985790505b5090505f5b8581101561031b578267ffffffffffffffff8111156101d4576101d36107af565b5b6040519080825280602002602001820160405280156102025781602001602082028036833780820191505090505b5082828151811061021657610215610c04565b5b60200260200101819052505f5b8381101561030d575f805b878110156102c4578a818151811061024957610248610c04565b5b6020026020010151838151811061026357610262610c04565b5b60200260200101518c858151811061027e5761027d610c04565b5b6020026020010151828151811061029857610297610c04565b5b60200260200101516102aa9190610cfc565b826102b59190610d72565b9150808060010191505061022e565b50808484815181106102d9576102d8610c04565b5b602002602001015183815181106102f3576102f2610c04565b5b602002602001018181525050508080600101915050610223565b5080806001019150506101b2565b50809550505050505092915050565b60605f835190505f845f8151811061034557610344610c04565b5b602002602001015151905083518214801561037a5750835f8151811061036e5761036d610c04565b5b60200260200101515181145b6103b9576040517f08c379a00000000000000000000000000000000000000000000000000000000081526004016103b090610dfd565b60405180910390fd5b5f8267ffffffffffffffff8111156103d4576103d36107af565b5b60405190808252806020026020018201604052801561040757816020015b60608152602001906001900390816103f25790505b5090505f5b8381101561054d578267ffffffffffffffff81111561042e5761042d6107af565b5b60405190808252806020026020018201604052801561045c5781602001602082028036833780820191505090505b508282815181106104705761046f610c04565b5b60200260200101819052505f5b8381101561053f5786828151811061049857610497610c04565b5b602002602001015181815181106104b2576104b1610c04565b5b60200260200101518883815181106104cd576104cc610c04565b5b602002602001015182815181106104e7576104e6610c04565b5b60200260200101516104f99190610e1b565b83838151811061050c5761050b610c04565b5b6020026020010151828151811061052657610525610c04565b5b602002602001018181525050808060010191505061047d565b50808060010191505061040c565b5080935050505092915050565b60605f835190505f845f8151811061057557610574610c04565b5b60200260200101515190508351821480156105aa5750835f8151811061059e5761059d610c04565b5b60200260200101515181145b6105e9576040517f08c379a00000000000000000000000000000000000000000000000000000000081526004016105e090610dfd565b60405180910390fd5b5f8267ffffffffffffffff811115610604576106036107af565b5b60405190808252806020026020018201604052801561063757816020015b60608152602001906001900390816106225790505b5090505f5b8381101561077d578267ffffffffffffffff81111561065e5761065d6107af565b5b60405190808252806020026020018201604052801561068c5781602001602082028036833780820191505090505b508282815181106106a05761069f610c04565b5b60200260200101819052505f5b8381101561076f578682815181106106c8576106c7610c04565b5b602002602001015181815181106106e2576106e1610c04565b5b60200260200101518883815181106106fd576106fc610c04565b5b6020026020010151828151811061071757610716610c04565b5b60200260200101516107299190610d72565b83838151811061073c5761073b610c04565b5b6020026020010151828151811061075657610755610c04565b5b60200260200101818152505080806001019150506106ad565b50808060010191505061063c565b5080935050505092915050565b5f604051905090565b5f80fd5b5f80fd5b5f80fd5b5f601f19601f8301169050919050565b7f4e487b71000000000000000000000000000000000000000000000000000000005f52604160045260245ffd5b6107e58261079f565b810181811067ffffffffffffffff82111715610804576108036107af565b5b80604052505050565b5f61081661078a565b905061082282826107dc565b919050565b5f67ffffffffffffffff821115610841576108406107af565b5b602082029050602081019050919050565b5f80fd5b5f67ffffffffffffffff8211156108705761086f6107af565b5b602082029050602081019050919050565b5f819050919050565b61089381610881565b811461089d575f80fd5b50565b5f813590506108ae8161088a565b92915050565b5f6108c66108c184610856565b61080d565b905080838252602082019050602084028301858111156108e9576108e8610852565b5b835b8181101561091257806108fe88826108a0565b8452602084019350506020810190506108eb565b5050509392505050565b5f82601f8301126109305761092f61079b565b5b81356109408482602086016108b4565b91505092915050565b5f61095b61095684610827565b61080d565b9050808382526020820190506020840283018581111561097e5761097d610852565b5b835b818110156109c557803567ffffffffffffffff8111156109a3576109a261079b565b5b8086016109b0898261091c565b85526020850194505050602081019050610980565b5050509392505050565b5f82601f8301126109e3576109e261079b565b5b81356109f3848260208601610949565b91505092915050565b5f8060408385031215610a1257610a11610793565b5b5f83013567ffffffffffffffff811115610a2f57610a2e610797565b5b610a3b858286016109cf565b925050602083013567ffffffffffffffff811115610a5c57610a5b610797565b5b610a68858286016109cf565b9150509250929050565b5f81519050919050565b5f82825260208201905092915050565b5f819050602082019050919050565b5f81519050919050565b5f82825260208201905092915050565b5f819050602082019050919050565b610acd81610881565b82525050565b5f610ade8383610ac4565b60208301905092915050565b5f602082019050919050565b5f610b0082610a9b565b610b0a8185610aa5565b9350610b1583610ab5565b805f5b83811015610b45578151610b2c8882610ad3565b9750610b3783610aea565b925050600181019050610b18565b5085935050505092915050565b5f610b5d8383610af6565b905092915050565b5f602082019050919050565b5f610b7b82610a72565b610b858185610a7c565b935083602082028501610b9785610a8c565b805f5b85811015610bd25784840389528151610bb38582610b52565b9450610bbe83610b65565b925060208a01995050600181019050610b9a565b50829750879550505050505092915050565b5f6020820190508181035f830152610bfc8184610b71565b905092915050565b7f4e487b71000000000000000000000000000000000000000000000000000000005f52603260045260245ffd5b5f82825260208201905092915050565b7f496e76616c6964206d61747269782064696d656e73696f6e7320666f72206d755f8201527f6c7469706c69636174696f6e0000000000000000000000000000000000000000602082015250565b5f610c9b602c83610c31565b9150610ca682610c41565b604082019050919050565b5f6020820190508181035f830152610cc881610c8f565b9050919050565b7f4e487b71000000000000000000000000000000000000000000000000000000005f52601160045260245ffd5b5f610d0682610881565b9150610d1183610881565b9250828202610d1f81610881565b91507f800000000000000000000000000000000000000000000000000000000000000084145f84121615610d5657610d55610ccf565b5b8282058414831517610d6b57610d6a610ccf565b5b5092915050565b5f610d7c82610881565b9150610d8783610881565b92508282019050828112155f8312168382125f841215161715610dad57610dac610ccf565b5b92915050565b7f4d61747269782064696d656e73696f6e73206d757374206d61746368000000005f82015250565b5f610de7601c83610c31565b9150610df282610db3565b602082019050919050565b5f6020820190508181035f830152610e1481610ddb565b9050919050565b5f610e2582610881565b9150610e3083610881565b925082820390508181125f8412168282135f851215161715610e5557610e54610ccf565b5b9291505056fea2646970667358221220eb331c415a8fc334fd78a9f7afb647ade6a00b2b9a3ddeaf2de6e91a14b2155764736f6c634300081a0033",
			"opcodes": "PUSH1 0x80 PUSH1 0x40 MSTORE CALLVALUE DUP1 ISZERO PUSH1 0xE JUMPI PUSH0 DUP1 REVERT JUMPDEST POP PUSH2 0xE91 DUP1 PUSH2 0x1C PUSH0 CODECOPY PUSH0 RETURN INVALID PUSH1 0x80 PUSH1 0x40 MSTORE CALLVALUE DUP1 ISZERO PUSH2 0xF JUMPI PUSH0 DUP1 REVERT JUMPDEST POP PUSH1 0x4 CALLDATASIZE LT PUSH2 0x3F JUMPI PUSH0 CALLDATALOAD PUSH1 0xE0 SHR DUP1 PUSH4 0x21A8F355 EQ PUSH2 0x43 JUMPI DUP1 PUSH4 0x71852AB2 EQ PUSH2 0x73 JUMPI DUP1 PUSH4 0x8EA9E16C EQ PUSH2 0xA3 JUMPI JUMPDEST PUSH0 DUP1 REVERT JUMPDEST PUSH2 0x5D PUSH1 0x4 DUP1 CALLDATASIZE SUB DUP2 ADD SWAP1 PUSH2 0x58 SWAP2 SWAP1 PUSH2 0x9FC JUMP JUMPDEST PUSH2 0xD3 JUMP JUMPDEST PUSH1 0x40 MLOAD PUSH2 0x6A SWAP2 SWAP1 PUSH2 0xBE4 JUMP JUMPDEST PUSH1 0x40 MLOAD DUP1 SWAP2 SUB SWAP1 RETURN JUMPDEST PUSH2 0x8D PUSH1 0x4 DUP1 CALLDATASIZE SUB DUP2 ADD SWAP1 PUSH2 0x88 SWAP2 SWAP1 PUSH2 0x9FC JUMP JUMPDEST PUSH2 0x32A JUMP JUMPDEST PUSH1 0x40 MLOAD PUSH2 0x9A SWAP2 SWAP1 PUSH2 0xBE4 JUMP JUMPDEST PUSH1 0x40 MLOAD DUP1 SWAP2 SUB SWAP1 RETURN JUMPDEST PUSH2 0xBD PUSH1 0x4 DUP1 CALLDATASIZE SUB DUP2 ADD SWAP1 PUSH2 0xB8 SWAP2 SWAP1 PUSH2 0x9FC JUMP JUMPDEST PUSH2 0x55A JUMP JUMPDEST PUSH1 0x40 MLOAD PUSH2 0xCA SWAP2 SWAP1 PUSH2 0xBE4 JUMP JUMPDEST PUSH1 0x40 MLOAD DUP1 SWAP2 SUB SWAP1 RETURN JUMPDEST PUSH1 0x60 PUSH0 DUP4 MLOAD SWAP1 POP PUSH0 DUP5 PUSH0 DUP2 MLOAD DUP2 LT PUSH2 0xEE JUMPI PUSH2 0xED PUSH2 0xC04 JUMP JUMPDEST JUMPDEST PUSH1 0x20 MUL PUSH1 0x20 ADD ADD MLOAD MLOAD SWAP1 POP PUSH0 DUP5 MLOAD SWAP1 POP PUSH0 DUP6 PUSH0 DUP2 MLOAD DUP2 LT PUSH2 0x112 JUMPI PUSH2 0x111 PUSH2 0xC04 JUMP JUMPDEST JUMPDEST PUSH1 0x20 MUL PUSH1 0x20 ADD ADD MLOAD MLOAD SWAP1 POP DUP2 DUP4 EQ PUSH2 0x15F JUMPI PUSH1 0x40 MLOAD PUSH32 0x8C379A000000000000000000000000000000000000000000000000000000000 DUP2 MSTORE PUSH1 0x4 ADD PUSH2 0x156 SWAP1 PUSH2 0xCB1 JUMP JUMPDEST PUSH1 0x40 MLOAD DUP1 SWAP2 SUB SWAP1 REVERT JUMPDEST PUSH0 DUP5 PUSH8 0xFFFFFFFFFFFFFFFF DUP2 GT ISZERO PUSH2 0x17A JUMPI PUSH2 0x179 PUSH2 0x7AF JUMP JUMPDEST JUMPDEST PUSH1 0x40 MLOAD SWAP1 DUP1 DUP3 MSTORE DUP1 PUSH1 0x20 MUL PUSH1 0x20 ADD DUP3 ADD PUSH1 0x40 MSTORE DUP1 ISZERO PUSH2 0x1AD JUMPI DUP2 PUSH1 0x20 ADD JUMPDEST PUSH1 0x60 DUP2 MSTORE PUSH1 0x20 ADD SWAP1 PUSH1 0x1 SWAP1 SUB SWAP1 DUP2 PUSH2 0x198 JUMPI SWAP1 POP JUMPDEST POP SWAP1 POP PUSH0 JUMPDEST DUP6 DUP2 LT ISZERO PUSH2 0x31B JUMPI DUP3 PUSH8 0xFFFFFFFFFFFFFFFF DUP2 GT ISZERO PUSH2 0x1D4 JUMPI PUSH2 0x1D3 PUSH2 0x7AF JUMP JUMPDEST JUMPDEST PUSH1 0x40 MLOAD SWAP1 DUP1 DUP3 MSTORE DUP1 PUSH1 0x20 MUL PUSH1 0x20 ADD DUP3 ADD PUSH1 0x40 MSTORE DUP1 ISZERO PUSH2 0x202 JUMPI DUP2 PUSH1 0x20 ADD PUSH1 0x20 DUP3 MUL DUP1 CALLDATASIZE DUP4 CALLDATACOPY DUP1 DUP3 ADD SWAP2 POP POP SWAP1 POP JUMPDEST POP DUP3 DUP3 DUP2 MLOAD DUP2 LT PUSH2 0x216 JUMPI PUSH2 0x215 PUSH2 0xC04 JUMP JUMPDEST JUMPDEST PUSH1 0x20 MUL PUSH1 0x20 ADD ADD DUP2 SWAP1 MSTORE POP PUSH0 JUMPDEST DUP4 DUP2 LT ISZERO PUSH2 0x30D JUMPI PUSH0 DUP1 JUMPDEST DUP8 DUP2 LT ISZERO PUSH2 0x2C4 JUMPI DUP11 DUP2 DUP2 MLOAD DUP2 LT PUSH2 0x249 JUMPI PUSH2 0x248 PUSH2 0xC04 JUMP JUMPDEST JUMPDEST PUSH1 0x20 MUL PUSH1 0x20 ADD ADD MLOAD DUP4 DUP2 MLOAD DUP2 LT PUSH2 0x263 JUMPI PUSH2 0x262 PUSH2 0xC04 JUMP JUMPDEST JUMPDEST PUSH1 0x20 MUL PUSH1 0x20 ADD ADD MLOAD DUP13 DUP6 DUP2 MLOAD DUP2 LT PUSH2 0x27E JUMPI PUSH2 0x27D PUSH2 0xC04 JUMP JUMPDEST JUMPDEST PUSH1 0x20 MUL PUSH1 0x20 ADD ADD MLOAD DUP3 DUP2 MLOAD DUP2 LT PUSH2 0x298 JUMPI PUSH2 0x297 PUSH2 0xC04 JUMP JUMPDEST JUMPDEST PUSH1 0x20 MUL PUSH1 0x20 ADD ADD MLOAD PUSH2 0x2AA SWAP2 SWAP1 PUSH2 0xCFC JUMP JUMPDEST DUP3 PUSH2 0x2B5 SWAP2 SWAP1 PUSH2 0xD72 JUMP JUMPDEST SWAP2 POP DUP1 DUP1 PUSH1 0x1 ADD SWAP2 POP POP PUSH2 0x22E JUMP JUMPDEST POP DUP1 DUP5 DUP5 DUP2 MLOAD DUP2 LT PUSH2 0x2D9 JUMPI PUSH2 0x2D8 PUSH2 0xC04 JUMP JUMPDEST JUMPDEST PUSH1 0x20 MUL PUSH1 0x20 ADD ADD MLOAD DUP4 DUP2 MLOAD DUP2 LT PUSH2 0x2F3 JUMPI PUSH2 0x2F2 PUSH2 0xC04 JUMP JUMPDEST JUMPDEST PUSH1 0x20 MUL PUSH1 0x20 ADD ADD DUP2 DUP2 MSTORE POP POP POP DUP1 DUP1 PUSH1 0x1 ADD SWAP2 POP POP PUSH2 0x223 JUMP JUMPDEST POP DUP1 DUP1 PUSH1 0x1 ADD SWAP2 POP POP PUSH2 0x1B2 JUMP JUMPDEST POP DUP1 SWAP6 POP POP POP POP POP POP SWAP3 SWAP2 POP POP JUMP JUMPDEST PUSH1 0x60 PUSH0 DUP4 MLOAD SWAP1 POP PUSH0 DUP5 PUSH0 DUP2 MLOAD DUP2 LT PUSH2 0x345 JUMPI PUSH2 0x344 PUSH2 0xC04 JUMP JUMPDEST JUMPDEST PUSH1 0x20 MUL PUSH1 0x20 ADD ADD MLOAD MLOAD SWAP1 POP DUP4 MLOAD DUP3 EQ DUP1 ISZERO PUSH2 0x37A JUMPI POP DUP4 PUSH0 DUP2 MLOAD DUP2 LT PUSH2 0x36E JUMPI PUSH2 0x36D PUSH2 0xC04 JUMP JUMPDEST JUMPDEST PUSH1 0x20 MUL PUSH1 0x20 ADD ADD MLOAD MLOAD DUP2 EQ JUMPDEST PUSH2 0x3B9 JUMPI PUSH1 0x40 MLOAD PUSH32 0x8C379A000000000000000000000000000000000000000000000000000000000 DUP2 MSTORE PUSH1 0x4 ADD PUSH2 0x3B0 SWAP1 PUSH2 0xDFD JUMP JUMPDEST PUSH1 0x40 MLOAD DUP1 SWAP2 SUB SWAP1 REVERT JUMPDEST PUSH0 DUP3 PUSH8 0xFFFFFFFFFFFFFFFF DUP2 GT ISZERO PUSH2 0x3D4 JUMPI PUSH2 0x3D3 PUSH2 0x7AF JUMP JUMPDEST JUMPDEST PUSH1 0x40 MLOAD SWAP1 DUP1 DUP3 MSTORE DUP1 PUSH1 0x20 MUL PUSH1 0x20 ADD DUP3 ADD PUSH1 0x40 MSTORE DUP1 ISZERO PUSH2 0x407 JUMPI DUP2 PUSH1 0x20 ADD JUMPDEST PUSH1 0x60 DUP2 MSTORE PUSH1 0x20 ADD SWAP1 PUSH1 0x1 SWAP1 SUB SWAP1 DUP2 PUSH2 0x3F2 JUMPI SWAP1 POP JUMPDEST POP SWAP1 POP PUSH0 JUMPDEST DUP4 DUP2 LT ISZERO PUSH2 0x54D JUMPI DUP3 PUSH8 0xFFFFFFFFFFFFFFFF DUP2 GT ISZERO PUSH2 0x42E JUMPI PUSH2 0x42D PUSH2 0x7AF JUMP JUMPDEST JUMPDEST PUSH1 0x40 MLOAD SWAP1 DUP1 DUP3 MSTORE DUP1 PUSH1 0x20 MUL PUSH1 0x20 ADD DUP3 ADD PUSH1 0x40 MSTORE DUP1 ISZERO PUSH2 0x45C JUMPI DUP2 PUSH1 0x20 ADD PUSH1 0x20 DUP3 MUL DUP1 CALLDATASIZE DUP4 CALLDATACOPY DUP1 DUP3 ADD SWAP2 POP POP SWAP1 POP JUMPDEST POP DUP3 DUP3 DUP2 MLOAD DUP2 LT PUSH2 0x470 JUMPI PUSH2 0x46F PUSH2 0xC04 JUMP JUMPDEST JUMPDEST PUSH1 0x20 MUL PUSH1 0x20 ADD ADD DUP2 SWAP1 MSTORE POP PUSH0 JUMPDEST DUP4 DUP2 LT ISZERO PUSH2 0x53F JUMPI DUP7 DUP3 DUP2 MLOAD DUP2 LT PUSH2 0x498 JUMPI PUSH2 0x497 PUSH2 0xC04 JUMP JUMPDEST JUMPDEST PUSH1 0x20 MUL PUSH1 0x20 ADD ADD MLOAD DUP2 DUP2 MLOAD DUP2 LT PUSH2 0x4B2 JUMPI PUSH2 0x4B1 PUSH2 0xC04 JUMP JUMPDEST JUMPDEST PUSH1 0x20 MUL PUSH1 0x20 ADD ADD MLOAD DUP9 DUP4 DUP2 MLOAD DUP2 LT PUSH2 0x4CD JUMPI PUSH2 0x4CC PUSH2 0xC04 JUMP JUMPDEST JUMPDEST PUSH1 0x20 MUL PUSH1 0x20 ADD ADD MLOAD DUP3 DUP2 MLOAD DUP2 LT PUSH2 0x4E7 JUMPI PUSH2 0x4E6 PUSH2 0xC04 JUMP JUMPDEST JUMPDEST PUSH1 0x20 MUL PUSH1 0x20 ADD ADD MLOAD PUSH2 0x4F9 SWAP2 SWAP1 PUSH2 0xE1B JUMP JUMPDEST DUP4 DUP4 DUP2 MLOAD DUP2 LT PUSH2 0x50C JUMPI PUSH2 0x50B PUSH2 0xC04 JUMP JUMPDEST JUMPDEST PUSH1 0x20 MUL PUSH1 0x20 ADD ADD MLOAD DUP3 DUP2 MLOAD DUP2 LT PUSH2 0x526 JUMPI PUSH2 0x525 PUSH2 0xC04 JUMP JUMPDEST JUMPDEST PUSH1 0x20 MUL PUSH1 0x20 ADD ADD DUP2 DUP2 MSTORE POP POP DUP1 DUP1 PUSH1 0x1 ADD SWAP2 POP POP PUSH2 0x47D JUMP JUMPDEST POP DUP1 DUP1 PUSH1 0x1 ADD SWAP2 POP POP PUSH2 0x40C JUMP JUMPDEST POP DUP1 SWAP4 POP POP POP POP SWAP3 SWAP2 POP POP JUMP JUMPDEST PUSH1 0x60 PUSH0 DUP4 MLOAD SWAP1 POP PUSH0 DUP5 PUSH0 DUP2 MLOAD DUP2 LT PUSH2 0x575 JUMPI PUSH2 0x574 PUSH2 0xC04 JUMP JUMPDEST JUMPDEST PUSH1 0x20 MUL PUSH1 0x20 ADD ADD MLOAD MLOAD SWAP1 POP DUP4 MLOAD DUP3 EQ DUP1 ISZERO PUSH2 0x5AA JUMPI POP DUP4 PUSH0 DUP2 MLOAD DUP2 LT PUSH2 0x59E JUMPI PUSH2 0x59D PUSH2 0xC04 JUMP JUMPDEST JUMPDEST PUSH1 0x20 MUL PUSH1 0x20 ADD ADD MLOAD MLOAD DUP2 EQ JUMPDEST PUSH2 0x5E9 JUMPI PUSH1 0x40 MLOAD PUSH32 0x8C379A000000000000000000000000000000000000000000000000000000000 DUP2 MSTORE PUSH1 0x4 ADD PUSH2 0x5E0 SWAP1 PUSH2 0xDFD JUMP JUMPDEST PUSH1 0x40 MLOAD DUP1 SWAP2 SUB SWAP1 REVERT JUMPDEST PUSH0 DUP3 PUSH8 0xFFFFFFFFFFFFFFFF DUP2 GT ISZERO PUSH2 0x604 JUMPI PUSH2 0x603 PUSH2 0x7AF JUMP JUMPDEST JUMPDEST PUSH1 0x40 MLOAD SWAP1 DUP1 DUP3 MSTORE DUP1 PUSH1 0x20 MUL PUSH1 0x20 ADD DUP3 ADD PUSH1 0x40 MSTORE DUP1 ISZERO PUSH2 0x637 JUMPI DUP2 PUSH1 0x20 ADD JUMPDEST PUSH1 0x60 DUP2 MSTORE PUSH1 0x20 ADD SWAP1 PUSH1 0x1 SWAP1 SUB SWAP1 DUP2 PUSH2 0x622 JUMPI SWAP1 POP JUMPDEST POP SWAP1 POP PUSH0 JUMPDEST DUP4 DUP2 LT ISZERO PUSH2 0x77D JUMPI DUP3 PUSH8 0xFFFFFFFFFFFFFFFF DUP2 GT ISZERO PUSH2 0x65E JUMPI PUSH2 0x65D PUSH2 0x7AF JUMP JUMPDEST JUMPDEST PUSH1 0x40 MLOAD SWAP1 DUP1 DUP3 MSTORE DUP1 PUSH1 0x20 MUL PUSH1 0x20 ADD DUP3 ADD PUSH1 0x40 MSTORE DUP1 ISZERO PUSH2 0x68C JUMPI DUP2 PUSH1 0x20 ADD PUSH1 0x20 DUP3 MUL DUP1 CALLDATASIZE DUP4 CALLDATACOPY DUP1 DUP3 ADD SWAP2 POP POP SWAP1 POP JUMPDEST POP DUP3 DUP3 DUP2 MLOAD DUP2 LT PUSH2 0x6A0 JUMPI PUSH2 0x69F PUSH2 0xC04 JUMP JUMPDEST JUMPDEST PUSH1 0x20 MUL PUSH1 0x20 ADD ADD DUP2 SWAP1 MSTORE POP PUSH0 JUMPDEST DUP4 DUP2 LT ISZERO PUSH2 0x76F JUMPI DUP7 DUP3 DUP2 MLOAD DUP2 LT PUSH2 0x6C8 JUMPI PUSH2 0x6C7 PUSH2 0xC04 JUMP JUMPDEST JUMPDEST PUSH1 0x20 MUL PUSH1 0x20 ADD ADD MLOAD DUP2 DUP2 MLOAD DUP2 LT PUSH2 0x6E2 JUMPI PUSH2 0x6E1 PUSH2 0xC04 JUMP JUMPDEST JUMPDEST PUSH1 0x20 MUL PUSH1 0x20 ADD ADD MLOAD DUP9 DUP4 DUP2 MLOAD DUP2 LT PUSH2 0x6FD JUMPI PUSH2 0x6FC PUSH2 0xC04 JUMP JUMPDEST JUMPDEST PUSH1 0x20 MUL PUSH1 0x20 ADD ADD MLOAD DUP3 DUP2 MLOAD DUP2 LT PUSH2 0x717 JUMPI PUSH2 0x716 PUSH2 0xC04 JUMP JUMPDEST JUMPDEST PUSH1 0x20 MUL PUSH1 0x20 ADD ADD MLOAD PUSH2 0x729 SWAP2 SWAP1 PUSH2 0xD72 JUMP JUMPDEST DUP4 DUP4 DUP2 MLOAD DUP2 LT PUSH2 0x73C JUMPI PUSH2 0x73B PUSH2 0xC04 JUMP JUMPDEST JUMPDEST PUSH1 0x20 MUL PUSH1 0x20 ADD ADD MLOAD DUP3 DUP2 MLOAD DUP2 LT PUSH2 0x756 JUMPI PUSH2 0x755 PUSH2 0xC04 JUMP JUMPDEST JUMPDEST PUSH1 0x20 MUL PUSH1 0x20 ADD ADD DUP2 DUP2 MSTORE POP POP DUP1 DUP1 PUSH1 0x1 ADD SWAP2 POP POP PUSH2 0x6AD JUMP JUMPDEST POP DUP1 DUP1 PUSH1 0x1 ADD SWAP2 POP POP PUSH2 0x63C JUMP JUMPDEST POP DUP1 SWAP4 POP POP POP POP SWAP3 SWAP2 POP POP JUMP JUMPDEST PUSH0 PUSH1 0x40 MLOAD SWAP1 POP SWAP1 JUMP JUMPDEST PUSH0 DUP1 REVERT JUMPDEST PUSH0 DUP1 REVERT JUMPDEST PUSH0 DUP1 REVERT JUMPDEST PUSH0 PUSH1 0x1F NOT PUSH1 0x1F DUP4 ADD AND SWAP1 POP SWAP2 SWAP1 POP JUMP JUMPDEST PUSH32 0x4E487B7100000000000000000000000000000000000000000000000000000000 PUSH0 MSTORE PUSH1 0x41 PUSH1 0x4 MSTORE PUSH1 0x24 PUSH0 REVERT JUMPDEST PUSH2 0x7E5 DUP3 PUSH2 0x79F JUMP JUMPDEST DUP2 ADD DUP2 DUP2 LT PUSH8 0xFFFFFFFFFFFFFFFF DUP3 GT OR ISZERO PUSH2 0x804 JUMPI PUSH2 0x803 PUSH2 0x7AF JUMP JUMPDEST JUMPDEST DUP1 PUSH1 0x40 MSTORE POP POP POP JUMP JUMPDEST PUSH0 PUSH2 0x816 PUSH2 0x78A JUMP JUMPDEST SWAP1 POP PUSH2 0x822 DUP3 DUP3 PUSH2 0x7DC JUMP JUMPDEST SWAP2 SWAP1 POP JUMP JUMPDEST PUSH0 PUSH8 0xFFFFFFFFFFFFFFFF DUP3 GT ISZERO PUSH2 0x841 JUMPI PUSH2 0x840 PUSH2 0x7AF JUMP JUMPDEST JUMPDEST PUSH1 0x20 DUP3 MUL SWAP1 POP PUSH1 0x20 DUP2 ADD SWAP1 POP SWAP2 SWAP1 POP JUMP JUMPDEST PUSH0 DUP1 REVERT JUMPDEST PUSH0 PUSH8 0xFFFFFFFFFFFFFFFF DUP3 GT ISZERO PUSH2 0x870 JUMPI PUSH2 0x86F PUSH2 0x7AF JUMP JUMPDEST JUMPDEST PUSH1 0x20 DUP3 MUL SWAP1 POP PUSH1 0x20 DUP2 ADD SWAP1 POP SWAP2 SWAP1 POP JUMP JUMPDEST PUSH0 DUP2 SWAP1 POP SWAP2 SWAP1 POP JUMP JUMPDEST PUSH2 0x893 DUP2 PUSH2 0x881 JUMP JUMPDEST DUP2 EQ PUSH2 0x89D JUMPI PUSH0 DUP1 REVERT JUMPDEST POP JUMP JUMPDEST PUSH0 DUP2 CALLDATALOAD SWAP1 POP PUSH2 0x8AE DUP2 PUSH2 0x88A JUMP JUMPDEST SWAP3 SWAP2 POP POP JUMP JUMPDEST PUSH0 PUSH2 0x8C6 PUSH2 0x8C1 DUP5 PUSH2 0x856 JUMP JUMPDEST PUSH2 0x80D JUMP JUMPDEST SWAP1 POP DUP1 DUP4 DUP3 MSTORE PUSH1 0x20 DUP3 ADD SWAP1 POP PUSH1 0x20 DUP5 MUL DUP4 ADD DUP6 DUP2 GT ISZERO PUSH2 0x8E9 JUMPI PUSH2 0x8E8 PUSH2 0x852 JUMP JUMPDEST JUMPDEST DUP4 JUMPDEST DUP2 DUP2 LT ISZERO PUSH2 0x912 JUMPI DUP1 PUSH2 0x8FE DUP9 DUP3 PUSH2 0x8A0 JUMP JUMPDEST DUP5 MSTORE PUSH1 0x20 DUP5 ADD SWAP4 POP POP PUSH1 0x20 DUP2 ADD SWAP1 POP PUSH2 0x8EB JUMP JUMPDEST POP POP POP SWAP4 SWAP3 POP POP POP JUMP JUMPDEST PUSH0 DUP3 PUSH1 0x1F DUP4 ADD SLT PUSH2 0x930 JUMPI PUSH2 0x92F PUSH2 0x79B JUMP JUMPDEST JUMPDEST DUP2 CALLDATALOAD PUSH2 0x940 DUP5 DUP3 PUSH1 0x20 DUP7 ADD PUSH2 0x8B4 JUMP JUMPDEST SWAP2 POP POP SWAP3 SWAP2 POP POP JUMP JUMPDEST PUSH0 PUSH2 0x95B PUSH2 0x956 DUP5 PUSH2 0x827 JUMP JUMPDEST PUSH2 0x80D JUMP JUMPDEST SWAP1 POP DUP1 DUP4 DUP3 MSTORE PUSH1 0x20 DUP3 ADD SWAP1 POP PUSH1 0x20 DUP5 MUL DUP4 ADD DUP6 DUP2 GT ISZERO PUSH2 0x97E JUMPI PUSH2 0x97D PUSH2 0x852 JUMP JUMPDEST JUMPDEST DUP4 JUMPDEST DUP2 DUP2 LT ISZERO PUSH2 0x9C5 JUMPI DUP1 CALLDATALOAD PUSH8 0xFFFFFFFFFFFFFFFF DUP2 GT ISZERO PUSH2 0x9A3 JUMPI PUSH2 0x9A2 PUSH2 0x79B JUMP JUMPDEST JUMPDEST DUP1 DUP7 ADD PUSH2 0x9B0 DUP10 DUP3 PUSH2 0x91C JUMP JUMPDEST DUP6 MSTORE PUSH1 0x20 DUP6 ADD SWAP5 POP POP POP PUSH1 0x20 DUP2 ADD SWAP1 POP PUSH2 0x980 JUMP JUMPDEST POP POP POP SWAP4 SWAP3 POP POP POP JUMP JUMPDEST PUSH0 DUP3 PUSH1 0x1F DUP4 ADD SLT PUSH2 0x9E3 JUMPI PUSH2 0x9E2 PUSH2 0x79B JUMP JUMPDEST JUMPDEST DUP2 CALLDATALOAD PUSH2 0x9F3 DUP5 DUP3 PUSH1 0x20 DUP7 ADD PUSH2 0x949 JUMP JUMPDEST SWAP2 POP POP SWAP3 SWAP2 POP POP JUMP JUMPDEST PUSH0 DUP1 PUSH1 0x40 DUP4 DUP6 SUB SLT ISZERO PUSH2 0xA12 JUMPI PUSH2 0xA11 PUSH2 0x793 JUMP JUMPDEST JUMPDEST PUSH0 DUP4 ADD CALLDATALOAD PUSH8 0xFFFFFFFFFFFFFFFF DUP2 GT ISZERO PUSH2 0xA2F JUMPI PUSH2 0xA2E PUSH2 0x797 JUMP JUMPDEST JUMPDEST PUSH2 0xA3B DUP6 DUP3 DUP7 ADD PUSH2 0x9CF JUMP JUMPDEST SWAP3 POP POP PUSH1 0x20 DUP4 ADD CALLDATALOAD PUSH8 0xFFFFFFFFFFFFFFFF DUP2 GT ISZERO PUSH2 0xA5C JUMPI PUSH2 0xA5B PUSH2 0x797 JUMP JUMPDEST JUMPDEST PUSH2 0xA68 DUP6 DUP3 DUP7 ADD PUSH2 0x9CF JUMP JUMPDEST SWAP2 POP POP SWAP3 POP SWAP3 SWAP1 POP JUMP JUMPDEST PUSH0 DUP2 MLOAD SWAP1 POP SWAP2 SWAP1 POP JUMP JUMPDEST PUSH0 DUP3 DUP3 MSTORE PUSH1 0x20 DUP3 ADD SWAP1 POP SWAP3 SWAP2 POP POP JUMP JUMPDEST PUSH0 DUP2 SWAP1 POP PUSH1 0x20 DUP3 ADD SWAP1 POP SWAP2 SWAP1 POP JUMP JUMPDEST PUSH0 DUP2 MLOAD SWAP1 POP SWAP2 SWAP1 POP JUMP JUMPDEST PUSH0 DUP3 DUP3 MSTORE PUSH1 0x20 DUP3 ADD SWAP1 POP SWAP3 SWAP2 POP POP JUMP JUMPDEST PUSH0 DUP2 SWAP1 POP PUSH1 0x20 DUP3 ADD SWAP1 POP SWAP2 SWAP1 POP JUMP JUMPDEST PUSH2 0xACD DUP2 PUSH2 0x881 JUMP JUMPDEST DUP3 MSTORE POP POP JUMP JUMPDEST PUSH0 PUSH2 0xADE DUP4 DUP4 PUSH2 0xAC4 JUMP JUMPDEST PUSH1 0x20 DUP4 ADD SWAP1 POP SWAP3 SWAP2 POP POP JUMP JUMPDEST PUSH0 PUSH1 0x20 DUP3 ADD SWAP1 POP SWAP2 SWAP1 POP JUMP JUMPDEST PUSH0 PUSH2 0xB00 DUP3 PUSH2 0xA9B JUMP JUMPDEST PUSH2 0xB0A DUP2 DUP6 PUSH2 0xAA5 JUMP JUMPDEST SWAP4 POP PUSH2 0xB15 DUP4 PUSH2 0xAB5 JUMP JUMPDEST DUP1 PUSH0 JUMPDEST DUP4 DUP2 LT ISZERO PUSH2 0xB45 JUMPI DUP2 MLOAD PUSH2 0xB2C DUP9 DUP3 PUSH2 0xAD3 JUMP JUMPDEST SWAP8 POP PUSH2 0xB37 DUP4 PUSH2 0xAEA JUMP JUMPDEST SWAP3 POP POP PUSH1 0x1 DUP2 ADD SWAP1 POP PUSH2 0xB18 JUMP JUMPDEST POP DUP6 SWAP4 POP POP POP POP SWAP3 SWAP2 POP POP JUMP JUMPDEST PUSH0 PUSH2 0xB5D DUP4 DUP4 PUSH2 0xAF6 JUMP JUMPDEST SWAP1 POP SWAP3 SWAP2 POP POP JUMP JUMPDEST PUSH0 PUSH1 0x20 DUP3 ADD SWAP1 POP SWAP2 SWAP1 POP JUMP JUMPDEST PUSH0 PUSH2 0xB7B DUP3 PUSH2 0xA72 JUMP JUMPDEST PUSH2 0xB85 DUP2 DUP6 PUSH2 0xA7C JUMP JUMPDEST SWAP4 POP DUP4 PUSH1 0x20 DUP3 MUL DUP6 ADD PUSH2 0xB97 DUP6 PUSH2 0xA8C JUMP JUMPDEST DUP1 PUSH0 JUMPDEST DUP6 DUP2 LT ISZERO PUSH2 0xBD2 JUMPI DUP5 DUP5 SUB DUP10 MSTORE DUP2 MLOAD PUSH2 0xBB3 DUP6 DUP3 PUSH2 0xB52 JUMP JUMPDEST SWAP5 POP PUSH2 0xBBE DUP4 PUSH2 0xB65 JUMP JUMPDEST SWAP3 POP PUSH1 0x20 DUP11 ADD SWAP10 POP POP PUSH1 0x1 DUP2 ADD SWAP1 POP PUSH2 0xB9A JUMP JUMPDEST POP DUP3 SWAP8 POP DUP8 SWAP6 POP POP POP POP POP POP SWAP3 SWAP2 POP POP JUMP JUMPDEST PUSH0 PUSH1 0x20 DUP3 ADD SWAP1 POP DUP2 DUP2 SUB PUSH0 DUP4 ADD MSTORE PUSH2 0xBFC DUP2 DUP5 PUSH2 0xB71 JUMP JUMPDEST SWAP1 POP SWAP3 SWAP2 POP POP JUMP JUMPDEST PUSH32 0x4E487B7100000000000000000000000000000000000000000000000000000000 PUSH0 MSTORE PUSH1 0x32 PUSH1 0x4 MSTORE PUSH1 0x24 PUSH0 REVERT JUMPDEST PUSH0 DUP3 DUP3 MSTORE PUSH1 0x20 DUP3 ADD SWAP1 POP SWAP3 SWAP2 POP POP JUMP JUMPDEST PUSH32 0x496E76616C6964206D61747269782064696D656E73696F6E7320666F72206D75 PUSH0 DUP3 ADD MSTORE PUSH32 0x6C7469706C69636174696F6E0000000000000000000000000000000000000000 PUSH1 0x20 DUP3 ADD MSTORE POP JUMP JUMPDEST PUSH0 PUSH2 0xC9B PUSH1 0x2C DUP4 PUSH2 0xC31 JUMP JUMPDEST SWAP2 POP PUSH2 0xCA6 DUP3 PUSH2 0xC41 JUMP JUMPDEST PUSH1 0x40 DUP3 ADD SWAP1 POP SWAP2 SWAP1 POP JUMP JUMPDEST PUSH0 PUSH1 0x20 DUP3 ADD SWAP1 POP DUP2 DUP2 SUB PUSH0 DUP4 ADD MSTORE PUSH2 0xCC8 DUP2 PUSH2 0xC8F JUMP JUMPDEST SWAP1 POP SWAP2 SWAP1 POP JUMP JUMPDEST PUSH32 0x4E487B7100000000000000000000000000000000000000000000000000000000 PUSH0 MSTORE PUSH1 0x11 PUSH1 0x4 MSTORE PUSH1 0x24 PUSH0 REVERT JUMPDEST PUSH0 PUSH2 0xD06 DUP3 PUSH2 0x881 JUMP JUMPDEST SWAP2 POP PUSH2 0xD11 DUP4 PUSH2 0x881 JUMP JUMPDEST SWAP3 POP DUP3 DUP3 MUL PUSH2 0xD1F DUP2 PUSH2 0x881 JUMP JUMPDEST SWAP2 POP PUSH32 0x8000000000000000000000000000000000000000000000000000000000000000 DUP5 EQ PUSH0 DUP5 SLT AND ISZERO PUSH2 0xD56 JUMPI PUSH2 0xD55 PUSH2 0xCCF JUMP JUMPDEST JUMPDEST DUP3 DUP3 SDIV DUP5 EQ DUP4 ISZERO OR PUSH2 0xD6B JUMPI PUSH2 0xD6A PUSH2 0xCCF JUMP JUMPDEST JUMPDEST POP SWAP3 SWAP2 POP POP JUMP JUMPDEST PUSH0 PUSH2 0xD7C DUP3 PUSH2 0x881 JUMP JUMPDEST SWAP2 POP PUSH2 0xD87 DUP4 PUSH2 0x881 JUMP JUMPDEST SWAP3 POP DUP3 DUP3 ADD SWAP1 POP DUP3 DUP2 SLT ISZERO PUSH0 DUP4 SLT AND DUP4 DUP3 SLT PUSH0 DUP5 SLT ISZERO AND OR ISZERO PUSH2 0xDAD JUMPI PUSH2 0xDAC PUSH2 0xCCF JUMP JUMPDEST JUMPDEST SWAP3 SWAP2 POP POP JUMP JUMPDEST PUSH32 0x4D61747269782064696D656E73696F6E73206D757374206D6174636800000000 PUSH0 DUP3 ADD MSTORE POP JUMP JUMPDEST PUSH0 PUSH2 0xDE7 PUSH1 0x1C DUP4 PUSH2 0xC31 JUMP JUMPDEST SWAP2 POP PUSH2 0xDF2 DUP3 PUSH2 0xDB3 JUMP JUMPDEST PUSH1 0x20 DUP3 ADD SWAP1 POP SWAP2 SWAP1 POP JUMP JUMPDEST PUSH0 PUSH1 0x20 DUP3 ADD SWAP1 POP DUP2 DUP2 SUB PUSH0 DUP4 ADD MSTORE PUSH2 0xE14 DUP2 PUSH2 0xDDB JUMP JUMPDEST SWAP1 POP SWAP2 SWAP1 POP JUMP JUMPDEST PUSH0 PUSH2 0xE25 DUP3 PUSH2 0x881 JUMP JUMPDEST SWAP2 POP PUSH2 0xE30 DUP4 PUSH2 0x881 JUMP JUMPDEST SWAP3 POP DUP3 DUP3 SUB SWAP1 POP DUP2 DUP2 SLT PUSH0 DUP5 SLT AND DUP3 DUP3 SGT PUSH0 DUP6 SLT ISZERO AND OR ISZERO PUSH2 0xE55 JUMPI PUSH2 0xE54 PUSH2 0xCCF JUMP JUMPDEST JUMPDEST SWAP3 SWAP2 POP POP JUMP INVALID LOG2 PUSH5 0x6970667358 0x22 SLT KECCAK256 0xEB CALLER SHR COINBASE GAS DUP16 0xC3 CALLVALUE REVERT PUSH25 0xA9F7AFB647ADE6A00B2B9A3DDEAF2DE6E91A14B2155764736F PUSH13 0x634300081A0033000000000000 "
		},
		"gasEstimates": {
			"creation": {
				"codeDepositCost": "745800",
				"executionCost": "777",
				"totalCost": "746577"
			},
			"external": {
				"addMatrices(int256[][],int256[][])": "infinite",
				"multiplyMatrices(int256[][],int256[][])": "infinite",
				"subtractMatrices(int256[][],int256[][])": "infinite"
			}
		},
		"methodIdentifiers": {
			"addMatrices(int256[][],int256[][])": "8ea9e16c",
			"multiplyMatrices(int256[][],int256[][])": "21a8f355",
			"subtractMatrices(int256[][],int256[][])": "71852ab2"
		}
	},
	"abi": [
		{
			"inputs": [
				{
					"internalType": "int256[][]",
					"name": "A",
					"type": "int256[][]"
				},
				{
					"internalType": "int256[][]",
					"name": "B",
					"type": "int256[][]"
				}
			],
			"name": "addMatrices",
			"outputs": [
				{
					"internalType": "int256[][]",
					"name": "",
					"type": "int256[][]"
				}
			],
			"stateMutability": "pure",
			"type": "function"
		},
		{
			"inputs": [
				{
					"internalType": "int256[][]",
					"name": "A",
					"type": "int256[][]"
				},
				{
					"internalType": "int256[][]",
					"name": "B",
					"type": "int256[][]"
				}
			],
			"name": "multiplyMatrices",
			"outputs": [
				{
					"internalType": "int256[][]",
					"name": "",
					"type": "int256[][]"
				}
			],
			"stateMutability": "pure",
			"type": "function"
		},
		{
			"inputs": [
				{
					"internalType": "int256[][]",
					"name": "A",
					"type": "int256[][]"
				},
				{
					"internalType": "int256[][]",
					"name": "B",
					"type": "int256[][]"
				}
			],
			"name": "subtractMatrices",
			"outputs": [
				{
					"internalType": "int256[][]",
					"name": "",
					"type": "int256[][]"
				}
			],
			"stateMutability": "pure",
			"type": "function"
		}
	]
}