{
	"Day02/p3a1.sol": {
		"swapVariable": {
			"abi": [
				{
					"inputs": [
						{
							"internalType": "int256",
							"name": "a",
							"type": "int256"
						},
						{
							"internalType": "int256",
							"name": "b",
							"type": "int256"
						}
					],
					"name": "swapWithoutthirdVariable",
					"outputs": [
						{
							"internalType": "int256",
							"name": "",
							"type": "int256"
						},
						{
							"internalType": "int256",
							"name": "",
							"type": "int256"
						}
					],
					"stateMutability": "pure",
					"type": "function"
				},
				{
					"inputs": [
						{
							"internalType": "int256",
							"name": "a",
							"type": "int256"
						},
						{
							"internalType": "int256",
							"name": "b",
							"type": "int256"
						}
					],
					"name": "swapWiththirdVariable",
					"outputs": [
						{
							"internalType": "int256",
							"name": "",
							"type": "int256"
						},
						{
							"internalType": "int256",
							"name": "",
							"type": "int256"
						}
					],
					"stateMutability": "pure",
					"type": "function"
				}
			],
			"devdoc": {
				"kind": "dev",
				"methods": {},
				"version": 1
			},
			"evm": {
				"assembly": "    /* \"Day02/p3a1.sol\":69:486  contract swapVariable{ //temp conversion ... */\n  mstore(0x40, 0x80)\n  callvalue\n  dup1\n  iszero\n  tag_1\n  jumpi\n  0x00\n  dup1\n  revert\ntag_1:\n  pop\n  dataSize(sub_0)\n  dup1\n  dataOffset(sub_0)\n  0x00\n  codecopy\n  0x00\n  return\nstop\n\nsub_0: assembly {\n        /* \"Day02/p3a1.sol\":69:486  contract swapVariable{ //temp conversion ... */\n      mstore(0x40, 0x80)\n      callvalue\n      dup1\n      iszero\n      tag_1\n      jumpi\n      0x00\n      dup1\n      revert\n    tag_1:\n      pop\n      jumpi(tag_2, lt(calldatasize, 0x04))\n      shr(0xe0, calldataload(0x00))\n      dup1\n      0x1b2736e8\n      eq\n      tag_3\n      jumpi\n      dup1\n      0xa90494a2\n      eq\n      tag_4\n      jumpi\n    tag_2:\n      0x00\n      dup1\n      revert\n        /* \"Day02/p3a1.sol\":118:307  function swapWiththirdVariable(int256 a, int256 b)public pure returns(int256  ,int256 ){... */\n    tag_3:\n      tag_5\n      0x04\n      dup1\n      calldatasize\n      sub\n      dup2\n      add\n      swap1\n      tag_6\n      swap2\n      swap1\n      tag_7\n      jump\t// in\n    tag_6:\n      tag_8\n      jump\t// in\n    tag_5:\n      mload(0x40)\n      tag_9\n      swap3\n      swap2\n      swap1\n      tag_10\n      jump\t// in\n    tag_9:\n      mload(0x40)\n      dup1\n      swap2\n      sub\n      swap1\n      return\n        /* \"Day02/p3a1.sol\":313:483  function swapWithoutthirdVariable(int256 a, int256 b)public pure returns(int256  ,int256 ){... */\n    tag_4:\n      tag_11\n      0x04\n      dup1\n      calldatasize\n      sub\n      dup2\n      add\n      swap1\n      tag_12\n      swap2\n      swap1\n      tag_7\n      jump\t// in\n    tag_12:\n      tag_13\n      jump\t// in\n    tag_11:\n      mload(0x40)\n      tag_14\n      swap3\n      swap2\n      swap1\n      tag_10\n      jump\t// in\n    tag_14:\n      mload(0x40)\n      dup1\n      swap2\n      sub\n      swap1\n      return\n        /* \"Day02/p3a1.sol\":118:307  function swapWiththirdVariable(int256 a, int256 b)public pure returns(int256  ,int256 ){... */\n    tag_8:\n        /* \"Day02/p3a1.sol\":188:194  int256 */\n      0x00\n        /* \"Day02/p3a1.sol\":197:203  int256 */\n      dup1\n        /* \"Day02/p3a1.sol\":216:227  int256 temp */\n      0x00\n        /* \"Day02/p3a1.sol\":244:245  a */\n      dup5\n        /* \"Day02/p3a1.sol\":239:245  temp=a */\n      swap1\n      pop\n        /* \"Day02/p3a1.sol\":258:259  b */\n      dup4\n        /* \"Day02/p3a1.sol\":256:259  a=b */\n      swap5\n      pop\n        /* \"Day02/p3a1.sol\":272:276  temp */\n      dup1\n        /* \"Day02/p3a1.sol\":270:276  b=temp */\n      swap4\n      pop\n        /* \"Day02/p3a1.sol\":295:296  a */\n      dup5\n        /* \"Day02/p3a1.sol\":297:298  b */\n      dup5\n        /* \"Day02/p3a1.sol\":287:299  return (a,b) */\n      swap3\n      pop\n      swap3\n      pop\n      pop\n        /* \"Day02/p3a1.sol\":118:307  function swapWiththirdVariable(int256 a, int256 b)public pure returns(int256  ,int256 ){... */\n      swap3\n      pop\n      swap3\n      swap1\n      pop\n      jump\t// out\n        /* \"Day02/p3a1.sol\":313:483  function swapWithoutthirdVariable(int256 a, int256 b)public pure returns(int256  ,int256 ){... */\n    tag_13:\n        /* \"Day02/p3a1.sol\":386:392  int256 */\n      0x00\n        /* \"Day02/p3a1.sol\":395:401  int256 */\n      dup1\n        /* \"Day02/p3a1.sol\":419:420  b */\n      dup3\n        /* \"Day02/p3a1.sol\":417:418  a */\n      dup5\n        /* \"Day02/p3a1.sol\":417:420  a+b */\n      tag_17\n      swap2\n      swap1\n      tag_18\n      jump\t// in\n    tag_17:\n        /* \"Day02/p3a1.sol\":414:420  a= a+b */\n      swap4\n      pop\n        /* \"Day02/p3a1.sol\":435:436  b */\n      dup3\n        /* \"Day02/p3a1.sol\":433:434  a */\n      dup5\n        /* \"Day02/p3a1.sol\":433:436  a-b */\n      tag_19\n      swap2\n      swap1\n      tag_20\n      jump\t// in\n    tag_19:\n        /* \"Day02/p3a1.sol\":431:436  b=a-b */\n      swap3\n      pop\n        /* \"Day02/p3a1.sol\":451:452  b */\n      dup3\n        /* \"Day02/p3a1.sol\":449:450  a */\n      dup5\n        /* \"Day02/p3a1.sol\":449:452  a-b */\n      tag_21\n      swap2\n      swap1\n      tag_20\n      jump\t// in\n    tag_21:\n        /* \"Day02/p3a1.sol\":447:452  a=a-b */\n      swap4\n      pop\n        /* \"Day02/p3a1.sol\":471:472  a */\n      dup4\n        /* \"Day02/p3a1.sol\":473:474  b */\n      dup4\n        /* \"Day02/p3a1.sol\":463:475  return (a,b) */\n      swap2\n      pop\n      swap2\n      pop\n        /* \"Day02/p3a1.sol\":313:483  function swapWithoutthirdVariable(int256 a, int256 b)public pure returns(int256  ,int256 ){... */\n      swap3\n      pop\n      swap3\n      swap1\n      pop\n      jump\t// out\n        /* \"#utility.yul\":88:205   */\n    tag_23:\n        /* \"#utility.yul\":197:198   */\n      0x00\n        /* \"#utility.yul\":194:195   */\n      dup1\n        /* \"#utility.yul\":187:199   */\n      revert\n        /* \"#utility.yul\":334:410   */\n    tag_25:\n        /* \"#utility.yul\":370:377   */\n      0x00\n        /* \"#utility.yul\":399:404   */\n      dup2\n        /* \"#utility.yul\":388:404   */\n      swap1\n      pop\n        /* \"#utility.yul\":334:410   */\n      swap2\n      swap1\n      pop\n      jump\t// out\n        /* \"#utility.yul\":416:536   */\n    tag_26:\n        /* \"#utility.yul\":488:511   */\n      tag_36\n        /* \"#utility.yul\":505:510   */\n      dup2\n        /* \"#utility.yul\":488:511   */\n      tag_25\n      jump\t// in\n    tag_36:\n        /* \"#utility.yul\":481:486   */\n      dup2\n        /* \"#utility.yul\":478:512   */\n      eq\n        /* \"#utility.yul\":468:530   */\n      tag_37\n      jumpi\n        /* \"#utility.yul\":526:527   */\n      0x00\n        /* \"#utility.yul\":523:524   */\n      dup1\n        /* \"#utility.yul\":516:528   */\n      revert\n        /* \"#utility.yul\":468:530   */\n    tag_37:\n        /* \"#utility.yul\":416:536   */\n      pop\n      jump\t// out\n        /* \"#utility.yul\":542:679   */\n    tag_27:\n        /* \"#utility.yul\":587:592   */\n      0x00\n        /* \"#utility.yul\":625:631   */\n      dup2\n        /* \"#utility.yul\":612:632   */\n      calldataload\n        /* \"#utility.yul\":603:632   */\n      swap1\n      pop\n        /* \"#utility.yul\":641:673   */\n      tag_39\n        /* \"#utility.yul\":667:672   */\n      dup2\n        /* \"#utility.yul\":641:673   */\n      tag_26\n      jump\t// in\n    tag_39:\n        /* \"#utility.yul\":542:679   */\n      swap3\n      swap2\n      pop\n      pop\n      jump\t// out\n        /* \"#utility.yul\":685:1155   */\n    tag_7:\n        /* \"#utility.yul\":751:757   */\n      0x00\n        /* \"#utility.yul\":759:765   */\n      dup1\n        /* \"#utility.yul\":808:810   */\n      0x40\n        /* \"#utility.yul\":796:805   */\n      dup4\n        /* \"#utility.yul\":787:794   */\n      dup6\n        /* \"#utility.yul\":783:806   */\n      sub\n        /* \"#utility.yul\":779:811   */\n      slt\n        /* \"#utility.yul\":776:895   */\n      iszero\n      tag_41\n      jumpi\n        /* \"#utility.yul\":814:893   */\n      tag_42\n      tag_23\n      jump\t// in\n    tag_42:\n        /* \"#utility.yul\":776:895   */\n    tag_41:\n        /* \"#utility.yul\":934:935   */\n      0x00\n        /* \"#utility.yul\":959:1011   */\n      tag_43\n        /* \"#utility.yul\":1003:1010   */\n      dup6\n        /* \"#utility.yul\":994:1000   */\n      dup3\n        /* \"#utility.yul\":983:992   */\n      dup7\n        /* \"#utility.yul\":979:1001   */\n      add\n        /* \"#utility.yul\":959:1011   */\n      tag_27\n      jump\t// in\n    tag_43:\n        /* \"#utility.yul\":949:1011   */\n      swap3\n      pop\n        /* \"#utility.yul\":905:1021   */\n      pop\n        /* \"#utility.yul\":1060:1062   */\n      0x20\n        /* \"#utility.yul\":1086:1138   */\n      tag_44\n        /* \"#utility.yul\":1130:1137   */\n      dup6\n        /* \"#utility.yul\":1121:1127   */\n      dup3\n        /* \"#utility.yul\":1110:1119   */\n      dup7\n        /* \"#utility.yul\":1106:1128   */\n      add\n        /* \"#utility.yul\":1086:1138   */\n      tag_27\n      jump\t// in\n    tag_44:\n        /* \"#utility.yul\":1076:1138   */\n      swap2\n      pop\n        /* \"#utility.yul\":1031:1148   */\n      pop\n        /* \"#utility.yul\":685:1155   */\n      swap3\n      pop\n      swap3\n      swap1\n      pop\n      jump\t// out\n        /* \"#utility.yul\":1161:1276   */\n    tag_28:\n        /* \"#utility.yul\":1246:1269   */\n      tag_46\n        /* \"#utility.yul\":1263:1268   */\n      dup2\n        /* \"#utility.yul\":1246:1269   */\n      tag_25\n      jump\t// in\n    tag_46:\n        /* \"#utility.yul\":1241:1244   */\n      dup3\n        /* \"#utility.yul\":1234:1270   */\n      mstore\n        /* \"#utility.yul\":1161:1276   */\n      pop\n      pop\n      jump\t// out\n        /* \"#utility.yul\":1282:1606   */\n    tag_10:\n        /* \"#utility.yul\":1399:1403   */\n      0x00\n        /* \"#utility.yul\":1437:1439   */\n      0x40\n        /* \"#utility.yul\":1426:1435   */\n      dup3\n        /* \"#utility.yul\":1422:1440   */\n      add\n        /* \"#utility.yul\":1414:1440   */\n      swap1\n      pop\n        /* \"#utility.yul\":1450:1519   */\n      tag_48\n        /* \"#utility.yul\":1516:1517   */\n      0x00\n        /* \"#utility.yul\":1505:1514   */\n      dup4\n        /* \"#utility.yul\":1501:1518   */\n      add\n        /* \"#utility.yul\":1492:1498   */\n      dup6\n        /* \"#utility.yul\":1450:1519   */\n      tag_28\n      jump\t// in\n    tag_48:\n        /* \"#utility.yul\":1529:1599   */\n      tag_49\n        /* \"#utility.yul\":1595:1597   */\n      0x20\n        /* \"#utility.yul\":1584:1593   */\n      dup4\n        /* \"#utility.yul\":1580:1598   */\n      add\n        /* \"#utility.yul\":1571:1577   */\n      dup5\n        /* \"#utility.yul\":1529:1599   */\n      tag_28\n      jump\t// in\n    tag_49:\n        /* \"#utility.yul\":1282:1606   */\n      swap4\n      swap3\n      pop\n      pop\n      pop\n      jump\t// out\n        /* \"#utility.yul\":1612:1792   */\n    tag_29:\n        /* \"#utility.yul\":1660:1737   */\n      0x4e487b7100000000000000000000000000000000000000000000000000000000\n        /* \"#utility.yul\":1657:1658   */\n      0x00\n        /* \"#utility.yul\":1650:1738   */\n      mstore\n        /* \"#utility.yul\":1757:1761   */\n      0x11\n        /* \"#utility.yul\":1754:1755   */\n      0x04\n        /* \"#utility.yul\":1747:1762   */\n      mstore\n        /* \"#utility.yul\":1781:1785   */\n      0x24\n        /* \"#utility.yul\":1778:1779   */\n      0x00\n        /* \"#utility.yul\":1771:1786   */\n      revert\n        /* \"#utility.yul\":1798:2173   */\n    tag_18:\n        /* \"#utility.yul\":1837:1840   */\n      0x00\n        /* \"#utility.yul\":1856:1875   */\n      tag_52\n        /* \"#utility.yul\":1873:1874   */\n      dup3\n        /* \"#utility.yul\":1856:1875   */\n      tag_25\n      jump\t// in\n    tag_52:\n        /* \"#utility.yul\":1851:1875   */\n      swap2\n      pop\n        /* \"#utility.yul\":1889:1908   */\n      tag_53\n        /* \"#utility.yul\":1906:1907   */\n      dup4\n        /* \"#utility.yul\":1889:1908   */\n      tag_25\n      jump\t// in\n    tag_53:\n        /* \"#utility.yul\":1884:1908   */\n      swap3\n      pop\n        /* \"#utility.yul\":1931:1932   */\n      dup3\n        /* \"#utility.yul\":1928:1929   */\n      dup3\n        /* \"#utility.yul\":1924:1933   */\n      add\n        /* \"#utility.yul\":1917:1933   */\n      swap1\n      pop\n        /* \"#utility.yul\":2129:2130   */\n      dup3\n        /* \"#utility.yul\":2124:2127   */\n      dup2\n        /* \"#utility.yul\":2120:2131   */\n      slt\n        /* \"#utility.yul\":2113:2132   */\n      iszero\n        /* \"#utility.yul\":2109:2110   */\n      0x00\n        /* \"#utility.yul\":2106:2107   */\n      dup4\n        /* \"#utility.yul\":2102:2111   */\n      slt\n        /* \"#utility.yul\":2098:2133   */\n      and\n        /* \"#utility.yul\":2081:2082   */\n      dup4\n        /* \"#utility.yul\":2076:2079   */\n      dup3\n        /* \"#utility.yul\":2072:2083   */\n      slt\n        /* \"#utility.yul\":2067:2068   */\n      0x00\n        /* \"#utility.yul\":2064:2065   */\n      dup5\n        /* \"#utility.yul\":2060:2069   */\n      slt\n        /* \"#utility.yul\":2053:2070   */\n      iszero\n        /* \"#utility.yul\":2049:2084   */\n      and\n        /* \"#utility.yul\":2033:2143   */\n      or\n        /* \"#utility.yul\":2030:2166   */\n      iszero\n      tag_54\n      jumpi\n        /* \"#utility.yul\":2146:2164   */\n      tag_55\n      tag_29\n      jump\t// in\n    tag_55:\n        /* \"#utility.yul\":2030:2166   */\n    tag_54:\n        /* \"#utility.yul\":1798:2173   */\n      swap3\n      swap2\n      pop\n      pop\n      jump\t// out\n        /* \"#utility.yul\":2179:2551   */\n    tag_20:\n        /* \"#utility.yul\":2218:2222   */\n      0x00\n        /* \"#utility.yul\":2238:2257   */\n      tag_57\n        /* \"#utility.yul\":2255:2256   */\n      dup3\n        /* \"#utility.yul\":2238:2257   */\n      tag_25\n      jump\t// in\n    tag_57:\n        /* \"#utility.yul\":2233:2257   */\n      swap2\n      pop\n        /* \"#utility.yul\":2271:2290   */\n      tag_58\n        /* \"#utility.yul\":2288:2289   */\n      dup4\n        /* \"#utility.yul\":2271:2290   */\n      tag_25\n      jump\t// in\n    tag_58:\n        /* \"#utility.yul\":2266:2290   */\n      swap3\n      pop\n        /* \"#utility.yul\":2314:2315   */\n      dup3\n        /* \"#utility.yul\":2311:2312   */\n      dup3\n        /* \"#utility.yul\":2307:2316   */\n      sub\n        /* \"#utility.yul\":2299:2316   */\n      swap1\n      pop\n        /* \"#utility.yul\":2508:2509   */\n      dup2\n        /* \"#utility.yul\":2502:2506   */\n      dup2\n        /* \"#utility.yul\":2498:2510   */\n      slt\n        /* \"#utility.yul\":2494:2495   */\n      0x00\n        /* \"#utility.yul\":2491:2492   */\n      dup5\n        /* \"#utility.yul\":2487:2496   */\n      slt\n        /* \"#utility.yul\":2483:2511   */\n      and\n        /* \"#utility.yul\":2466:2467   */\n      dup3\n        /* \"#utility.yul\":2460:2464   */\n      dup3\n        /* \"#utility.yul\":2456:2468   */\n      sgt\n        /* \"#utility.yul\":2451:2452   */\n      0x00\n        /* \"#utility.yul\":2448:2449   */\n      dup6\n        /* \"#utility.yul\":2444:2453   */\n      slt\n        /* \"#utility.yul\":2437:2454   */\n      iszero\n        /* \"#utility.yul\":2433:2469   */\n      and\n        /* \"#utility.yul\":2417:2521   */\n      or\n        /* \"#utility.yul\":2414:2544   */\n      iszero\n      tag_59\n      jumpi\n        /* \"#utility.yul\":2524:2542   */\n      tag_60\n      tag_29\n      jump\t// in\n    tag_60:\n        /* \"#utility.yul\":2414:2544   */\n    tag_59:\n        /* \"#utility.yul\":2179:2551   */\n      swap3\n      swap2\n      pop\n      pop\n      jump\t// out\n\n    auxdata: 0xa264697066735822122030dc509bebf5f32f00071026b0946d8f064a66b81b1baafcf0ae8c54675c42d164736f6c634300081a0033\n}\n",
				"bytecode": {
					"linkReferences": {},
					"object": "6080604052348015600e575f80fd5b5061027c8061001c5f395ff3fe608060405234801561000f575f80fd5b5060043610610034575f3560e01c80631b2736e814610038578063a90494a214610069575b5f80fd5b610052600480360381019061004d9190610124565b61009a565b604051610060929190610171565b60405180910390f35b610083600480360381019061007e9190610124565b6100b4565b604051610091929190610171565b60405180910390f35b5f805f849050839450809350848492509250509250929050565b5f8082846100c291906101c5565b935082846100d09190610206565b925082846100de9190610206565b93508383915091509250929050565b5f80fd5b5f819050919050565b610103816100f1565b811461010d575f80fd5b50565b5f8135905061011e816100fa565b92915050565b5f806040838503121561013a576101396100ed565b5b5f61014785828601610110565b925050602061015885828601610110565b9150509250929050565b61016b816100f1565b82525050565b5f6040820190506101845f830185610162565b6101916020830184610162565b9392505050565b7f4e487b71000000000000000000000000000000000000000000000000000000005f52601160045260245ffd5b5f6101cf826100f1565b91506101da836100f1565b92508282019050828112155f8312168382125f841215161715610200576101ff610198565b5b92915050565b5f610210826100f1565b915061021b836100f1565b925082820390508181125f8412168282135f8512151617156102405761023f610198565b5b9291505056fea264697066735822122030dc509bebf5f32f00071026b0946d8f064a66b81b1baafcf0ae8c54675c42d164736f6c634300081a0033",
					"opcodes": "PUSH1 0x80 PUSH1 0x40 MSTORE CALLVALUE DUP1 ISZERO PUSH1 0xE JUMPI PUSH0 DUP1 REVERT JUMPDEST POP PUSH2 0x27C DUP1 PUSH2 0x1C PUSH0 CODECOPY PUSH0 RETURN INVALID PUSH1 0x80 PUSH1 0x40 MSTORE CALLVALUE DUP1 ISZERO PUSH2 0xF JUMPI PUSH0 DUP1 REVERT JUMPDEST POP PUSH1 0x4 CALLDATASIZE LT PUSH2 0x34 JUMPI PUSH0 CALLDATALOAD PUSH1 0xE0 SHR DUP1 PUSH4 0x1B2736E8 EQ PUSH2 0x38 JUMPI DUP1 PUSH4 0xA90494A2 EQ PUSH2 0x69 JUMPI JUMPDEST PUSH0 DUP1 REVERT JUMPDEST PUSH2 0x52 PUSH1 0x4 DUP1 CALLDATASIZE SUB DUP2 ADD SWAP1 PUSH2 0x4D SWAP2 SWAP1 PUSH2 0x124 JUMP JUMPDEST PUSH2 0x9A JUMP JUMPDEST PUSH1 0x40 MLOAD PUSH2 0x60 SWAP3 SWAP2 SWAP1 PUSH2 0x171 JUMP JUMPDEST PUSH1 0x40 MLOAD DUP1 SWAP2 SUB SWAP1 RETURN JUMPDEST PUSH2 0x83 PUSH1 0x4 DUP1 CALLDATASIZE SUB DUP2 ADD SWAP1 PUSH2 0x7E SWAP2 SWAP1 PUSH2 0x124 JUMP JUMPDEST PUSH2 0xB4 JUMP JUMPDEST PUSH1 0x40 MLOAD PUSH2 0x91 SWAP3 SWAP2 SWAP1 PUSH2 0x171 JUMP JUMPDEST PUSH1 0x40 MLOAD DUP1 SWAP2 SUB SWAP1 RETURN JUMPDEST PUSH0 DUP1 PUSH0 DUP5 SWAP1 POP DUP4 SWAP5 POP DUP1 SWAP4 POP DUP5 DUP5 SWAP3 POP SWAP3 POP POP SWAP3 POP SWAP3 SWAP1 POP JUMP JUMPDEST PUSH0 DUP1 DUP3 DUP5 PUSH2 0xC2 SWAP2 SWAP1 PUSH2 0x1C5 JUMP JUMPDEST SWAP4 POP DUP3 DUP5 PUSH2 0xD0 SWAP2 SWAP1 PUSH2 0x206 JUMP JUMPDEST SWAP3 POP DUP3 DUP5 PUSH2 0xDE SWAP2 SWAP1 PUSH2 0x206 JUMP JUMPDEST SWAP4 POP DUP4 DUP4 SWAP2 POP SWAP2 POP SWAP3 POP SWAP3 SWAP1 POP JUMP JUMPDEST PUSH0 DUP1 REVERT JUMPDEST PUSH0 DUP2 SWAP1 POP SWAP2 SWAP1 POP JUMP JUMPDEST PUSH2 0x103 DUP2 PUSH2 0xF1 JUMP JUMPDEST DUP2 EQ PUSH2 0x10D JUMPI PUSH0 DUP1 REVERT JUMPDEST POP JUMP JUMPDEST PUSH0 DUP2 CALLDATALOAD SWAP1 POP PUSH2 0x11E DUP2 PUSH2 0xFA JUMP JUMPDEST SWAP3 SWAP2 POP POP JUMP JUMPDEST PUSH0 DUP1 PUSH1 0x40 DUP4 DUP6 SUB SLT ISZERO PUSH2 0x13A JUMPI PUSH2 0x139 PUSH2 0xED JUMP JUMPDEST JUMPDEST PUSH0 PUSH2 0x147 DUP6 DUP3 DUP7 ADD PUSH2 0x110 JUMP JUMPDEST SWAP3 POP POP PUSH1 0x20 PUSH2 0x158 DUP6 DUP3 DUP7 ADD PUSH2 0x110 JUMP JUMPDEST SWAP2 POP POP SWAP3 POP SWAP3 SWAP1 POP JUMP JUMPDEST PUSH2 0x16B DUP2 PUSH2 0xF1 JUMP JUMPDEST DUP3 MSTORE POP POP JUMP JUMPDEST PUSH0 PUSH1 0x40 DUP3 ADD SWAP1 POP PUSH2 0x184 PUSH0 DUP4 ADD DUP6 PUSH2 0x162 JUMP JUMPDEST PUSH2 0x191 PUSH1 0x20 DUP4 ADD DUP5 PUSH2 0x162 JUMP JUMPDEST SWAP4 SWAP3 POP POP POP JUMP JUMPDEST PUSH32 0x4E487B7100000000000000000000000000000000000000000000000000000000 PUSH0 MSTORE PUSH1 0x11 PUSH1 0x4 MSTORE PUSH1 0x24 PUSH0 REVERT JUMPDEST PUSH0 PUSH2 0x1CF DUP3 PUSH2 0xF1 JUMP JUMPDEST SWAP2 POP PUSH2 0x1DA DUP4 PUSH2 0xF1 JUMP JUMPDEST SWAP3 POP DUP3 DUP3 ADD SWAP1 POP DUP3 DUP2 SLT ISZERO PUSH0 DUP4 SLT AND DUP4 DUP3 SLT PUSH0 DUP5 SLT ISZERO AND OR ISZERO PUSH2 0x200 JUMPI PUSH2 0x1FF PUSH2 0x198 JUMP JUMPDEST JUMPDEST SWAP3 SWAP2 POP POP JUMP JUMPDEST PUSH0 PUSH2 0x210 DUP3 PUSH2 0xF1 JUMP JUMPDEST SWAP2 POP PUSH2 0x21B DUP4 PUSH2 0xF1 JUMP JUMPDEST SWAP3 POP DUP3 DUP3 SUB SWAP1 POP DUP2 DUP2 SLT PUSH0 DUP5 SLT AND DUP3 DUP3 SGT PUSH0 DUP6 SLT ISZERO AND OR ISZERO PUSH2 0x240 JUMPI PUSH2 0x23F PUSH2 0x198 JUMP JUMPDEST JUMPDEST SWAP3 SWAP2 POP POP JUMP INVALID LOG2 PUSH5 0x6970667358 0x22 SLT KECCAK256 ADDRESS 0xDC POP SWAP12 0xEB CREATE2 RETURN 0x2F STOP SMOD LT 0x26 0xB0 SWAP5 PUSH14 0x8F064A66B81B1BAAFCF0AE8C5467 TLOAD TIMESTAMP 0xD1 PUSH5 0x736F6C6343 STOP ADDMOD BYTE STOP CALLER "
				},
				"gasEstimates": {
					"creation": {
						"codeDepositCost": "127200",
						"executionCost": "169",
						"totalCost": "127369"
					},
					"external": {
						"swapWithoutthirdVariable(int256,int256)": "infinite",
						"swapWiththirdVariable(int256,int256)": "infinite"
					}
				},
				"methodIdentifiers": {
					"swapWithoutthirdVariable(int256,int256)": "a90494a2",
					"swapWiththirdVariable(int256,int256)": "1b2736e8"
				}
			},
			"storageLayout": {
				"storage": [],
				"types": null
			},
			"userdoc": {
				"kind": "user",
				"methods": {},
				"version": 1
			}
		}
	}
}