{
	"Day6/p1.sol": {
		"Programmer": {
			"abi": [
				{
					"inputs": [
						{
							"internalType": "string",
							"name": "_name",
							"type": "string"
						},
						{
							"internalType": "string",
							"name": "_employeeAddress",
							"type": "string"
						},
						{
							"internalType": "uint256",
							"name": "_salary",
							"type": "uint256"
						},
						{
							"internalType": "string",
							"name": "_jobTitle",
							"type": "string"
						},
						{
							"internalType": "string",
							"name": "_programmingLanguage",
							"type": "string"
						}
					],
					"stateMutability": "nonpayable",
					"type": "constructor"
				},
				{
					"inputs": [],
					"name": "calculateBonus",
					"outputs": [
						{
							"internalType": "uint256",
							"name": "",
							"type": "uint256"
						}
					],
					"stateMutability": "view",
					"type": "function"
				},
				{
					"inputs": [],
					"name": "employeeAddress",
					"outputs": [
						{
							"internalType": "string",
							"name": "",
							"type": "string"
						}
					],
					"stateMutability": "view",
					"type": "function"
				},
				{
					"inputs": [],
					"name": "generatePerformanceReport",
					"outputs": [
						{
							"internalType": "string",
							"name": "",
							"type": "string"
						}
					],
					"stateMutability": "view",
					"type": "function"
				},
				{
					"inputs": [],
					"name": "jobTitle",
					"outputs": [
						{
							"internalType": "string",
							"name": "",
							"type": "string"
						}
					],
					"stateMutability": "view",
					"type": "function"
				},
				{
					"inputs": [],
					"name": "name",
					"outputs": [
						{
							"internalType": "string",
							"name": "",
							"type": "string"
						}
					],
					"stateMutability": "view",
					"type": "function"
				},
				{
					"inputs": [],
					"name": "programmingLanguage",
					"outputs": [
						{
							"internalType": "string",
							"name": "",
							"type": "string"
						}
					],
					"stateMutability": "view",
					"type": "function"
				},
				{
					"inputs": [],
					"name": "salary",
					"outputs": [
						{
							"internalType": "uint256",
							"name": "",
							"type": "uint256"
						}
					],
					"stateMutability": "view",
					"type": "function"
				},
				{
					"inputs": [],
					"name": "writeCode",
					"outputs": [
						{
							"internalType": "string",
							"name": "",
							"type": "string"
						}
					],
					"stateMutability": "view",
					"type": "function"
				}
			],
			"devdoc": {
				"kind": "dev",
				"methods": {},
				"version": 1
			},
			"evm": {
				"assembly": "    /* \"Day6/p1.sol\":1655:2165  contract Programmer is Employee {... */\n  mstore(0x40, 0x80)\n    /* \"Day6/p1.sol\":1734:1998  constructor(string memory _name, string memory _employeeAddress, uint _salary, string memory _jobTitle, string memory _programmingLanguage)... */\n  callvalue\n  dup1\n  iszero\n  tag_1\n  jumpi\n  0x00\n  dup1\n  revert\ntag_1:\n  pop\n  mload(0x40)\n  sub(codesize, bytecodeSize)\n  dup1\n  bytecodeSize\n  dup4\n  codecopy\n  dup2\n  dup2\n  add\n  0x40\n  mstore\n  dup2\n  add\n  swap1\n  tag_2\n  swap2\n  swap1\n  tag_3\n  jump\t// in\ntag_2:\n    /* \"Day6/p1.sol\":1892:1897  _name */\n  dup5\n    /* \"Day6/p1.sol\":1899:1915  _employeeAddress */\n  dup5\n    /* \"Day6/p1.sol\":1917:1924  _salary */\n  dup5\n    /* \"Day6/p1.sol\":1926:1935  _jobTitle */\n  dup5\n    /* \"Day6/p1.sol\":332:337  _name */\n  dup4\n    /* \"Day6/p1.sol\":325:329  name */\n  0x00\n    /* \"Day6/p1.sol\":325:337  name = _name */\n  swap1\n  dup2\n  tag_7\n  swap2\n  swap1\n  tag_8\n  jump\t// in\ntag_7:\n  pop\n    /* \"Day6/p1.sol\":366:382  _employeeAddress */\n  dup3\n    /* \"Day6/p1.sol\":348:363  employeeAddress */\n  0x01\n    /* \"Day6/p1.sol\":348:382  employeeAddress = _employeeAddress */\n  swap1\n  dup2\n  tag_9\n  swap2\n  swap1\n  tag_8\n  jump\t// in\ntag_9:\n  pop\n    /* \"Day6/p1.sol\":402:409  _salary */\n  dup2\n    /* \"Day6/p1.sol\":393:399  salary */\n  0x02\n    /* \"Day6/p1.sol\":393:409  salary = _salary */\n  dup2\n  swap1\n  sstore\n  pop\n    /* \"Day6/p1.sol\":431:440  _jobTitle */\n  dup1\n    /* \"Day6/p1.sol\":420:428  jobTitle */\n  0x03\n    /* \"Day6/p1.sol\":420:440  jobTitle = _jobTitle */\n  swap1\n  dup2\n  tag_10\n  swap2\n  swap1\n  tag_8\n  jump\t// in\ntag_10:\n  pop\n    /* \"Day6/p1.sol\":210:448  constructor(string memory _name, string memory _employeeAddress, uint _salary, string memory _jobTitle) {... */\n  pop\n  pop\n  pop\n  pop\n    /* \"Day6/p1.sol\":1970:1990  _programmingLanguage */\n  dup1\n    /* \"Day6/p1.sol\":1948:1967  programmingLanguage */\n  0x04\n    /* \"Day6/p1.sol\":1948:1990  programmingLanguage = _programmingLanguage */\n  swap1\n  dup2\n  tag_12\n  swap2\n  swap1\n  tag_8\n  jump\t// in\ntag_12:\n  pop\n    /* \"Day6/p1.sol\":1734:1998  constructor(string memory _name, string memory _employeeAddress, uint _salary, string memory _jobTitle, string memory _programmingLanguage)... */\n  pop\n  pop\n  pop\n  pop\n  pop\n    /* \"Day6/p1.sol\":1655:2165  contract Programmer is Employee {... */\n  jump(tag_13)\n    /* \"#utility.yul\":7:82   */\ntag_14:\n    /* \"#utility.yul\":40:46   */\n  0x00\n    /* \"#utility.yul\":73:75   */\n  0x40\n    /* \"#utility.yul\":67:76   */\n  mload\n    /* \"#utility.yul\":57:76   */\n  swap1\n  pop\n    /* \"#utility.yul\":7:82   */\n  swap1\n  jump\t// out\n    /* \"#utility.yul\":88:205   */\ntag_15:\n    /* \"#utility.yul\":197:198   */\n  0x00\n    /* \"#utility.yul\":194:195   */\n  dup1\n    /* \"#utility.yul\":187:199   */\n  revert\n    /* \"#utility.yul\":211:328   */\ntag_16:\n    /* \"#utility.yul\":320:321   */\n  0x00\n    /* \"#utility.yul\":317:318   */\n  dup1\n    /* \"#utility.yul\":310:322   */\n  revert\n    /* \"#utility.yul\":334:451   */\ntag_17:\n    /* \"#utility.yul\":443:444   */\n  0x00\n    /* \"#utility.yul\":440:441   */\n  dup1\n    /* \"#utility.yul\":433:445   */\n  revert\n    /* \"#utility.yul\":457:574   */\ntag_18:\n    /* \"#utility.yul\":566:567   */\n  0x00\n    /* \"#utility.yul\":563:564   */\n  dup1\n    /* \"#utility.yul\":556:568   */\n  revert\n    /* \"#utility.yul\":580:682   */\ntag_19:\n    /* \"#utility.yul\":621:627   */\n  0x00\n    /* \"#utility.yul\":672:674   */\n  0x1f\n    /* \"#utility.yul\":668:675   */\n  not\n    /* \"#utility.yul\":663:665   */\n  0x1f\n    /* \"#utility.yul\":656:661   */\n  dup4\n    /* \"#utility.yul\":652:666   */\n  add\n    /* \"#utility.yul\":648:676   */\n  and\n    /* \"#utility.yul\":638:676   */\n  swap1\n  pop\n    /* \"#utility.yul\":580:682   */\n  swap2\n  swap1\n  pop\n  jump\t// out\n    /* \"#utility.yul\":688:868   */\ntag_20:\n    /* \"#utility.yul\":736:813   */\n  0x4e487b7100000000000000000000000000000000000000000000000000000000\n    /* \"#utility.yul\":733:734   */\n  0x00\n    /* \"#utility.yul\":726:814   */\n  mstore\n    /* \"#utility.yul\":833:837   */\n  0x41\n    /* \"#utility.yul\":830:831   */\n  0x04\n    /* \"#utility.yul\":823:838   */\n  mstore\n    /* \"#utility.yul\":857:861   */\n  0x24\n    /* \"#utility.yul\":854:855   */\n  0x00\n    /* \"#utility.yul\":847:862   */\n  revert\n    /* \"#utility.yul\":874:1155   */\ntag_21:\n    /* \"#utility.yul\":957:984   */\n  tag_57\n    /* \"#utility.yul\":979:983   */\n  dup3\n    /* \"#utility.yul\":957:984   */\n  tag_19\n  jump\t// in\ntag_57:\n    /* \"#utility.yul\":949:955   */\n  dup2\n    /* \"#utility.yul\":945:985   */\n  add\n    /* \"#utility.yul\":1087:1093   */\n  dup2\n    /* \"#utility.yul\":1075:1085   */\n  dup2\n    /* \"#utility.yul\":1072:1094   */\n  lt\n    /* \"#utility.yul\":1051:1069   */\n  0xffffffffffffffff\n    /* \"#utility.yul\":1039:1049   */\n  dup3\n    /* \"#utility.yul\":1036:1070   */\n  gt\n    /* \"#utility.yul\":1033:1095   */\n  or\n    /* \"#utility.yul\":1030:1118   */\n  iszero\n  tag_58\n  jumpi\n    /* \"#utility.yul\":1098:1116   */\n  tag_59\n  tag_20\n  jump\t// in\ntag_59:\n    /* \"#utility.yul\":1030:1118   */\ntag_58:\n    /* \"#utility.yul\":1138:1148   */\n  dup1\n    /* \"#utility.yul\":1134:1136   */\n  0x40\n    /* \"#utility.yul\":1127:1149   */\n  mstore\n    /* \"#utility.yul\":917:1155   */\n  pop\n    /* \"#utility.yul\":874:1155   */\n  pop\n  pop\n  jump\t// out\n    /* \"#utility.yul\":1161:1290   */\ntag_22:\n    /* \"#utility.yul\":1195:1201   */\n  0x00\n    /* \"#utility.yul\":1222:1242   */\n  tag_61\n  tag_14\n  jump\t// in\ntag_61:\n    /* \"#utility.yul\":1212:1242   */\n  swap1\n  pop\n    /* \"#utility.yul\":1251:1284   */\n  tag_62\n    /* \"#utility.yul\":1279:1283   */\n  dup3\n    /* \"#utility.yul\":1271:1277   */\n  dup3\n    /* \"#utility.yul\":1251:1284   */\n  tag_21\n  jump\t// in\ntag_62:\n    /* \"#utility.yul\":1161:1290   */\n  swap2\n  swap1\n  pop\n  jump\t// out\n    /* \"#utility.yul\":1296:1604   */\ntag_23:\n    /* \"#utility.yul\":1358:1362   */\n  0x00\n    /* \"#utility.yul\":1448:1466   */\n  0xffffffffffffffff\n    /* \"#utility.yul\":1440:1446   */\n  dup3\n    /* \"#utility.yul\":1437:1467   */\n  gt\n    /* \"#utility.yul\":1434:1490   */\n  iszero\n  tag_64\n  jumpi\n    /* \"#utility.yul\":1470:1488   */\n  tag_65\n  tag_20\n  jump\t// in\ntag_65:\n    /* \"#utility.yul\":1434:1490   */\ntag_64:\n    /* \"#utility.yul\":1508:1537   */\n  tag_66\n    /* \"#utility.yul\":1530:1536   */\n  dup3\n    /* \"#utility.yul\":1508:1537   */\n  tag_19\n  jump\t// in\ntag_66:\n    /* \"#utility.yul\":1500:1537   */\n  swap1\n  pop\n    /* \"#utility.yul\":1592:1596   */\n  0x20\n    /* \"#utility.yul\":1586:1590   */\n  dup2\n    /* \"#utility.yul\":1582:1597   */\n  add\n    /* \"#utility.yul\":1574:1597   */\n  swap1\n  pop\n    /* \"#utility.yul\":1296:1604   */\n  swap2\n  swap1\n  pop\n  jump\t// out\n    /* \"#utility.yul\":1610:1749   */\ntag_24:\n    /* \"#utility.yul\":1699:1705   */\n  dup3\n    /* \"#utility.yul\":1694:1697   */\n  dup2\n    /* \"#utility.yul\":1689:1692   */\n  dup4\n    /* \"#utility.yul\":1683:1706   */\n  mcopy\n    /* \"#utility.yul\":1740:1741   */\n  0x00\n    /* \"#utility.yul\":1731:1737   */\n  dup4\n    /* \"#utility.yul\":1726:1729   */\n  dup4\n    /* \"#utility.yul\":1722:1738   */\n  add\n    /* \"#utility.yul\":1715:1742   */\n  mstore\n    /* \"#utility.yul\":1610:1749   */\n  pop\n  pop\n  pop\n  jump\t// out\n    /* \"#utility.yul\":1755:2189   */\ntag_25:\n    /* \"#utility.yul\":1844:1849   */\n  0x00\n    /* \"#utility.yul\":1869:1935   */\n  tag_69\n    /* \"#utility.yul\":1885:1934   */\n  tag_70\n    /* \"#utility.yul\":1927:1933   */\n  dup5\n    /* \"#utility.yul\":1885:1934   */\n  tag_23\n  jump\t// in\ntag_70:\n    /* \"#utility.yul\":1869:1935   */\n  tag_22\n  jump\t// in\ntag_69:\n    /* \"#utility.yul\":1860:1935   */\n  swap1\n  pop\n    /* \"#utility.yul\":1958:1964   */\n  dup3\n    /* \"#utility.yul\":1951:1956   */\n  dup2\n    /* \"#utility.yul\":1944:1965   */\n  mstore\n    /* \"#utility.yul\":1996:2000   */\n  0x20\n    /* \"#utility.yul\":1989:1994   */\n  dup2\n    /* \"#utility.yul\":1985:2001   */\n  add\n    /* \"#utility.yul\":2034:2037   */\n  dup5\n    /* \"#utility.yul\":2025:2031   */\n  dup5\n    /* \"#utility.yul\":2020:2023   */\n  dup5\n    /* \"#utility.yul\":2016:2032   */\n  add\n    /* \"#utility.yul\":2013:2038   */\n  gt\n    /* \"#utility.yul\":2010:2122   */\n  iszero\n  tag_71\n  jumpi\n    /* \"#utility.yul\":2041:2120   */\n  tag_72\n  tag_18\n  jump\t// in\ntag_72:\n    /* \"#utility.yul\":2010:2122   */\ntag_71:\n    /* \"#utility.yul\":2131:2183   */\n  tag_73\n    /* \"#utility.yul\":2176:2182   */\n  dup5\n    /* \"#utility.yul\":2171:2174   */\n  dup3\n    /* \"#utility.yul\":2166:2169   */\n  dup6\n    /* \"#utility.yul\":2131:2183   */\n  tag_24\n  jump\t// in\ntag_73:\n    /* \"#utility.yul\":1850:2189   */\n  pop\n    /* \"#utility.yul\":1755:2189   */\n  swap4\n  swap3\n  pop\n  pop\n  pop\n  jump\t// out\n    /* \"#utility.yul\":2209:2564   */\ntag_26:\n    /* \"#utility.yul\":2276:2281   */\n  0x00\n    /* \"#utility.yul\":2325:2328   */\n  dup3\n    /* \"#utility.yul\":2318:2322   */\n  0x1f\n    /* \"#utility.yul\":2310:2316   */\n  dup4\n    /* \"#utility.yul\":2306:2323   */\n  add\n    /* \"#utility.yul\":2302:2329   */\n  slt\n    /* \"#utility.yul\":2292:2414   */\n  tag_75\n  jumpi\n    /* \"#utility.yul\":2333:2412   */\n  tag_76\n  tag_17\n  jump\t// in\ntag_76:\n    /* \"#utility.yul\":2292:2414   */\ntag_75:\n    /* \"#utility.yul\":2443:2449   */\n  dup2\n    /* \"#utility.yul\":2437:2450   */\n  mload\n    /* \"#utility.yul\":2468:2558   */\n  tag_77\n    /* \"#utility.yul\":2554:2557   */\n  dup5\n    /* \"#utility.yul\":2546:2552   */\n  dup3\n    /* \"#utility.yul\":2539:2543   */\n  0x20\n    /* \"#utility.yul\":2531:2537   */\n  dup7\n    /* \"#utility.yul\":2527:2544   */\n  add\n    /* \"#utility.yul\":2468:2558   */\n  tag_25\n  jump\t// in\ntag_77:\n    /* \"#utility.yul\":2459:2558   */\n  swap2\n  pop\n    /* \"#utility.yul\":2282:2564   */\n  pop\n    /* \"#utility.yul\":2209:2564   */\n  swap3\n  swap2\n  pop\n  pop\n  jump\t// out\n    /* \"#utility.yul\":2570:2647   */\ntag_27:\n    /* \"#utility.yul\":2607:2614   */\n  0x00\n    /* \"#utility.yul\":2636:2641   */\n  dup2\n    /* \"#utility.yul\":2625:2641   */\n  swap1\n  pop\n    /* \"#utility.yul\":2570:2647   */\n  swap2\n  swap1\n  pop\n  jump\t// out\n    /* \"#utility.yul\":2653:2775   */\ntag_28:\n    /* \"#utility.yul\":2726:2750   */\n  tag_80\n    /* \"#utility.yul\":2744:2749   */\n  dup2\n    /* \"#utility.yul\":2726:2750   */\n  tag_27\n  jump\t// in\ntag_80:\n    /* \"#utility.yul\":2719:2724   */\n  dup2\n    /* \"#utility.yul\":2716:2751   */\n  eq\n    /* \"#utility.yul\":2706:2769   */\n  tag_81\n  jumpi\n    /* \"#utility.yul\":2765:2766   */\n  0x00\n    /* \"#utility.yul\":2762:2763   */\n  dup1\n    /* \"#utility.yul\":2755:2767   */\n  revert\n    /* \"#utility.yul\":2706:2769   */\ntag_81:\n    /* \"#utility.yul\":2653:2775   */\n  pop\n  jump\t// out\n    /* \"#utility.yul\":2781:2924   */\ntag_29:\n    /* \"#utility.yul\":2838:2843   */\n  0x00\n    /* \"#utility.yul\":2869:2875   */\n  dup2\n    /* \"#utility.yul\":2863:2876   */\n  mload\n    /* \"#utility.yul\":2854:2876   */\n  swap1\n  pop\n    /* \"#utility.yul\":2885:2918   */\n  tag_83\n    /* \"#utility.yul\":2912:2917   */\n  dup2\n    /* \"#utility.yul\":2885:2918   */\n  tag_28\n  jump\t// in\ntag_83:\n    /* \"#utility.yul\":2781:2924   */\n  swap3\n  swap2\n  pop\n  pop\n  jump\t// out\n    /* \"#utility.yul\":2930:4599   */\ntag_3:\n    /* \"#utility.yul\":3076:3082   */\n  0x00\n    /* \"#utility.yul\":3084:3090   */\n  dup1\n    /* \"#utility.yul\":3092:3098   */\n  0x00\n    /* \"#utility.yul\":3100:3106   */\n  dup1\n    /* \"#utility.yul\":3108:3114   */\n  0x00\n    /* \"#utility.yul\":3157:3160   */\n  0xa0\n    /* \"#utility.yul\":3145:3154   */\n  dup7\n    /* \"#utility.yul\":3136:3143   */\n  dup9\n    /* \"#utility.yul\":3132:3155   */\n  sub\n    /* \"#utility.yul\":3128:3161   */\n  slt\n    /* \"#utility.yul\":3125:3245   */\n  iszero\n  tag_85\n  jumpi\n    /* \"#utility.yul\":3164:3243   */\n  tag_86\n  tag_15\n  jump\t// in\ntag_86:\n    /* \"#utility.yul\":3125:3245   */\ntag_85:\n    /* \"#utility.yul\":3305:3306   */\n  0x00\n    /* \"#utility.yul\":3294:3303   */\n  dup7\n    /* \"#utility.yul\":3290:3307   */\n  add\n    /* \"#utility.yul\":3284:3308   */\n  mload\n    /* \"#utility.yul\":3335:3353   */\n  0xffffffffffffffff\n    /* \"#utility.yul\":3327:3333   */\n  dup2\n    /* \"#utility.yul\":3324:3354   */\n  gt\n    /* \"#utility.yul\":3321:3438   */\n  iszero\n  tag_87\n  jumpi\n    /* \"#utility.yul\":3357:3436   */\n  tag_88\n  tag_16\n  jump\t// in\ntag_88:\n    /* \"#utility.yul\":3321:3438   */\ntag_87:\n    /* \"#utility.yul\":3462:3536   */\n  tag_89\n    /* \"#utility.yul\":3528:3535   */\n  dup9\n    /* \"#utility.yul\":3519:3525   */\n  dup3\n    /* \"#utility.yul\":3508:3517   */\n  dup10\n    /* \"#utility.yul\":3504:3526   */\n  add\n    /* \"#utility.yul\":3462:3536   */\n  tag_26\n  jump\t// in\ntag_89:\n    /* \"#utility.yul\":3452:3536   */\n  swap6\n  pop\n    /* \"#utility.yul\":3255:3546   */\n  pop\n    /* \"#utility.yul\":3606:3608   */\n  0x20\n    /* \"#utility.yul\":3595:3604   */\n  dup7\n    /* \"#utility.yul\":3591:3609   */\n  add\n    /* \"#utility.yul\":3585:3610   */\n  mload\n    /* \"#utility.yul\":3637:3655   */\n  0xffffffffffffffff\n    /* \"#utility.yul\":3629:3635   */\n  dup2\n    /* \"#utility.yul\":3626:3656   */\n  gt\n    /* \"#utility.yul\":3623:3740   */\n  iszero\n  tag_90\n  jumpi\n    /* \"#utility.yul\":3659:3738   */\n  tag_91\n  tag_16\n  jump\t// in\ntag_91:\n    /* \"#utility.yul\":3623:3740   */\ntag_90:\n    /* \"#utility.yul\":3764:3838   */\n  tag_92\n    /* \"#utility.yul\":3830:3837   */\n  dup9\n    /* \"#utility.yul\":3821:3827   */\n  dup3\n    /* \"#utility.yul\":3810:3819   */\n  dup10\n    /* \"#utility.yul\":3806:3828   */\n  add\n    /* \"#utility.yul\":3764:3838   */\n  tag_26\n  jump\t// in\ntag_92:\n    /* \"#utility.yul\":3754:3838   */\n  swap5\n  pop\n    /* \"#utility.yul\":3556:3848   */\n  pop\n    /* \"#utility.yul\":3887:3889   */\n  0x40\n    /* \"#utility.yul\":3913:3977   */\n  tag_93\n    /* \"#utility.yul\":3969:3976   */\n  dup9\n    /* \"#utility.yul\":3960:3966   */\n  dup3\n    /* \"#utility.yul\":3949:3958   */\n  dup10\n    /* \"#utility.yul\":3945:3967   */\n  add\n    /* \"#utility.yul\":3913:3977   */\n  tag_29\n  jump\t// in\ntag_93:\n    /* \"#utility.yul\":3903:3977   */\n  swap4\n  pop\n    /* \"#utility.yul\":3858:3987   */\n  pop\n    /* \"#utility.yul\":4047:4049   */\n  0x60\n    /* \"#utility.yul\":4036:4045   */\n  dup7\n    /* \"#utility.yul\":4032:4050   */\n  add\n    /* \"#utility.yul\":4026:4051   */\n  mload\n    /* \"#utility.yul\":4078:4096   */\n  0xffffffffffffffff\n    /* \"#utility.yul\":4070:4076   */\n  dup2\n    /* \"#utility.yul\":4067:4097   */\n  gt\n    /* \"#utility.yul\":4064:4181   */\n  iszero\n  tag_94\n  jumpi\n    /* \"#utility.yul\":4100:4179   */\n  tag_95\n  tag_16\n  jump\t// in\ntag_95:\n    /* \"#utility.yul\":4064:4181   */\ntag_94:\n    /* \"#utility.yul\":4205:4279   */\n  tag_96\n    /* \"#utility.yul\":4271:4278   */\n  dup9\n    /* \"#utility.yul\":4262:4268   */\n  dup3\n    /* \"#utility.yul\":4251:4260   */\n  dup10\n    /* \"#utility.yul\":4247:4269   */\n  add\n    /* \"#utility.yul\":4205:4279   */\n  tag_26\n  jump\t// in\ntag_96:\n    /* \"#utility.yul\":4195:4279   */\n  swap3\n  pop\n    /* \"#utility.yul\":3997:4289   */\n  pop\n    /* \"#utility.yul\":4349:4352   */\n  0x80\n    /* \"#utility.yul\":4338:4347   */\n  dup7\n    /* \"#utility.yul\":4334:4353   */\n  add\n    /* \"#utility.yul\":4328:4354   */\n  mload\n    /* \"#utility.yul\":4381:4399   */\n  0xffffffffffffffff\n    /* \"#utility.yul\":4373:4379   */\n  dup2\n    /* \"#utility.yul\":4370:4400   */\n  gt\n    /* \"#utility.yul\":4367:4484   */\n  iszero\n  tag_97\n  jumpi\n    /* \"#utility.yul\":4403:4482   */\n  tag_98\n  tag_16\n  jump\t// in\ntag_98:\n    /* \"#utility.yul\":4367:4484   */\ntag_97:\n    /* \"#utility.yul\":4508:4582   */\n  tag_99\n    /* \"#utility.yul\":4574:4581   */\n  dup9\n    /* \"#utility.yul\":4565:4571   */\n  dup3\n    /* \"#utility.yul\":4554:4563   */\n  dup10\n    /* \"#utility.yul\":4550:4572   */\n  add\n    /* \"#utility.yul\":4508:4582   */\n  tag_26\n  jump\t// in\ntag_99:\n    /* \"#utility.yul\":4498:4582   */\n  swap2\n  pop\n    /* \"#utility.yul\":4299:4592   */\n  pop\n    /* \"#utility.yul\":2930:4599   */\n  swap3\n  swap6\n  pop\n  swap3\n  swap6\n  swap1\n  swap4\n  pop\n  jump\t// out\n    /* \"#utility.yul\":4605:4704   */\ntag_30:\n    /* \"#utility.yul\":4657:4663   */\n  0x00\n    /* \"#utility.yul\":4691:4696   */\n  dup2\n    /* \"#utility.yul\":4685:4697   */\n  mload\n    /* \"#utility.yul\":4675:4697   */\n  swap1\n  pop\n    /* \"#utility.yul\":4605:4704   */\n  swap2\n  swap1\n  pop\n  jump\t// out\n    /* \"#utility.yul\":4710:4890   */\ntag_31:\n    /* \"#utility.yul\":4758:4835   */\n  0x4e487b7100000000000000000000000000000000000000000000000000000000\n    /* \"#utility.yul\":4755:4756   */\n  0x00\n    /* \"#utility.yul\":4748:4836   */\n  mstore\n    /* \"#utility.yul\":4855:4859   */\n  0x22\n    /* \"#utility.yul\":4852:4853   */\n  0x04\n    /* \"#utility.yul\":4845:4860   */\n  mstore\n    /* \"#utility.yul\":4879:4883   */\n  0x24\n    /* \"#utility.yul\":4876:4877   */\n  0x00\n    /* \"#utility.yul\":4869:4884   */\n  revert\n    /* \"#utility.yul\":4896:5216   */\ntag_32:\n    /* \"#utility.yul\":4940:4946   */\n  0x00\n    /* \"#utility.yul\":4977:4978   */\n  0x02\n    /* \"#utility.yul\":4971:4975   */\n  dup3\n    /* \"#utility.yul\":4967:4979   */\n  div\n    /* \"#utility.yul\":4957:4979   */\n  swap1\n  pop\n    /* \"#utility.yul\":5024:5025   */\n  0x01\n    /* \"#utility.yul\":5018:5022   */\n  dup3\n    /* \"#utility.yul\":5014:5026   */\n  and\n    /* \"#utility.yul\":5045:5063   */\n  dup1\n    /* \"#utility.yul\":5035:5116   */\n  tag_103\n  jumpi\n    /* \"#utility.yul\":5101:5105   */\n  0x7f\n    /* \"#utility.yul\":5093:5099   */\n  dup3\n    /* \"#utility.yul\":5089:5106   */\n  and\n    /* \"#utility.yul\":5079:5106   */\n  swap2\n  pop\n    /* \"#utility.yul\":5035:5116   */\ntag_103:\n    /* \"#utility.yul\":5163:5165   */\n  0x20\n    /* \"#utility.yul\":5155:5161   */\n  dup3\n    /* \"#utility.yul\":5152:5166   */\n  lt\n    /* \"#utility.yul\":5132:5150   */\n  dup2\n    /* \"#utility.yul\":5129:5167   */\n  sub\n    /* \"#utility.yul\":5126:5210   */\n  tag_104\n  jumpi\n    /* \"#utility.yul\":5182:5200   */\n  tag_105\n  tag_31\n  jump\t// in\ntag_105:\n    /* \"#utility.yul\":5126:5210   */\ntag_104:\n    /* \"#utility.yul\":4947:5216   */\n  pop\n    /* \"#utility.yul\":4896:5216   */\n  swap2\n  swap1\n  pop\n  jump\t// out\n    /* \"#utility.yul\":5222:5363   */\ntag_33:\n    /* \"#utility.yul\":5271:5275   */\n  0x00\n    /* \"#utility.yul\":5294:5297   */\n  dup2\n    /* \"#utility.yul\":5286:5297   */\n  swap1\n  pop\n    /* \"#utility.yul\":5317:5320   */\n  dup2\n    /* \"#utility.yul\":5314:5315   */\n  0x00\n    /* \"#utility.yul\":5307:5321   */\n  mstore\n    /* \"#utility.yul\":5351:5355   */\n  0x20\n    /* \"#utility.yul\":5348:5349   */\n  0x00\n    /* \"#utility.yul\":5338:5356   */\n  keccak256\n    /* \"#utility.yul\":5330:5356   */\n  swap1\n  pop\n    /* \"#utility.yul\":5222:5363   */\n  swap2\n  swap1\n  pop\n  jump\t// out\n    /* \"#utility.yul\":5369:5462   */\ntag_34:\n    /* \"#utility.yul\":5406:5412   */\n  0x00\n    /* \"#utility.yul\":5453:5455   */\n  0x20\n    /* \"#utility.yul\":5448:5450   */\n  0x1f\n    /* \"#utility.yul\":5441:5446   */\n  dup4\n    /* \"#utility.yul\":5437:5451   */\n  add\n    /* \"#utility.yul\":5433:5456   */\n  div\n    /* \"#utility.yul\":5423:5456   */\n  swap1\n  pop\n    /* \"#utility.yul\":5369:5462   */\n  swap2\n  swap1\n  pop\n  jump\t// out\n    /* \"#utility.yul\":5468:5575   */\ntag_35:\n    /* \"#utility.yul\":5512:5520   */\n  0x00\n    /* \"#utility.yul\":5562:5567   */\n  dup3\n    /* \"#utility.yul\":5556:5560   */\n  dup3\n    /* \"#utility.yul\":5552:5568   */\n  shl\n    /* \"#utility.yul\":5531:5568   */\n  swap1\n  pop\n    /* \"#utility.yul\":5468:5575   */\n  swap3\n  swap2\n  pop\n  pop\n  jump\t// out\n    /* \"#utility.yul\":5581:5974   */\ntag_36:\n    /* \"#utility.yul\":5650:5656   */\n  0x00\n    /* \"#utility.yul\":5700:5701   */\n  0x08\n    /* \"#utility.yul\":5688:5698   */\n  dup4\n    /* \"#utility.yul\":5684:5702   */\n  mul\n    /* \"#utility.yul\":5723:5820   */\n  tag_110\n    /* \"#utility.yul\":5753:5819   */\n  0xffffffffffffffffffffffffffffffffffffffffffffffffffffffffffffffff\n    /* \"#utility.yul\":5742:5751   */\n  dup3\n    /* \"#utility.yul\":5723:5820   */\n  tag_35\n  jump\t// in\ntag_110:\n    /* \"#utility.yul\":5841:5880   */\n  tag_111\n    /* \"#utility.yul\":5871:5879   */\n  dup7\n    /* \"#utility.yul\":5860:5869   */\n  dup4\n    /* \"#utility.yul\":5841:5880   */\n  tag_35\n  jump\t// in\ntag_111:\n    /* \"#utility.yul\":5829:5880   */\n  swap6\n  pop\n    /* \"#utility.yul\":5913:5917   */\n  dup1\n    /* \"#utility.yul\":5909:5918   */\n  not\n    /* \"#utility.yul\":5902:5907   */\n  dup5\n    /* \"#utility.yul\":5898:5919   */\n  and\n    /* \"#utility.yul\":5889:5919   */\n  swap4\n  pop\n    /* \"#utility.yul\":5962:5966   */\n  dup1\n    /* \"#utility.yul\":5952:5960   */\n  dup7\n    /* \"#utility.yul\":5948:5967   */\n  and\n    /* \"#utility.yul\":5941:5946   */\n  dup5\n    /* \"#utility.yul\":5938:5968   */\n  or\n    /* \"#utility.yul\":5928:5968   */\n  swap3\n  pop\n    /* \"#utility.yul\":5657:5974   */\n  pop\n  pop\n    /* \"#utility.yul\":5581:5974   */\n  swap4\n  swap3\n  pop\n  pop\n  pop\n  jump\t// out\n    /* \"#utility.yul\":5980:6040   */\ntag_37:\n    /* \"#utility.yul\":6008:6011   */\n  0x00\n    /* \"#utility.yul\":6029:6034   */\n  dup2\n    /* \"#utility.yul\":6022:6034   */\n  swap1\n  pop\n    /* \"#utility.yul\":5980:6040   */\n  swap2\n  swap1\n  pop\n  jump\t// out\n    /* \"#utility.yul\":6046:6188   */\ntag_38:\n    /* \"#utility.yul\":6096:6105   */\n  0x00\n    /* \"#utility.yul\":6129:6182   */\n  tag_114\n    /* \"#utility.yul\":6147:6181   */\n  tag_115\n    /* \"#utility.yul\":6156:6180   */\n  tag_116\n    /* \"#utility.yul\":6174:6179   */\n  dup5\n    /* \"#utility.yul\":6156:6180   */\n  tag_27\n  jump\t// in\ntag_116:\n    /* \"#utility.yul\":6147:6181   */\n  tag_37\n  jump\t// in\ntag_115:\n    /* \"#utility.yul\":6129:6182   */\n  tag_27\n  jump\t// in\ntag_114:\n    /* \"#utility.yul\":6116:6182   */\n  swap1\n  pop\n    /* \"#utility.yul\":6046:6188   */\n  swap2\n  swap1\n  pop\n  jump\t// out\n    /* \"#utility.yul\":6194:6269   */\ntag_39:\n    /* \"#utility.yul\":6237:6240   */\n  0x00\n    /* \"#utility.yul\":6258:6263   */\n  dup2\n    /* \"#utility.yul\":6251:6263   */\n  swap1\n  pop\n    /* \"#utility.yul\":6194:6269   */\n  swap2\n  swap1\n  pop\n  jump\t// out\n    /* \"#utility.yul\":6275:6544   */\ntag_40:\n    /* \"#utility.yul\":6385:6424   */\n  tag_119\n    /* \"#utility.yul\":6416:6423   */\n  dup4\n    /* \"#utility.yul\":6385:6424   */\n  tag_38\n  jump\t// in\ntag_119:\n    /* \"#utility.yul\":6446:6537   */\n  tag_120\n    /* \"#utility.yul\":6495:6536   */\n  tag_121\n    /* \"#utility.yul\":6519:6535   */\n  dup3\n    /* \"#utility.yul\":6495:6536   */\n  tag_39\n  jump\t// in\ntag_121:\n    /* \"#utility.yul\":6487:6493   */\n  dup5\n    /* \"#utility.yul\":6480:6484   */\n  dup5\n    /* \"#utility.yul\":6474:6485   */\n  sload\n    /* \"#utility.yul\":6446:6537   */\n  tag_36\n  jump\t// in\ntag_120:\n    /* \"#utility.yul\":6440:6444   */\n  dup3\n    /* \"#utility.yul\":6433:6538   */\n  sstore\n    /* \"#utility.yul\":6351:6544   */\n  pop\n    /* \"#utility.yul\":6275:6544   */\n  pop\n  pop\n  pop\n  jump\t// out\n    /* \"#utility.yul\":6550:6623   */\ntag_41:\n    /* \"#utility.yul\":6595:6598   */\n  0x00\n    /* \"#utility.yul\":6550:6623   */\n  swap1\n  jump\t// out\n    /* \"#utility.yul\":6629:6818   */\ntag_42:\n    /* \"#utility.yul\":6706:6738   */\n  tag_124\n  tag_41\n  jump\t// in\ntag_124:\n    /* \"#utility.yul\":6747:6812   */\n  tag_125\n    /* \"#utility.yul\":6805:6811   */\n  dup2\n    /* \"#utility.yul\":6797:6803   */\n  dup5\n    /* \"#utility.yul\":6791:6795   */\n  dup5\n    /* \"#utility.yul\":6747:6812   */\n  tag_40\n  jump\t// in\ntag_125:\n    /* \"#utility.yul\":6682:6818   */\n  pop\n    /* \"#utility.yul\":6629:6818   */\n  pop\n  pop\n  jump\t// out\n    /* \"#utility.yul\":6824:7010   */\ntag_43:\n    /* \"#utility.yul\":6884:7004   */\ntag_127:\n    /* \"#utility.yul\":6901:6904   */\n  dup2\n    /* \"#utility.yul\":6894:6899   */\n  dup2\n    /* \"#utility.yul\":6891:6905   */\n  lt\n    /* \"#utility.yul\":6884:7004   */\n  iszero\n  tag_129\n  jumpi\n    /* \"#utility.yul\":6955:6994   */\n  tag_130\n    /* \"#utility.yul\":6992:6993   */\n  0x00\n    /* \"#utility.yul\":6985:6990   */\n  dup3\n    /* \"#utility.yul\":6955:6994   */\n  tag_42\n  jump\t// in\ntag_130:\n    /* \"#utility.yul\":6928:6929   */\n  0x01\n    /* \"#utility.yul\":6921:6926   */\n  dup2\n    /* \"#utility.yul\":6917:6930   */\n  add\n    /* \"#utility.yul\":6908:6930   */\n  swap1\n  pop\n    /* \"#utility.yul\":6884:7004   */\n  jump(tag_127)\ntag_129:\n    /* \"#utility.yul\":6824:7010   */\n  pop\n  pop\n  jump\t// out\n    /* \"#utility.yul\":7016:7559   */\ntag_44:\n    /* \"#utility.yul\":7117:7119   */\n  0x1f\n    /* \"#utility.yul\":7112:7115   */\n  dup3\n    /* \"#utility.yul\":7109:7120   */\n  gt\n    /* \"#utility.yul\":7106:7552   */\n  iszero\n  tag_132\n  jumpi\n    /* \"#utility.yul\":7151:7189   */\n  tag_133\n    /* \"#utility.yul\":7183:7188   */\n  dup2\n    /* \"#utility.yul\":7151:7189   */\n  tag_33\n  jump\t// in\ntag_133:\n    /* \"#utility.yul\":7235:7264   */\n  tag_134\n    /* \"#utility.yul\":7253:7263   */\n  dup5\n    /* \"#utility.yul\":7235:7264   */\n  tag_34\n  jump\t// in\ntag_134:\n    /* \"#utility.yul\":7225:7233   */\n  dup2\n    /* \"#utility.yul\":7221:7265   */\n  add\n    /* \"#utility.yul\":7418:7420   */\n  0x20\n    /* \"#utility.yul\":7406:7416   */\n  dup6\n    /* \"#utility.yul\":7403:7421   */\n  lt\n    /* \"#utility.yul\":7400:7449   */\n  iszero\n  tag_135\n  jumpi\n    /* \"#utility.yul\":7439:7447   */\n  dup2\n    /* \"#utility.yul\":7424:7447   */\n  swap1\n  pop\n    /* \"#utility.yul\":7400:7449   */\ntag_135:\n    /* \"#utility.yul\":7462:7542   */\n  tag_136\n    /* \"#utility.yul\":7518:7540   */\n  tag_137\n    /* \"#utility.yul\":7536:7539   */\n  dup6\n    /* \"#utility.yul\":7518:7540   */\n  tag_34\n  jump\t// in\ntag_137:\n    /* \"#utility.yul\":7508:7516   */\n  dup4\n    /* \"#utility.yul\":7504:7541   */\n  add\n    /* \"#utility.yul\":7491:7502   */\n  dup3\n    /* \"#utility.yul\":7462:7542   */\n  tag_43\n  jump\t// in\ntag_136:\n    /* \"#utility.yul\":7121:7552   */\n  pop\n  pop\n    /* \"#utility.yul\":7106:7552   */\ntag_132:\n    /* \"#utility.yul\":7016:7559   */\n  pop\n  pop\n  pop\n  jump\t// out\n    /* \"#utility.yul\":7565:7682   */\ntag_45:\n    /* \"#utility.yul\":7619:7627   */\n  0x00\n    /* \"#utility.yul\":7669:7674   */\n  dup3\n    /* \"#utility.yul\":7663:7667   */\n  dup3\n    /* \"#utility.yul\":7659:7675   */\n  shr\n    /* \"#utility.yul\":7638:7675   */\n  swap1\n  pop\n    /* \"#utility.yul\":7565:7682   */\n  swap3\n  swap2\n  pop\n  pop\n  jump\t// out\n    /* \"#utility.yul\":7688:7857   */\ntag_46:\n    /* \"#utility.yul\":7732:7738   */\n  0x00\n    /* \"#utility.yul\":7765:7816   */\n  tag_140\n    /* \"#utility.yul\":7813:7814   */\n  0x00\n    /* \"#utility.yul\":7809:7815   */\n  not\n    /* \"#utility.yul\":7801:7806   */\n  dup5\n    /* \"#utility.yul\":7798:7799   */\n  0x08\n    /* \"#utility.yul\":7794:7807   */\n  mul\n    /* \"#utility.yul\":7765:7816   */\n  tag_45\n  jump\t// in\ntag_140:\n    /* \"#utility.yul\":7761:7817   */\n  not\n    /* \"#utility.yul\":7846:7850   */\n  dup1\n    /* \"#utility.yul\":7840:7844   */\n  dup4\n    /* \"#utility.yul\":7836:7851   */\n  and\n    /* \"#utility.yul\":7826:7851   */\n  swap2\n  pop\n    /* \"#utility.yul\":7739:7857   */\n  pop\n    /* \"#utility.yul\":7688:7857   */\n  swap3\n  swap2\n  pop\n  pop\n  jump\t// out\n    /* \"#utility.yul\":7862:8157   */\ntag_47:\n    /* \"#utility.yul\":7938:7942   */\n  0x00\n    /* \"#utility.yul\":8084:8113   */\n  tag_142\n    /* \"#utility.yul\":8109:8112   */\n  dup4\n    /* \"#utility.yul\":8103:8107   */\n  dup4\n    /* \"#utility.yul\":8084:8113   */\n  tag_46\n  jump\t// in\ntag_142:\n    /* \"#utility.yul\":8076:8113   */\n  swap2\n  pop\n    /* \"#utility.yul\":8146:8149   */\n  dup3\n    /* \"#utility.yul\":8143:8144   */\n  0x02\n    /* \"#utility.yul\":8139:8150   */\n  mul\n    /* \"#utility.yul\":8133:8137   */\n  dup3\n    /* \"#utility.yul\":8130:8151   */\n  or\n    /* \"#utility.yul\":8122:8151   */\n  swap1\n  pop\n    /* \"#utility.yul\":7862:8157   */\n  swap3\n  swap2\n  pop\n  pop\n  jump\t// out\n    /* \"#utility.yul\":8162:9557   */\ntag_8:\n    /* \"#utility.yul\":8279:8316   */\n  tag_144\n    /* \"#utility.yul\":8312:8315   */\n  dup3\n    /* \"#utility.yul\":8279:8316   */\n  tag_30\n  jump\t// in\ntag_144:\n    /* \"#utility.yul\":8381:8399   */\n  0xffffffffffffffff\n    /* \"#utility.yul\":8373:8379   */\n  dup2\n    /* \"#utility.yul\":8370:8400   */\n  gt\n    /* \"#utility.yul\":8367:8423   */\n  iszero\n  tag_145\n  jumpi\n    /* \"#utility.yul\":8403:8421   */\n  tag_146\n  tag_20\n  jump\t// in\ntag_146:\n    /* \"#utility.yul\":8367:8423   */\ntag_145:\n    /* \"#utility.yul\":8447:8485   */\n  tag_147\n    /* \"#utility.yul\":8479:8483   */\n  dup3\n    /* \"#utility.yul\":8473:8484   */\n  sload\n    /* \"#utility.yul\":8447:8485   */\n  tag_32\n  jump\t// in\ntag_147:\n    /* \"#utility.yul\":8532:8599   */\n  tag_148\n    /* \"#utility.yul\":8592:8598   */\n  dup3\n    /* \"#utility.yul\":8584:8590   */\n  dup3\n    /* \"#utility.yul\":8578:8582   */\n  dup6\n    /* \"#utility.yul\":8532:8599   */\n  tag_44\n  jump\t// in\ntag_148:\n    /* \"#utility.yul\":8626:8627   */\n  0x00\n    /* \"#utility.yul\":8650:8654   */\n  0x20\n    /* \"#utility.yul\":8637:8654   */\n  swap1\n  pop\n    /* \"#utility.yul\":8682:8684   */\n  0x1f\n    /* \"#utility.yul\":8674:8680   */\n  dup4\n    /* \"#utility.yul\":8671:8685   */\n  gt\n    /* \"#utility.yul\":8699:8700   */\n  0x01\n    /* \"#utility.yul\":8694:9312   */\n  dup2\n  eq\n  tag_150\n  jumpi\n    /* \"#utility.yul\":9356:9357   */\n  0x00\n    /* \"#utility.yul\":9373:9379   */\n  dup5\n    /* \"#utility.yul\":9370:9447   */\n  iszero\n  tag_151\n  jumpi\n    /* \"#utility.yul\":9422:9431   */\n  dup3\n    /* \"#utility.yul\":9417:9420   */\n  dup8\n    /* \"#utility.yul\":9413:9432   */\n  add\n    /* \"#utility.yul\":9407:9433   */\n  mload\n    /* \"#utility.yul\":9398:9433   */\n  swap1\n  pop\n    /* \"#utility.yul\":9370:9447   */\ntag_151:\n    /* \"#utility.yul\":9473:9540   */\n  tag_152\n    /* \"#utility.yul\":9533:9539   */\n  dup6\n    /* \"#utility.yul\":9526:9531   */\n  dup3\n    /* \"#utility.yul\":9473:9540   */\n  tag_47\n  jump\t// in\ntag_152:\n    /* \"#utility.yul\":9467:9471   */\n  dup7\n    /* \"#utility.yul\":9460:9541   */\n  sstore\n    /* \"#utility.yul\":9329:9551   */\n  pop\n    /* \"#utility.yul\":8664:9551   */\n  jump(tag_149)\n    /* \"#utility.yul\":8694:9312   */\ntag_150:\n    /* \"#utility.yul\":8746:8750   */\n  0x1f\n    /* \"#utility.yul\":8742:8751   */\n  not\n    /* \"#utility.yul\":8734:8740   */\n  dup5\n    /* \"#utility.yul\":8730:8752   */\n  and\n    /* \"#utility.yul\":8780:8817   */\n  tag_153\n    /* \"#utility.yul\":8812:8816   */\n  dup7\n    /* \"#utility.yul\":8780:8817   */\n  tag_33\n  jump\t// in\ntag_153:\n    /* \"#utility.yul\":8839:8840   */\n  0x00\n    /* \"#utility.yul\":8853:9061   */\ntag_154:\n    /* \"#utility.yul\":8867:8874   */\n  dup3\n    /* \"#utility.yul\":8864:8865   */\n  dup2\n    /* \"#utility.yul\":8861:8875   */\n  lt\n    /* \"#utility.yul\":8853:9061   */\n  iszero\n  tag_156\n  jumpi\n    /* \"#utility.yul\":8946:8955   */\n  dup5\n    /* \"#utility.yul\":8941:8944   */\n  dup10\n    /* \"#utility.yul\":8937:8956   */\n  add\n    /* \"#utility.yul\":8931:8957   */\n  mload\n    /* \"#utility.yul\":8923:8929   */\n  dup3\n    /* \"#utility.yul\":8916:8958   */\n  sstore\n    /* \"#utility.yul\":8997:8998   */\n  0x01\n    /* \"#utility.yul\":8989:8995   */\n  dup3\n    /* \"#utility.yul\":8985:8999   */\n  add\n    /* \"#utility.yul\":8975:8999   */\n  swap2\n  pop\n    /* \"#utility.yul\":9044:9046   */\n  0x20\n    /* \"#utility.yul\":9033:9042   */\n  dup6\n    /* \"#utility.yul\":9029:9047   */\n  add\n    /* \"#utility.yul\":9016:9047   */\n  swap5\n  pop\n    /* \"#utility.yul\":8890:8894   */\n  0x20\n    /* \"#utility.yul\":8887:8888   */\n  dup2\n    /* \"#utility.yul\":8883:8895   */\n  add\n    /* \"#utility.yul\":8878:8895   */\n  swap1\n  pop\n    /* \"#utility.yul\":8853:9061   */\n  jump(tag_154)\ntag_156:\n    /* \"#utility.yul\":9089:9095   */\n  dup7\n    /* \"#utility.yul\":9080:9087   */\n  dup4\n    /* \"#utility.yul\":9077:9096   */\n  lt\n    /* \"#utility.yul\":9074:9253   */\n  iszero\n  tag_157\n  jumpi\n    /* \"#utility.yul\":9147:9156   */\n  dup5\n    /* \"#utility.yul\":9142:9145   */\n  dup10\n    /* \"#utility.yul\":9138:9157   */\n  add\n    /* \"#utility.yul\":9132:9158   */\n  mload\n    /* \"#utility.yul\":9190:9238   */\n  tag_158\n    /* \"#utility.yul\":9232:9236   */\n  0x1f\n    /* \"#utility.yul\":9224:9230   */\n  dup10\n    /* \"#utility.yul\":9220:9237   */\n  and\n    /* \"#utility.yul\":9209:9218   */\n  dup3\n    /* \"#utility.yul\":9190:9238   */\n  tag_46\n  jump\t// in\ntag_158:\n    /* \"#utility.yul\":9182:9188   */\n  dup4\n    /* \"#utility.yul\":9175:9239   */\n  sstore\n    /* \"#utility.yul\":9097:9253   */\n  pop\n    /* \"#utility.yul\":9074:9253   */\ntag_157:\n    /* \"#utility.yul\":9299:9300   */\n  0x01\n    /* \"#utility.yul\":9295:9296   */\n  0x02\n    /* \"#utility.yul\":9287:9293   */\n  dup9\n    /* \"#utility.yul\":9283:9297   */\n  mul\n    /* \"#utility.yul\":9279:9301   */\n  add\n    /* \"#utility.yul\":9273:9277   */\n  dup9\n    /* \"#utility.yul\":9266:9302   */\n  sstore\n    /* \"#utility.yul\":8701:9312   */\n  pop\n  pop\n  pop\n    /* \"#utility.yul\":8664:9551   */\ntag_149:\n  pop\n    /* \"#utility.yul\":8254:9557   */\n  pop\n  pop\n  pop\n    /* \"#utility.yul\":8162:9557   */\n  pop\n  pop\n  jump\t// out\n    /* \"Day6/p1.sol\":1655:2165  contract Programmer is Employee {... */\ntag_13:\n  dataSize(sub_0)\n  dup1\n  dataOffset(sub_0)\n  0x00\n  codecopy\n  0x00\n  return\nstop\n\nsub_0: assembly {\n        /* \"Day6/p1.sol\":1655:2165  contract Programmer is Employee {... */\n      mstore(0x40, 0x80)\n      callvalue\n      dup1\n      iszero\n      tag_1\n      jumpi\n      0x00\n      dup1\n      revert\n    tag_1:\n      pop\n      jumpi(tag_2, lt(calldatasize, 0x04))\n      shr(0xe0, calldataload(0x00))\n      dup1\n      0x3ff4b938\n      gt\n      tag_11\n      jumpi\n      dup1\n      0x3ff4b938\n      eq\n      tag_7\n      jumpi\n      dup1\n      0x977aacfc\n      eq\n      tag_8\n      jumpi\n      dup1\n      0xa4e7d437\n      eq\n      tag_9\n      jumpi\n      dup1\n      0xd46d7151\n      eq\n      tag_10\n      jumpi\n      jump(tag_2)\n    tag_11:\n      dup1\n      0x0397b652\n      eq\n      tag_3\n      jumpi\n      dup1\n      0x06fdde03\n      eq\n      tag_4\n      jumpi\n      dup1\n      0x26c5c154\n      eq\n      tag_5\n      jumpi\n      dup1\n      0x3b6bfe6d\n      eq\n      tag_6\n      jumpi\n    tag_2:\n      0x00\n      dup1\n      revert\n        /* \"Day6/p1.sol\":156:174  uint public salary */\n    tag_3:\n      tag_12\n      tag_13\n      jump\t// in\n    tag_12:\n      mload(0x40)\n      tag_14\n      swap2\n      swap1\n      tag_15\n      jump\t// in\n    tag_14:\n      mload(0x40)\n      dup1\n      swap2\n      sub\n      swap1\n      return\n        /* \"Day6/p1.sol\":95:113  string public name */\n    tag_4:\n      tag_16\n      tag_17\n      jump\t// in\n    tag_16:\n      mload(0x40)\n      tag_18\n      swap2\n      swap1\n      tag_19\n      jump\t// in\n    tag_18:\n      mload(0x40)\n      dup1\n      swap2\n      sub\n      swap1\n      return\n        /* \"Day6/p1.sol\":120:149  string public employeeAddress */\n    tag_5:\n      tag_20\n      tag_21\n      jump\t// in\n    tag_20:\n      mload(0x40)\n      tag_22\n      swap2\n      swap1\n      tag_19\n      jump\t// in\n    tag_22:\n      mload(0x40)\n      dup1\n      swap2\n      sub\n      swap1\n      return\n        /* \"Day6/p1.sol\":2004:2162  function writeCode() public view returns (string memory) {... */\n    tag_6:\n      tag_23\n      tag_24\n      jump\t// in\n    tag_23:\n      mload(0x40)\n      tag_25\n      swap2\n      swap1\n      tag_19\n      jump\t// in\n    tag_25:\n      mload(0x40)\n      dup1\n      swap2\n      sub\n      swap1\n      return\n        /* \"Day6/p1.sol\":181:203  string public jobTitle */\n    tag_7:\n      tag_26\n      tag_27\n      jump\t// in\n    tag_26:\n      mload(0x40)\n      tag_28\n      swap2\n      swap1\n      tag_19\n      jump\t// in\n    tag_28:\n      mload(0x40)\n      dup1\n      swap2\n      sub\n      swap1\n      return\n        /* \"Day6/p1.sol\":1694:1727  string public programmingLanguage */\n    tag_8:\n      tag_29\n      tag_30\n      jump\t// in\n    tag_29:\n      mload(0x40)\n      tag_31\n      swap2\n      swap1\n      tag_19\n      jump\t// in\n    tag_31:\n      mload(0x40)\n      dup1\n      swap2\n      sub\n      swap1\n      return\n        /* \"Day6/p1.sol\":454:544  function calculateBonus() public view returns (uint) {... */\n    tag_9:\n      tag_32\n      tag_33\n      jump\t// in\n    tag_32:\n      mload(0x40)\n      tag_34\n      swap2\n      swap1\n      tag_15\n      jump\t// in\n    tag_34:\n      mload(0x40)\n      dup1\n      swap2\n      sub\n      swap1\n      return\n        /* \"Day6/p1.sol\":550:718  function generatePerformanceReport() public view returns (string memory) {... */\n    tag_10:\n      tag_35\n      tag_36\n      jump\t// in\n    tag_35:\n      mload(0x40)\n      tag_37\n      swap2\n      swap1\n      tag_19\n      jump\t// in\n    tag_37:\n      mload(0x40)\n      dup1\n      swap2\n      sub\n      swap1\n      return\n        /* \"Day6/p1.sol\":156:174  uint public salary */\n    tag_13:\n      sload(0x02)\n      dup2\n      jump\t// out\n        /* \"Day6/p1.sol\":95:113  string public name */\n    tag_17:\n      0x00\n      dup1\n      sload\n      tag_38\n      swap1\n      tag_39\n      jump\t// in\n    tag_38:\n      dup1\n      0x1f\n      add\n      0x20\n      dup1\n      swap2\n      div\n      mul\n      0x20\n      add\n      mload(0x40)\n      swap1\n      dup2\n      add\n      0x40\n      mstore\n      dup1\n      swap3\n      swap2\n      swap1\n      dup2\n      dup2\n      mstore\n      0x20\n      add\n      dup3\n      dup1\n      sload\n      tag_40\n      swap1\n      tag_39\n      jump\t// in\n    tag_40:\n      dup1\n      iszero\n      tag_41\n      jumpi\n      dup1\n      0x1f\n      lt\n      tag_42\n      jumpi\n      0x0100\n      dup1\n      dup4\n      sload\n      div\n      mul\n      dup4\n      mstore\n      swap2\n      0x20\n      add\n      swap2\n      jump(tag_41)\n    tag_42:\n      dup3\n      add\n      swap2\n      swap1\n      0x00\n      mstore\n      keccak256(0x00, 0x20)\n      swap1\n    tag_43:\n      dup2\n      sload\n      dup2\n      mstore\n      swap1\n      0x01\n      add\n      swap1\n      0x20\n      add\n      dup1\n      dup4\n      gt\n      tag_43\n      jumpi\n      dup3\n      swap1\n      sub\n      0x1f\n      and\n      dup3\n      add\n      swap2\n    tag_41:\n      pop\n      pop\n      pop\n      pop\n      pop\n      dup2\n      jump\t// out\n        /* \"Day6/p1.sol\":120:149  string public employeeAddress */\n    tag_21:\n      0x01\n      dup1\n      sload\n      tag_44\n      swap1\n      tag_39\n      jump\t// in\n    tag_44:\n      dup1\n      0x1f\n      add\n      0x20\n      dup1\n      swap2\n      div\n      mul\n      0x20\n      add\n      mload(0x40)\n      swap1\n      dup2\n      add\n      0x40\n      mstore\n      dup1\n      swap3\n      swap2\n      swap1\n      dup2\n      dup2\n      mstore\n      0x20\n      add\n      dup3\n      dup1\n      sload\n      tag_45\n      swap1\n      tag_39\n      jump\t// in\n    tag_45:\n      dup1\n      iszero\n      tag_46\n      jumpi\n      dup1\n      0x1f\n      lt\n      tag_47\n      jumpi\n      0x0100\n      dup1\n      dup4\n      sload\n      div\n      mul\n      dup4\n      mstore\n      swap2\n      0x20\n      add\n      swap2\n      jump(tag_46)\n    tag_47:\n      dup3\n      add\n      swap2\n      swap1\n      0x00\n      mstore\n      keccak256(0x00, 0x20)\n      swap1\n    tag_48:\n      dup2\n      sload\n      dup2\n      mstore\n      swap1\n      0x01\n      add\n      swap1\n      0x20\n      add\n      dup1\n      dup4\n      gt\n      tag_48\n      jumpi\n      dup3\n      swap1\n      sub\n      0x1f\n      and\n      dup3\n      add\n      swap2\n    tag_46:\n      pop\n      pop\n      pop\n      pop\n      pop\n      dup2\n      jump\t// out\n        /* \"Day6/p1.sol\":2004:2162  function writeCode() public view returns (string memory) {... */\n    tag_24:\n        /* \"Day6/p1.sol\":2046:2059  string memory */\n      0x60\n        /* \"Day6/p1.sol\":2103:2107  name */\n      0x00\n        /* \"Day6/p1.sol\":2133:2152  programmingLanguage */\n      0x04\n        /* \"Day6/p1.sol\":2086:2153  abi.encodePacked(name, \" is writing code in \", programmingLanguage) */\n      add(0x20, mload(0x40))\n      tag_50\n      swap3\n      swap2\n      swap1\n      tag_51\n      jump\t// in\n    tag_50:\n      mload(0x40)\n      0x20\n      dup2\n      dup4\n      sub\n      sub\n      dup2\n      mstore\n      swap1\n      0x40\n      mstore\n        /* \"Day6/p1.sol\":2072:2154  return string(abi.encodePacked(name, \" is writing code in \", programmingLanguage)) */\n      swap1\n      pop\n        /* \"Day6/p1.sol\":2004:2162  function writeCode() public view returns (string memory) {... */\n      swap1\n      jump\t// out\n        /* \"Day6/p1.sol\":181:203  string public jobTitle */\n    tag_27:\n      0x03\n      dup1\n      sload\n      tag_52\n      swap1\n      tag_39\n      jump\t// in\n    tag_52:\n      dup1\n      0x1f\n      add\n      0x20\n      dup1\n      swap2\n      div\n      mul\n      0x20\n      add\n      mload(0x40)\n      swap1\n      dup2\n      add\n      0x40\n      mstore\n      dup1\n      swap3\n      swap2\n      swap1\n      dup2\n      dup2\n      mstore\n      0x20\n      add\n      dup3\n      dup1\n      sload\n      tag_53\n      swap1\n      tag_39\n      jump\t// in\n    tag_53:\n      dup1\n      iszero\n      tag_54\n      jumpi\n      dup1\n      0x1f\n      lt\n      tag_55\n      jumpi\n      0x0100\n      dup1\n      dup4\n      sload\n      div\n      mul\n      dup4\n      mstore\n      swap2\n      0x20\n      add\n      swap2\n      jump(tag_54)\n    tag_55:\n      dup3\n      add\n      swap2\n      swap1\n      0x00\n      mstore\n      keccak256(0x00, 0x20)\n      swap1\n    tag_56:\n      dup2\n      sload\n      dup2\n      mstore\n      swap1\n      0x01\n      add\n      swap1\n      0x20\n      add\n      dup1\n      dup4\n      gt\n      tag_56\n      jumpi\n      dup3\n      swap1\n      sub\n      0x1f\n      and\n      dup3\n      add\n      swap2\n    tag_54:\n      pop\n      pop\n      pop\n      pop\n      pop\n      dup2\n      jump\t// out\n        /* \"Day6/p1.sol\":1694:1727  string public programmingLanguage */\n    tag_30:\n      0x04\n      dup1\n      sload\n      tag_57\n      swap1\n      tag_39\n      jump\t// in\n    tag_57:\n      dup1\n      0x1f\n      add\n      0x20\n      dup1\n      swap2\n      div\n      mul\n      0x20\n      add\n      mload(0x40)\n      swap1\n      dup2\n      add\n      0x40\n      mstore\n      dup1\n      swap3\n      swap2\n      swap1\n      dup2\n      dup2\n      mstore\n      0x20\n      add\n      dup3\n      dup1\n      sload\n      tag_58\n      swap1\n      tag_39\n      jump\t// in\n    tag_58:\n      dup1\n      iszero\n      tag_59\n      jumpi\n      dup1\n      0x1f\n      lt\n      tag_60\n      jumpi\n      0x0100\n      dup1\n      dup4\n      sload\n      div\n      mul\n      dup4\n      mstore\n      swap2\n      0x20\n      add\n      swap2\n      jump(tag_59)\n    tag_60:\n      dup3\n      add\n      swap2\n      swap1\n      0x00\n      mstore\n      keccak256(0x00, 0x20)\n      swap1\n    tag_61:\n      dup2\n      sload\n      dup2\n      mstore\n      swap1\n      0x01\n      add\n      swap1\n      0x20\n      add\n      dup1\n      dup4\n      gt\n      tag_61\n      jumpi\n      dup3\n      swap1\n      sub\n      0x1f\n      and\n      dup3\n      add\n      swap2\n    tag_59:\n      pop\n      pop\n      pop\n      pop\n      pop\n      dup2\n      jump\t// out\n        /* \"Day6/p1.sol\":454:544  function calculateBonus() public view returns (uint) {... */\n    tag_33:\n        /* \"Day6/p1.sol\":501:505  uint */\n      0x00\n        /* \"Day6/p1.sol\":534:536  10 */\n      0x0a\n        /* \"Day6/p1.sol\":525:531  salary */\n      sload(0x02)\n        /* \"Day6/p1.sol\":525:536  salary / 10 */\n      tag_63\n      swap2\n      swap1\n      tag_64\n      jump\t// in\n    tag_63:\n        /* \"Day6/p1.sol\":518:536  return salary / 10 */\n      swap1\n      pop\n        /* \"Day6/p1.sol\":454:544  function calculateBonus() public view returns (uint) {... */\n      swap1\n      jump\t// out\n        /* \"Day6/p1.sol\":550:718  function generatePerformanceReport() public view returns (string memory) {... */\n    tag_36:\n        /* \"Day6/p1.sol\":608:621  string memory */\n      0x60\n        /* \"Day6/p1.sol\":665:669  name */\n      0x00\n        /* \"Day6/p1.sol\":700:708  jobTitle */\n      0x03\n        /* \"Day6/p1.sol\":648:709  abi.encodePacked(name, \" is performing well as a \", jobTitle) */\n      add(0x20, mload(0x40))\n      tag_66\n      swap3\n      swap2\n      swap1\n      tag_67\n      jump\t// in\n    tag_66:\n      mload(0x40)\n      0x20\n      dup2\n      dup4\n      sub\n      sub\n      dup2\n      mstore\n      swap1\n      0x40\n      mstore\n        /* \"Day6/p1.sol\":634:710  return string(abi.encodePacked(name, \" is performing well as a \", jobTitle)) */\n      swap1\n      pop\n        /* \"Day6/p1.sol\":550:718  function generatePerformanceReport() public view returns (string memory) {... */\n      swap1\n      jump\t// out\n        /* \"#utility.yul\":7:84   */\n    tag_68:\n        /* \"#utility.yul\":44:51   */\n      0x00\n        /* \"#utility.yul\":73:78   */\n      dup2\n        /* \"#utility.yul\":62:78   */\n      swap1\n      pop\n        /* \"#utility.yul\":7:84   */\n      swap2\n      swap1\n      pop\n      jump\t// out\n        /* \"#utility.yul\":90:208   */\n    tag_69:\n        /* \"#utility.yul\":177:201   */\n      tag_88\n        /* \"#utility.yul\":195:200   */\n      dup2\n        /* \"#utility.yul\":177:201   */\n      tag_68\n      jump\t// in\n    tag_88:\n        /* \"#utility.yul\":172:175   */\n      dup3\n        /* \"#utility.yul\":165:202   */\n      mstore\n        /* \"#utility.yul\":90:208   */\n      pop\n      pop\n      jump\t// out\n        /* \"#utility.yul\":214:436   */\n    tag_15:\n        /* \"#utility.yul\":307:311   */\n      0x00\n        /* \"#utility.yul\":345:347   */\n      0x20\n        /* \"#utility.yul\":334:343   */\n      dup3\n        /* \"#utility.yul\":330:348   */\n      add\n        /* \"#utility.yul\":322:348   */\n      swap1\n      pop\n        /* \"#utility.yul\":358:429   */\n      tag_90\n        /* \"#utility.yul\":426:427   */\n      0x00\n        /* \"#utility.yul\":415:424   */\n      dup4\n        /* \"#utility.yul\":411:428   */\n      add\n        /* \"#utility.yul\":402:408   */\n      dup5\n        /* \"#utility.yul\":358:429   */\n      tag_69\n      jump\t// in\n    tag_90:\n        /* \"#utility.yul\":214:436   */\n      swap3\n      swap2\n      pop\n      pop\n      jump\t// out\n        /* \"#utility.yul\":442:541   */\n    tag_70:\n        /* \"#utility.yul\":494:500   */\n      0x00\n        /* \"#utility.yul\":528:533   */\n      dup2\n        /* \"#utility.yul\":522:534   */\n      mload\n        /* \"#utility.yul\":512:534   */\n      swap1\n      pop\n        /* \"#utility.yul\":442:541   */\n      swap2\n      swap1\n      pop\n      jump\t// out\n        /* \"#utility.yul\":547:716   */\n    tag_71:\n        /* \"#utility.yul\":631:642   */\n      0x00\n        /* \"#utility.yul\":665:671   */\n      dup3\n        /* \"#utility.yul\":660:663   */\n      dup3\n        /* \"#utility.yul\":653:672   */\n      mstore\n        /* \"#utility.yul\":705:709   */\n      0x20\n        /* \"#utility.yul\":700:703   */\n      dup3\n        /* \"#utility.yul\":696:710   */\n      add\n        /* \"#utility.yul\":681:710   */\n      swap1\n      pop\n        /* \"#utility.yul\":547:716   */\n      swap3\n      swap2\n      pop\n      pop\n      jump\t// out\n        /* \"#utility.yul\":722:861   */\n    tag_72:\n        /* \"#utility.yul\":811:817   */\n      dup3\n        /* \"#utility.yul\":806:809   */\n      dup2\n        /* \"#utility.yul\":801:804   */\n      dup4\n        /* \"#utility.yul\":795:818   */\n      mcopy\n        /* \"#utility.yul\":852:853   */\n      0x00\n        /* \"#utility.yul\":843:849   */\n      dup4\n        /* \"#utility.yul\":838:841   */\n      dup4\n        /* \"#utility.yul\":834:850   */\n      add\n        /* \"#utility.yul\":827:854   */\n      mstore\n        /* \"#utility.yul\":722:861   */\n      pop\n      pop\n      pop\n      jump\t// out\n        /* \"#utility.yul\":867:969   */\n    tag_73:\n        /* \"#utility.yul\":908:914   */\n      0x00\n        /* \"#utility.yul\":959:961   */\n      0x1f\n        /* \"#utility.yul\":955:962   */\n      not\n        /* \"#utility.yul\":950:952   */\n      0x1f\n        /* \"#utility.yul\":943:948   */\n      dup4\n        /* \"#utility.yul\":939:953   */\n      add\n        /* \"#utility.yul\":935:963   */\n      and\n        /* \"#utility.yul\":925:963   */\n      swap1\n      pop\n        /* \"#utility.yul\":867:969   */\n      swap2\n      swap1\n      pop\n      jump\t// out\n        /* \"#utility.yul\":975:1352   */\n    tag_74:\n        /* \"#utility.yul\":1063:1066   */\n      0x00\n        /* \"#utility.yul\":1091:1130   */\n      tag_96\n        /* \"#utility.yul\":1124:1129   */\n      dup3\n        /* \"#utility.yul\":1091:1130   */\n      tag_70\n      jump\t// in\n    tag_96:\n        /* \"#utility.yul\":1146:1217   */\n      tag_97\n        /* \"#utility.yul\":1210:1216   */\n      dup2\n        /* \"#utility.yul\":1205:1208   */\n      dup6\n        /* \"#utility.yul\":1146:1217   */\n      tag_71\n      jump\t// in\n    tag_97:\n        /* \"#utility.yul\":1139:1217   */\n      swap4\n      pop\n        /* \"#utility.yul\":1226:1291   */\n      tag_98\n        /* \"#utility.yul\":1284:1290   */\n      dup2\n        /* \"#utility.yul\":1279:1282   */\n      dup6\n        /* \"#utility.yul\":1272:1276   */\n      0x20\n        /* \"#utility.yul\":1265:1270   */\n      dup7\n        /* \"#utility.yul\":1261:1277   */\n      add\n        /* \"#utility.yul\":1226:1291   */\n      tag_72\n      jump\t// in\n    tag_98:\n        /* \"#utility.yul\":1316:1345   */\n      tag_99\n        /* \"#utility.yul\":1338:1344   */\n      dup2\n        /* \"#utility.yul\":1316:1345   */\n      tag_73\n      jump\t// in\n    tag_99:\n        /* \"#utility.yul\":1311:1314   */\n      dup5\n        /* \"#utility.yul\":1307:1346   */\n      add\n        /* \"#utility.yul\":1300:1346   */\n      swap2\n      pop\n        /* \"#utility.yul\":1067:1352   */\n      pop\n        /* \"#utility.yul\":975:1352   */\n      swap3\n      swap2\n      pop\n      pop\n      jump\t// out\n        /* \"#utility.yul\":1358:1671   */\n    tag_19:\n        /* \"#utility.yul\":1471:1475   */\n      0x00\n        /* \"#utility.yul\":1509:1511   */\n      0x20\n        /* \"#utility.yul\":1498:1507   */\n      dup3\n        /* \"#utility.yul\":1494:1512   */\n      add\n        /* \"#utility.yul\":1486:1512   */\n      swap1\n      pop\n        /* \"#utility.yul\":1558:1567   */\n      dup2\n        /* \"#utility.yul\":1552:1556   */\n      dup2\n        /* \"#utility.yul\":1548:1568   */\n      sub\n        /* \"#utility.yul\":1544:1545   */\n      0x00\n        /* \"#utility.yul\":1533:1542   */\n      dup4\n        /* \"#utility.yul\":1529:1546   */\n      add\n        /* \"#utility.yul\":1522:1569   */\n      mstore\n        /* \"#utility.yul\":1586:1664   */\n      tag_101\n        /* \"#utility.yul\":1659:1663   */\n      dup2\n        /* \"#utility.yul\":1650:1656   */\n      dup5\n        /* \"#utility.yul\":1586:1664   */\n      tag_74\n      jump\t// in\n    tag_101:\n        /* \"#utility.yul\":1578:1664   */\n      swap1\n      pop\n        /* \"#utility.yul\":1358:1671   */\n      swap3\n      swap2\n      pop\n      pop\n      jump\t// out\n        /* \"#utility.yul\":1677:1857   */\n    tag_75:\n        /* \"#utility.yul\":1725:1802   */\n      0x4e487b7100000000000000000000000000000000000000000000000000000000\n        /* \"#utility.yul\":1722:1723   */\n      0x00\n        /* \"#utility.yul\":1715:1803   */\n      mstore\n        /* \"#utility.yul\":1822:1826   */\n      0x22\n        /* \"#utility.yul\":1819:1820   */\n      0x04\n        /* \"#utility.yul\":1812:1827   */\n      mstore\n        /* \"#utility.yul\":1846:1850   */\n      0x24\n        /* \"#utility.yul\":1843:1844   */\n      0x00\n        /* \"#utility.yul\":1836:1851   */\n      revert\n        /* \"#utility.yul\":1863:2183   */\n    tag_39:\n        /* \"#utility.yul\":1907:1913   */\n      0x00\n        /* \"#utility.yul\":1944:1945   */\n      0x02\n        /* \"#utility.yul\":1938:1942   */\n      dup3\n        /* \"#utility.yul\":1934:1946   */\n      div\n        /* \"#utility.yul\":1924:1946   */\n      swap1\n      pop\n        /* \"#utility.yul\":1991:1992   */\n      0x01\n        /* \"#utility.yul\":1985:1989   */\n      dup3\n        /* \"#utility.yul\":1981:1993   */\n      and\n        /* \"#utility.yul\":2012:2030   */\n      dup1\n        /* \"#utility.yul\":2002:2083   */\n      tag_104\n      jumpi\n        /* \"#utility.yul\":2068:2072   */\n      0x7f\n        /* \"#utility.yul\":2060:2066   */\n      dup3\n        /* \"#utility.yul\":2056:2073   */\n      and\n        /* \"#utility.yul\":2046:2073   */\n      swap2\n      pop\n        /* \"#utility.yul\":2002:2083   */\n    tag_104:\n        /* \"#utility.yul\":2130:2132   */\n      0x20\n        /* \"#utility.yul\":2122:2128   */\n      dup3\n        /* \"#utility.yul\":2119:2133   */\n      lt\n        /* \"#utility.yul\":2099:2117   */\n      dup2\n        /* \"#utility.yul\":2096:2134   */\n      sub\n        /* \"#utility.yul\":2093:2177   */\n      tag_105\n      jumpi\n        /* \"#utility.yul\":2149:2167   */\n      tag_106\n      tag_75\n      jump\t// in\n    tag_106:\n        /* \"#utility.yul\":2093:2177   */\n    tag_105:\n        /* \"#utility.yul\":1914:2183   */\n      pop\n        /* \"#utility.yul\":1863:2183   */\n      swap2\n      swap1\n      pop\n      jump\t// out\n        /* \"#utility.yul\":2189:2337   */\n    tag_76:\n        /* \"#utility.yul\":2291:2302   */\n      0x00\n        /* \"#utility.yul\":2328:2331   */\n      dup2\n        /* \"#utility.yul\":2313:2331   */\n      swap1\n      pop\n        /* \"#utility.yul\":2189:2337   */\n      swap3\n      swap2\n      pop\n      pop\n      jump\t// out\n        /* \"#utility.yul\":2343:2484   */\n    tag_77:\n        /* \"#utility.yul\":2392:2396   */\n      0x00\n        /* \"#utility.yul\":2415:2418   */\n      dup2\n        /* \"#utility.yul\":2407:2418   */\n      swap1\n      pop\n        /* \"#utility.yul\":2438:2441   */\n      dup2\n        /* \"#utility.yul\":2435:2436   */\n      0x00\n        /* \"#utility.yul\":2428:2442   */\n      mstore\n        /* \"#utility.yul\":2472:2476   */\n      0x20\n        /* \"#utility.yul\":2469:2470   */\n      0x00\n        /* \"#utility.yul\":2459:2477   */\n      keccak256\n        /* \"#utility.yul\":2451:2477   */\n      swap1\n      pop\n        /* \"#utility.yul\":2343:2484   */\n      swap2\n      swap1\n      pop\n      jump\t// out\n        /* \"#utility.yul\":2514:3388   */\n    tag_78:\n        /* \"#utility.yul\":2617:2620   */\n      0x00\n        /* \"#utility.yul\":2654:2659   */\n      dup2\n        /* \"#utility.yul\":2648:2660   */\n      sload\n        /* \"#utility.yul\":2683:2719   */\n      tag_110\n        /* \"#utility.yul\":2709:2718   */\n      dup2\n        /* \"#utility.yul\":2683:2719   */\n      tag_39\n      jump\t// in\n    tag_110:\n        /* \"#utility.yul\":2735:2824   */\n      tag_111\n        /* \"#utility.yul\":2817:2823   */\n      dup2\n        /* \"#utility.yul\":2812:2815   */\n      dup7\n        /* \"#utility.yul\":2735:2824   */\n      tag_76\n      jump\t// in\n    tag_111:\n        /* \"#utility.yul\":2728:2824   */\n      swap5\n      pop\n        /* \"#utility.yul\":2855:2856   */\n      0x01\n        /* \"#utility.yul\":2844:2853   */\n      dup3\n        /* \"#utility.yul\":2840:2857   */\n      and\n        /* \"#utility.yul\":2871:2872   */\n      0x00\n        /* \"#utility.yul\":2866:3032   */\n      dup2\n      eq\n      tag_113\n      jumpi\n        /* \"#utility.yul\":3046:3047   */\n      0x01\n        /* \"#utility.yul\":3041:3382   */\n      dup2\n      eq\n      tag_114\n      jumpi\n        /* \"#utility.yul\":2833:3382   */\n      jump(tag_112)\n        /* \"#utility.yul\":2866:3032   */\n    tag_113:\n        /* \"#utility.yul\":2950:2954   */\n      0xff\n        /* \"#utility.yul\":2946:2955   */\n      not\n        /* \"#utility.yul\":2935:2944   */\n      dup4\n        /* \"#utility.yul\":2931:2956   */\n      and\n        /* \"#utility.yul\":2926:2929   */\n      dup7\n        /* \"#utility.yul\":2919:2957   */\n      mstore\n        /* \"#utility.yul\":3012:3018   */\n      dup2\n        /* \"#utility.yul\":3005:3019   */\n      iszero\n        /* \"#utility.yul\":2998:3020   */\n      iszero\n        /* \"#utility.yul\":2990:2996   */\n      dup3\n        /* \"#utility.yul\":2986:3021   */\n      mul\n        /* \"#utility.yul\":2981:2984   */\n      dup7\n        /* \"#utility.yul\":2977:3022   */\n      add\n        /* \"#utility.yul\":2970:3022   */\n      swap4\n      pop\n        /* \"#utility.yul\":2866:3032   */\n      jump(tag_112)\n        /* \"#utility.yul\":3041:3382   */\n    tag_114:\n        /* \"#utility.yul\":3108:3146   */\n      tag_115\n        /* \"#utility.yul\":3140:3145   */\n      dup6\n        /* \"#utility.yul\":3108:3146   */\n      tag_77\n      jump\t// in\n    tag_115:\n        /* \"#utility.yul\":3168:3169   */\n      0x00\n        /* \"#utility.yul\":3182:3336   */\n    tag_116:\n        /* \"#utility.yul\":3196:3202   */\n      dup4\n        /* \"#utility.yul\":3193:3194   */\n      dup2\n        /* \"#utility.yul\":3190:3203   */\n      lt\n        /* \"#utility.yul\":3182:3336   */\n      iszero\n      tag_118\n      jumpi\n        /* \"#utility.yul\":3270:3277   */\n      dup2\n        /* \"#utility.yul\":3264:3278   */\n      sload\n        /* \"#utility.yul\":3260:3261   */\n      dup2\n        /* \"#utility.yul\":3255:3258   */\n      dup10\n        /* \"#utility.yul\":3251:3262   */\n      add\n        /* \"#utility.yul\":3244:3279   */\n      mstore\n        /* \"#utility.yul\":3320:3321   */\n      0x01\n        /* \"#utility.yul\":3311:3318   */\n      dup3\n        /* \"#utility.yul\":3307:3322   */\n      add\n        /* \"#utility.yul\":3296:3322   */\n      swap2\n      pop\n        /* \"#utility.yul\":3218:3222   */\n      0x20\n        /* \"#utility.yul\":3215:3216   */\n      dup2\n        /* \"#utility.yul\":3211:3223   */\n      add\n        /* \"#utility.yul\":3206:3223   */\n      swap1\n      pop\n        /* \"#utility.yul\":3182:3336   */\n      jump(tag_116)\n    tag_118:\n        /* \"#utility.yul\":3365:3371   */\n      dup4\n        /* \"#utility.yul\":3360:3363   */\n      dup9\n        /* \"#utility.yul\":3356:3372   */\n      add\n        /* \"#utility.yul\":3349:3372   */\n      swap6\n      pop\n        /* \"#utility.yul\":3048:3382   */\n      pop\n      pop\n        /* \"#utility.yul\":2833:3382   */\n    tag_112:\n      pop\n        /* \"#utility.yul\":2621:3388   */\n      pop\n      pop\n        /* \"#utility.yul\":2514:3388   */\n      swap3\n      swap2\n      pop\n      pop\n      jump\t// out\n        /* \"#utility.yul\":3394:3564   */\n    tag_79:\n        /* \"#utility.yul\":3534:3556   */\n      0x2069732077726974696e6720636f646520696e20000000000000000000000000\n        /* \"#utility.yul\":3530:3531   */\n      0x00\n        /* \"#utility.yul\":3522:3528   */\n      dup3\n        /* \"#utility.yul\":3518:3532   */\n      add\n        /* \"#utility.yul\":3511:3557   */\n      mstore\n        /* \"#utility.yul\":3394:3564   */\n      pop\n      jump\t// out\n        /* \"#utility.yul\":3570:3972   */\n    tag_80:\n        /* \"#utility.yul\":3730:3733   */\n      0x00\n        /* \"#utility.yul\":3751:3836   */\n      tag_121\n        /* \"#utility.yul\":3833:3835   */\n      0x14\n        /* \"#utility.yul\":3828:3831   */\n      dup4\n        /* \"#utility.yul\":3751:3836   */\n      tag_76\n      jump\t// in\n    tag_121:\n        /* \"#utility.yul\":3744:3836   */\n      swap2\n      pop\n        /* \"#utility.yul\":3845:3938   */\n      tag_122\n        /* \"#utility.yul\":3934:3937   */\n      dup3\n        /* \"#utility.yul\":3845:3938   */\n      tag_79\n      jump\t// in\n    tag_122:\n        /* \"#utility.yul\":3963:3965   */\n      0x14\n        /* \"#utility.yul\":3958:3961   */\n      dup3\n        /* \"#utility.yul\":3954:3966   */\n      add\n        /* \"#utility.yul\":3947:3966   */\n      swap1\n      pop\n        /* \"#utility.yul\":3570:3972   */\n      swap2\n      swap1\n      pop\n      jump\t// out\n        /* \"#utility.yul\":3978:4667   */\n    tag_51:\n        /* \"#utility.yul\":4253:4256   */\n      0x00\n        /* \"#utility.yul\":4275:4367   */\n      tag_124\n        /* \"#utility.yul\":4363:4366   */\n      dup3\n        /* \"#utility.yul\":4354:4360   */\n      dup6\n        /* \"#utility.yul\":4275:4367   */\n      tag_78\n      jump\t// in\n    tag_124:\n        /* \"#utility.yul\":4268:4367   */\n      swap2\n      pop\n        /* \"#utility.yul\":4384:4532   */\n      tag_125\n        /* \"#utility.yul\":4528:4531   */\n      dup3\n        /* \"#utility.yul\":4384:4532   */\n      tag_80\n      jump\t// in\n    tag_125:\n        /* \"#utility.yul\":4377:4532   */\n      swap2\n      pop\n        /* \"#utility.yul\":4549:4641   */\n      tag_126\n        /* \"#utility.yul\":4637:4640   */\n      dup3\n        /* \"#utility.yul\":4628:4634   */\n      dup5\n        /* \"#utility.yul\":4549:4641   */\n      tag_78\n      jump\t// in\n    tag_126:\n        /* \"#utility.yul\":4542:4641   */\n      swap2\n      pop\n        /* \"#utility.yul\":4658:4661   */\n      dup2\n        /* \"#utility.yul\":4651:4661   */\n      swap1\n      pop\n        /* \"#utility.yul\":3978:4667   */\n      swap4\n      swap3\n      pop\n      pop\n      pop\n      jump\t// out\n        /* \"#utility.yul\":4673:4853   */\n    tag_81:\n        /* \"#utility.yul\":4721:4798   */\n      0x4e487b7100000000000000000000000000000000000000000000000000000000\n        /* \"#utility.yul\":4718:4719   */\n      0x00\n        /* \"#utility.yul\":4711:4799   */\n      mstore\n        /* \"#utility.yul\":4818:4822   */\n      0x12\n        /* \"#utility.yul\":4815:4816   */\n      0x04\n        /* \"#utility.yul\":4808:4823   */\n      mstore\n        /* \"#utility.yul\":4842:4846   */\n      0x24\n        /* \"#utility.yul\":4839:4840   */\n      0x00\n        /* \"#utility.yul\":4832:4847   */\n      revert\n        /* \"#utility.yul\":5045:5230   */\n    tag_64:\n        /* \"#utility.yul\":5085:5086   */\n      0x00\n        /* \"#utility.yul\":5102:5122   */\n      tag_130\n        /* \"#utility.yul\":5120:5121   */\n      dup3\n        /* \"#utility.yul\":5102:5122   */\n      tag_68\n      jump\t// in\n    tag_130:\n        /* \"#utility.yul\":5097:5122   */\n      swap2\n      pop\n        /* \"#utility.yul\":5136:5156   */\n      tag_131\n        /* \"#utility.yul\":5154:5155   */\n      dup4\n        /* \"#utility.yul\":5136:5156   */\n      tag_68\n      jump\t// in\n    tag_131:\n        /* \"#utility.yul\":5131:5156   */\n      swap3\n      pop\n        /* \"#utility.yul\":5175:5176   */\n      dup3\n        /* \"#utility.yul\":5165:5200   */\n      tag_132\n      jumpi\n        /* \"#utility.yul\":5180:5198   */\n      tag_133\n      tag_81\n      jump\t// in\n    tag_133:\n        /* \"#utility.yul\":5165:5200   */\n    tag_132:\n        /* \"#utility.yul\":5222:5223   */\n      dup3\n        /* \"#utility.yul\":5219:5220   */\n      dup3\n        /* \"#utility.yul\":5215:5224   */\n      div\n        /* \"#utility.yul\":5210:5224   */\n      swap1\n      pop\n        /* \"#utility.yul\":5045:5230   */\n      swap3\n      swap2\n      pop\n      pop\n      jump\t// out\n        /* \"#utility.yul\":5236:5411   */\n    tag_83:\n        /* \"#utility.yul\":5376:5403   */\n      0x20697320706572666f726d696e672077656c6c20617320612000000000000000\n        /* \"#utility.yul\":5372:5373   */\n      0x00\n        /* \"#utility.yul\":5364:5370   */\n      dup3\n        /* \"#utility.yul\":5360:5374   */\n      add\n        /* \"#utility.yul\":5353:5404   */\n      mstore\n        /* \"#utility.yul\":5236:5411   */\n      pop\n      jump\t// out\n        /* \"#utility.yul\":5417:5819   */\n    tag_84:\n        /* \"#utility.yul\":5577:5580   */\n      0x00\n        /* \"#utility.yul\":5598:5683   */\n      tag_136\n        /* \"#utility.yul\":5680:5682   */\n      0x19\n        /* \"#utility.yul\":5675:5678   */\n      dup4\n        /* \"#utility.yul\":5598:5683   */\n      tag_76\n      jump\t// in\n    tag_136:\n        /* \"#utility.yul\":5591:5683   */\n      swap2\n      pop\n        /* \"#utility.yul\":5692:5785   */\n      tag_137\n        /* \"#utility.yul\":5781:5784   */\n      dup3\n        /* \"#utility.yul\":5692:5785   */\n      tag_83\n      jump\t// in\n    tag_137:\n        /* \"#utility.yul\":5810:5812   */\n      0x19\n        /* \"#utility.yul\":5805:5808   */\n      dup3\n        /* \"#utility.yul\":5801:5813   */\n      add\n        /* \"#utility.yul\":5794:5813   */\n      swap1\n      pop\n        /* \"#utility.yul\":5417:5819   */\n      swap2\n      swap1\n      pop\n      jump\t// out\n        /* \"#utility.yul\":5825:6514   */\n    tag_67:\n        /* \"#utility.yul\":6100:6103   */\n      0x00\n        /* \"#utility.yul\":6122:6214   */\n      tag_139\n        /* \"#utility.yul\":6210:6213   */\n      dup3\n        /* \"#utility.yul\":6201:6207   */\n      dup6\n        /* \"#utility.yul\":6122:6214   */\n      tag_78\n      jump\t// in\n    tag_139:\n        /* \"#utility.yul\":6115:6214   */\n      swap2\n      pop\n        /* \"#utility.yul\":6231:6379   */\n      tag_140\n        /* \"#utility.yul\":6375:6378   */\n      dup3\n        /* \"#utility.yul\":6231:6379   */\n      tag_84\n      jump\t// in\n    tag_140:\n        /* \"#utility.yul\":6224:6379   */\n      swap2\n      pop\n        /* \"#utility.yul\":6396:6488   */\n      tag_141\n        /* \"#utility.yul\":6484:6487   */\n      dup3\n        /* \"#utility.yul\":6475:6481   */\n      dup5\n        /* \"#utility.yul\":6396:6488   */\n      tag_78\n      jump\t// in\n    tag_141:\n        /* \"#utility.yul\":6389:6488   */\n      swap2\n      pop\n        /* \"#utility.yul\":6505:6508   */\n      dup2\n        /* \"#utility.yul\":6498:6508   */\n      swap1\n      pop\n        /* \"#utility.yul\":5825:6514   */\n      swap4\n      swap3\n      pop\n      pop\n      pop\n      jump\t// out\n\n    auxdata: 0xa26469706673582212201bbcf922364d256686e2b3f427b5068be6947963b44e87e7e1054d5abf903ea964736f6c634300081a0033\n}\n",
				"bytecode": {
					"linkReferences": {},
					"object": "608060405234801561000f575f80fd5b50604051610d25380380610d2583398181016040528101906100319190610209565b84848484835f908161004391906104f4565b50826001908161005391906104f4565b5081600281905550806003908161006a91906104f4565b5050505050806004908161007e91906104f4565b5050505050506105c3565b5f604051905090565b5f80fd5b5f80fd5b5f80fd5b5f80fd5b5f601f19601f8301169050919050565b7f4e487b71000000000000000000000000000000000000000000000000000000005f52604160045260245ffd5b6100e8826100a2565b810181811067ffffffffffffffff82111715610107576101066100b2565b5b80604052505050565b5f610119610089565b905061012582826100df565b919050565b5f67ffffffffffffffff821115610144576101436100b2565b5b61014d826100a2565b9050602081019050919050565b8281835e5f83830152505050565b5f61017a6101758461012a565b610110565b9050828152602081018484840111156101965761019561009e565b5b6101a184828561015a565b509392505050565b5f82601f8301126101bd576101bc61009a565b5b81516101cd848260208601610168565b91505092915050565b5f819050919050565b6101e8816101d6565b81146101f2575f80fd5b50565b5f81519050610203816101df565b92915050565b5f805f805f60a0868803121561022257610221610092565b5b5f86015167ffffffffffffffff81111561023f5761023e610096565b5b61024b888289016101a9565b955050602086015167ffffffffffffffff81111561026c5761026b610096565b5b610278888289016101a9565b9450506040610289888289016101f5565b935050606086015167ffffffffffffffff8111156102aa576102a9610096565b5b6102b6888289016101a9565b925050608086015167ffffffffffffffff8111156102d7576102d6610096565b5b6102e3888289016101a9565b9150509295509295909350565b5f81519050919050565b7f4e487b71000000000000000000000000000000000000000000000000000000005f52602260045260245ffd5b5f600282049050600182168061033e57607f821691505b602082108103610351576103506102fa565b5b50919050565b5f819050815f5260205f209050919050565b5f6020601f8301049050919050565b5f82821b905092915050565b5f600883026103b37fffffffffffffffffffffffffffffffffffffffffffffffffffffffffffffffff82610378565b6103bd8683610378565b95508019841693508086168417925050509392505050565b5f819050919050565b5f6103f86103f36103ee846101d6565b6103d5565b6101d6565b9050919050565b5f819050919050565b610411836103de565b61042561041d826103ff565b848454610384565b825550505050565b5f90565b61043961042d565b610444818484610408565b505050565b5b818110156104675761045c5f82610431565b60018101905061044a565b5050565b601f8211156104ac5761047d81610357565b61048684610369565b81016020851015610495578190505b6104a96104a185610369565b830182610449565b50505b505050565b5f82821c905092915050565b5f6104cc5f19846008026104b1565b1980831691505092915050565b5f6104e483836104bd565b9150826002028217905092915050565b6104fd826102f0565b67ffffffffffffffff811115610516576105156100b2565b5b6105208254610327565b61052b82828561046b565b5f60209050601f83116001811461055c575f841561054a578287015190505b61055485826104d9565b8655506105bb565b601f19841661056a86610357565b5f5b828110156105915784890151825560018201915060208501945060208101905061056c565b868310156105ae57848901516105aa601f8916826104bd565b8355505b6001600288020188555050505b505050505050565b610755806105d05f395ff3fe608060405234801561000f575f80fd5b5060043610610086575f3560e01c80633ff4b938116100595780633ff4b93814610102578063977aacfc14610120578063a4e7d4371461013e578063d46d71511461015c57610086565b80630397b6521461008a57806306fdde03146100a857806326c5c154146100c65780633b6bfe6d146100e4575b5f80fd5b61009261017a565b60405161009f9190610430565b60405180910390f35b6100b0610180565b6040516100bd91906104b9565b60405180910390f35b6100ce61020b565b6040516100db91906104b9565b60405180910390f35b6100ec610297565b6040516100f991906104b9565b60405180910390f35b61010a6102c1565b60405161011791906104b9565b60405180910390f35b61012861034d565b60405161013591906104b9565b60405180910390f35b6101466103d9565b6040516101539190610430565b60405180910390f35b6101646103ee565b60405161017191906104b9565b60405180910390f35b60025481565b5f805461018c90610506565b80601f01602080910402602001604051908101604052809291908181526020018280546101b890610506565b80156102035780601f106101da57610100808354040283529160200191610203565b820191905f5260205f20905b8154815290600101906020018083116101e657829003601f168201915b505050505081565b6001805461021890610506565b80601f016020809104026020016040519081016040528092919081815260200182805461024490610506565b801561028f5780601f106102665761010080835404028352916020019161028f565b820191905f5260205f20905b81548152906001019060200180831161027257829003601f168201915b505050505081565b60605f60046040516020016102ad92919061061c565b604051602081830303815290604052905090565b600380546102ce90610506565b80601f01602080910402602001604051908101604052809291908181526020018280546102fa90610506565b80156103455780601f1061031c57610100808354040283529160200191610345565b820191905f5260205f20905b81548152906001019060200180831161032857829003601f168201915b505050505081565b6004805461035a90610506565b80601f016020809104026020016040519081016040528092919081815260200182805461038690610506565b80156103d15780601f106103a8576101008083540402835291602001916103d1565b820191905f5260205f20905b8154815290600101906020018083116103b457829003601f168201915b505050505081565b5f600a6002546103e99190610677565b905090565b60605f60036040516020016104049291906106f1565b604051602081830303815290604052905090565b5f819050919050565b61042a81610418565b82525050565b5f6020820190506104435f830184610421565b92915050565b5f81519050919050565b5f82825260208201905092915050565b8281835e5f83830152505050565b5f601f19601f8301169050919050565b5f61048b82610449565b6104958185610453565b93506104a5818560208601610463565b6104ae81610471565b840191505092915050565b5f6020820190508181035f8301526104d18184610481565b905092915050565b7f4e487b71000000000000000000000000000000000000000000000000000000005f52602260045260245ffd5b5f600282049050600182168061051d57607f821691505b6020821081036105305761052f6104d9565b5b50919050565b5f81905092915050565b5f819050815f5260205f209050919050565b5f815461055e81610506565b6105688186610536565b9450600182165f81146105825760018114610597576105c9565b60ff19831686528115158202860193506105c9565b6105a085610540565b5f5b838110156105c1578154818901526001820191506020810190506105a2565b838801955050505b50505092915050565b7f2069732077726974696e6720636f646520696e200000000000000000000000005f82015250565b5f610606601483610536565b9150610611826105d2565b601482019050919050565b5f6106278285610552565b9150610632826105fa565b915061063e8284610552565b91508190509392505050565b7f4e487b71000000000000000000000000000000000000000000000000000000005f52601260045260245ffd5b5f61068182610418565b915061068c83610418565b92508261069c5761069b61064a565b5b828204905092915050565b7f20697320706572666f726d696e672077656c6c206173206120000000000000005f82015250565b5f6106db601983610536565b91506106e6826106a7565b601982019050919050565b5f6106fc8285610552565b9150610707826106cf565b91506107138284610552565b9150819050939250505056fea26469706673582212201bbcf922364d256686e2b3f427b5068be6947963b44e87e7e1054d5abf903ea964736f6c634300081a0033",
					"opcodes": "PUSH1 0x80 PUSH1 0x40 MSTORE CALLVALUE DUP1 ISZERO PUSH2 0xF JUMPI PUSH0 DUP1 REVERT JUMPDEST POP PUSH1 0x40 MLOAD PUSH2 0xD25 CODESIZE SUB DUP1 PUSH2 0xD25 DUP4 CODECOPY DUP2 DUP2 ADD PUSH1 0x40 MSTORE DUP2 ADD SWAP1 PUSH2 0x31 SWAP2 SWAP1 PUSH2 0x209 JUMP JUMPDEST DUP5 DUP5 DUP5 DUP5 DUP4 PUSH0 SWAP1 DUP2 PUSH2 0x43 SWAP2 SWAP1 PUSH2 0x4F4 JUMP JUMPDEST POP DUP3 PUSH1 0x1 SWAP1 DUP2 PUSH2 0x53 SWAP2 SWAP1 PUSH2 0x4F4 JUMP JUMPDEST POP DUP2 PUSH1 0x2 DUP2 SWAP1 SSTORE POP DUP1 PUSH1 0x3 SWAP1 DUP2 PUSH2 0x6A SWAP2 SWAP1 PUSH2 0x4F4 JUMP JUMPDEST POP POP POP POP POP DUP1 PUSH1 0x4 SWAP1 DUP2 PUSH2 0x7E SWAP2 SWAP1 PUSH2 0x4F4 JUMP JUMPDEST POP POP POP POP POP POP PUSH2 0x5C3 JUMP JUMPDEST PUSH0 PUSH1 0x40 MLOAD SWAP1 POP SWAP1 JUMP JUMPDEST PUSH0 DUP1 REVERT JUMPDEST PUSH0 DUP1 REVERT JUMPDEST PUSH0 DUP1 REVERT JUMPDEST PUSH0 DUP1 REVERT JUMPDEST PUSH0 PUSH1 0x1F NOT PUSH1 0x1F DUP4 ADD AND SWAP1 POP SWAP2 SWAP1 POP JUMP JUMPDEST PUSH32 0x4E487B7100000000000000000000000000000000000000000000000000000000 PUSH0 MSTORE PUSH1 0x41 PUSH1 0x4 MSTORE PUSH1 0x24 PUSH0 REVERT JUMPDEST PUSH2 0xE8 DUP3 PUSH2 0xA2 JUMP JUMPDEST DUP2 ADD DUP2 DUP2 LT PUSH8 0xFFFFFFFFFFFFFFFF DUP3 GT OR ISZERO PUSH2 0x107 JUMPI PUSH2 0x106 PUSH2 0xB2 JUMP JUMPDEST JUMPDEST DUP1 PUSH1 0x40 MSTORE POP POP POP JUMP JUMPDEST PUSH0 PUSH2 0x119 PUSH2 0x89 JUMP JUMPDEST SWAP1 POP PUSH2 0x125 DUP3 DUP3 PUSH2 0xDF JUMP JUMPDEST SWAP2 SWAP1 POP JUMP JUMPDEST PUSH0 PUSH8 0xFFFFFFFFFFFFFFFF DUP3 GT ISZERO PUSH2 0x144 JUMPI PUSH2 0x143 PUSH2 0xB2 JUMP JUMPDEST JUMPDEST PUSH2 0x14D DUP3 PUSH2 0xA2 JUMP JUMPDEST SWAP1 POP PUSH1 0x20 DUP2 ADD SWAP1 POP SWAP2 SWAP1 POP JUMP JUMPDEST DUP3 DUP2 DUP4 MCOPY PUSH0 DUP4 DUP4 ADD MSTORE POP POP POP JUMP JUMPDEST PUSH0 PUSH2 0x17A PUSH2 0x175 DUP5 PUSH2 0x12A JUMP JUMPDEST PUSH2 0x110 JUMP JUMPDEST SWAP1 POP DUP3 DUP2 MSTORE PUSH1 0x20 DUP2 ADD DUP5 DUP5 DUP5 ADD GT ISZERO PUSH2 0x196 JUMPI PUSH2 0x195 PUSH2 0x9E JUMP JUMPDEST JUMPDEST PUSH2 0x1A1 DUP5 DUP3 DUP6 PUSH2 0x15A JUMP JUMPDEST POP SWAP4 SWAP3 POP POP POP JUMP JUMPDEST PUSH0 DUP3 PUSH1 0x1F DUP4 ADD SLT PUSH2 0x1BD JUMPI PUSH2 0x1BC PUSH2 0x9A JUMP JUMPDEST JUMPDEST DUP2 MLOAD PUSH2 0x1CD DUP5 DUP3 PUSH1 0x20 DUP7 ADD PUSH2 0x168 JUMP JUMPDEST SWAP2 POP POP SWAP3 SWAP2 POP POP JUMP JUMPDEST PUSH0 DUP2 SWAP1 POP SWAP2 SWAP1 POP JUMP JUMPDEST PUSH2 0x1E8 DUP2 PUSH2 0x1D6 JUMP JUMPDEST DUP2 EQ PUSH2 0x1F2 JUMPI PUSH0 DUP1 REVERT JUMPDEST POP JUMP JUMPDEST PUSH0 DUP2 MLOAD SWAP1 POP PUSH2 0x203 DUP2 PUSH2 0x1DF JUMP JUMPDEST SWAP3 SWAP2 POP POP JUMP JUMPDEST PUSH0 DUP1 PUSH0 DUP1 PUSH0 PUSH1 0xA0 DUP7 DUP9 SUB SLT ISZERO PUSH2 0x222 JUMPI PUSH2 0x221 PUSH2 0x92 JUMP JUMPDEST JUMPDEST PUSH0 DUP7 ADD MLOAD PUSH8 0xFFFFFFFFFFFFFFFF DUP2 GT ISZERO PUSH2 0x23F JUMPI PUSH2 0x23E PUSH2 0x96 JUMP JUMPDEST JUMPDEST PUSH2 0x24B DUP9 DUP3 DUP10 ADD PUSH2 0x1A9 JUMP JUMPDEST SWAP6 POP POP PUSH1 0x20 DUP7 ADD MLOAD PUSH8 0xFFFFFFFFFFFFFFFF DUP2 GT ISZERO PUSH2 0x26C JUMPI PUSH2 0x26B PUSH2 0x96 JUMP JUMPDEST JUMPDEST PUSH2 0x278 DUP9 DUP3 DUP10 ADD PUSH2 0x1A9 JUMP JUMPDEST SWAP5 POP POP PUSH1 0x40 PUSH2 0x289 DUP9 DUP3 DUP10 ADD PUSH2 0x1F5 JUMP JUMPDEST SWAP4 POP POP PUSH1 0x60 DUP7 ADD MLOAD PUSH8 0xFFFFFFFFFFFFFFFF DUP2 GT ISZERO PUSH2 0x2AA JUMPI PUSH2 0x2A9 PUSH2 0x96 JUMP JUMPDEST JUMPDEST PUSH2 0x2B6 DUP9 DUP3 DUP10 ADD PUSH2 0x1A9 JUMP JUMPDEST SWAP3 POP POP PUSH1 0x80 DUP7 ADD MLOAD PUSH8 0xFFFFFFFFFFFFFFFF DUP2 GT ISZERO PUSH2 0x2D7 JUMPI PUSH2 0x2D6 PUSH2 0x96 JUMP JUMPDEST JUMPDEST PUSH2 0x2E3 DUP9 DUP3 DUP10 ADD PUSH2 0x1A9 JUMP JUMPDEST SWAP2 POP POP SWAP3 SWAP6 POP SWAP3 SWAP6 SWAP1 SWAP4 POP JUMP JUMPDEST PUSH0 DUP2 MLOAD SWAP1 POP SWAP2 SWAP1 POP JUMP JUMPDEST PUSH32 0x4E487B7100000000000000000000000000000000000000000000000000000000 PUSH0 MSTORE PUSH1 0x22 PUSH1 0x4 MSTORE PUSH1 0x24 PUSH0 REVERT JUMPDEST PUSH0 PUSH1 0x2 DUP3 DIV SWAP1 POP PUSH1 0x1 DUP3 AND DUP1 PUSH2 0x33E JUMPI PUSH1 0x7F DUP3 AND SWAP2 POP JUMPDEST PUSH1 0x20 DUP3 LT DUP2 SUB PUSH2 0x351 JUMPI PUSH2 0x350 PUSH2 0x2FA JUMP JUMPDEST JUMPDEST POP SWAP2 SWAP1 POP JUMP JUMPDEST PUSH0 DUP2 SWAP1 POP DUP2 PUSH0 MSTORE PUSH1 0x20 PUSH0 KECCAK256 SWAP1 POP SWAP2 SWAP1 POP JUMP JUMPDEST PUSH0 PUSH1 0x20 PUSH1 0x1F DUP4 ADD DIV SWAP1 POP SWAP2 SWAP1 POP JUMP JUMPDEST PUSH0 DUP3 DUP3 SHL SWAP1 POP SWAP3 SWAP2 POP POP JUMP JUMPDEST PUSH0 PUSH1 0x8 DUP4 MUL PUSH2 0x3B3 PUSH32 0xFFFFFFFFFFFFFFFFFFFFFFFFFFFFFFFFFFFFFFFFFFFFFFFFFFFFFFFFFFFFFFFF DUP3 PUSH2 0x378 JUMP JUMPDEST PUSH2 0x3BD DUP7 DUP4 PUSH2 0x378 JUMP JUMPDEST SWAP6 POP DUP1 NOT DUP5 AND SWAP4 POP DUP1 DUP7 AND DUP5 OR SWAP3 POP POP POP SWAP4 SWAP3 POP POP POP JUMP JUMPDEST PUSH0 DUP2 SWAP1 POP SWAP2 SWAP1 POP JUMP JUMPDEST PUSH0 PUSH2 0x3F8 PUSH2 0x3F3 PUSH2 0x3EE DUP5 PUSH2 0x1D6 JUMP JUMPDEST PUSH2 0x3D5 JUMP JUMPDEST PUSH2 0x1D6 JUMP JUMPDEST SWAP1 POP SWAP2 SWAP1 POP JUMP JUMPDEST PUSH0 DUP2 SWAP1 POP SWAP2 SWAP1 POP JUMP JUMPDEST PUSH2 0x411 DUP4 PUSH2 0x3DE JUMP JUMPDEST PUSH2 0x425 PUSH2 0x41D DUP3 PUSH2 0x3FF JUMP JUMPDEST DUP5 DUP5 SLOAD PUSH2 0x384 JUMP JUMPDEST DUP3 SSTORE POP POP POP POP JUMP JUMPDEST PUSH0 SWAP1 JUMP JUMPDEST PUSH2 0x439 PUSH2 0x42D JUMP JUMPDEST PUSH2 0x444 DUP2 DUP5 DUP5 PUSH2 0x408 JUMP JUMPDEST POP POP POP JUMP JUMPDEST JUMPDEST DUP2 DUP2 LT ISZERO PUSH2 0x467 JUMPI PUSH2 0x45C PUSH0 DUP3 PUSH2 0x431 JUMP JUMPDEST PUSH1 0x1 DUP2 ADD SWAP1 POP PUSH2 0x44A JUMP JUMPDEST POP POP JUMP JUMPDEST PUSH1 0x1F DUP3 GT ISZERO PUSH2 0x4AC JUMPI PUSH2 0x47D DUP2 PUSH2 0x357 JUMP JUMPDEST PUSH2 0x486 DUP5 PUSH2 0x369 JUMP JUMPDEST DUP2 ADD PUSH1 0x20 DUP6 LT ISZERO PUSH2 0x495 JUMPI DUP2 SWAP1 POP JUMPDEST PUSH2 0x4A9 PUSH2 0x4A1 DUP6 PUSH2 0x369 JUMP JUMPDEST DUP4 ADD DUP3 PUSH2 0x449 JUMP JUMPDEST POP POP JUMPDEST POP POP POP JUMP JUMPDEST PUSH0 DUP3 DUP3 SHR SWAP1 POP SWAP3 SWAP2 POP POP JUMP JUMPDEST PUSH0 PUSH2 0x4CC PUSH0 NOT DUP5 PUSH1 0x8 MUL PUSH2 0x4B1 JUMP JUMPDEST NOT DUP1 DUP4 AND SWAP2 POP POP SWAP3 SWAP2 POP POP JUMP JUMPDEST PUSH0 PUSH2 0x4E4 DUP4 DUP4 PUSH2 0x4BD JUMP JUMPDEST SWAP2 POP DUP3 PUSH1 0x2 MUL DUP3 OR SWAP1 POP SWAP3 SWAP2 POP POP JUMP JUMPDEST PUSH2 0x4FD DUP3 PUSH2 0x2F0 JUMP JUMPDEST PUSH8 0xFFFFFFFFFFFFFFFF DUP2 GT ISZERO PUSH2 0x516 JUMPI PUSH2 0x515 PUSH2 0xB2 JUMP JUMPDEST JUMPDEST PUSH2 0x520 DUP3 SLOAD PUSH2 0x327 JUMP JUMPDEST PUSH2 0x52B DUP3 DUP3 DUP6 PUSH2 0x46B JUMP JUMPDEST PUSH0 PUSH1 0x20 SWAP1 POP PUSH1 0x1F DUP4 GT PUSH1 0x1 DUP2 EQ PUSH2 0x55C JUMPI PUSH0 DUP5 ISZERO PUSH2 0x54A JUMPI DUP3 DUP8 ADD MLOAD SWAP1 POP JUMPDEST PUSH2 0x554 DUP6 DUP3 PUSH2 0x4D9 JUMP JUMPDEST DUP7 SSTORE POP PUSH2 0x5BB JUMP JUMPDEST PUSH1 0x1F NOT DUP5 AND PUSH2 0x56A DUP7 PUSH2 0x357 JUMP JUMPDEST PUSH0 JUMPDEST DUP3 DUP2 LT ISZERO PUSH2 0x591 JUMPI DUP5 DUP10 ADD MLOAD DUP3 SSTORE PUSH1 0x1 DUP3 ADD SWAP2 POP PUSH1 0x20 DUP6 ADD SWAP5 POP PUSH1 0x20 DUP2 ADD SWAP1 POP PUSH2 0x56C JUMP JUMPDEST DUP7 DUP4 LT ISZERO PUSH2 0x5AE JUMPI DUP5 DUP10 ADD MLOAD PUSH2 0x5AA PUSH1 0x1F DUP10 AND DUP3 PUSH2 0x4BD JUMP JUMPDEST DUP4 SSTORE POP JUMPDEST PUSH1 0x1 PUSH1 0x2 DUP9 MUL ADD DUP9 SSTORE POP POP POP JUMPDEST POP POP POP POP POP POP JUMP JUMPDEST PUSH2 0x755 DUP1 PUSH2 0x5D0 PUSH0 CODECOPY PUSH0 RETURN INVALID PUSH1 0x80 PUSH1 0x40 MSTORE CALLVALUE DUP1 ISZERO PUSH2 0xF JUMPI PUSH0 DUP1 REVERT JUMPDEST POP PUSH1 0x4 CALLDATASIZE LT PUSH2 0x86 JUMPI PUSH0 CALLDATALOAD PUSH1 0xE0 SHR DUP1 PUSH4 0x3FF4B938 GT PUSH2 0x59 JUMPI DUP1 PUSH4 0x3FF4B938 EQ PUSH2 0x102 JUMPI DUP1 PUSH4 0x977AACFC EQ PUSH2 0x120 JUMPI DUP1 PUSH4 0xA4E7D437 EQ PUSH2 0x13E JUMPI DUP1 PUSH4 0xD46D7151 EQ PUSH2 0x15C JUMPI PUSH2 0x86 JUMP JUMPDEST DUP1 PUSH4 0x397B652 EQ PUSH2 0x8A JUMPI DUP1 PUSH4 0x6FDDE03 EQ PUSH2 0xA8 JUMPI DUP1 PUSH4 0x26C5C154 EQ PUSH2 0xC6 JUMPI DUP1 PUSH4 0x3B6BFE6D EQ PUSH2 0xE4 JUMPI JUMPDEST PUSH0 DUP1 REVERT JUMPDEST PUSH2 0x92 PUSH2 0x17A JUMP JUMPDEST PUSH1 0x40 MLOAD PUSH2 0x9F SWAP2 SWAP1 PUSH2 0x430 JUMP JUMPDEST PUSH1 0x40 MLOAD DUP1 SWAP2 SUB SWAP1 RETURN JUMPDEST PUSH2 0xB0 PUSH2 0x180 JUMP JUMPDEST PUSH1 0x40 MLOAD PUSH2 0xBD SWAP2 SWAP1 PUSH2 0x4B9 JUMP JUMPDEST PUSH1 0x40 MLOAD DUP1 SWAP2 SUB SWAP1 RETURN JUMPDEST PUSH2 0xCE PUSH2 0x20B JUMP JUMPDEST PUSH1 0x40 MLOAD PUSH2 0xDB SWAP2 SWAP1 PUSH2 0x4B9 JUMP JUMPDEST PUSH1 0x40 MLOAD DUP1 SWAP2 SUB SWAP1 RETURN JUMPDEST PUSH2 0xEC PUSH2 0x297 JUMP JUMPDEST PUSH1 0x40 MLOAD PUSH2 0xF9 SWAP2 SWAP1 PUSH2 0x4B9 JUMP JUMPDEST PUSH1 0x40 MLOAD DUP1 SWAP2 SUB SWAP1 RETURN JUMPDEST PUSH2 0x10A PUSH2 0x2C1 JUMP JUMPDEST PUSH1 0x40 MLOAD PUSH2 0x117 SWAP2 SWAP1 PUSH2 0x4B9 JUMP JUMPDEST PUSH1 0x40 MLOAD DUP1 SWAP2 SUB SWAP1 RETURN JUMPDEST PUSH2 0x128 PUSH2 0x34D JUMP JUMPDEST PUSH1 0x40 MLOAD PUSH2 0x135 SWAP2 SWAP1 PUSH2 0x4B9 JUMP JUMPDEST PUSH1 0x40 MLOAD DUP1 SWAP2 SUB SWAP1 RETURN JUMPDEST PUSH2 0x146 PUSH2 0x3D9 JUMP JUMPDEST PUSH1 0x40 MLOAD PUSH2 0x153 SWAP2 SWAP1 PUSH2 0x430 JUMP JUMPDEST PUSH1 0x40 MLOAD DUP1 SWAP2 SUB SWAP1 RETURN JUMPDEST PUSH2 0x164 PUSH2 0x3EE JUMP JUMPDEST PUSH1 0x40 MLOAD PUSH2 0x171 SWAP2 SWAP1 PUSH2 0x4B9 JUMP JUMPDEST PUSH1 0x40 MLOAD DUP1 SWAP2 SUB SWAP1 RETURN JUMPDEST PUSH1 0x2 SLOAD DUP2 JUMP JUMPDEST PUSH0 DUP1 SLOAD PUSH2 0x18C SWAP1 PUSH2 0x506 JUMP JUMPDEST DUP1 PUSH1 0x1F ADD PUSH1 0x20 DUP1 SWAP2 DIV MUL PUSH1 0x20 ADD PUSH1 0x40 MLOAD SWAP1 DUP2 ADD PUSH1 0x40 MSTORE DUP1 SWAP3 SWAP2 SWAP1 DUP2 DUP2 MSTORE PUSH1 0x20 ADD DUP3 DUP1 SLOAD PUSH2 0x1B8 SWAP1 PUSH2 0x506 JUMP JUMPDEST DUP1 ISZERO PUSH2 0x203 JUMPI DUP1 PUSH1 0x1F LT PUSH2 0x1DA JUMPI PUSH2 0x100 DUP1 DUP4 SLOAD DIV MUL DUP4 MSTORE SWAP2 PUSH1 0x20 ADD SWAP2 PUSH2 0x203 JUMP JUMPDEST DUP3 ADD SWAP2 SWAP1 PUSH0 MSTORE PUSH1 0x20 PUSH0 KECCAK256 SWAP1 JUMPDEST DUP2 SLOAD DUP2 MSTORE SWAP1 PUSH1 0x1 ADD SWAP1 PUSH1 0x20 ADD DUP1 DUP4 GT PUSH2 0x1E6 JUMPI DUP3 SWAP1 SUB PUSH1 0x1F AND DUP3 ADD SWAP2 JUMPDEST POP POP POP POP POP DUP2 JUMP JUMPDEST PUSH1 0x1 DUP1 SLOAD PUSH2 0x218 SWAP1 PUSH2 0x506 JUMP JUMPDEST DUP1 PUSH1 0x1F ADD PUSH1 0x20 DUP1 SWAP2 DIV MUL PUSH1 0x20 ADD PUSH1 0x40 MLOAD SWAP1 DUP2 ADD PUSH1 0x40 MSTORE DUP1 SWAP3 SWAP2 SWAP1 DUP2 DUP2 MSTORE PUSH1 0x20 ADD DUP3 DUP1 SLOAD PUSH2 0x244 SWAP1 PUSH2 0x506 JUMP JUMPDEST DUP1 ISZERO PUSH2 0x28F JUMPI DUP1 PUSH1 0x1F LT PUSH2 0x266 JUMPI PUSH2 0x100 DUP1 DUP4 SLOAD DIV MUL DUP4 MSTORE SWAP2 PUSH1 0x20 ADD SWAP2 PUSH2 0x28F JUMP JUMPDEST DUP3 ADD SWAP2 SWAP1 PUSH0 MSTORE PUSH1 0x20 PUSH0 KECCAK256 SWAP1 JUMPDEST DUP2 SLOAD DUP2 MSTORE SWAP1 PUSH1 0x1 ADD SWAP1 PUSH1 0x20 ADD DUP1 DUP4 GT PUSH2 0x272 JUMPI DUP3 SWAP1 SUB PUSH1 0x1F AND DUP3 ADD SWAP2 JUMPDEST POP POP POP POP POP DUP2 JUMP JUMPDEST PUSH1 0x60 PUSH0 PUSH1 0x4 PUSH1 0x40 MLOAD PUSH1 0x20 ADD PUSH2 0x2AD SWAP3 SWAP2 SWAP1 PUSH2 0x61C JUMP JUMPDEST PUSH1 0x40 MLOAD PUSH1 0x20 DUP2 DUP4 SUB SUB DUP2 MSTORE SWAP1 PUSH1 0x40 MSTORE SWAP1 POP SWAP1 JUMP JUMPDEST PUSH1 0x3 DUP1 SLOAD PUSH2 0x2CE SWAP1 PUSH2 0x506 JUMP JUMPDEST DUP1 PUSH1 0x1F ADD PUSH1 0x20 DUP1 SWAP2 DIV MUL PUSH1 0x20 ADD PUSH1 0x40 MLOAD SWAP1 DUP2 ADD PUSH1 0x40 MSTORE DUP1 SWAP3 SWAP2 SWAP1 DUP2 DUP2 MSTORE PUSH1 0x20 ADD DUP3 DUP1 SLOAD PUSH2 0x2FA SWAP1 PUSH2 0x506 JUMP JUMPDEST DUP1 ISZERO PUSH2 0x345 JUMPI DUP1 PUSH1 0x1F LT PUSH2 0x31C JUMPI PUSH2 0x100 DUP1 DUP4 SLOAD DIV MUL DUP4 MSTORE SWAP2 PUSH1 0x20 ADD SWAP2 PUSH2 0x345 JUMP JUMPDEST DUP3 ADD SWAP2 SWAP1 PUSH0 MSTORE PUSH1 0x20 PUSH0 KECCAK256 SWAP1 JUMPDEST DUP2 SLOAD DUP2 MSTORE SWAP1 PUSH1 0x1 ADD SWAP1 PUSH1 0x20 ADD DUP1 DUP4 GT PUSH2 0x328 JUMPI DUP3 SWAP1 SUB PUSH1 0x1F AND DUP3 ADD SWAP2 JUMPDEST POP POP POP POP POP DUP2 JUMP JUMPDEST PUSH1 0x4 DUP1 SLOAD PUSH2 0x35A SWAP1 PUSH2 0x506 JUMP JUMPDEST DUP1 PUSH1 0x1F ADD PUSH1 0x20 DUP1 SWAP2 DIV MUL PUSH1 0x20 ADD PUSH1 0x40 MLOAD SWAP1 DUP2 ADD PUSH1 0x40 MSTORE DUP1 SWAP3 SWAP2 SWAP1 DUP2 DUP2 MSTORE PUSH1 0x20 ADD DUP3 DUP1 SLOAD PUSH2 0x386 SWAP1 PUSH2 0x506 JUMP JUMPDEST DUP1 ISZERO PUSH2 0x3D1 JUMPI DUP1 PUSH1 0x1F LT PUSH2 0x3A8 JUMPI PUSH2 0x100 DUP1 DUP4 SLOAD DIV MUL DUP4 MSTORE SWAP2 PUSH1 0x20 ADD SWAP2 PUSH2 0x3D1 JUMP JUMPDEST DUP3 ADD SWAP2 SWAP1 PUSH0 MSTORE PUSH1 0x20 PUSH0 KECCAK256 SWAP1 JUMPDEST DUP2 SLOAD DUP2 MSTORE SWAP1 PUSH1 0x1 ADD SWAP1 PUSH1 0x20 ADD DUP1 DUP4 GT PUSH2 0x3B4 JUMPI DUP3 SWAP1 SUB PUSH1 0x1F AND DUP3 ADD SWAP2 JUMPDEST POP POP POP POP POP DUP2 JUMP JUMPDEST PUSH0 PUSH1 0xA PUSH1 0x2 SLOAD PUSH2 0x3E9 SWAP2 SWAP1 PUSH2 0x677 JUMP JUMPDEST SWAP1 POP SWAP1 JUMP JUMPDEST PUSH1 0x60 PUSH0 PUSH1 0x3 PUSH1 0x40 MLOAD PUSH1 0x20 ADD PUSH2 0x404 SWAP3 SWAP2 SWAP1 PUSH2 0x6F1 JUMP JUMPDEST PUSH1 0x40 MLOAD PUSH1 0x20 DUP2 DUP4 SUB SUB DUP2 MSTORE SWAP1 PUSH1 0x40 MSTORE SWAP1 POP SWAP1 JUMP JUMPDEST PUSH0 DUP2 SWAP1 POP SWAP2 SWAP1 POP JUMP JUMPDEST PUSH2 0x42A DUP2 PUSH2 0x418 JUMP JUMPDEST DUP3 MSTORE POP POP JUMP JUMPDEST PUSH0 PUSH1 0x20 DUP3 ADD SWAP1 POP PUSH2 0x443 PUSH0 DUP4 ADD DUP5 PUSH2 0x421 JUMP JUMPDEST SWAP3 SWAP2 POP POP JUMP JUMPDEST PUSH0 DUP2 MLOAD SWAP1 POP SWAP2 SWAP1 POP JUMP JUMPDEST PUSH0 DUP3 DUP3 MSTORE PUSH1 0x20 DUP3 ADD SWAP1 POP SWAP3 SWAP2 POP POP JUMP JUMPDEST DUP3 DUP2 DUP4 MCOPY PUSH0 DUP4 DUP4 ADD MSTORE POP POP POP JUMP JUMPDEST PUSH0 PUSH1 0x1F NOT PUSH1 0x1F DUP4 ADD AND SWAP1 POP SWAP2 SWAP1 POP JUMP JUMPDEST PUSH0 PUSH2 0x48B DUP3 PUSH2 0x449 JUMP JUMPDEST PUSH2 0x495 DUP2 DUP6 PUSH2 0x453 JUMP JUMPDEST SWAP4 POP PUSH2 0x4A5 DUP2 DUP6 PUSH1 0x20 DUP7 ADD PUSH2 0x463 JUMP JUMPDEST PUSH2 0x4AE DUP2 PUSH2 0x471 JUMP JUMPDEST DUP5 ADD SWAP2 POP POP SWAP3 SWAP2 POP POP JUMP JUMPDEST PUSH0 PUSH1 0x20 DUP3 ADD SWAP1 POP DUP2 DUP2 SUB PUSH0 DUP4 ADD MSTORE PUSH2 0x4D1 DUP2 DUP5 PUSH2 0x481 JUMP JUMPDEST SWAP1 POP SWAP3 SWAP2 POP POP JUMP JUMPDEST PUSH32 0x4E487B7100000000000000000000000000000000000000000000000000000000 PUSH0 MSTORE PUSH1 0x22 PUSH1 0x4 MSTORE PUSH1 0x24 PUSH0 REVERT JUMPDEST PUSH0 PUSH1 0x2 DUP3 DIV SWAP1 POP PUSH1 0x1 DUP3 AND DUP1 PUSH2 0x51D JUMPI PUSH1 0x7F DUP3 AND SWAP2 POP JUMPDEST PUSH1 0x20 DUP3 LT DUP2 SUB PUSH2 0x530 JUMPI PUSH2 0x52F PUSH2 0x4D9 JUMP JUMPDEST JUMPDEST POP SWAP2 SWAP1 POP JUMP JUMPDEST PUSH0 DUP2 SWAP1 POP SWAP3 SWAP2 POP POP JUMP JUMPDEST PUSH0 DUP2 SWAP1 POP DUP2 PUSH0 MSTORE PUSH1 0x20 PUSH0 KECCAK256 SWAP1 POP SWAP2 SWAP1 POP JUMP JUMPDEST PUSH0 DUP2 SLOAD PUSH2 0x55E DUP2 PUSH2 0x506 JUMP JUMPDEST PUSH2 0x568 DUP2 DUP7 PUSH2 0x536 JUMP JUMPDEST SWAP5 POP PUSH1 0x1 DUP3 AND PUSH0 DUP2 EQ PUSH2 0x582 JUMPI PUSH1 0x1 DUP2 EQ PUSH2 0x597 JUMPI PUSH2 0x5C9 JUMP JUMPDEST PUSH1 0xFF NOT DUP4 AND DUP7 MSTORE DUP2 ISZERO ISZERO DUP3 MUL DUP7 ADD SWAP4 POP PUSH2 0x5C9 JUMP JUMPDEST PUSH2 0x5A0 DUP6 PUSH2 0x540 JUMP JUMPDEST PUSH0 JUMPDEST DUP4 DUP2 LT ISZERO PUSH2 0x5C1 JUMPI DUP2 SLOAD DUP2 DUP10 ADD MSTORE PUSH1 0x1 DUP3 ADD SWAP2 POP PUSH1 0x20 DUP2 ADD SWAP1 POP PUSH2 0x5A2 JUMP JUMPDEST DUP4 DUP9 ADD SWAP6 POP POP POP JUMPDEST POP POP POP SWAP3 SWAP2 POP POP JUMP JUMPDEST PUSH32 0x2069732077726974696E6720636F646520696E20000000000000000000000000 PUSH0 DUP3 ADD MSTORE POP JUMP JUMPDEST PUSH0 PUSH2 0x606 PUSH1 0x14 DUP4 PUSH2 0x536 JUMP JUMPDEST SWAP2 POP PUSH2 0x611 DUP3 PUSH2 0x5D2 JUMP JUMPDEST PUSH1 0x14 DUP3 ADD SWAP1 POP SWAP2 SWAP1 POP JUMP JUMPDEST PUSH0 PUSH2 0x627 DUP3 DUP6 PUSH2 0x552 JUMP JUMPDEST SWAP2 POP PUSH2 0x632 DUP3 PUSH2 0x5FA JUMP JUMPDEST SWAP2 POP PUSH2 0x63E DUP3 DUP5 PUSH2 0x552 JUMP JUMPDEST SWAP2 POP DUP2 SWAP1 POP SWAP4 SWAP3 POP POP POP JUMP JUMPDEST PUSH32 0x4E487B7100000000000000000000000000000000000000000000000000000000 PUSH0 MSTORE PUSH1 0x12 PUSH1 0x4 MSTORE PUSH1 0x24 PUSH0 REVERT JUMPDEST PUSH0 PUSH2 0x681 DUP3 PUSH2 0x418 JUMP JUMPDEST SWAP2 POP PUSH2 0x68C DUP4 PUSH2 0x418 JUMP JUMPDEST SWAP3 POP DUP3 PUSH2 0x69C JUMPI PUSH2 0x69B PUSH2 0x64A JUMP JUMPDEST JUMPDEST DUP3 DUP3 DIV SWAP1 POP SWAP3 SWAP2 POP POP JUMP JUMPDEST PUSH32 0x20697320706572666F726D696E672077656C6C20617320612000000000000000 PUSH0 DUP3 ADD MSTORE POP JUMP JUMPDEST PUSH0 PUSH2 0x6DB PUSH1 0x19 DUP4 PUSH2 0x536 JUMP JUMPDEST SWAP2 POP PUSH2 0x6E6 DUP3 PUSH2 0x6A7 JUMP JUMPDEST PUSH1 0x19 DUP3 ADD SWAP1 POP SWAP2 SWAP1 POP JUMP JUMPDEST PUSH0 PUSH2 0x6FC DUP3 DUP6 PUSH2 0x552 JUMP JUMPDEST SWAP2 POP PUSH2 0x707 DUP3 PUSH2 0x6CF JUMP JUMPDEST SWAP2 POP PUSH2 0x713 DUP3 DUP5 PUSH2 0x552 JUMP JUMPDEST SWAP2 POP DUP2 SWAP1 POP SWAP4 SWAP3 POP POP POP JUMP INVALID LOG2 PUSH5 0x6970667358 0x22 SLT KECCAK256 SHL 0xBC 0xF9 0x22 CALLDATASIZE 0x4D 0x25 PUSH7 0x86E2B3F427B506 DUP12 0xE6 SWAP5 PUSH26 0x63B44E87E7E1054D5ABF903EA964736F6C634300081A00330000 "
				},
				"gasEstimates": {
					"creation": {
						"codeDepositCost": "375400",
						"executionCost": "infinite",
						"totalCost": "infinite"
					},
					"external": {
						"calculateBonus()": "infinite",
						"employeeAddress()": "infinite",
						"generatePerformanceReport()": "infinite",
						"jobTitle()": "infinite",
						"name()": "infinite",
						"programmingLanguage()": "infinite",
						"salary()": "2426",
						"writeCode()": "infinite"
					}
				},
				"methodIdentifiers": {
					"calculateBonus()": "a4e7d437",
					"employeeAddress()": "26c5c154",
					"generatePerformanceReport()": "d46d7151",
					"jobTitle()": "3ff4b938",
					"name()": "06fdde03",
					"programmingLanguage()": "977aacfc",
					"salary()": "0397b652",
					"writeCode()": "3b6bfe6d"
				}
			},
			"storageLayout": {
				"storage": [
					{
						"astId": 3,
						"contract": "Day6/p1.sol:Programmer",
						"label": "name",
						"offset": 0,
						"slot": "0",
						"type": "t_string_storage"
					},
					{
						"astId": 5,
						"contract": "Day6/p1.sol:Programmer",
						"label": "employeeAddress",
						"offset": 0,
						"slot": "1",
						"type": "t_string_storage"
					},
					{
						"astId": 7,
						"contract": "Day6/p1.sol:Programmer",
						"label": "salary",
						"offset": 0,
						"slot": "2",
						"type": "t_uint256"
					},
					{
						"astId": 9,
						"contract": "Day6/p1.sol:Programmer",
						"label": "jobTitle",
						"offset": 0,
						"slot": "3",
						"type": "t_string_storage"
					},
					{
						"astId": 152,
						"contract": "Day6/p1.sol:Programmer",
						"label": "programmingLanguage",
						"offset": 0,
						"slot": "4",
						"type": "t_string_storage"
					}
				],
				"types": {
					"t_string_storage": {
						"encoding": "bytes",
						"label": "string",
						"numberOfBytes": "32"
					},
					"t_uint256": {
						"encoding": "inplace",
						"label": "uint256",
						"numberOfBytes": "32"
					}
				}
			},
			"userdoc": {
				"kind": "user",
				"methods": {},
				"version": 1
			}
		}
	}
}