{
	"Day6/p2.sol": {
		"Car": {
			"abi": [
				{
					"inputs": [
						{
							"internalType": "string",
							"name": "_make",
							"type": "string"
						},
						{
							"internalType": "string",
							"name": "_model",
							"type": "string"
						},
						{
							"internalType": "uint256",
							"name": "_year",
							"type": "uint256"
						},
						{
							"internalType": "string",
							"name": "_fuelType",
							"type": "string"
						},
						{
							"internalType": "uint256",
							"name": "_numDoors",
							"type": "uint256"
						}
					],
					"stateMutability": "nonpayable",
					"type": "constructor"
				},
				{
					"inputs": [
						{
							"internalType": "uint256",
							"name": "fuelAmount",
							"type": "uint256"
						}
					],
					"name": "distanceTraveled",
					"outputs": [
						{
							"internalType": "uint256",
							"name": "",
							"type": "uint256"
						}
					],
					"stateMutability": "pure",
					"type": "function"
				},
				{
					"inputs": [],
					"name": "fuelEfficiency",
					"outputs": [
						{
							"internalType": "uint256",
							"name": "",
							"type": "uint256"
						}
					],
					"stateMutability": "pure",
					"type": "function"
				},
				{
					"inputs": [],
					"name": "fuelType",
					"outputs": [
						{
							"internalType": "string",
							"name": "",
							"type": "string"
						}
					],
					"stateMutability": "view",
					"type": "function"
				},
				{
					"inputs": [],
					"name": "make",
					"outputs": [
						{
							"internalType": "string",
							"name": "",
							"type": "string"
						}
					],
					"stateMutability": "view",
					"type": "function"
				},
				{
					"inputs": [],
					"name": "maxSpeed",
					"outputs": [
						{
							"internalType": "uint256",
							"name": "",
							"type": "uint256"
						}
					],
					"stateMutability": "pure",
					"type": "function"
				},
				{
					"inputs": [],
					"name": "model",
					"outputs": [
						{
							"internalType": "string",
							"name": "",
							"type": "string"
						}
					],
					"stateMutability": "view",
					"type": "function"
				},
				{
					"inputs": [],
					"name": "numDoors",
					"outputs": [
						{
							"internalType": "uint256",
							"name": "",
							"type": "uint256"
						}
					],
					"stateMutability": "view",
					"type": "function"
				},
				{
					"inputs": [],
					"name": "year",
					"outputs": [
						{
							"internalType": "uint256",
							"name": "",
							"type": "uint256"
						}
					],
					"stateMutability": "view",
					"type": "function"
				}
			],
			"devdoc": {
				"kind": "dev",
				"methods": {},
				"version": 1
			},
			"evm": {
				"assembly": "    /* \"Day6/p2.sol\":2173:2910  contract Car is Vehicle {... */\n  mstore(0x40, 0x80)\n    /* \"Day6/p2.sol\":2330:2527  constructor(string memory _make, string memory _model, uint _year, string memory _fuelType, uint _numDoors)... */\n  callvalue\n  dup1\n  iszero\n  tag_1\n  jumpi\n  0x00\n  dup1\n  revert\ntag_1:\n  pop\n  mload(0x40)\n  sub(codesize, bytecodeSize)\n  dup1\n  bytecodeSize\n  dup4\n  codecopy\n  dup2\n  dup2\n  add\n  0x40\n  mstore\n  dup2\n  add\n  swap1\n  tag_2\n  swap2\n  swap1\n  tag_3\n  jump\t// in\ntag_2:\n    /* \"Day6/p2.sol\":2455:2460  _make */\n  dup5\n    /* \"Day6/p2.sol\":2462:2468  _model */\n  dup5\n    /* \"Day6/p2.sol\":2470:2475  _year */\n  dup5\n    /* \"Day6/p2.sol\":2477:2486  _fuelType */\n  dup5\n    /* \"Day6/p2.sol\":391:396  _make */\n  dup4\n    /* \"Day6/p2.sol\":384:388  make */\n  0x00\n    /* \"Day6/p2.sol\":384:396  make = _make */\n  swap1\n  dup2\n  tag_7\n  swap2\n  swap1\n  tag_8\n  jump\t// in\ntag_7:\n  pop\n    /* \"Day6/p2.sol\":415:421  _model */\n  dup3\n    /* \"Day6/p2.sol\":407:412  model */\n  0x01\n    /* \"Day6/p2.sol\":407:421  model = _model */\n  swap1\n  dup2\n  tag_9\n  swap2\n  swap1\n  tag_8\n  jump\t// in\ntag_9:\n  pop\n    /* \"Day6/p2.sol\":439:444  _year */\n  dup2\n    /* \"Day6/p2.sol\":432:436  year */\n  0x02\n    /* \"Day6/p2.sol\":432:444  year = _year */\n  dup2\n  swap1\n  sstore\n  pop\n    /* \"Day6/p2.sol\":466:475  _fuelType */\n  dup1\n    /* \"Day6/p2.sol\":455:463  fuelType */\n  0x03\n    /* \"Day6/p2.sol\":455:475  fuelType = _fuelType */\n  swap1\n  dup2\n  tag_10\n  swap2\n  swap1\n  tag_8\n  jump\t// in\ntag_10:\n  pop\n    /* \"Day6/p2.sol\":281:483  constructor(string memory _make, string memory _model, uint _year, string memory _fuelType) {... */\n  pop\n  pop\n  pop\n  pop\n    /* \"Day6/p2.sol\":2510:2519  _numDoors */\n  dup1\n    /* \"Day6/p2.sol\":2499:2507  numDoors */\n  0x04\n    /* \"Day6/p2.sol\":2499:2519  numDoors = _numDoors */\n  dup2\n  swap1\n  sstore\n  pop\n    /* \"Day6/p2.sol\":2330:2527  constructor(string memory _make, string memory _model, uint _year, string memory _fuelType, uint _numDoors)... */\n  pop\n  pop\n  pop\n  pop\n  pop\n    /* \"Day6/p2.sol\":2173:2910  contract Car is Vehicle {... */\n  jump(tag_12)\n    /* \"#utility.yul\":7:82   */\ntag_13:\n    /* \"#utility.yul\":40:46   */\n  0x00\n    /* \"#utility.yul\":73:75   */\n  0x40\n    /* \"#utility.yul\":67:76   */\n  mload\n    /* \"#utility.yul\":57:76   */\n  swap1\n  pop\n    /* \"#utility.yul\":7:82   */\n  swap1\n  jump\t// out\n    /* \"#utility.yul\":88:205   */\ntag_14:\n    /* \"#utility.yul\":197:198   */\n  0x00\n    /* \"#utility.yul\":194:195   */\n  dup1\n    /* \"#utility.yul\":187:199   */\n  revert\n    /* \"#utility.yul\":211:328   */\ntag_15:\n    /* \"#utility.yul\":320:321   */\n  0x00\n    /* \"#utility.yul\":317:318   */\n  dup1\n    /* \"#utility.yul\":310:322   */\n  revert\n    /* \"#utility.yul\":334:451   */\ntag_16:\n    /* \"#utility.yul\":443:444   */\n  0x00\n    /* \"#utility.yul\":440:441   */\n  dup1\n    /* \"#utility.yul\":433:445   */\n  revert\n    /* \"#utility.yul\":457:574   */\ntag_17:\n    /* \"#utility.yul\":566:567   */\n  0x00\n    /* \"#utility.yul\":563:564   */\n  dup1\n    /* \"#utility.yul\":556:568   */\n  revert\n    /* \"#utility.yul\":580:682   */\ntag_18:\n    /* \"#utility.yul\":621:627   */\n  0x00\n    /* \"#utility.yul\":672:674   */\n  0x1f\n    /* \"#utility.yul\":668:675   */\n  not\n    /* \"#utility.yul\":663:665   */\n  0x1f\n    /* \"#utility.yul\":656:661   */\n  dup4\n    /* \"#utility.yul\":652:666   */\n  add\n    /* \"#utility.yul\":648:676   */\n  and\n    /* \"#utility.yul\":638:676   */\n  swap1\n  pop\n    /* \"#utility.yul\":580:682   */\n  swap2\n  swap1\n  pop\n  jump\t// out\n    /* \"#utility.yul\":688:868   */\ntag_19:\n    /* \"#utility.yul\":736:813   */\n  0x4e487b7100000000000000000000000000000000000000000000000000000000\n    /* \"#utility.yul\":733:734   */\n  0x00\n    /* \"#utility.yul\":726:814   */\n  mstore\n    /* \"#utility.yul\":833:837   */\n  0x41\n    /* \"#utility.yul\":830:831   */\n  0x04\n    /* \"#utility.yul\":823:838   */\n  mstore\n    /* \"#utility.yul\":857:861   */\n  0x24\n    /* \"#utility.yul\":854:855   */\n  0x00\n    /* \"#utility.yul\":847:862   */\n  revert\n    /* \"#utility.yul\":874:1155   */\ntag_20:\n    /* \"#utility.yul\":957:984   */\n  tag_56\n    /* \"#utility.yul\":979:983   */\n  dup3\n    /* \"#utility.yul\":957:984   */\n  tag_18\n  jump\t// in\ntag_56:\n    /* \"#utility.yul\":949:955   */\n  dup2\n    /* \"#utility.yul\":945:985   */\n  add\n    /* \"#utility.yul\":1087:1093   */\n  dup2\n    /* \"#utility.yul\":1075:1085   */\n  dup2\n    /* \"#utility.yul\":1072:1094   */\n  lt\n    /* \"#utility.yul\":1051:1069   */\n  0xffffffffffffffff\n    /* \"#utility.yul\":1039:1049   */\n  dup3\n    /* \"#utility.yul\":1036:1070   */\n  gt\n    /* \"#utility.yul\":1033:1095   */\n  or\n    /* \"#utility.yul\":1030:1118   */\n  iszero\n  tag_57\n  jumpi\n    /* \"#utility.yul\":1098:1116   */\n  tag_58\n  tag_19\n  jump\t// in\ntag_58:\n    /* \"#utility.yul\":1030:1118   */\ntag_57:\n    /* \"#utility.yul\":1138:1148   */\n  dup1\n    /* \"#utility.yul\":1134:1136   */\n  0x40\n    /* \"#utility.yul\":1127:1149   */\n  mstore\n    /* \"#utility.yul\":917:1155   */\n  pop\n    /* \"#utility.yul\":874:1155   */\n  pop\n  pop\n  jump\t// out\n    /* \"#utility.yul\":1161:1290   */\ntag_21:\n    /* \"#utility.yul\":1195:1201   */\n  0x00\n    /* \"#utility.yul\":1222:1242   */\n  tag_60\n  tag_13\n  jump\t// in\ntag_60:\n    /* \"#utility.yul\":1212:1242   */\n  swap1\n  pop\n    /* \"#utility.yul\":1251:1284   */\n  tag_61\n    /* \"#utility.yul\":1279:1283   */\n  dup3\n    /* \"#utility.yul\":1271:1277   */\n  dup3\n    /* \"#utility.yul\":1251:1284   */\n  tag_20\n  jump\t// in\ntag_61:\n    /* \"#utility.yul\":1161:1290   */\n  swap2\n  swap1\n  pop\n  jump\t// out\n    /* \"#utility.yul\":1296:1604   */\ntag_22:\n    /* \"#utility.yul\":1358:1362   */\n  0x00\n    /* \"#utility.yul\":1448:1466   */\n  0xffffffffffffffff\n    /* \"#utility.yul\":1440:1446   */\n  dup3\n    /* \"#utility.yul\":1437:1467   */\n  gt\n    /* \"#utility.yul\":1434:1490   */\n  iszero\n  tag_63\n  jumpi\n    /* \"#utility.yul\":1470:1488   */\n  tag_64\n  tag_19\n  jump\t// in\ntag_64:\n    /* \"#utility.yul\":1434:1490   */\ntag_63:\n    /* \"#utility.yul\":1508:1537   */\n  tag_65\n    /* \"#utility.yul\":1530:1536   */\n  dup3\n    /* \"#utility.yul\":1508:1537   */\n  tag_18\n  jump\t// in\ntag_65:\n    /* \"#utility.yul\":1500:1537   */\n  swap1\n  pop\n    /* \"#utility.yul\":1592:1596   */\n  0x20\n    /* \"#utility.yul\":1586:1590   */\n  dup2\n    /* \"#utility.yul\":1582:1597   */\n  add\n    /* \"#utility.yul\":1574:1597   */\n  swap1\n  pop\n    /* \"#utility.yul\":1296:1604   */\n  swap2\n  swap1\n  pop\n  jump\t// out\n    /* \"#utility.yul\":1610:1749   */\ntag_23:\n    /* \"#utility.yul\":1699:1705   */\n  dup3\n    /* \"#utility.yul\":1694:1697   */\n  dup2\n    /* \"#utility.yul\":1689:1692   */\n  dup4\n    /* \"#utility.yul\":1683:1706   */\n  mcopy\n    /* \"#utility.yul\":1740:1741   */\n  0x00\n    /* \"#utility.yul\":1731:1737   */\n  dup4\n    /* \"#utility.yul\":1726:1729   */\n  dup4\n    /* \"#utility.yul\":1722:1738   */\n  add\n    /* \"#utility.yul\":1715:1742   */\n  mstore\n    /* \"#utility.yul\":1610:1749   */\n  pop\n  pop\n  pop\n  jump\t// out\n    /* \"#utility.yul\":1755:2189   */\ntag_24:\n    /* \"#utility.yul\":1844:1849   */\n  0x00\n    /* \"#utility.yul\":1869:1935   */\n  tag_68\n    /* \"#utility.yul\":1885:1934   */\n  tag_69\n    /* \"#utility.yul\":1927:1933   */\n  dup5\n    /* \"#utility.yul\":1885:1934   */\n  tag_22\n  jump\t// in\ntag_69:\n    /* \"#utility.yul\":1869:1935   */\n  tag_21\n  jump\t// in\ntag_68:\n    /* \"#utility.yul\":1860:1935   */\n  swap1\n  pop\n    /* \"#utility.yul\":1958:1964   */\n  dup3\n    /* \"#utility.yul\":1951:1956   */\n  dup2\n    /* \"#utility.yul\":1944:1965   */\n  mstore\n    /* \"#utility.yul\":1996:2000   */\n  0x20\n    /* \"#utility.yul\":1989:1994   */\n  dup2\n    /* \"#utility.yul\":1985:2001   */\n  add\n    /* \"#utility.yul\":2034:2037   */\n  dup5\n    /* \"#utility.yul\":2025:2031   */\n  dup5\n    /* \"#utility.yul\":2020:2023   */\n  dup5\n    /* \"#utility.yul\":2016:2032   */\n  add\n    /* \"#utility.yul\":2013:2038   */\n  gt\n    /* \"#utility.yul\":2010:2122   */\n  iszero\n  tag_70\n  jumpi\n    /* \"#utility.yul\":2041:2120   */\n  tag_71\n  tag_17\n  jump\t// in\ntag_71:\n    /* \"#utility.yul\":2010:2122   */\ntag_70:\n    /* \"#utility.yul\":2131:2183   */\n  tag_72\n    /* \"#utility.yul\":2176:2182   */\n  dup5\n    /* \"#utility.yul\":2171:2174   */\n  dup3\n    /* \"#utility.yul\":2166:2169   */\n  dup6\n    /* \"#utility.yul\":2131:2183   */\n  tag_23\n  jump\t// in\ntag_72:\n    /* \"#utility.yul\":1850:2189   */\n  pop\n    /* \"#utility.yul\":1755:2189   */\n  swap4\n  swap3\n  pop\n  pop\n  pop\n  jump\t// out\n    /* \"#utility.yul\":2209:2564   */\ntag_25:\n    /* \"#utility.yul\":2276:2281   */\n  0x00\n    /* \"#utility.yul\":2325:2328   */\n  dup3\n    /* \"#utility.yul\":2318:2322   */\n  0x1f\n    /* \"#utility.yul\":2310:2316   */\n  dup4\n    /* \"#utility.yul\":2306:2323   */\n  add\n    /* \"#utility.yul\":2302:2329   */\n  slt\n    /* \"#utility.yul\":2292:2414   */\n  tag_74\n  jumpi\n    /* \"#utility.yul\":2333:2412   */\n  tag_75\n  tag_16\n  jump\t// in\ntag_75:\n    /* \"#utility.yul\":2292:2414   */\ntag_74:\n    /* \"#utility.yul\":2443:2449   */\n  dup2\n    /* \"#utility.yul\":2437:2450   */\n  mload\n    /* \"#utility.yul\":2468:2558   */\n  tag_76\n    /* \"#utility.yul\":2554:2557   */\n  dup5\n    /* \"#utility.yul\":2546:2552   */\n  dup3\n    /* \"#utility.yul\":2539:2543   */\n  0x20\n    /* \"#utility.yul\":2531:2537   */\n  dup7\n    /* \"#utility.yul\":2527:2544   */\n  add\n    /* \"#utility.yul\":2468:2558   */\n  tag_24\n  jump\t// in\ntag_76:\n    /* \"#utility.yul\":2459:2558   */\n  swap2\n  pop\n    /* \"#utility.yul\":2282:2564   */\n  pop\n    /* \"#utility.yul\":2209:2564   */\n  swap3\n  swap2\n  pop\n  pop\n  jump\t// out\n    /* \"#utility.yul\":2570:2647   */\ntag_26:\n    /* \"#utility.yul\":2607:2614   */\n  0x00\n    /* \"#utility.yul\":2636:2641   */\n  dup2\n    /* \"#utility.yul\":2625:2641   */\n  swap1\n  pop\n    /* \"#utility.yul\":2570:2647   */\n  swap2\n  swap1\n  pop\n  jump\t// out\n    /* \"#utility.yul\":2653:2775   */\ntag_27:\n    /* \"#utility.yul\":2726:2750   */\n  tag_79\n    /* \"#utility.yul\":2744:2749   */\n  dup2\n    /* \"#utility.yul\":2726:2750   */\n  tag_26\n  jump\t// in\ntag_79:\n    /* \"#utility.yul\":2719:2724   */\n  dup2\n    /* \"#utility.yul\":2716:2751   */\n  eq\n    /* \"#utility.yul\":2706:2769   */\n  tag_80\n  jumpi\n    /* \"#utility.yul\":2765:2766   */\n  0x00\n    /* \"#utility.yul\":2762:2763   */\n  dup1\n    /* \"#utility.yul\":2755:2767   */\n  revert\n    /* \"#utility.yul\":2706:2769   */\ntag_80:\n    /* \"#utility.yul\":2653:2775   */\n  pop\n  jump\t// out\n    /* \"#utility.yul\":2781:2924   */\ntag_28:\n    /* \"#utility.yul\":2838:2843   */\n  0x00\n    /* \"#utility.yul\":2869:2875   */\n  dup2\n    /* \"#utility.yul\":2863:2876   */\n  mload\n    /* \"#utility.yul\":2854:2876   */\n  swap1\n  pop\n    /* \"#utility.yul\":2885:2918   */\n  tag_82\n    /* \"#utility.yul\":2912:2917   */\n  dup2\n    /* \"#utility.yul\":2885:2918   */\n  tag_27\n  jump\t// in\ntag_82:\n    /* \"#utility.yul\":2781:2924   */\n  swap3\n  swap2\n  pop\n  pop\n  jump\t// out\n    /* \"#utility.yul\":2930:4426   */\ntag_3:\n    /* \"#utility.yul\":3066:3072   */\n  0x00\n    /* \"#utility.yul\":3074:3080   */\n  dup1\n    /* \"#utility.yul\":3082:3088   */\n  0x00\n    /* \"#utility.yul\":3090:3096   */\n  dup1\n    /* \"#utility.yul\":3098:3104   */\n  0x00\n    /* \"#utility.yul\":3147:3150   */\n  0xa0\n    /* \"#utility.yul\":3135:3144   */\n  dup7\n    /* \"#utility.yul\":3126:3133   */\n  dup9\n    /* \"#utility.yul\":3122:3145   */\n  sub\n    /* \"#utility.yul\":3118:3151   */\n  slt\n    /* \"#utility.yul\":3115:3235   */\n  iszero\n  tag_84\n  jumpi\n    /* \"#utility.yul\":3154:3233   */\n  tag_85\n  tag_14\n  jump\t// in\ntag_85:\n    /* \"#utility.yul\":3115:3235   */\ntag_84:\n    /* \"#utility.yul\":3295:3296   */\n  0x00\n    /* \"#utility.yul\":3284:3293   */\n  dup7\n    /* \"#utility.yul\":3280:3297   */\n  add\n    /* \"#utility.yul\":3274:3298   */\n  mload\n    /* \"#utility.yul\":3325:3343   */\n  0xffffffffffffffff\n    /* \"#utility.yul\":3317:3323   */\n  dup2\n    /* \"#utility.yul\":3314:3344   */\n  gt\n    /* \"#utility.yul\":3311:3428   */\n  iszero\n  tag_86\n  jumpi\n    /* \"#utility.yul\":3347:3426   */\n  tag_87\n  tag_15\n  jump\t// in\ntag_87:\n    /* \"#utility.yul\":3311:3428   */\ntag_86:\n    /* \"#utility.yul\":3452:3526   */\n  tag_88\n    /* \"#utility.yul\":3518:3525   */\n  dup9\n    /* \"#utility.yul\":3509:3515   */\n  dup3\n    /* \"#utility.yul\":3498:3507   */\n  dup10\n    /* \"#utility.yul\":3494:3516   */\n  add\n    /* \"#utility.yul\":3452:3526   */\n  tag_25\n  jump\t// in\ntag_88:\n    /* \"#utility.yul\":3442:3526   */\n  swap6\n  pop\n    /* \"#utility.yul\":3245:3536   */\n  pop\n    /* \"#utility.yul\":3596:3598   */\n  0x20\n    /* \"#utility.yul\":3585:3594   */\n  dup7\n    /* \"#utility.yul\":3581:3599   */\n  add\n    /* \"#utility.yul\":3575:3600   */\n  mload\n    /* \"#utility.yul\":3627:3645   */\n  0xffffffffffffffff\n    /* \"#utility.yul\":3619:3625   */\n  dup2\n    /* \"#utility.yul\":3616:3646   */\n  gt\n    /* \"#utility.yul\":3613:3730   */\n  iszero\n  tag_89\n  jumpi\n    /* \"#utility.yul\":3649:3728   */\n  tag_90\n  tag_15\n  jump\t// in\ntag_90:\n    /* \"#utility.yul\":3613:3730   */\ntag_89:\n    /* \"#utility.yul\":3754:3828   */\n  tag_91\n    /* \"#utility.yul\":3820:3827   */\n  dup9\n    /* \"#utility.yul\":3811:3817   */\n  dup3\n    /* \"#utility.yul\":3800:3809   */\n  dup10\n    /* \"#utility.yul\":3796:3818   */\n  add\n    /* \"#utility.yul\":3754:3828   */\n  tag_25\n  jump\t// in\ntag_91:\n    /* \"#utility.yul\":3744:3828   */\n  swap5\n  pop\n    /* \"#utility.yul\":3546:3838   */\n  pop\n    /* \"#utility.yul\":3877:3879   */\n  0x40\n    /* \"#utility.yul\":3903:3967   */\n  tag_92\n    /* \"#utility.yul\":3959:3966   */\n  dup9\n    /* \"#utility.yul\":3950:3956   */\n  dup3\n    /* \"#utility.yul\":3939:3948   */\n  dup10\n    /* \"#utility.yul\":3935:3957   */\n  add\n    /* \"#utility.yul\":3903:3967   */\n  tag_28\n  jump\t// in\ntag_92:\n    /* \"#utility.yul\":3893:3967   */\n  swap4\n  pop\n    /* \"#utility.yul\":3848:3977   */\n  pop\n    /* \"#utility.yul\":4037:4039   */\n  0x60\n    /* \"#utility.yul\":4026:4035   */\n  dup7\n    /* \"#utility.yul\":4022:4040   */\n  add\n    /* \"#utility.yul\":4016:4041   */\n  mload\n    /* \"#utility.yul\":4068:4086   */\n  0xffffffffffffffff\n    /* \"#utility.yul\":4060:4066   */\n  dup2\n    /* \"#utility.yul\":4057:4087   */\n  gt\n    /* \"#utility.yul\":4054:4171   */\n  iszero\n  tag_93\n  jumpi\n    /* \"#utility.yul\":4090:4169   */\n  tag_94\n  tag_15\n  jump\t// in\ntag_94:\n    /* \"#utility.yul\":4054:4171   */\ntag_93:\n    /* \"#utility.yul\":4195:4269   */\n  tag_95\n    /* \"#utility.yul\":4261:4268   */\n  dup9\n    /* \"#utility.yul\":4252:4258   */\n  dup3\n    /* \"#utility.yul\":4241:4250   */\n  dup10\n    /* \"#utility.yul\":4237:4259   */\n  add\n    /* \"#utility.yul\":4195:4269   */\n  tag_25\n  jump\t// in\ntag_95:\n    /* \"#utility.yul\":4185:4269   */\n  swap3\n  pop\n    /* \"#utility.yul\":3987:4279   */\n  pop\n    /* \"#utility.yul\":4318:4321   */\n  0x80\n    /* \"#utility.yul\":4345:4409   */\n  tag_96\n    /* \"#utility.yul\":4401:4408   */\n  dup9\n    /* \"#utility.yul\":4392:4398   */\n  dup3\n    /* \"#utility.yul\":4381:4390   */\n  dup10\n    /* \"#utility.yul\":4377:4399   */\n  add\n    /* \"#utility.yul\":4345:4409   */\n  tag_28\n  jump\t// in\ntag_96:\n    /* \"#utility.yul\":4335:4409   */\n  swap2\n  pop\n    /* \"#utility.yul\":4289:4419   */\n  pop\n    /* \"#utility.yul\":2930:4426   */\n  swap3\n  swap6\n  pop\n  swap3\n  swap6\n  swap1\n  swap4\n  pop\n  jump\t// out\n    /* \"#utility.yul\":4432:4531   */\ntag_29:\n    /* \"#utility.yul\":4484:4490   */\n  0x00\n    /* \"#utility.yul\":4518:4523   */\n  dup2\n    /* \"#utility.yul\":4512:4524   */\n  mload\n    /* \"#utility.yul\":4502:4524   */\n  swap1\n  pop\n    /* \"#utility.yul\":4432:4531   */\n  swap2\n  swap1\n  pop\n  jump\t// out\n    /* \"#utility.yul\":4537:4717   */\ntag_30:\n    /* \"#utility.yul\":4585:4662   */\n  0x4e487b7100000000000000000000000000000000000000000000000000000000\n    /* \"#utility.yul\":4582:4583   */\n  0x00\n    /* \"#utility.yul\":4575:4663   */\n  mstore\n    /* \"#utility.yul\":4682:4686   */\n  0x22\n    /* \"#utility.yul\":4679:4680   */\n  0x04\n    /* \"#utility.yul\":4672:4687   */\n  mstore\n    /* \"#utility.yul\":4706:4710   */\n  0x24\n    /* \"#utility.yul\":4703:4704   */\n  0x00\n    /* \"#utility.yul\":4696:4711   */\n  revert\n    /* \"#utility.yul\":4723:5043   */\ntag_31:\n    /* \"#utility.yul\":4767:4773   */\n  0x00\n    /* \"#utility.yul\":4804:4805   */\n  0x02\n    /* \"#utility.yul\":4798:4802   */\n  dup3\n    /* \"#utility.yul\":4794:4806   */\n  div\n    /* \"#utility.yul\":4784:4806   */\n  swap1\n  pop\n    /* \"#utility.yul\":4851:4852   */\n  0x01\n    /* \"#utility.yul\":4845:4849   */\n  dup3\n    /* \"#utility.yul\":4841:4853   */\n  and\n    /* \"#utility.yul\":4872:4890   */\n  dup1\n    /* \"#utility.yul\":4862:4943   */\n  tag_100\n  jumpi\n    /* \"#utility.yul\":4928:4932   */\n  0x7f\n    /* \"#utility.yul\":4920:4926   */\n  dup3\n    /* \"#utility.yul\":4916:4933   */\n  and\n    /* \"#utility.yul\":4906:4933   */\n  swap2\n  pop\n    /* \"#utility.yul\":4862:4943   */\ntag_100:\n    /* \"#utility.yul\":4990:4992   */\n  0x20\n    /* \"#utility.yul\":4982:4988   */\n  dup3\n    /* \"#utility.yul\":4979:4993   */\n  lt\n    /* \"#utility.yul\":4959:4977   */\n  dup2\n    /* \"#utility.yul\":4956:4994   */\n  sub\n    /* \"#utility.yul\":4953:5037   */\n  tag_101\n  jumpi\n    /* \"#utility.yul\":5009:5027   */\n  tag_102\n  tag_30\n  jump\t// in\ntag_102:\n    /* \"#utility.yul\":4953:5037   */\ntag_101:\n    /* \"#utility.yul\":4774:5043   */\n  pop\n    /* \"#utility.yul\":4723:5043   */\n  swap2\n  swap1\n  pop\n  jump\t// out\n    /* \"#utility.yul\":5049:5190   */\ntag_32:\n    /* \"#utility.yul\":5098:5102   */\n  0x00\n    /* \"#utility.yul\":5121:5124   */\n  dup2\n    /* \"#utility.yul\":5113:5124   */\n  swap1\n  pop\n    /* \"#utility.yul\":5144:5147   */\n  dup2\n    /* \"#utility.yul\":5141:5142   */\n  0x00\n    /* \"#utility.yul\":5134:5148   */\n  mstore\n    /* \"#utility.yul\":5178:5182   */\n  0x20\n    /* \"#utility.yul\":5175:5176   */\n  0x00\n    /* \"#utility.yul\":5165:5183   */\n  keccak256\n    /* \"#utility.yul\":5157:5183   */\n  swap1\n  pop\n    /* \"#utility.yul\":5049:5190   */\n  swap2\n  swap1\n  pop\n  jump\t// out\n    /* \"#utility.yul\":5196:5289   */\ntag_33:\n    /* \"#utility.yul\":5233:5239   */\n  0x00\n    /* \"#utility.yul\":5280:5282   */\n  0x20\n    /* \"#utility.yul\":5275:5277   */\n  0x1f\n    /* \"#utility.yul\":5268:5273   */\n  dup4\n    /* \"#utility.yul\":5264:5278   */\n  add\n    /* \"#utility.yul\":5260:5283   */\n  div\n    /* \"#utility.yul\":5250:5283   */\n  swap1\n  pop\n    /* \"#utility.yul\":5196:5289   */\n  swap2\n  swap1\n  pop\n  jump\t// out\n    /* \"#utility.yul\":5295:5402   */\ntag_34:\n    /* \"#utility.yul\":5339:5347   */\n  0x00\n    /* \"#utility.yul\":5389:5394   */\n  dup3\n    /* \"#utility.yul\":5383:5387   */\n  dup3\n    /* \"#utility.yul\":5379:5395   */\n  shl\n    /* \"#utility.yul\":5358:5395   */\n  swap1\n  pop\n    /* \"#utility.yul\":5295:5402   */\n  swap3\n  swap2\n  pop\n  pop\n  jump\t// out\n    /* \"#utility.yul\":5408:5801   */\ntag_35:\n    /* \"#utility.yul\":5477:5483   */\n  0x00\n    /* \"#utility.yul\":5527:5528   */\n  0x08\n    /* \"#utility.yul\":5515:5525   */\n  dup4\n    /* \"#utility.yul\":5511:5529   */\n  mul\n    /* \"#utility.yul\":5550:5647   */\n  tag_107\n    /* \"#utility.yul\":5580:5646   */\n  0xffffffffffffffffffffffffffffffffffffffffffffffffffffffffffffffff\n    /* \"#utility.yul\":5569:5578   */\n  dup3\n    /* \"#utility.yul\":5550:5647   */\n  tag_34\n  jump\t// in\ntag_107:\n    /* \"#utility.yul\":5668:5707   */\n  tag_108\n    /* \"#utility.yul\":5698:5706   */\n  dup7\n    /* \"#utility.yul\":5687:5696   */\n  dup4\n    /* \"#utility.yul\":5668:5707   */\n  tag_34\n  jump\t// in\ntag_108:\n    /* \"#utility.yul\":5656:5707   */\n  swap6\n  pop\n    /* \"#utility.yul\":5740:5744   */\n  dup1\n    /* \"#utility.yul\":5736:5745   */\n  not\n    /* \"#utility.yul\":5729:5734   */\n  dup5\n    /* \"#utility.yul\":5725:5746   */\n  and\n    /* \"#utility.yul\":5716:5746   */\n  swap4\n  pop\n    /* \"#utility.yul\":5789:5793   */\n  dup1\n    /* \"#utility.yul\":5779:5787   */\n  dup7\n    /* \"#utility.yul\":5775:5794   */\n  and\n    /* \"#utility.yul\":5768:5773   */\n  dup5\n    /* \"#utility.yul\":5765:5795   */\n  or\n    /* \"#utility.yul\":5755:5795   */\n  swap3\n  pop\n    /* \"#utility.yul\":5484:5801   */\n  pop\n  pop\n    /* \"#utility.yul\":5408:5801   */\n  swap4\n  swap3\n  pop\n  pop\n  pop\n  jump\t// out\n    /* \"#utility.yul\":5807:5867   */\ntag_36:\n    /* \"#utility.yul\":5835:5838   */\n  0x00\n    /* \"#utility.yul\":5856:5861   */\n  dup2\n    /* \"#utility.yul\":5849:5861   */\n  swap1\n  pop\n    /* \"#utility.yul\":5807:5867   */\n  swap2\n  swap1\n  pop\n  jump\t// out\n    /* \"#utility.yul\":5873:6015   */\ntag_37:\n    /* \"#utility.yul\":5923:5932   */\n  0x00\n    /* \"#utility.yul\":5956:6009   */\n  tag_111\n    /* \"#utility.yul\":5974:6008   */\n  tag_112\n    /* \"#utility.yul\":5983:6007   */\n  tag_113\n    /* \"#utility.yul\":6001:6006   */\n  dup5\n    /* \"#utility.yul\":5983:6007   */\n  tag_26\n  jump\t// in\ntag_113:\n    /* \"#utility.yul\":5974:6008   */\n  tag_36\n  jump\t// in\ntag_112:\n    /* \"#utility.yul\":5956:6009   */\n  tag_26\n  jump\t// in\ntag_111:\n    /* \"#utility.yul\":5943:6009   */\n  swap1\n  pop\n    /* \"#utility.yul\":5873:6015   */\n  swap2\n  swap1\n  pop\n  jump\t// out\n    /* \"#utility.yul\":6021:6096   */\ntag_38:\n    /* \"#utility.yul\":6064:6067   */\n  0x00\n    /* \"#utility.yul\":6085:6090   */\n  dup2\n    /* \"#utility.yul\":6078:6090   */\n  swap1\n  pop\n    /* \"#utility.yul\":6021:6096   */\n  swap2\n  swap1\n  pop\n  jump\t// out\n    /* \"#utility.yul\":6102:6371   */\ntag_39:\n    /* \"#utility.yul\":6212:6251   */\n  tag_116\n    /* \"#utility.yul\":6243:6250   */\n  dup4\n    /* \"#utility.yul\":6212:6251   */\n  tag_37\n  jump\t// in\ntag_116:\n    /* \"#utility.yul\":6273:6364   */\n  tag_117\n    /* \"#utility.yul\":6322:6363   */\n  tag_118\n    /* \"#utility.yul\":6346:6362   */\n  dup3\n    /* \"#utility.yul\":6322:6363   */\n  tag_38\n  jump\t// in\ntag_118:\n    /* \"#utility.yul\":6314:6320   */\n  dup5\n    /* \"#utility.yul\":6307:6311   */\n  dup5\n    /* \"#utility.yul\":6301:6312   */\n  sload\n    /* \"#utility.yul\":6273:6364   */\n  tag_35\n  jump\t// in\ntag_117:\n    /* \"#utility.yul\":6267:6271   */\n  dup3\n    /* \"#utility.yul\":6260:6365   */\n  sstore\n    /* \"#utility.yul\":6178:6371   */\n  pop\n    /* \"#utility.yul\":6102:6371   */\n  pop\n  pop\n  pop\n  jump\t// out\n    /* \"#utility.yul\":6377:6450   */\ntag_40:\n    /* \"#utility.yul\":6422:6425   */\n  0x00\n    /* \"#utility.yul\":6377:6450   */\n  swap1\n  jump\t// out\n    /* \"#utility.yul\":6456:6645   */\ntag_41:\n    /* \"#utility.yul\":6533:6565   */\n  tag_121\n  tag_40\n  jump\t// in\ntag_121:\n    /* \"#utility.yul\":6574:6639   */\n  tag_122\n    /* \"#utility.yul\":6632:6638   */\n  dup2\n    /* \"#utility.yul\":6624:6630   */\n  dup5\n    /* \"#utility.yul\":6618:6622   */\n  dup5\n    /* \"#utility.yul\":6574:6639   */\n  tag_39\n  jump\t// in\ntag_122:\n    /* \"#utility.yul\":6509:6645   */\n  pop\n    /* \"#utility.yul\":6456:6645   */\n  pop\n  pop\n  jump\t// out\n    /* \"#utility.yul\":6651:6837   */\ntag_42:\n    /* \"#utility.yul\":6711:6831   */\ntag_124:\n    /* \"#utility.yul\":6728:6731   */\n  dup2\n    /* \"#utility.yul\":6721:6726   */\n  dup2\n    /* \"#utility.yul\":6718:6732   */\n  lt\n    /* \"#utility.yul\":6711:6831   */\n  iszero\n  tag_126\n  jumpi\n    /* \"#utility.yul\":6782:6821   */\n  tag_127\n    /* \"#utility.yul\":6819:6820   */\n  0x00\n    /* \"#utility.yul\":6812:6817   */\n  dup3\n    /* \"#utility.yul\":6782:6821   */\n  tag_41\n  jump\t// in\ntag_127:\n    /* \"#utility.yul\":6755:6756   */\n  0x01\n    /* \"#utility.yul\":6748:6753   */\n  dup2\n    /* \"#utility.yul\":6744:6757   */\n  add\n    /* \"#utility.yul\":6735:6757   */\n  swap1\n  pop\n    /* \"#utility.yul\":6711:6831   */\n  jump(tag_124)\ntag_126:\n    /* \"#utility.yul\":6651:6837   */\n  pop\n  pop\n  jump\t// out\n    /* \"#utility.yul\":6843:7386   */\ntag_43:\n    /* \"#utility.yul\":6944:6946   */\n  0x1f\n    /* \"#utility.yul\":6939:6942   */\n  dup3\n    /* \"#utility.yul\":6936:6947   */\n  gt\n    /* \"#utility.yul\":6933:7379   */\n  iszero\n  tag_129\n  jumpi\n    /* \"#utility.yul\":6978:7016   */\n  tag_130\n    /* \"#utility.yul\":7010:7015   */\n  dup2\n    /* \"#utility.yul\":6978:7016   */\n  tag_32\n  jump\t// in\ntag_130:\n    /* \"#utility.yul\":7062:7091   */\n  tag_131\n    /* \"#utility.yul\":7080:7090   */\n  dup5\n    /* \"#utility.yul\":7062:7091   */\n  tag_33\n  jump\t// in\ntag_131:\n    /* \"#utility.yul\":7052:7060   */\n  dup2\n    /* \"#utility.yul\":7048:7092   */\n  add\n    /* \"#utility.yul\":7245:7247   */\n  0x20\n    /* \"#utility.yul\":7233:7243   */\n  dup6\n    /* \"#utility.yul\":7230:7248   */\n  lt\n    /* \"#utility.yul\":7227:7276   */\n  iszero\n  tag_132\n  jumpi\n    /* \"#utility.yul\":7266:7274   */\n  dup2\n    /* \"#utility.yul\":7251:7274   */\n  swap1\n  pop\n    /* \"#utility.yul\":7227:7276   */\ntag_132:\n    /* \"#utility.yul\":7289:7369   */\n  tag_133\n    /* \"#utility.yul\":7345:7367   */\n  tag_134\n    /* \"#utility.yul\":7363:7366   */\n  dup6\n    /* \"#utility.yul\":7345:7367   */\n  tag_33\n  jump\t// in\ntag_134:\n    /* \"#utility.yul\":7335:7343   */\n  dup4\n    /* \"#utility.yul\":7331:7368   */\n  add\n    /* \"#utility.yul\":7318:7329   */\n  dup3\n    /* \"#utility.yul\":7289:7369   */\n  tag_42\n  jump\t// in\ntag_133:\n    /* \"#utility.yul\":6948:7379   */\n  pop\n  pop\n    /* \"#utility.yul\":6933:7379   */\ntag_129:\n    /* \"#utility.yul\":6843:7386   */\n  pop\n  pop\n  pop\n  jump\t// out\n    /* \"#utility.yul\":7392:7509   */\ntag_44:\n    /* \"#utility.yul\":7446:7454   */\n  0x00\n    /* \"#utility.yul\":7496:7501   */\n  dup3\n    /* \"#utility.yul\":7490:7494   */\n  dup3\n    /* \"#utility.yul\":7486:7502   */\n  shr\n    /* \"#utility.yul\":7465:7502   */\n  swap1\n  pop\n    /* \"#utility.yul\":7392:7509   */\n  swap3\n  swap2\n  pop\n  pop\n  jump\t// out\n    /* \"#utility.yul\":7515:7684   */\ntag_45:\n    /* \"#utility.yul\":7559:7565   */\n  0x00\n    /* \"#utility.yul\":7592:7643   */\n  tag_137\n    /* \"#utility.yul\":7640:7641   */\n  0x00\n    /* \"#utility.yul\":7636:7642   */\n  not\n    /* \"#utility.yul\":7628:7633   */\n  dup5\n    /* \"#utility.yul\":7625:7626   */\n  0x08\n    /* \"#utility.yul\":7621:7634   */\n  mul\n    /* \"#utility.yul\":7592:7643   */\n  tag_44\n  jump\t// in\ntag_137:\n    /* \"#utility.yul\":7588:7644   */\n  not\n    /* \"#utility.yul\":7673:7677   */\n  dup1\n    /* \"#utility.yul\":7667:7671   */\n  dup4\n    /* \"#utility.yul\":7663:7678   */\n  and\n    /* \"#utility.yul\":7653:7678   */\n  swap2\n  pop\n    /* \"#utility.yul\":7566:7684   */\n  pop\n    /* \"#utility.yul\":7515:7684   */\n  swap3\n  swap2\n  pop\n  pop\n  jump\t// out\n    /* \"#utility.yul\":7689:7984   */\ntag_46:\n    /* \"#utility.yul\":7765:7769   */\n  0x00\n    /* \"#utility.yul\":7911:7940   */\n  tag_139\n    /* \"#utility.yul\":7936:7939   */\n  dup4\n    /* \"#utility.yul\":7930:7934   */\n  dup4\n    /* \"#utility.yul\":7911:7940   */\n  tag_45\n  jump\t// in\ntag_139:\n    /* \"#utility.yul\":7903:7940   */\n  swap2\n  pop\n    /* \"#utility.yul\":7973:7976   */\n  dup3\n    /* \"#utility.yul\":7970:7971   */\n  0x02\n    /* \"#utility.yul\":7966:7977   */\n  mul\n    /* \"#utility.yul\":7960:7964   */\n  dup3\n    /* \"#utility.yul\":7957:7978   */\n  or\n    /* \"#utility.yul\":7949:7978   */\n  swap1\n  pop\n    /* \"#utility.yul\":7689:7984   */\n  swap3\n  swap2\n  pop\n  pop\n  jump\t// out\n    /* \"#utility.yul\":7989:9384   */\ntag_8:\n    /* \"#utility.yul\":8106:8143   */\n  tag_141\n    /* \"#utility.yul\":8139:8142   */\n  dup3\n    /* \"#utility.yul\":8106:8143   */\n  tag_29\n  jump\t// in\ntag_141:\n    /* \"#utility.yul\":8208:8226   */\n  0xffffffffffffffff\n    /* \"#utility.yul\":8200:8206   */\n  dup2\n    /* \"#utility.yul\":8197:8227   */\n  gt\n    /* \"#utility.yul\":8194:8250   */\n  iszero\n  tag_142\n  jumpi\n    /* \"#utility.yul\":8230:8248   */\n  tag_143\n  tag_19\n  jump\t// in\ntag_143:\n    /* \"#utility.yul\":8194:8250   */\ntag_142:\n    /* \"#utility.yul\":8274:8312   */\n  tag_144\n    /* \"#utility.yul\":8306:8310   */\n  dup3\n    /* \"#utility.yul\":8300:8311   */\n  sload\n    /* \"#utility.yul\":8274:8312   */\n  tag_31\n  jump\t// in\ntag_144:\n    /* \"#utility.yul\":8359:8426   */\n  tag_145\n    /* \"#utility.yul\":8419:8425   */\n  dup3\n    /* \"#utility.yul\":8411:8417   */\n  dup3\n    /* \"#utility.yul\":8405:8409   */\n  dup6\n    /* \"#utility.yul\":8359:8426   */\n  tag_43\n  jump\t// in\ntag_145:\n    /* \"#utility.yul\":8453:8454   */\n  0x00\n    /* \"#utility.yul\":8477:8481   */\n  0x20\n    /* \"#utility.yul\":8464:8481   */\n  swap1\n  pop\n    /* \"#utility.yul\":8509:8511   */\n  0x1f\n    /* \"#utility.yul\":8501:8507   */\n  dup4\n    /* \"#utility.yul\":8498:8512   */\n  gt\n    /* \"#utility.yul\":8526:8527   */\n  0x01\n    /* \"#utility.yul\":8521:9139   */\n  dup2\n  eq\n  tag_147\n  jumpi\n    /* \"#utility.yul\":9183:9184   */\n  0x00\n    /* \"#utility.yul\":9200:9206   */\n  dup5\n    /* \"#utility.yul\":9197:9274   */\n  iszero\n  tag_148\n  jumpi\n    /* \"#utility.yul\":9249:9258   */\n  dup3\n    /* \"#utility.yul\":9244:9247   */\n  dup8\n    /* \"#utility.yul\":9240:9259   */\n  add\n    /* \"#utility.yul\":9234:9260   */\n  mload\n    /* \"#utility.yul\":9225:9260   */\n  swap1\n  pop\n    /* \"#utility.yul\":9197:9274   */\ntag_148:\n    /* \"#utility.yul\":9300:9367   */\n  tag_149\n    /* \"#utility.yul\":9360:9366   */\n  dup6\n    /* \"#utility.yul\":9353:9358   */\n  dup3\n    /* \"#utility.yul\":9300:9367   */\n  tag_46\n  jump\t// in\ntag_149:\n    /* \"#utility.yul\":9294:9298   */\n  dup7\n    /* \"#utility.yul\":9287:9368   */\n  sstore\n    /* \"#utility.yul\":9156:9378   */\n  pop\n    /* \"#utility.yul\":8491:9378   */\n  jump(tag_146)\n    /* \"#utility.yul\":8521:9139   */\ntag_147:\n    /* \"#utility.yul\":8573:8577   */\n  0x1f\n    /* \"#utility.yul\":8569:8578   */\n  not\n    /* \"#utility.yul\":8561:8567   */\n  dup5\n    /* \"#utility.yul\":8557:8579   */\n  and\n    /* \"#utility.yul\":8607:8644   */\n  tag_150\n    /* \"#utility.yul\":8639:8643   */\n  dup7\n    /* \"#utility.yul\":8607:8644   */\n  tag_32\n  jump\t// in\ntag_150:\n    /* \"#utility.yul\":8666:8667   */\n  0x00\n    /* \"#utility.yul\":8680:8888   */\ntag_151:\n    /* \"#utility.yul\":8694:8701   */\n  dup3\n    /* \"#utility.yul\":8691:8692   */\n  dup2\n    /* \"#utility.yul\":8688:8702   */\n  lt\n    /* \"#utility.yul\":8680:8888   */\n  iszero\n  tag_153\n  jumpi\n    /* \"#utility.yul\":8773:8782   */\n  dup5\n    /* \"#utility.yul\":8768:8771   */\n  dup10\n    /* \"#utility.yul\":8764:8783   */\n  add\n    /* \"#utility.yul\":8758:8784   */\n  mload\n    /* \"#utility.yul\":8750:8756   */\n  dup3\n    /* \"#utility.yul\":8743:8785   */\n  sstore\n    /* \"#utility.yul\":8824:8825   */\n  0x01\n    /* \"#utility.yul\":8816:8822   */\n  dup3\n    /* \"#utility.yul\":8812:8826   */\n  add\n    /* \"#utility.yul\":8802:8826   */\n  swap2\n  pop\n    /* \"#utility.yul\":8871:8873   */\n  0x20\n    /* \"#utility.yul\":8860:8869   */\n  dup6\n    /* \"#utility.yul\":8856:8874   */\n  add\n    /* \"#utility.yul\":8843:8874   */\n  swap5\n  pop\n    /* \"#utility.yul\":8717:8721   */\n  0x20\n    /* \"#utility.yul\":8714:8715   */\n  dup2\n    /* \"#utility.yul\":8710:8722   */\n  add\n    /* \"#utility.yul\":8705:8722   */\n  swap1\n  pop\n    /* \"#utility.yul\":8680:8888   */\n  jump(tag_151)\ntag_153:\n    /* \"#utility.yul\":8916:8922   */\n  dup7\n    /* \"#utility.yul\":8907:8914   */\n  dup4\n    /* \"#utility.yul\":8904:8923   */\n  lt\n    /* \"#utility.yul\":8901:9080   */\n  iszero\n  tag_154\n  jumpi\n    /* \"#utility.yul\":8974:8983   */\n  dup5\n    /* \"#utility.yul\":8969:8972   */\n  dup10\n    /* \"#utility.yul\":8965:8984   */\n  add\n    /* \"#utility.yul\":8959:8985   */\n  mload\n    /* \"#utility.yul\":9017:9065   */\n  tag_155\n    /* \"#utility.yul\":9059:9063   */\n  0x1f\n    /* \"#utility.yul\":9051:9057   */\n  dup10\n    /* \"#utility.yul\":9047:9064   */\n  and\n    /* \"#utility.yul\":9036:9045   */\n  dup3\n    /* \"#utility.yul\":9017:9065   */\n  tag_45\n  jump\t// in\ntag_155:\n    /* \"#utility.yul\":9009:9015   */\n  dup4\n    /* \"#utility.yul\":9002:9066   */\n  sstore\n    /* \"#utility.yul\":8924:9080   */\n  pop\n    /* \"#utility.yul\":8901:9080   */\ntag_154:\n    /* \"#utility.yul\":9126:9127   */\n  0x01\n    /* \"#utility.yul\":9122:9123   */\n  0x02\n    /* \"#utility.yul\":9114:9120   */\n  dup9\n    /* \"#utility.yul\":9110:9124   */\n  mul\n    /* \"#utility.yul\":9106:9128   */\n  add\n    /* \"#utility.yul\":9100:9104   */\n  dup9\n    /* \"#utility.yul\":9093:9129   */\n  sstore\n    /* \"#utility.yul\":8528:9139   */\n  pop\n  pop\n  pop\n    /* \"#utility.yul\":8491:9378   */\ntag_146:\n  pop\n    /* \"#utility.yul\":8081:9384   */\n  pop\n  pop\n  pop\n    /* \"#utility.yul\":7989:9384   */\n  pop\n  pop\n  jump\t// out\n    /* \"Day6/p2.sol\":2173:2910  contract Car is Vehicle {... */\ntag_12:\n  dataSize(sub_0)\n  dup1\n  dataOffset(sub_0)\n  0x00\n  codecopy\n  0x00\n  return\nstop\n\nsub_0: assembly {\n        /* \"Day6/p2.sol\":2173:2910  contract Car is Vehicle {... */\n      mstore(0x40, 0x80)\n      callvalue\n      dup1\n      iszero\n      tag_1\n      jumpi\n      0x00\n      dup1\n      revert\n    tag_1:\n      pop\n      jumpi(tag_2, lt(calldatasize, 0x04))\n      shr(0xe0, calldataload(0x00))\n      dup1\n      0xd21e1993\n      gt\n      tag_11\n      jumpi\n      dup1\n      0xd21e1993\n      eq\n      tag_7\n      jumpi\n      dup1\n      0xe8311f84\n      eq\n      tag_8\n      jumpi\n      dup1\n      0xf3269716\n      eq\n      tag_9\n      jumpi\n      dup1\n      0xf64eeab6\n      eq\n      tag_10\n      jumpi\n      jump(tag_2)\n    tag_11:\n      dup1\n      0x0ad9d052\n      eq\n      tag_3\n      jumpi\n      dup1\n      0x1e006929\n      eq\n      tag_4\n      jumpi\n      dup1\n      0xa138438b\n      eq\n      tag_5\n      jumpi\n      dup1\n      0xc6dad082\n      eq\n      tag_6\n      jumpi\n    tag_2:\n      0x00\n      dup1\n      revert\n        /* \"Day6/p2.sol\":147:166  string public model */\n    tag_3:\n      tag_12\n      tag_13\n      jump\t// in\n    tag_12:\n      mload(0x40)\n      tag_14\n      swap2\n      swap1\n      tag_15\n      jump\t// in\n    tag_14:\n      mload(0x40)\n      dup1\n      swap2\n      sub\n      swap1\n      return\n        /* \"Day6/p2.sol\":862:995  function distanceTraveled(uint fuelAmount) public pure virtual returns (uint) {... */\n    tag_4:\n      tag_16\n      0x04\n      dup1\n      calldatasize\n      sub\n      dup2\n      add\n      swap1\n      tag_17\n      swap2\n      swap1\n      tag_18\n      jump\t// in\n    tag_17:\n      tag_19\n      jump\t// in\n    tag_16:\n      mload(0x40)\n      tag_20\n      swap2\n      swap1\n      tag_21\n      jump\t// in\n    tag_20:\n      mload(0x40)\n      dup1\n      swap2\n      sub\n      swap1\n      return\n        /* \"Day6/p2.sol\":2204:2224  uint public numDoors */\n    tag_5:\n      tag_22\n      tag_23\n      jump\t// in\n    tag_22:\n      mload(0x40)\n      tag_24\n      swap2\n      swap1\n      tag_21\n      jump\t// in\n    tag_24:\n      mload(0x40)\n      dup1\n      swap2\n      sub\n      swap1\n      return\n        /* \"Day6/p2.sol\":122:140  string public make */\n    tag_6:\n      tag_25\n      tag_26\n      jump\t// in\n    tag_25:\n      mload(0x40)\n      tag_27\n      swap2\n      swap1\n      tag_15\n      jump\t// in\n    tag_27:\n      mload(0x40)\n      dup1\n      swap2\n      sub\n      swap1\n      return\n        /* \"Day6/p2.sol\":2784:2907  function maxSpeed() public pure override returns (uint) {... */\n    tag_7:\n      tag_28\n      tag_29\n      jump\t// in\n    tag_28:\n      mload(0x40)\n      tag_30\n      swap2\n      swap1\n      tag_21\n      jump\t// in\n    tag_30:\n      mload(0x40)\n      dup1\n      swap2\n      sub\n      swap1\n      return\n        /* \"Day6/p2.sol\":196:218  string public fuelType */\n    tag_8:\n      tag_31\n      tag_32\n      jump\t// in\n    tag_31:\n      mload(0x40)\n      tag_33\n      swap2\n      swap1\n      tag_15\n      jump\t// in\n    tag_33:\n      mload(0x40)\n      dup1\n      swap2\n      sub\n      swap1\n      return\n        /* \"Day6/p2.sol\":173:189  uint public year */\n    tag_9:\n      tag_34\n      tag_35\n      jump\t// in\n    tag_34:\n      mload(0x40)\n      tag_36\n      swap2\n      swap1\n      tag_21\n      jump\t// in\n    tag_36:\n      mload(0x40)\n      dup1\n      swap2\n      sub\n      swap1\n      return\n        /* \"Day6/p2.sol\":2587:2738  function fuelEfficiency() public pure override returns (uint) {... */\n    tag_10:\n      tag_37\n      tag_38\n      jump\t// in\n    tag_37:\n      mload(0x40)\n      tag_39\n      swap2\n      swap1\n      tag_21\n      jump\t// in\n    tag_39:\n      mload(0x40)\n      dup1\n      swap2\n      sub\n      swap1\n      return\n        /* \"Day6/p2.sol\":147:166  string public model */\n    tag_13:\n      0x01\n      dup1\n      sload\n      tag_40\n      swap1\n      tag_41\n      jump\t// in\n    tag_40:\n      dup1\n      0x1f\n      add\n      0x20\n      dup1\n      swap2\n      div\n      mul\n      0x20\n      add\n      mload(0x40)\n      swap1\n      dup2\n      add\n      0x40\n      mstore\n      dup1\n      swap3\n      swap2\n      swap1\n      dup2\n      dup2\n      mstore\n      0x20\n      add\n      dup3\n      dup1\n      sload\n      tag_42\n      swap1\n      tag_41\n      jump\t// in\n    tag_42:\n      dup1\n      iszero\n      tag_43\n      jumpi\n      dup1\n      0x1f\n      lt\n      tag_44\n      jumpi\n      0x0100\n      dup1\n      dup4\n      sload\n      div\n      mul\n      dup4\n      mstore\n      swap2\n      0x20\n      add\n      swap2\n      jump(tag_43)\n    tag_44:\n      dup3\n      add\n      swap2\n      swap1\n      0x00\n      mstore\n      keccak256(0x00, 0x20)\n      swap1\n    tag_45:\n      dup2\n      sload\n      dup2\n      mstore\n      swap1\n      0x01\n      add\n      swap1\n      0x20\n      add\n      dup1\n      dup4\n      gt\n      tag_45\n      jumpi\n      dup3\n      swap1\n      sub\n      0x1f\n      and\n      dup3\n      add\n      swap2\n    tag_43:\n      pop\n      pop\n      pop\n      pop\n      pop\n      dup2\n      jump\t// out\n        /* \"Day6/p2.sol\":862:995  function distanceTraveled(uint fuelAmount) public pure virtual returns (uint) {... */\n    tag_19:\n        /* \"Day6/p2.sol\":934:938  uint */\n      0x00\n        /* \"Day6/p2.sol\":971:987  fuelEfficiency() */\n      tag_47\n        /* \"Day6/p2.sol\":971:985  fuelEfficiency */\n      tag_38\n        /* \"Day6/p2.sol\":971:987  fuelEfficiency() */\n      jump\t// in\n    tag_47:\n        /* \"Day6/p2.sol\":958:968  fuelAmount */\n      dup3\n        /* \"Day6/p2.sol\":958:987  fuelAmount * fuelEfficiency() */\n      tag_48\n      swap2\n      swap1\n      tag_49\n      jump\t// in\n    tag_48:\n        /* \"Day6/p2.sol\":951:987  return fuelAmount * fuelEfficiency() */\n      swap1\n      pop\n        /* \"Day6/p2.sol\":862:995  function distanceTraveled(uint fuelAmount) public pure virtual returns (uint) {... */\n      swap2\n      swap1\n      pop\n      jump\t// out\n        /* \"Day6/p2.sol\":2204:2224  uint public numDoors */\n    tag_23:\n      sload(0x04)\n      dup2\n      jump\t// out\n        /* \"Day6/p2.sol\":122:140  string public make */\n    tag_26:\n      0x00\n      dup1\n      sload\n      tag_50\n      swap1\n      tag_41\n      jump\t// in\n    tag_50:\n      dup1\n      0x1f\n      add\n      0x20\n      dup1\n      swap2\n      div\n      mul\n      0x20\n      add\n      mload(0x40)\n      swap1\n      dup2\n      add\n      0x40\n      mstore\n      dup1\n      swap3\n      swap2\n      swap1\n      dup2\n      dup2\n      mstore\n      0x20\n      add\n      dup3\n      dup1\n      sload\n      tag_51\n      swap1\n      tag_41\n      jump\t// in\n    tag_51:\n      dup1\n      iszero\n      tag_52\n      jumpi\n      dup1\n      0x1f\n      lt\n      tag_53\n      jumpi\n      0x0100\n      dup1\n      dup4\n      sload\n      div\n      mul\n      dup4\n      mstore\n      swap2\n      0x20\n      add\n      swap2\n      jump(tag_52)\n    tag_53:\n      dup3\n      add\n      swap2\n      swap1\n      0x00\n      mstore\n      keccak256(0x00, 0x20)\n      swap1\n    tag_54:\n      dup2\n      sload\n      dup2\n      mstore\n      swap1\n      0x01\n      add\n      swap1\n      0x20\n      add\n      dup1\n      dup4\n      gt\n      tag_54\n      jumpi\n      dup3\n      swap1\n      sub\n      0x1f\n      and\n      dup3\n      add\n      swap2\n    tag_52:\n      pop\n      pop\n      pop\n      pop\n      pop\n      dup2\n      jump\t// out\n        /* \"Day6/p2.sol\":2784:2907  function maxSpeed() public pure override returns (uint) {... */\n    tag_29:\n        /* \"Day6/p2.sol\":2834:2838  uint */\n      0x00\n        /* \"Day6/p2.sol\":2858:2861  180 */\n      0xb4\n        /* \"Day6/p2.sol\":2851:2861  return 180 */\n      swap1\n      pop\n        /* \"Day6/p2.sol\":2784:2907  function maxSpeed() public pure override returns (uint) {... */\n      swap1\n      jump\t// out\n        /* \"Day6/p2.sol\":196:218  string public fuelType */\n    tag_32:\n      0x03\n      dup1\n      sload\n      tag_56\n      swap1\n      tag_41\n      jump\t// in\n    tag_56:\n      dup1\n      0x1f\n      add\n      0x20\n      dup1\n      swap2\n      div\n      mul\n      0x20\n      add\n      mload(0x40)\n      swap1\n      dup2\n      add\n      0x40\n      mstore\n      dup1\n      swap3\n      swap2\n      swap1\n      dup2\n      dup2\n      mstore\n      0x20\n      add\n      dup3\n      dup1\n      sload\n      tag_57\n      swap1\n      tag_41\n      jump\t// in\n    tag_57:\n      dup1\n      iszero\n      tag_58\n      jumpi\n      dup1\n      0x1f\n      lt\n      tag_59\n      jumpi\n      0x0100\n      dup1\n      dup4\n      sload\n      div\n      mul\n      dup4\n      mstore\n      swap2\n      0x20\n      add\n      swap2\n      jump(tag_58)\n    tag_59:\n      dup3\n      add\n      swap2\n      swap1\n      0x00\n      mstore\n      keccak256(0x00, 0x20)\n      swap1\n    tag_60:\n      dup2\n      sload\n      dup2\n      mstore\n      swap1\n      0x01\n      add\n      swap1\n      0x20\n      add\n      dup1\n      dup4\n      gt\n      tag_60\n      jumpi\n      dup3\n      swap1\n      sub\n      0x1f\n      and\n      dup3\n      add\n      swap2\n    tag_58:\n      pop\n      pop\n      pop\n      pop\n      pop\n      dup2\n      jump\t// out\n        /* \"Day6/p2.sol\":173:189  uint public year */\n    tag_35:\n      sload(0x02)\n      dup2\n      jump\t// out\n        /* \"Day6/p2.sol\":2587:2738  function fuelEfficiency() public pure override returns (uint) {... */\n    tag_38:\n        /* \"Day6/p2.sol\":2643:2647  uint */\n      0x00\n        /* \"Day6/p2.sol\":2667:2669  15 */\n      0x0f\n        /* \"Day6/p2.sol\":2660:2669  return 15 */\n      swap1\n      pop\n        /* \"Day6/p2.sol\":2587:2738  function fuelEfficiency() public pure override returns (uint) {... */\n      swap1\n      jump\t// out\n        /* \"#utility.yul\":7:106   */\n    tag_62:\n        /* \"#utility.yul\":59:65   */\n      0x00\n        /* \"#utility.yul\":93:98   */\n      dup2\n        /* \"#utility.yul\":87:99   */\n      mload\n        /* \"#utility.yul\":77:99   */\n      swap1\n      pop\n        /* \"#utility.yul\":7:106   */\n      swap2\n      swap1\n      pop\n      jump\t// out\n        /* \"#utility.yul\":112:281   */\n    tag_63:\n        /* \"#utility.yul\":196:207   */\n      0x00\n        /* \"#utility.yul\":230:236   */\n      dup3\n        /* \"#utility.yul\":225:228   */\n      dup3\n        /* \"#utility.yul\":218:237   */\n      mstore\n        /* \"#utility.yul\":270:274   */\n      0x20\n        /* \"#utility.yul\":265:268   */\n      dup3\n        /* \"#utility.yul\":261:275   */\n      add\n        /* \"#utility.yul\":246:275   */\n      swap1\n      pop\n        /* \"#utility.yul\":112:281   */\n      swap3\n      swap2\n      pop\n      pop\n      jump\t// out\n        /* \"#utility.yul\":287:426   */\n    tag_64:\n        /* \"#utility.yul\":376:382   */\n      dup3\n        /* \"#utility.yul\":371:374   */\n      dup2\n        /* \"#utility.yul\":366:369   */\n      dup4\n        /* \"#utility.yul\":360:383   */\n      mcopy\n        /* \"#utility.yul\":417:418   */\n      0x00\n        /* \"#utility.yul\":408:414   */\n      dup4\n        /* \"#utility.yul\":403:406   */\n      dup4\n        /* \"#utility.yul\":399:415   */\n      add\n        /* \"#utility.yul\":392:419   */\n      mstore\n        /* \"#utility.yul\":287:426   */\n      pop\n      pop\n      pop\n      jump\t// out\n        /* \"#utility.yul\":432:534   */\n    tag_65:\n        /* \"#utility.yul\":473:479   */\n      0x00\n        /* \"#utility.yul\":524:526   */\n      0x1f\n        /* \"#utility.yul\":520:527   */\n      not\n        /* \"#utility.yul\":515:517   */\n      0x1f\n        /* \"#utility.yul\":508:513   */\n      dup4\n        /* \"#utility.yul\":504:518   */\n      add\n        /* \"#utility.yul\":500:528   */\n      and\n        /* \"#utility.yul\":490:528   */\n      swap1\n      pop\n        /* \"#utility.yul\":432:534   */\n      swap2\n      swap1\n      pop\n      jump\t// out\n        /* \"#utility.yul\":540:917   */\n    tag_66:\n        /* \"#utility.yul\":628:631   */\n      0x00\n        /* \"#utility.yul\":656:695   */\n      tag_82\n        /* \"#utility.yul\":689:694   */\n      dup3\n        /* \"#utility.yul\":656:695   */\n      tag_62\n      jump\t// in\n    tag_82:\n        /* \"#utility.yul\":711:782   */\n      tag_83\n        /* \"#utility.yul\":775:781   */\n      dup2\n        /* \"#utility.yul\":770:773   */\n      dup6\n        /* \"#utility.yul\":711:782   */\n      tag_63\n      jump\t// in\n    tag_83:\n        /* \"#utility.yul\":704:782   */\n      swap4\n      pop\n        /* \"#utility.yul\":791:856   */\n      tag_84\n        /* \"#utility.yul\":849:855   */\n      dup2\n        /* \"#utility.yul\":844:847   */\n      dup6\n        /* \"#utility.yul\":837:841   */\n      0x20\n        /* \"#utility.yul\":830:835   */\n      dup7\n        /* \"#utility.yul\":826:842   */\n      add\n        /* \"#utility.yul\":791:856   */\n      tag_64\n      jump\t// in\n    tag_84:\n        /* \"#utility.yul\":881:910   */\n      tag_85\n        /* \"#utility.yul\":903:909   */\n      dup2\n        /* \"#utility.yul\":881:910   */\n      tag_65\n      jump\t// in\n    tag_85:\n        /* \"#utility.yul\":876:879   */\n      dup5\n        /* \"#utility.yul\":872:911   */\n      add\n        /* \"#utility.yul\":865:911   */\n      swap2\n      pop\n        /* \"#utility.yul\":632:917   */\n      pop\n        /* \"#utility.yul\":540:917   */\n      swap3\n      swap2\n      pop\n      pop\n      jump\t// out\n        /* \"#utility.yul\":923:1236   */\n    tag_15:\n        /* \"#utility.yul\":1036:1040   */\n      0x00\n        /* \"#utility.yul\":1074:1076   */\n      0x20\n        /* \"#utility.yul\":1063:1072   */\n      dup3\n        /* \"#utility.yul\":1059:1077   */\n      add\n        /* \"#utility.yul\":1051:1077   */\n      swap1\n      pop\n        /* \"#utility.yul\":1123:1132   */\n      dup2\n        /* \"#utility.yul\":1117:1121   */\n      dup2\n        /* \"#utility.yul\":1113:1133   */\n      sub\n        /* \"#utility.yul\":1109:1110   */\n      0x00\n        /* \"#utility.yul\":1098:1107   */\n      dup4\n        /* \"#utility.yul\":1094:1111   */\n      add\n        /* \"#utility.yul\":1087:1134   */\n      mstore\n        /* \"#utility.yul\":1151:1229   */\n      tag_87\n        /* \"#utility.yul\":1224:1228   */\n      dup2\n        /* \"#utility.yul\":1215:1221   */\n      dup5\n        /* \"#utility.yul\":1151:1229   */\n      tag_66\n      jump\t// in\n    tag_87:\n        /* \"#utility.yul\":1143:1229   */\n      swap1\n      pop\n        /* \"#utility.yul\":923:1236   */\n      swap3\n      swap2\n      pop\n      pop\n      jump\t// out\n        /* \"#utility.yul\":1323:1440   */\n    tag_68:\n        /* \"#utility.yul\":1432:1433   */\n      0x00\n        /* \"#utility.yul\":1429:1430   */\n      dup1\n        /* \"#utility.yul\":1422:1434   */\n      revert\n        /* \"#utility.yul\":1569:1646   */\n    tag_70:\n        /* \"#utility.yul\":1606:1613   */\n      0x00\n        /* \"#utility.yul\":1635:1640   */\n      dup2\n        /* \"#utility.yul\":1624:1640   */\n      swap1\n      pop\n        /* \"#utility.yul\":1569:1646   */\n      swap2\n      swap1\n      pop\n      jump\t// out\n        /* \"#utility.yul\":1652:1774   */\n    tag_71:\n        /* \"#utility.yul\":1725:1749   */\n      tag_93\n        /* \"#utility.yul\":1743:1748   */\n      dup2\n        /* \"#utility.yul\":1725:1749   */\n      tag_70\n      jump\t// in\n    tag_93:\n        /* \"#utility.yul\":1718:1723   */\n      dup2\n        /* \"#utility.yul\":1715:1750   */\n      eq\n        /* \"#utility.yul\":1705:1768   */\n      tag_94\n      jumpi\n        /* \"#utility.yul\":1764:1765   */\n      0x00\n        /* \"#utility.yul\":1761:1762   */\n      dup1\n        /* \"#utility.yul\":1754:1766   */\n      revert\n        /* \"#utility.yul\":1705:1768   */\n    tag_94:\n        /* \"#utility.yul\":1652:1774   */\n      pop\n      jump\t// out\n        /* \"#utility.yul\":1780:1919   */\n    tag_72:\n        /* \"#utility.yul\":1826:1831   */\n      0x00\n        /* \"#utility.yul\":1864:1870   */\n      dup2\n        /* \"#utility.yul\":1851:1871   */\n      calldataload\n        /* \"#utility.yul\":1842:1871   */\n      swap1\n      pop\n        /* \"#utility.yul\":1880:1913   */\n      tag_96\n        /* \"#utility.yul\":1907:1912   */\n      dup2\n        /* \"#utility.yul\":1880:1913   */\n      tag_71\n      jump\t// in\n    tag_96:\n        /* \"#utility.yul\":1780:1919   */\n      swap3\n      swap2\n      pop\n      pop\n      jump\t// out\n        /* \"#utility.yul\":1925:2254   */\n    tag_18:\n        /* \"#utility.yul\":1984:1990   */\n      0x00\n        /* \"#utility.yul\":2033:2035   */\n      0x20\n        /* \"#utility.yul\":2021:2030   */\n      dup3\n        /* \"#utility.yul\":2012:2019   */\n      dup5\n        /* \"#utility.yul\":2008:2031   */\n      sub\n        /* \"#utility.yul\":2004:2036   */\n      slt\n        /* \"#utility.yul\":2001:2120   */\n      iszero\n      tag_98\n      jumpi\n        /* \"#utility.yul\":2039:2118   */\n      tag_99\n      tag_68\n      jump\t// in\n    tag_99:\n        /* \"#utility.yul\":2001:2120   */\n    tag_98:\n        /* \"#utility.yul\":2159:2160   */\n      0x00\n        /* \"#utility.yul\":2184:2237   */\n      tag_100\n        /* \"#utility.yul\":2229:2236   */\n      dup5\n        /* \"#utility.yul\":2220:2226   */\n      dup3\n        /* \"#utility.yul\":2209:2218   */\n      dup6\n        /* \"#utility.yul\":2205:2227   */\n      add\n        /* \"#utility.yul\":2184:2237   */\n      tag_72\n      jump\t// in\n    tag_100:\n        /* \"#utility.yul\":2174:2237   */\n      swap2\n      pop\n        /* \"#utility.yul\":2130:2247   */\n      pop\n        /* \"#utility.yul\":1925:2254   */\n      swap3\n      swap2\n      pop\n      pop\n      jump\t// out\n        /* \"#utility.yul\":2260:2378   */\n    tag_73:\n        /* \"#utility.yul\":2347:2371   */\n      tag_102\n        /* \"#utility.yul\":2365:2370   */\n      dup2\n        /* \"#utility.yul\":2347:2371   */\n      tag_70\n      jump\t// in\n    tag_102:\n        /* \"#utility.yul\":2342:2345   */\n      dup3\n        /* \"#utility.yul\":2335:2372   */\n      mstore\n        /* \"#utility.yul\":2260:2378   */\n      pop\n      pop\n      jump\t// out\n        /* \"#utility.yul\":2384:2606   */\n    tag_21:\n        /* \"#utility.yul\":2477:2481   */\n      0x00\n        /* \"#utility.yul\":2515:2517   */\n      0x20\n        /* \"#utility.yul\":2504:2513   */\n      dup3\n        /* \"#utility.yul\":2500:2518   */\n      add\n        /* \"#utility.yul\":2492:2518   */\n      swap1\n      pop\n        /* \"#utility.yul\":2528:2599   */\n      tag_104\n        /* \"#utility.yul\":2596:2597   */\n      0x00\n        /* \"#utility.yul\":2585:2594   */\n      dup4\n        /* \"#utility.yul\":2581:2598   */\n      add\n        /* \"#utility.yul\":2572:2578   */\n      dup5\n        /* \"#utility.yul\":2528:2599   */\n      tag_73\n      jump\t// in\n    tag_104:\n        /* \"#utility.yul\":2384:2606   */\n      swap3\n      swap2\n      pop\n      pop\n      jump\t// out\n        /* \"#utility.yul\":2612:2792   */\n    tag_74:\n        /* \"#utility.yul\":2660:2737   */\n      0x4e487b7100000000000000000000000000000000000000000000000000000000\n        /* \"#utility.yul\":2657:2658   */\n      0x00\n        /* \"#utility.yul\":2650:2738   */\n      mstore\n        /* \"#utility.yul\":2757:2761   */\n      0x22\n        /* \"#utility.yul\":2754:2755   */\n      0x04\n        /* \"#utility.yul\":2747:2762   */\n      mstore\n        /* \"#utility.yul\":2781:2785   */\n      0x24\n        /* \"#utility.yul\":2778:2779   */\n      0x00\n        /* \"#utility.yul\":2771:2786   */\n      revert\n        /* \"#utility.yul\":2798:3118   */\n    tag_41:\n        /* \"#utility.yul\":2842:2848   */\n      0x00\n        /* \"#utility.yul\":2879:2880   */\n      0x02\n        /* \"#utility.yul\":2873:2877   */\n      dup3\n        /* \"#utility.yul\":2869:2881   */\n      div\n        /* \"#utility.yul\":2859:2881   */\n      swap1\n      pop\n        /* \"#utility.yul\":2926:2927   */\n      0x01\n        /* \"#utility.yul\":2920:2924   */\n      dup3\n        /* \"#utility.yul\":2916:2928   */\n      and\n        /* \"#utility.yul\":2947:2965   */\n      dup1\n        /* \"#utility.yul\":2937:3018   */\n      tag_107\n      jumpi\n        /* \"#utility.yul\":3003:3007   */\n      0x7f\n        /* \"#utility.yul\":2995:3001   */\n      dup3\n        /* \"#utility.yul\":2991:3008   */\n      and\n        /* \"#utility.yul\":2981:3008   */\n      swap2\n      pop\n        /* \"#utility.yul\":2937:3018   */\n    tag_107:\n        /* \"#utility.yul\":3065:3067   */\n      0x20\n        /* \"#utility.yul\":3057:3063   */\n      dup3\n        /* \"#utility.yul\":3054:3068   */\n      lt\n        /* \"#utility.yul\":3034:3052   */\n      dup2\n        /* \"#utility.yul\":3031:3069   */\n      sub\n        /* \"#utility.yul\":3028:3112   */\n      tag_108\n      jumpi\n        /* \"#utility.yul\":3084:3102   */\n      tag_109\n      tag_74\n      jump\t// in\n    tag_109:\n        /* \"#utility.yul\":3028:3112   */\n    tag_108:\n        /* \"#utility.yul\":2849:3118   */\n      pop\n        /* \"#utility.yul\":2798:3118   */\n      swap2\n      swap1\n      pop\n      jump\t// out\n        /* \"#utility.yul\":3124:3304   */\n    tag_75:\n        /* \"#utility.yul\":3172:3249   */\n      0x4e487b7100000000000000000000000000000000000000000000000000000000\n        /* \"#utility.yul\":3169:3170   */\n      0x00\n        /* \"#utility.yul\":3162:3250   */\n      mstore\n        /* \"#utility.yul\":3269:3273   */\n      0x11\n        /* \"#utility.yul\":3266:3267   */\n      0x04\n        /* \"#utility.yul\":3259:3274   */\n      mstore\n        /* \"#utility.yul\":3293:3297   */\n      0x24\n        /* \"#utility.yul\":3290:3291   */\n      0x00\n        /* \"#utility.yul\":3283:3298   */\n      revert\n        /* \"#utility.yul\":3310:3720   */\n    tag_49:\n        /* \"#utility.yul\":3350:3357   */\n      0x00\n        /* \"#utility.yul\":3373:3393   */\n      tag_112\n        /* \"#utility.yul\":3391:3392   */\n      dup3\n        /* \"#utility.yul\":3373:3393   */\n      tag_70\n      jump\t// in\n    tag_112:\n        /* \"#utility.yul\":3368:3393   */\n      swap2\n      pop\n        /* \"#utility.yul\":3407:3427   */\n      tag_113\n        /* \"#utility.yul\":3425:3426   */\n      dup4\n        /* \"#utility.yul\":3407:3427   */\n      tag_70\n      jump\t// in\n    tag_113:\n        /* \"#utility.yul\":3402:3427   */\n      swap3\n      pop\n        /* \"#utility.yul\":3462:3463   */\n      dup3\n        /* \"#utility.yul\":3459:3460   */\n      dup3\n        /* \"#utility.yul\":3455:3464   */\n      mul\n        /* \"#utility.yul\":3484:3514   */\n      tag_114\n        /* \"#utility.yul\":3502:3513   */\n      dup2\n        /* \"#utility.yul\":3484:3514   */\n      tag_70\n      jump\t// in\n    tag_114:\n        /* \"#utility.yul\":3473:3514   */\n      swap2\n      pop\n        /* \"#utility.yul\":3663:3664   */\n      dup3\n        /* \"#utility.yul\":3654:3661   */\n      dup3\n        /* \"#utility.yul\":3650:3665   */\n      div\n        /* \"#utility.yul\":3647:3648   */\n      dup5\n        /* \"#utility.yul\":3644:3666   */\n      eq\n        /* \"#utility.yul\":3624:3625   */\n      dup4\n        /* \"#utility.yul\":3617:3626   */\n      iszero\n        /* \"#utility.yul\":3597:3680   */\n      or\n        /* \"#utility.yul\":3574:3713   */\n      tag_115\n      jumpi\n        /* \"#utility.yul\":3693:3711   */\n      tag_116\n      tag_75\n      jump\t// in\n    tag_116:\n        /* \"#utility.yul\":3574:3713   */\n    tag_115:\n        /* \"#utility.yul\":3358:3720   */\n      pop\n        /* \"#utility.yul\":3310:3720   */\n      swap3\n      swap2\n      pop\n      pop\n      jump\t// out\n\n    auxdata: 0xa2646970667358221220e2f293da4a307b5b601d8b076d07443eb697bbedeacd25b6c527db2cb688f45d64736f6c634300081a0033\n}\n",
				"bytecode": {
					"linkReferences": {},
					"object": "608060405234801561000f575f80fd5b50604051610b2c380380610b2c83398181016040528101906100319190610200565b84848484835f908161004391906104cf565b50826001908161005391906104cf565b5081600281905550806003908161006a91906104cf565b505050505080600481905550505050505061059e565b5f604051905090565b5f80fd5b5f80fd5b5f80fd5b5f80fd5b5f601f19601f8301169050919050565b7f4e487b71000000000000000000000000000000000000000000000000000000005f52604160045260245ffd5b6100df82610099565b810181811067ffffffffffffffff821117156100fe576100fd6100a9565b5b80604052505050565b5f610110610080565b905061011c82826100d6565b919050565b5f67ffffffffffffffff82111561013b5761013a6100a9565b5b61014482610099565b9050602081019050919050565b8281835e5f83830152505050565b5f61017161016c84610121565b610107565b90508281526020810184848401111561018d5761018c610095565b5b610198848285610151565b509392505050565b5f82601f8301126101b4576101b3610091565b5b81516101c484826020860161015f565b91505092915050565b5f819050919050565b6101df816101cd565b81146101e9575f80fd5b50565b5f815190506101fa816101d6565b92915050565b5f805f805f60a0868803121561021957610218610089565b5b5f86015167ffffffffffffffff8111156102365761023561008d565b5b610242888289016101a0565b955050602086015167ffffffffffffffff8111156102635761026261008d565b5b61026f888289016101a0565b9450506040610280888289016101ec565b935050606086015167ffffffffffffffff8111156102a1576102a061008d565b5b6102ad888289016101a0565b92505060806102be888289016101ec565b9150509295509295909350565b5f81519050919050565b7f4e487b71000000000000000000000000000000000000000000000000000000005f52602260045260245ffd5b5f600282049050600182168061031957607f821691505b60208210810361032c5761032b6102d5565b5b50919050565b5f819050815f5260205f209050919050565b5f6020601f8301049050919050565b5f82821b905092915050565b5f6008830261038e7fffffffffffffffffffffffffffffffffffffffffffffffffffffffffffffffff82610353565b6103988683610353565b95508019841693508086168417925050509392505050565b5f819050919050565b5f6103d36103ce6103c9846101cd565b6103b0565b6101cd565b9050919050565b5f819050919050565b6103ec836103b9565b6104006103f8826103da565b84845461035f565b825550505050565b5f90565b610414610408565b61041f8184846103e3565b505050565b5b81811015610442576104375f8261040c565b600181019050610425565b5050565b601f8211156104875761045881610332565b61046184610344565b81016020851015610470578190505b61048461047c85610344565b830182610424565b50505b505050565b5f82821c905092915050565b5f6104a75f198460080261048c565b1980831691505092915050565b5f6104bf8383610498565b9150826002028217905092915050565b6104d8826102cb565b67ffffffffffffffff8111156104f1576104f06100a9565b5b6104fb8254610302565b610506828285610446565b5f60209050601f831160018114610537575f8415610525578287015190505b61052f85826104b4565b865550610596565b601f19841661054586610332565b5f5b8281101561056c57848901518255600182019150602085019450602081019050610547565b868310156105895784890151610585601f891682610498565b8355505b6001600288020188555050505b505050505050565b610581806105ab5f395ff3fe608060405234801561000f575f80fd5b5060043610610086575f3560e01c8063d21e199311610059578063d21e199314610114578063e8311f8414610132578063f326971614610150578063f64eeab61461016e57610086565b80630ad9d0521461008a5780631e006929146100a8578063a138438b146100d8578063c6dad082146100f6575b5f80fd5b61009261018c565b60405161009f91906103d6565b60405180910390f35b6100c260048036038101906100bd919061042d565b610218565b6040516100cf9190610467565b60405180910390f35b6100e0610233565b6040516100ed9190610467565b60405180910390f35b6100fe610239565b60405161010b91906103d6565b60405180910390f35b61011c6102c4565b6040516101299190610467565b60405180910390f35b61013a6102cc565b60405161014791906103d6565b60405180910390f35b610158610358565b6040516101659190610467565b60405180910390f35b61017661035e565b6040516101839190610467565b60405180910390f35b60018054610199906104ad565b80601f01602080910402602001604051908101604052809291908181526020018280546101c5906104ad565b80156102105780601f106101e757610100808354040283529160200191610210565b820191905f5260205f20905b8154815290600101906020018083116101f357829003601f168201915b505050505081565b5f61022161035e565b8261022c919061050a565b9050919050565b60045481565b5f8054610245906104ad565b80601f0160208091040260200160405190810160405280929190818152602001828054610271906104ad565b80156102bc5780601f10610293576101008083540402835291602001916102bc565b820191905f5260205f20905b81548152906001019060200180831161029f57829003601f168201915b505050505081565b5f60b4905090565b600380546102d9906104ad565b80601f0160208091040260200160405190810160405280929190818152602001828054610305906104ad565b80156103505780601f1061032757610100808354040283529160200191610350565b820191905f5260205f20905b81548152906001019060200180831161033357829003601f168201915b505050505081565b60025481565b5f600f905090565b5f81519050919050565b5f82825260208201905092915050565b8281835e5f83830152505050565b5f601f19601f8301169050919050565b5f6103a882610366565b6103b28185610370565b93506103c2818560208601610380565b6103cb8161038e565b840191505092915050565b5f6020820190508181035f8301526103ee818461039e565b905092915050565b5f80fd5b5f819050919050565b61040c816103fa565b8114610416575f80fd5b50565b5f8135905061042781610403565b92915050565b5f60208284031215610442576104416103f6565b5b5f61044f84828501610419565b91505092915050565b610461816103fa565b82525050565b5f60208201905061047a5f830184610458565b92915050565b7f4e487b71000000000000000000000000000000000000000000000000000000005f52602260045260245ffd5b5f60028204905060018216806104c457607f821691505b6020821081036104d7576104d6610480565b5b50919050565b7f4e487b71000000000000000000000000000000000000000000000000000000005f52601160045260245ffd5b5f610514826103fa565b915061051f836103fa565b925082820261052d816103fa565b91508282048414831517610544576105436104dd565b5b509291505056fea2646970667358221220e2f293da4a307b5b601d8b076d07443eb697bbedeacd25b6c527db2cb688f45d64736f6c634300081a0033",
					"opcodes": "PUSH1 0x80 PUSH1 0x40 MSTORE CALLVALUE DUP1 ISZERO PUSH2 0xF JUMPI PUSH0 DUP1 REVERT JUMPDEST POP PUSH1 0x40 MLOAD PUSH2 0xB2C CODESIZE SUB DUP1 PUSH2 0xB2C DUP4 CODECOPY DUP2 DUP2 ADD PUSH1 0x40 MSTORE DUP2 ADD SWAP1 PUSH2 0x31 SWAP2 SWAP1 PUSH2 0x200 JUMP JUMPDEST DUP5 DUP5 DUP5 DUP5 DUP4 PUSH0 SWAP1 DUP2 PUSH2 0x43 SWAP2 SWAP1 PUSH2 0x4CF JUMP JUMPDEST POP DUP3 PUSH1 0x1 SWAP1 DUP2 PUSH2 0x53 SWAP2 SWAP1 PUSH2 0x4CF JUMP JUMPDEST POP DUP2 PUSH1 0x2 DUP2 SWAP1 SSTORE POP DUP1 PUSH1 0x3 SWAP1 DUP2 PUSH2 0x6A SWAP2 SWAP1 PUSH2 0x4CF JUMP JUMPDEST POP POP POP POP POP DUP1 PUSH1 0x4 DUP2 SWAP1 SSTORE POP POP POP POP POP POP PUSH2 0x59E JUMP JUMPDEST PUSH0 PUSH1 0x40 MLOAD SWAP1 POP SWAP1 JUMP JUMPDEST PUSH0 DUP1 REVERT JUMPDEST PUSH0 DUP1 REVERT JUMPDEST PUSH0 DUP1 REVERT JUMPDEST PUSH0 DUP1 REVERT JUMPDEST PUSH0 PUSH1 0x1F NOT PUSH1 0x1F DUP4 ADD AND SWAP1 POP SWAP2 SWAP1 POP JUMP JUMPDEST PUSH32 0x4E487B7100000000000000000000000000000000000000000000000000000000 PUSH0 MSTORE PUSH1 0x41 PUSH1 0x4 MSTORE PUSH1 0x24 PUSH0 REVERT JUMPDEST PUSH2 0xDF DUP3 PUSH2 0x99 JUMP JUMPDEST DUP2 ADD DUP2 DUP2 LT PUSH8 0xFFFFFFFFFFFFFFFF DUP3 GT OR ISZERO PUSH2 0xFE JUMPI PUSH2 0xFD PUSH2 0xA9 JUMP JUMPDEST JUMPDEST DUP1 PUSH1 0x40 MSTORE POP POP POP JUMP JUMPDEST PUSH0 PUSH2 0x110 PUSH2 0x80 JUMP JUMPDEST SWAP1 POP PUSH2 0x11C DUP3 DUP3 PUSH2 0xD6 JUMP JUMPDEST SWAP2 SWAP1 POP JUMP JUMPDEST PUSH0 PUSH8 0xFFFFFFFFFFFFFFFF DUP3 GT ISZERO PUSH2 0x13B JUMPI PUSH2 0x13A PUSH2 0xA9 JUMP JUMPDEST JUMPDEST PUSH2 0x144 DUP3 PUSH2 0x99 JUMP JUMPDEST SWAP1 POP PUSH1 0x20 DUP2 ADD SWAP1 POP SWAP2 SWAP1 POP JUMP JUMPDEST DUP3 DUP2 DUP4 MCOPY PUSH0 DUP4 DUP4 ADD MSTORE POP POP POP JUMP JUMPDEST PUSH0 PUSH2 0x171 PUSH2 0x16C DUP5 PUSH2 0x121 JUMP JUMPDEST PUSH2 0x107 JUMP JUMPDEST SWAP1 POP DUP3 DUP2 MSTORE PUSH1 0x20 DUP2 ADD DUP5 DUP5 DUP5 ADD GT ISZERO PUSH2 0x18D JUMPI PUSH2 0x18C PUSH2 0x95 JUMP JUMPDEST JUMPDEST PUSH2 0x198 DUP5 DUP3 DUP6 PUSH2 0x151 JUMP JUMPDEST POP SWAP4 SWAP3 POP POP POP JUMP JUMPDEST PUSH0 DUP3 PUSH1 0x1F DUP4 ADD SLT PUSH2 0x1B4 JUMPI PUSH2 0x1B3 PUSH2 0x91 JUMP JUMPDEST JUMPDEST DUP2 MLOAD PUSH2 0x1C4 DUP5 DUP3 PUSH1 0x20 DUP7 ADD PUSH2 0x15F JUMP JUMPDEST SWAP2 POP POP SWAP3 SWAP2 POP POP JUMP JUMPDEST PUSH0 DUP2 SWAP1 POP SWAP2 SWAP1 POP JUMP JUMPDEST PUSH2 0x1DF DUP2 PUSH2 0x1CD JUMP JUMPDEST DUP2 EQ PUSH2 0x1E9 JUMPI PUSH0 DUP1 REVERT JUMPDEST POP JUMP JUMPDEST PUSH0 DUP2 MLOAD SWAP1 POP PUSH2 0x1FA DUP2 PUSH2 0x1D6 JUMP JUMPDEST SWAP3 SWAP2 POP POP JUMP JUMPDEST PUSH0 DUP1 PUSH0 DUP1 PUSH0 PUSH1 0xA0 DUP7 DUP9 SUB SLT ISZERO PUSH2 0x219 JUMPI PUSH2 0x218 PUSH2 0x89 JUMP JUMPDEST JUMPDEST PUSH0 DUP7 ADD MLOAD PUSH8 0xFFFFFFFFFFFFFFFF DUP2 GT ISZERO PUSH2 0x236 JUMPI PUSH2 0x235 PUSH2 0x8D JUMP JUMPDEST JUMPDEST PUSH2 0x242 DUP9 DUP3 DUP10 ADD PUSH2 0x1A0 JUMP JUMPDEST SWAP6 POP POP PUSH1 0x20 DUP7 ADD MLOAD PUSH8 0xFFFFFFFFFFFFFFFF DUP2 GT ISZERO PUSH2 0x263 JUMPI PUSH2 0x262 PUSH2 0x8D JUMP JUMPDEST JUMPDEST PUSH2 0x26F DUP9 DUP3 DUP10 ADD PUSH2 0x1A0 JUMP JUMPDEST SWAP5 POP POP PUSH1 0x40 PUSH2 0x280 DUP9 DUP3 DUP10 ADD PUSH2 0x1EC JUMP JUMPDEST SWAP4 POP POP PUSH1 0x60 DUP7 ADD MLOAD PUSH8 0xFFFFFFFFFFFFFFFF DUP2 GT ISZERO PUSH2 0x2A1 JUMPI PUSH2 0x2A0 PUSH2 0x8D JUMP JUMPDEST JUMPDEST PUSH2 0x2AD DUP9 DUP3 DUP10 ADD PUSH2 0x1A0 JUMP JUMPDEST SWAP3 POP POP PUSH1 0x80 PUSH2 0x2BE DUP9 DUP3 DUP10 ADD PUSH2 0x1EC JUMP JUMPDEST SWAP2 POP POP SWAP3 SWAP6 POP SWAP3 SWAP6 SWAP1 SWAP4 POP JUMP JUMPDEST PUSH0 DUP2 MLOAD SWAP1 POP SWAP2 SWAP1 POP JUMP JUMPDEST PUSH32 0x4E487B7100000000000000000000000000000000000000000000000000000000 PUSH0 MSTORE PUSH1 0x22 PUSH1 0x4 MSTORE PUSH1 0x24 PUSH0 REVERT JUMPDEST PUSH0 PUSH1 0x2 DUP3 DIV SWAP1 POP PUSH1 0x1 DUP3 AND DUP1 PUSH2 0x319 JUMPI PUSH1 0x7F DUP3 AND SWAP2 POP JUMPDEST PUSH1 0x20 DUP3 LT DUP2 SUB PUSH2 0x32C JUMPI PUSH2 0x32B PUSH2 0x2D5 JUMP JUMPDEST JUMPDEST POP SWAP2 SWAP1 POP JUMP JUMPDEST PUSH0 DUP2 SWAP1 POP DUP2 PUSH0 MSTORE PUSH1 0x20 PUSH0 KECCAK256 SWAP1 POP SWAP2 SWAP1 POP JUMP JUMPDEST PUSH0 PUSH1 0x20 PUSH1 0x1F DUP4 ADD DIV SWAP1 POP SWAP2 SWAP1 POP JUMP JUMPDEST PUSH0 DUP3 DUP3 SHL SWAP1 POP SWAP3 SWAP2 POP POP JUMP JUMPDEST PUSH0 PUSH1 0x8 DUP4 MUL PUSH2 0x38E PUSH32 0xFFFFFFFFFFFFFFFFFFFFFFFFFFFFFFFFFFFFFFFFFFFFFFFFFFFFFFFFFFFFFFFF DUP3 PUSH2 0x353 JUMP JUMPDEST PUSH2 0x398 DUP7 DUP4 PUSH2 0x353 JUMP JUMPDEST SWAP6 POP DUP1 NOT DUP5 AND SWAP4 POP DUP1 DUP7 AND DUP5 OR SWAP3 POP POP POP SWAP4 SWAP3 POP POP POP JUMP JUMPDEST PUSH0 DUP2 SWAP1 POP SWAP2 SWAP1 POP JUMP JUMPDEST PUSH0 PUSH2 0x3D3 PUSH2 0x3CE PUSH2 0x3C9 DUP5 PUSH2 0x1CD JUMP JUMPDEST PUSH2 0x3B0 JUMP JUMPDEST PUSH2 0x1CD JUMP JUMPDEST SWAP1 POP SWAP2 SWAP1 POP JUMP JUMPDEST PUSH0 DUP2 SWAP1 POP SWAP2 SWAP1 POP JUMP JUMPDEST PUSH2 0x3EC DUP4 PUSH2 0x3B9 JUMP JUMPDEST PUSH2 0x400 PUSH2 0x3F8 DUP3 PUSH2 0x3DA JUMP JUMPDEST DUP5 DUP5 SLOAD PUSH2 0x35F JUMP JUMPDEST DUP3 SSTORE POP POP POP POP JUMP JUMPDEST PUSH0 SWAP1 JUMP JUMPDEST PUSH2 0x414 PUSH2 0x408 JUMP JUMPDEST PUSH2 0x41F DUP2 DUP5 DUP5 PUSH2 0x3E3 JUMP JUMPDEST POP POP POP JUMP JUMPDEST JUMPDEST DUP2 DUP2 LT ISZERO PUSH2 0x442 JUMPI PUSH2 0x437 PUSH0 DUP3 PUSH2 0x40C JUMP JUMPDEST PUSH1 0x1 DUP2 ADD SWAP1 POP PUSH2 0x425 JUMP JUMPDEST POP POP JUMP JUMPDEST PUSH1 0x1F DUP3 GT ISZERO PUSH2 0x487 JUMPI PUSH2 0x458 DUP2 PUSH2 0x332 JUMP JUMPDEST PUSH2 0x461 DUP5 PUSH2 0x344 JUMP JUMPDEST DUP2 ADD PUSH1 0x20 DUP6 LT ISZERO PUSH2 0x470 JUMPI DUP2 SWAP1 POP JUMPDEST PUSH2 0x484 PUSH2 0x47C DUP6 PUSH2 0x344 JUMP JUMPDEST DUP4 ADD DUP3 PUSH2 0x424 JUMP JUMPDEST POP POP JUMPDEST POP POP POP JUMP JUMPDEST PUSH0 DUP3 DUP3 SHR SWAP1 POP SWAP3 SWAP2 POP POP JUMP JUMPDEST PUSH0 PUSH2 0x4A7 PUSH0 NOT DUP5 PUSH1 0x8 MUL PUSH2 0x48C JUMP JUMPDEST NOT DUP1 DUP4 AND SWAP2 POP POP SWAP3 SWAP2 POP POP JUMP JUMPDEST PUSH0 PUSH2 0x4BF DUP4 DUP4 PUSH2 0x498 JUMP JUMPDEST SWAP2 POP DUP3 PUSH1 0x2 MUL DUP3 OR SWAP1 POP SWAP3 SWAP2 POP POP JUMP JUMPDEST PUSH2 0x4D8 DUP3 PUSH2 0x2CB JUMP JUMPDEST PUSH8 0xFFFFFFFFFFFFFFFF DUP2 GT ISZERO PUSH2 0x4F1 JUMPI PUSH2 0x4F0 PUSH2 0xA9 JUMP JUMPDEST JUMPDEST PUSH2 0x4FB DUP3 SLOAD PUSH2 0x302 JUMP JUMPDEST PUSH2 0x506 DUP3 DUP3 DUP6 PUSH2 0x446 JUMP JUMPDEST PUSH0 PUSH1 0x20 SWAP1 POP PUSH1 0x1F DUP4 GT PUSH1 0x1 DUP2 EQ PUSH2 0x537 JUMPI PUSH0 DUP5 ISZERO PUSH2 0x525 JUMPI DUP3 DUP8 ADD MLOAD SWAP1 POP JUMPDEST PUSH2 0x52F DUP6 DUP3 PUSH2 0x4B4 JUMP JUMPDEST DUP7 SSTORE POP PUSH2 0x596 JUMP JUMPDEST PUSH1 0x1F NOT DUP5 AND PUSH2 0x545 DUP7 PUSH2 0x332 JUMP JUMPDEST PUSH0 JUMPDEST DUP3 DUP2 LT ISZERO PUSH2 0x56C JUMPI DUP5 DUP10 ADD MLOAD DUP3 SSTORE PUSH1 0x1 DUP3 ADD SWAP2 POP PUSH1 0x20 DUP6 ADD SWAP5 POP PUSH1 0x20 DUP2 ADD SWAP1 POP PUSH2 0x547 JUMP JUMPDEST DUP7 DUP4 LT ISZERO PUSH2 0x589 JUMPI DUP5 DUP10 ADD MLOAD PUSH2 0x585 PUSH1 0x1F DUP10 AND DUP3 PUSH2 0x498 JUMP JUMPDEST DUP4 SSTORE POP JUMPDEST PUSH1 0x1 PUSH1 0x2 DUP9 MUL ADD DUP9 SSTORE POP POP POP JUMPDEST POP POP POP POP POP POP JUMP JUMPDEST PUSH2 0x581 DUP1 PUSH2 0x5AB PUSH0 CODECOPY PUSH0 RETURN INVALID PUSH1 0x80 PUSH1 0x40 MSTORE CALLVALUE DUP1 ISZERO PUSH2 0xF JUMPI PUSH0 DUP1 REVERT JUMPDEST POP PUSH1 0x4 CALLDATASIZE LT PUSH2 0x86 JUMPI PUSH0 CALLDATALOAD PUSH1 0xE0 SHR DUP1 PUSH4 0xD21E1993 GT PUSH2 0x59 JUMPI DUP1 PUSH4 0xD21E1993 EQ PUSH2 0x114 JUMPI DUP1 PUSH4 0xE8311F84 EQ PUSH2 0x132 JUMPI DUP1 PUSH4 0xF3269716 EQ PUSH2 0x150 JUMPI DUP1 PUSH4 0xF64EEAB6 EQ PUSH2 0x16E JUMPI PUSH2 0x86 JUMP JUMPDEST DUP1 PUSH4 0xAD9D052 EQ PUSH2 0x8A JUMPI DUP1 PUSH4 0x1E006929 EQ PUSH2 0xA8 JUMPI DUP1 PUSH4 0xA138438B EQ PUSH2 0xD8 JUMPI DUP1 PUSH4 0xC6DAD082 EQ PUSH2 0xF6 JUMPI JUMPDEST PUSH0 DUP1 REVERT JUMPDEST PUSH2 0x92 PUSH2 0x18C JUMP JUMPDEST PUSH1 0x40 MLOAD PUSH2 0x9F SWAP2 SWAP1 PUSH2 0x3D6 JUMP JUMPDEST PUSH1 0x40 MLOAD DUP1 SWAP2 SUB SWAP1 RETURN JUMPDEST PUSH2 0xC2 PUSH1 0x4 DUP1 CALLDATASIZE SUB DUP2 ADD SWAP1 PUSH2 0xBD SWAP2 SWAP1 PUSH2 0x42D JUMP JUMPDEST PUSH2 0x218 JUMP JUMPDEST PUSH1 0x40 MLOAD PUSH2 0xCF SWAP2 SWAP1 PUSH2 0x467 JUMP JUMPDEST PUSH1 0x40 MLOAD DUP1 SWAP2 SUB SWAP1 RETURN JUMPDEST PUSH2 0xE0 PUSH2 0x233 JUMP JUMPDEST PUSH1 0x40 MLOAD PUSH2 0xED SWAP2 SWAP1 PUSH2 0x467 JUMP JUMPDEST PUSH1 0x40 MLOAD DUP1 SWAP2 SUB SWAP1 RETURN JUMPDEST PUSH2 0xFE PUSH2 0x239 JUMP JUMPDEST PUSH1 0x40 MLOAD PUSH2 0x10B SWAP2 SWAP1 PUSH2 0x3D6 JUMP JUMPDEST PUSH1 0x40 MLOAD DUP1 SWAP2 SUB SWAP1 RETURN JUMPDEST PUSH2 0x11C PUSH2 0x2C4 JUMP JUMPDEST PUSH1 0x40 MLOAD PUSH2 0x129 SWAP2 SWAP1 PUSH2 0x467 JUMP JUMPDEST PUSH1 0x40 MLOAD DUP1 SWAP2 SUB SWAP1 RETURN JUMPDEST PUSH2 0x13A PUSH2 0x2CC JUMP JUMPDEST PUSH1 0x40 MLOAD PUSH2 0x147 SWAP2 SWAP1 PUSH2 0x3D6 JUMP JUMPDEST PUSH1 0x40 MLOAD DUP1 SWAP2 SUB SWAP1 RETURN JUMPDEST PUSH2 0x158 PUSH2 0x358 JUMP JUMPDEST PUSH1 0x40 MLOAD PUSH2 0x165 SWAP2 SWAP1 PUSH2 0x467 JUMP JUMPDEST PUSH1 0x40 MLOAD DUP1 SWAP2 SUB SWAP1 RETURN JUMPDEST PUSH2 0x176 PUSH2 0x35E JUMP JUMPDEST PUSH1 0x40 MLOAD PUSH2 0x183 SWAP2 SWAP1 PUSH2 0x467 JUMP JUMPDEST PUSH1 0x40 MLOAD DUP1 SWAP2 SUB SWAP1 RETURN JUMPDEST PUSH1 0x1 DUP1 SLOAD PUSH2 0x199 SWAP1 PUSH2 0x4AD JUMP JUMPDEST DUP1 PUSH1 0x1F ADD PUSH1 0x20 DUP1 SWAP2 DIV MUL PUSH1 0x20 ADD PUSH1 0x40 MLOAD SWAP1 DUP2 ADD PUSH1 0x40 MSTORE DUP1 SWAP3 SWAP2 SWAP1 DUP2 DUP2 MSTORE PUSH1 0x20 ADD DUP3 DUP1 SLOAD PUSH2 0x1C5 SWAP1 PUSH2 0x4AD JUMP JUMPDEST DUP1 ISZERO PUSH2 0x210 JUMPI DUP1 PUSH1 0x1F LT PUSH2 0x1E7 JUMPI PUSH2 0x100 DUP1 DUP4 SLOAD DIV MUL DUP4 MSTORE SWAP2 PUSH1 0x20 ADD SWAP2 PUSH2 0x210 JUMP JUMPDEST DUP3 ADD SWAP2 SWAP1 PUSH0 MSTORE PUSH1 0x20 PUSH0 KECCAK256 SWAP1 JUMPDEST DUP2 SLOAD DUP2 MSTORE SWAP1 PUSH1 0x1 ADD SWAP1 PUSH1 0x20 ADD DUP1 DUP4 GT PUSH2 0x1F3 JUMPI DUP3 SWAP1 SUB PUSH1 0x1F AND DUP3 ADD SWAP2 JUMPDEST POP POP POP POP POP DUP2 JUMP JUMPDEST PUSH0 PUSH2 0x221 PUSH2 0x35E JUMP JUMPDEST DUP3 PUSH2 0x22C SWAP2 SWAP1 PUSH2 0x50A JUMP JUMPDEST SWAP1 POP SWAP2 SWAP1 POP JUMP JUMPDEST PUSH1 0x4 SLOAD DUP2 JUMP JUMPDEST PUSH0 DUP1 SLOAD PUSH2 0x245 SWAP1 PUSH2 0x4AD JUMP JUMPDEST DUP1 PUSH1 0x1F ADD PUSH1 0x20 DUP1 SWAP2 DIV MUL PUSH1 0x20 ADD PUSH1 0x40 MLOAD SWAP1 DUP2 ADD PUSH1 0x40 MSTORE DUP1 SWAP3 SWAP2 SWAP1 DUP2 DUP2 MSTORE PUSH1 0x20 ADD DUP3 DUP1 SLOAD PUSH2 0x271 SWAP1 PUSH2 0x4AD JUMP JUMPDEST DUP1 ISZERO PUSH2 0x2BC JUMPI DUP1 PUSH1 0x1F LT PUSH2 0x293 JUMPI PUSH2 0x100 DUP1 DUP4 SLOAD DIV MUL DUP4 MSTORE SWAP2 PUSH1 0x20 ADD SWAP2 PUSH2 0x2BC JUMP JUMPDEST DUP3 ADD SWAP2 SWAP1 PUSH0 MSTORE PUSH1 0x20 PUSH0 KECCAK256 SWAP1 JUMPDEST DUP2 SLOAD DUP2 MSTORE SWAP1 PUSH1 0x1 ADD SWAP1 PUSH1 0x20 ADD DUP1 DUP4 GT PUSH2 0x29F JUMPI DUP3 SWAP1 SUB PUSH1 0x1F AND DUP3 ADD SWAP2 JUMPDEST POP POP POP POP POP DUP2 JUMP JUMPDEST PUSH0 PUSH1 0xB4 SWAP1 POP SWAP1 JUMP JUMPDEST PUSH1 0x3 DUP1 SLOAD PUSH2 0x2D9 SWAP1 PUSH2 0x4AD JUMP JUMPDEST DUP1 PUSH1 0x1F ADD PUSH1 0x20 DUP1 SWAP2 DIV MUL PUSH1 0x20 ADD PUSH1 0x40 MLOAD SWAP1 DUP2 ADD PUSH1 0x40 MSTORE DUP1 SWAP3 SWAP2 SWAP1 DUP2 DUP2 MSTORE PUSH1 0x20 ADD DUP3 DUP1 SLOAD PUSH2 0x305 SWAP1 PUSH2 0x4AD JUMP JUMPDEST DUP1 ISZERO PUSH2 0x350 JUMPI DUP1 PUSH1 0x1F LT PUSH2 0x327 JUMPI PUSH2 0x100 DUP1 DUP4 SLOAD DIV MUL DUP4 MSTORE SWAP2 PUSH1 0x20 ADD SWAP2 PUSH2 0x350 JUMP JUMPDEST DUP3 ADD SWAP2 SWAP1 PUSH0 MSTORE PUSH1 0x20 PUSH0 KECCAK256 SWAP1 JUMPDEST DUP2 SLOAD DUP2 MSTORE SWAP1 PUSH1 0x1 ADD SWAP1 PUSH1 0x20 ADD DUP1 DUP4 GT PUSH2 0x333 JUMPI DUP3 SWAP1 SUB PUSH1 0x1F AND DUP3 ADD SWAP2 JUMPDEST POP POP POP POP POP DUP2 JUMP JUMPDEST PUSH1 0x2 SLOAD DUP2 JUMP JUMPDEST PUSH0 PUSH1 0xF SWAP1 POP SWAP1 JUMP JUMPDEST PUSH0 DUP2 MLOAD SWAP1 POP SWAP2 SWAP1 POP JUMP JUMPDEST PUSH0 DUP3 DUP3 MSTORE PUSH1 0x20 DUP3 ADD SWAP1 POP SWAP3 SWAP2 POP POP JUMP JUMPDEST DUP3 DUP2 DUP4 MCOPY PUSH0 DUP4 DUP4 ADD MSTORE POP POP POP JUMP JUMPDEST PUSH0 PUSH1 0x1F NOT PUSH1 0x1F DUP4 ADD AND SWAP1 POP SWAP2 SWAP1 POP JUMP JUMPDEST PUSH0 PUSH2 0x3A8 DUP3 PUSH2 0x366 JUMP JUMPDEST PUSH2 0x3B2 DUP2 DUP6 PUSH2 0x370 JUMP JUMPDEST SWAP4 POP PUSH2 0x3C2 DUP2 DUP6 PUSH1 0x20 DUP7 ADD PUSH2 0x380 JUMP JUMPDEST PUSH2 0x3CB DUP2 PUSH2 0x38E JUMP JUMPDEST DUP5 ADD SWAP2 POP POP SWAP3 SWAP2 POP POP JUMP JUMPDEST PUSH0 PUSH1 0x20 DUP3 ADD SWAP1 POP DUP2 DUP2 SUB PUSH0 DUP4 ADD MSTORE PUSH2 0x3EE DUP2 DUP5 PUSH2 0x39E JUMP JUMPDEST SWAP1 POP SWAP3 SWAP2 POP POP JUMP JUMPDEST PUSH0 DUP1 REVERT JUMPDEST PUSH0 DUP2 SWAP1 POP SWAP2 SWAP1 POP JUMP JUMPDEST PUSH2 0x40C DUP2 PUSH2 0x3FA JUMP JUMPDEST DUP2 EQ PUSH2 0x416 JUMPI PUSH0 DUP1 REVERT JUMPDEST POP JUMP JUMPDEST PUSH0 DUP2 CALLDATALOAD SWAP1 POP PUSH2 0x427 DUP2 PUSH2 0x403 JUMP JUMPDEST SWAP3 SWAP2 POP POP JUMP JUMPDEST PUSH0 PUSH1 0x20 DUP3 DUP5 SUB SLT ISZERO PUSH2 0x442 JUMPI PUSH2 0x441 PUSH2 0x3F6 JUMP JUMPDEST JUMPDEST PUSH0 PUSH2 0x44F DUP5 DUP3 DUP6 ADD PUSH2 0x419 JUMP JUMPDEST SWAP2 POP POP SWAP3 SWAP2 POP POP JUMP JUMPDEST PUSH2 0x461 DUP2 PUSH2 0x3FA JUMP JUMPDEST DUP3 MSTORE POP POP JUMP JUMPDEST PUSH0 PUSH1 0x20 DUP3 ADD SWAP1 POP PUSH2 0x47A PUSH0 DUP4 ADD DUP5 PUSH2 0x458 JUMP JUMPDEST SWAP3 SWAP2 POP POP JUMP JUMPDEST PUSH32 0x4E487B7100000000000000000000000000000000000000000000000000000000 PUSH0 MSTORE PUSH1 0x22 PUSH1 0x4 MSTORE PUSH1 0x24 PUSH0 REVERT JUMPDEST PUSH0 PUSH1 0x2 DUP3 DIV SWAP1 POP PUSH1 0x1 DUP3 AND DUP1 PUSH2 0x4C4 JUMPI PUSH1 0x7F DUP3 AND SWAP2 POP JUMPDEST PUSH1 0x20 DUP3 LT DUP2 SUB PUSH2 0x4D7 JUMPI PUSH2 0x4D6 PUSH2 0x480 JUMP JUMPDEST JUMPDEST POP SWAP2 SWAP1 POP JUMP JUMPDEST PUSH32 0x4E487B7100000000000000000000000000000000000000000000000000000000 PUSH0 MSTORE PUSH1 0x11 PUSH1 0x4 MSTORE PUSH1 0x24 PUSH0 REVERT JUMPDEST PUSH0 PUSH2 0x514 DUP3 PUSH2 0x3FA JUMP JUMPDEST SWAP2 POP PUSH2 0x51F DUP4 PUSH2 0x3FA JUMP JUMPDEST SWAP3 POP DUP3 DUP3 MUL PUSH2 0x52D DUP2 PUSH2 0x3FA JUMP JUMPDEST SWAP2 POP DUP3 DUP3 DIV DUP5 EQ DUP4 ISZERO OR PUSH2 0x544 JUMPI PUSH2 0x543 PUSH2 0x4DD JUMP JUMPDEST JUMPDEST POP SWAP3 SWAP2 POP POP JUMP INVALID LOG2 PUSH5 0x6970667358 0x22 SLT KECCAK256 0xE2 CALLCODE SWAP4 0xDA BLOBBASEFEE ADDRESS PUSH28 0x5B601D8B076D07443EB697BBEDEACD25B6C527DB2CB688F45D64736F PUSH13 0x634300081A0033000000000000 "
				},
				"gasEstimates": {
					"creation": {
						"codeDepositCost": "281800",
						"executionCost": "infinite",
						"totalCost": "infinite"
					},
					"external": {
						"distanceTraveled(uint256)": "infinite",
						"fuelEfficiency()": "398",
						"fuelType()": "infinite",
						"make()": "infinite",
						"maxSpeed()": "332",
						"model()": "infinite",
						"numDoors()": "2470",
						"year()": "2469"
					}
				},
				"methodIdentifiers": {
					"distanceTraveled(uint256)": "1e006929",
					"fuelEfficiency()": "f64eeab6",
					"fuelType()": "e8311f84",
					"make()": "c6dad082",
					"maxSpeed()": "d21e1993",
					"model()": "0ad9d052",
					"numDoors()": "a138438b",
					"year()": "f3269716"
				}
			},
			"storageLayout": {
				"storage": [
					{
						"astId": 3,
						"contract": "Day6/p2.sol:Car",
						"label": "make",
						"offset": 0,
						"slot": "0",
						"type": "t_string_storage"
					},
					{
						"astId": 5,
						"contract": "Day6/p2.sol:Car",
						"label": "model",
						"offset": 0,
						"slot": "1",
						"type": "t_string_storage"
					},
					{
						"astId": 7,
						"contract": "Day6/p2.sol:Car",
						"label": "year",
						"offset": 0,
						"slot": "2",
						"type": "t_uint256"
					},
					{
						"astId": 9,
						"contract": "Day6/p2.sol:Car",
						"label": "fuelType",
						"offset": 0,
						"slot": "3",
						"type": "t_string_storage"
					},
					{
						"astId": 118,
						"contract": "Day6/p2.sol:Car",
						"label": "numDoors",
						"offset": 0,
						"slot": "4",
						"type": "t_uint256"
					}
				],
				"types": {
					"t_string_storage": {
						"encoding": "bytes",
						"label": "string",
						"numberOfBytes": "32"
					},
					"t_uint256": {
						"encoding": "inplace",
						"label": "uint256",
						"numberOfBytes": "32"
					}
				}
			},
			"userdoc": {
				"kind": "user",
				"methods": {},
				"version": 1
			}
		}
	}
}