{
	"data": {
		"bytecode": {
			"linkReferences": {},
			"object": "6080604052348015600e575f80fd5b5061067f8061001c5f395ff3fe608060405234801561000f575f80fd5b506004361061007b575f3560e01c80639be6ae64116100595780639be6ae64146100d9578063b3d64268146100f7578063b92abc9414610115578063e303a92b146101335761007b565b8063192c90401461007f5780631a8056e11461009d57806342a3e93f146100bb575b5f80fd5b61008761014f565b604051610094919061051f565b60405180910390f35b6100a5610177565b6040516100b2919061051f565b60405180910390f35b6100c361019f565b6040516100d0919061051f565b60405180910390f35b6100e16101c2565b6040516100ee919061051f565b60405180910390f35b6100ff6101e7565b60405161010c919061051f565b60405180910390f35b61011d61020c565b60405161012a919061051f565b60405180910390f35b61014d6004803603810190610148919061056f565b610233565b005b5f60015f9054906101000a900473ffffffffffffffffffffffffffffffffffffffff16905090565b5f60025f9054906101000a900473ffffffffffffffffffffffffffffffffffffffff16905090565b5f8054906101000a900473ffffffffffffffffffffffffffffffffffffffff1681565b60025f9054906101000a900473ffffffffffffffffffffffffffffffffffffffff1681565b60015f9054906101000a900473ffffffffffffffffffffffffffffffffffffffff1681565b5f805f9054906101000a900473ffffffffffffffffffffffffffffffffffffffff16905090565b5f805f6101000a81548173ffffffffffffffffffffffffffffffffffffffff021916908373ffffffffffffffffffffffffffffffffffffffff1602179055505f60015f6101000a81548173ffffffffffffffffffffffffffffffffffffffff021916908373ffffffffffffffffffffffffffffffffffffffff1602179055505f60025f6101000a81548173ffffffffffffffffffffffffffffffffffffffff021916908373ffffffffffffffffffffffffffffffffffffffff1602179055505f60038261030091906105c7565b14801561031857505f60058261031691906105c7565b145b1561036157335f806101000a81548173ffffffffffffffffffffffffffffffffffffffff021916908373ffffffffffffffffffffffffffffffffffffffff16021790555061043f565b5f60078261036f91906105c7565b148061038657505f600b8261038491906105c7565b145b156103d0573360015f6101000a81548173ffffffffffffffffffffffffffffffffffffffff021916908373ffffffffffffffffffffffffffffffffffffffff16021790555061043e565b5f6005826103de91906105c7565b1480156103f757505f600a826103f491906105c7565b14155b1561043d573360025f6101000a81548173ffffffffffffffffffffffffffffffffffffffff021916908373ffffffffffffffffffffffffffffffffffffffff1602179055505b5b5b7fc3c1f65fc96cbd14a085f7ddbb1e3dcc87916f31dba1f4d1586b92ca62e3eed2815f8054906101000a900473ffffffffffffffffffffffffffffffffffffffff1660015f9054906101000a900473ffffffffffffffffffffffffffffffffffffffff1660025f9054906101000a900473ffffffffffffffffffffffffffffffffffffffff166040516104d59493929190610606565b60405180910390a150565b5f73ffffffffffffffffffffffffffffffffffffffff82169050919050565b5f610509826104e0565b9050919050565b610519816104ff565b82525050565b5f6020820190506105325f830184610510565b92915050565b5f80fd5b5f819050919050565b61054e8161053c565b8114610558575f80fd5b50565b5f8135905061056981610545565b92915050565b5f6020828403121561058457610583610538565b5b5f6105918482850161055b565b91505092915050565b7f4e487b71000000000000000000000000000000000000000000000000000000005f52601260045260245ffd5b5f6105d18261053c565b91506105dc8361053c565b9250826105ec576105eb61059a565b5b828206905092915050565b6106008161053c565b82525050565b5f6080820190506106195f8301876105f7565b6106266020830186610510565b6106336040830185610510565b6106406060830184610510565b9594505050505056fea2646970667358221220875f6ec0f956d7200daf3c8e5e6294fecb971acb359f53ee7a0dba831f8a76fc64736f6c634300081a0033",
			"opcodes": "PUSH1 0x80 PUSH1 0x40 MSTORE CALLVALUE DUP1 ISZERO PUSH1 0xE JUMPI PUSH0 DUP1 REVERT JUMPDEST POP PUSH2 0x67F DUP1 PUSH2 0x1C PUSH0 CODECOPY PUSH0 RETURN INVALID PUSH1 0x80 PUSH1 0x40 MSTORE CALLVALUE DUP1 ISZERO PUSH2 0xF JUMPI PUSH0 DUP1 REVERT JUMPDEST POP PUSH1 0x4 CALLDATASIZE LT PUSH2 0x7B JUMPI PUSH0 CALLDATALOAD PUSH1 0xE0 SHR DUP1 PUSH4 0x9BE6AE64 GT PUSH2 0x59 JUMPI DUP1 PUSH4 0x9BE6AE64 EQ PUSH2 0xD9 JUMPI DUP1 PUSH4 0xB3D64268 EQ PUSH2 0xF7 JUMPI DUP1 PUSH4 0xB92ABC94 EQ PUSH2 0x115 JUMPI DUP1 PUSH4 0xE303A92B EQ PUSH2 0x133 JUMPI PUSH2 0x7B JUMP JUMPDEST DUP1 PUSH4 0x192C9040 EQ PUSH2 0x7F JUMPI DUP1 PUSH4 0x1A8056E1 EQ PUSH2 0x9D JUMPI DUP1 PUSH4 0x42A3E93F EQ PUSH2 0xBB JUMPI JUMPDEST PUSH0 DUP1 REVERT JUMPDEST PUSH2 0x87 PUSH2 0x14F JUMP JUMPDEST PUSH1 0x40 MLOAD PUSH2 0x94 SWAP2 SWAP1 PUSH2 0x51F JUMP JUMPDEST PUSH1 0x40 MLOAD DUP1 SWAP2 SUB SWAP1 RETURN JUMPDEST PUSH2 0xA5 PUSH2 0x177 JUMP JUMPDEST PUSH1 0x40 MLOAD PUSH2 0xB2 SWAP2 SWAP1 PUSH2 0x51F JUMP JUMPDEST PUSH1 0x40 MLOAD DUP1 SWAP2 SUB SWAP1 RETURN JUMPDEST PUSH2 0xC3 PUSH2 0x19F JUMP JUMPDEST PUSH1 0x40 MLOAD PUSH2 0xD0 SWAP2 SWAP1 PUSH2 0x51F JUMP JUMPDEST PUSH1 0x40 MLOAD DUP1 SWAP2 SUB SWAP1 RETURN JUMPDEST PUSH2 0xE1 PUSH2 0x1C2 JUMP JUMPDEST PUSH1 0x40 MLOAD PUSH2 0xEE SWAP2 SWAP1 PUSH2 0x51F JUMP JUMPDEST PUSH1 0x40 MLOAD DUP1 SWAP2 SUB SWAP1 RETURN JUMPDEST PUSH2 0xFF PUSH2 0x1E7 JUMP JUMPDEST PUSH1 0x40 MLOAD PUSH2 0x10C SWAP2 SWAP1 PUSH2 0x51F JUMP JUMPDEST PUSH1 0x40 MLOAD DUP1 SWAP2 SUB SWAP1 RETURN JUMPDEST PUSH2 0x11D PUSH2 0x20C JUMP JUMPDEST PUSH1 0x40 MLOAD PUSH2 0x12A SWAP2 SWAP1 PUSH2 0x51F JUMP JUMPDEST PUSH1 0x40 MLOAD DUP1 SWAP2 SUB SWAP1 RETURN JUMPDEST PUSH2 0x14D PUSH1 0x4 DUP1 CALLDATASIZE SUB DUP2 ADD SWAP1 PUSH2 0x148 SWAP2 SWAP1 PUSH2 0x56F JUMP JUMPDEST PUSH2 0x233 JUMP JUMPDEST STOP JUMPDEST PUSH0 PUSH1 0x1 PUSH0 SWAP1 SLOAD SWAP1 PUSH2 0x100 EXP SWAP1 DIV PUSH20 0xFFFFFFFFFFFFFFFFFFFFFFFFFFFFFFFFFFFFFFFF AND SWAP1 POP SWAP1 JUMP JUMPDEST PUSH0 PUSH1 0x2 PUSH0 SWAP1 SLOAD SWAP1 PUSH2 0x100 EXP SWAP1 DIV PUSH20 0xFFFFFFFFFFFFFFFFFFFFFFFFFFFFFFFFFFFFFFFF AND SWAP1 POP SWAP1 JUMP JUMPDEST PUSH0 DUP1 SLOAD SWAP1 PUSH2 0x100 EXP SWAP1 DIV PUSH20 0xFFFFFFFFFFFFFFFFFFFFFFFFFFFFFFFFFFFFFFFF AND DUP2 JUMP JUMPDEST PUSH1 0x2 PUSH0 SWAP1 SLOAD SWAP1 PUSH2 0x100 EXP SWAP1 DIV PUSH20 0xFFFFFFFFFFFFFFFFFFFFFFFFFFFFFFFFFFFFFFFF AND DUP2 JUMP JUMPDEST PUSH1 0x1 PUSH0 SWAP1 SLOAD SWAP1 PUSH2 0x100 EXP SWAP1 DIV PUSH20 0xFFFFFFFFFFFFFFFFFFFFFFFFFFFFFFFFFFFFFFFF AND DUP2 JUMP JUMPDEST PUSH0 DUP1 PUSH0 SWAP1 SLOAD SWAP1 PUSH2 0x100 EXP SWAP1 DIV PUSH20 0xFFFFFFFFFFFFFFFFFFFFFFFFFFFFFFFFFFFFFFFF AND SWAP1 POP SWAP1 JUMP JUMPDEST PUSH0 DUP1 PUSH0 PUSH2 0x100 EXP DUP2 SLOAD DUP2 PUSH20 0xFFFFFFFFFFFFFFFFFFFFFFFFFFFFFFFFFFFFFFFF MUL NOT AND SWAP1 DUP4 PUSH20 0xFFFFFFFFFFFFFFFFFFFFFFFFFFFFFFFFFFFFFFFF AND MUL OR SWAP1 SSTORE POP PUSH0 PUSH1 0x1 PUSH0 PUSH2 0x100 EXP DUP2 SLOAD DUP2 PUSH20 0xFFFFFFFFFFFFFFFFFFFFFFFFFFFFFFFFFFFFFFFF MUL NOT AND SWAP1 DUP4 PUSH20 0xFFFFFFFFFFFFFFFFFFFFFFFFFFFFFFFFFFFFFFFF AND MUL OR SWAP1 SSTORE POP PUSH0 PUSH1 0x2 PUSH0 PUSH2 0x100 EXP DUP2 SLOAD DUP2 PUSH20 0xFFFFFFFFFFFFFFFFFFFFFFFFFFFFFFFFFFFFFFFF MUL NOT AND SWAP1 DUP4 PUSH20 0xFFFFFFFFFFFFFFFFFFFFFFFFFFFFFFFFFFFFFFFF AND MUL OR SWAP1 SSTORE POP PUSH0 PUSH1 0x3 DUP3 PUSH2 0x300 SWAP2 SWAP1 PUSH2 0x5C7 JUMP JUMPDEST EQ DUP1 ISZERO PUSH2 0x318 JUMPI POP PUSH0 PUSH1 0x5 DUP3 PUSH2 0x316 SWAP2 SWAP1 PUSH2 0x5C7 JUMP JUMPDEST EQ JUMPDEST ISZERO PUSH2 0x361 JUMPI CALLER PUSH0 DUP1 PUSH2 0x100 EXP DUP2 SLOAD DUP2 PUSH20 0xFFFFFFFFFFFFFFFFFFFFFFFFFFFFFFFFFFFFFFFF MUL NOT AND SWAP1 DUP4 PUSH20 0xFFFFFFFFFFFFFFFFFFFFFFFFFFFFFFFFFFFFFFFF AND MUL OR SWAP1 SSTORE POP PUSH2 0x43F JUMP JUMPDEST PUSH0 PUSH1 0x7 DUP3 PUSH2 0x36F SWAP2 SWAP1 PUSH2 0x5C7 JUMP JUMPDEST EQ DUP1 PUSH2 0x386 JUMPI POP PUSH0 PUSH1 0xB DUP3 PUSH2 0x384 SWAP2 SWAP1 PUSH2 0x5C7 JUMP JUMPDEST EQ JUMPDEST ISZERO PUSH2 0x3D0 JUMPI CALLER PUSH1 0x1 PUSH0 PUSH2 0x100 EXP DUP2 SLOAD DUP2 PUSH20 0xFFFFFFFFFFFFFFFFFFFFFFFFFFFFFFFFFFFFFFFF MUL NOT AND SWAP1 DUP4 PUSH20 0xFFFFFFFFFFFFFFFFFFFFFFFFFFFFFFFFFFFFFFFF AND MUL OR SWAP1 SSTORE POP PUSH2 0x43E JUMP JUMPDEST PUSH0 PUSH1 0x5 DUP3 PUSH2 0x3DE SWAP2 SWAP1 PUSH2 0x5C7 JUMP JUMPDEST EQ DUP1 ISZERO PUSH2 0x3F7 JUMPI POP PUSH0 PUSH1 0xA DUP3 PUSH2 0x3F4 SWAP2 SWAP1 PUSH2 0x5C7 JUMP JUMPDEST EQ ISZERO JUMPDEST ISZERO PUSH2 0x43D JUMPI CALLER PUSH1 0x2 PUSH0 PUSH2 0x100 EXP DUP2 SLOAD DUP2 PUSH20 0xFFFFFFFFFFFFFFFFFFFFFFFFFFFFFFFFFFFFFFFF MUL NOT AND SWAP1 DUP4 PUSH20 0xFFFFFFFFFFFFFFFFFFFFFFFFFFFFFFFFFFFFFFFF AND MUL OR SWAP1 SSTORE POP JUMPDEST JUMPDEST JUMPDEST PUSH32 0xC3C1F65FC96CBD14A085F7DDBB1E3DCC87916F31DBA1F4D1586B92CA62E3EED2 DUP2 PUSH0 DUP1 SLOAD SWAP1 PUSH2 0x100 EXP SWAP1 DIV PUSH20 0xFFFFFFFFFFFFFFFFFFFFFFFFFFFFFFFFFFFFFFFF AND PUSH1 0x1 PUSH0 SWAP1 SLOAD SWAP1 PUSH2 0x100 EXP SWAP1 DIV PUSH20 0xFFFFFFFFFFFFFFFFFFFFFFFFFFFFFFFFFFFFFFFF AND PUSH1 0x2 PUSH0 SWAP1 SLOAD SWAP1 PUSH2 0x100 EXP SWAP1 DIV PUSH20 0xFFFFFFFFFFFFFFFFFFFFFFFFFFFFFFFFFFFFFFFF AND PUSH1 0x40 MLOAD PUSH2 0x4D5 SWAP5 SWAP4 SWAP3 SWAP2 SWAP1 PUSH2 0x606 JUMP JUMPDEST PUSH1 0x40 MLOAD DUP1 SWAP2 SUB SWAP1 LOG1 POP JUMP JUMPDEST PUSH0 PUSH20 0xFFFFFFFFFFFFFFFFFFFFFFFFFFFFFFFFFFFFFFFF DUP3 AND SWAP1 POP SWAP2 SWAP1 POP JUMP JUMPDEST PUSH0 PUSH2 0x509 DUP3 PUSH2 0x4E0 JUMP JUMPDEST SWAP1 POP SWAP2 SWAP1 POP JUMP JUMPDEST PUSH2 0x519 DUP2 PUSH2 0x4FF JUMP JUMPDEST DUP3 MSTORE POP POP JUMP JUMPDEST PUSH0 PUSH1 0x20 DUP3 ADD SWAP1 POP PUSH2 0x532 PUSH0 DUP4 ADD DUP5 PUSH2 0x510 JUMP JUMPDEST SWAP3 SWAP2 POP POP JUMP JUMPDEST PUSH0 DUP1 REVERT JUMPDEST PUSH0 DUP2 SWAP1 POP SWAP2 SWAP1 POP JUMP JUMPDEST PUSH2 0x54E DUP2 PUSH2 0x53C JUMP JUMPDEST DUP2 EQ PUSH2 0x558 JUMPI PUSH0 DUP1 REVERT JUMPDEST POP JUMP JUMPDEST PUSH0 DUP2 CALLDATALOAD SWAP1 POP PUSH2 0x569 DUP2 PUSH2 0x545 JUMP JUMPDEST SWAP3 SWAP2 POP POP JUMP JUMPDEST PUSH0 PUSH1 0x20 DUP3 DUP5 SUB SLT ISZERO PUSH2 0x584 JUMPI PUSH2 0x583 PUSH2 0x538 JUMP JUMPDEST JUMPDEST PUSH0 PUSH2 0x591 DUP5 DUP3 DUP6 ADD PUSH2 0x55B JUMP JUMPDEST SWAP2 POP POP SWAP3 SWAP2 POP POP JUMP JUMPDEST PUSH32 0x4E487B7100000000000000000000000000000000000000000000000000000000 PUSH0 MSTORE PUSH1 0x12 PUSH1 0x4 MSTORE PUSH1 0x24 PUSH0 REVERT JUMPDEST PUSH0 PUSH2 0x5D1 DUP3 PUSH2 0x53C JUMP JUMPDEST SWAP2 POP PUSH2 0x5DC DUP4 PUSH2 0x53C JUMP JUMPDEST SWAP3 POP DUP3 PUSH2 0x5EC JUMPI PUSH2 0x5EB PUSH2 0x59A JUMP JUMPDEST JUMPDEST DUP3 DUP3 MOD SWAP1 POP SWAP3 SWAP2 POP POP JUMP JUMPDEST PUSH2 0x600 DUP2 PUSH2 0x53C JUMP JUMPDEST DUP3 MSTORE POP POP JUMP JUMPDEST PUSH0 PUSH1 0x80 DUP3 ADD SWAP1 POP PUSH2 0x619 PUSH0 DUP4 ADD DUP8 PUSH2 0x5F7 JUMP JUMPDEST PUSH2 0x626 PUSH1 0x20 DUP4 ADD DUP7 PUSH2 0x510 JUMP JUMPDEST PUSH2 0x633 PUSH1 0x40 DUP4 ADD DUP6 PUSH2 0x510 JUMP JUMPDEST PUSH2 0x640 PUSH1 0x60 DUP4 ADD DUP5 PUSH2 0x510 JUMP JUMPDEST SWAP6 SWAP5 POP POP POP POP POP JUMP INVALID LOG2 PUSH5 0x6970667358 0x22 SLT KECCAK256 DUP8 PUSH0 PUSH15 0xC0F956D7200DAF3C8E5E6294FECB97 BYTE 0xCB CALLDATALOAD SWAP16 MSTORE8 0xEE PUSH27 0xDBA831F8A76FC64736F6C634300081A0033000000000000000000 "
		},
		"gasEstimates": {
			"creation": {
				"codeDepositCost": "332600",
				"executionCost": "366",
				"totalCost": "332966"
			},
			"external": {
				"drawLottery(uint256)": "infinite",
				"firstPrizeWinner()": "2550",
				"getFirstPrizeWinner()": "2559",
				"getSecondPrizeWinner()": "2516",
				"getThirdPrizeWinner()": "2538",
				"secondPrizeWinner()": "2530",
				"thirdPrizeWinner()": "2508"
			}
		},
		"methodIdentifiers": {
			"drawLottery(uint256)": "e303a92b",
			"firstPrizeWinner()": "42a3e93f",
			"getFirstPrizeWinner()": "b92abc94",
			"getSecondPrizeWinner()": "192c9040",
			"getThirdPrizeWinner()": "1a8056e1",
			"secondPrizeWinner()": "b3d64268",
			"thirdPrizeWinner()": "9be6ae64"
		}
	},
	"abi": [
		{
			"anonymous": false,
			"inputs": [
				{
					"indexed": false,
					"internalType": "uint256",
					"name": "winningNumber",
					"type": "uint256"
				},
				{
					"indexed": false,
					"internalType": "address",
					"name": "firstPrizeWinner",
					"type": "address"
				},
				{
					"indexed": false,
					"internalType": "address",
					"name": "secondPrizeWinner",
					"type": "address"
				},
				{
					"indexed": false,
					"internalType": "address",
					"name": "thirdPrizeWinner",
					"type": "address"
				}
			],
			"name": "LotteryDrawn",
			"type": "event"
		},
		{
			"inputs": [
				{
					"internalType": "uint256",
					"name": "lotteryNumber",
					"type": "uint256"
				}
			],
			"name": "drawLottery",
			"outputs": [],
			"stateMutability": "nonpayable",
			"type": "function"
		},
		{
			"inputs": [],
			"name": "firstPrizeWinner",
			"outputs": [
				{
					"internalType": "address",
					"name": "",
					"type": "address"
				}
			],
			"stateMutability": "view",
			"type": "function"
		},
		{
			"inputs": [],
			"name": "getFirstPrizeWinner",
			"outputs": [
				{
					"internalType": "address",
					"name": "",
					"type": "address"
				}
			],
			"stateMutability": "view",
			"type": "function"
		},
		{
			"inputs": [],
			"name": "getSecondPrizeWinner",
			"outputs": [
				{
					"internalType": "address",
					"name": "",
					"type": "address"
				}
			],
			"stateMutability": "view",
			"type": "function"
		},
		{
			"inputs": [],
			"name": "getThirdPrizeWinner",
			"outputs": [
				{
					"internalType": "address",
					"name": "",
					"type": "address"
				}
			],
			"stateMutability": "view",
			"type": "function"
		},
		{
			"inputs": [],
			"name": "secondPrizeWinner",
			"outputs": [
				{
					"internalType": "address",
					"name": "",
					"type": "address"
				}
			],
			"stateMutability": "view",
			"type": "function"
		},
		{
			"inputs": [],
			"name": "thirdPrizeWinner",
			"outputs": [
				{
					"internalType": "address",
					"name": "",
					"type": "address"
				}
			],
			"stateMutability": "view",
			"type": "function"
		}
	]
}